{"abi":[{"type":"constructor","inputs":[{"name":"valuationEngine_","type":"address","internalType":"address"},{"name":"lendingPool_","type":"address","internalType":"address"},{"name":"wrapperNFT_","type":"address","internalType":"address"},{"name":"usdc_","type":"address","internalType":"address"}],"stateMutability":"nonpayable"},{"type":"function","name":"BPS_DENOM","inputs":[],"outputs":[{"name":"","type":"uint256","internalType":"uint256"}],"stateMutability":"view"},{"type":"function","name":"CREDIT_PREMIUM","inputs":[],"outputs":[{"name":"","type":"uint256","internalType":"uint256"}],"stateMutability":"view"},{"type":"function","name":"CREDIT_RECRUIT","inputs":[],"outputs":[{"name":"","type":"uint256","internalType":"uint256"}],"stateMutability":"view"},{"type":"function","name":"CREDIT_SCOUT","inputs":[],"outputs":[{"name":"","type":"uint256","internalType":"uint256"}],"stateMutability":"view"},{"type":"function","name":"CREDIT_STANDARD","inputs":[],"outputs":[{"name":"","type":"uint256","internalType":"uint256"}],"stateMutability":"view"},{"type":"function","name":"CREDIT_TITAN","inputs":[],"outputs":[{"name":"","type":"uint256","internalType":"uint256"}],"stateMutability":"view"},{"type":"function","name":"DEFAULT_ADMIN_ROLE","inputs":[],"outputs":[{"name":"","type":"bytes32","internalType":"bytes32"}],"stateMutability":"view"},{"type":"function","name":"GOVERNOR_ROLE","inputs":[],"outputs":[{"name":"","type":"bytes32","internalType":"bytes32"}],"stateMutability":"view"},{"type":"function","name":"GUARDIAN_ROLE","inputs":[],"outputs":[{"name":"","type":"bytes32","internalType":"bytes32"}],"stateMutability":"view"},{"type":"function","name":"LOAN_MANAGER_ROLE","inputs":[],"outputs":[{"name":"","type":"bytes32","internalType":"bytes32"}],"stateMutability":"view"},{"type":"function","name":"MAX_ACTIVE_LOANS","inputs":[],"outputs":[{"name":"","type":"uint256","internalType":"uint256"}],"stateMutability":"view"},{"type":"function","name":"MAX_DURATION","inputs":[],"outputs":[{"name":"","type":"uint256","internalType":"uint256"}],"stateMutability":"view"},{"type":"function","name":"MAX_LTV_BPS","inputs":[],"outputs":[{"name":"","type":"uint256","internalType":"uint256"}],"stateMutability":"view"},{"type":"function","name":"RATE_PREMIUM","inputs":[],"outputs":[{"name":"","type":"uint256","internalType":"uint256"}],"stateMutability":"view"},{"type":"function","name":"RATE_STANDARD","inputs":[],"outputs":[{"name":"","type":"uint256","internalType":"uint256"}],"stateMutability":"view"},{"type":"function","name":"RATE_TITAN","inputs":[],"outputs":[{"name":"","type":"uint256","internalType":"uint256"}],"stateMutability":"view"},{"type":"function","name":"RELAYER_ROLE","inputs":[],"outputs":[{"name":"","type":"bytes32","internalType":"bytes32"}],"stateMutability":"view"},{"type":"function","name":"TIER_PREMIUM","inputs":[],"outputs":[{"name":"","type":"uint256","internalType":"uint256"}],"stateMutability":"view"},{"type":"function","name":"TIER_STANDARD","inputs":[],"outputs":[{"name":"","type":"uint256","internalType":"uint256"}],"stateMutability":"view"},{"type":"function","name":"TIER_TITAN","inputs":[],"outputs":[{"name":"","type":"uint256","internalType":"uint256"}],"stateMutability":"view"},{"type":"function","name":"activeLoanCount","inputs":[{"name":"","type":"address","internalType":"address"}],"outputs":[{"name":"","type":"uint256","internalType":"uint256"}],"stateMutability":"view"},{"type":"function","name":"borrowerLoans","inputs":[{"name":"","type":"address","internalType":"address"},{"name":"","type":"uint256","internalType":"uint256"}],"outputs":[{"name":"","type":"uint256","internalType":"uint256"}],"stateMutability":"view"},{"type":"function","name":"getRoleAdmin","inputs":[{"name":"role","type":"bytes32","internalType":"bytes32"}],"outputs":[{"name":"","type":"bytes32","internalType":"bytes32"}],"stateMutability":"view"},{"type":"function","name":"grantRelayer","inputs":[{"name":"relayer","type":"address","internalType":"address"}],"outputs":[],"stateMutability":"nonpayable"},{"type":"function","name":"grantRole","inputs":[{"name":"role","type":"bytes32","internalType":"bytes32"},{"name":"account","type":"address","internalType":"address"}],"outputs":[],"stateMutability":"nonpayable"},{"type":"function","name":"hasRole","inputs":[{"name":"role","type":"bytes32","internalType":"bytes32"},{"name":"account","type":"address","internalType":"address"}],"outputs":[{"name":"","type":"bool","internalType":"bool"}],"stateMutability":"view"},{"type":"function","name":"lendingPool","inputs":[],"outputs":[{"name":"","type":"address","internalType":"contract ILendingPool"}],"stateMutability":"view"},{"type":"function","name":"loans","inputs":[{"name":"","type":"uint256","internalType":"uint256"}],"outputs":[{"name":"borrower","type":"address","internalType":"address"},{"name":"streamContract","type":"address","internalType":"address"},{"name":"streamId","type":"uint256","internalType":"uint256"},{"name":"collateralToken","type":"address","internalType":"address"},{"name":"borrowedUsdc","type":"uint256","internalType":"uint256"},{"name":"dpvAtOrigination","type":"uint256","internalType":"uint256"},{"name":"interestRateBps","type":"uint256","internalType":"uint256"},{"name":"originatedAt","type":"uint256","internalType":"uint256"},{"name":"dueAt","type":"uint256","internalType":"uint256"},{"name":"nftTokenId","type":"uint256","internalType":"uint256"},{"name":"active","type":"bool","internalType":"bool"}],"stateMutability":"view"},{"type":"function","name":"maxCreditBps","inputs":[{"name":"","type":"address","internalType":"address"}],"outputs":[{"name":"","type":"uint256","internalType":"uint256"}],"stateMutability":"view"},{"type":"function","name":"nextLoanId","inputs":[],"outputs":[{"name":"","type":"uint256","internalType":"uint256"}],"stateMutability":"view"},{"type":"function","name":"originateLoan","inputs":[{"name":"streamContract","type":"address","internalType":"address"},{"name":"streamId","type":"uint256","internalType":"uint256"},{"name":"requestedUsdc","type":"uint256","internalType":"uint256"}],"outputs":[{"name":"loanId","type":"uint256","internalType":"uint256"},{"name":"nftTokenId","type":"uint256","internalType":"uint256"}],"stateMutability":"nonpayable"},{"type":"function","name":"pause","inputs":[],"outputs":[],"stateMutability":"nonpayable"},{"type":"function","name":"paused","inputs":[],"outputs":[{"name":"","type":"bool","internalType":"bool"}],"stateMutability":"view"},{"type":"function","name":"renounceRole","inputs":[{"name":"role","type":"bytes32","internalType":"bytes32"},{"name":"callerConfirmation","type":"address","internalType":"address"}],"outputs":[],"stateMutability":"nonpayable"},{"type":"function","name":"repayLoan","inputs":[{"name":"loanId","type":"uint256","internalType":"uint256"}],"outputs":[],"stateMutability":"nonpayable"},{"type":"function","name":"revokeRole","inputs":[{"name":"role","type":"bytes32","internalType":"bytes32"},{"name":"account","type":"address","internalType":"address"}],"outputs":[],"stateMutability":"nonpayable"},{"type":"function","name":"setVcsTier","inputs":[{"name":"borrower","type":"address","internalType":"address"},{"name":"tier","type":"uint256","internalType":"uint256"},{"name":"creditBps_","type":"uint256","internalType":"uint256"}],"outputs":[],"stateMutability":"nonpayable"},{"type":"function","name":"settleLoan","inputs":[{"name":"loanId","type":"uint256","internalType":"uint256"}],"outputs":[],"stateMutability":"nonpayable"},{"type":"function","name":"supportsInterface","inputs":[{"name":"interfaceId","type":"bytes4","internalType":"bytes4"}],"outputs":[{"name":"","type":"bool","internalType":"bool"}],"stateMutability":"view"},{"type":"function","name":"unpause","inputs":[],"outputs":[],"stateMutability":"nonpayable"},{"type":"function","name":"usdc","inputs":[],"outputs":[{"name":"","type":"address","internalType":"contract IERC20"}],"stateMutability":"view"},{"type":"function","name":"valuationEngine","inputs":[],"outputs":[{"name":"","type":"address","internalType":"contract IValuationEngine"}],"stateMutability":"view"},{"type":"function","name":"vcsTier","inputs":[{"name":"","type":"address","internalType":"address"}],"outputs":[{"name":"","type":"uint256","internalType":"uint256"}],"stateMutability":"view"},{"type":"function","name":"wrapperNFT","inputs":[],"outputs":[{"name":"","type":"address","internalType":"contract IVestraWrapperNFT"}],"stateMutability":"view"},{"type":"event","name":"LoanOriginated","inputs":[{"name":"loanId","type":"uint256","indexed":true,"internalType":"uint256"},{"name":"borrower","type":"address","indexed":true,"internalType":"address"},{"name":"streamId","type":"uint256","indexed":false,"internalType":"uint256"},{"name":"borrowedUsdc","type":"uint256","indexed":false,"internalType":"uint256"},{"name":"dpvAtOrigination","type":"uint256","indexed":false,"internalType":"uint256"},{"name":"nftTokenId","type":"uint256","indexed":false,"internalType":"uint256"}],"anonymous":false},{"type":"event","name":"LoanRepaid","inputs":[{"name":"loanId","type":"uint256","indexed":true,"internalType":"uint256"},{"name":"repayer","type":"address","indexed":true,"internalType":"address"},{"name":"principal","type":"uint256","indexed":false,"internalType":"uint256"},{"name":"interest","type":"uint256","indexed":false,"internalType":"uint256"}],"anonymous":false},{"type":"event","name":"LoanSettled","inputs":[{"name":"loanId","type":"uint256","indexed":true,"internalType":"uint256"},{"name":"borrower","type":"address","indexed":true,"internalType":"address"},{"name":"recoveredUsdc","type":"uint256","indexed":false,"internalType":"uint256"},{"name":"fullRecovery","type":"bool","indexed":false,"internalType":"bool"}],"anonymous":false},{"type":"event","name":"Paused","inputs":[{"name":"account","type":"address","indexed":false,"internalType":"address"}],"anonymous":false},{"type":"event","name":"RoleAdminChanged","inputs":[{"name":"role","type":"bytes32","indexed":true,"internalType":"bytes32"},{"name":"previousAdminRole","type":"bytes32","indexed":true,"internalType":"bytes32"},{"name":"newAdminRole","type":"bytes32","indexed":true,"internalType":"bytes32"}],"anonymous":false},{"type":"event","name":"RoleGranted","inputs":[{"name":"role","type":"bytes32","indexed":true,"internalType":"bytes32"},{"name":"account","type":"address","indexed":true,"internalType":"address"},{"name":"sender","type":"address","indexed":true,"internalType":"address"}],"anonymous":false},{"type":"event","name":"RoleRevoked","inputs":[{"name":"role","type":"bytes32","indexed":true,"internalType":"bytes32"},{"name":"account","type":"address","indexed":true,"internalType":"address"},{"name":"sender","type":"address","indexed":true,"internalType":"address"}],"anonymous":false},{"type":"event","name":"Unpaused","inputs":[{"name":"account","type":"address","indexed":false,"internalType":"address"}],"anonymous":false},{"type":"event","name":"VcsTierSet","inputs":[{"name":"borrower","type":"address","indexed":true,"internalType":"address"},{"name":"tier","type":"uint256","indexed":false,"internalType":"uint256"},{"name":"maxCreditBps_","type":"uint256","indexed":false,"internalType":"uint256"}],"anonymous":false},{"type":"error","name":"AccessControlBadConfirmation","inputs":[]},{"type":"error","name":"AccessControlUnauthorizedAccount","inputs":[{"name":"account","type":"address","internalType":"address"},{"name":"neededRole","type":"bytes32","internalType":"bytes32"}]},{"type":"error","name":"AddressEmptyCode","inputs":[{"name":"target","type":"address","internalType":"address"}]},{"type":"error","name":"AddressInsufficientBalance","inputs":[{"name":"account","type":"address","internalType":"address"}]},{"type":"error","name":"EnforcedPause","inputs":[]},{"type":"error","name":"ExpectedPause","inputs":[]},{"type":"error","name":"FailedInnerCall","inputs":[]},{"type":"error","name":"ReentrancyGuardReentrantCall","inputs":[]},{"type":"error","name":"SafeERC20FailedOperation","inputs":[{"name":"token","type":"address","internalType":"address"}]}],"bytecode":{"object":"0x6101003461026557601f6124f538819003918201601f19168301916001600160401b0383118484101761026957808492608094604052833981010312610265576100488161027d565b6100546020830161027d565b9161006d60606100666040840161027d565b920161027d565b60018080556002805460ff191690556003556001600160a01b03909216928315610220576001600160a01b03169081156101db576001600160a01b0316918215610196576001600160a01b031692831561015d5760805260a05260c05260e0526100d633610291565b506100e033610307565b506100ea3361039a565b50604051612047908161042e8239608051818181610445015261111b015260a05181818161067b0152818161091b01528181610c510152611017015260c0518181816102170152818161051101528181610bdd015261140b015260e0518181816105e001528181610c9601526119550152f35b60405162461bcd60e51b81526020600482015260116024820152705665737472613a207a65726f205553444360781b6044820152606490fd5b60405162461bcd60e51b815260206004820152601760248201527f5665737472613a207a65726f20577261707065724e46540000000000000000006044820152606490fd5b60405162461bcd60e51b815260206004820152601860248201527f5665737472613a207a65726f204c656e64696e67506f6f6c00000000000000006044820152606490fd5b60405162461bcd60e51b815260206004820152601c60248201527f5665737472613a207a65726f2056616c756174696f6e456e67696e65000000006044820152606490fd5b5f80fd5b634e487b7160e01b5f52604160045260245ffd5b51906001600160a01b038216820361026557565b6001600160a01b0381165f9081525f5160206124d55f395f51905f52602052604090205460ff16610302576001600160a01b03165f8181525f5160206124d55f395f51905f5260205260408120805460ff191660011790553391905f5160206124755f395f51905f528180a4600190565b505f90565b6001600160a01b0381165f9081525f5160206124b55f395f51905f52602052604090205460ff16610302576001600160a01b03165f8181525f5160206124b55f395f51905f5260205260408120805460ff191660011790553391907f7935bd0ae54bc31f548c14dba4d37c5c64b3f8ca900cb468fb8abd54d5894f55905f5160206124755f395f51905f529080a4600190565b6001600160a01b0381165f9081525f5160206124955f395f51905f52602052604090205460ff16610302576001600160a01b03165f8181525f5160206124955f395f51905f5260205260408120805460ff191660011790553391907f55435dd261a4b9b3364963f7738a7a662ad9c84396d64be3365284bb7f0a5041905f5160206124755f395f51905f529080a460019056fe6080806040526004361015610012575f80fd5b5f905f3560e01c90816301ffc9a714611aaa575080630ec833c614611a8f5780631bfaae1d14611a73578063248a9ca314611a4157806324ea54f414611a075780632f2ff15d146119ca57806336568abe146119845780633d4ce290146109835780633e413bee146119405780633f4ba83a146118da57806342b2e7ff146118be578063525b9fde14611884578063547c3d0014610fcf5780635909ff4414610fb35780635c975abb14610f9057806360ad86bc14610e4757806360c8914914610e0e5780636637e38c14610df1578063691e037a146109885780637f09d3f314610b3f5780638456cb5914610ae457806387c5145914610ac65780638b4affaa14610aa957806391d1485414610a6057806391ff34af14610a4357806392649c50146109e9578063926d7d7f146109c15780639c364a57146109a4578063a217fddf14610988578063a524400914610983578063a57bbc221461094a578063a59a997314610905578063a60531a4146108e9578063ab7b1c89146104b0578063b1724b4614610491578063c5cdbeb314610474578063cc7e752b1461042f578063ccc57490146103f4578063d547741f146103ad578063d95e451514610374578063df7b14c114610357578063e1ec3c68146102a0578063e3ed1902146102495763ff4085af14610202575f80fd5b346102465780600319360112610246576040517f00000000000000000000000000000000000000000000000000000000000000006001600160a01b03168152602090f35b80fd5b503461024657604036600319011261024657610263611b13565b6001600160a01b03168152600560205260408120805460243592908310156102465760206102918484611b6f565b90549060031b1c604051908152f35b503461024657602036600319011261024657604061016091600435815260046020522060018060a01b038154169060018060a01b0360018201541690600281015460018060a01b036003830154166004830154600584015460068501549160078601549360088701549560ff600a60098a015499015416986040519a8b5260208b015260408a01526060890152608088015260a087015260c086015260e08501526101008401526101208301521515610140820152f35b503461024657806003193601126102465760206040516119648152f35b5034610246576020366003190112610246576020906040906001600160a01b0361039c611b13565b168152600883522054604051908152f35b5034610246576040366003190112610246576103f06004356103cd611afd565b906103eb6103e6825f525f602052600160405f20015490565b611cdd565b611e5b565b5080f35b503461024657806003193601126102465760206040517f7935bd0ae54bc31f548c14dba4d37c5c64b3f8ca900cb468fb8abd54d5894f558152f35b50346102465780600319360112610246576040517f00000000000000000000000000000000000000000000000000000000000000006001600160a01b03168152602090f35b503461024657806003193601126102465760206040516107d08152f35b503461024657806003193601126102465760206040516305a39a808152f35b5034610246576020366003190112610246576004356104cd611edb565b6104d5611efb565b80825260046020526040822090600a820180546104f460ff8216611c09565b6009840180546040516331a9108f60e11b815260048101919091527f00000000000000000000000000000000000000000000000000000000000000006001600160a01b03169290602081602481875afa9081156108de5788916108a0575b50336001600160a01b03909116036108635761056d86611f5e565b95600481019461057e888754611c55565b60ff199093169055546001600160a01b0316875260066020526040872080546105a690611c62565b90556040518780602083016323b872dd60e01b8152336024850152306044850152846064850152606484526105dc608485611b98565b92517f00000000000000000000000000000000000000000000000000000000000000006001600160a01b03169382855af13d15610857573d9067ffffffffffffffff8211610843579061065191604051916106416020601f19601f8401160184611b98565b82523d8b602084013e5b83611f93565b805190811515918261081c575b505061080a5760405163095ea7b360e01b81526001600160a01b037f00000000000000000000000000000000000000000000000000000000000000001660048201819052602482019390935288949392916020908290604490829089905af180156107ff576107c8575b508454813b156107c4578491604483926040519485938492638a700b5360e01b845260048401528c60248401525af19081156107b95784916107a4575b505054813b156107a0578291604483926040519485938492639fac68cb60e01b84526004840152600160248401525af180156107955761077c575b5050549160405192835260208301527f553c9087bff5b534e499a66dac3fa9db2962cd252ea01165239755836ae5345e60403393a36001805580f35b8161078691611b98565b61079157835f610740565b8380fd5b6040513d84823e3d90fd5b8280fd5b816107ae91611b98565b6107a057825f610705565b6040513d86823e3d90fd5b8480fd5b6020813d6020116107f7575b816107e160209383611b98565b810103126107c4576107f290611bce565b6106c8565b3d91506107d4565b6040513d87823e3d90fd5b635274afe760e01b8852600452602487fd5b819250906020918101031261083f5760206108379101611bce565b155f8061065e565b8880fd5b634e487b7160e01b8a52604160045260248afd5b6106519060609061064b565b60405162461bcd60e51b81526020600482015260156024820152742b32b9ba39309d103737ba1027232a1037bbb732b960591b6044820152606490fd5b90506020813d6020116108d6575b816108bb60209383611b98565b810103126108d2576108cc90611bba565b5f610552565b8780fd5b3d91506108ae565b6040513d8a823e3d90fd5b5034610246578060031936011261024657602060405160058152f35b50346102465780600319360112610246576040517f00000000000000000000000000000000000000000000000000000000000000006001600160a01b03168152602090f35b5034610246576020366003190112610246576020906040906001600160a01b03610972611b13565b168152600783522054604051908152f35b611b29565b5034610246578060031936011261024657602090604051908152f35b503461024657806003193601126102465760206040516113888152f35b503461024657806003193601126102465760206040515f516020611ff25f395f51905f528152f35b503461024657602036600319011261024657610a03611b13565b81805260208281526040808420335f908152925290205460ff1615610a2b576103f090611d15565b63e2517d3f60e01b8252336004526024829052604482fd5b50346102465780600319360112610246576020604051610fa08152f35b5034610246576040366003190112610246576040610a7c611afd565b91600435815280602052209060018060a01b03165f52602052602060ff60405f2054166040519015158152f35b503461024657806003193601126102465760206040516107088152f35b50346102465780600319360112610246576020600354604051908152f35b5034610246578060031936011261024657610afd611c6e565b610b05611efb565b600160ff1960025416176002557f62e78cea01bee320cd4e420270b5ea74000d11b0c9f74754ebdbfc544b05a2586020604051338152a180f35b503461024657602036600319011261024657600435610b5c611edb565b610b64611efb565b80825260046020526040822090600a820191825492610b8560ff8516611c09565b60088201544210610dac578490610b9b83611f5e565b6004840191610bab828454611c55565b60ff19909716905583546001600160a01b031683526006602052604083208054610bd490611c62565b905560098401547f00000000000000000000000000000000000000000000000000000000000000006001600160a01b031690813b156107c4578491604483926040519485938492639fac68cb60e01b845260048401528160248401525af19081156107b9578491610d97575b505060405163095ea7b360e01b81527f00000000000000000000000000000000000000000000000000000000000000006001600160a01b03166004820181905260248201889052929060208180604481010381887f00000000000000000000000000000000000000000000000000000000000000006001600160a01b03165af180156107ff57610d60575b505490823b156107915760448492836040519586948593638a700b5360e01b8552600485015260248401525af1801561079557610d4b575b50505460408051938452600160208501526001600160a01b03909116927f17792b128e645bc875fec48409c4f34db86cc361c4e54c591fe6af7eb36739799190a36001805580f35b81610d5591611b98565b61079157835f610d03565b6020813d602011610d8f575b81610d7960209383611b98565b810103126107c457610d8a90611bce565b610ccb565b3d9150610d6c565b81610da191611b98565b6107a057825f610c40565b60405162461bcd60e51b815260206004820152601760248201527f5665737472613a206e6f7420796574206d6174757265640000000000000000006044820152606490fd5b503461024657806003193601126102465760206040516127108152f35b5034610246576020366003190112610246576020906040906001600160a01b03610e36611b13565b168152600683522054604051908152f35b503461024657610e5636611b45565b5f516020611ff25f395f51905f52845260208481526040808620335f908152925290205490929060ff1615610f6c5760028211610f30576119648311610eec577fc0bfe4fd0e91faa3664383b173412e553301093f27703e5d248da715bfdd11c99160409160018060a01b031693848652600760205281838720558486526008602052808387205582519182526020820152a280f35b606460405162461bcd60e51b815260206004820152602060248201527f5665737472613a20637265646974206578636565647320546974616e206361706044820152fd5b60405162461bcd60e51b81526020600482015260146024820152732b32b9ba39309d1034b73b30b634b2103a34b2b960611b6044820152606490fd5b63e2517d3f60e01b8452336004525f516020611ff25f395f51905f52602452604484fd5b5034610246578060031936011261024657602060ff600254166040519015158152f35b5034610246578060031936011261024657602060405160028152f35b346114ee57610fdd36611b45565b610fe5611edb565b610fed611efb565b801561184957335f526006602052600560405f2054101561180b57604051637437535960e01b81527f00000000000000000000000000000000000000000000000000000000000000006001600160a01b03169390602081600481885afa80156114e35783915f916117d6575b501061179e5760405163894e9a0d60e01b8152600481018490526001600160a01b0391909116929061010081602481875afa9283156114e3575f5f925f915f965f925f91611720575b506116db57336001600160a01b03909116036116965742861115611658576305a39a806110cf4288611bdb565b11611614576110dd91611bdb565b9160405192633fd1d48960e21b8452600484015260018060a01b03169384602484015280604484015285606484015260408360848160018060a01b037f0000000000000000000000000000000000000000000000000000000000000000165afa80156114e3575f935f916115d8575b50611b58106115935761115e33611f16565b620f42408402848104620f4240148515171561157f5761271091670de0b6b3a764000061118b9204611be8565b04821161153a57335f52600760205260405f20546111a881611f3c565b91600354976111b689611bfb565b60035560405161016081019080821067ffffffffffffffff831117611526578a92600a9260405233825260208201908152604082018a8152606083018c8152608084018a815260a085018c815260c08601918b835260e08701934285526101008801958b87526101208901975f89526101408a019b60018d525f52600460205260405f209960018060a01b039060018060a01b03905116166001600160601b0360a01b8b5416178a5560018060a01b0390511660018a019060018060a01b03166001600160601b0360a01b82541617905551600289015560018060a01b03905116600388019060018060a01b03166001600160601b0360a01b825416179055516004870155516005860155516006850155516007840155516008830155516009820155019051151560ff80198354169116179055335f52600560205260405f208054680100000000000000008110156115265761131891600182018155611b6f565b81549060031b908a821b915f19901b1916179055335f52600660205260405f206113428154611bfb565b905560405196610120880188811067ffffffffffffffff821117611526576040528752602087019286845260408801908582526060890187815260808a0191825260a08a019242845260c08b0194855260e08b019586526101008b01965f88526040519b633ad857f360e11b8d528c60043391015260018060a01b0390511660248d01525160448c01525160648b01525160848a01525160a48901525160c48801525160e487015251610104860152511515610124850152602084610144815f60018060a01b037f0000000000000000000000000000000000000000000000000000000000000000165af19384156114e3575f946114f2575b50845f52600460205283600960405f200155853b156114ee575f809660446040518099819363654638c160e11b83528660048401523360248401525af19586156114e3576040966114d3575b508551928352602083015284820152816060820152827f22d99cbe34d7f6b09b6acf0e4cfcb344fe126ba83f07f7de2caa18e482a13f3d60803393a36001805582519182526020820152f35b5f6114dd91611b98565b5f611487565b6040513d5f823e3d90fd5b5f80fd5b9093506020813d60201161151e575b8161150e60209383611b98565b810103126114ee5751928661143b565b3d9150611501565b634e487b7160e01b5f52604160045260245ffd5b60405162461bcd60e51b815260206004820152601c60248201527f5665737472613a206578636565647320637265646974206c696d6974000000006044820152606490fd5b634e487b7160e01b5f52601160045260245ffd5b60405162461bcd60e51b815260206004820152601b60248201527f5665737472613a204c54562065786365656473206d6178696d756d00000000006044820152606490fd5b9350506040833d60401161160c575b816115f460409383611b98565b810103126114ee57611b58602084519401519061114c565b3d91506115e7565b606460405162461bcd60e51b815260206004820152602060248201527f5665737472613a206475726174696f6e206578636565647320337972206361706044820152fd5b60405162461bcd60e51b815260206004820152601660248201527515995cdd1c984e881cdd1c99585b48195e1c1a5c995960521b6044820152606490fd5b60405162461bcd60e51b815260206004820152601c60248201527f5665737472613a206e6f742073747265616d20726563697069656e74000000006044820152606490fd5b60405162461bcd60e51b815260206004820152601860248201527f5665737472613a2073747265616d2063616e63656c6c656400000000000000006044820152606490fd5b9750505050509050610100833d8211611796575b816117426101009383611b98565b810103126114ee5761175383611bba565b5061176060208401611bba565b9061176d60408501611bba565b60608501519260a08601519161178a60e060c08901519801611bce565b9190949296918a6110a2565b3d9150611734565b60405162461bcd60e51b815260206004820152601060248201526f5665737472613a20706f6f6c2064727960801b6044820152606490fd5b9150506020813d602011611803575b816117f260209383611b98565b810103126114ee5782905186611059565b3d91506117e5565b60405162461bcd60e51b81526020600482015260166024820152755665737472613a20746f6f206d616e79206c6f616e7360501b6044820152606490fd5b60405162461bcd60e51b81526020600482015260136024820152725665737472613a207a65726f20626f72726f7760681b6044820152606490fd5b346114ee575f3660031901126114ee5760206040517fa03a3445a42c88c4c71fab3b69391367d1386136663ed015f42f4322182d45478152f35b346114ee575f3660031901126114ee5760206040516105788152f35b346114ee575f3660031901126114ee576118f2611c6e565b60025460ff8116156119315760ff19166002557f5db9ee0a495bf2e6ff9c91a7834c1ba4fdd244a5e8aa4e537bd38aeae4b073aa6020604051338152a1005b638dfc202b60e01b5f5260045ffd5b346114ee575f3660031901126114ee576040517f00000000000000000000000000000000000000000000000000000000000000006001600160a01b03168152602090f35b346114ee5760403660031901126114ee5761199d611afd565b336001600160a01b038216036119bb576119b990600435611e5b565b005b63334bd91960e11b5f5260045ffd5b346114ee5760403660031901126114ee576119b96004356119e9611afd565b90611a026103e6825f525f602052600160405f20015490565b611dd3565b346114ee575f3660031901126114ee5760206040517f55435dd261a4b9b3364963f7738a7a662ad9c84396d64be3365284bb7f0a50418152f35b346114ee5760203660031901126114ee576020611a6b6004355f525f602052600160405f20015490565b604051908152f35b346114ee575f3660031901126114ee576020604051611b588152f35b346114ee575f3660031901126114ee57602060405160018152f35b346114ee5760203660031901126114ee576004359063ffffffff60e01b82168092036114ee57602091637965db0b60e01b8114908115611aec575b5015158152f35b6301ffc9a760e01b14905083611ae5565b602435906001600160a01b03821682036114ee57565b600435906001600160a01b03821682036114ee57565b346114ee575f3660031901126114ee5760206040516103e88152f35b60609060031901126114ee576004356001600160a01b03811681036114ee57906024359060443590565b8054821015611b84575f5260205f2001905f90565b634e487b7160e01b5f52603260045260245ffd5b90601f8019910116810190811067ffffffffffffffff82111761152657604052565b51906001600160a01b03821682036114ee57565b519081151582036114ee57565b9190820391821161157f57565b8181029291811591840414171561157f57565b5f19811461157f5760010190565b15611c1057565b60405162461bcd60e51b815260206004820152601760248201527f5665737472613a206c6f616e206e6f74206163746976650000000000000000006044820152606490fd5b9190820180921161157f57565b801561157f575f190190565b335f9081527f8a40f0b47fdc2a0ce293b772acfc7508c8315a4d462786c1adc3a56f92ca2d05602052604090205460ff1615611ca657565b63e2517d3f60e01b5f52336004527f55435dd261a4b9b3364963f7738a7a662ad9c84396d64be3365284bb7f0a504160245260445ffd5b5f8181526020818152604080832033845290915290205460ff1615611cff5750565b63e2517d3f60e01b5f523360045260245260445ffd5b6001600160a01b0381165f9081527ffaf93c3d007e112089dc8351e013e6685ef67703975d0224b26fc45941d4f1f5602052604090205460ff16611dce576001600160a01b03165f8181527ffaf93c3d007e112089dc8351e013e6685ef67703975d0224b26fc45941d4f1f560205260408120805460ff191660011790553391905f516020611ff25f395f51905f52907f2f8788117e7eff1d82e926ec794901d17c78024a50270940304540a733656f0d9080a4600190565b505f90565b5f818152602081815260408083206001600160a01b038616845290915290205460ff16611e55575f818152602081815260408083206001600160a01b0395909516808452949091528120805460ff19166001179055339291907f2f8788117e7eff1d82e926ec794901d17c78024a50270940304540a733656f0d9080a4600190565b50505f90565b5f818152602081815260408083206001600160a01b038616845290915290205460ff1615611e55575f818152602081815260408083206001600160a01b0395909516808452949091528120805460ff19169055339291907ff6391f5c32d9c69d2a47ea670b442974b53935d1edc7fd64eb21e047a839171b9080a4600190565b600260015414611eec576002600155565b633ee5aeb560e01b5f5260045ffd5b60ff60025416611f0757565b63d93c066560e01b5f5260045ffd5b6001600160a01b03165f9081526008602052604090205480611f395750610fa090565b90565b60028114611f5757600114611f515761070890565b61057890565b506103e890565b611f8f64496cebb80091611f8a611f79600783015442611bdb565b916006600482015491015490611be8565b611be8565b0490565b90611fb75750805115611fa857805190602001fd5b630a12f52160e11b5f5260045ffd5b81511580611fe8575b611fc8575090565b639996b31560e01b5f9081526001600160a01b0391909116600452602490fd5b50803b15611fc056fee2b7fb3b832174769106daebcfd6d1970523240dda11281102db9363b83b0dc4a2646970667358221220ee627b1c0c2b576248cce56bff4e68c7fe1478c7d3af0485a425b60b3786267a64736f6c634300082100332f8788117e7eff1d82e926ec794901d17c78024a50270940304540a733656f0d8a40f0b47fdc2a0ce293b772acfc7508c8315a4d462786c1adc3a56f92ca2d056f3b488caa0dc03e5f3d9fd6a25fa8755afcfd62ccffb6e436c696bfa6b866dead3228b676f7d3cd4284a5443f17f1962b36e491b30a40b2405849e597ba5fb5","linkReferences":{}},"methodIdentifiers":{"BPS_DENOM()":"6637e38c","CREDIT_PREMIUM()":"9c364a57","CREDIT_RECRUIT()":"a5244009","CREDIT_SCOUT()":"c5cdbeb3","CREDIT_STANDARD()":"91ff34af","CREDIT_TITAN()":"df7b14c1","DEFAULT_ADMIN_ROLE()":"a217fddf","GOVERNOR_ROLE()":"ccc57490","GUARDIAN_ROLE()":"24ea54f4","LOAN_MANAGER_ROLE()":"525b9fde","MAX_ACTIVE_LOANS()":"a60531a4","MAX_DURATION()":"b1724b46","MAX_LTV_BPS()":"1bfaae1d","RATE_PREMIUM()":"42b2e7ff","RATE_STANDARD()":"8b4affaa","RATE_TITAN()":"3d4ce290","RELAYER_ROLE()":"926d7d7f","TIER_PREMIUM()":"0ec833c6","TIER_STANDARD()":"691e037a","TIER_TITAN()":"5909ff44","activeLoanCount(address)":"60c89149","borrowerLoans(address,uint256)":"e3ed1902","getRoleAdmin(bytes32)":"248a9ca3","grantRelayer(address)":"92649c50","grantRole(bytes32,address)":"2f2ff15d","hasRole(bytes32,address)":"91d14854","lendingPool()":"a59a9973","loans(uint256)":"e1ec3c68","maxCreditBps(address)":"d95e4515","nextLoanId()":"87c51459","originateLoan(address,uint256,uint256)":"547c3d00","pause()":"8456cb59","paused()":"5c975abb","renounceRole(bytes32,address)":"36568abe","repayLoan(uint256)":"ab7b1c89","revokeRole(bytes32,address)":"d547741f","setVcsTier(address,uint256,uint256)":"60ad86bc","settleLoan(uint256)":"7f09d3f3","supportsInterface(bytes4)":"01ffc9a7","unpause()":"3f4ba83a","usdc()":"3e413bee","valuationEngine()":"cc7e752b","vcsTier(address)":"a57bbc22","wrapperNFT()":"ff4085af"},"id":49}