{"contracts/LoanManager.sol":{"LoanManager":{"abi":[{"inputs":[{"internalType":"address","name":"_valuation","type":"address"},{"internalType":"address","name":"_adapter","type":"address"},{"internalType":"address","name":"_pool","type":"address"},{"internalType":"address","name":"_identityVerifier","type":"address"},{"internalType":"uint256","name":"_identityBoostBps","type":"uint256"},{"internalType":"address","name":"_uniswapRouter","type":"address"},{"internalType":"uint24","name":"_poolFee","type":"uint24"},{"internalType":"uint256","name":"_slippageBps","type":"uint256"}],"stateMutability":"nonpayable","type":"constructor"},{"inputs":[{"internalType":"address","name":"owner","type":"address"}],"name":"OwnableInvalidOwner","type":"error"},{"inputs":[{"internalType":"address","name":"account","type":"address"}],"name":"OwnableUnauthorizedAccount","type":"error"},{"anonymous":false,"inputs":[{"indexed":true,"internalType":"uint256","name":"loanId","type":"uint256"},{"indexed":true,"internalType":"address","name":"token","type":"address"},{"indexed":false,"internalType":"uint256","name":"seizedAmount","type":"uint256"},{"indexed":false,"internalType":"uint256","name":"usdcReceived","type":"uint256"}],"name":"CollateralLiquidated","type":"event"},{"anonymous":false,"inputs":[{"indexed":false,"internalType":"address","name":"verifier","type":"address"},{"indexed":false,"internalType":"uint256","name":"boostBps","type":"uint256"}],"name":"IdentityConfigUpdated","type":"event"},{"anonymous":false,"inputs":[{"indexed":true,"internalType":"address","name":"borrower","type":"address"},{"indexed":false,"internalType":"uint256","name":"boostBps","type":"uint256"}],"name":"IdentityLinked","type":"event"},{"anonymous":false,"inputs":[{"indexed":false,"internalType":"address","name":"router","type":"address"},{"indexed":false,"internalType":"uint24","name":"poolFee","type":"uint24"},{"indexed":false,"internalType":"uint256","name":"slippageBps","type":"uint256"}],"name":"LiquidationConfigUpdated","type":"event"},{"anonymous":false,"inputs":[{"indexed":true,"internalType":"uint256","name":"loanId","type":"uint256"},{"indexed":true,"internalType":"address","name":"borrower","type":"address"},{"indexed":false,"internalType":"uint256","name":"amount","type":"uint256"}],"name":"LoanCreated","type":"event"},{"anonymous":false,"inputs":[{"indexed":true,"internalType":"uint256","name":"loanId","type":"uint256"},{"indexed":false,"internalType":"uint256","name":"amount","type":"uint256"}],"name":"LoanRepaid","type":"event"},{"anonymous":false,"inputs":[{"indexed":true,"internalType":"uint256","name":"loanId","type":"uint256"},{"indexed":false,"internalType":"bool","name":"defaulted","type":"bool"}],"name":"LoanSettled","type":"event"},{"anonymous":false,"inputs":[{"indexed":true,"internalType":"address","name":"previousOwner","type":"address"},{"indexed":true,"internalType":"address","name":"newOwner","type":"address"}],"name":"OwnershipTransferred","type":"event"},{"inputs":[],"name":"BPS_DENOMINATOR","outputs":[{"internalType":"uint256","name":"","type":"uint256"}],"stateMutability":"view","type":"function"},{"inputs":[],"name":"adapter","outputs":[{"internalType":"contract VestingAdapter","name":"","type":"address"}],"stateMutability":"view","type":"function"},{"inputs":[{"internalType":"uint256","name":"collateralId","type":"uint256"},{"internalType":"address","name":"vestingContract","type":"address"},{"internalType":"uint256","name":"borrowAmount","type":"uint256"}],"name":"createLoan","outputs":[],"stateMutability":"nonpayable","type":"function"},{"inputs":[],"name":"identityBoostBps","outputs":[{"internalType":"uint256","name":"","type":"uint256"}],"stateMutability":"view","type":"function"},{"inputs":[{"internalType":"address","name":"","type":"address"}],"name":"identityLinked","outputs":[{"internalType":"bool","name":"","type":"bool"}],"stateMutability":"view","type":"function"},{"inputs":[],"name":"identityVerifier","outputs":[{"internalType":"address","name":"","type":"address"}],"stateMutability":"view","type":"function"},{"inputs":[{"internalType":"bytes","name":"proof","type":"bytes"}],"name":"linkIdentity","outputs":[{"internalType":"bool","name":"","type":"bool"}],"stateMutability":"nonpayable","type":"function"},{"inputs":[],"name":"liquidationSlippageBps","outputs":[{"internalType":"uint256","name":"","type":"uint256"}],"stateMutability":"view","type":"function"},{"inputs":[],"name":"loanCount","outputs":[{"internalType":"uint256","name":"","type":"uint256"}],"stateMutability":"view","type":"function"},{"inputs":[{"internalType":"uint256","name":"","type":"uint256"}],"name":"loans","outputs":[{"internalType":"address","name":"borrower","type":"address"},{"internalType":"uint256","name":"principal","type":"uint256"},{"internalType":"uint256","name":"interest","type":"uint256"},{"internalType":"uint256","name":"collateralId","type":"uint256"},{"internalType":"uint256","name":"unlockTime","type":"uint256"},{"internalType":"bool","name":"active","type":"bool"}],"stateMutability":"view","type":"function"},{"inputs":[],"name":"owner","outputs":[{"internalType":"address","name":"","type":"address"}],"stateMutability":"view","type":"function"},{"inputs":[],"name":"pool","outputs":[{"internalType":"contract LendingPool","name":"","type":"address"}],"stateMutability":"view","type":"function"},{"inputs":[],"name":"poolFee","outputs":[{"internalType":"uint24","name":"","type":"uint24"}],"stateMutability":"view","type":"function"},{"inputs":[],"name":"renounceOwnership","outputs":[],"stateMutability":"nonpayable","type":"function"},{"inputs":[{"internalType":"uint256","name":"loanId","type":"uint256"},{"internalType":"uint256","name":"amount","type":"uint256"}],"name":"repayLoan","outputs":[],"stateMutability":"nonpayable","type":"function"},{"inputs":[{"internalType":"address","name":"verifier","type":"address"},{"internalType":"uint256","name":"boostBps","type":"uint256"}],"name":"setIdentityConfig","outputs":[],"stateMutability":"nonpayable","type":"function"},{"inputs":[{"internalType":"address","name":"router","type":"address"},{"internalType":"uint24","name":"newPoolFee","type":"uint24"},{"internalType":"uint256","name":"slippageBps","type":"uint256"}],"name":"setLiquidationConfig","outputs":[],"stateMutability":"nonpayable","type":"function"},{"inputs":[{"internalType":"uint256","name":"loanId","type":"uint256"}],"name":"settleAtUnlock","outputs":[],"stateMutability":"nonpayable","type":"function"},{"inputs":[{"internalType":"address","name":"newOwner","type":"address"}],"name":"transferOwnership","outputs":[],"stateMutability":"nonpayable","type":"function"},{"inputs":[],"name":"uniswapRouter","outputs":[{"internalType":"contract ISwapRouter","name":"","type":"address"}],"stateMutability":"view","type":"function"},{"inputs":[],"name":"usdc","outputs":[{"internalType":"contract IERC20","name":"","type":"address"}],"stateMutability":"view","type":"function"},{"inputs":[],"name":"valuation","outputs":[{"internalType":"contract ValuationEngine","name":"","type":"address"}],"stateMutability":"view","type":"function"}],"devdoc":{"errors":{"OwnableInvalidOwner(address)":[{"details":"The owner is not a valid owner account. (eg. `address(0)`)"}],"OwnableUnauthorizedAccount(address)":[{"details":"The caller account is not authorized to perform an operation."}]},"kind":"dev","methods":{"owner()":{"details":"Returns the address of the current owner."},"renounceOwnership()":{"details":"Leaves the contract without owner. It will not be possible to call `onlyOwner` functions. Can only be called by the current owner. NOTE: Renouncing ownership will leave the contract without an owner, thereby disabling any functionality that is only available to the owner."},"transferOwnership(address)":{"details":"Transfers ownership of the contract to a new account (`newOwner`). Can only be called by the current owner."}},"version":1},"evm":{"bytecode":{"linkReferences":{},"object":"608060409080825234620001fd576101008162001eec803803809162000026828562000202565b833981010312620001fd576200003c816200023c565b6200004a602083016200023c565b620000578484016200023c565b9162000066606085016200023c565b9260808501516200007a60a087016200023c565b9160c08701519662ffffff88168803620001fd5760e00151953315620001e557602092916004918a600098899788549660018060a01b03199333858a16178b55519a8b98899760018060a01b039e8f96878095819582947f8be0079c531659141344cd1fd0a4f28419497f9722a3daafe3b4186f6b6457e0843393169180a316896001541617600155168760025416176002551695868660035416176003551684885416178755600555169060065416176006556007549962ffffff60a01b9060a01b16988962ffffff60a01b198c1617600755600855631f209df760e11b82525afa918215620001d95781926200018d575b5050169160018060b81b031916171760075551611c9a9081620002528239f35b9091506020813d8211620001d0575b81620001ab6020938362000202565b81010312620001cc5751908282168203620001c9575038806200016d565b80fd5b5080fd5b3d91506200019c565b508551903d90823e3d90fd5b8851631e4fbdf760e01b815260006004820152602490fd5b600080fd5b601f909101601f19168101906001600160401b038211908210176200022657604052565b634e487b7160e01b600052604160045260246000fd5b51906001600160a01b0382168203620001fd5756fe608080604052600436101561001357600080fd5b600090813560e01c90816303eadcfc146112d057508063089fe6aa146112aa5780630bf7187d1461111d57806316f0115b146110f45780631b15cee614610d0e57806321a7cfe414610ce55780633e413bee14610cbc5780634651e78914610bff5780635bb4962614610be1578063715018a614610b87578063735de9f714610b5e5780638a700b53146109535780638da5cb5b1461092c5780639ffb86061461090e578063b123cb74146103ea578063c8394b1d146102b2578063ce63094d14610294578063dfd572a01461026b578063e1a452181461024e578063e1ec3c68146101df578063e640b814146101a05763f2fde38b1461011357600080fd5b3461019d57602036600319011261019d5761012c6112f5565b61013461130b565b6001600160a01b0390811690811561018457600054826001600160601b0360a01b821617600055167f8be0079c531659141344cd1fd0a4f28419497f9722a3daafe3b4186f6b6457e0600080a380f35b604051631e4fbdf760e01b815260048101849052602490fd5b80fd5b503461019d57602036600319011261019d5760209060ff906040906001600160a01b036101cb6112f5565b168152600b84522054166040519015158152f35b503461019d57602036600319011261019d57604060c091600435815260096020522060018060a01b0381541690600181015490600281015460038201549060ff6005600485015494015416936040519586526020860152604085015260608401526080830152151560a0820152f35b503461019d578060031936011261019d5760206040516127108152f35b503461019d578060031936011261019d576004546040516001600160a01b039091168152602090f35b503461019d578060031936011261019d576020600a54604051908152f35b503461019d57606036600319011261019d576102cc6112f5565b60243562ffffff8116918282036103e657604435906102e961130b565b6001600160a01b03169081156103b657801515806103aa575b15610376577f8b5c8d8f89d3a1faecb05d234f488196bd0a31cbd4f482bf686b2581b1e4dbe493606093836001600160601b0360a01b60065416176006556007549062ffffff60a01b9060a01b169062ffffff60a01b1916176007558160085560405192835260208301526040820152a180f35b60405162461bcd60e51b815260206004820152600c60248201526b62616420736c69707061676560a01b6044820152606490fd5b50612710811115610302565b60405162461bcd60e51b81526020600482015260086024820152670726f757465723d360c41b6044820152606490fd5b8380fd5b503461019d57602036600319011261019d57600435815260096020526040812061041a60ff600583015416611436565b600481015442106108da576001810154908261043c6002830193845490611400565b9260018060a01b03600254169260038101546040519063b93a89f760e01b8252806004830152606082602481895afa9081156108cf578592869261089b575b5087610572575050839450809392936104d8575b506001905b60ff19600582015416600582015501555560405190151581527f2b8a84e623a466252d40df763a21d8d87755b1c874a96449b31b8ce3b5bbe7d7602060043592a280f35b600254600383015483549394506001600160a01b039384169390929116803b1561056e57604051632a7d7bc560e01b815260048101939093526001600160a01b0393909316602483015260448201529084908290606490829084905af190811561056357849161054b575b91909161048f565b61055490611337565b61055f578238610543565b8280fd5b6040513d86823e3d90fd5b8680fd5b82969396610589575b505050509060018193610494565b6105968883989598611a7e565b96838811610892575b87610651575b50505084849582959495116105be575b8295949361057b565b600254600384015484549495506001600160a01b039485169490939116916105e59161146d565b90803b1561056e57604051632a7d7bc560e01b815260048101939093526001600160a01b0393909316602483015260448201529084908290606490829084905af190811561056357849161063d575b809291926105b5565b61064690611337565b61055f578238610634565b803b1561056e57604051632a7d7bc560e01b815260048101929092523060248301526044820188905286908290606490829084905af180156107b6578791879161087b575b50506106a49160043561147a565b806106b1575b80806105a5565b6003546040516313064e1b60e21b81526001600160a01b039091169082602082600481865afa91821561082c57889261083f575b508110610837575b50816106fa575b506106aa565b60075460405163a9059cbb60e01b81526001600160a01b03928316600482015260248101849052959650919491602091839160449183918d91165af190811561082c5788916107fd575b50156107c15760035487956001600160a01b0390911693843b1561056e578694602486926040519788938492631b8fec7360e11b845260048401525af19384156107b657869461079a575b8196509493946106f4565b6107a690949194611337565b6107b25784923861078f565b8480fd5b6040513d88823e3d90fd5b60405162461bcd60e51b81526020600482015260146024820152731d5cd918c81d1c985b9cd9995c8819985a5b195960621b6044820152606490fd5b61081f915060203d602011610825575b6108178183611361565b810190611383565b38610744565b503d61080d565b6040513d8a823e3d90fd5b9150386106ed565b975090506020873d602011610873575b8161085c60209383611361565b8101031261086e5789965190386106e5565b600080fd5b3d915061084f565b610886919250611337565b6107b257858538610696565b9650829661059f565b9092506108bf915060603d81116108c8575b6108b78183611361565b8101906113d2565b5090913861047b565b503d6108ad565b6040513d87823e3d90fd5b60405162461bcd60e51b815260206004820152600c60248201526b1b9bdd081d5b9b1bd8dad95960a21b6044820152606490fd5b503461019d578060031936011261019d576020600554604051908152f35b503461019d578060031936011261019d57546040516001600160a01b039091168152602090f35b503461019d57604036600319011261019d5760043560243581835260206009815260408420916005830161098a60ff825416611436565b83546001600160a01b039081163303610b2a576109a883151561139b565b868482600754166064846003541660405194859384926323b872dd60e01b845233600485015260248401528960448401525af190811561082c578891610b0d575b5015610ad657869060035416803b15610ad257818091602460405180948193631b8fec7360e11b83528960048401525af18015610ac757610ab3575b508460027f040cee90ee4799897c30ca04e5feb6fa43dbba9b6d084b4b257cdafd84ba013e9601600181549201918254918682811015600014610aa357509084610a7092558661146d565b90808210610a8e57505055805460ff191690555b604051908152a280f35b90919350610a9c925061146d565b9055610a84565b935094509050610a9c925061146d565b610abd8291611337565b61019d5738610a25565b6040513d84823e3d90fd5b5080fd5b60405162461bcd60e51b815260048101859052600f60248201526e1d1c985b9cd9995c8819985a5b1959608a1b6044820152606490fd5b610b249150853d8711610825576108178183611361565b386109e9565b60405162461bcd60e51b815260048101859052600c60248201526b3737ba103137b93937bbb2b960a11b6044820152606490fd5b503461019d578060031936011261019d576006546040516001600160a01b039091168152602090f35b503461019d578060031936011261019d57610ba061130b565b600080546001600160a01b0319811682556001600160a01b03167f8be0079c531659141344cd1fd0a4f28419497f9722a3daafe3b4186f6b6457e08280a380f35b503461019d578060031936011261019d576020600854604051908152f35b503461019d57604036600319011261019d57610c196112f5565b602435610c2461130b565b6107d08111610c8657600480546001600160a01b0319166001600160a01b0393909316928317905560058190556040805192835260208301919091527f4e9c2c9d7ce2ff823cab7f6f0dedfb36ea1f4e5be270f6c13ae74c65fb6c63bf91a180f35b60405162461bcd60e51b815260206004820152600e60248201526d0c4dedee6e840e8dede40d0d2ced60931b6044820152606490fd5b503461019d578060031936011261019d576007546040516001600160a01b039091168152602090f35b503461019d578060031936011261019d576001546040516001600160a01b039091168152602090f35b503461019d57606036600319011261019d576001600160a01b03602480358281169260043592918490036107b2578460443594610d4c86151561139b565b8260025416803b1561055f5760648392604051948593849263795a170960e11b84528a6004850152898401523360448401525af180156107b6576110e1575b5081606082600254166040519485809263b93a89f760e01b82528860048301525afa80156107b657610e08938790889089936110bd575b50600154604080516317fb08f560e31b815260048101949094526001600160a01b0390921660248401526044830184905291959091869190861690829081906064820190565b03915afa9384156110b25787908895611078575b508490338952602095600b875260ff60408b2054168061106d575b61104a575b50610e4b612710928392611423565b04871161101857600485856003541660405192838092633fceb09960e21b82525afa801561100d578990610fde575b610e85915088611423565b0490600a54956040519260c0840184811067ffffffffffffffff821117610fc95791600593918b95936040523384528884018b815260408501918252606085019283526080850193845288604060a087019860018a528d815260098d52209551166001600160601b0360a01b865416178555516001850155516002840155516003830155516004820155019051151560ff80198354169116179055600a549060018201809211610fb75750600a55600354859116803b15610ad25760405163a2fb342d60e01b8152336004820152602481018690529082908290604490829084905af18015610ac757610fa3575b50507f8910ba13a55695f056e224bbbc6b65d866b12a8c2fbdf387fb853a1cca298cd7906040519384523393a380f35b610fac90611337565b6103e6578338610f73565b634e487b7160e01b8752601160045286fd5b85634e487b7160e01b60005260416004526000fd5b508581813d8311611006575b610ff48183611361565b8101031261086e57610e859051610e7a565b503d610fea565b6040513d8b823e3d90fd5b60405162461bcd60e51b815260048101869052600b818501526a32bc31b2b2b23990262a2b60a91b6044820152606490fd5b61105991925060055490611400565b9061271080831115610e3c57915038610e3c565b506005541515610e37565b9450506040843d6040116110aa575b8161109460409383611361565b8101031261056e57602084519401519338610e1c565b3d9150611087565b6040513d89823e3d90fd5b9050604092506110db915060603d81116108c8576108b78183611361565b92610dc2565b6110ed90959195611337565b9338610d8b565b503461019d578060031936011261019d576003546040516001600160a01b039091168152602090f35b503461019d576020908160031936011261019d5767ffffffffffffffff60043581811161055f573660238201121561055f57806004013591821161055f57366024838301011161055f576004546001600160a01b0316908115611277578491602485606486946040519788968795869363058b23cd60e41b855233600486015260408286015282604486015201848401378181018301849052601f01601f191681010301925af1908115610ac757829161125a575b501561122557604090338152600b835220600160ff198254161790556005546040519081527f60b66827d6b8dc4c21c455ee1239c41dffbc94e0604392a84cdea38f8f76fd59823392a260405160018152f35b60405162461bcd60e51b815260048101839052600d60248201526c34b73b30b634b210383937b7b360991b6044820152606490fd5b6112719150833d8511610825576108178183611361565b386111d2565b60405162461bcd60e51b815260048101869052600b60248201526a3737903b32b934b334b2b960a91b6044820152606490fd5b503461019d578060031936011261019d57602062ffffff60075460a01c16604051908152f35b905034610ad25781600319360112610ad2576002546001600160a01b03168152602090f35b600435906001600160a01b038216820361086e57565b6000546001600160a01b0316330361131f57565b60405163118cdaa760e01b8152336004820152602490fd5b67ffffffffffffffff811161134b57604052565b634e487b7160e01b600052604160045260246000fd5b90601f8019910116810190811067ffffffffffffffff82111761134b57604052565b9081602091031261086e5751801515810361086e5790565b156113a257565b60405162461bcd60e51b81526020600482015260086024820152670616d6f756e743d360c41b6044820152606490fd5b9081606091031261086e57805160208201519092906001600160a01b038116810361086e5760409092015190565b9190820180921161140d57565b634e487b7160e01b600052601160045260246000fd5b8181029291811591840414171561140d57565b1561143d57565b60405162461bcd60e51b8152602060048201526008602482015267696e61637469766560c01b6044820152606490fd5b9190820391821161140d57565b6006549293929091906001600160a01b031680156118f45760405163095ea7b360e01b81526001600160a01b03918216600482015260248101869052600095939291602090829060449082908a9087165af180156107b6576118d5575b50600154604051633a0df78d60e11b815290602090829060049082906001600160a01b03165afa9081156107b65786916118a6575b50604051633fabe5a360e21b81526001600160a01b03919091169060a081600481855afa9081156110b2578791611873575b5061154a878213611968565b6040519160208360048163313ce56760e01b948582525afa92831561082c578893611852575b50604051818152906020826004816001600160a01b0389165afa91821561100d578992611831575b50600754604051918252936020826004816001600160a01b0389165afa9081156118265761271094611605946115fc948d946117e3575b506115ea6115f6926115e36115f0936119b9565b908d6119ca565b936119b9565b916119b9565b916119ca565b60085490611423565b0461012c4201908142116117cf5760405191610100830183811067ffffffffffffffff8211176117bb5790602093929160405260018060a01b038616835260018060a01b0385168484015262ffffff809560a01c16604084015230606084015260808301528660a083015260c08201528760e082015261010460018060a01b03600654169389604051958694859363414bf38960e01b855260018060a01b03825116600486015260018060a01b0388830151166024860152604082015116604485015260018060a01b0360608201511660648501526080810151608485015260a081015160a485015260c081015160c485015260e060018060a01b039101511660e48401525af19586156117af578096611757575b505060407fde2f91861847a1451d81a38725e38c8a517405db456a0d947e7ac3cfa6c0aaf791868251958652602086015260018060a01b031693a3565b909195506020823d6020116117a7575b8161177460209383611361565b8101031261019d5750519360407fde2f91861847a1451d81a38725e38c8a517405db456a0d947e7ac3cfa6c0aaf761171a565b3d9150611767565b604051903d90823e3d90fd5b634e487b7160e01b8a52604160045260248afd5b634e487b7160e01b88526011600452602488fd5b6115f09194506115f6926115e36118146115ea9360203d60201161181f575b61180c8183611361565b8101906119a0565b9693505092506115cf565b503d611802565b6040513d8c823e3d90fd5b61184b91925060203d60201161181f5761180c8183611361565b9038611598565b61186c91935060203d60201161181f5761180c8183611361565b9138611570565b611894915060a03d811161189f575b61188c8183611361565b810190611933565b50505090503861153e565b503d611882565b6118c8915060203d6020116118ce575b6118c08183611361565b8101906118fd565b3861150c565b503d6118b6565b6118ed9060203d602011610825576108178183611361565b50386114d7565b50600093505050565b9081602091031261086e57516001600160a01b038116810361086e5790565b519069ffffffffffffffffffff8216820361086e57565b908160a091031261086e576119478161191c565b9160208201519160408101519161196560806060840151930161191c565b90565b1561196f57565b60405162461bcd60e51b815260206004820152600960248201526862616420707269636560b81b6044820152606490fd5b9081602091031261086e575160ff8116810361086e5790565b60ff16604d811161140d57600a0a90565b90916000198383099280830292838086109503948086039514611a5a5784831115611a41579082910981600003821680920460028082600302188083028203028083028203028083028203028083028203028083028203028092029003029360018380600003040190848311900302920304170290565b82634e487b71600052156003026011186020526024601cfd5b505080925015611a68570490565b634e487b7160e01b600052601260045260246000fd5b6007549192916001600160a01b03918216908216818114611c5f5782600154169260409081518095633a0df78d60e11b825281600460209889935afa908115611c3757600091611c42575b501691815194633fabe5a360e21b865260a086600481875afa958615611c3757600096611c12575b50611afe60008713611968565b825193818560048163313ce56760e01b948582525afa948515611c0757600095611be3575b508184959660049551958680928582525afa938415611bd857600094611bb7575b508190600486518095819382525afa938415611bad5750926115f092611965979892611b8095600093611b86575b50506115f06115f6916119b9565b906119ca565b6115f69293506115f09181611ba692903d1061181f5761180c8183611361565b9291611b72565b513d6000823e3d90fd5b82919450611bd190823d841161181f5761180c8183611361565b9390611b44565b85513d6000823e3d90fd5b6004949550611bff8391823d841161181f5761180c8183611361565b959450611b23565b84513d6000823e3d90fd5b611c2b91965060a03d811161189f5761188c8183611361565b50505090509438611af1565b83513d6000823e3d90fd5b611c599150863d88116118ce576118c08183611361565b38611ac9565b50505056fea2646970667358221220f193953931c89c5da4084ff6c2af7a4cbee40db858640f72b1ad131f5410a6e164736f6c63430008140033","opcodes":"PUSH1 0x80 PUSH1 0x40 SWAP1 DUP1 DUP3 MSTORE CALLVALUE PUSH3 0x1FD JUMPI PUSH2 0x100 DUP2 PUSH3 0x1EEC DUP1 CODESIZE SUB DUP1 SWAP2 PUSH3 0x26 DUP3 DUP6 PUSH3 0x202 JUMP JUMPDEST DUP4 CODECOPY DUP2 ADD SUB SLT PUSH3 0x1FD JUMPI PUSH3 0x3C DUP2 PUSH3 0x23C JUMP JUMPDEST PUSH3 0x4A PUSH1 0x20 DUP4 ADD PUSH3 0x23C JUMP JUMPDEST PUSH3 0x57 DUP5 DUP5 ADD PUSH3 0x23C JUMP JUMPDEST SWAP2 PUSH3 0x66 PUSH1 0x60 DUP6 ADD PUSH3 0x23C JUMP JUMPDEST SWAP3 PUSH1 0x80 DUP6 ADD MLOAD PUSH3 0x7A PUSH1 0xA0 DUP8 ADD PUSH3 0x23C JUMP JUMPDEST SWAP2 PUSH1 0xC0 DUP8 ADD MLOAD SWAP7 PUSH3 0xFFFFFF DUP9 AND DUP9 SUB PUSH3 0x1FD JUMPI PUSH1 0xE0 ADD MLOAD SWAP6 CALLER ISZERO PUSH3 0x1E5 JUMPI PUSH1 0x20 SWAP3 SWAP2 PUSH1 0x4 SWAP2 DUP11 PUSH1 0x0 SWAP9 DUP10 SWAP8 DUP9 SLOAD SWAP7 PUSH1 0x1 DUP1 PUSH1 0xA0 SHL SUB NOT SWAP4 CALLER DUP6 DUP11 AND OR DUP12 SSTORE MLOAD SWAP11 DUP12 SWAP9 DUP10 SWAP8 PUSH1 0x1 DUP1 PUSH1 0xA0 SHL SUB SWAP15 DUP16 SWAP7 DUP8 DUP1 SWAP6 DUP2 SWAP6 DUP3 SWAP5 PUSH32 0x8BE0079C531659141344CD1FD0A4F28419497F9722A3DAAFE3B4186F6B6457E0 DUP5 CALLER SWAP4 AND SWAP2 DUP1 LOG3 AND DUP10 PUSH1 0x1 SLOAD AND OR PUSH1 0x1 SSTORE AND DUP8 PUSH1 0x2 SLOAD AND OR PUSH1 0x2 SSTORE AND SWAP6 DUP7 DUP7 PUSH1 0x3 SLOAD AND OR PUSH1 0x3 SSTORE AND DUP5 DUP9 SLOAD AND OR DUP8 SSTORE PUSH1 0x5 SSTORE AND SWAP1 PUSH1 0x6 SLOAD AND OR PUSH1 0x6 SSTORE PUSH1 0x7 SLOAD SWAP10 PUSH3 0xFFFFFF PUSH1 0xA0 SHL SWAP1 PUSH1 0xA0 SHL AND SWAP9 DUP10 PUSH3 0xFFFFFF PUSH1 0xA0 SHL NOT DUP13 AND OR PUSH1 0x7 SSTORE PUSH1 0x8 SSTORE PUSH4 0x1F209DF7 PUSH1 0xE1 SHL DUP3 MSTORE GAS STATICCALL SWAP2 DUP3 ISZERO PUSH3 0x1D9 JUMPI DUP2 SWAP3 PUSH3 0x18D JUMPI JUMPDEST POP POP AND SWAP2 PUSH1 0x1 DUP1 PUSH1 0xB8 SHL SUB NOT AND OR OR PUSH1 0x7 SSTORE MLOAD PUSH2 0x1C9A SWAP1 DUP2 PUSH3 0x252 DUP3 CODECOPY RETURN JUMPDEST SWAP1 SWAP2 POP PUSH1 0x20 DUP2 RETURNDATASIZE DUP3 GT PUSH3 0x1D0 JUMPI JUMPDEST DUP2 PUSH3 0x1AB PUSH1 0x20 SWAP4 DUP4 PUSH3 0x202 JUMP JUMPDEST DUP2 ADD SUB SLT PUSH3 0x1CC JUMPI MLOAD SWAP1 DUP3 DUP3 AND DUP3 SUB PUSH3 0x1C9 JUMPI POP CODESIZE DUP1 PUSH3 0x16D JUMP JUMPDEST DUP1 REVERT JUMPDEST POP DUP1 REVERT JUMPDEST RETURNDATASIZE SWAP2 POP PUSH3 0x19C JUMP JUMPDEST POP DUP6 MLOAD SWAP1 RETURNDATASIZE SWAP1 DUP3 RETURNDATACOPY RETURNDATASIZE SWAP1 REVERT JUMPDEST DUP9 MLOAD PUSH4 0x1E4FBDF7 PUSH1 0xE0 SHL DUP2 MSTORE PUSH1 0x0 PUSH1 0x4 DUP3 ADD MSTORE PUSH1 0x24 SWAP1 REVERT JUMPDEST PUSH1 0x0 DUP1 REVERT JUMPDEST PUSH1 0x1F SWAP1 SWAP2 ADD PUSH1 0x1F NOT AND DUP2 ADD SWAP1 PUSH1 0x1 PUSH1 0x1 PUSH1 0x40 SHL SUB DUP3 GT SWAP1 DUP3 LT OR PUSH3 0x226 JUMPI PUSH1 0x40 MSTORE JUMP JUMPDEST PUSH4 0x4E487B71 PUSH1 0xE0 SHL PUSH1 0x0 MSTORE PUSH1 0x41 PUSH1 0x4 MSTORE PUSH1 0x24 PUSH1 0x0 REVERT JUMPDEST MLOAD SWAP1 PUSH1 0x1 PUSH1 0x1 PUSH1 0xA0 SHL SUB DUP3 AND DUP3 SUB PUSH3 0x1FD JUMPI JUMP INVALID PUSH1 0x80 DUP1 PUSH1 0x40 MSTORE PUSH1 0x4 CALLDATASIZE LT ISZERO PUSH2 0x13 JUMPI PUSH1 0x0 DUP1 REVERT JUMPDEST PUSH1 0x0 SWAP1 DUP2 CALLDATALOAD PUSH1 0xE0 SHR SWAP1 DUP2 PUSH4 0x3EADCFC EQ PUSH2 0x12D0 JUMPI POP DUP1 PUSH4 0x89FE6AA EQ PUSH2 0x12AA JUMPI DUP1 PUSH4 0xBF7187D EQ PUSH2 0x111D JUMPI DUP1 PUSH4 0x16F0115B EQ PUSH2 0x10F4 JUMPI DUP1 PUSH4 0x1B15CEE6 EQ PUSH2 0xD0E JUMPI DUP1 PUSH4 0x21A7CFE4 EQ PUSH2 0xCE5 JUMPI DUP1 PUSH4 0x3E413BEE EQ PUSH2 0xCBC JUMPI DUP1 PUSH4 0x4651E789 EQ PUSH2 0xBFF JUMPI DUP1 PUSH4 0x5BB49626 EQ PUSH2 0xBE1 JUMPI DUP1 PUSH4 0x715018A6 EQ PUSH2 0xB87 JUMPI DUP1 PUSH4 0x735DE9F7 EQ PUSH2 0xB5E JUMPI DUP1 PUSH4 0x8A700B53 EQ PUSH2 0x953 JUMPI DUP1 PUSH4 0x8DA5CB5B EQ PUSH2 0x92C JUMPI DUP1 PUSH4 0x9FFB8606 EQ PUSH2 0x90E JUMPI DUP1 PUSH4 0xB123CB74 EQ PUSH2 0x3EA JUMPI DUP1 PUSH4 0xC8394B1D EQ PUSH2 0x2B2 JUMPI DUP1 PUSH4 0xCE63094D EQ PUSH2 0x294 JUMPI DUP1 PUSH4 0xDFD572A0 EQ PUSH2 0x26B JUMPI DUP1 PUSH4 0xE1A45218 EQ PUSH2 0x24E JUMPI DUP1 PUSH4 0xE1EC3C68 EQ PUSH2 0x1DF JUMPI DUP1 PUSH4 0xE640B814 EQ PUSH2 0x1A0 JUMPI PUSH4 0xF2FDE38B EQ PUSH2 0x113 JUMPI PUSH1 0x0 DUP1 REVERT JUMPDEST CALLVALUE PUSH2 0x19D JUMPI PUSH1 0x20 CALLDATASIZE PUSH1 0x3 NOT ADD SLT PUSH2 0x19D JUMPI PUSH2 0x12C PUSH2 0x12F5 JUMP JUMPDEST PUSH2 0x134 PUSH2 0x130B JUMP JUMPDEST PUSH1 0x1 PUSH1 0x1 PUSH1 0xA0 SHL SUB SWAP1 DUP2 AND SWAP1 DUP2 ISZERO PUSH2 0x184 JUMPI PUSH1 0x0 SLOAD DUP3 PUSH1 0x1 PUSH1 0x1 PUSH1 0x60 SHL SUB PUSH1 0xA0 SHL DUP3 AND OR PUSH1 0x0 SSTORE AND PUSH32 0x8BE0079C531659141344CD1FD0A4F28419497F9722A3DAAFE3B4186F6B6457E0 PUSH1 0x0 DUP1 LOG3 DUP1 RETURN JUMPDEST PUSH1 0x40 MLOAD PUSH4 0x1E4FBDF7 PUSH1 0xE0 SHL DUP2 MSTORE PUSH1 0x4 DUP2 ADD DUP5 SWAP1 MSTORE PUSH1 0x24 SWAP1 REVERT JUMPDEST DUP1 REVERT JUMPDEST POP CALLVALUE PUSH2 0x19D JUMPI PUSH1 0x20 CALLDATASIZE PUSH1 0x3 NOT ADD SLT PUSH2 0x19D JUMPI PUSH1 0x20 SWAP1 PUSH1 0xFF SWAP1 PUSH1 0x40 SWAP1 PUSH1 0x1 PUSH1 0x1 PUSH1 0xA0 SHL SUB PUSH2 0x1CB PUSH2 0x12F5 JUMP JUMPDEST AND DUP2 MSTORE PUSH1 0xB DUP5 MSTORE KECCAK256 SLOAD AND PUSH1 0x40 MLOAD SWAP1 ISZERO ISZERO DUP2 MSTORE RETURN JUMPDEST POP CALLVALUE PUSH2 0x19D JUMPI PUSH1 0x20 CALLDATASIZE PUSH1 0x3 NOT ADD SLT PUSH2 0x19D JUMPI PUSH1 0x40 PUSH1 0xC0 SWAP2 PUSH1 0x4 CALLDATALOAD DUP2 MSTORE PUSH1 0x9 PUSH1 0x20 MSTORE KECCAK256 PUSH1 0x1 DUP1 PUSH1 0xA0 SHL SUB DUP2 SLOAD AND SWAP1 PUSH1 0x1 DUP2 ADD SLOAD SWAP1 PUSH1 0x2 DUP2 ADD SLOAD PUSH1 0x3 DUP3 ADD SLOAD SWAP1 PUSH1 0xFF PUSH1 0x5 PUSH1 0x4 DUP6 ADD SLOAD SWAP5 ADD SLOAD AND SWAP4 PUSH1 0x40 MLOAD SWAP6 DUP7 MSTORE PUSH1 0x20 DUP7 ADD MSTORE PUSH1 0x40 DUP6 ADD MSTORE PUSH1 0x60 DUP5 ADD MSTORE PUSH1 0x80 DUP4 ADD MSTORE ISZERO ISZERO PUSH1 0xA0 DUP3 ADD MSTORE RETURN JUMPDEST POP CALLVALUE PUSH2 0x19D JUMPI DUP1 PUSH1 0x3 NOT CALLDATASIZE ADD SLT PUSH2 0x19D JUMPI PUSH1 0x20 PUSH1 0x40 MLOAD PUSH2 0x2710 DUP2 MSTORE RETURN JUMPDEST POP CALLVALUE PUSH2 0x19D JUMPI DUP1 PUSH1 0x3 NOT CALLDATASIZE ADD SLT PUSH2 0x19D JUMPI PUSH1 0x4 SLOAD PUSH1 0x40 MLOAD PUSH1 0x1 PUSH1 0x1 PUSH1 0xA0 SHL SUB SWAP1 SWAP2 AND DUP2 MSTORE PUSH1 0x20 SWAP1 RETURN JUMPDEST POP CALLVALUE PUSH2 0x19D JUMPI DUP1 PUSH1 0x3 NOT CALLDATASIZE ADD SLT PUSH2 0x19D JUMPI PUSH1 0x20 PUSH1 0xA SLOAD PUSH1 0x40 MLOAD SWAP1 DUP2 MSTORE RETURN JUMPDEST POP CALLVALUE PUSH2 0x19D JUMPI PUSH1 0x60 CALLDATASIZE PUSH1 0x3 NOT ADD SLT PUSH2 0x19D JUMPI PUSH2 0x2CC PUSH2 0x12F5 JUMP JUMPDEST PUSH1 0x24 CALLDATALOAD PUSH3 0xFFFFFF DUP2 AND SWAP2 DUP3 DUP3 SUB PUSH2 0x3E6 JUMPI PUSH1 0x44 CALLDATALOAD SWAP1 PUSH2 0x2E9 PUSH2 0x130B JUMP JUMPDEST PUSH1 0x1 PUSH1 0x1 PUSH1 0xA0 SHL SUB AND SWAP1 DUP2 ISZERO PUSH2 0x3B6 JUMPI DUP1 ISZERO ISZERO DUP1 PUSH2 0x3AA JUMPI JUMPDEST ISZERO PUSH2 0x376 JUMPI PUSH32 0x8B5C8D8F89D3A1FAECB05D234F488196BD0A31CBD4F482BF686B2581B1E4DBE4 SWAP4 PUSH1 0x60 SWAP4 DUP4 PUSH1 0x1 PUSH1 0x1 PUSH1 0x60 SHL SUB PUSH1 0xA0 SHL PUSH1 0x6 SLOAD AND OR PUSH1 0x6 SSTORE PUSH1 0x7 SLOAD SWAP1 PUSH3 0xFFFFFF PUSH1 0xA0 SHL SWAP1 PUSH1 0xA0 SHL AND SWAP1 PUSH3 0xFFFFFF PUSH1 0xA0 SHL NOT AND OR PUSH1 0x7 SSTORE DUP2 PUSH1 0x8 SSTORE PUSH1 0x40 MLOAD SWAP3 DUP4 MSTORE PUSH1 0x20 DUP4 ADD MSTORE PUSH1 0x40 DUP3 ADD MSTORE LOG1 DUP1 RETURN JUMPDEST PUSH1 0x40 MLOAD PUSH3 0x461BCD PUSH1 0xE5 SHL DUP2 MSTORE PUSH1 0x20 PUSH1 0x4 DUP3 ADD MSTORE PUSH1 0xC PUSH1 0x24 DUP3 ADD MSTORE PUSH12 0x62616420736C697070616765 PUSH1 0xA0 SHL PUSH1 0x44 DUP3 ADD MSTORE PUSH1 0x64 SWAP1 REVERT JUMPDEST POP PUSH2 0x2710 DUP2 GT ISZERO PUSH2 0x302 JUMP JUMPDEST PUSH1 0x40 MLOAD PUSH3 0x461BCD PUSH1 0xE5 SHL DUP2 MSTORE PUSH1 0x20 PUSH1 0x4 DUP3 ADD MSTORE PUSH1 0x8 PUSH1 0x24 DUP3 ADD MSTORE PUSH8 0x726F757465723D3 PUSH1 0xC4 SHL PUSH1 0x44 DUP3 ADD MSTORE PUSH1 0x64 SWAP1 REVERT JUMPDEST DUP4 DUP1 REVERT JUMPDEST POP CALLVALUE PUSH2 0x19D JUMPI PUSH1 0x20 CALLDATASIZE PUSH1 0x3 NOT ADD SLT PUSH2 0x19D JUMPI PUSH1 0x4 CALLDATALOAD DUP2 MSTORE PUSH1 0x9 PUSH1 0x20 MSTORE PUSH1 0x40 DUP2 KECCAK256 PUSH2 0x41A PUSH1 0xFF PUSH1 0x5 DUP4 ADD SLOAD AND PUSH2 0x1436 JUMP JUMPDEST PUSH1 0x4 DUP2 ADD SLOAD TIMESTAMP LT PUSH2 0x8DA JUMPI PUSH1 0x1 DUP2 ADD SLOAD SWAP1 DUP3 PUSH2 0x43C PUSH1 0x2 DUP4 ADD SWAP4 DUP5 SLOAD SWAP1 PUSH2 0x1400 JUMP JUMPDEST SWAP3 PUSH1 0x1 DUP1 PUSH1 0xA0 SHL SUB PUSH1 0x2 SLOAD AND SWAP3 PUSH1 0x3 DUP2 ADD SLOAD PUSH1 0x40 MLOAD SWAP1 PUSH4 0xB93A89F7 PUSH1 0xE0 SHL DUP3 MSTORE DUP1 PUSH1 0x4 DUP4 ADD MSTORE PUSH1 0x60 DUP3 PUSH1 0x24 DUP2 DUP10 GAS STATICCALL SWAP1 DUP2 ISZERO PUSH2 0x8CF JUMPI DUP6 SWAP3 DUP7 SWAP3 PUSH2 0x89B JUMPI JUMPDEST POP DUP8 PUSH2 0x572 JUMPI POP POP DUP4 SWAP5 POP DUP1 SWAP4 SWAP3 SWAP4 PUSH2 0x4D8 JUMPI JUMPDEST POP PUSH1 0x1 SWAP1 JUMPDEST PUSH1 0xFF NOT PUSH1 0x5 DUP3 ADD SLOAD AND PUSH1 0x5 DUP3 ADD SSTORE ADD SSTORE SSTORE PUSH1 0x40 MLOAD SWAP1 ISZERO ISZERO DUP2 MSTORE PUSH32 0x2B8A84E623A466252D40DF763A21D8D87755B1C874A96449B31B8CE3B5BBE7D7 PUSH1 0x20 PUSH1 0x4 CALLDATALOAD SWAP3 LOG2 DUP1 RETURN JUMPDEST PUSH1 0x2 SLOAD PUSH1 0x3 DUP4 ADD SLOAD DUP4 SLOAD SWAP4 SWAP5 POP PUSH1 0x1 PUSH1 0x1 PUSH1 0xA0 SHL SUB SWAP4 DUP5 AND SWAP4 SWAP1 SWAP3 SWAP2 AND DUP1 EXTCODESIZE ISZERO PUSH2 0x56E JUMPI PUSH1 0x40 MLOAD PUSH4 0x2A7D7BC5 PUSH1 0xE0 SHL DUP2 MSTORE PUSH1 0x4 DUP2 ADD SWAP4 SWAP1 SWAP4 MSTORE PUSH1 0x1 PUSH1 0x1 PUSH1 0xA0 SHL SUB SWAP4 SWAP1 SWAP4 AND PUSH1 0x24 DUP4 ADD MSTORE PUSH1 0x44 DUP3 ADD MSTORE SWAP1 DUP5 SWAP1 DUP3 SWAP1 PUSH1 0x64 SWAP1 DUP3 SWAP1 DUP5 SWAP1 GAS CALL SWAP1 DUP2 ISZERO PUSH2 0x563 JUMPI DUP5 SWAP2 PUSH2 0x54B JUMPI JUMPDEST SWAP2 SWAP1 SWAP2 PUSH2 0x48F JUMP JUMPDEST PUSH2 0x554 SWAP1 PUSH2 0x1337 JUMP JUMPDEST PUSH2 0x55F JUMPI DUP3 CODESIZE PUSH2 0x543 JUMP JUMPDEST DUP3 DUP1 REVERT JUMPDEST PUSH1 0x40 MLOAD RETURNDATASIZE DUP7 DUP3 RETURNDATACOPY RETURNDATASIZE SWAP1 REVERT JUMPDEST DUP7 DUP1 REVERT JUMPDEST DUP3 SWAP7 SWAP4 SWAP7 PUSH2 0x589 JUMPI JUMPDEST POP POP POP POP SWAP1 PUSH1 0x1 DUP2 SWAP4 PUSH2 0x494 JUMP JUMPDEST PUSH2 0x596 DUP9 DUP4 SWAP9 SWAP6 SWAP9 PUSH2 0x1A7E JUMP JUMPDEST SWAP7 DUP4 DUP9 GT PUSH2 0x892 JUMPI JUMPDEST DUP8 PUSH2 0x651 JUMPI JUMPDEST POP POP POP DUP5 DUP5 SWAP6 DUP3 SWAP6 SWAP5 SWAP6 GT PUSH2 0x5BE JUMPI JUMPDEST DUP3 SWAP6 SWAP5 SWAP4 PUSH2 0x57B JUMP JUMPDEST PUSH1 0x2 SLOAD PUSH1 0x3 DUP5 ADD SLOAD DUP5 SLOAD SWAP5 SWAP6 POP PUSH1 0x1 PUSH1 0x1 PUSH1 0xA0 SHL SUB SWAP5 DUP6 AND SWAP5 SWAP1 SWAP4 SWAP2 AND SWAP2 PUSH2 0x5E5 SWAP2 PUSH2 0x146D JUMP JUMPDEST SWAP1 DUP1 EXTCODESIZE ISZERO PUSH2 0x56E JUMPI PUSH1 0x40 MLOAD PUSH4 0x2A7D7BC5 PUSH1 0xE0 SHL DUP2 MSTORE PUSH1 0x4 DUP2 ADD SWAP4 SWAP1 SWAP4 MSTORE PUSH1 0x1 PUSH1 0x1 PUSH1 0xA0 SHL SUB SWAP4 SWAP1 SWAP4 AND PUSH1 0x24 DUP4 ADD MSTORE PUSH1 0x44 DUP3 ADD MSTORE SWAP1 DUP5 SWAP1 DUP3 SWAP1 PUSH1 0x64 SWAP1 DUP3 SWAP1 DUP5 SWAP1 GAS CALL SWAP1 DUP2 ISZERO PUSH2 0x563 JUMPI DUP5 SWAP2 PUSH2 0x63D JUMPI JUMPDEST DUP1 SWAP3 SWAP2 SWAP3 PUSH2 0x5B5 JUMP JUMPDEST PUSH2 0x646 SWAP1 PUSH2 0x1337 JUMP JUMPDEST PUSH2 0x55F JUMPI DUP3 CODESIZE PUSH2 0x634 JUMP JUMPDEST DUP1 EXTCODESIZE ISZERO PUSH2 0x56E JUMPI PUSH1 0x40 MLOAD PUSH4 0x2A7D7BC5 PUSH1 0xE0 SHL DUP2 MSTORE PUSH1 0x4 DUP2 ADD SWAP3 SWAP1 SWAP3 MSTORE ADDRESS PUSH1 0x24 DUP4 ADD MSTORE PUSH1 0x44 DUP3 ADD DUP9 SWAP1 MSTORE DUP7 SWAP1 DUP3 SWAP1 PUSH1 0x64 SWAP1 DUP3 SWAP1 DUP5 SWAP1 GAS CALL DUP1 ISZERO PUSH2 0x7B6 JUMPI DUP8 SWAP2 DUP8 SWAP2 PUSH2 0x87B JUMPI JUMPDEST POP POP PUSH2 0x6A4 SWAP2 PUSH1 0x4 CALLDATALOAD PUSH2 0x147A JUMP JUMPDEST DUP1 PUSH2 0x6B1 JUMPI JUMPDEST DUP1 DUP1 PUSH2 0x5A5 JUMP JUMPDEST PUSH1 0x3 SLOAD PUSH1 0x40 MLOAD PUSH4 0x13064E1B PUSH1 0xE2 SHL DUP2 MSTORE PUSH1 0x1 PUSH1 0x1 PUSH1 0xA0 SHL SUB SWAP1 SWAP2 AND SWAP1 DUP3 PUSH1 0x20 DUP3 PUSH1 0x4 DUP2 DUP7 GAS STATICCALL SWAP2 DUP3 ISZERO PUSH2 0x82C JUMPI DUP9 SWAP3 PUSH2 0x83F JUMPI JUMPDEST POP DUP2 LT PUSH2 0x837 JUMPI JUMPDEST POP DUP2 PUSH2 0x6FA JUMPI JUMPDEST POP PUSH2 0x6AA JUMP JUMPDEST PUSH1 0x7 SLOAD PUSH1 0x40 MLOAD PUSH4 0xA9059CBB PUSH1 0xE0 SHL DUP2 MSTORE PUSH1 0x1 PUSH1 0x1 PUSH1 0xA0 SHL SUB SWAP3 DUP4 AND PUSH1 0x4 DUP3 ADD MSTORE PUSH1 0x24 DUP2 ADD DUP5 SWAP1 MSTORE SWAP6 SWAP7 POP SWAP2 SWAP5 SWAP2 PUSH1 0x20 SWAP2 DUP4 SWAP2 PUSH1 0x44 SWAP2 DUP4 SWAP2 DUP14 SWAP2 AND GAS CALL SWAP1 DUP2 ISZERO PUSH2 0x82C JUMPI DUP9 SWAP2 PUSH2 0x7FD JUMPI JUMPDEST POP ISZERO PUSH2 0x7C1 JUMPI PUSH1 0x3 SLOAD DUP8 SWAP6 PUSH1 0x1 PUSH1 0x1 PUSH1 0xA0 SHL SUB SWAP1 SWAP2 AND SWAP4 DUP5 EXTCODESIZE ISZERO PUSH2 0x56E JUMPI DUP7 SWAP5 PUSH1 0x24 DUP7 SWAP3 PUSH1 0x40 MLOAD SWAP8 DUP9 SWAP4 DUP5 SWAP3 PUSH4 0x1B8FEC73 PUSH1 0xE1 SHL DUP5 MSTORE PUSH1 0x4 DUP5 ADD MSTORE GAS CALL SWAP4 DUP5 ISZERO PUSH2 0x7B6 JUMPI DUP7 SWAP5 PUSH2 0x79A JUMPI JUMPDEST DUP2 SWAP7 POP SWAP5 SWAP4 SWAP5 PUSH2 0x6F4 JUMP JUMPDEST PUSH2 0x7A6 SWAP1 SWAP5 SWAP2 SWAP5 PUSH2 0x1337 JUMP JUMPDEST PUSH2 0x7B2 JUMPI DUP5 SWAP3 CODESIZE PUSH2 0x78F JUMP JUMPDEST DUP5 DUP1 REVERT JUMPDEST PUSH1 0x40 MLOAD RETURNDATASIZE DUP9 DUP3 RETURNDATACOPY RETURNDATASIZE SWAP1 REVERT JUMPDEST PUSH1 0x40 MLOAD PUSH3 0x461BCD PUSH1 0xE5 SHL DUP2 MSTORE PUSH1 0x20 PUSH1 0x4 DUP3 ADD MSTORE PUSH1 0x14 PUSH1 0x24 DUP3 ADD MSTORE PUSH20 0x1D5CD918C81D1C985B9CD9995C8819985A5B1959 PUSH1 0x62 SHL PUSH1 0x44 DUP3 ADD MSTORE PUSH1 0x64 SWAP1 REVERT JUMPDEST PUSH2 0x81F SWAP2 POP PUSH1 0x20 RETURNDATASIZE PUSH1 0x20 GT PUSH2 0x825 JUMPI JUMPDEST PUSH2 0x817 DUP2 DUP4 PUSH2 0x1361 JUMP JUMPDEST DUP2 ADD SWAP1 PUSH2 0x1383 JUMP JUMPDEST CODESIZE PUSH2 0x744 JUMP JUMPDEST POP RETURNDATASIZE PUSH2 0x80D JUMP JUMPDEST PUSH1 0x40 MLOAD RETURNDATASIZE DUP11 DUP3 RETURNDATACOPY RETURNDATASIZE SWAP1 REVERT JUMPDEST SWAP2 POP CODESIZE PUSH2 0x6ED JUMP JUMPDEST SWAP8 POP SWAP1 POP PUSH1 0x20 DUP8 RETURNDATASIZE PUSH1 0x20 GT PUSH2 0x873 JUMPI JUMPDEST DUP2 PUSH2 0x85C PUSH1 0x20 SWAP4 DUP4 PUSH2 0x1361 JUMP JUMPDEST DUP2 ADD SUB SLT PUSH2 0x86E JUMPI DUP10 SWAP7 MLOAD SWAP1 CODESIZE PUSH2 0x6E5 JUMP JUMPDEST PUSH1 0x0 DUP1 REVERT JUMPDEST RETURNDATASIZE SWAP2 POP PUSH2 0x84F JUMP JUMPDEST PUSH2 0x886 SWAP2 SWAP3 POP PUSH2 0x1337 JUMP JUMPDEST PUSH2 0x7B2 JUMPI DUP6 DUP6 CODESIZE PUSH2 0x696 JUMP JUMPDEST SWAP7 POP DUP3 SWAP7 PUSH2 0x59F JUMP JUMPDEST SWAP1 SWAP3 POP PUSH2 0x8BF SWAP2 POP PUSH1 0x60 RETURNDATASIZE DUP2 GT PUSH2 0x8C8 JUMPI JUMPDEST PUSH2 0x8B7 DUP2 DUP4 PUSH2 0x1361 JUMP JUMPDEST DUP2 ADD SWAP1 PUSH2 0x13D2 JUMP JUMPDEST POP SWAP1 SWAP2 CODESIZE PUSH2 0x47B JUMP JUMPDEST POP RETURNDATASIZE PUSH2 0x8AD JUMP JUMPDEST PUSH1 0x40 MLOAD RETURNDATASIZE DUP8 DUP3 RETURNDATACOPY RETURNDATASIZE SWAP1 REVERT JUMPDEST PUSH1 0x40 MLOAD PUSH3 0x461BCD PUSH1 0xE5 SHL DUP2 MSTORE PUSH1 0x20 PUSH1 0x4 DUP3 ADD MSTORE PUSH1 0xC PUSH1 0x24 DUP3 ADD MSTORE PUSH12 0x1B9BDD081D5B9B1BD8DAD959 PUSH1 0xA2 SHL PUSH1 0x44 DUP3 ADD MSTORE PUSH1 0x64 SWAP1 REVERT JUMPDEST POP CALLVALUE PUSH2 0x19D JUMPI DUP1 PUSH1 0x3 NOT CALLDATASIZE ADD SLT PUSH2 0x19D JUMPI PUSH1 0x20 PUSH1 0x5 SLOAD PUSH1 0x40 MLOAD SWAP1 DUP2 MSTORE RETURN JUMPDEST POP CALLVALUE PUSH2 0x19D JUMPI DUP1 PUSH1 0x3 NOT CALLDATASIZE ADD SLT PUSH2 0x19D JUMPI SLOAD PUSH1 0x40 MLOAD PUSH1 0x1 PUSH1 0x1 PUSH1 0xA0 SHL SUB SWAP1 SWAP2 AND DUP2 MSTORE PUSH1 0x20 SWAP1 RETURN JUMPDEST POP CALLVALUE PUSH2 0x19D JUMPI PUSH1 0x40 CALLDATASIZE PUSH1 0x3 NOT ADD SLT PUSH2 0x19D JUMPI PUSH1 0x4 CALLDATALOAD PUSH1 0x24 CALLDATALOAD DUP2 DUP4 MSTORE PUSH1 0x20 PUSH1 0x9 DUP2 MSTORE PUSH1 0x40 DUP5 KECCAK256 SWAP2 PUSH1 0x5 DUP4 ADD PUSH2 0x98A PUSH1 0xFF DUP3 SLOAD AND PUSH2 0x1436 JUMP JUMPDEST DUP4 SLOAD PUSH1 0x1 PUSH1 0x1 PUSH1 0xA0 SHL SUB SWAP1 DUP2 AND CALLER SUB PUSH2 0xB2A JUMPI PUSH2 0x9A8 DUP4 ISZERO ISZERO PUSH2 0x139B JUMP JUMPDEST DUP7 DUP5 DUP3 PUSH1 0x7 SLOAD AND PUSH1 0x64 DUP5 PUSH1 0x3 SLOAD AND PUSH1 0x40 MLOAD SWAP5 DUP6 SWAP4 DUP5 SWAP3 PUSH4 0x23B872DD PUSH1 0xE0 SHL DUP5 MSTORE CALLER PUSH1 0x4 DUP6 ADD MSTORE PUSH1 0x24 DUP5 ADD MSTORE DUP10 PUSH1 0x44 DUP5 ADD MSTORE GAS CALL SWAP1 DUP2 ISZERO PUSH2 0x82C JUMPI DUP9 SWAP2 PUSH2 0xB0D JUMPI JUMPDEST POP ISZERO PUSH2 0xAD6 JUMPI DUP7 SWAP1 PUSH1 0x3 SLOAD AND DUP1 EXTCODESIZE ISZERO PUSH2 0xAD2 JUMPI DUP2 DUP1 SWAP2 PUSH1 0x24 PUSH1 0x40 MLOAD DUP1 SWAP5 DUP2 SWAP4 PUSH4 0x1B8FEC73 PUSH1 0xE1 SHL DUP4 MSTORE DUP10 PUSH1 0x4 DUP5 ADD MSTORE GAS CALL DUP1 ISZERO PUSH2 0xAC7 JUMPI PUSH2 0xAB3 JUMPI JUMPDEST POP DUP5 PUSH1 0x2 PUSH32 0x40CEE90EE4799897C30CA04E5FEB6FA43DBBA9B6D084B4B257CDAFD84BA013E SWAP7 ADD PUSH1 0x1 DUP2 SLOAD SWAP3 ADD SWAP2 DUP3 SLOAD SWAP2 DUP7 DUP3 DUP2 LT ISZERO PUSH1 0x0 EQ PUSH2 0xAA3 JUMPI POP SWAP1 DUP5 PUSH2 0xA70 SWAP3 SSTORE DUP7 PUSH2 0x146D JUMP JUMPDEST SWAP1 DUP1 DUP3 LT PUSH2 0xA8E JUMPI POP POP SSTORE DUP1 SLOAD PUSH1 0xFF NOT AND SWAP1 SSTORE JUMPDEST PUSH1 0x40 MLOAD SWAP1 DUP2 MSTORE LOG2 DUP1 RETURN JUMPDEST SWAP1 SWAP2 SWAP4 POP PUSH2 0xA9C SWAP3 POP PUSH2 0x146D JUMP JUMPDEST SWAP1 SSTORE PUSH2 0xA84 JUMP JUMPDEST SWAP4 POP SWAP5 POP SWAP1 POP PUSH2 0xA9C SWAP3 POP PUSH2 0x146D JUMP JUMPDEST PUSH2 0xABD DUP3 SWAP2 PUSH2 0x1337 JUMP JUMPDEST PUSH2 0x19D JUMPI CODESIZE PUSH2 0xA25 JUMP JUMPDEST PUSH1 0x40 MLOAD RETURNDATASIZE DUP5 DUP3 RETURNDATACOPY RETURNDATASIZE SWAP1 REVERT JUMPDEST POP DUP1 REVERT JUMPDEST PUSH1 0x40 MLOAD PUSH3 0x461BCD PUSH1 0xE5 SHL DUP2 MSTORE PUSH1 0x4 DUP2 ADD DUP6 SWAP1 MSTORE PUSH1 0xF PUSH1 0x24 DUP3 ADD MSTORE PUSH15 0x1D1C985B9CD9995C8819985A5B1959 PUSH1 0x8A SHL PUSH1 0x44 DUP3 ADD MSTORE PUSH1 0x64 SWAP1 REVERT JUMPDEST PUSH2 0xB24 SWAP2 POP DUP6 RETURNDATASIZE DUP8 GT PUSH2 0x825 JUMPI PUSH2 0x817 DUP2 DUP4 PUSH2 0x1361 JUMP JUMPDEST CODESIZE PUSH2 0x9E9 JUMP JUMPDEST PUSH1 0x40 MLOAD PUSH3 0x461BCD PUSH1 0xE5 SHL DUP2 MSTORE PUSH1 0x4 DUP2 ADD DUP6 SWAP1 MSTORE PUSH1 0xC PUSH1 0x24 DUP3 ADD MSTORE PUSH12 0x3737BA103137B93937BBB2B9 PUSH1 0xA1 SHL PUSH1 0x44 DUP3 ADD MSTORE PUSH1 0x64 SWAP1 REVERT JUMPDEST POP CALLVALUE PUSH2 0x19D JUMPI DUP1 PUSH1 0x3 NOT CALLDATASIZE ADD SLT PUSH2 0x19D JUMPI PUSH1 0x6 SLOAD PUSH1 0x40 MLOAD PUSH1 0x1 PUSH1 0x1 PUSH1 0xA0 SHL SUB SWAP1 SWAP2 AND DUP2 MSTORE PUSH1 0x20 SWAP1 RETURN JUMPDEST POP CALLVALUE PUSH2 0x19D JUMPI DUP1 PUSH1 0x3 NOT CALLDATASIZE ADD SLT PUSH2 0x19D JUMPI PUSH2 0xBA0 PUSH2 0x130B JUMP JUMPDEST PUSH1 0x0 DUP1 SLOAD PUSH1 0x1 PUSH1 0x1 PUSH1 0xA0 SHL SUB NOT DUP2 AND DUP3 SSTORE PUSH1 0x1 PUSH1 0x1 PUSH1 0xA0 SHL SUB AND PUSH32 0x8BE0079C531659141344CD1FD0A4F28419497F9722A3DAAFE3B4186F6B6457E0 DUP3 DUP1 LOG3 DUP1 RETURN JUMPDEST POP CALLVALUE PUSH2 0x19D JUMPI DUP1 PUSH1 0x3 NOT CALLDATASIZE ADD SLT PUSH2 0x19D JUMPI PUSH1 0x20 PUSH1 0x8 SLOAD PUSH1 0x40 MLOAD SWAP1 DUP2 MSTORE RETURN JUMPDEST POP CALLVALUE PUSH2 0x19D JUMPI PUSH1 0x40 CALLDATASIZE PUSH1 0x3 NOT ADD SLT PUSH2 0x19D JUMPI PUSH2 0xC19 PUSH2 0x12F5 JUMP JUMPDEST PUSH1 0x24 CALLDATALOAD PUSH2 0xC24 PUSH2 0x130B JUMP JUMPDEST PUSH2 0x7D0 DUP2 GT PUSH2 0xC86 JUMPI PUSH1 0x4 DUP1 SLOAD PUSH1 0x1 PUSH1 0x1 PUSH1 0xA0 SHL SUB NOT AND PUSH1 0x1 PUSH1 0x1 PUSH1 0xA0 SHL SUB SWAP4 SWAP1 SWAP4 AND SWAP3 DUP4 OR SWAP1 SSTORE PUSH1 0x5 DUP2 SWAP1 SSTORE PUSH1 0x40 DUP1 MLOAD SWAP3 DUP4 MSTORE PUSH1 0x20 DUP4 ADD SWAP2 SWAP1 SWAP2 MSTORE PUSH32 0x4E9C2C9D7CE2FF823CAB7F6F0DEDFB36EA1F4E5BE270F6C13AE74C65FB6C63BF SWAP2 LOG1 DUP1 RETURN JUMPDEST PUSH1 0x40 MLOAD PUSH3 0x461BCD PUSH1 0xE5 SHL DUP2 MSTORE PUSH1 0x20 PUSH1 0x4 DUP3 ADD MSTORE PUSH1 0xE PUSH1 0x24 DUP3 ADD MSTORE PUSH14 0xC4DEDEE6E840E8DEDE40D0D2CED PUSH1 0x93 SHL PUSH1 0x44 DUP3 ADD MSTORE PUSH1 0x64 SWAP1 REVERT JUMPDEST POP CALLVALUE PUSH2 0x19D JUMPI DUP1 PUSH1 0x3 NOT CALLDATASIZE ADD SLT PUSH2 0x19D JUMPI PUSH1 0x7 SLOAD PUSH1 0x40 MLOAD PUSH1 0x1 PUSH1 0x1 PUSH1 0xA0 SHL SUB SWAP1 SWAP2 AND DUP2 MSTORE PUSH1 0x20 SWAP1 RETURN JUMPDEST POP CALLVALUE PUSH2 0x19D JUMPI DUP1 PUSH1 0x3 NOT CALLDATASIZE ADD SLT PUSH2 0x19D JUMPI PUSH1 0x1 SLOAD PUSH1 0x40 MLOAD PUSH1 0x1 PUSH1 0x1 PUSH1 0xA0 SHL SUB SWAP1 SWAP2 AND DUP2 MSTORE PUSH1 0x20 SWAP1 RETURN JUMPDEST POP CALLVALUE PUSH2 0x19D JUMPI PUSH1 0x60 CALLDATASIZE PUSH1 0x3 NOT ADD SLT PUSH2 0x19D JUMPI PUSH1 0x1 PUSH1 0x1 PUSH1 0xA0 SHL SUB PUSH1 0x24 DUP1 CALLDATALOAD DUP3 DUP2 AND SWAP3 PUSH1 0x4 CALLDATALOAD SWAP3 SWAP2 DUP5 SWAP1 SUB PUSH2 0x7B2 JUMPI DUP5 PUSH1 0x44 CALLDATALOAD SWAP5 PUSH2 0xD4C DUP7 ISZERO ISZERO PUSH2 0x139B JUMP JUMPDEST DUP3 PUSH1 0x2 SLOAD AND DUP1 EXTCODESIZE ISZERO PUSH2 0x55F JUMPI PUSH1 0x64 DUP4 SWAP3 PUSH1 0x40 MLOAD SWAP5 DUP6 SWAP4 DUP5 SWAP3 PUSH4 0x795A1709 PUSH1 0xE1 SHL DUP5 MSTORE DUP11 PUSH1 0x4 DUP6 ADD MSTORE DUP10 DUP5 ADD MSTORE CALLER PUSH1 0x44 DUP5 ADD MSTORE GAS CALL DUP1 ISZERO PUSH2 0x7B6 JUMPI PUSH2 0x10E1 JUMPI JUMPDEST POP DUP2 PUSH1 0x60 DUP3 PUSH1 0x2 SLOAD AND PUSH1 0x40 MLOAD SWAP5 DUP6 DUP1 SWAP3 PUSH4 0xB93A89F7 PUSH1 0xE0 SHL DUP3 MSTORE DUP9 PUSH1 0x4 DUP4 ADD MSTORE GAS STATICCALL DUP1 ISZERO PUSH2 0x7B6 JUMPI PUSH2 0xE08 SWAP4 DUP8 SWAP1 DUP9 SWAP1 DUP10 SWAP4 PUSH2 0x10BD JUMPI JUMPDEST POP PUSH1 0x1 SLOAD PUSH1 0x40 DUP1 MLOAD PUSH4 0x17FB08F5 PUSH1 0xE3 SHL DUP2 MSTORE PUSH1 0x4 DUP2 ADD SWAP5 SWAP1 SWAP5 MSTORE PUSH1 0x1 PUSH1 0x1 PUSH1 0xA0 SHL SUB SWAP1 SWAP3 AND PUSH1 0x24 DUP5 ADD MSTORE PUSH1 0x44 DUP4 ADD DUP5 SWAP1 MSTORE SWAP2 SWAP6 SWAP1 SWAP2 DUP7 SWAP2 SWAP1 DUP7 AND SWAP1 DUP3 SWAP1 DUP2 SWAP1 PUSH1 0x64 DUP3 ADD SWAP1 JUMP JUMPDEST SUB SWAP2 GAS STATICCALL SWAP4 DUP5 ISZERO PUSH2 0x10B2 JUMPI DUP8 SWAP1 DUP9 SWAP6 PUSH2 0x1078 JUMPI JUMPDEST POP DUP5 SWAP1 CALLER DUP10 MSTORE PUSH1 0x20 SWAP6 PUSH1 0xB DUP8 MSTORE PUSH1 0xFF PUSH1 0x40 DUP12 KECCAK256 SLOAD AND DUP1 PUSH2 0x106D JUMPI JUMPDEST PUSH2 0x104A JUMPI JUMPDEST POP PUSH2 0xE4B PUSH2 0x2710 SWAP3 DUP4 SWAP3 PUSH2 0x1423 JUMP JUMPDEST DIV DUP8 GT PUSH2 0x1018 JUMPI PUSH1 0x4 DUP6 DUP6 PUSH1 0x3 SLOAD AND PUSH1 0x40 MLOAD SWAP3 DUP4 DUP1 SWAP3 PUSH4 0x3FCEB099 PUSH1 0xE2 SHL DUP3 MSTORE GAS STATICCALL DUP1 ISZERO PUSH2 0x100D JUMPI DUP10 SWAP1 PUSH2 0xFDE JUMPI JUMPDEST PUSH2 0xE85 SWAP2 POP DUP9 PUSH2 0x1423 JUMP JUMPDEST DIV SWAP1 PUSH1 0xA SLOAD SWAP6 PUSH1 0x40 MLOAD SWAP3 PUSH1 0xC0 DUP5 ADD DUP5 DUP2 LT PUSH8 0xFFFFFFFFFFFFFFFF DUP3 GT OR PUSH2 0xFC9 JUMPI SWAP2 PUSH1 0x5 SWAP4 SWAP2 DUP12 SWAP6 SWAP4 PUSH1 0x40 MSTORE CALLER DUP5 MSTORE DUP9 DUP5 ADD DUP12 DUP2 MSTORE PUSH1 0x40 DUP6 ADD SWAP2 DUP3 MSTORE PUSH1 0x60 DUP6 ADD SWAP3 DUP4 MSTORE PUSH1 0x80 DUP6 ADD SWAP4 DUP5 MSTORE DUP9 PUSH1 0x40 PUSH1 0xA0 DUP8 ADD SWAP9 PUSH1 0x1 DUP11 MSTORE DUP14 DUP2 MSTORE PUSH1 0x9 DUP14 MSTORE KECCAK256 SWAP6 MLOAD AND PUSH1 0x1 PUSH1 0x1 PUSH1 0x60 SHL SUB PUSH1 0xA0 SHL DUP7 SLOAD AND OR DUP6 SSTORE MLOAD PUSH1 0x1 DUP6 ADD SSTORE MLOAD PUSH1 0x2 DUP5 ADD SSTORE MLOAD PUSH1 0x3 DUP4 ADD SSTORE MLOAD PUSH1 0x4 DUP3 ADD SSTORE ADD SWAP1 MLOAD ISZERO ISZERO PUSH1 0xFF DUP1 NOT DUP4 SLOAD AND SWAP2 AND OR SWAP1 SSTORE PUSH1 0xA SLOAD SWAP1 PUSH1 0x1 DUP3 ADD DUP1 SWAP3 GT PUSH2 0xFB7 JUMPI POP PUSH1 0xA SSTORE PUSH1 0x3 SLOAD DUP6 SWAP2 AND DUP1 EXTCODESIZE ISZERO PUSH2 0xAD2 JUMPI PUSH1 0x40 MLOAD PUSH4 0xA2FB342D PUSH1 0xE0 SHL DUP2 MSTORE CALLER PUSH1 0x4 DUP3 ADD MSTORE PUSH1 0x24 DUP2 ADD DUP7 SWAP1 MSTORE SWAP1 DUP3 SWAP1 DUP3 SWAP1 PUSH1 0x44 SWAP1 DUP3 SWAP1 DUP5 SWAP1 GAS CALL DUP1 ISZERO PUSH2 0xAC7 JUMPI PUSH2 0xFA3 JUMPI JUMPDEST POP POP PUSH32 0x8910BA13A55695F056E224BBBC6B65D866B12A8C2FBDF387FB853A1CCA298CD7 SWAP1 PUSH1 0x40 MLOAD SWAP4 DUP5 MSTORE CALLER SWAP4 LOG3 DUP1 RETURN JUMPDEST PUSH2 0xFAC SWAP1 PUSH2 0x1337 JUMP JUMPDEST PUSH2 0x3E6 JUMPI DUP4 CODESIZE PUSH2 0xF73 JUMP JUMPDEST PUSH4 0x4E487B71 PUSH1 0xE0 SHL DUP8 MSTORE PUSH1 0x11 PUSH1 0x4 MSTORE DUP7 REVERT JUMPDEST DUP6 PUSH4 0x4E487B71 PUSH1 0xE0 SHL PUSH1 0x0 MSTORE PUSH1 0x41 PUSH1 0x4 MSTORE PUSH1 0x0 REVERT JUMPDEST POP DUP6 DUP2 DUP2 RETURNDATASIZE DUP4 GT PUSH2 0x1006 JUMPI JUMPDEST PUSH2 0xFF4 DUP2 DUP4 PUSH2 0x1361 JUMP JUMPDEST DUP2 ADD SUB SLT PUSH2 0x86E JUMPI PUSH2 0xE85 SWAP1 MLOAD PUSH2 0xE7A JUMP JUMPDEST POP RETURNDATASIZE PUSH2 0xFEA JUMP JUMPDEST PUSH1 0x40 MLOAD RETURNDATASIZE DUP12 DUP3 RETURNDATACOPY RETURNDATASIZE SWAP1 REVERT JUMPDEST PUSH1 0x40 MLOAD PUSH3 0x461BCD PUSH1 0xE5 SHL DUP2 MSTORE PUSH1 0x4 DUP2 ADD DUP7 SWAP1 MSTORE PUSH1 0xB DUP2 DUP6 ADD MSTORE PUSH11 0x32BC31B2B2B23990262A2B PUSH1 0xA9 SHL PUSH1 0x44 DUP3 ADD MSTORE PUSH1 0x64 SWAP1 REVERT JUMPDEST PUSH2 0x1059 SWAP2 SWAP3 POP PUSH1 0x5 SLOAD SWAP1 PUSH2 0x1400 JUMP JUMPDEST SWAP1 PUSH2 0x2710 DUP1 DUP4 GT ISZERO PUSH2 0xE3C JUMPI SWAP2 POP CODESIZE PUSH2 0xE3C JUMP JUMPDEST POP PUSH1 0x5 SLOAD ISZERO ISZERO PUSH2 0xE37 JUMP JUMPDEST SWAP5 POP POP PUSH1 0x40 DUP5 RETURNDATASIZE PUSH1 0x40 GT PUSH2 0x10AA JUMPI JUMPDEST DUP2 PUSH2 0x1094 PUSH1 0x40 SWAP4 DUP4 PUSH2 0x1361 JUMP JUMPDEST DUP2 ADD SUB SLT PUSH2 0x56E JUMPI PUSH1 0x20 DUP5 MLOAD SWAP5 ADD MLOAD SWAP4 CODESIZE PUSH2 0xE1C JUMP JUMPDEST RETURNDATASIZE SWAP2 POP PUSH2 0x1087 JUMP JUMPDEST PUSH1 0x40 MLOAD RETURNDATASIZE DUP10 DUP3 RETURNDATACOPY RETURNDATASIZE SWAP1 REVERT JUMPDEST SWAP1 POP PUSH1 0x40 SWAP3 POP PUSH2 0x10DB SWAP2 POP PUSH1 0x60 RETURNDATASIZE DUP2 GT PUSH2 0x8C8 JUMPI PUSH2 0x8B7 DUP2 DUP4 PUSH2 0x1361 JUMP JUMPDEST SWAP3 PUSH2 0xDC2 JUMP JUMPDEST PUSH2 0x10ED SWAP1 SWAP6 SWAP2 SWAP6 PUSH2 0x1337 JUMP JUMPDEST SWAP4 CODESIZE PUSH2 0xD8B JUMP JUMPDEST POP CALLVALUE PUSH2 0x19D JUMPI DUP1 PUSH1 0x3 NOT CALLDATASIZE ADD SLT PUSH2 0x19D JUMPI PUSH1 0x3 SLOAD PUSH1 0x40 MLOAD PUSH1 0x1 PUSH1 0x1 PUSH1 0xA0 SHL SUB SWAP1 SWAP2 AND DUP2 MSTORE PUSH1 0x20 SWAP1 RETURN JUMPDEST POP CALLVALUE PUSH2 0x19D JUMPI PUSH1 0x20 SWAP1 DUP2 PUSH1 0x3 NOT CALLDATASIZE ADD SLT PUSH2 0x19D JUMPI PUSH8 0xFFFFFFFFFFFFFFFF PUSH1 0x4 CALLDATALOAD DUP2 DUP2 GT PUSH2 0x55F JUMPI CALLDATASIZE PUSH1 0x23 DUP3 ADD SLT ISZERO PUSH2 0x55F JUMPI DUP1 PUSH1 0x4 ADD CALLDATALOAD SWAP2 DUP3 GT PUSH2 0x55F JUMPI CALLDATASIZE PUSH1 0x24 DUP4 DUP4 ADD ADD GT PUSH2 0x55F JUMPI PUSH1 0x4 SLOAD PUSH1 0x1 PUSH1 0x1 PUSH1 0xA0 SHL SUB AND SWAP1 DUP2 ISZERO PUSH2 0x1277 JUMPI DUP5 SWAP2 PUSH1 0x24 DUP6 PUSH1 0x64 DUP7 SWAP5 PUSH1 0x40 MLOAD SWAP8 DUP9 SWAP7 DUP8 SWAP6 DUP7 SWAP4 PUSH4 0x58B23CD PUSH1 0xE4 SHL DUP6 MSTORE CALLER PUSH1 0x4 DUP7 ADD MSTORE PUSH1 0x40 DUP3 DUP7 ADD MSTORE DUP3 PUSH1 0x44 DUP7 ADD MSTORE ADD DUP5 DUP5 ADD CALLDATACOPY DUP2 DUP2 ADD DUP4 ADD DUP5 SWAP1 MSTORE PUSH1 0x1F ADD PUSH1 0x1F NOT AND DUP2 ADD SUB ADD SWAP3 GAS CALL SWAP1 DUP2 ISZERO PUSH2 0xAC7 JUMPI DUP3 SWAP2 PUSH2 0x125A JUMPI JUMPDEST POP ISZERO PUSH2 0x1225 JUMPI PUSH1 0x40 SWAP1 CALLER DUP2 MSTORE PUSH1 0xB DUP4 MSTORE KECCAK256 PUSH1 0x1 PUSH1 0xFF NOT DUP3 SLOAD AND OR SWAP1 SSTORE PUSH1 0x5 SLOAD PUSH1 0x40 MLOAD SWAP1 DUP2 MSTORE PUSH32 0x60B66827D6B8DC4C21C455EE1239C41DFFBC94E0604392A84CDEA38F8F76FD59 DUP3 CALLER SWAP3 LOG2 PUSH1 0x40 MLOAD PUSH1 0x1 DUP2 MSTORE RETURN JUMPDEST PUSH1 0x40 MLOAD PUSH3 0x461BCD PUSH1 0xE5 SHL DUP2 MSTORE PUSH1 0x4 DUP2 ADD DUP4 SWAP1 MSTORE PUSH1 0xD PUSH1 0x24 DUP3 ADD MSTORE PUSH13 0x34B73B30B634B210383937B7B3 PUSH1 0x99 SHL PUSH1 0x44 DUP3 ADD MSTORE PUSH1 0x64 SWAP1 REVERT JUMPDEST PUSH2 0x1271 SWAP2 POP DUP4 RETURNDATASIZE DUP6 GT PUSH2 0x825 JUMPI PUSH2 0x817 DUP2 DUP4 PUSH2 0x1361 JUMP JUMPDEST CODESIZE PUSH2 0x11D2 JUMP JUMPDEST PUSH1 0x40 MLOAD PUSH3 0x461BCD PUSH1 0xE5 SHL DUP2 MSTORE PUSH1 0x4 DUP2 ADD DUP7 SWAP1 MSTORE PUSH1 0xB PUSH1 0x24 DUP3 ADD MSTORE PUSH11 0x3737903B32B934B334B2B9 PUSH1 0xA9 SHL PUSH1 0x44 DUP3 ADD MSTORE PUSH1 0x64 SWAP1 REVERT JUMPDEST POP CALLVALUE PUSH2 0x19D JUMPI DUP1 PUSH1 0x3 NOT CALLDATASIZE ADD SLT PUSH2 0x19D JUMPI PUSH1 0x20 PUSH3 0xFFFFFF PUSH1 0x7 SLOAD PUSH1 0xA0 SHR AND PUSH1 0x40 MLOAD SWAP1 DUP2 MSTORE RETURN JUMPDEST SWAP1 POP CALLVALUE PUSH2 0xAD2 JUMPI DUP2 PUSH1 0x3 NOT CALLDATASIZE ADD SLT PUSH2 0xAD2 JUMPI PUSH1 0x2 SLOAD PUSH1 0x1 PUSH1 0x1 PUSH1 0xA0 SHL SUB AND DUP2 MSTORE PUSH1 0x20 SWAP1 RETURN JUMPDEST PUSH1 0x4 CALLDATALOAD SWAP1 PUSH1 0x1 PUSH1 0x1 PUSH1 0xA0 SHL SUB DUP3 AND DUP3 SUB PUSH2 0x86E JUMPI JUMP JUMPDEST PUSH1 0x0 SLOAD PUSH1 0x1 PUSH1 0x1 PUSH1 0xA0 SHL SUB AND CALLER SUB PUSH2 0x131F JUMPI JUMP JUMPDEST PUSH1 0x40 MLOAD PUSH4 0x118CDAA7 PUSH1 0xE0 SHL DUP2 MSTORE CALLER PUSH1 0x4 DUP3 ADD MSTORE PUSH1 0x24 SWAP1 REVERT JUMPDEST PUSH8 0xFFFFFFFFFFFFFFFF DUP2 GT PUSH2 0x134B JUMPI PUSH1 0x40 MSTORE JUMP JUMPDEST PUSH4 0x4E487B71 PUSH1 0xE0 SHL PUSH1 0x0 MSTORE PUSH1 0x41 PUSH1 0x4 MSTORE PUSH1 0x24 PUSH1 0x0 REVERT JUMPDEST SWAP1 PUSH1 0x1F DUP1 NOT SWAP2 ADD AND DUP2 ADD SWAP1 DUP2 LT PUSH8 0xFFFFFFFFFFFFFFFF DUP3 GT OR PUSH2 0x134B JUMPI PUSH1 0x40 MSTORE JUMP JUMPDEST SWAP1 DUP2 PUSH1 0x20 SWAP2 SUB SLT PUSH2 0x86E JUMPI MLOAD DUP1 ISZERO ISZERO DUP2 SUB PUSH2 0x86E JUMPI SWAP1 JUMP JUMPDEST ISZERO PUSH2 0x13A2 JUMPI JUMP JUMPDEST PUSH1 0x40 MLOAD PUSH3 0x461BCD PUSH1 0xE5 SHL DUP2 MSTORE PUSH1 0x20 PUSH1 0x4 DUP3 ADD MSTORE PUSH1 0x8 PUSH1 0x24 DUP3 ADD MSTORE PUSH8 0x616D6F756E743D3 PUSH1 0xC4 SHL PUSH1 0x44 DUP3 ADD MSTORE PUSH1 0x64 SWAP1 REVERT JUMPDEST SWAP1 DUP2 PUSH1 0x60 SWAP2 SUB SLT PUSH2 0x86E JUMPI DUP1 MLOAD PUSH1 0x20 DUP3 ADD MLOAD SWAP1 SWAP3 SWAP1 PUSH1 0x1 PUSH1 0x1 PUSH1 0xA0 SHL SUB DUP2 AND DUP2 SUB PUSH2 0x86E JUMPI PUSH1 0x40 SWAP1 SWAP3 ADD MLOAD SWAP1 JUMP JUMPDEST SWAP2 SWAP1 DUP3 ADD DUP1 SWAP3 GT PUSH2 0x140D JUMPI JUMP JUMPDEST PUSH4 0x4E487B71 PUSH1 0xE0 SHL PUSH1 0x0 MSTORE PUSH1 0x11 PUSH1 0x4 MSTORE PUSH1 0x24 PUSH1 0x0 REVERT JUMPDEST DUP2 DUP2 MUL SWAP3 SWAP2 DUP2 ISZERO SWAP2 DUP5 DIV EQ OR ISZERO PUSH2 0x140D JUMPI JUMP JUMPDEST ISZERO PUSH2 0x143D JUMPI JUMP JUMPDEST PUSH1 0x40 MLOAD PUSH3 0x461BCD PUSH1 0xE5 SHL DUP2 MSTORE PUSH1 0x20 PUSH1 0x4 DUP3 ADD MSTORE PUSH1 0x8 PUSH1 0x24 DUP3 ADD MSTORE PUSH8 0x696E616374697665 PUSH1 0xC0 SHL PUSH1 0x44 DUP3 ADD MSTORE PUSH1 0x64 SWAP1 REVERT JUMPDEST SWAP2 SWAP1 DUP3 SUB SWAP2 DUP3 GT PUSH2 0x140D JUMPI JUMP JUMPDEST PUSH1 0x6 SLOAD SWAP3 SWAP4 SWAP3 SWAP1 SWAP2 SWAP1 PUSH1 0x1 PUSH1 0x1 PUSH1 0xA0 SHL SUB AND DUP1 ISZERO PUSH2 0x18F4 JUMPI PUSH1 0x40 MLOAD PUSH4 0x95EA7B3 PUSH1 0xE0 SHL DUP2 MSTORE PUSH1 0x1 PUSH1 0x1 PUSH1 0xA0 SHL SUB SWAP2 DUP3 AND PUSH1 0x4 DUP3 ADD MSTORE PUSH1 0x24 DUP2 ADD DUP7 SWAP1 MSTORE PUSH1 0x0 SWAP6 SWAP4 SWAP3 SWAP2 PUSH1 0x20 SWAP1 DUP3 SWAP1 PUSH1 0x44 SWAP1 DUP3 SWAP1 DUP11 SWAP1 DUP8 AND GAS CALL DUP1 ISZERO PUSH2 0x7B6 JUMPI PUSH2 0x18D5 JUMPI JUMPDEST POP PUSH1 0x1 SLOAD PUSH1 0x40 MLOAD PUSH4 0x3A0DF78D PUSH1 0xE1 SHL DUP2 MSTORE SWAP1 PUSH1 0x20 SWAP1 DUP3 SWAP1 PUSH1 0x4 SWAP1 DUP3 SWAP1 PUSH1 0x1 PUSH1 0x1 PUSH1 0xA0 SHL SUB AND GAS STATICCALL SWAP1 DUP2 ISZERO PUSH2 0x7B6 JUMPI DUP7 SWAP2 PUSH2 0x18A6 JUMPI JUMPDEST POP PUSH1 0x40 MLOAD PUSH4 0x3FABE5A3 PUSH1 0xE2 SHL DUP2 MSTORE PUSH1 0x1 PUSH1 0x1 PUSH1 0xA0 SHL SUB SWAP2 SWAP1 SWAP2 AND SWAP1 PUSH1 0xA0 DUP2 PUSH1 0x4 DUP2 DUP6 GAS STATICCALL SWAP1 DUP2 ISZERO PUSH2 0x10B2 JUMPI DUP8 SWAP2 PUSH2 0x1873 JUMPI JUMPDEST POP PUSH2 0x154A DUP8 DUP3 SGT PUSH2 0x1968 JUMP JUMPDEST PUSH1 0x40 MLOAD SWAP2 PUSH1 0x20 DUP4 PUSH1 0x4 DUP2 PUSH4 0x313CE567 PUSH1 0xE0 SHL SWAP5 DUP6 DUP3 MSTORE GAS STATICCALL SWAP3 DUP4 ISZERO PUSH2 0x82C JUMPI DUP9 SWAP4 PUSH2 0x1852 JUMPI JUMPDEST POP PUSH1 0x40 MLOAD DUP2 DUP2 MSTORE SWAP1 PUSH1 0x20 DUP3 PUSH1 0x4 DUP2 PUSH1 0x1 PUSH1 0x1 PUSH1 0xA0 SHL SUB DUP10 AND GAS STATICCALL SWAP2 DUP3 ISZERO PUSH2 0x100D JUMPI DUP10 SWAP3 PUSH2 0x1831 JUMPI JUMPDEST POP PUSH1 0x7 SLOAD PUSH1 0x40 MLOAD SWAP2 DUP3 MSTORE SWAP4 PUSH1 0x20 DUP3 PUSH1 0x4 DUP2 PUSH1 0x1 PUSH1 0x1 PUSH1 0xA0 SHL SUB DUP10 AND GAS STATICCALL SWAP1 DUP2 ISZERO PUSH2 0x1826 JUMPI PUSH2 0x2710 SWAP5 PUSH2 0x1605 SWAP5 PUSH2 0x15FC SWAP5 DUP14 SWAP5 PUSH2 0x17E3 JUMPI JUMPDEST POP PUSH2 0x15EA PUSH2 0x15F6 SWAP3 PUSH2 0x15E3 PUSH2 0x15F0 SWAP4 PUSH2 0x19B9 JUMP JUMPDEST SWAP1 DUP14 PUSH2 0x19CA JUMP JUMPDEST SWAP4 PUSH2 0x19B9 JUMP JUMPDEST SWAP2 PUSH2 0x19B9 JUMP JUMPDEST SWAP2 PUSH2 0x19CA JUMP JUMPDEST PUSH1 0x8 SLOAD SWAP1 PUSH2 0x1423 JUMP JUMPDEST DIV PUSH2 0x12C TIMESTAMP ADD SWAP1 DUP2 TIMESTAMP GT PUSH2 0x17CF JUMPI PUSH1 0x40 MLOAD SWAP2 PUSH2 0x100 DUP4 ADD DUP4 DUP2 LT PUSH8 0xFFFFFFFFFFFFFFFF DUP3 GT OR PUSH2 0x17BB JUMPI SWAP1 PUSH1 0x20 SWAP4 SWAP3 SWAP2 PUSH1 0x40 MSTORE PUSH1 0x1 DUP1 PUSH1 0xA0 SHL SUB DUP7 AND DUP4 MSTORE PUSH1 0x1 DUP1 PUSH1 0xA0 SHL SUB DUP6 AND DUP5 DUP5 ADD MSTORE PUSH3 0xFFFFFF DUP1 SWAP6 PUSH1 0xA0 SHR AND PUSH1 0x40 DUP5 ADD MSTORE ADDRESS PUSH1 0x60 DUP5 ADD MSTORE PUSH1 0x80 DUP4 ADD MSTORE DUP7 PUSH1 0xA0 DUP4 ADD MSTORE PUSH1 0xC0 DUP3 ADD MSTORE DUP8 PUSH1 0xE0 DUP3 ADD MSTORE PUSH2 0x104 PUSH1 0x1 DUP1 PUSH1 0xA0 SHL SUB PUSH1 0x6 SLOAD AND SWAP4 DUP10 PUSH1 0x40 MLOAD SWAP6 DUP7 SWAP5 DUP6 SWAP4 PUSH4 0x414BF389 PUSH1 0xE0 SHL DUP6 MSTORE PUSH1 0x1 DUP1 PUSH1 0xA0 SHL SUB DUP3 MLOAD AND PUSH1 0x4 DUP7 ADD MSTORE PUSH1 0x1 DUP1 PUSH1 0xA0 SHL SUB DUP9 DUP4 ADD MLOAD AND PUSH1 0x24 DUP7 ADD MSTORE PUSH1 0x40 DUP3 ADD MLOAD AND PUSH1 0x44 DUP6 ADD MSTORE PUSH1 0x1 DUP1 PUSH1 0xA0 SHL SUB PUSH1 0x60 DUP3 ADD MLOAD AND PUSH1 0x64 DUP6 ADD MSTORE PUSH1 0x80 DUP2 ADD MLOAD PUSH1 0x84 DUP6 ADD MSTORE PUSH1 0xA0 DUP2 ADD MLOAD PUSH1 0xA4 DUP6 ADD MSTORE PUSH1 0xC0 DUP2 ADD MLOAD PUSH1 0xC4 DUP6 ADD MSTORE PUSH1 0xE0 PUSH1 0x1 DUP1 PUSH1 0xA0 SHL SUB SWAP2 ADD MLOAD AND PUSH1 0xE4 DUP5 ADD MSTORE GAS CALL SWAP6 DUP7 ISZERO PUSH2 0x17AF JUMPI DUP1 SWAP7 PUSH2 0x1757 JUMPI JUMPDEST POP POP PUSH1 0x40 PUSH32 0xDE2F91861847A1451D81A38725E38C8A517405DB456A0D947E7AC3CFA6C0AAF7 SWAP2 DUP7 DUP3 MLOAD SWAP6 DUP7 MSTORE PUSH1 0x20 DUP7 ADD MSTORE PUSH1 0x1 DUP1 PUSH1 0xA0 SHL SUB AND SWAP4 LOG3 JUMP JUMPDEST SWAP1 SWAP2 SWAP6 POP PUSH1 0x20 DUP3 RETURNDATASIZE PUSH1 0x20 GT PUSH2 0x17A7 JUMPI JUMPDEST DUP2 PUSH2 0x1774 PUSH1 0x20 SWAP4 DUP4 PUSH2 0x1361 JUMP JUMPDEST DUP2 ADD SUB SLT PUSH2 0x19D JUMPI POP MLOAD SWAP4 PUSH1 0x40 PUSH32 0xDE2F91861847A1451D81A38725E38C8A517405DB456A0D947E7AC3CFA6C0AAF7 PUSH2 0x171A JUMP JUMPDEST RETURNDATASIZE SWAP2 POP PUSH2 0x1767 JUMP JUMPDEST PUSH1 0x40 MLOAD SWAP1 RETURNDATASIZE SWAP1 DUP3 RETURNDATACOPY RETURNDATASIZE SWAP1 REVERT JUMPDEST PUSH4 0x4E487B71 PUSH1 0xE0 SHL DUP11 MSTORE PUSH1 0x41 PUSH1 0x4 MSTORE PUSH1 0x24 DUP11 REVERT JUMPDEST PUSH4 0x4E487B71 PUSH1 0xE0 SHL DUP9 MSTORE PUSH1 0x11 PUSH1 0x4 MSTORE PUSH1 0x24 DUP9 REVERT JUMPDEST PUSH2 0x15F0 SWAP2 SWAP5 POP PUSH2 0x15F6 SWAP3 PUSH2 0x15E3 PUSH2 0x1814 PUSH2 0x15EA SWAP4 PUSH1 0x20 RETURNDATASIZE PUSH1 0x20 GT PUSH2 0x181F JUMPI JUMPDEST PUSH2 0x180C DUP2 DUP4 PUSH2 0x1361 JUMP JUMPDEST DUP2 ADD SWAP1 PUSH2 0x19A0 JUMP JUMPDEST SWAP7 SWAP4 POP POP SWAP3 POP PUSH2 0x15CF JUMP JUMPDEST POP RETURNDATASIZE PUSH2 0x1802 JUMP JUMPDEST PUSH1 0x40 MLOAD RETURNDATASIZE DUP13 DUP3 RETURNDATACOPY RETURNDATASIZE SWAP1 REVERT JUMPDEST PUSH2 0x184B SWAP2 SWAP3 POP PUSH1 0x20 RETURNDATASIZE PUSH1 0x20 GT PUSH2 0x181F JUMPI PUSH2 0x180C DUP2 DUP4 PUSH2 0x1361 JUMP JUMPDEST SWAP1 CODESIZE PUSH2 0x1598 JUMP JUMPDEST PUSH2 0x186C SWAP2 SWAP4 POP PUSH1 0x20 RETURNDATASIZE PUSH1 0x20 GT PUSH2 0x181F JUMPI PUSH2 0x180C DUP2 DUP4 PUSH2 0x1361 JUMP JUMPDEST SWAP2 CODESIZE PUSH2 0x1570 JUMP JUMPDEST PUSH2 0x1894 SWAP2 POP PUSH1 0xA0 RETURNDATASIZE DUP2 GT PUSH2 0x189F JUMPI JUMPDEST PUSH2 0x188C DUP2 DUP4 PUSH2 0x1361 JUMP JUMPDEST DUP2 ADD SWAP1 PUSH2 0x1933 JUMP JUMPDEST POP POP POP SWAP1 POP CODESIZE PUSH2 0x153E JUMP JUMPDEST POP RETURNDATASIZE PUSH2 0x1882 JUMP JUMPDEST PUSH2 0x18C8 SWAP2 POP PUSH1 0x20 RETURNDATASIZE PUSH1 0x20 GT PUSH2 0x18CE JUMPI JUMPDEST PUSH2 0x18C0 DUP2 DUP4 PUSH2 0x1361 JUMP JUMPDEST DUP2 ADD SWAP1 PUSH2 0x18FD JUMP JUMPDEST CODESIZE PUSH2 0x150C JUMP JUMPDEST POP RETURNDATASIZE PUSH2 0x18B6 JUMP JUMPDEST PUSH2 0x18ED SWAP1 PUSH1 0x20 RETURNDATASIZE PUSH1 0x20 GT PUSH2 0x825 JUMPI PUSH2 0x817 DUP2 DUP4 PUSH2 0x1361 JUMP JUMPDEST POP CODESIZE PUSH2 0x14D7 JUMP JUMPDEST POP PUSH1 0x0 SWAP4 POP POP POP JUMP JUMPDEST SWAP1 DUP2 PUSH1 0x20 SWAP2 SUB SLT PUSH2 0x86E JUMPI MLOAD PUSH1 0x1 PUSH1 0x1 PUSH1 0xA0 SHL SUB DUP2 AND DUP2 SUB PUSH2 0x86E JUMPI SWAP1 JUMP JUMPDEST MLOAD SWAP1 PUSH10 0xFFFFFFFFFFFFFFFFFFFF DUP3 AND DUP3 SUB PUSH2 0x86E JUMPI JUMP JUMPDEST SWAP1 DUP2 PUSH1 0xA0 SWAP2 SUB SLT PUSH2 0x86E JUMPI PUSH2 0x1947 DUP2 PUSH2 0x191C JUMP JUMPDEST SWAP2 PUSH1 0x20 DUP3 ADD MLOAD SWAP2 PUSH1 0x40 DUP2 ADD MLOAD SWAP2 PUSH2 0x1965 PUSH1 0x80 PUSH1 0x60 DUP5 ADD MLOAD SWAP4 ADD PUSH2 0x191C JUMP JUMPDEST SWAP1 JUMP JUMPDEST ISZERO PUSH2 0x196F JUMPI JUMP JUMPDEST PUSH1 0x40 MLOAD PUSH3 0x461BCD PUSH1 0xE5 SHL DUP2 MSTORE PUSH1 0x20 PUSH1 0x4 DUP3 ADD MSTORE PUSH1 0x9 PUSH1 0x24 DUP3 ADD MSTORE PUSH9 0x626164207072696365 PUSH1 0xB8 SHL PUSH1 0x44 DUP3 ADD MSTORE PUSH1 0x64 SWAP1 REVERT JUMPDEST SWAP1 DUP2 PUSH1 0x20 SWAP2 SUB SLT PUSH2 0x86E JUMPI MLOAD PUSH1 0xFF DUP2 AND DUP2 SUB PUSH2 0x86E JUMPI SWAP1 JUMP JUMPDEST PUSH1 0xFF AND PUSH1 0x4D DUP2 GT PUSH2 0x140D JUMPI PUSH1 0xA EXP SWAP1 JUMP JUMPDEST SWAP1 SWAP2 PUSH1 0x0 NOT DUP4 DUP4 MULMOD SWAP3 DUP1 DUP4 MUL SWAP3 DUP4 DUP1 DUP7 LT SWAP6 SUB SWAP5 DUP1 DUP7 SUB SWAP6 EQ PUSH2 0x1A5A JUMPI DUP5 DUP4 GT ISZERO PUSH2 0x1A41 JUMPI SWAP1 DUP3 SWAP2 MULMOD DUP2 PUSH1 0x0 SUB DUP3 AND DUP1 SWAP3 DIV PUSH1 0x2 DUP1 DUP3 PUSH1 0x3 MUL XOR DUP1 DUP4 MUL DUP3 SUB MUL DUP1 DUP4 MUL DUP3 SUB MUL DUP1 DUP4 MUL DUP3 SUB MUL DUP1 DUP4 MUL DUP3 SUB MUL DUP1 DUP4 MUL DUP3 SUB MUL DUP1 SWAP3 MUL SWAP1 SUB MUL SWAP4 PUSH1 0x1 DUP4 DUP1 PUSH1 0x0 SUB DIV ADD SWAP1 DUP5 DUP4 GT SWAP1 SUB MUL SWAP3 SUB DIV OR MUL SWAP1 JUMP JUMPDEST DUP3 PUSH4 0x4E487B71 PUSH1 0x0 MSTORE ISZERO PUSH1 0x3 MUL PUSH1 0x11 XOR PUSH1 0x20 MSTORE PUSH1 0x24 PUSH1 0x1C REVERT JUMPDEST POP POP DUP1 SWAP3 POP ISZERO PUSH2 0x1A68 JUMPI DIV SWAP1 JUMP JUMPDEST PUSH4 0x4E487B71 PUSH1 0xE0 SHL PUSH1 0x0 MSTORE PUSH1 0x12 PUSH1 0x4 MSTORE PUSH1 0x24 PUSH1 0x0 REVERT JUMPDEST PUSH1 0x7 SLOAD SWAP2 SWAP3 SWAP2 PUSH1 0x1 PUSH1 0x1 PUSH1 0xA0 SHL SUB SWAP2 DUP3 AND SWAP1 DUP3 AND DUP2 DUP2 EQ PUSH2 0x1C5F JUMPI DUP3 PUSH1 0x1 SLOAD AND SWAP3 PUSH1 0x40 SWAP1 DUP2 MLOAD DUP1 SWAP6 PUSH4 0x3A0DF78D PUSH1 0xE1 SHL DUP3 MSTORE DUP2 PUSH1 0x4 PUSH1 0x20 SWAP9 DUP10 SWAP4 GAS STATICCALL SWAP1 DUP2 ISZERO PUSH2 0x1C37 JUMPI PUSH1 0x0 SWAP2 PUSH2 0x1C42 JUMPI JUMPDEST POP AND SWAP2 DUP2 MLOAD SWAP5 PUSH4 0x3FABE5A3 PUSH1 0xE2 SHL DUP7 MSTORE PUSH1 0xA0 DUP7 PUSH1 0x4 DUP2 DUP8 GAS STATICCALL SWAP6 DUP7 ISZERO PUSH2 0x1C37 JUMPI PUSH1 0x0 SWAP7 PUSH2 0x1C12 JUMPI JUMPDEST POP PUSH2 0x1AFE PUSH1 0x0 DUP8 SGT PUSH2 0x1968 JUMP JUMPDEST DUP3 MLOAD SWAP4 DUP2 DUP6 PUSH1 0x4 DUP2 PUSH4 0x313CE567 PUSH1 0xE0 SHL SWAP5 DUP6 DUP3 MSTORE GAS STATICCALL SWAP5 DUP6 ISZERO PUSH2 0x1C07 JUMPI PUSH1 0x0 SWAP6 PUSH2 0x1BE3 JUMPI JUMPDEST POP DUP2 DUP5 SWAP6 SWAP7 PUSH1 0x4 SWAP6 MLOAD SWAP6 DUP7 DUP1 SWAP3 DUP6 DUP3 MSTORE GAS STATICCALL SWAP4 DUP5 ISZERO PUSH2 0x1BD8 JUMPI PUSH1 0x0 SWAP5 PUSH2 0x1BB7 JUMPI JUMPDEST POP DUP2 SWAP1 PUSH1 0x4 DUP7 MLOAD DUP1 SWAP6 DUP2 SWAP4 DUP3 MSTORE GAS STATICCALL SWAP4 DUP5 ISZERO PUSH2 0x1BAD JUMPI POP SWAP3 PUSH2 0x15F0 SWAP3 PUSH2 0x1965 SWAP8 SWAP9 SWAP3 PUSH2 0x1B80 SWAP6 PUSH1 0x0 SWAP4 PUSH2 0x1B86 JUMPI JUMPDEST POP POP PUSH2 0x15F0 PUSH2 0x15F6 SWAP2 PUSH2 0x19B9 JUMP JUMPDEST SWAP1 PUSH2 0x19CA JUMP JUMPDEST PUSH2 0x15F6 SWAP3 SWAP4 POP PUSH2 0x15F0 SWAP2 DUP2 PUSH2 0x1BA6 SWAP3 SWAP1 RETURNDATASIZE LT PUSH2 0x181F JUMPI PUSH2 0x180C DUP2 DUP4 PUSH2 0x1361 JUMP JUMPDEST SWAP3 SWAP2 PUSH2 0x1B72 JUMP JUMPDEST MLOAD RETURNDATASIZE PUSH1 0x0 DUP3 RETURNDATACOPY RETURNDATASIZE SWAP1 REVERT JUMPDEST DUP3 SWAP2 SWAP5 POP PUSH2 0x1BD1 SWAP1 DUP3 RETURNDATASIZE DUP5 GT PUSH2 0x181F JUMPI PUSH2 0x180C DUP2 DUP4 PUSH2 0x1361 JUMP JUMPDEST SWAP4 SWAP1 PUSH2 0x1B44 JUMP JUMPDEST DUP6 MLOAD RETURNDATASIZE PUSH1 0x0 DUP3 RETURNDATACOPY RETURNDATASIZE SWAP1 REVERT JUMPDEST PUSH1 0x4 SWAP5 SWAP6 POP PUSH2 0x1BFF DUP4 SWAP2 DUP3 RETURNDATASIZE DUP5 GT PUSH2 0x181F JUMPI PUSH2 0x180C DUP2 DUP4 PUSH2 0x1361 JUMP JUMPDEST SWAP6 SWAP5 POP PUSH2 0x1B23 JUMP JUMPDEST DUP5 MLOAD RETURNDATASIZE PUSH1 0x0 DUP3 RETURNDATACOPY RETURNDATASIZE SWAP1 REVERT JUMPDEST PUSH2 0x1C2B SWAP2 SWAP7 POP PUSH1 0xA0 RETURNDATASIZE DUP2 GT PUSH2 0x189F JUMPI PUSH2 0x188C DUP2 DUP4 PUSH2 0x1361 JUMP JUMPDEST POP POP POP SWAP1 POP SWAP5 CODESIZE PUSH2 0x1AF1 JUMP JUMPDEST DUP4 MLOAD RETURNDATASIZE PUSH1 0x0 DUP3 RETURNDATACOPY RETURNDATASIZE SWAP1 REVERT JUMPDEST PUSH2 0x1C59 SWAP2 POP DUP7 RETURNDATASIZE DUP9 GT PUSH2 0x18CE JUMPI PUSH2 0x18C0 DUP2 DUP4 PUSH2 0x1361 JUMP JUMPDEST CODESIZE PUSH2 0x1AC9 JUMP JUMPDEST POP POP POP JUMP INVALID LOG2 PUSH5 0x6970667358 0x22 SLT KECCAK256 CALL SWAP4 SWAP6 CODECOPY BALANCE 0xC8 SWAP13 0x5D LOG4 ADDMOD 0x4F 0xF6 0xC2 0xAF PUSH27 0x4CBEE40DB858640F72B1AD131F5410A6E164736F6C634300081400 CALLER "},"gasEstimates":{"creation":{"codeDepositCost":"1464400","executionCost":"infinite","totalCost":"infinite"},"external":{"BPS_DENOMINATOR()":"559","adapter()":"2279","createLoan(uint256,address,uint256)":"infinite","identityBoostBps()":"2552","identityLinked(address)":"2875","identityVerifier()":"2664","linkIdentity(bytes)":"infinite","liquidationSlippageBps()":"2442","loanCount()":"2618","loans(uint256)":"13415","owner()":"2551","pool()":"2356","poolFee()":"2300","renounceOwnership()":"28263","repayLoan(uint256,uint256)":"infinite","setIdentityConfig(address,uint256)":"50251","setLiquidationConfig(address,uint24,uint256)":"75039","settleAtUnlock(uint256)":"infinite","transferOwnership(address)":"28632","uniswapRouter()":"2510","usdc()":"2422","valuation()":"2400"},"internal":{"_calculateSeizeAmount(address,uint256)":"infinite","_liquidate(uint256,address,uint256)":"infinite","_minUsdcOut(address,uint256)":"infinite"}},"methodIdentifiers":{"BPS_DENOMINATOR()":"e1a45218","adapter()":"03eadcfc","createLoan(uint256,address,uint256)":"1b15cee6","identityBoostBps()":"9ffb8606","identityLinked(address)":"e640b814","identityVerifier()":"dfd572a0","linkIdentity(bytes)":"0bf7187d","liquidationSlippageBps()":"5bb49626","loanCount()":"ce63094d","loans(uint256)":"e1ec3c68","owner()":"8da5cb5b","pool()":"16f0115b","poolFee()":"089fe6aa","renounceOwnership()":"715018a6","repayLoan(uint256,uint256)":"8a700b53","setIdentityConfig(address,uint256)":"4651e789","setLiquidationConfig(address,uint24,uint256)":"c8394b1d","settleAtUnlock(uint256)":"b123cb74","transferOwnership(address)":"f2fde38b","uniswapRouter()":"735de9f7","usdc()":"3e413bee","valuation()":"21a7cfe4"}},"storageLayout":{"storage":[{"astId":54,"contract":"contracts/LoanManager.sol:LoanManager","label":"_owner","offset":0,"slot":"0","type":"t_address"},{"astId":7796,"contract":"contracts/LoanManager.sol:LoanManager","label":"valuation","offset":0,"slot":"1","type":"t_contract(ValuationEngine)9130"},{"astId":7799,"contract":"contracts/LoanManager.sol:LoanManager","label":"adapter","offset":0,"slot":"2","type":"t_contract(VestingAdapter)9541"},{"astId":7802,"contract":"contracts/LoanManager.sol:LoanManager","label":"pool","offset":0,"slot":"3","type":"t_contract(LendingPool)7770"},{"astId":7804,"contract":"contracts/LoanManager.sol:LoanManager","label":"identityVerifier","offset":0,"slot":"4","type":"t_address"},{"astId":7806,"contract":"contracts/LoanManager.sol:LoanManager","label":"identityBoostBps","offset":0,"slot":"5","type":"t_uint256"},{"astId":7809,"contract":"contracts/LoanManager.sol:LoanManager","label":"uniswapRouter","offset":0,"slot":"6","type":"t_contract(ISwapRouter)4618"},{"astId":7812,"contract":"contracts/LoanManager.sol:LoanManager","label":"usdc","offset":0,"slot":"7","type":"t_contract(IERC20)923"},{"astId":7814,"contract":"contracts/LoanManager.sol:LoanManager","label":"poolFee","offset":20,"slot":"7","type":"t_uint24"},{"astId":7816,"contract":"contracts/LoanManager.sol:LoanManager","label":"liquidationSlippageBps","offset":0,"slot":"8","type":"t_uint256"},{"astId":7837,"contract":"contracts/LoanManager.sol:LoanManager","label":"loans","offset":0,"slot":"9","type":"t_mapping(t_uint256,t_struct(Loan)7832_storage)"},{"astId":7839,"contract":"contracts/LoanManager.sol:LoanManager","label":"loanCount","offset":0,"slot":"10","type":"t_uint256"},{"astId":7843,"contract":"contracts/LoanManager.sol:LoanManager","label":"identityLinked","offset":0,"slot":"11","type":"t_mapping(t_address,t_bool)"}],"types":{"t_address":{"encoding":"inplace","label":"address","numberOfBytes":"20"},"t_bool":{"encoding":"inplace","label":"bool","numberOfBytes":"1"},"t_contract(IERC20)923":{"encoding":"inplace","label":"contract IERC20","numberOfBytes":"20"},"t_contract(ISwapRouter)4618":{"encoding":"inplace","label":"contract ISwapRouter","numberOfBytes":"20"},"t_contract(LendingPool)7770":{"encoding":"inplace","label":"contract LendingPool","numberOfBytes":"20"},"t_contract(ValuationEngine)9130":{"encoding":"inplace","label":"contract ValuationEngine","numberOfBytes":"20"},"t_contract(VestingAdapter)9541":{"encoding":"inplace","label":"contract VestingAdapter","numberOfBytes":"20"},"t_mapping(t_address,t_bool)":{"encoding":"mapping","key":"t_address","label":"mapping(address => bool)","numberOfBytes":"32","value":"t_bool"},"t_mapping(t_uint256,t_struct(Loan)7832_storage)":{"encoding":"mapping","key":"t_uint256","label":"mapping(uint256 => struct LoanManager.Loan)","numberOfBytes":"32","value":"t_struct(Loan)7832_storage"},"t_struct(Loan)7832_storage":{"encoding":"inplace","label":"struct LoanManager.Loan","members":[{"astId":7821,"contract":"contracts/LoanManager.sol:LoanManager","label":"borrower","offset":0,"slot":"0","type":"t_address"},{"astId":7823,"contract":"contracts/LoanManager.sol:LoanManager","label":"principal","offset":0,"slot":"1","type":"t_uint256"},{"astId":7825,"contract":"contracts/LoanManager.sol:LoanManager","label":"interest","offset":0,"slot":"2","type":"t_uint256"},{"astId":7827,"contract":"contracts/LoanManager.sol:LoanManager","label":"collateralId","offset":0,"slot":"3","type":"t_uint256"},{"astId":7829,"contract":"contracts/LoanManager.sol:LoanManager","label":"unlockTime","offset":0,"slot":"4","type":"t_uint256"},{"astId":7831,"contract":"contracts/LoanManager.sol:LoanManager","label":"active","offset":0,"slot":"5","type":"t_bool"}],"numberOfBytes":"192"},"t_uint24":{"encoding":"inplace","label":"uint24","numberOfBytes":"3"},"t_uint256":{"encoding":"inplace","label":"uint256","numberOfBytes":"32"}}},"userdoc":{"kind":"user","methods":{},"version":1}}}}