{"contracts/mocks/MockPriceFeed.sol":{"MockPriceFeed":{"abi":[{"inputs":[],"stateMutability":"nonpayable","type":"constructor"},{"inputs":[],"name":"decimals","outputs":[{"internalType":"uint8","name":"","type":"uint8"}],"stateMutability":"view","type":"function"},{"inputs":[],"name":"latestRoundData","outputs":[{"internalType":"uint80","name":"","type":"uint80"},{"internalType":"int256","name":"","type":"int256"},{"internalType":"uint256","name":"","type":"uint256"},{"internalType":"uint256","name":"","type":"uint256"},{"internalType":"uint80","name":"","type":"uint80"}],"stateMutability":"view","type":"function"},{"inputs":[{"internalType":"int256","name":"newPrice","type":"int256"}],"name":"setPrice","outputs":[],"stateMutability":"nonpayable","type":"function"}],"devdoc":{"kind":"dev","methods":{},"version":1},"evm":{"bytecode":{"linkReferences":{},"object":"6080806040523461002b57642e90edd000600055600860ff19600154161760015560e390816100318239f35b600080fdfe6080806040526004361015601257600080fd5b600090813560e01c908163313ce56714608c57508063f7a308061460745763feaf968c14603e57600080fd5b34607157806003193601126071578060a09154906040519181835260208301528060408301528060608301526080820152f35b80fd5b50346071576020366003190112607157600435815580f35b90503460a9578160031936011260a95760209060ff600154168152f35b5080fdfea2646970667358221220092c748ac8c25639c051cb68c3bb56a454217afc8d4a60ea310a4e501ceb86bd64736f6c63430008140033","opcodes":"PUSH1 0x80 DUP1 PUSH1 0x40 MSTORE CALLVALUE PUSH2 0x2B JUMPI PUSH5 0x2E90EDD000 PUSH1 0x0 SSTORE PUSH1 0x8 PUSH1 0xFF NOT PUSH1 0x1 SLOAD AND OR PUSH1 0x1 SSTORE PUSH1 0xE3 SWAP1 DUP2 PUSH2 0x31 DUP3 CODECOPY RETURN JUMPDEST PUSH1 0x0 DUP1 REVERT INVALID PUSH1 0x80 DUP1 PUSH1 0x40 MSTORE PUSH1 0x4 CALLDATASIZE LT ISZERO PUSH1 0x12 JUMPI PUSH1 0x0 DUP1 REVERT JUMPDEST PUSH1 0x0 SWAP1 DUP2 CALLDATALOAD PUSH1 0xE0 SHR SWAP1 DUP2 PUSH4 0x313CE567 EQ PUSH1 0x8C JUMPI POP DUP1 PUSH4 0xF7A30806 EQ PUSH1 0x74 JUMPI PUSH4 0xFEAF968C EQ PUSH1 0x3E JUMPI PUSH1 0x0 DUP1 REVERT JUMPDEST CALLVALUE PUSH1 0x71 JUMPI DUP1 PUSH1 0x3 NOT CALLDATASIZE ADD SLT PUSH1 0x71 JUMPI DUP1 PUSH1 0xA0 SWAP2 SLOAD SWAP1 PUSH1 0x40 MLOAD SWAP2 DUP2 DUP4 MSTORE PUSH1 0x20 DUP4 ADD MSTORE DUP1 PUSH1 0x40 DUP4 ADD MSTORE DUP1 PUSH1 0x60 DUP4 ADD MSTORE PUSH1 0x80 DUP3 ADD MSTORE RETURN JUMPDEST DUP1 REVERT JUMPDEST POP CALLVALUE PUSH1 0x71 JUMPI PUSH1 0x20 CALLDATASIZE PUSH1 0x3 NOT ADD SLT PUSH1 0x71 JUMPI PUSH1 0x4 CALLDATALOAD DUP2 SSTORE DUP1 RETURN JUMPDEST SWAP1 POP CALLVALUE PUSH1 0xA9 JUMPI DUP2 PUSH1 0x3 NOT CALLDATASIZE ADD SLT PUSH1 0xA9 JUMPI PUSH1 0x20 SWAP1 PUSH1 0xFF PUSH1 0x1 SLOAD AND DUP2 MSTORE RETURN JUMPDEST POP DUP1 REVERT INVALID LOG2 PUSH5 0x6970667358 0x22 SLT KECCAK256 MULMOD 0x2C PUSH21 0x8AC8C25639C051CB68C3BB56A454217AFC8D4A60EA BALANCE EXP 0x4E POP SHR 0xEB DUP7 0xBD PUSH5 0x736F6C6343 STOP ADDMOD EQ STOP CALLER "},"gasEstimates":{"creation":{"codeDepositCost":"45400","executionCost":"46432","totalCost":"91832"},"external":{"decimals()":"2267","latestRoundData()":"2380","setPrice(int256)":"22273"}},"methodIdentifiers":{"decimals()":"313ce567","latestRoundData()":"feaf968c","setPrice(int256)":"f7a30806"}},"storageLayout":{"storage":[{"astId":9545,"contract":"contracts/mocks/MockPriceFeed.sol:MockPriceFeed","label":"price","offset":0,"slot":"0","type":"t_int256"},{"astId":9547,"contract":"contracts/mocks/MockPriceFeed.sol:MockPriceFeed","label":"decimalsValue","offset":0,"slot":"1","type":"t_uint8"}],"types":{"t_int256":{"encoding":"inplace","label":"int256","numberOfBytes":"32"},"t_uint8":{"encoding":"inplace","label":"uint8","numberOfBytes":"1"}}},"userdoc":{"kind":"user","methods":{},"version":1}}}}