{"contracts/LendingPool.sol":{"LendingPool":{"abi":[{"inputs":[{"internalType":"address","name":"_usdc","type":"address"}],"stateMutability":"nonpayable","type":"constructor"},{"inputs":[{"internalType":"address","name":"owner","type":"address"}],"name":"OwnableInvalidOwner","type":"error"},{"inputs":[{"internalType":"address","name":"account","type":"address"}],"name":"OwnableUnauthorizedAccount","type":"error"},{"inputs":[],"name":"ReentrancyGuardReentrantCall","type":"error"},{"anonymous":false,"inputs":[{"indexed":true,"internalType":"address","name":"previousOwner","type":"address"},{"indexed":true,"internalType":"address","name":"newOwner","type":"address"}],"name":"OwnershipTransferred","type":"event"},{"inputs":[],"name":"BPS_DENOMINATOR","outputs":[{"internalType":"uint256","name":"","type":"uint256"}],"stateMutability":"view","type":"function"},{"inputs":[],"name":"availableLiquidity","outputs":[{"internalType":"uint256","name":"","type":"uint256"}],"stateMutability":"view","type":"function"},{"inputs":[{"internalType":"uint256","name":"amount","type":"uint256"}],"name":"deposit","outputs":[],"stateMutability":"nonpayable","type":"function"},{"inputs":[{"internalType":"address","name":"","type":"address"}],"name":"deposits","outputs":[{"internalType":"uint256","name":"","type":"uint256"}],"stateMutability":"view","type":"function"},{"inputs":[],"name":"getInterestRateBps","outputs":[{"internalType":"uint256","name":"","type":"uint256"}],"stateMutability":"view","type":"function"},{"inputs":[{"internalType":"address","name":"to","type":"address"},{"internalType":"uint256","name":"amount","type":"uint256"}],"name":"lend","outputs":[],"stateMutability":"nonpayable","type":"function"},{"inputs":[],"name":"loanManager","outputs":[{"internalType":"address","name":"","type":"address"}],"stateMutability":"view","type":"function"},{"inputs":[],"name":"owner","outputs":[{"internalType":"address","name":"","type":"address"}],"stateMutability":"view","type":"function"},{"inputs":[],"name":"renounceOwnership","outputs":[],"stateMutability":"nonpayable","type":"function"},{"inputs":[{"internalType":"uint256","name":"amount","type":"uint256"}],"name":"repay","outputs":[],"stateMutability":"nonpayable","type":"function"},{"inputs":[{"internalType":"address","name":"manager","type":"address"}],"name":"setLoanManager","outputs":[],"stateMutability":"nonpayable","type":"function"},{"inputs":[],"name":"totalBorrowed","outputs":[{"internalType":"uint256","name":"","type":"uint256"}],"stateMutability":"view","type":"function"},{"inputs":[],"name":"totalDeposits","outputs":[{"internalType":"uint256","name":"","type":"uint256"}],"stateMutability":"view","type":"function"},{"inputs":[{"internalType":"address","name":"newOwner","type":"address"}],"name":"transferOwnership","outputs":[],"stateMutability":"nonpayable","type":"function"},{"inputs":[],"name":"usdc","outputs":[{"internalType":"contract IERC20","name":"","type":"address"}],"stateMutability":"view","type":"function"},{"inputs":[],"name":"utilizationRateBps","outputs":[{"internalType":"uint256","name":"","type":"uint256"}],"stateMutability":"view","type":"function"},{"inputs":[{"internalType":"uint256","name":"amount","type":"uint256"}],"name":"withdraw","outputs":[],"stateMutability":"nonpayable","type":"function"}],"devdoc":{"errors":{"OwnableInvalidOwner(address)":[{"details":"The owner is not a valid owner account. (eg. `address(0)`)"}],"OwnableUnauthorizedAccount(address)":[{"details":"The caller account is not authorized to perform an operation."}],"ReentrancyGuardReentrantCall()":[{"details":"Unauthorized reentrant call."}]},"kind":"dev","methods":{"owner()":{"details":"Returns the address of the current owner."},"renounceOwnership()":{"details":"Leaves the contract without owner. It will not be possible to call `onlyOwner` functions. Can only be called by the current owner. NOTE: Renouncing ownership will leave the contract without an owner, thereby disabling any functionality that is only available to the owner."},"transferOwnership(address)":{"details":"Transfers ownership of the contract to a new account (`newOwner`). Can only be called by the current owner."}},"version":1},"evm":{"bytecode":{"linkReferences":{},"object":"6080346100cd57601f610ab838819003918201601f19168301916001600160401b038311848410176100d2578084926020946040528339810103126100cd57516001600160a01b0390818116908190036100cd57600160005533156100b45760018054336001600160a01b03198083168217909355604051949091167f8be0079c531659141344cd1fd0a4f28419497f9722a3daafe3b4186f6b6457e0600080a360025416176002556109cf90816100e98239f35b604051631e4fbdf760e01b815260006004820152602490fd5b600080fd5b634e487b7160e01b600052604160045260246000fdfe6040608081526004908136101561001557600080fd5b600091823560e01c90816303d98c1f1461076f5781632e1a7d4d14610636578163371fd8e6146105a75781633e413bee1461057e5781634c19386c1461055f5781635772ae70146104e0578163715018a61461048057816374375359146104555781637d882097146104365781638da5cb5b1461040d578163a2fb342d14610316578163b3ccbcfe146102ed57838263b6b55f251461020c57508163e1a45218146101ef578163f2fde38b1461015f578163fc7e286d14610125575063ff3ac264146100e057600080fd5b346101215781600319360112610121576020916113886100fe61096f565b111590506101155761ffff6103e8915b5191168152f35b61ffff6101f49161010e565b5080fd5b90503461015b57602036600319011261015b5760209282916001600160a01b0361014d61078c565b168252845220549051908152f35b8280fd5b90503461015b57602036600319011261015b5761017a61078c565b906101836107a7565b6001600160a01b039182169283156101d9575050600154826bffffffffffffffffffffffff60a01b821617600155167f8be0079c531659141344cd1fd0a4f28419497f9722a3daafe3b4186f6b6457e08380a380f35b51631e4fbdf760e01b8152908101849052602490fd5b505034610121578160031936011261012157602090516127108152f35b809184346102e95760203660031901126102e95781359161022b6108bb565b6102368315156107d3565b60025482516323b872dd60e01b81523383820152306024820152604481018590529460209186916064918391906001600160a01b03165af19384156102df576102a79461028a9187916102b1575b5061085a565b338552602052832061029d828254610898565b9055600554610898565b6005556001815580f35b6102d2915060203d81116102d8575b6102ca818361080a565b810190610842565b87610284565b503d6102c0565b82513d87823e3d90fd5b5050fd5b50503461012157816003193601126101215760035490516001600160a01b039091168152602090f35b90503461015b578160031936011261015b5760206103c09161033661078c565b90602435916103436108bb565b8660018060a01b0361035a81600354163314610930565b6103658515156107d3565b610389856005546103848261037d6006548094610923565b10156108de565b610898565b600655600254169287519687958694859363a9059cbb60e01b8552840160209093929193604081019460018060a01b031681520152565b03925af1908115610401576103dc925083916103e3575061085a565b6001815580f35b6103fb915060203d81116102d8576102ca818361080a565b38610284565b505051903d90823e3d90fd5b50503461012157816003193601126101215760015490516001600160a01b039091168152602090f35b5050346101215781600319360112610121576020906005549051908152f35b50503461012157816003193601126101215760209061047960055460065490610923565b9051908152f35b83346104dd57806003193601126104dd576104996107a7565b600180546001600160a01b0319811690915581906001600160a01b03167f8be0079c531659141344cd1fd0a4f28419497f9722a3daafe3b4186f6b6457e08280a380f35b80fd5b90503461015b57602036600319011261015b576104fb61078c565b6105036107a7565b6001600160a01b03169182156105305750506bffffffffffffffffffffffff60a01b600354161760035580f35b906020606492519162461bcd60e51b8352820152600960248201526806d616e616765723d360bc1b6044820152fd5b5050346101215781600319360112610121576020906006549051908152f35b50503461012157816003193601126101215760025490516001600160a01b039091168152602090f35b83915034610121576020366003190112610121578035906105c66108bb565b6105db60018060a01b03600354163314610930565b6105e68215156107d3565b600654908282106106065750906105fc91610923565b6006556001815580f35b606490602086519162461bcd60e51b8352820152600a6024820152691c995c185e4f9919589d60b21b6044820152fd5b90503461015b576020908160031936011261076b578035906106566108bb565b6106618215156107d3565b3385528083528184862054106107315781839161068a6106e99461037d60055460065490610923565b33875280835285872061069e838254610923565b90556106ac82600554610923565b600555600254865163a9059cbb60e01b8152339281019283526020830193909352919384926001600160a01b031691839189918391604090910190565b03925af1918215610724576103dc93508492610707575b505061085a565b61071d9250803d106102d8576102ca818361080a565b3880610700565b50505051903d90823e3d90fd5b835162461bcd60e51b815290810183905260146024820152731a5b9cdd59999a58da595b9d0819195c1bdcda5d60621b6044820152606490fd5b8380fd5b50503461012157816003193601126101215760209061047961096f565b600435906001600160a01b03821682036107a257565b600080fd5b6001546001600160a01b031633036107bb57565b60405163118cdaa760e01b8152336004820152602490fd5b156107da57565b60405162461bcd60e51b81526020600482015260086024820152670616d6f756e743d360c41b6044820152606490fd5b90601f8019910116810190811067ffffffffffffffff82111761082c57604052565b634e487b7160e01b600052604160045260246000fd5b908160209103126107a2575180151581036107a25790565b1561086157565b60405162461bcd60e51b815260206004820152600f60248201526e1d1c985b9cd9995c8819985a5b1959608a1b6044820152606490fd5b919082018092116108a557565b634e487b7160e01b600052601160045260246000fd5b6002600054146108cc576002600055565b604051633ee5aeb560e01b8152600490fd5b156108e557565b60405162461bcd60e51b8152602060048201526016602482015275696e73756666696369656e74206c697175696469747960501b6044820152606490fd5b919082039182116108a557565b1561093757565b60405162461bcd60e51b815260206004820152601060248201526f3737ba103637b0b71036b0b730b3b2b960811b6044820152606490fd5b600554801561099357600654612710908181029181830414901517156108a5570490565b5060009056fea26469706673582212200312d47dc59519fe88f51f0b7ab67ac3594424a3ae247dd5e69804a9598fc37a64736f6c63430008140033","opcodes":"PUSH1 0x80 CALLVALUE PUSH2 0xCD JUMPI PUSH1 0x1F PUSH2 0xAB8 CODESIZE DUP2 SWAP1 SUB SWAP2 DUP3 ADD PUSH1 0x1F NOT AND DUP4 ADD SWAP2 PUSH1 0x1 PUSH1 0x1 PUSH1 0x40 SHL SUB DUP4 GT DUP5 DUP5 LT OR PUSH2 0xD2 JUMPI DUP1 DUP5 SWAP3 PUSH1 0x20 SWAP5 PUSH1 0x40 MSTORE DUP4 CODECOPY DUP2 ADD SUB SLT PUSH2 0xCD JUMPI MLOAD PUSH1 0x1 PUSH1 0x1 PUSH1 0xA0 SHL SUB SWAP1 DUP2 DUP2 AND SWAP1 DUP2 SWAP1 SUB PUSH2 0xCD JUMPI PUSH1 0x1 PUSH1 0x0 SSTORE CALLER ISZERO PUSH2 0xB4 JUMPI PUSH1 0x1 DUP1 SLOAD CALLER PUSH1 0x1 PUSH1 0x1 PUSH1 0xA0 SHL SUB NOT DUP1 DUP4 AND DUP3 OR SWAP1 SWAP4 SSTORE PUSH1 0x40 MLOAD SWAP5 SWAP1 SWAP2 AND PUSH32 0x8BE0079C531659141344CD1FD0A4F28419497F9722A3DAAFE3B4186F6B6457E0 PUSH1 0x0 DUP1 LOG3 PUSH1 0x2 SLOAD AND OR PUSH1 0x2 SSTORE PUSH2 0x9CF SWAP1 DUP2 PUSH2 0xE9 DUP3 CODECOPY RETURN JUMPDEST PUSH1 0x40 MLOAD PUSH4 0x1E4FBDF7 PUSH1 0xE0 SHL DUP2 MSTORE PUSH1 0x0 PUSH1 0x4 DUP3 ADD MSTORE PUSH1 0x24 SWAP1 REVERT JUMPDEST PUSH1 0x0 DUP1 REVERT JUMPDEST PUSH4 0x4E487B71 PUSH1 0xE0 SHL PUSH1 0x0 MSTORE PUSH1 0x41 PUSH1 0x4 MSTORE PUSH1 0x24 PUSH1 0x0 REVERT INVALID PUSH1 0x40 PUSH1 0x80 DUP2 MSTORE PUSH1 0x4 SWAP1 DUP2 CALLDATASIZE LT ISZERO PUSH2 0x15 JUMPI PUSH1 0x0 DUP1 REVERT JUMPDEST PUSH1 0x0 SWAP2 DUP3 CALLDATALOAD PUSH1 0xE0 SHR SWAP1 DUP2 PUSH4 0x3D98C1F EQ PUSH2 0x76F JUMPI DUP2 PUSH4 0x2E1A7D4D EQ PUSH2 0x636 JUMPI DUP2 PUSH4 0x371FD8E6 EQ PUSH2 0x5A7 JUMPI DUP2 PUSH4 0x3E413BEE EQ PUSH2 0x57E JUMPI DUP2 PUSH4 0x4C19386C EQ PUSH2 0x55F JUMPI DUP2 PUSH4 0x5772AE70 EQ PUSH2 0x4E0 JUMPI DUP2 PUSH4 0x715018A6 EQ PUSH2 0x480 JUMPI DUP2 PUSH4 0x74375359 EQ PUSH2 0x455 JUMPI DUP2 PUSH4 0x7D882097 EQ PUSH2 0x436 JUMPI DUP2 PUSH4 0x8DA5CB5B EQ PUSH2 0x40D JUMPI DUP2 PUSH4 0xA2FB342D EQ PUSH2 0x316 JUMPI DUP2 PUSH4 0xB3CCBCFE EQ PUSH2 0x2ED JUMPI DUP4 DUP3 PUSH4 0xB6B55F25 EQ PUSH2 0x20C JUMPI POP DUP2 PUSH4 0xE1A45218 EQ PUSH2 0x1EF JUMPI DUP2 PUSH4 0xF2FDE38B EQ PUSH2 0x15F JUMPI DUP2 PUSH4 0xFC7E286D EQ PUSH2 0x125 JUMPI POP PUSH4 0xFF3AC264 EQ PUSH2 0xE0 JUMPI PUSH1 0x0 DUP1 REVERT JUMPDEST CALLVALUE PUSH2 0x121 JUMPI DUP2 PUSH1 0x3 NOT CALLDATASIZE ADD SLT PUSH2 0x121 JUMPI PUSH1 0x20 SWAP2 PUSH2 0x1388 PUSH2 0xFE PUSH2 0x96F JUMP JUMPDEST GT ISZERO SWAP1 POP PUSH2 0x115 JUMPI PUSH2 0xFFFF PUSH2 0x3E8 SWAP2 JUMPDEST MLOAD SWAP2 AND DUP2 MSTORE RETURN JUMPDEST PUSH2 0xFFFF PUSH2 0x1F4 SWAP2 PUSH2 0x10E JUMP JUMPDEST POP DUP1 REVERT JUMPDEST SWAP1 POP CALLVALUE PUSH2 0x15B JUMPI PUSH1 0x20 CALLDATASIZE PUSH1 0x3 NOT ADD SLT PUSH2 0x15B JUMPI PUSH1 0x20 SWAP3 DUP3 SWAP2 PUSH1 0x1 PUSH1 0x1 PUSH1 0xA0 SHL SUB PUSH2 0x14D PUSH2 0x78C JUMP JUMPDEST AND DUP3 MSTORE DUP5 MSTORE KECCAK256 SLOAD SWAP1 MLOAD SWAP1 DUP2 MSTORE RETURN JUMPDEST DUP3 DUP1 REVERT JUMPDEST SWAP1 POP CALLVALUE PUSH2 0x15B JUMPI PUSH1 0x20 CALLDATASIZE PUSH1 0x3 NOT ADD SLT PUSH2 0x15B JUMPI PUSH2 0x17A PUSH2 0x78C JUMP JUMPDEST SWAP1 PUSH2 0x183 PUSH2 0x7A7 JUMP JUMPDEST PUSH1 0x1 PUSH1 0x1 PUSH1 0xA0 SHL SUB SWAP2 DUP3 AND SWAP3 DUP4 ISZERO PUSH2 0x1D9 JUMPI POP POP PUSH1 0x1 SLOAD DUP3 PUSH12 0xFFFFFFFFFFFFFFFFFFFFFFFF PUSH1 0xA0 SHL DUP3 AND OR PUSH1 0x1 SSTORE AND PUSH32 0x8BE0079C531659141344CD1FD0A4F28419497F9722A3DAAFE3B4186F6B6457E0 DUP4 DUP1 LOG3 DUP1 RETURN JUMPDEST MLOAD PUSH4 0x1E4FBDF7 PUSH1 0xE0 SHL DUP2 MSTORE SWAP1 DUP2 ADD DUP5 SWAP1 MSTORE PUSH1 0x24 SWAP1 REVERT JUMPDEST POP POP CALLVALUE PUSH2 0x121 JUMPI DUP2 PUSH1 0x3 NOT CALLDATASIZE ADD SLT PUSH2 0x121 JUMPI PUSH1 0x20 SWAP1 MLOAD PUSH2 0x2710 DUP2 MSTORE RETURN JUMPDEST DUP1 SWAP2 DUP5 CALLVALUE PUSH2 0x2E9 JUMPI PUSH1 0x20 CALLDATASIZE PUSH1 0x3 NOT ADD SLT PUSH2 0x2E9 JUMPI DUP2 CALLDATALOAD SWAP2 PUSH2 0x22B PUSH2 0x8BB JUMP JUMPDEST PUSH2 0x236 DUP4 ISZERO ISZERO PUSH2 0x7D3 JUMP JUMPDEST PUSH1 0x2 SLOAD DUP3 MLOAD PUSH4 0x23B872DD PUSH1 0xE0 SHL DUP2 MSTORE CALLER DUP4 DUP3 ADD MSTORE ADDRESS PUSH1 0x24 DUP3 ADD MSTORE PUSH1 0x44 DUP2 ADD DUP6 SWAP1 MSTORE SWAP5 PUSH1 0x20 SWAP2 DUP7 SWAP2 PUSH1 0x64 SWAP2 DUP4 SWAP2 SWAP1 PUSH1 0x1 PUSH1 0x1 PUSH1 0xA0 SHL SUB AND GAS CALL SWAP4 DUP5 ISZERO PUSH2 0x2DF JUMPI PUSH2 0x2A7 SWAP5 PUSH2 0x28A SWAP2 DUP8 SWAP2 PUSH2 0x2B1 JUMPI JUMPDEST POP PUSH2 0x85A JUMP JUMPDEST CALLER DUP6 MSTORE PUSH1 0x20 MSTORE DUP4 KECCAK256 PUSH2 0x29D DUP3 DUP3 SLOAD PUSH2 0x898 JUMP JUMPDEST SWAP1 SSTORE PUSH1 0x5 SLOAD PUSH2 0x898 JUMP JUMPDEST PUSH1 0x5 SSTORE PUSH1 0x1 DUP2 SSTORE DUP1 RETURN JUMPDEST PUSH2 0x2D2 SWAP2 POP PUSH1 0x20 RETURNDATASIZE DUP2 GT PUSH2 0x2D8 JUMPI JUMPDEST PUSH2 0x2CA DUP2 DUP4 PUSH2 0x80A JUMP JUMPDEST DUP2 ADD SWAP1 PUSH2 0x842 JUMP JUMPDEST DUP8 PUSH2 0x284 JUMP JUMPDEST POP RETURNDATASIZE PUSH2 0x2C0 JUMP JUMPDEST DUP3 MLOAD RETURNDATASIZE DUP8 DUP3 RETURNDATACOPY RETURNDATASIZE SWAP1 REVERT JUMPDEST POP POP REVERT JUMPDEST POP POP CALLVALUE PUSH2 0x121 JUMPI DUP2 PUSH1 0x3 NOT CALLDATASIZE ADD SLT PUSH2 0x121 JUMPI PUSH1 0x3 SLOAD SWAP1 MLOAD PUSH1 0x1 PUSH1 0x1 PUSH1 0xA0 SHL SUB SWAP1 SWAP2 AND DUP2 MSTORE PUSH1 0x20 SWAP1 RETURN JUMPDEST SWAP1 POP CALLVALUE PUSH2 0x15B JUMPI DUP2 PUSH1 0x3 NOT CALLDATASIZE ADD SLT PUSH2 0x15B JUMPI PUSH1 0x20 PUSH2 0x3C0 SWAP2 PUSH2 0x336 PUSH2 0x78C JUMP JUMPDEST SWAP1 PUSH1 0x24 CALLDATALOAD SWAP2 PUSH2 0x343 PUSH2 0x8BB JUMP JUMPDEST DUP7 PUSH1 0x1 DUP1 PUSH1 0xA0 SHL SUB PUSH2 0x35A DUP2 PUSH1 0x3 SLOAD AND CALLER EQ PUSH2 0x930 JUMP JUMPDEST PUSH2 0x365 DUP6 ISZERO ISZERO PUSH2 0x7D3 JUMP JUMPDEST PUSH2 0x389 DUP6 PUSH1 0x5 SLOAD PUSH2 0x384 DUP3 PUSH2 0x37D PUSH1 0x6 SLOAD DUP1 SWAP5 PUSH2 0x923 JUMP JUMPDEST LT ISZERO PUSH2 0x8DE JUMP JUMPDEST PUSH2 0x898 JUMP JUMPDEST PUSH1 0x6 SSTORE PUSH1 0x2 SLOAD AND SWAP3 DUP8 MLOAD SWAP7 DUP8 SWAP6 DUP7 SWAP5 DUP6 SWAP4 PUSH4 0xA9059CBB PUSH1 0xE0 SHL DUP6 MSTORE DUP5 ADD PUSH1 0x20 SWAP1 SWAP4 SWAP3 SWAP2 SWAP4 PUSH1 0x40 DUP2 ADD SWAP5 PUSH1 0x1 DUP1 PUSH1 0xA0 SHL SUB AND DUP2 MSTORE ADD MSTORE JUMP JUMPDEST SUB SWAP3 GAS CALL SWAP1 DUP2 ISZERO PUSH2 0x401 JUMPI PUSH2 0x3DC SWAP3 POP DUP4 SWAP2 PUSH2 0x3E3 JUMPI POP PUSH2 0x85A JUMP JUMPDEST PUSH1 0x1 DUP2 SSTORE DUP1 RETURN JUMPDEST PUSH2 0x3FB SWAP2 POP PUSH1 0x20 RETURNDATASIZE DUP2 GT PUSH2 0x2D8 JUMPI PUSH2 0x2CA DUP2 DUP4 PUSH2 0x80A JUMP JUMPDEST CODESIZE PUSH2 0x284 JUMP JUMPDEST POP POP MLOAD SWAP1 RETURNDATASIZE SWAP1 DUP3 RETURNDATACOPY RETURNDATASIZE SWAP1 REVERT JUMPDEST POP POP CALLVALUE PUSH2 0x121 JUMPI DUP2 PUSH1 0x3 NOT CALLDATASIZE ADD SLT PUSH2 0x121 JUMPI PUSH1 0x1 SLOAD SWAP1 MLOAD PUSH1 0x1 PUSH1 0x1 PUSH1 0xA0 SHL SUB SWAP1 SWAP2 AND DUP2 MSTORE PUSH1 0x20 SWAP1 RETURN JUMPDEST POP POP CALLVALUE PUSH2 0x121 JUMPI DUP2 PUSH1 0x3 NOT CALLDATASIZE ADD SLT PUSH2 0x121 JUMPI PUSH1 0x20 SWAP1 PUSH1 0x5 SLOAD SWAP1 MLOAD SWAP1 DUP2 MSTORE RETURN JUMPDEST POP POP CALLVALUE PUSH2 0x121 JUMPI DUP2 PUSH1 0x3 NOT CALLDATASIZE ADD SLT PUSH2 0x121 JUMPI PUSH1 0x20 SWAP1 PUSH2 0x479 PUSH1 0x5 SLOAD PUSH1 0x6 SLOAD SWAP1 PUSH2 0x923 JUMP JUMPDEST SWAP1 MLOAD SWAP1 DUP2 MSTORE RETURN JUMPDEST DUP4 CALLVALUE PUSH2 0x4DD JUMPI DUP1 PUSH1 0x3 NOT CALLDATASIZE ADD SLT PUSH2 0x4DD JUMPI PUSH2 0x499 PUSH2 0x7A7 JUMP JUMPDEST PUSH1 0x1 DUP1 SLOAD PUSH1 0x1 PUSH1 0x1 PUSH1 0xA0 SHL SUB NOT DUP2 AND SWAP1 SWAP2 SSTORE DUP2 SWAP1 PUSH1 0x1 PUSH1 0x1 PUSH1 0xA0 SHL SUB AND PUSH32 0x8BE0079C531659141344CD1FD0A4F28419497F9722A3DAAFE3B4186F6B6457E0 DUP3 DUP1 LOG3 DUP1 RETURN JUMPDEST DUP1 REVERT JUMPDEST SWAP1 POP CALLVALUE PUSH2 0x15B JUMPI PUSH1 0x20 CALLDATASIZE PUSH1 0x3 NOT ADD SLT PUSH2 0x15B JUMPI PUSH2 0x4FB PUSH2 0x78C JUMP JUMPDEST PUSH2 0x503 PUSH2 0x7A7 JUMP JUMPDEST PUSH1 0x1 PUSH1 0x1 PUSH1 0xA0 SHL SUB AND SWAP2 DUP3 ISZERO PUSH2 0x530 JUMPI POP POP PUSH12 0xFFFFFFFFFFFFFFFFFFFFFFFF PUSH1 0xA0 SHL PUSH1 0x3 SLOAD AND OR PUSH1 0x3 SSTORE DUP1 RETURN JUMPDEST SWAP1 PUSH1 0x20 PUSH1 0x64 SWAP3 MLOAD SWAP2 PUSH3 0x461BCD PUSH1 0xE5 SHL DUP4 MSTORE DUP3 ADD MSTORE PUSH1 0x9 PUSH1 0x24 DUP3 ADD MSTORE PUSH9 0x6D616E616765723D3 PUSH1 0xBC SHL PUSH1 0x44 DUP3 ADD MSTORE REVERT JUMPDEST POP POP CALLVALUE PUSH2 0x121 JUMPI DUP2 PUSH1 0x3 NOT CALLDATASIZE ADD SLT PUSH2 0x121 JUMPI PUSH1 0x20 SWAP1 PUSH1 0x6 SLOAD SWAP1 MLOAD SWAP1 DUP2 MSTORE RETURN JUMPDEST POP POP CALLVALUE PUSH2 0x121 JUMPI DUP2 PUSH1 0x3 NOT CALLDATASIZE ADD SLT PUSH2 0x121 JUMPI PUSH1 0x2 SLOAD SWAP1 MLOAD PUSH1 0x1 PUSH1 0x1 PUSH1 0xA0 SHL SUB SWAP1 SWAP2 AND DUP2 MSTORE PUSH1 0x20 SWAP1 RETURN JUMPDEST DUP4 SWAP2 POP CALLVALUE PUSH2 0x121 JUMPI PUSH1 0x20 CALLDATASIZE PUSH1 0x3 NOT ADD SLT PUSH2 0x121 JUMPI DUP1 CALLDATALOAD SWAP1 PUSH2 0x5C6 PUSH2 0x8BB JUMP JUMPDEST PUSH2 0x5DB PUSH1 0x1 DUP1 PUSH1 0xA0 SHL SUB PUSH1 0x3 SLOAD AND CALLER EQ PUSH2 0x930 JUMP JUMPDEST PUSH2 0x5E6 DUP3 ISZERO ISZERO PUSH2 0x7D3 JUMP JUMPDEST PUSH1 0x6 SLOAD SWAP1 DUP3 DUP3 LT PUSH2 0x606 JUMPI POP SWAP1 PUSH2 0x5FC SWAP2 PUSH2 0x923 JUMP JUMPDEST PUSH1 0x6 SSTORE PUSH1 0x1 DUP2 SSTORE DUP1 RETURN JUMPDEST PUSH1 0x64 SWAP1 PUSH1 0x20 DUP7 MLOAD SWAP2 PUSH3 0x461BCD PUSH1 0xE5 SHL DUP4 MSTORE DUP3 ADD MSTORE PUSH1 0xA PUSH1 0x24 DUP3 ADD MSTORE PUSH10 0x1C995C185E4F9919589D PUSH1 0xB2 SHL PUSH1 0x44 DUP3 ADD MSTORE REVERT JUMPDEST SWAP1 POP CALLVALUE PUSH2 0x15B JUMPI PUSH1 0x20 SWAP1 DUP2 PUSH1 0x3 NOT CALLDATASIZE ADD SLT PUSH2 0x76B JUMPI DUP1 CALLDATALOAD SWAP1 PUSH2 0x656 PUSH2 0x8BB JUMP JUMPDEST PUSH2 0x661 DUP3 ISZERO ISZERO PUSH2 0x7D3 JUMP JUMPDEST CALLER DUP6 MSTORE DUP1 DUP4 MSTORE DUP2 DUP5 DUP7 KECCAK256 SLOAD LT PUSH2 0x731 JUMPI DUP2 DUP4 SWAP2 PUSH2 0x68A PUSH2 0x6E9 SWAP5 PUSH2 0x37D PUSH1 0x5 SLOAD PUSH1 0x6 SLOAD SWAP1 PUSH2 0x923 JUMP JUMPDEST CALLER DUP8 MSTORE DUP1 DUP4 MSTORE DUP6 DUP8 KECCAK256 PUSH2 0x69E DUP4 DUP3 SLOAD PUSH2 0x923 JUMP JUMPDEST SWAP1 SSTORE PUSH2 0x6AC DUP3 PUSH1 0x5 SLOAD PUSH2 0x923 JUMP JUMPDEST PUSH1 0x5 SSTORE PUSH1 0x2 SLOAD DUP7 MLOAD PUSH4 0xA9059CBB PUSH1 0xE0 SHL DUP2 MSTORE CALLER SWAP3 DUP2 ADD SWAP3 DUP4 MSTORE PUSH1 0x20 DUP4 ADD SWAP4 SWAP1 SWAP4 MSTORE SWAP2 SWAP4 DUP5 SWAP3 PUSH1 0x1 PUSH1 0x1 PUSH1 0xA0 SHL SUB AND SWAP2 DUP4 SWAP2 DUP10 SWAP2 DUP4 SWAP2 PUSH1 0x40 SWAP1 SWAP2 ADD SWAP1 JUMP JUMPDEST SUB SWAP3 GAS CALL SWAP2 DUP3 ISZERO PUSH2 0x724 JUMPI PUSH2 0x3DC SWAP4 POP DUP5 SWAP3 PUSH2 0x707 JUMPI JUMPDEST POP POP PUSH2 0x85A JUMP JUMPDEST PUSH2 0x71D SWAP3 POP DUP1 RETURNDATASIZE LT PUSH2 0x2D8 JUMPI PUSH2 0x2CA DUP2 DUP4 PUSH2 0x80A JUMP JUMPDEST CODESIZE DUP1 PUSH2 0x700 JUMP JUMPDEST POP POP POP MLOAD SWAP1 RETURNDATASIZE SWAP1 DUP3 RETURNDATACOPY RETURNDATASIZE SWAP1 REVERT JUMPDEST DUP4 MLOAD PUSH3 0x461BCD PUSH1 0xE5 SHL DUP2 MSTORE SWAP1 DUP2 ADD DUP4 SWAP1 MSTORE PUSH1 0x14 PUSH1 0x24 DUP3 ADD MSTORE PUSH20 0x1A5B9CDD59999A58DA595B9D0819195C1BDCDA5D PUSH1 0x62 SHL PUSH1 0x44 DUP3 ADD MSTORE PUSH1 0x64 SWAP1 REVERT JUMPDEST DUP4 DUP1 REVERT JUMPDEST POP POP CALLVALUE PUSH2 0x121 JUMPI DUP2 PUSH1 0x3 NOT CALLDATASIZE ADD SLT PUSH2 0x121 JUMPI PUSH1 0x20 SWAP1 PUSH2 0x479 PUSH2 0x96F JUMP JUMPDEST PUSH1 0x4 CALLDATALOAD SWAP1 PUSH1 0x1 PUSH1 0x1 PUSH1 0xA0 SHL SUB DUP3 AND DUP3 SUB PUSH2 0x7A2 JUMPI JUMP JUMPDEST PUSH1 0x0 DUP1 REVERT JUMPDEST PUSH1 0x1 SLOAD PUSH1 0x1 PUSH1 0x1 PUSH1 0xA0 SHL SUB AND CALLER SUB PUSH2 0x7BB JUMPI JUMP JUMPDEST PUSH1 0x40 MLOAD PUSH4 0x118CDAA7 PUSH1 0xE0 SHL DUP2 MSTORE CALLER PUSH1 0x4 DUP3 ADD MSTORE PUSH1 0x24 SWAP1 REVERT JUMPDEST ISZERO PUSH2 0x7DA JUMPI JUMP JUMPDEST PUSH1 0x40 MLOAD PUSH3 0x461BCD PUSH1 0xE5 SHL DUP2 MSTORE PUSH1 0x20 PUSH1 0x4 DUP3 ADD MSTORE PUSH1 0x8 PUSH1 0x24 DUP3 ADD MSTORE PUSH8 0x616D6F756E743D3 PUSH1 0xC4 SHL PUSH1 0x44 DUP3 ADD MSTORE PUSH1 0x64 SWAP1 REVERT JUMPDEST SWAP1 PUSH1 0x1F DUP1 NOT SWAP2 ADD AND DUP2 ADD SWAP1 DUP2 LT PUSH8 0xFFFFFFFFFFFFFFFF DUP3 GT OR PUSH2 0x82C JUMPI PUSH1 0x40 MSTORE JUMP JUMPDEST PUSH4 0x4E487B71 PUSH1 0xE0 SHL PUSH1 0x0 MSTORE PUSH1 0x41 PUSH1 0x4 MSTORE PUSH1 0x24 PUSH1 0x0 REVERT JUMPDEST SWAP1 DUP2 PUSH1 0x20 SWAP2 SUB SLT PUSH2 0x7A2 JUMPI MLOAD DUP1 ISZERO ISZERO DUP2 SUB PUSH2 0x7A2 JUMPI SWAP1 JUMP JUMPDEST ISZERO PUSH2 0x861 JUMPI JUMP JUMPDEST PUSH1 0x40 MLOAD PUSH3 0x461BCD PUSH1 0xE5 SHL DUP2 MSTORE PUSH1 0x20 PUSH1 0x4 DUP3 ADD MSTORE PUSH1 0xF PUSH1 0x24 DUP3 ADD MSTORE PUSH15 0x1D1C985B9CD9995C8819985A5B1959 PUSH1 0x8A SHL PUSH1 0x44 DUP3 ADD MSTORE PUSH1 0x64 SWAP1 REVERT JUMPDEST SWAP2 SWAP1 DUP3 ADD DUP1 SWAP3 GT PUSH2 0x8A5 JUMPI JUMP JUMPDEST PUSH4 0x4E487B71 PUSH1 0xE0 SHL PUSH1 0x0 MSTORE PUSH1 0x11 PUSH1 0x4 MSTORE PUSH1 0x24 PUSH1 0x0 REVERT JUMPDEST PUSH1 0x2 PUSH1 0x0 SLOAD EQ PUSH2 0x8CC JUMPI PUSH1 0x2 PUSH1 0x0 SSTORE JUMP JUMPDEST PUSH1 0x40 MLOAD PUSH4 0x3EE5AEB5 PUSH1 0xE0 SHL DUP2 MSTORE PUSH1 0x4 SWAP1 REVERT JUMPDEST ISZERO PUSH2 0x8E5 JUMPI JUMP JUMPDEST PUSH1 0x40 MLOAD PUSH3 0x461BCD PUSH1 0xE5 SHL DUP2 MSTORE PUSH1 0x20 PUSH1 0x4 DUP3 ADD MSTORE PUSH1 0x16 PUSH1 0x24 DUP3 ADD MSTORE PUSH22 0x696E73756666696369656E74206C6971756964697479 PUSH1 0x50 SHL PUSH1 0x44 DUP3 ADD MSTORE PUSH1 0x64 SWAP1 REVERT JUMPDEST SWAP2 SWAP1 DUP3 SUB SWAP2 DUP3 GT PUSH2 0x8A5 JUMPI JUMP JUMPDEST ISZERO PUSH2 0x937 JUMPI JUMP JUMPDEST PUSH1 0x40 MLOAD PUSH3 0x461BCD PUSH1 0xE5 SHL DUP2 MSTORE PUSH1 0x20 PUSH1 0x4 DUP3 ADD MSTORE PUSH1 0x10 PUSH1 0x24 DUP3 ADD MSTORE PUSH16 0x3737BA103637B0B71036B0B730B3B2B9 PUSH1 0x81 SHL PUSH1 0x44 DUP3 ADD MSTORE PUSH1 0x64 SWAP1 REVERT JUMPDEST PUSH1 0x5 SLOAD DUP1 ISZERO PUSH2 0x993 JUMPI PUSH1 0x6 SLOAD PUSH2 0x2710 SWAP1 DUP2 DUP2 MUL SWAP2 DUP2 DUP4 DIV EQ SWAP1 ISZERO OR ISZERO PUSH2 0x8A5 JUMPI DIV SWAP1 JUMP JUMPDEST POP PUSH1 0x0 SWAP1 JUMP INVALID LOG2 PUSH5 0x6970667358 0x22 SLT KECCAK256 SUB SLT 0xD4 PUSH30 0xC59519FE88F51F0B7AB67AC3594424A3AE247DD5E69804A9598FC37A6473 PUSH16 0x6C634300081400330000000000000000 "},"gasEstimates":{"creation":{"codeDepositCost":"502200","executionCost":"infinite","totalCost":"infinite"},"external":{"BPS_DENOMINATOR()":"460","availableLiquidity()":"4594","deposit(uint256)":"infinite","deposits(address)":"2759","getInterestRateBps()":"4889","lend(address,uint256)":"infinite","loanManager()":"2538","owner()":"2494","renounceOwnership()":"28211","repay(uint256)":"55975","setLoanManager(address)":"26760","totalBorrowed()":"2363","totalDeposits()":"2451","transferOwnership(address)":"28490","usdc()":"2362","utilizationRateBps()":"4488","withdraw(uint256)":"infinite"}},"methodIdentifiers":{"BPS_DENOMINATOR()":"e1a45218","availableLiquidity()":"74375359","deposit(uint256)":"b6b55f25","deposits(address)":"fc7e286d","getInterestRateBps()":"ff3ac264","lend(address,uint256)":"a2fb342d","loanManager()":"b3ccbcfe","owner()":"8da5cb5b","renounceOwnership()":"715018a6","repay(uint256)":"371fd8e6","setLoanManager(address)":"5772ae70","totalBorrowed()":"4c19386c","totalDeposits()":"7d882097","transferOwnership(address)":"f2fde38b","usdc()":"3e413bee","utilizationRateBps()":"03d98c1f","withdraw(uint256)":"2e1a7d4d"}},"storageLayout":{"storage":[{"astId":1060,"contract":"contracts/LendingPool.sol:LendingPool","label":"_status","offset":0,"slot":"0","type":"t_uint256"},{"astId":54,"contract":"contracts/LendingPool.sol:LendingPool","label":"_owner","offset":0,"slot":"1","type":"t_address"},{"astId":7500,"contract":"contracts/LendingPool.sol:LendingPool","label":"usdc","offset":0,"slot":"2","type":"t_contract(IERC20)923"},{"astId":7502,"contract":"contracts/LendingPool.sol:LendingPool","label":"loanManager","offset":0,"slot":"3","type":"t_address"},{"astId":7506,"contract":"contracts/LendingPool.sol:LendingPool","label":"deposits","offset":0,"slot":"4","type":"t_mapping(t_address,t_uint256)"},{"astId":7508,"contract":"contracts/LendingPool.sol:LendingPool","label":"totalDeposits","offset":0,"slot":"5","type":"t_uint256"},{"astId":7510,"contract":"contracts/LendingPool.sol:LendingPool","label":"totalBorrowed","offset":0,"slot":"6","type":"t_uint256"}],"types":{"t_address":{"encoding":"inplace","label":"address","numberOfBytes":"20"},"t_contract(IERC20)923":{"encoding":"inplace","label":"contract IERC20","numberOfBytes":"20"},"t_mapping(t_address,t_uint256)":{"encoding":"mapping","key":"t_address","label":"mapping(address => uint256)","numberOfBytes":"32","value":"t_uint256"},"t_uint256":{"encoding":"inplace","label":"uint256","numberOfBytes":"32"}}},"userdoc":{"kind":"user","methods":{},"version":1}}}}