{"contracts/ValuationEngine.sol":{"ValuationEngine":{"abi":[{"inputs":[{"internalType":"address","name":"_priceFeed","type":"address"}],"stateMutability":"nonpayable","type":"constructor"},{"inputs":[{"internalType":"address","name":"owner","type":"address"}],"name":"OwnableInvalidOwner","type":"error"},{"inputs":[{"internalType":"address","name":"account","type":"address"}],"name":"OwnableUnauthorizedAccount","type":"error"},{"anonymous":false,"inputs":[{"indexed":true,"internalType":"address","name":"previousOwner","type":"address"},{"indexed":true,"internalType":"address","name":"newOwner","type":"address"}],"name":"OwnershipTransferred","type":"event"},{"inputs":[],"name":"BASE_LTV_BPS","outputs":[{"internalType":"uint256","name":"","type":"uint256"}],"stateMutability":"view","type":"function"},{"inputs":[],"name":"BPS_DENOMINATOR","outputs":[{"internalType":"uint256","name":"","type":"uint256"}],"stateMutability":"view","type":"function"},{"inputs":[{"internalType":"uint256","name":"quantity","type":"uint256"},{"internalType":"address","name":"","type":"address"},{"internalType":"uint256","name":"unlockTime","type":"uint256"}],"name":"computeDPV","outputs":[{"internalType":"uint256","name":"pv","type":"uint256"},{"internalType":"uint256","name":"ltvBps","type":"uint256"}],"stateMutability":"view","type":"function"},{"inputs":[],"name":"owner","outputs":[{"internalType":"address","name":"","type":"address"}],"stateMutability":"view","type":"function"},{"inputs":[],"name":"priceFeed","outputs":[{"internalType":"contract AggregatorV3Interface","name":"","type":"address"}],"stateMutability":"view","type":"function"},{"inputs":[],"name":"renounceOwnership","outputs":[],"stateMutability":"nonpayable","type":"function"},{"inputs":[],"name":"riskFreeRate","outputs":[{"internalType":"uint256","name":"","type":"uint256"}],"stateMutability":"view","type":"function"},{"inputs":[{"internalType":"uint256","name":"newRate","type":"uint256"}],"name":"setRiskFreeRate","outputs":[],"stateMutability":"nonpayable","type":"function"},{"inputs":[{"internalType":"uint256","name":"newVol","type":"uint256"}],"name":"setVolatility","outputs":[],"stateMutability":"nonpayable","type":"function"},{"inputs":[{"internalType":"address","name":"newOwner","type":"address"}],"name":"transferOwnership","outputs":[],"stateMutability":"nonpayable","type":"function"},{"inputs":[],"name":"volatility","outputs":[{"internalType":"uint256","name":"","type":"uint256"}],"stateMutability":"view","type":"function"}],"devdoc":{"errors":{"OwnableInvalidOwner(address)":[{"details":"The owner is not a valid owner account. (eg. `address(0)`)"}],"OwnableUnauthorizedAccount(address)":[{"details":"The caller account is not authorized to perform an operation."}]},"kind":"dev","methods":{"owner()":{"details":"Returns the address of the current owner."},"renounceOwnership()":{"details":"Leaves the contract without owner. It will not be possible to call `onlyOwner` functions. Can only be called by the current owner. NOTE: Renouncing ownership will leave the contract without an owner, thereby disabling any functionality that is only available to the owner."},"transferOwnership(address)":{"details":"Transfers ownership of the contract to a new account (`newOwner`). Can only be called by the current owner."}},"version":1},"evm":{"bytecode":{"linkReferences":{},"object":"6080346100d057601f61181c38819003918201601f19168301916001600160401b038311848410176100d5578084926020946040528339810103126100d057516001600160a01b0390818116908190036100d05733156100b75760005460018060a01b0319903382821617600055604051933391167f8be0079c531659141344cd1fd0a4f28419497f9722a3daafe3b4186f6b6457e0600080a360056002556032600355600154161760015561173090816100ec8239f35b604051631e4fbdf760e01b815260006004820152602490fd5b600080fd5b634e487b7160e01b600052604160045260246000fdfe608060408181526004918236101561001657600080fd5b60009260e08435811c92836322e9d5bf146109c857508263715018a61461096e578263741bef1a146109445782638da5cb5b1461091b5782639fdcadc4146108ba578263bfd847a8146101f157508163cce99230146101d2578163e1a45218146101b5578163e1ea1cf514610154578163f2fde38b146100c1575063f3cc6993146100a057600080fd5b346100bd57816003193601126100bd576020906002549051908152f35b5080fd5b91905034610150576020366003190112610150576001600160a01b0382358181169391929084900361014c576100f56109e4565b831561013657505082546001600160a01b0319811683178455167f8be0079c531659141344cd1fd0a4f28419497f9722a3daafe3b4186f6b6457e08380a380f35b51631e4fbdf760e01b8152908101849052602490fd5b8480fd5b8280fd5b905034610150576020366003190112610150578035916101726109e4565b6014831161018257505060025580f35b906020606492519162461bcd60e51b8352820152600d60248201526c0e4c2e8ca40e8dede40d0d2ced609b1b6044820152fd5b5050346100bd57816003193601126100bd57602090516127108152f35b5050346100bd57816003193601126100bd576020906003549051908152f35b909150346108b65760603660031901126108b6578135916024916001600160a01b039183358381160361046957604435948015610887574286111561085257600180548851633fabe5a360e21b815291951660a0828581845afa9182156107cc578a92610804575b50898213156107d65790602084928a519384809263313ce56760e01b82525afa9182156107cc578a9261078f575b508083029283040361077d5760ff16604d811161077d57906102ac91600a0a90610a64565b9342860395861161076c57506001600160c01b039485811161067b576301e1338090871b045b6001600160801b039081811161048d5781169260016001607f1b0396878511610677576002805490929082811161058b576064908b1b045b8481116105395784168981116105395761032b90600f97880b90880b610add565b60016001607f1b0319979080880b89146105875761034c908d03880b610b05565b6003549096909384116104915750505060c89150881b045b81811161048d571685811161047757820b68010000000000000000038381121580610483575b1561047757820b9387851261047b575b677fffffffffffffff81116104775767e666666666666666916103c091881b840b610add565b820b02851d828112158061046d575b1561046957956103f59495966103ff6103fa8667ffffffffffffffff988994870b610a9f565b610add565b610a84565b1695710a8bfffffffffffffb500000000000000000881d93841215908161045e575b501561045b5750916103f56103fa9261043a940b610a9f565b16612710808211610453575b5082519182526020820152f35b905038610446565b80fd5b905083131538610421565b8680fd5b50848113156103cf565b8780fd5b87945061039a565b508581131561038a565b8880fd5b816104f99294939560c09285841c90819864010000000083101561057a575b506201000082101561056b575b61010082101561055c575b601082101561054f575b8290821015610544575b50101561053d575b60c760be1983011c019060ff0383901b610a64565b928484116105395760c88402918b1b908083831061052d575b506105255760c892500304905b01610364565b50509061051f565b60001901905038610512565b8b80fd5b01836104e4565b938401931c816104dc565b9384019390811c906104d2565b9390600890811c9101936104c8565b9390601090811c9101936104bd565b945086851c9150386104b0565b8c80fd5b60c081811c80918a87640100000000841015610667575b83620100006105ef95101561065b575b61010081101561064f575b8b6010821015610644575b8290821015610639575b501015610632575b606360be1983011c019060ff0384901b610a64565b918d87841161045b57908d1b91606484029181838510610626575b505061061d576064910304905b0161030a565b50508790610617565b6000190191503861060a565b018a6105da565b938401931c816105d2565b938401931c8b6105c8565b6008938401931c6105bd565b6010938401931c6105b2565b50505082841c9050838a876105a2565b8980fd5b60c081811c80918664010000000083101561075f575b600283620100006106e0951015610753575b610100811015610747575b87601082101561073c575b811015610731575b101561072a575b6301e1337f60be1983011c019060ff0384901b610a64565b916001600160801b038311610677576301e1338091838302918a1b908083831061071e575b50610714570304905b016102d2565b505050839061070e565b60001901905038610705565b01866106c8565b92810192811c6106c1565b938401931c876106b9565b6008938401931c6106ae565b6010938401931c6106a3565b50505081841c8486610691565b634e487b7160e01b88526011825287fd5b634e487b7160e01b8952601183528589fd5b9091506020813d82116107c4575b816107aa60209383610a10565b81010312610677575160ff81168103610677579038610287565b3d915061079d565b89513d8c823e3d90fd5b885162461bcd60e51b81526020818601526009818901526862616420707269636560b81b6044820152606490fd5b90915060a0813d821161084a575b8161081f60a09383610a10565b810103126106775761083081610a48565b50610842608060208301519201610a48565b509038610259565b3d9150610812565b865162461bcd60e51b81526020818401526010818701526f185b1c9958591e481d5b9b1bd8dad95960821b6044820152606490fd5b865162461bcd60e51b8152602081840152600a818701526907175616e746974793d360b41b6044820152606490fd5b8380fd5b50905034610150576020366003190112610150578035916108d96109e4565b606483116108e957505060035580f35b906020606492519162461bcd60e51b8352820152600c60248201526b0ecded840e8dede40d0d2ced60a31b6044820152fd5b505050346100bd57816003193601126100bd57905490516001600160a01b039091168152602090f35b505050346100bd57816003193601126100bd5760015490516001600160a01b039091168152602090f35b843461045b578060031936011261045b576109876109e4565b80546001600160a01b03198116825581906001600160a01b03167f8be0079c531659141344cd1fd0a4f28419497f9722a3daafe3b4186f6b6457e08280a380f35b8590346100bd57816003193601126100bd5780610bb860209252f35b6000546001600160a01b031633036109f857565b60405163118cdaa760e01b8152336004820152602490fd5b90601f8019910116810190811067ffffffffffffffff821117610a3257604052565b634e487b7160e01b600052604160045260246000fd5b519069ffffffffffffffffffff82168203610a5f57565b600080fd5b8115610a6e570490565b634e487b7160e01b600052601260045260246000fd5b600f0b60008112610a5f5760401d67ffffffffffffffff1690565b600f0b67f3333333333333330260401d60016001607f1b031981121580610acc575b15610a5f57600f0b90565b5060016001607f1b03811315610ac1565b90600f0b90600f0b0260401d60016001607f1b031981121580610acc5715610a5f57600f0b90565b600f0b600160461b811215610a5f57683fffffffffffffffff198112610b4a57700171547652b82fe1777d0ffda0d23a7d12610b47910260801d600f0b610b50565b90565b50600090565b600f81810b600160461b811215610a5f57683fffffffffffffffff1981126116f2576001607f1b90600093846780000000000000008216850b136116da575b846740000000000000008216850b136116bd575b846720000000000000008216850b136116a0575b846710000000000000008216850b13611683575b846708000000000000008216850b13611666575b846704000000000000008216850b13611649575b846702000000000000008216850b1361162c575b846701000000000000008216850b1361160f575b8466800000000000008216850b136115f2575b8466400000000000008216850b136115d5575b8466200000000000008216850b136115b8575b8466100000000000008216850b1361159b575b8466080000000000008216850b1361157e575b8466040000000000008216850b13611561575b8466020000000000008216850b13611544575b8466010000000000008216850b13611527575b84658000000000008216850b1361150a575b84654000000000008216850b136114ed575b84652000000000008216850b136114d0575b84651000000000008216850b136114b3575b84650800000000008216850b13611496575b84650400000000008216850b13611479575b84650200000000008216850b1361145c575b84650100000000008216850b1361143f575b846480000000008216850b13611422575b846440000000008216850b13611405575b846420000000008216850b136113e8575b846410000000008216850b136113cb575b846408000000008216850b136113ae575b846404000000008216850b13611391575b846402000000008216850b13611374575b846401000000008216850b13611357575b8463800000008216850b1361133a575b8463400000008216850b1361131d575b8463200000008216850b13611300575b8463100000008216850b136112e3575b8463080000008216850b136112c6575b8463040000008216850b136112a9575b8463020000008216850b1361128c575b8463010000008216850b1361126f575b84628000008216850b13611252575b84624000008216850b13611235575b84622000008216850b13611218575b84621000008216850b136111fb575b84620800008216850b136111de575b84620400008216850b136111c1575b84620200008216850b136111a4575b84620100008216850b13611187575b846180008216850b1361116a575b846140008216850b1361114d575b846120008216850b13611130575b846110008216850b13611113575b846108008216850b136110f6575b846104008216850b136110d9575b846102008216850b136110bc575b846101008216850b1361109f575b8460809181838216870b13611083575b8160408216870b13611067575b8160208216870b1361104b575b8160108216870b1361102f575b8160088216870b13611013575b8160048216870b13610ff7575b8160028216870b13610fda575b600116850b13610fbc575b5060401d820b603f03820b1c9160016001607f1b03831161045b57500b90565b909170010000000000000000b17217f7d1cf79ab02901c9038610f9c565b7001000000000000000162e42fefa39ef358909402821c93610f91565b9370010000000000000002c5c85fdf473de6b202821c93610f84565b93700100000000000000058b90bfbe8e7bcd6d02821c93610f77565b937001000000000000000b17217f7d1cf79afa02821c93610f6a565b93700100000000000000162e42fefa39ef366f02821c93610f5d565b937001000000000000002c5c85fdf473de6eca02821c93610f50565b9370010000000000000058b90bfbe8e7bce54402821c93610f43565b91700100000000000000b17217f7d1cf79e9490260801c91610f33565b9170010000000000000162e42fefa39ef44d910260801c91610f25565b91700100000000000002c5c85fdf473dea871f0260801c91610f17565b917001000000000000058b90bfbe8e7bdcbe2e0260801c91610f09565b9170010000000000000b17217f7d1cf7d83c1a0260801c91610efb565b917001000000000000162e42fefa39f02b772c0260801c91610eed565b9170010000000000002c5c85fdf473e242ea380260801c91610edf565b91700100000000000058b90bfbe8e7cc35c3f00260801c91610ed1565b917001000000000000b17217f7d1cfb72b45e10260801c91610ec3565b91700100000000000162e42fefa39fe95583c20260801c91610eb4565b917001000000000002c5c85fdf4741bea6e77e0260801c91610ea5565b9170010000000000058b90bfbe8e8b2d3d4ede0260801c91610e96565b91700100000000000b17217f7d1d351a389d400260801c91610e87565b9170010000000000162e42fefa3ae53369388c0260801c91610e78565b91700100000000002c5c85fdf477b662b269450260801c91610e69565b917001000000000058b90bfbe8f71cb4e4b33d0260801c91610e5a565b9170010000000000b17217f7d20cf927c8e94c0260801c91610e4b565b917001000000000162e42fefa494f1478fde050260801c91610e3b565b9170010000000002c5c85fdf4b15de6f17eb0d0260801c91610e2b565b91700100000000058b90bfbe9ddbac5e109cce0260801c91610e1b565b917001000000000b17217f7d5a7716bba4a9ae0260801c91610e0b565b91700100000000162e42fefb2fed257559bdaa0260801c91610dfb565b917001000000002c5c85fdf84bd62ae30a74cc0260801c91610deb565b9170010000000058b90bfbf8479bd5a81b51ad0260801c91610ddb565b91700100000000b17217f80f4ef5aadda455540260801c91610dcb565b9170010000000162e42ff0999ce3541b9fffcf0260801c91610dba565b91700100000002c5c85fe31f35a6a30da1be500260801c91610da9565b917001000000058b90bfcdee5acd3c1cedc8230260801c91610d98565b9170010000000b17217fba9c739aa5819f44f90260801c91610d87565b917001000000162e42fff037df38aa2b219f060260801c91610d76565b9170010000002c5c8601cc6b9e94213c72737a0260801c91610d65565b91700100000058b90c0b48c6be5df846c5b2ef0260801c91610d54565b917001000000b1721835514b86e6d96efd1bfe0260801c91610d43565b91700100000162e430e5a18f6119e3c02282a50260801c91610d31565b917001000002c5c863b73f016468f6bac5ca2b0260801c91610d1f565b9170010000058b90cf1e6d97f9ca14dbcc16280260801c91610d0d565b91700100000b1721bcfc99d9f890ea069117630260801c91610cfb565b9170010000162e43f4f831060e02d839a9d16d0260801c91610ce9565b91700100002c5c89d5ec6ca4d7c8acc017b7c90260801c91610cd7565b917001000058b91b5bc9ae2eed81e9b7d4cfab0260801c91610cc5565b9170010000b17255775c040618bf4a4ade83fc0260801c91610cb3565b917001000162e525ee054754457d59952920260260801c91610ca0565b9170010002c5cc37da9491d0985c348c68e7b30260801c91610c8d565b91700100058ba01fb9f96d6cacd4b180917c3d0260801c91610c7a565b917001000b175effdc76ba38e31671ca9397250260801c91610c67565b91700100162f3904051fa128bca9c55c31e5df0260801c91610c54565b917001002c605e2e8cec506d21bfc89a23a00f0260801c91610c41565b9170010058c86da1c09ea1ff19d294cf2f679b0260801c91610c2e565b91700100b1afa5abcbed6129ab13ec11dc95430260801c91610c1b565b9170010163da9fb33356d84a66ae336dcdfa3f0260801c91610c07565b91700102c9a3e778060ee6f7caca4f7a29bde80260801c91610bf3565b917001059b0d31585743ae7c548eb68ca417fd0260801c91610bdf565b9170010b5586cf9890f6298b92b71842a983630260801c91610bcb565b917001172b83c7d517adcdf7c8c50eb14a791f0260801c91610bb7565b917001306fe0a31b7152de8d5a46305c85edec0260801c91610ba3565b6fb504f333f9de6484597d89b3754abe9f9250610b8f565b50505060009056fea2646970667358221220032e1536148929ab6474b856f4f170e0130e9992eb1d14dbd63e08206c91894464736f6c63430008140033","opcodes":"PUSH1 0x80 CALLVALUE PUSH2 0xD0 JUMPI PUSH1 0x1F PUSH2 0x181C CODESIZE DUP2 SWAP1 SUB SWAP2 DUP3 ADD PUSH1 0x1F NOT AND DUP4 ADD SWAP2 PUSH1 0x1 PUSH1 0x1 PUSH1 0x40 SHL SUB DUP4 GT DUP5 DUP5 LT OR PUSH2 0xD5 JUMPI DUP1 DUP5 SWAP3 PUSH1 0x20 SWAP5 PUSH1 0x40 MSTORE DUP4 CODECOPY DUP2 ADD SUB SLT PUSH2 0xD0 JUMPI MLOAD PUSH1 0x1 PUSH1 0x1 PUSH1 0xA0 SHL SUB SWAP1 DUP2 DUP2 AND SWAP1 DUP2 SWAP1 SUB PUSH2 0xD0 JUMPI CALLER ISZERO PUSH2 0xB7 JUMPI PUSH1 0x0 SLOAD PUSH1 0x1 DUP1 PUSH1 0xA0 SHL SUB NOT SWAP1 CALLER DUP3 DUP3 AND OR PUSH1 0x0 SSTORE PUSH1 0x40 MLOAD SWAP4 CALLER SWAP2 AND PUSH32 0x8BE0079C531659141344CD1FD0A4F28419497F9722A3DAAFE3B4186F6B6457E0 PUSH1 0x0 DUP1 LOG3 PUSH1 0x5 PUSH1 0x2 SSTORE PUSH1 0x32 PUSH1 0x3 SSTORE PUSH1 0x1 SLOAD AND OR PUSH1 0x1 SSTORE PUSH2 0x1730 SWAP1 DUP2 PUSH2 0xEC DUP3 CODECOPY RETURN JUMPDEST PUSH1 0x40 MLOAD PUSH4 0x1E4FBDF7 PUSH1 0xE0 SHL DUP2 MSTORE PUSH1 0x0 PUSH1 0x4 DUP3 ADD MSTORE PUSH1 0x24 SWAP1 REVERT JUMPDEST PUSH1 0x0 DUP1 REVERT JUMPDEST PUSH4 0x4E487B71 PUSH1 0xE0 SHL PUSH1 0x0 MSTORE PUSH1 0x41 PUSH1 0x4 MSTORE PUSH1 0x24 PUSH1 0x0 REVERT INVALID PUSH1 0x80 PUSH1 0x40 DUP2 DUP2 MSTORE PUSH1 0x4 SWAP2 DUP3 CALLDATASIZE LT ISZERO PUSH2 0x16 JUMPI PUSH1 0x0 DUP1 REVERT JUMPDEST PUSH1 0x0 SWAP3 PUSH1 0xE0 DUP5 CALLDATALOAD DUP2 SHR SWAP3 DUP4 PUSH4 0x22E9D5BF EQ PUSH2 0x9C8 JUMPI POP DUP3 PUSH4 0x715018A6 EQ PUSH2 0x96E JUMPI DUP3 PUSH4 0x741BEF1A EQ PUSH2 0x944 JUMPI DUP3 PUSH4 0x8DA5CB5B EQ PUSH2 0x91B JUMPI DUP3 PUSH4 0x9FDCADC4 EQ PUSH2 0x8BA JUMPI DUP3 PUSH4 0xBFD847A8 EQ PUSH2 0x1F1 JUMPI POP DUP2 PUSH4 0xCCE99230 EQ PUSH2 0x1D2 JUMPI DUP2 PUSH4 0xE1A45218 EQ PUSH2 0x1B5 JUMPI DUP2 PUSH4 0xE1EA1CF5 EQ PUSH2 0x154 JUMPI DUP2 PUSH4 0xF2FDE38B EQ PUSH2 0xC1 JUMPI POP PUSH4 0xF3CC6993 EQ PUSH2 0xA0 JUMPI PUSH1 0x0 DUP1 REVERT JUMPDEST CALLVALUE PUSH2 0xBD JUMPI DUP2 PUSH1 0x3 NOT CALLDATASIZE ADD SLT PUSH2 0xBD JUMPI PUSH1 0x20 SWAP1 PUSH1 0x2 SLOAD SWAP1 MLOAD SWAP1 DUP2 MSTORE RETURN JUMPDEST POP DUP1 REVERT JUMPDEST SWAP2 SWAP1 POP CALLVALUE PUSH2 0x150 JUMPI PUSH1 0x20 CALLDATASIZE PUSH1 0x3 NOT ADD SLT PUSH2 0x150 JUMPI PUSH1 0x1 PUSH1 0x1 PUSH1 0xA0 SHL SUB DUP3 CALLDATALOAD DUP2 DUP2 AND SWAP4 SWAP2 SWAP3 SWAP1 DUP5 SWAP1 SUB PUSH2 0x14C JUMPI PUSH2 0xF5 PUSH2 0x9E4 JUMP JUMPDEST DUP4 ISZERO PUSH2 0x136 JUMPI POP POP DUP3 SLOAD PUSH1 0x1 PUSH1 0x1 PUSH1 0xA0 SHL SUB NOT DUP2 AND DUP4 OR DUP5 SSTORE AND PUSH32 0x8BE0079C531659141344CD1FD0A4F28419497F9722A3DAAFE3B4186F6B6457E0 DUP4 DUP1 LOG3 DUP1 RETURN JUMPDEST MLOAD PUSH4 0x1E4FBDF7 PUSH1 0xE0 SHL DUP2 MSTORE SWAP1 DUP2 ADD DUP5 SWAP1 MSTORE PUSH1 0x24 SWAP1 REVERT JUMPDEST DUP5 DUP1 REVERT JUMPDEST DUP3 DUP1 REVERT JUMPDEST SWAP1 POP CALLVALUE PUSH2 0x150 JUMPI PUSH1 0x20 CALLDATASIZE PUSH1 0x3 NOT ADD SLT PUSH2 0x150 JUMPI DUP1 CALLDATALOAD SWAP2 PUSH2 0x172 PUSH2 0x9E4 JUMP JUMPDEST PUSH1 0x14 DUP4 GT PUSH2 0x182 JUMPI POP POP PUSH1 0x2 SSTORE DUP1 RETURN JUMPDEST SWAP1 PUSH1 0x20 PUSH1 0x64 SWAP3 MLOAD SWAP2 PUSH3 0x461BCD PUSH1 0xE5 SHL DUP4 MSTORE DUP3 ADD MSTORE PUSH1 0xD PUSH1 0x24 DUP3 ADD MSTORE PUSH13 0xE4C2E8CA40E8DEDE40D0D2CED PUSH1 0x9B SHL PUSH1 0x44 DUP3 ADD MSTORE REVERT JUMPDEST POP POP CALLVALUE PUSH2 0xBD JUMPI DUP2 PUSH1 0x3 NOT CALLDATASIZE ADD SLT PUSH2 0xBD JUMPI PUSH1 0x20 SWAP1 MLOAD PUSH2 0x2710 DUP2 MSTORE RETURN JUMPDEST POP POP CALLVALUE PUSH2 0xBD JUMPI DUP2 PUSH1 0x3 NOT CALLDATASIZE ADD SLT PUSH2 0xBD JUMPI PUSH1 0x20 SWAP1 PUSH1 0x3 SLOAD SWAP1 MLOAD SWAP1 DUP2 MSTORE RETURN JUMPDEST SWAP1 SWAP2 POP CALLVALUE PUSH2 0x8B6 JUMPI PUSH1 0x60 CALLDATASIZE PUSH1 0x3 NOT ADD SLT PUSH2 0x8B6 JUMPI DUP2 CALLDATALOAD SWAP2 PUSH1 0x24 SWAP2 PUSH1 0x1 PUSH1 0x1 PUSH1 0xA0 SHL SUB SWAP2 DUP4 CALLDATALOAD DUP4 DUP2 AND SUB PUSH2 0x469 JUMPI PUSH1 0x44 CALLDATALOAD SWAP5 DUP1 ISZERO PUSH2 0x887 JUMPI TIMESTAMP DUP7 GT ISZERO PUSH2 0x852 JUMPI PUSH1 0x1 DUP1 SLOAD DUP9 MLOAD PUSH4 0x3FABE5A3 PUSH1 0xE2 SHL DUP2 MSTORE SWAP2 SWAP6 AND PUSH1 0xA0 DUP3 DUP6 DUP2 DUP5 GAS STATICCALL SWAP2 DUP3 ISZERO PUSH2 0x7CC JUMPI DUP11 SWAP3 PUSH2 0x804 JUMPI JUMPDEST POP DUP10 DUP3 SGT ISZERO PUSH2 0x7D6 JUMPI SWAP1 PUSH1 0x20 DUP5 SWAP3 DUP11 MLOAD SWAP4 DUP5 DUP1 SWAP3 PUSH4 0x313CE567 PUSH1 0xE0 SHL DUP3 MSTORE GAS STATICCALL SWAP2 DUP3 ISZERO PUSH2 0x7CC JUMPI DUP11 SWAP3 PUSH2 0x78F JUMPI JUMPDEST POP DUP1 DUP4 MUL SWAP3 DUP4 DIV SUB PUSH2 0x77D JUMPI PUSH1 0xFF AND PUSH1 0x4D DUP2 GT PUSH2 0x77D JUMPI SWAP1 PUSH2 0x2AC SWAP2 PUSH1 0xA EXP SWAP1 PUSH2 0xA64 JUMP JUMPDEST SWAP4 TIMESTAMP DUP7 SUB SWAP6 DUP7 GT PUSH2 0x76C JUMPI POP PUSH1 0x1 PUSH1 0x1 PUSH1 0xC0 SHL SUB SWAP5 DUP6 DUP2 GT PUSH2 0x67B JUMPI PUSH4 0x1E13380 SWAP1 DUP8 SHL DIV JUMPDEST PUSH1 0x1 PUSH1 0x1 PUSH1 0x80 SHL SUB SWAP1 DUP2 DUP2 GT PUSH2 0x48D JUMPI DUP2 AND SWAP3 PUSH1 0x1 PUSH1 0x1 PUSH1 0x7F SHL SUB SWAP7 DUP8 DUP6 GT PUSH2 0x677 JUMPI PUSH1 0x2 DUP1 SLOAD SWAP1 SWAP3 SWAP1 DUP3 DUP2 GT PUSH2 0x58B JUMPI PUSH1 0x64 SWAP1 DUP12 SHL DIV JUMPDEST DUP5 DUP2 GT PUSH2 0x539 JUMPI DUP5 AND DUP10 DUP2 GT PUSH2 0x539 JUMPI PUSH2 0x32B SWAP1 PUSH1 0xF SWAP8 DUP9 SIGNEXTEND SWAP1 DUP9 SIGNEXTEND PUSH2 0xADD JUMP JUMPDEST PUSH1 0x1 PUSH1 0x1 PUSH1 0x7F SHL SUB NOT SWAP8 SWAP1 DUP1 DUP9 SIGNEXTEND DUP10 EQ PUSH2 0x587 JUMPI PUSH2 0x34C SWAP1 DUP14 SUB DUP9 SIGNEXTEND PUSH2 0xB05 JUMP JUMPDEST PUSH1 0x3 SLOAD SWAP1 SWAP7 SWAP1 SWAP4 DUP5 GT PUSH2 0x491 JUMPI POP POP POP PUSH1 0xC8 SWAP2 POP DUP9 SHL DIV JUMPDEST DUP2 DUP2 GT PUSH2 0x48D JUMPI AND DUP6 DUP2 GT PUSH2 0x477 JUMPI DUP3 SIGNEXTEND PUSH9 0x10000000000000000 SUB DUP4 DUP2 SLT ISZERO DUP1 PUSH2 0x483 JUMPI JUMPDEST ISZERO PUSH2 0x477 JUMPI DUP3 SIGNEXTEND SWAP4 DUP8 DUP6 SLT PUSH2 0x47B JUMPI JUMPDEST PUSH8 0x7FFFFFFFFFFFFFFF DUP2 GT PUSH2 0x477 JUMPI PUSH8 0xE666666666666666 SWAP2 PUSH2 0x3C0 SWAP2 DUP9 SHL DUP5 SIGNEXTEND PUSH2 0xADD JUMP JUMPDEST DUP3 SIGNEXTEND MUL DUP6 SAR DUP3 DUP2 SLT ISZERO DUP1 PUSH2 0x46D JUMPI JUMPDEST ISZERO PUSH2 0x469 JUMPI SWAP6 PUSH2 0x3F5 SWAP5 SWAP6 SWAP7 PUSH2 0x3FF PUSH2 0x3FA DUP7 PUSH8 0xFFFFFFFFFFFFFFFF SWAP9 DUP10 SWAP5 DUP8 SIGNEXTEND PUSH2 0xA9F JUMP JUMPDEST PUSH2 0xADD JUMP JUMPDEST PUSH2 0xA84 JUMP JUMPDEST AND SWAP6 PUSH18 0xA8BFFFFFFFFFFFFFB500000000000000000 DUP9 SAR SWAP4 DUP5 SLT ISZERO SWAP1 DUP2 PUSH2 0x45E JUMPI JUMPDEST POP ISZERO PUSH2 0x45B JUMPI POP SWAP2 PUSH2 0x3F5 PUSH2 0x3FA SWAP3 PUSH2 0x43A SWAP5 SIGNEXTEND PUSH2 0xA9F JUMP JUMPDEST AND PUSH2 0x2710 DUP1 DUP3 GT PUSH2 0x453 JUMPI JUMPDEST POP DUP3 MLOAD SWAP2 DUP3 MSTORE PUSH1 0x20 DUP3 ADD MSTORE RETURN JUMPDEST SWAP1 POP CODESIZE PUSH2 0x446 JUMP JUMPDEST DUP1 REVERT JUMPDEST SWAP1 POP DUP4 SGT ISZERO CODESIZE PUSH2 0x421 JUMP JUMPDEST DUP7 DUP1 REVERT JUMPDEST POP DUP5 DUP2 SGT ISZERO PUSH2 0x3CF JUMP JUMPDEST DUP8 DUP1 REVERT JUMPDEST DUP8 SWAP5 POP PUSH2 0x39A JUMP JUMPDEST POP DUP6 DUP2 SGT ISZERO PUSH2 0x38A JUMP JUMPDEST DUP9 DUP1 REVERT JUMPDEST DUP2 PUSH2 0x4F9 SWAP3 SWAP5 SWAP4 SWAP6 PUSH1 0xC0 SWAP3 DUP6 DUP5 SHR SWAP1 DUP2 SWAP9 PUSH5 0x100000000 DUP4 LT ISZERO PUSH2 0x57A JUMPI JUMPDEST POP PUSH3 0x10000 DUP3 LT ISZERO PUSH2 0x56B JUMPI JUMPDEST PUSH2 0x100 DUP3 LT ISZERO PUSH2 0x55C JUMPI JUMPDEST PUSH1 0x10 DUP3 LT ISZERO PUSH2 0x54F JUMPI JUMPDEST DUP3 SWAP1 DUP3 LT ISZERO PUSH2 0x544 JUMPI JUMPDEST POP LT ISZERO PUSH2 0x53D JUMPI JUMPDEST PUSH1 0xC7 PUSH1 0xBE NOT DUP4 ADD SHR ADD SWAP1 PUSH1 0xFF SUB DUP4 SWAP1 SHL PUSH2 0xA64 JUMP JUMPDEST SWAP3 DUP5 DUP5 GT PUSH2 0x539 JUMPI PUSH1 0xC8 DUP5 MUL SWAP2 DUP12 SHL SWAP1 DUP1 DUP4 DUP4 LT PUSH2 0x52D JUMPI JUMPDEST POP PUSH2 0x525 JUMPI PUSH1 0xC8 SWAP3 POP SUB DIV SWAP1 JUMPDEST ADD PUSH2 0x364 JUMP JUMPDEST POP POP SWAP1 PUSH2 0x51F JUMP JUMPDEST PUSH1 0x0 NOT ADD SWAP1 POP CODESIZE PUSH2 0x512 JUMP JUMPDEST DUP12 DUP1 REVERT JUMPDEST ADD DUP4 PUSH2 0x4E4 JUMP JUMPDEST SWAP4 DUP5 ADD SWAP4 SHR DUP2 PUSH2 0x4DC JUMP JUMPDEST SWAP4 DUP5 ADD SWAP4 SWAP1 DUP2 SHR SWAP1 PUSH2 0x4D2 JUMP JUMPDEST SWAP4 SWAP1 PUSH1 0x8 SWAP1 DUP2 SHR SWAP2 ADD SWAP4 PUSH2 0x4C8 JUMP JUMPDEST SWAP4 SWAP1 PUSH1 0x10 SWAP1 DUP2 SHR SWAP2 ADD SWAP4 PUSH2 0x4BD JUMP JUMPDEST SWAP5 POP DUP7 DUP6 SHR SWAP2 POP CODESIZE PUSH2 0x4B0 JUMP JUMPDEST DUP13 DUP1 REVERT JUMPDEST PUSH1 0xC0 DUP2 DUP2 SHR DUP1 SWAP2 DUP11 DUP8 PUSH5 0x100000000 DUP5 LT ISZERO PUSH2 0x667 JUMPI JUMPDEST DUP4 PUSH3 0x10000 PUSH2 0x5EF SWAP6 LT ISZERO PUSH2 0x65B JUMPI JUMPDEST PUSH2 0x100 DUP2 LT ISZERO PUSH2 0x64F JUMPI JUMPDEST DUP12 PUSH1 0x10 DUP3 LT ISZERO PUSH2 0x644 JUMPI JUMPDEST DUP3 SWAP1 DUP3 LT ISZERO PUSH2 0x639 JUMPI JUMPDEST POP LT ISZERO PUSH2 0x632 JUMPI JUMPDEST PUSH1 0x63 PUSH1 0xBE NOT DUP4 ADD SHR ADD SWAP1 PUSH1 0xFF SUB DUP5 SWAP1 SHL PUSH2 0xA64 JUMP JUMPDEST SWAP2 DUP14 DUP8 DUP5 GT PUSH2 0x45B JUMPI SWAP1 DUP14 SHL SWAP2 PUSH1 0x64 DUP5 MUL SWAP2 DUP2 DUP4 DUP6 LT PUSH2 0x626 JUMPI JUMPDEST POP POP PUSH2 0x61D JUMPI PUSH1 0x64 SWAP2 SUB DIV SWAP1 JUMPDEST ADD PUSH2 0x30A JUMP JUMPDEST POP POP DUP8 SWAP1 PUSH2 0x617 JUMP JUMPDEST PUSH1 0x0 NOT ADD SWAP2 POP CODESIZE PUSH2 0x60A JUMP JUMPDEST ADD DUP11 PUSH2 0x5DA JUMP JUMPDEST SWAP4 DUP5 ADD SWAP4 SHR DUP2 PUSH2 0x5D2 JUMP JUMPDEST SWAP4 DUP5 ADD SWAP4 SHR DUP12 PUSH2 0x5C8 JUMP JUMPDEST PUSH1 0x8 SWAP4 DUP5 ADD SWAP4 SHR PUSH2 0x5BD JUMP JUMPDEST PUSH1 0x10 SWAP4 DUP5 ADD SWAP4 SHR PUSH2 0x5B2 JUMP JUMPDEST POP POP POP DUP3 DUP5 SHR SWAP1 POP DUP4 DUP11 DUP8 PUSH2 0x5A2 JUMP JUMPDEST DUP10 DUP1 REVERT JUMPDEST PUSH1 0xC0 DUP2 DUP2 SHR DUP1 SWAP2 DUP7 PUSH5 0x100000000 DUP4 LT ISZERO PUSH2 0x75F JUMPI JUMPDEST PUSH1 0x2 DUP4 PUSH3 0x10000 PUSH2 0x6E0 SWAP6 LT ISZERO PUSH2 0x753 JUMPI JUMPDEST PUSH2 0x100 DUP2 LT ISZERO PUSH2 0x747 JUMPI JUMPDEST DUP8 PUSH1 0x10 DUP3 LT ISZERO PUSH2 0x73C JUMPI JUMPDEST DUP2 LT ISZERO PUSH2 0x731 JUMPI JUMPDEST LT ISZERO PUSH2 0x72A JUMPI JUMPDEST PUSH4 0x1E1337F PUSH1 0xBE NOT DUP4 ADD SHR ADD SWAP1 PUSH1 0xFF SUB DUP5 SWAP1 SHL PUSH2 0xA64 JUMP JUMPDEST SWAP2 PUSH1 0x1 PUSH1 0x1 PUSH1 0x80 SHL SUB DUP4 GT PUSH2 0x677 JUMPI PUSH4 0x1E13380 SWAP2 DUP4 DUP4 MUL SWAP2 DUP11 SHL SWAP1 DUP1 DUP4 DUP4 LT PUSH2 0x71E JUMPI JUMPDEST POP PUSH2 0x714 JUMPI SUB DIV SWAP1 JUMPDEST ADD PUSH2 0x2D2 JUMP JUMPDEST POP POP POP DUP4 SWAP1 PUSH2 0x70E JUMP JUMPDEST PUSH1 0x0 NOT ADD SWAP1 POP CODESIZE PUSH2 0x705 JUMP JUMPDEST ADD DUP7 PUSH2 0x6C8 JUMP JUMPDEST SWAP3 DUP2 ADD SWAP3 DUP2 SHR PUSH2 0x6C1 JUMP JUMPDEST SWAP4 DUP5 ADD SWAP4 SHR DUP8 PUSH2 0x6B9 JUMP JUMPDEST PUSH1 0x8 SWAP4 DUP5 ADD SWAP4 SHR PUSH2 0x6AE JUMP JUMPDEST PUSH1 0x10 SWAP4 DUP5 ADD SWAP4 SHR PUSH2 0x6A3 JUMP JUMPDEST POP POP POP DUP2 DUP5 SHR DUP5 DUP7 PUSH2 0x691 JUMP JUMPDEST PUSH4 0x4E487B71 PUSH1 0xE0 SHL DUP9 MSTORE PUSH1 0x11 DUP3 MSTORE DUP8 REVERT JUMPDEST PUSH4 0x4E487B71 PUSH1 0xE0 SHL DUP10 MSTORE PUSH1 0x11 DUP4 MSTORE DUP6 DUP10 REVERT JUMPDEST SWAP1 SWAP2 POP PUSH1 0x20 DUP2 RETURNDATASIZE DUP3 GT PUSH2 0x7C4 JUMPI JUMPDEST DUP2 PUSH2 0x7AA PUSH1 0x20 SWAP4 DUP4 PUSH2 0xA10 JUMP JUMPDEST DUP2 ADD SUB SLT PUSH2 0x677 JUMPI MLOAD PUSH1 0xFF DUP2 AND DUP2 SUB PUSH2 0x677 JUMPI SWAP1 CODESIZE PUSH2 0x287 JUMP JUMPDEST RETURNDATASIZE SWAP2 POP PUSH2 0x79D JUMP JUMPDEST DUP10 MLOAD RETURNDATASIZE DUP13 DUP3 RETURNDATACOPY RETURNDATASIZE SWAP1 REVERT JUMPDEST DUP9 MLOAD PUSH3 0x461BCD PUSH1 0xE5 SHL DUP2 MSTORE PUSH1 0x20 DUP2 DUP7 ADD MSTORE PUSH1 0x9 DUP2 DUP10 ADD MSTORE PUSH9 0x626164207072696365 PUSH1 0xB8 SHL PUSH1 0x44 DUP3 ADD MSTORE PUSH1 0x64 SWAP1 REVERT JUMPDEST SWAP1 SWAP2 POP PUSH1 0xA0 DUP2 RETURNDATASIZE DUP3 GT PUSH2 0x84A JUMPI JUMPDEST DUP2 PUSH2 0x81F PUSH1 0xA0 SWAP4 DUP4 PUSH2 0xA10 JUMP JUMPDEST DUP2 ADD SUB SLT PUSH2 0x677 JUMPI PUSH2 0x830 DUP2 PUSH2 0xA48 JUMP JUMPDEST POP PUSH2 0x842 PUSH1 0x80 PUSH1 0x20 DUP4 ADD MLOAD SWAP3 ADD PUSH2 0xA48 JUMP JUMPDEST POP SWAP1 CODESIZE PUSH2 0x259 JUMP JUMPDEST RETURNDATASIZE SWAP2 POP PUSH2 0x812 JUMP JUMPDEST DUP7 MLOAD PUSH3 0x461BCD PUSH1 0xE5 SHL DUP2 MSTORE PUSH1 0x20 DUP2 DUP5 ADD MSTORE PUSH1 0x10 DUP2 DUP8 ADD MSTORE PUSH16 0x185B1C9958591E481D5B9B1BD8DAD959 PUSH1 0x82 SHL PUSH1 0x44 DUP3 ADD MSTORE PUSH1 0x64 SWAP1 REVERT JUMPDEST DUP7 MLOAD PUSH3 0x461BCD PUSH1 0xE5 SHL DUP2 MSTORE PUSH1 0x20 DUP2 DUP5 ADD MSTORE PUSH1 0xA DUP2 DUP8 ADD MSTORE PUSH10 0x7175616E746974793D3 PUSH1 0xB4 SHL PUSH1 0x44 DUP3 ADD MSTORE PUSH1 0x64 SWAP1 REVERT JUMPDEST DUP4 DUP1 REVERT JUMPDEST POP SWAP1 POP CALLVALUE PUSH2 0x150 JUMPI PUSH1 0x20 CALLDATASIZE PUSH1 0x3 NOT ADD SLT PUSH2 0x150 JUMPI DUP1 CALLDATALOAD SWAP2 PUSH2 0x8D9 PUSH2 0x9E4 JUMP JUMPDEST PUSH1 0x64 DUP4 GT PUSH2 0x8E9 JUMPI POP POP PUSH1 0x3 SSTORE DUP1 RETURN JUMPDEST SWAP1 PUSH1 0x20 PUSH1 0x64 SWAP3 MLOAD SWAP2 PUSH3 0x461BCD PUSH1 0xE5 SHL DUP4 MSTORE DUP3 ADD MSTORE PUSH1 0xC PUSH1 0x24 DUP3 ADD MSTORE PUSH12 0xECDED840E8DEDE40D0D2CED PUSH1 0xA3 SHL PUSH1 0x44 DUP3 ADD MSTORE REVERT JUMPDEST POP POP POP CALLVALUE PUSH2 0xBD JUMPI DUP2 PUSH1 0x3 NOT CALLDATASIZE ADD SLT PUSH2 0xBD JUMPI SWAP1 SLOAD SWAP1 MLOAD PUSH1 0x1 PUSH1 0x1 PUSH1 0xA0 SHL SUB SWAP1 SWAP2 AND DUP2 MSTORE PUSH1 0x20 SWAP1 RETURN JUMPDEST POP POP POP CALLVALUE PUSH2 0xBD JUMPI DUP2 PUSH1 0x3 NOT CALLDATASIZE ADD SLT PUSH2 0xBD JUMPI PUSH1 0x1 SLOAD SWAP1 MLOAD PUSH1 0x1 PUSH1 0x1 PUSH1 0xA0 SHL SUB SWAP1 SWAP2 AND DUP2 MSTORE PUSH1 0x20 SWAP1 RETURN JUMPDEST DUP5 CALLVALUE PUSH2 0x45B JUMPI DUP1 PUSH1 0x3 NOT CALLDATASIZE ADD SLT PUSH2 0x45B JUMPI PUSH2 0x987 PUSH2 0x9E4 JUMP JUMPDEST DUP1 SLOAD PUSH1 0x1 PUSH1 0x1 PUSH1 0xA0 SHL SUB NOT DUP2 AND DUP3 SSTORE DUP2 SWAP1 PUSH1 0x1 PUSH1 0x1 PUSH1 0xA0 SHL SUB AND PUSH32 0x8BE0079C531659141344CD1FD0A4F28419497F9722A3DAAFE3B4186F6B6457E0 DUP3 DUP1 LOG3 DUP1 RETURN JUMPDEST DUP6 SWAP1 CALLVALUE PUSH2 0xBD JUMPI DUP2 PUSH1 0x3 NOT CALLDATASIZE ADD SLT PUSH2 0xBD JUMPI DUP1 PUSH2 0xBB8 PUSH1 0x20 SWAP3 MSTORE RETURN JUMPDEST PUSH1 0x0 SLOAD PUSH1 0x1 PUSH1 0x1 PUSH1 0xA0 SHL SUB AND CALLER SUB PUSH2 0x9F8 JUMPI JUMP JUMPDEST PUSH1 0x40 MLOAD PUSH4 0x118CDAA7 PUSH1 0xE0 SHL DUP2 MSTORE CALLER PUSH1 0x4 DUP3 ADD MSTORE PUSH1 0x24 SWAP1 REVERT JUMPDEST SWAP1 PUSH1 0x1F DUP1 NOT SWAP2 ADD AND DUP2 ADD SWAP1 DUP2 LT PUSH8 0xFFFFFFFFFFFFFFFF DUP3 GT OR PUSH2 0xA32 JUMPI PUSH1 0x40 MSTORE JUMP JUMPDEST PUSH4 0x4E487B71 PUSH1 0xE0 SHL PUSH1 0x0 MSTORE PUSH1 0x41 PUSH1 0x4 MSTORE PUSH1 0x24 PUSH1 0x0 REVERT JUMPDEST MLOAD SWAP1 PUSH10 0xFFFFFFFFFFFFFFFFFFFF DUP3 AND DUP3 SUB PUSH2 0xA5F JUMPI JUMP JUMPDEST PUSH1 0x0 DUP1 REVERT JUMPDEST DUP2 ISZERO PUSH2 0xA6E JUMPI DIV SWAP1 JUMP JUMPDEST PUSH4 0x4E487B71 PUSH1 0xE0 SHL PUSH1 0x0 MSTORE PUSH1 0x12 PUSH1 0x4 MSTORE PUSH1 0x24 PUSH1 0x0 REVERT JUMPDEST PUSH1 0xF SIGNEXTEND PUSH1 0x0 DUP2 SLT PUSH2 0xA5F JUMPI PUSH1 0x40 SAR PUSH8 0xFFFFFFFFFFFFFFFF AND SWAP1 JUMP JUMPDEST PUSH1 0xF SIGNEXTEND PUSH8 0xF333333333333333 MUL PUSH1 0x40 SAR PUSH1 0x1 PUSH1 0x1 PUSH1 0x7F SHL SUB NOT DUP2 SLT ISZERO DUP1 PUSH2 0xACC JUMPI JUMPDEST ISZERO PUSH2 0xA5F JUMPI PUSH1 0xF SIGNEXTEND SWAP1 JUMP JUMPDEST POP PUSH1 0x1 PUSH1 0x1 PUSH1 0x7F SHL SUB DUP2 SGT ISZERO PUSH2 0xAC1 JUMP JUMPDEST SWAP1 PUSH1 0xF SIGNEXTEND SWAP1 PUSH1 0xF SIGNEXTEND MUL PUSH1 0x40 SAR PUSH1 0x1 PUSH1 0x1 PUSH1 0x7F SHL SUB NOT DUP2 SLT ISZERO DUP1 PUSH2 0xACC JUMPI ISZERO PUSH2 0xA5F JUMPI PUSH1 0xF SIGNEXTEND SWAP1 JUMP JUMPDEST PUSH1 0xF SIGNEXTEND PUSH1 0x1 PUSH1 0x46 SHL DUP2 SLT ISZERO PUSH2 0xA5F JUMPI PUSH9 0x3FFFFFFFFFFFFFFFFF NOT DUP2 SLT PUSH2 0xB4A JUMPI PUSH17 0x171547652B82FE1777D0FFDA0D23A7D12 PUSH2 0xB47 SWAP2 MUL PUSH1 0x80 SAR PUSH1 0xF SIGNEXTEND PUSH2 0xB50 JUMP JUMPDEST SWAP1 JUMP JUMPDEST POP PUSH1 0x0 SWAP1 JUMP JUMPDEST PUSH1 0xF DUP2 DUP2 SIGNEXTEND PUSH1 0x1 PUSH1 0x46 SHL DUP2 SLT ISZERO PUSH2 0xA5F JUMPI PUSH9 0x3FFFFFFFFFFFFFFFFF NOT DUP2 SLT PUSH2 0x16F2 JUMPI PUSH1 0x1 PUSH1 0x7F SHL SWAP1 PUSH1 0x0 SWAP4 DUP5 PUSH8 0x8000000000000000 DUP3 AND DUP6 SIGNEXTEND SGT PUSH2 0x16DA JUMPI JUMPDEST DUP5 PUSH8 0x4000000000000000 DUP3 AND DUP6 SIGNEXTEND SGT PUSH2 0x16BD JUMPI JUMPDEST DUP5 PUSH8 0x2000000000000000 DUP3 AND DUP6 SIGNEXTEND SGT PUSH2 0x16A0 JUMPI JUMPDEST DUP5 PUSH8 0x1000000000000000 DUP3 AND DUP6 SIGNEXTEND SGT PUSH2 0x1683 JUMPI JUMPDEST DUP5 PUSH8 0x800000000000000 DUP3 AND DUP6 SIGNEXTEND SGT PUSH2 0x1666 JUMPI JUMPDEST DUP5 PUSH8 0x400000000000000 DUP3 AND DUP6 SIGNEXTEND SGT PUSH2 0x1649 JUMPI JUMPDEST DUP5 PUSH8 0x200000000000000 DUP3 AND DUP6 SIGNEXTEND SGT PUSH2 0x162C JUMPI JUMPDEST DUP5 PUSH8 0x100000000000000 DUP3 AND DUP6 SIGNEXTEND SGT PUSH2 0x160F JUMPI JUMPDEST DUP5 PUSH7 0x80000000000000 DUP3 AND DUP6 SIGNEXTEND SGT PUSH2 0x15F2 JUMPI JUMPDEST DUP5 PUSH7 0x40000000000000 DUP3 AND DUP6 SIGNEXTEND SGT PUSH2 0x15D5 JUMPI JUMPDEST DUP5 PUSH7 0x20000000000000 DUP3 AND DUP6 SIGNEXTEND SGT PUSH2 0x15B8 JUMPI JUMPDEST DUP5 PUSH7 0x10000000000000 DUP3 AND DUP6 SIGNEXTEND SGT PUSH2 0x159B JUMPI JUMPDEST DUP5 PUSH7 0x8000000000000 DUP3 AND DUP6 SIGNEXTEND SGT PUSH2 0x157E JUMPI JUMPDEST DUP5 PUSH7 0x4000000000000 DUP3 AND DUP6 SIGNEXTEND SGT PUSH2 0x1561 JUMPI JUMPDEST DUP5 PUSH7 0x2000000000000 DUP3 AND DUP6 SIGNEXTEND SGT PUSH2 0x1544 JUMPI JUMPDEST DUP5 PUSH7 0x1000000000000 DUP3 AND DUP6 SIGNEXTEND SGT PUSH2 0x1527 JUMPI JUMPDEST DUP5 PUSH6 0x800000000000 DUP3 AND DUP6 SIGNEXTEND SGT PUSH2 0x150A JUMPI JUMPDEST DUP5 PUSH6 0x400000000000 DUP3 AND DUP6 SIGNEXTEND SGT PUSH2 0x14ED JUMPI JUMPDEST DUP5 PUSH6 0x200000000000 DUP3 AND DUP6 SIGNEXTEND SGT PUSH2 0x14D0 JUMPI JUMPDEST DUP5 PUSH6 0x100000000000 DUP3 AND DUP6 SIGNEXTEND SGT PUSH2 0x14B3 JUMPI JUMPDEST DUP5 PUSH6 0x80000000000 DUP3 AND DUP6 SIGNEXTEND SGT PUSH2 0x1496 JUMPI JUMPDEST DUP5 PUSH6 0x40000000000 DUP3 AND DUP6 SIGNEXTEND SGT PUSH2 0x1479 JUMPI JUMPDEST DUP5 PUSH6 0x20000000000 DUP3 AND DUP6 SIGNEXTEND SGT PUSH2 0x145C JUMPI JUMPDEST DUP5 PUSH6 0x10000000000 DUP3 AND DUP6 SIGNEXTEND SGT PUSH2 0x143F JUMPI JUMPDEST DUP5 PUSH5 0x8000000000 DUP3 AND DUP6 SIGNEXTEND SGT PUSH2 0x1422 JUMPI JUMPDEST DUP5 PUSH5 0x4000000000 DUP3 AND DUP6 SIGNEXTEND SGT PUSH2 0x1405 JUMPI JUMPDEST DUP5 PUSH5 0x2000000000 DUP3 AND DUP6 SIGNEXTEND SGT PUSH2 0x13E8 JUMPI JUMPDEST DUP5 PUSH5 0x1000000000 DUP3 AND DUP6 SIGNEXTEND SGT PUSH2 0x13CB JUMPI JUMPDEST DUP5 PUSH5 0x800000000 DUP3 AND DUP6 SIGNEXTEND SGT PUSH2 0x13AE JUMPI JUMPDEST DUP5 PUSH5 0x400000000 DUP3 AND DUP6 SIGNEXTEND SGT PUSH2 0x1391 JUMPI JUMPDEST DUP5 PUSH5 0x200000000 DUP3 AND DUP6 SIGNEXTEND SGT PUSH2 0x1374 JUMPI JUMPDEST DUP5 PUSH5 0x100000000 DUP3 AND DUP6 SIGNEXTEND SGT PUSH2 0x1357 JUMPI JUMPDEST DUP5 PUSH4 0x80000000 DUP3 AND DUP6 SIGNEXTEND SGT PUSH2 0x133A JUMPI JUMPDEST DUP5 PUSH4 0x40000000 DUP3 AND DUP6 SIGNEXTEND SGT PUSH2 0x131D JUMPI JUMPDEST DUP5 PUSH4 0x20000000 DUP3 AND DUP6 SIGNEXTEND SGT PUSH2 0x1300 JUMPI JUMPDEST DUP5 PUSH4 0x10000000 DUP3 AND DUP6 SIGNEXTEND SGT PUSH2 0x12E3 JUMPI JUMPDEST DUP5 PUSH4 0x8000000 DUP3 AND DUP6 SIGNEXTEND SGT PUSH2 0x12C6 JUMPI JUMPDEST DUP5 PUSH4 0x4000000 DUP3 AND DUP6 SIGNEXTEND SGT PUSH2 0x12A9 JUMPI JUMPDEST DUP5 PUSH4 0x2000000 DUP3 AND DUP6 SIGNEXTEND SGT PUSH2 0x128C JUMPI JUMPDEST DUP5 PUSH4 0x1000000 DUP3 AND DUP6 SIGNEXTEND SGT PUSH2 0x126F JUMPI JUMPDEST DUP5 PUSH3 0x800000 DUP3 AND DUP6 SIGNEXTEND SGT PUSH2 0x1252 JUMPI JUMPDEST DUP5 PUSH3 0x400000 DUP3 AND DUP6 SIGNEXTEND SGT PUSH2 0x1235 JUMPI JUMPDEST DUP5 PUSH3 0x200000 DUP3 AND DUP6 SIGNEXTEND SGT PUSH2 0x1218 JUMPI JUMPDEST DUP5 PUSH3 0x100000 DUP3 AND DUP6 SIGNEXTEND SGT PUSH2 0x11FB JUMPI JUMPDEST DUP5 PUSH3 0x80000 DUP3 AND DUP6 SIGNEXTEND SGT PUSH2 0x11DE JUMPI JUMPDEST DUP5 PUSH3 0x40000 DUP3 AND DUP6 SIGNEXTEND SGT PUSH2 0x11C1 JUMPI JUMPDEST DUP5 PUSH3 0x20000 DUP3 AND DUP6 SIGNEXTEND SGT PUSH2 0x11A4 JUMPI JUMPDEST DUP5 PUSH3 0x10000 DUP3 AND DUP6 SIGNEXTEND SGT PUSH2 0x1187 JUMPI JUMPDEST DUP5 PUSH2 0x8000 DUP3 AND DUP6 SIGNEXTEND SGT PUSH2 0x116A JUMPI JUMPDEST DUP5 PUSH2 0x4000 DUP3 AND DUP6 SIGNEXTEND SGT PUSH2 0x114D JUMPI JUMPDEST DUP5 PUSH2 0x2000 DUP3 AND DUP6 SIGNEXTEND SGT PUSH2 0x1130 JUMPI JUMPDEST DUP5 PUSH2 0x1000 DUP3 AND DUP6 SIGNEXTEND SGT PUSH2 0x1113 JUMPI JUMPDEST DUP5 PUSH2 0x800 DUP3 AND DUP6 SIGNEXTEND SGT PUSH2 0x10F6 JUMPI JUMPDEST DUP5 PUSH2 0x400 DUP3 AND DUP6 SIGNEXTEND SGT PUSH2 0x10D9 JUMPI JUMPDEST DUP5 PUSH2 0x200 DUP3 AND DUP6 SIGNEXTEND SGT PUSH2 0x10BC JUMPI JUMPDEST DUP5 PUSH2 0x100 DUP3 AND DUP6 SIGNEXTEND SGT PUSH2 0x109F JUMPI JUMPDEST DUP5 PUSH1 0x80 SWAP2 DUP2 DUP4 DUP3 AND DUP8 SIGNEXTEND SGT PUSH2 0x1083 JUMPI JUMPDEST DUP2 PUSH1 0x40 DUP3 AND DUP8 SIGNEXTEND SGT PUSH2 0x1067 JUMPI JUMPDEST DUP2 PUSH1 0x20 DUP3 AND DUP8 SIGNEXTEND SGT PUSH2 0x104B JUMPI JUMPDEST DUP2 PUSH1 0x10 DUP3 AND DUP8 SIGNEXTEND SGT PUSH2 0x102F JUMPI JUMPDEST DUP2 PUSH1 0x8 DUP3 AND DUP8 SIGNEXTEND SGT PUSH2 0x1013 JUMPI JUMPDEST DUP2 PUSH1 0x4 DUP3 AND DUP8 SIGNEXTEND SGT PUSH2 0xFF7 JUMPI JUMPDEST DUP2 PUSH1 0x2 DUP3 AND DUP8 SIGNEXTEND SGT PUSH2 0xFDA JUMPI JUMPDEST PUSH1 0x1 AND DUP6 SIGNEXTEND SGT PUSH2 0xFBC JUMPI JUMPDEST POP PUSH1 0x40 SAR DUP3 SIGNEXTEND PUSH1 0x3F SUB DUP3 SIGNEXTEND SHR SWAP2 PUSH1 0x1 PUSH1 0x1 PUSH1 0x7F SHL SUB DUP4 GT PUSH2 0x45B JUMPI POP SIGNEXTEND SWAP1 JUMP JUMPDEST SWAP1 SWAP2 PUSH17 0x10000000000000000B17217F7D1CF79AB MUL SWAP1 SHR SWAP1 CODESIZE PUSH2 0xF9C JUMP JUMPDEST PUSH17 0x1000000000000000162E42FEFA39EF358 SWAP1 SWAP5 MUL DUP3 SHR SWAP4 PUSH2 0xF91 JUMP JUMPDEST SWAP4 PUSH17 0x10000000000000002C5C85FDF473DE6B2 MUL DUP3 SHR SWAP4 PUSH2 0xF84 JUMP JUMPDEST SWAP4 PUSH17 0x100000000000000058B90BFBE8E7BCD6D MUL DUP3 SHR SWAP4 PUSH2 0xF77 JUMP JUMPDEST SWAP4 PUSH17 0x1000000000000000B17217F7D1CF79AFA MUL DUP3 SHR SWAP4 PUSH2 0xF6A JUMP JUMPDEST SWAP4 PUSH17 0x100000000000000162E42FEFA39EF366F MUL DUP3 SHR SWAP4 PUSH2 0xF5D JUMP JUMPDEST SWAP4 PUSH17 0x1000000000000002C5C85FDF473DE6ECA MUL DUP3 SHR SWAP4 PUSH2 0xF50 JUMP JUMPDEST SWAP4 PUSH17 0x10000000000000058B90BFBE8E7BCE544 MUL DUP3 SHR SWAP4 PUSH2 0xF43 JUMP JUMPDEST SWAP2 PUSH17 0x100000000000000B17217F7D1CF79E949 MUL PUSH1 0x80 SHR SWAP2 PUSH2 0xF33 JUMP JUMPDEST SWAP2 PUSH17 0x10000000000000162E42FEFA39EF44D91 MUL PUSH1 0x80 SHR SWAP2 PUSH2 0xF25 JUMP JUMPDEST SWAP2 PUSH17 0x100000000000002C5C85FDF473DEA871F MUL PUSH1 0x80 SHR SWAP2 PUSH2 0xF17 JUMP JUMPDEST SWAP2 PUSH17 0x1000000000000058B90BFBE8E7BDCBE2E MUL PUSH1 0x80 SHR SWAP2 PUSH2 0xF09 JUMP JUMPDEST SWAP2 PUSH17 0x10000000000000B17217F7D1CF7D83C1A MUL PUSH1 0x80 SHR SWAP2 PUSH2 0xEFB JUMP JUMPDEST SWAP2 PUSH17 0x1000000000000162E42FEFA39F02B772C MUL PUSH1 0x80 SHR SWAP2 PUSH2 0xEED JUMP JUMPDEST SWAP2 PUSH17 0x10000000000002C5C85FDF473E242EA38 MUL PUSH1 0x80 SHR SWAP2 PUSH2 0xEDF JUMP JUMPDEST SWAP2 PUSH17 0x100000000000058B90BFBE8E7CC35C3F0 MUL PUSH1 0x80 SHR SWAP2 PUSH2 0xED1 JUMP JUMPDEST SWAP2 PUSH17 0x1000000000000B17217F7D1CFB72B45E1 MUL PUSH1 0x80 SHR SWAP2 PUSH2 0xEC3 JUMP JUMPDEST SWAP2 PUSH17 0x100000000000162E42FEFA39FE95583C2 MUL PUSH1 0x80 SHR SWAP2 PUSH2 0xEB4 JUMP JUMPDEST SWAP2 PUSH17 0x1000000000002C5C85FDF4741BEA6E77E MUL PUSH1 0x80 SHR SWAP2 PUSH2 0xEA5 JUMP JUMPDEST SWAP2 PUSH17 0x10000000000058B90BFBE8E8B2D3D4EDE MUL PUSH1 0x80 SHR SWAP2 PUSH2 0xE96 JUMP JUMPDEST SWAP2 PUSH17 0x100000000000B17217F7D1D351A389D40 MUL PUSH1 0x80 SHR SWAP2 PUSH2 0xE87 JUMP JUMPDEST SWAP2 PUSH17 0x10000000000162E42FEFA3AE53369388C MUL PUSH1 0x80 SHR SWAP2 PUSH2 0xE78 JUMP JUMPDEST SWAP2 PUSH17 0x100000000002C5C85FDF477B662B26945 MUL PUSH1 0x80 SHR SWAP2 PUSH2 0xE69 JUMP JUMPDEST SWAP2 PUSH17 0x1000000000058B90BFBE8F71CB4E4B33D MUL PUSH1 0x80 SHR SWAP2 PUSH2 0xE5A JUMP JUMPDEST SWAP2 PUSH17 0x10000000000B17217F7D20CF927C8E94C MUL PUSH1 0x80 SHR SWAP2 PUSH2 0xE4B JUMP JUMPDEST SWAP2 PUSH17 0x1000000000162E42FEFA494F1478FDE05 MUL PUSH1 0x80 SHR SWAP2 PUSH2 0xE3B JUMP JUMPDEST SWAP2 PUSH17 0x10000000002C5C85FDF4B15DE6F17EB0D MUL PUSH1 0x80 SHR SWAP2 PUSH2 0xE2B JUMP JUMPDEST SWAP2 PUSH17 0x100000000058B90BFBE9DDBAC5E109CCE MUL PUSH1 0x80 SHR SWAP2 PUSH2 0xE1B JUMP JUMPDEST SWAP2 PUSH17 0x1000000000B17217F7D5A7716BBA4A9AE MUL PUSH1 0x80 SHR SWAP2 PUSH2 0xE0B JUMP JUMPDEST SWAP2 PUSH17 0x100000000162E42FEFB2FED257559BDAA MUL PUSH1 0x80 SHR SWAP2 PUSH2 0xDFB JUMP JUMPDEST SWAP2 PUSH17 0x1000000002C5C85FDF84BD62AE30A74CC MUL PUSH1 0x80 SHR SWAP2 PUSH2 0xDEB JUMP JUMPDEST SWAP2 PUSH17 0x10000000058B90BFBF8479BD5A81B51AD MUL PUSH1 0x80 SHR SWAP2 PUSH2 0xDDB JUMP JUMPDEST SWAP2 PUSH17 0x100000000B17217F80F4EF5AADDA45554 MUL PUSH1 0x80 SHR SWAP2 PUSH2 0xDCB JUMP JUMPDEST SWAP2 PUSH17 0x10000000162E42FF0999CE3541B9FFFCF MUL PUSH1 0x80 SHR SWAP2 PUSH2 0xDBA JUMP JUMPDEST SWAP2 PUSH17 0x100000002C5C85FE31F35A6A30DA1BE50 MUL PUSH1 0x80 SHR SWAP2 PUSH2 0xDA9 JUMP JUMPDEST SWAP2 PUSH17 0x1000000058B90BFCDEE5ACD3C1CEDC823 MUL PUSH1 0x80 SHR SWAP2 PUSH2 0xD98 JUMP JUMPDEST SWAP2 PUSH17 0x10000000B17217FBA9C739AA5819F44F9 MUL PUSH1 0x80 SHR SWAP2 PUSH2 0xD87 JUMP JUMPDEST SWAP2 PUSH17 0x1000000162E42FFF037DF38AA2B219F06 MUL PUSH1 0x80 SHR SWAP2 PUSH2 0xD76 JUMP JUMPDEST SWAP2 PUSH17 0x10000002C5C8601CC6B9E94213C72737A MUL PUSH1 0x80 SHR SWAP2 PUSH2 0xD65 JUMP JUMPDEST SWAP2 PUSH17 0x100000058B90C0B48C6BE5DF846C5B2EF MUL PUSH1 0x80 SHR SWAP2 PUSH2 0xD54 JUMP JUMPDEST SWAP2 PUSH17 0x1000000B1721835514B86E6D96EFD1BFE MUL PUSH1 0x80 SHR SWAP2 PUSH2 0xD43 JUMP JUMPDEST SWAP2 PUSH17 0x100000162E430E5A18F6119E3C02282A5 MUL PUSH1 0x80 SHR SWAP2 PUSH2 0xD31 JUMP JUMPDEST SWAP2 PUSH17 0x1000002C5C863B73F016468F6BAC5CA2B MUL PUSH1 0x80 SHR SWAP2 PUSH2 0xD1F JUMP JUMPDEST SWAP2 PUSH17 0x10000058B90CF1E6D97F9CA14DBCC1628 MUL PUSH1 0x80 SHR SWAP2 PUSH2 0xD0D JUMP JUMPDEST SWAP2 PUSH17 0x100000B1721BCFC99D9F890EA06911763 MUL PUSH1 0x80 SHR SWAP2 PUSH2 0xCFB JUMP JUMPDEST SWAP2 PUSH17 0x10000162E43F4F831060E02D839A9D16D MUL PUSH1 0x80 SHR SWAP2 PUSH2 0xCE9 JUMP JUMPDEST SWAP2 PUSH17 0x100002C5C89D5EC6CA4D7C8ACC017B7C9 MUL PUSH1 0x80 SHR SWAP2 PUSH2 0xCD7 JUMP JUMPDEST SWAP2 PUSH17 0x1000058B91B5BC9AE2EED81E9B7D4CFAB MUL PUSH1 0x80 SHR SWAP2 PUSH2 0xCC5 JUMP JUMPDEST SWAP2 PUSH17 0x10000B17255775C040618BF4A4ADE83FC MUL PUSH1 0x80 SHR SWAP2 PUSH2 0xCB3 JUMP JUMPDEST SWAP2 PUSH17 0x1000162E525EE054754457D5995292026 MUL PUSH1 0x80 SHR SWAP2 PUSH2 0xCA0 JUMP JUMPDEST SWAP2 PUSH17 0x10002C5CC37DA9491D0985C348C68E7B3 MUL PUSH1 0x80 SHR SWAP2 PUSH2 0xC8D JUMP JUMPDEST SWAP2 PUSH17 0x100058BA01FB9F96D6CACD4B180917C3D MUL PUSH1 0x80 SHR SWAP2 PUSH2 0xC7A JUMP JUMPDEST SWAP2 PUSH17 0x1000B175EFFDC76BA38E31671CA939725 MUL PUSH1 0x80 SHR SWAP2 PUSH2 0xC67 JUMP JUMPDEST SWAP2 PUSH17 0x100162F3904051FA128BCA9C55C31E5DF MUL PUSH1 0x80 SHR SWAP2 PUSH2 0xC54 JUMP JUMPDEST SWAP2 PUSH17 0x1002C605E2E8CEC506D21BFC89A23A00F MUL PUSH1 0x80 SHR SWAP2 PUSH2 0xC41 JUMP JUMPDEST SWAP2 PUSH17 0x10058C86DA1C09EA1FF19D294CF2F679B MUL PUSH1 0x80 SHR SWAP2 PUSH2 0xC2E JUMP JUMPDEST SWAP2 PUSH17 0x100B1AFA5ABCBED6129AB13EC11DC9543 MUL PUSH1 0x80 SHR SWAP2 PUSH2 0xC1B JUMP JUMPDEST SWAP2 PUSH17 0x10163DA9FB33356D84A66AE336DCDFA3F MUL PUSH1 0x80 SHR SWAP2 PUSH2 0xC07 JUMP JUMPDEST SWAP2 PUSH17 0x102C9A3E778060EE6F7CACA4F7A29BDE8 MUL PUSH1 0x80 SHR SWAP2 PUSH2 0xBF3 JUMP JUMPDEST SWAP2 PUSH17 0x1059B0D31585743AE7C548EB68CA417FD MUL PUSH1 0x80 SHR SWAP2 PUSH2 0xBDF JUMP JUMPDEST SWAP2 PUSH17 0x10B5586CF9890F6298B92B71842A98363 MUL PUSH1 0x80 SHR SWAP2 PUSH2 0xBCB JUMP JUMPDEST SWAP2 PUSH17 0x1172B83C7D517ADCDF7C8C50EB14A791F MUL PUSH1 0x80 SHR SWAP2 PUSH2 0xBB7 JUMP JUMPDEST SWAP2 PUSH17 0x1306FE0A31B7152DE8D5A46305C85EDEC MUL PUSH1 0x80 SHR SWAP2 PUSH2 0xBA3 JUMP JUMPDEST PUSH16 0xB504F333F9DE6484597D89B3754ABE9F SWAP3 POP PUSH2 0xB8F JUMP JUMPDEST POP POP POP PUSH1 0x0 SWAP1 JUMP INVALID LOG2 PUSH5 0x6970667358 0x22 SLT KECCAK256 SUB 0x2E ISZERO CALLDATASIZE EQ DUP10 0x29 0xAB PUSH5 0x74B856F4F1 PUSH17 0xE0130E9992EB1D14DBD63E08206C918944 PUSH5 0x736F6C6343 STOP ADDMOD EQ STOP CALLER "},"gasEstimates":{"creation":{"codeDepositCost":"1187200","executionCost":"infinite","totalCost":"infinite"},"external":{"BASE_LTV_BPS()":"174","BPS_DENOMINATOR()":"333","computeDPV(uint256,address,uint256)":"infinite","owner()":"2372","priceFeed()":"2350","renounceOwnership()":"28103","riskFreeRate()":"2500","setRiskFreeRate(uint256)":"24636","setVolatility(uint256)":"24548","transferOwnership(address)":"28358","volatility()":"2417"}},"methodIdentifiers":{"BASE_LTV_BPS()":"22e9d5bf","BPS_DENOMINATOR()":"e1a45218","computeDPV(uint256,address,uint256)":"bfd847a8","owner()":"8da5cb5b","priceFeed()":"741bef1a","renounceOwnership()":"715018a6","riskFreeRate()":"f3cc6993","setRiskFreeRate(uint256)":"e1ea1cf5","setVolatility(uint256)":"9fdcadc4","transferOwnership(address)":"f2fde38b","volatility()":"cce99230"}},"storageLayout":{"storage":[{"astId":54,"contract":"contracts/ValuationEngine.sol:ValuationEngine","label":"_owner","offset":0,"slot":"0","type":"t_address"},{"astId":8851,"contract":"contracts/ValuationEngine.sol:ValuationEngine","label":"priceFeed","offset":0,"slot":"1","type":"t_contract(AggregatorV3Interface)45"},{"astId":8854,"contract":"contracts/ValuationEngine.sol:ValuationEngine","label":"riskFreeRate","offset":0,"slot":"2","type":"t_uint256"},{"astId":8857,"contract":"contracts/ValuationEngine.sol:ValuationEngine","label":"volatility","offset":0,"slot":"3","type":"t_uint256"}],"types":{"t_address":{"encoding":"inplace","label":"address","numberOfBytes":"20"},"t_contract(AggregatorV3Interface)45":{"encoding":"inplace","label":"contract AggregatorV3Interface","numberOfBytes":"20"},"t_uint256":{"encoding":"inplace","label":"uint256","numberOfBytes":"32"}}},"userdoc":{"kind":"user","methods":{},"version":1}}}}