{"contracts/mocks/MockVestingWallet.sol":{"MockVestingWallet":{"abi":[{"inputs":[{"internalType":"address","name":"_beneficiary","type":"address"},{"internalType":"uint256","name":"_start","type":"uint256"},{"internalType":"uint256","name":"_duration","type":"uint256"},{"internalType":"address","name":"_token","type":"address"},{"internalType":"uint256","name":"_totalAllocation","type":"uint256"}],"stateMutability":"nonpayable","type":"constructor"},{"inputs":[],"name":"beneficiary","outputs":[{"internalType":"address","name":"","type":"address"}],"stateMutability":"view","type":"function"},{"inputs":[],"name":"duration","outputs":[{"internalType":"uint256","name":"","type":"uint256"}],"stateMutability":"view","type":"function"},{"inputs":[{"internalType":"uint256","name":"amount","type":"uint256"}],"name":"release","outputs":[],"stateMutability":"nonpayable","type":"function"},{"inputs":[{"internalType":"address","name":"to","type":"address"},{"internalType":"uint256","name":"amount","type":"uint256"}],"name":"releaseTo","outputs":[],"stateMutability":"nonpayable","type":"function"},{"inputs":[{"internalType":"address","name":"","type":"address"}],"name":"released","outputs":[{"internalType":"uint256","name":"","type":"uint256"}],"stateMutability":"view","type":"function"},{"inputs":[{"internalType":"uint256","name":"amount","type":"uint256"}],"name":"setReleased","outputs":[],"stateMutability":"nonpayable","type":"function"},{"inputs":[],"name":"start","outputs":[{"internalType":"uint256","name":"","type":"uint256"}],"stateMutability":"view","type":"function"},{"inputs":[],"name":"token","outputs":[{"internalType":"address","name":"","type":"address"}],"stateMutability":"view","type":"function"},{"inputs":[],"name":"totalAllocation","outputs":[{"internalType":"uint256","name":"","type":"uint256"}],"stateMutability":"view","type":"function"}],"devdoc":{"kind":"dev","methods":{},"version":1},"evm":{"bytecode":{"linkReferences":{},"object":"6080346100a257601f61047438819003918201601f19168301916001600160401b038311848410176100a75780849260a0946040528339810103126100a257610047816100bd565b60208201516040830151926080610060606083016100bd565b9101519360018060a01b03928360018060a01b03199516856000541617600055600155600255169060035416176003556004556040516103a290816100d28239f35b600080fd5b634e487b7160e01b600052604160045260246000fd5b51906001600160a01b03821682036100a25756fe60806040818152600436101561001457600080fd5b600091823560e01c9081630fb5a6b4146101cd5750806337bdc99b146101a357806338af3eed1461017c578063474d896c1461014d5780634e06bad11461012357806379203dc4146101055780639852595c146100ce578063be9a6555146100b05763fc0c546a1461008557600080fd5b346100ac57816003193601126100ac5760035490516001600160a01b039091168152602090f35b5080fd5b50346100ac57816003193601126100ac576020906001549051908152f35b50346100ac5760203660031901126100ac5760209181906001600160a01b036100f56101e9565b1681526005845220549051908152f35b50346100ac57816003193601126100ac576020906004549051908152f35b50346100ac5736600319011261014a5761014761013e6101e9565b60243590610227565b80f35b80fd5b50346100ac5760203660031901126100ac576003546001600160a01b0316825260056020528120600435905580f35b50346100ac57816003193601126100ac57905490516001600160a01b039091168152602090f35b823461014a57602036600319011261014a57805461014790600435906001600160a01b0316610227565b8390346100ac57816003193601126100ac576020906002548152f35b600435906001600160a01b03821682036101ff57565b600080fd5b9190820180921161021157565b634e487b7160e01b600052601160045260246000fd5b6001600160a01b03919082169081156103415761024960015460025490610204565b421061030f57602090604484600354169460009586526005845260408620610272848254610204565b9055600354169385604051958694859363a9059cbb60e01b8552600485015260248401525af18015610304576102a6575050565b60203d81116102fd575b601f8101601f1916820167ffffffffffffffff8111838210176102e9576020918391604052810103126100ac57518015150361014a5750565b634e487b7160e01b84526041600452602484fd5b503d6102b0565b6040513d84823e3d90fd5b60405162461bcd60e51b815260206004820152600a6024820152691b9bdd081d995cdd195960b21b6044820152606490fd5b606460405162461bcd60e51b81526020600482015260046024820152630746f3d360e41b6044820152fdfea2646970667358221220c22f5e460a5a2b8dfc58c8ef90d2b86a735daf4e83bf92b25a9e3d744a99d53b64736f6c63430008140033","opcodes":"PUSH1 0x80 CALLVALUE PUSH2 0xA2 JUMPI PUSH1 0x1F PUSH2 0x474 CODESIZE DUP2 SWAP1 SUB SWAP2 DUP3 ADD PUSH1 0x1F NOT AND DUP4 ADD SWAP2 PUSH1 0x1 PUSH1 0x1 PUSH1 0x40 SHL SUB DUP4 GT DUP5 DUP5 LT OR PUSH2 0xA7 JUMPI DUP1 DUP5 SWAP3 PUSH1 0xA0 SWAP5 PUSH1 0x40 MSTORE DUP4 CODECOPY DUP2 ADD SUB SLT PUSH2 0xA2 JUMPI PUSH2 0x47 DUP2 PUSH2 0xBD JUMP JUMPDEST PUSH1 0x20 DUP3 ADD MLOAD PUSH1 0x40 DUP4 ADD MLOAD SWAP3 PUSH1 0x80 PUSH2 0x60 PUSH1 0x60 DUP4 ADD PUSH2 0xBD JUMP JUMPDEST SWAP2 ADD MLOAD SWAP4 PUSH1 0x1 DUP1 PUSH1 0xA0 SHL SUB SWAP3 DUP4 PUSH1 0x1 DUP1 PUSH1 0xA0 SHL SUB NOT SWAP6 AND DUP6 PUSH1 0x0 SLOAD AND OR PUSH1 0x0 SSTORE PUSH1 0x1 SSTORE PUSH1 0x2 SSTORE AND SWAP1 PUSH1 0x3 SLOAD AND OR PUSH1 0x3 SSTORE PUSH1 0x4 SSTORE PUSH1 0x40 MLOAD PUSH2 0x3A2 SWAP1 DUP2 PUSH2 0xD2 DUP3 CODECOPY RETURN JUMPDEST PUSH1 0x0 DUP1 REVERT JUMPDEST PUSH4 0x4E487B71 PUSH1 0xE0 SHL PUSH1 0x0 MSTORE PUSH1 0x41 PUSH1 0x4 MSTORE PUSH1 0x24 PUSH1 0x0 REVERT JUMPDEST MLOAD SWAP1 PUSH1 0x1 PUSH1 0x1 PUSH1 0xA0 SHL SUB DUP3 AND DUP3 SUB PUSH2 0xA2 JUMPI JUMP INVALID PUSH1 0x80 PUSH1 0x40 DUP2 DUP2 MSTORE PUSH1 0x4 CALLDATASIZE LT ISZERO PUSH2 0x14 JUMPI PUSH1 0x0 DUP1 REVERT JUMPDEST PUSH1 0x0 SWAP2 DUP3 CALLDATALOAD PUSH1 0xE0 SHR SWAP1 DUP2 PUSH4 0xFB5A6B4 EQ PUSH2 0x1CD JUMPI POP DUP1 PUSH4 0x37BDC99B EQ PUSH2 0x1A3 JUMPI DUP1 PUSH4 0x38AF3EED EQ PUSH2 0x17C JUMPI DUP1 PUSH4 0x474D896C EQ PUSH2 0x14D JUMPI DUP1 PUSH4 0x4E06BAD1 EQ PUSH2 0x123 JUMPI DUP1 PUSH4 0x79203DC4 EQ PUSH2 0x105 JUMPI DUP1 PUSH4 0x9852595C EQ PUSH2 0xCE JUMPI DUP1 PUSH4 0xBE9A6555 EQ PUSH2 0xB0 JUMPI PUSH4 0xFC0C546A EQ PUSH2 0x85 JUMPI PUSH1 0x0 DUP1 REVERT JUMPDEST CALLVALUE PUSH2 0xAC JUMPI DUP2 PUSH1 0x3 NOT CALLDATASIZE ADD SLT PUSH2 0xAC JUMPI PUSH1 0x3 SLOAD SWAP1 MLOAD PUSH1 0x1 PUSH1 0x1 PUSH1 0xA0 SHL SUB SWAP1 SWAP2 AND DUP2 MSTORE PUSH1 0x20 SWAP1 RETURN JUMPDEST POP DUP1 REVERT JUMPDEST POP CALLVALUE PUSH2 0xAC JUMPI DUP2 PUSH1 0x3 NOT CALLDATASIZE ADD SLT PUSH2 0xAC JUMPI PUSH1 0x20 SWAP1 PUSH1 0x1 SLOAD SWAP1 MLOAD SWAP1 DUP2 MSTORE RETURN JUMPDEST POP CALLVALUE PUSH2 0xAC JUMPI PUSH1 0x20 CALLDATASIZE PUSH1 0x3 NOT ADD SLT PUSH2 0xAC JUMPI PUSH1 0x20 SWAP2 DUP2 SWAP1 PUSH1 0x1 PUSH1 0x1 PUSH1 0xA0 SHL SUB PUSH2 0xF5 PUSH2 0x1E9 JUMP JUMPDEST AND DUP2 MSTORE PUSH1 0x5 DUP5 MSTORE KECCAK256 SLOAD SWAP1 MLOAD SWAP1 DUP2 MSTORE RETURN JUMPDEST POP CALLVALUE PUSH2 0xAC JUMPI DUP2 PUSH1 0x3 NOT CALLDATASIZE ADD SLT PUSH2 0xAC JUMPI PUSH1 0x20 SWAP1 PUSH1 0x4 SLOAD SWAP1 MLOAD SWAP1 DUP2 MSTORE RETURN JUMPDEST POP CALLVALUE PUSH2 0xAC JUMPI CALLDATASIZE PUSH1 0x3 NOT ADD SLT PUSH2 0x14A JUMPI PUSH2 0x147 PUSH2 0x13E PUSH2 0x1E9 JUMP JUMPDEST PUSH1 0x24 CALLDATALOAD SWAP1 PUSH2 0x227 JUMP JUMPDEST DUP1 RETURN JUMPDEST DUP1 REVERT JUMPDEST POP CALLVALUE PUSH2 0xAC JUMPI PUSH1 0x20 CALLDATASIZE PUSH1 0x3 NOT ADD SLT PUSH2 0xAC JUMPI PUSH1 0x3 SLOAD PUSH1 0x1 PUSH1 0x1 PUSH1 0xA0 SHL SUB AND DUP3 MSTORE PUSH1 0x5 PUSH1 0x20 MSTORE DUP2 KECCAK256 PUSH1 0x4 CALLDATALOAD SWAP1 SSTORE DUP1 RETURN JUMPDEST POP CALLVALUE PUSH2 0xAC JUMPI DUP2 PUSH1 0x3 NOT CALLDATASIZE ADD SLT PUSH2 0xAC JUMPI SWAP1 SLOAD SWAP1 MLOAD PUSH1 0x1 PUSH1 0x1 PUSH1 0xA0 SHL SUB SWAP1 SWAP2 AND DUP2 MSTORE PUSH1 0x20 SWAP1 RETURN JUMPDEST DUP3 CALLVALUE PUSH2 0x14A JUMPI PUSH1 0x20 CALLDATASIZE PUSH1 0x3 NOT ADD SLT PUSH2 0x14A JUMPI DUP1 SLOAD PUSH2 0x147 SWAP1 PUSH1 0x4 CALLDATALOAD SWAP1 PUSH1 0x1 PUSH1 0x1 PUSH1 0xA0 SHL SUB AND PUSH2 0x227 JUMP JUMPDEST DUP4 SWAP1 CALLVALUE PUSH2 0xAC JUMPI DUP2 PUSH1 0x3 NOT CALLDATASIZE ADD SLT PUSH2 0xAC JUMPI PUSH1 0x20 SWAP1 PUSH1 0x2 SLOAD DUP2 MSTORE RETURN JUMPDEST PUSH1 0x4 CALLDATALOAD SWAP1 PUSH1 0x1 PUSH1 0x1 PUSH1 0xA0 SHL SUB DUP3 AND DUP3 SUB PUSH2 0x1FF JUMPI JUMP JUMPDEST PUSH1 0x0 DUP1 REVERT JUMPDEST SWAP2 SWAP1 DUP3 ADD DUP1 SWAP3 GT PUSH2 0x211 JUMPI JUMP JUMPDEST PUSH4 0x4E487B71 PUSH1 0xE0 SHL PUSH1 0x0 MSTORE PUSH1 0x11 PUSH1 0x4 MSTORE PUSH1 0x24 PUSH1 0x0 REVERT JUMPDEST PUSH1 0x1 PUSH1 0x1 PUSH1 0xA0 SHL SUB SWAP2 SWAP1 DUP3 AND SWAP1 DUP2 ISZERO PUSH2 0x341 JUMPI PUSH2 0x249 PUSH1 0x1 SLOAD PUSH1 0x2 SLOAD SWAP1 PUSH2 0x204 JUMP JUMPDEST TIMESTAMP LT PUSH2 0x30F JUMPI PUSH1 0x20 SWAP1 PUSH1 0x44 DUP5 PUSH1 0x3 SLOAD AND SWAP5 PUSH1 0x0 SWAP6 DUP7 MSTORE PUSH1 0x5 DUP5 MSTORE PUSH1 0x40 DUP7 KECCAK256 PUSH2 0x272 DUP5 DUP3 SLOAD PUSH2 0x204 JUMP JUMPDEST SWAP1 SSTORE PUSH1 0x3 SLOAD AND SWAP4 DUP6 PUSH1 0x40 MLOAD SWAP6 DUP7 SWAP5 DUP6 SWAP4 PUSH4 0xA9059CBB PUSH1 0xE0 SHL DUP6 MSTORE PUSH1 0x4 DUP6 ADD MSTORE PUSH1 0x24 DUP5 ADD MSTORE GAS CALL DUP1 ISZERO PUSH2 0x304 JUMPI PUSH2 0x2A6 JUMPI POP POP JUMP JUMPDEST PUSH1 0x20 RETURNDATASIZE DUP2 GT PUSH2 0x2FD JUMPI JUMPDEST PUSH1 0x1F DUP2 ADD PUSH1 0x1F NOT AND DUP3 ADD PUSH8 0xFFFFFFFFFFFFFFFF DUP2 GT DUP4 DUP3 LT OR PUSH2 0x2E9 JUMPI PUSH1 0x20 SWAP2 DUP4 SWAP2 PUSH1 0x40 MSTORE DUP2 ADD SUB SLT PUSH2 0xAC JUMPI MLOAD DUP1 ISZERO ISZERO SUB PUSH2 0x14A JUMPI POP JUMP JUMPDEST PUSH4 0x4E487B71 PUSH1 0xE0 SHL DUP5 MSTORE PUSH1 0x41 PUSH1 0x4 MSTORE PUSH1 0x24 DUP5 REVERT JUMPDEST POP RETURNDATASIZE PUSH2 0x2B0 JUMP JUMPDEST PUSH1 0x40 MLOAD RETURNDATASIZE DUP5 DUP3 RETURNDATACOPY RETURNDATASIZE SWAP1 REVERT JUMPDEST PUSH1 0x40 MLOAD PUSH3 0x461BCD PUSH1 0xE5 SHL DUP2 MSTORE PUSH1 0x20 PUSH1 0x4 DUP3 ADD MSTORE PUSH1 0xA PUSH1 0x24 DUP3 ADD MSTORE PUSH10 0x1B9BDD081D995CDD1959 PUSH1 0xB2 SHL PUSH1 0x44 DUP3 ADD MSTORE PUSH1 0x64 SWAP1 REVERT JUMPDEST PUSH1 0x64 PUSH1 0x40 MLOAD PUSH3 0x461BCD PUSH1 0xE5 SHL DUP2 MSTORE PUSH1 0x20 PUSH1 0x4 DUP3 ADD MSTORE PUSH1 0x4 PUSH1 0x24 DUP3 ADD MSTORE PUSH4 0x746F3D3 PUSH1 0xE4 SHL PUSH1 0x44 DUP3 ADD MSTORE REVERT INVALID LOG2 PUSH5 0x6970667358 0x22 SLT KECCAK256 0xC2 0x2F 0x5E CHAINID EXP GAS 0x2B DUP14 0xFC PC 0xC8 0xEF SWAP1 0xD2 0xB8 PUSH11 0x735DAF4E83BF92B25A9E3D PUSH21 0x4A99D53B64736F6C63430008140033000000000000 "},"gasEstimates":{"creation":{"codeDepositCost":"186000","executionCost":"infinite","totalCost":"infinite"},"external":{"beneficiary()":"2337","duration()":"2265","release(uint256)":"infinite","releaseTo(address,uint256)":"infinite","released(address)":"2555","setReleased(uint256)":"24501","start()":"2426","token()":"2464","totalAllocation()":"2382"}},"methodIdentifiers":{"beneficiary()":"38af3eed","duration()":"0fb5a6b4","release(uint256)":"37bdc99b","releaseTo(address,uint256)":"4e06bad1","released(address)":"9852595c","setReleased(uint256)":"474d896c","start()":"be9a6555","token()":"fc0c546a","totalAllocation()":"79203dc4"}},"storageLayout":{"storage":[{"astId":9774,"contract":"contracts/mocks/MockVestingWallet.sol:MockVestingWallet","label":"beneficiary","offset":0,"slot":"0","type":"t_address"},{"astId":9776,"contract":"contracts/mocks/MockVestingWallet.sol:MockVestingWallet","label":"start","offset":0,"slot":"1","type":"t_uint256"},{"astId":9778,"contract":"contracts/mocks/MockVestingWallet.sol:MockVestingWallet","label":"duration","offset":0,"slot":"2","type":"t_uint256"},{"astId":9780,"contract":"contracts/mocks/MockVestingWallet.sol:MockVestingWallet","label":"token","offset":0,"slot":"3","type":"t_address"},{"astId":9782,"contract":"contracts/mocks/MockVestingWallet.sol:MockVestingWallet","label":"totalAllocation","offset":0,"slot":"4","type":"t_uint256"},{"astId":9786,"contract":"contracts/mocks/MockVestingWallet.sol:MockVestingWallet","label":"released","offset":0,"slot":"5","type":"t_mapping(t_address,t_uint256)"}],"types":{"t_address":{"encoding":"inplace","label":"address","numberOfBytes":"20"},"t_mapping(t_address,t_uint256)":{"encoding":"mapping","key":"t_address","label":"mapping(address => uint256)","numberOfBytes":"32","value":"t_uint256"},"t_uint256":{"encoding":"inplace","label":"uint256","numberOfBytes":"32"}}},"userdoc":{"kind":"user","methods":{},"version":1}}}}