{"contracts/VestingAdapter.sol":{"VestingAdapter":{"abi":[{"inputs":[],"stateMutability":"nonpayable","type":"constructor"},{"inputs":[{"internalType":"address","name":"owner","type":"address"}],"name":"OwnableInvalidOwner","type":"error"},{"inputs":[{"internalType":"address","name":"account","type":"address"}],"name":"OwnableUnauthorizedAccount","type":"error"},{"anonymous":false,"inputs":[{"indexed":true,"internalType":"address","name":"previousOwner","type":"address"},{"indexed":true,"internalType":"address","name":"newOwner","type":"address"}],"name":"OwnershipTransferred","type":"event"},{"inputs":[{"internalType":"uint256","name":"","type":"uint256"}],"name":"collaterals","outputs":[{"internalType":"address","name":"vestingContract","type":"address"},{"internalType":"address","name":"token","type":"address"},{"internalType":"uint256","name":"totalAmount","type":"uint256"},{"internalType":"uint256","name":"unlockTime","type":"uint256"}],"stateMutability":"view","type":"function"},{"inputs":[{"internalType":"uint256","name":"collateralId","type":"uint256"},{"internalType":"address","name":"vestingContract","type":"address"},{"internalType":"address","name":"borrower","type":"address"}],"name":"escrow","outputs":[],"stateMutability":"nonpayable","type":"function"},{"inputs":[{"internalType":"uint256","name":"collateralId","type":"uint256"}],"name":"getDetails","outputs":[{"internalType":"uint256","name":"quantity","type":"uint256"},{"internalType":"address","name":"token","type":"address"},{"internalType":"uint256","name":"unlockTime","type":"uint256"}],"stateMutability":"view","type":"function"},{"inputs":[],"name":"loanManager","outputs":[{"internalType":"address","name":"","type":"address"}],"stateMutability":"view","type":"function"},{"inputs":[{"internalType":"address","name":"","type":"address"},{"internalType":"address","name":"","type":"address"},{"internalType":"uint256","name":"","type":"uint256"},{"internalType":"bytes","name":"","type":"bytes"}],"name":"onERC721Received","outputs":[{"internalType":"bytes4","name":"","type":"bytes4"}],"stateMutability":"pure","type":"function"},{"inputs":[],"name":"owner","outputs":[{"internalType":"address","name":"","type":"address"}],"stateMutability":"view","type":"function"},{"inputs":[{"internalType":"uint256","name":"collateralId","type":"uint256"},{"internalType":"address","name":"to","type":"address"},{"internalType":"uint256","name":"amount","type":"uint256"}],"name":"releaseTo","outputs":[],"stateMutability":"nonpayable","type":"function"},{"inputs":[],"name":"renounceOwnership","outputs":[],"stateMutability":"nonpayable","type":"function"},{"inputs":[{"internalType":"address","name":"manager","type":"address"}],"name":"setLoanManager","outputs":[],"stateMutability":"nonpayable","type":"function"},{"inputs":[{"internalType":"address","name":"newOwner","type":"address"}],"name":"transferOwnership","outputs":[],"stateMutability":"nonpayable","type":"function"},{"inputs":[{"internalType":"uint256","name":"","type":"uint256"}],"name":"vestingContracts","outputs":[{"internalType":"address","name":"","type":"address"}],"stateMutability":"view","type":"function"}],"devdoc":{"errors":{"OwnableInvalidOwner(address)":[{"details":"The owner is not a valid owner account. (eg. `address(0)`)"}],"OwnableUnauthorizedAccount(address)":[{"details":"The caller account is not authorized to perform an operation."}]},"kind":"dev","methods":{"owner()":{"details":"Returns the address of the current owner."},"renounceOwnership()":{"details":"Leaves the contract without owner. It will not be possible to call `onlyOwner` functions. Can only be called by the current owner. NOTE: Renouncing ownership will leave the contract without an owner, thereby disabling any functionality that is only available to the owner."},"transferOwnership(address)":{"details":"Transfers ownership of the contract to a new account (`newOwner`). Can only be called by the current owner."}},"version":1},"evm":{"bytecode":{"linkReferences":{},"object":"6080806040523461007a5733156100645760008054336001600160a01b03198216811783556040519290916001600160a01b0316907f8be0079c531659141344cd1fd0a4f28419497f9722a3daafe3b4186f6b6457e09080a3610c1a90816100808239f35b631e4fbdf760e01b815260006004820152602490fd5b600080fdfe6080604081815260048036101561001557600080fd5b600092833560e01c908163150b7a0214610a6a5750806324c1173b14610a165780632a7d7bc51461084f5780635772ae70146107d657806358281bf3146107a4578063715018a6146107475780638da5cb5b1461071f578063b3ccbcfe146106f6578063b93a89f7146105aa578063f2b42e121461012a5763f2fde38b1461009c57600080fd5b34610126576020366003190112610126576100b5610ad8565b906100be610b04565b6001600160a01b03918216928315610110575050600054826001600160601b0360a01b821617600055167f8be0079c531659141344cd1fd0a4f28419497f9722a3daafe3b4186f6b6457e0600080a380f35b51631e4fbdf760e01b8152908101849052602490fd5b8280fd5b503461012657606036600319011261012657803591610147610aee565b6001600160a01b03936044803586811695919086900361033857851561057b57853314801561056e575b1561053b57833b15610508578288526020936002855287868a2054166104dc5787169585516338af3eed60e01b8152858185818b5afa9081156103a7579089918b916104bf575b50160361048b57845163be9a655560e01b815291848382818a5afa928315610481578993610452575b5085516303ed69ad60e21b8152858183818b5afa9081156103a7578a91610425575b5080156103f75783018093116103e457428311156103b1578551637e062a3560e11b8152858183818b5afa9081156103a7579089918b9161037a575b501690811561034e578651631e480f7160e21b815292868483818c5afa938415610344578b94610310575b5083156102e457505091600394939291859287519461028886610b30565b898652868601918252888601928352606086019384528b526002865289888c20955116996001600160601b0360a01b9a8b875416178655600186019151168a825416179055516002840155519101555283209182541617905580f35b875162461bcd60e51b815291820187905260076024830152660746f74616c3d360cc1b90820152606490fd5b9093508681813d831161033d575b6103288183610b62565b810103126103385751923861026a565b600080fd5b503d61031e565b88513d8d823e3d90fd5b865162461bcd60e51b815290810186905260076024820152660746f6b656e3d360cc1b81840152606490fd5b61039a9150873d89116103a0575b6103928183610b62565b810190610b84565b3861023f565b503d610388565b87513d8c823e3d90fd5b6f185b1c9958591e481d5b9b1bd8dad95960821b6064928688519362461bcd60e51b855284015260106024840152820152fd5b634e487b7160e01b895260119052602488fd5b506906475726174696f6e3d360b41b6064928688519362461bcd60e51b8552840152600a6024840152820152fd5b90508581813d831161044b575b61043c8183610b62565b81010312610338575138610203565b503d610432565b9092508481813d831161047a575b61046a8183610b62565b81010312610338575191386101e1565b503d610460565b86513d8b823e3d90fd5b845162461bcd60e51b8152918201849052600f60248301526e6e6f742062656e656669636961727960881b90820152606490fd5b6104d69150873d89116103a0576103928183610b62565b386101b8565b855162461bcd60e51b815280840186905260076024820152661a59081d5cd95960ca1b81840152606490fd5b906d1b9bdd08184818dbdb9d1c9858dd60921b606492602087519362461bcd60e51b8552840152600e6024840152820152fd5b906d1b9bdd08185d5d1a1bdc9a5e995960921b606492602087519362461bcd60e51b8552840152600e6024840152820152fd5b5086600154163314610171565b90690626f72726f7765723d360b41b606492602087519362461bcd60e51b8552840152600a6024840152820152fd5b509190346106f257602090816003193601126101265783358352600282528083209281516105d781610b30565b60018060a01b03908186541692838252828060018901541692878101938452610618600360028b01549a8984019b8c52015496606083019788521515610ba3565b511696868484511660248b89519b8c938492632614965760e21b84528301525afa9788156106e85782986106b9575b5087815110610685575196870396871161067257506060965051169051928251948552840152820152f35b634e487b7160e01b815260118852602490fd5b855162461bcd60e51b8152808a01889052600e60248201526d1c995b19585cd9590f9d1bdd185b60921b6044820152606490fd5b9097508681813d83116106e1575b6106d18183610b62565b8101031261033857519638610647565b503d6106c7565b86513d84823e3d90fd5b5080fd5b5050346106f257816003193601126106f25760015490516001600160a01b039091168152602090f35b5050346106f257816003193601126106f257905490516001600160a01b039091168152602090f35b83346107a157806003193601126107a157610760610b04565b600080546001600160a01b0319811682556001600160a01b03167f8be0079c531659141344cd1fd0a4f28419497f9722a3daafe3b4186f6b6457e08280a380f35b80fd5b50346101265760203660031901126101265735825260036020908152918190205490516001600160a01b039091168152f35b5034610126576020366003190112610126576107f0610ad8565b6107f8610b04565b6001600160a01b03169182156108205750506001600160601b0360a01b600154161760015580f35b906020606492519162461bcd60e51b8352820152600960248201526806d616e616765723d360bc1b6044820152fd5b5090346101265760603660031901126101265761086a610aee565b6001546001600160a01b0393916044803592909190861633036109e15785169485156109b8578335875260026020528487208551906108a882610b30565b6108db6003848354169283855285600182015416602086015260028101548a860152015491606084019283521515610ba3565b51421061098757831561095a5751169486929190863b15610956578386519788948593634e06bad160e01b85528885015260248401525af1801561094c57610921578380f35b67ffffffffffffffff83116109395750523880808380f35b634e487b7160e01b845260419052602483fd5b82513d86823e3d90fd5b8380fd5b855162461bcd60e51b815260208187015260086024820152670616d6f756e743d360c41b81850152606490fd5b855162461bcd60e51b8152602081870152600c60248201526b1b9bdd081d5b9b1bd8dad95960a21b81850152606490fd5b845162461bcd60e51b815260208186015260248101859052630746f3d360e41b81840152606490fd5b845162461bcd60e51b8152602081860152601060248201526f3737ba103637b0b71036b0b730b3b2b960811b81840152606490fd5b50346101265760203660031901126101265760809282913581526002602052209060018060a01b03918281541692600182015416916003600283015492015492815194855260208501528301526060820152f35b9250503461012657608036600319011261012657610a86610ad8565b50610a8f610aee565b506064359067ffffffffffffffff90818311610ad45736602384011215610ad45782013590811161095657369101602401116106f257630a85bd0160e11b8152602090f35b8480fd5b600435906001600160a01b038216820361033857565b602435906001600160a01b038216820361033857565b6000546001600160a01b03163303610b1857565b60405163118cdaa760e01b8152336004820152602490fd5b6080810190811067ffffffffffffffff821117610b4c57604052565b634e487b7160e01b600052604160045260246000fd5b90601f8019910116810190811067ffffffffffffffff821117610b4c57604052565b9081602091031261033857516001600160a01b03811681036103385790565b15610baa57565b60405162461bcd60e51b81526020600482015260126024820152711d5b9adb9bdddb8818dbdb1b185d195c985b60721b6044820152606490fdfea264697066735822122060d2adee3ce6ffaa059e9fb745d15b93175f9fed74f7478dbcd006b7ff25a31064736f6c63430008140033","opcodes":"PUSH1 0x80 DUP1 PUSH1 0x40 MSTORE CALLVALUE PUSH2 0x7A JUMPI CALLER ISZERO PUSH2 0x64 JUMPI PUSH1 0x0 DUP1 SLOAD CALLER PUSH1 0x1 PUSH1 0x1 PUSH1 0xA0 SHL SUB NOT DUP3 AND DUP2 OR DUP4 SSTORE PUSH1 0x40 MLOAD SWAP3 SWAP1 SWAP2 PUSH1 0x1 PUSH1 0x1 PUSH1 0xA0 SHL SUB AND SWAP1 PUSH32 0x8BE0079C531659141344CD1FD0A4F28419497F9722A3DAAFE3B4186F6B6457E0 SWAP1 DUP1 LOG3 PUSH2 0xC1A SWAP1 DUP2 PUSH2 0x80 DUP3 CODECOPY RETURN JUMPDEST PUSH4 0x1E4FBDF7 PUSH1 0xE0 SHL DUP2 MSTORE PUSH1 0x0 PUSH1 0x4 DUP3 ADD MSTORE PUSH1 0x24 SWAP1 REVERT JUMPDEST PUSH1 0x0 DUP1 REVERT INVALID PUSH1 0x80 PUSH1 0x40 DUP2 DUP2 MSTORE PUSH1 0x4 DUP1 CALLDATASIZE LT ISZERO PUSH2 0x15 JUMPI PUSH1 0x0 DUP1 REVERT JUMPDEST PUSH1 0x0 SWAP3 DUP4 CALLDATALOAD PUSH1 0xE0 SHR SWAP1 DUP2 PUSH4 0x150B7A02 EQ PUSH2 0xA6A JUMPI POP DUP1 PUSH4 0x24C1173B EQ PUSH2 0xA16 JUMPI DUP1 PUSH4 0x2A7D7BC5 EQ PUSH2 0x84F JUMPI DUP1 PUSH4 0x5772AE70 EQ PUSH2 0x7D6 JUMPI DUP1 PUSH4 0x58281BF3 EQ PUSH2 0x7A4 JUMPI DUP1 PUSH4 0x715018A6 EQ PUSH2 0x747 JUMPI DUP1 PUSH4 0x8DA5CB5B EQ PUSH2 0x71F JUMPI DUP1 PUSH4 0xB3CCBCFE EQ PUSH2 0x6F6 JUMPI DUP1 PUSH4 0xB93A89F7 EQ PUSH2 0x5AA JUMPI DUP1 PUSH4 0xF2B42E12 EQ PUSH2 0x12A JUMPI PUSH4 0xF2FDE38B EQ PUSH2 0x9C JUMPI PUSH1 0x0 DUP1 REVERT JUMPDEST CALLVALUE PUSH2 0x126 JUMPI PUSH1 0x20 CALLDATASIZE PUSH1 0x3 NOT ADD SLT PUSH2 0x126 JUMPI PUSH2 0xB5 PUSH2 0xAD8 JUMP JUMPDEST SWAP1 PUSH2 0xBE PUSH2 0xB04 JUMP JUMPDEST PUSH1 0x1 PUSH1 0x1 PUSH1 0xA0 SHL SUB SWAP2 DUP3 AND SWAP3 DUP4 ISZERO PUSH2 0x110 JUMPI POP POP PUSH1 0x0 SLOAD DUP3 PUSH1 0x1 PUSH1 0x1 PUSH1 0x60 SHL SUB PUSH1 0xA0 SHL DUP3 AND OR PUSH1 0x0 SSTORE AND PUSH32 0x8BE0079C531659141344CD1FD0A4F28419497F9722A3DAAFE3B4186F6B6457E0 PUSH1 0x0 DUP1 LOG3 DUP1 RETURN JUMPDEST MLOAD PUSH4 0x1E4FBDF7 PUSH1 0xE0 SHL DUP2 MSTORE SWAP1 DUP2 ADD DUP5 SWAP1 MSTORE PUSH1 0x24 SWAP1 REVERT JUMPDEST DUP3 DUP1 REVERT JUMPDEST POP CALLVALUE PUSH2 0x126 JUMPI PUSH1 0x60 CALLDATASIZE PUSH1 0x3 NOT ADD SLT PUSH2 0x126 JUMPI DUP1 CALLDATALOAD SWAP2 PUSH2 0x147 PUSH2 0xAEE JUMP JUMPDEST PUSH1 0x1 PUSH1 0x1 PUSH1 0xA0 SHL SUB SWAP4 PUSH1 0x44 DUP1 CALLDATALOAD DUP7 DUP2 AND SWAP6 SWAP2 SWAP1 DUP7 SWAP1 SUB PUSH2 0x338 JUMPI DUP6 ISZERO PUSH2 0x57B JUMPI DUP6 CALLER EQ DUP1 ISZERO PUSH2 0x56E JUMPI JUMPDEST ISZERO PUSH2 0x53B JUMPI DUP4 EXTCODESIZE ISZERO PUSH2 0x508 JUMPI DUP3 DUP9 MSTORE PUSH1 0x20 SWAP4 PUSH1 0x2 DUP6 MSTORE DUP8 DUP7 DUP11 KECCAK256 SLOAD AND PUSH2 0x4DC JUMPI DUP8 AND SWAP6 DUP6 MLOAD PUSH4 0x38AF3EED PUSH1 0xE0 SHL DUP2 MSTORE DUP6 DUP2 DUP6 DUP2 DUP12 GAS STATICCALL SWAP1 DUP2 ISZERO PUSH2 0x3A7 JUMPI SWAP1 DUP10 SWAP2 DUP12 SWAP2 PUSH2 0x4BF JUMPI JUMPDEST POP AND SUB PUSH2 0x48B JUMPI DUP5 MLOAD PUSH4 0xBE9A6555 PUSH1 0xE0 SHL DUP2 MSTORE SWAP2 DUP5 DUP4 DUP3 DUP2 DUP11 GAS STATICCALL SWAP3 DUP4 ISZERO PUSH2 0x481 JUMPI DUP10 SWAP4 PUSH2 0x452 JUMPI JUMPDEST POP DUP6 MLOAD PUSH4 0x3ED69AD PUSH1 0xE2 SHL DUP2 MSTORE DUP6 DUP2 DUP4 DUP2 DUP12 GAS STATICCALL SWAP1 DUP2 ISZERO PUSH2 0x3A7 JUMPI DUP11 SWAP2 PUSH2 0x425 JUMPI JUMPDEST POP DUP1 ISZERO PUSH2 0x3F7 JUMPI DUP4 ADD DUP1 SWAP4 GT PUSH2 0x3E4 JUMPI TIMESTAMP DUP4 GT ISZERO PUSH2 0x3B1 JUMPI DUP6 MLOAD PUSH4 0x7E062A35 PUSH1 0xE1 SHL DUP2 MSTORE DUP6 DUP2 DUP4 DUP2 DUP12 GAS STATICCALL SWAP1 DUP2 ISZERO PUSH2 0x3A7 JUMPI SWAP1 DUP10 SWAP2 DUP12 SWAP2 PUSH2 0x37A JUMPI JUMPDEST POP AND SWAP1 DUP2 ISZERO PUSH2 0x34E JUMPI DUP7 MLOAD PUSH4 0x1E480F71 PUSH1 0xE2 SHL DUP2 MSTORE SWAP3 DUP7 DUP5 DUP4 DUP2 DUP13 GAS STATICCALL SWAP4 DUP5 ISZERO PUSH2 0x344 JUMPI DUP12 SWAP5 PUSH2 0x310 JUMPI JUMPDEST POP DUP4 ISZERO PUSH2 0x2E4 JUMPI POP POP SWAP2 PUSH1 0x3 SWAP5 SWAP4 SWAP3 SWAP2 DUP6 SWAP3 DUP8 MLOAD SWAP5 PUSH2 0x288 DUP7 PUSH2 0xB30 JUMP JUMPDEST DUP10 DUP7 MSTORE DUP7 DUP7 ADD SWAP2 DUP3 MSTORE DUP9 DUP7 ADD SWAP3 DUP4 MSTORE PUSH1 0x60 DUP7 ADD SWAP4 DUP5 MSTORE DUP12 MSTORE PUSH1 0x2 DUP7 MSTORE DUP10 DUP9 DUP13 KECCAK256 SWAP6 MLOAD AND SWAP10 PUSH1 0x1 PUSH1 0x1 PUSH1 0x60 SHL SUB PUSH1 0xA0 SHL SWAP11 DUP12 DUP8 SLOAD AND OR DUP7 SSTORE PUSH1 0x1 DUP7 ADD SWAP2 MLOAD AND DUP11 DUP3 SLOAD AND OR SWAP1 SSTORE MLOAD PUSH1 0x2 DUP5 ADD SSTORE MLOAD SWAP2 ADD SSTORE MSTORE DUP4 KECCAK256 SWAP2 DUP3 SLOAD AND OR SWAP1 SSTORE DUP1 RETURN JUMPDEST DUP8 MLOAD PUSH3 0x461BCD PUSH1 0xE5 SHL DUP2 MSTORE SWAP2 DUP3 ADD DUP8 SWAP1 MSTORE PUSH1 0x7 PUSH1 0x24 DUP4 ADD MSTORE PUSH7 0x746F74616C3D3 PUSH1 0xCC SHL SWAP1 DUP3 ADD MSTORE PUSH1 0x64 SWAP1 REVERT JUMPDEST SWAP1 SWAP4 POP DUP7 DUP2 DUP2 RETURNDATASIZE DUP4 GT PUSH2 0x33D JUMPI JUMPDEST PUSH2 0x328 DUP2 DUP4 PUSH2 0xB62 JUMP JUMPDEST DUP2 ADD SUB SLT PUSH2 0x338 JUMPI MLOAD SWAP3 CODESIZE PUSH2 0x26A JUMP JUMPDEST PUSH1 0x0 DUP1 REVERT JUMPDEST POP RETURNDATASIZE PUSH2 0x31E JUMP JUMPDEST DUP9 MLOAD RETURNDATASIZE DUP14 DUP3 RETURNDATACOPY RETURNDATASIZE SWAP1 REVERT JUMPDEST DUP7 MLOAD PUSH3 0x461BCD PUSH1 0xE5 SHL DUP2 MSTORE SWAP1 DUP2 ADD DUP7 SWAP1 MSTORE PUSH1 0x7 PUSH1 0x24 DUP3 ADD MSTORE PUSH7 0x746F6B656E3D3 PUSH1 0xCC SHL DUP2 DUP5 ADD MSTORE PUSH1 0x64 SWAP1 REVERT JUMPDEST PUSH2 0x39A SWAP2 POP DUP8 RETURNDATASIZE DUP10 GT PUSH2 0x3A0 JUMPI JUMPDEST PUSH2 0x392 DUP2 DUP4 PUSH2 0xB62 JUMP JUMPDEST DUP2 ADD SWAP1 PUSH2 0xB84 JUMP JUMPDEST CODESIZE PUSH2 0x23F JUMP JUMPDEST POP RETURNDATASIZE PUSH2 0x388 JUMP JUMPDEST DUP8 MLOAD RETURNDATASIZE DUP13 DUP3 RETURNDATACOPY RETURNDATASIZE SWAP1 REVERT JUMPDEST PUSH16 0x185B1C9958591E481D5B9B1BD8DAD959 PUSH1 0x82 SHL PUSH1 0x64 SWAP3 DUP7 DUP9 MLOAD SWAP4 PUSH3 0x461BCD PUSH1 0xE5 SHL DUP6 MSTORE DUP5 ADD MSTORE PUSH1 0x10 PUSH1 0x24 DUP5 ADD MSTORE DUP3 ADD MSTORE REVERT JUMPDEST PUSH4 0x4E487B71 PUSH1 0xE0 SHL DUP10 MSTORE PUSH1 0x11 SWAP1 MSTORE PUSH1 0x24 DUP9 REVERT JUMPDEST POP PUSH10 0x6475726174696F6E3D3 PUSH1 0xB4 SHL PUSH1 0x64 SWAP3 DUP7 DUP9 MLOAD SWAP4 PUSH3 0x461BCD PUSH1 0xE5 SHL DUP6 MSTORE DUP5 ADD MSTORE PUSH1 0xA PUSH1 0x24 DUP5 ADD MSTORE DUP3 ADD MSTORE REVERT JUMPDEST SWAP1 POP DUP6 DUP2 DUP2 RETURNDATASIZE DUP4 GT PUSH2 0x44B JUMPI JUMPDEST PUSH2 0x43C DUP2 DUP4 PUSH2 0xB62 JUMP JUMPDEST DUP2 ADD SUB SLT PUSH2 0x338 JUMPI MLOAD CODESIZE PUSH2 0x203 JUMP JUMPDEST POP RETURNDATASIZE PUSH2 0x432 JUMP JUMPDEST SWAP1 SWAP3 POP DUP5 DUP2 DUP2 RETURNDATASIZE DUP4 GT PUSH2 0x47A JUMPI JUMPDEST PUSH2 0x46A DUP2 DUP4 PUSH2 0xB62 JUMP JUMPDEST DUP2 ADD SUB SLT PUSH2 0x338 JUMPI MLOAD SWAP2 CODESIZE PUSH2 0x1E1 JUMP JUMPDEST POP RETURNDATASIZE PUSH2 0x460 JUMP JUMPDEST DUP7 MLOAD RETURNDATASIZE DUP12 DUP3 RETURNDATACOPY RETURNDATASIZE SWAP1 REVERT JUMPDEST DUP5 MLOAD PUSH3 0x461BCD PUSH1 0xE5 SHL DUP2 MSTORE SWAP2 DUP3 ADD DUP5 SWAP1 MSTORE PUSH1 0xF PUSH1 0x24 DUP4 ADD MSTORE PUSH15 0x6E6F742062656E6566696369617279 PUSH1 0x88 SHL SWAP1 DUP3 ADD MSTORE PUSH1 0x64 SWAP1 REVERT JUMPDEST PUSH2 0x4D6 SWAP2 POP DUP8 RETURNDATASIZE DUP10 GT PUSH2 0x3A0 JUMPI PUSH2 0x392 DUP2 DUP4 PUSH2 0xB62 JUMP JUMPDEST CODESIZE PUSH2 0x1B8 JUMP JUMPDEST DUP6 MLOAD PUSH3 0x461BCD PUSH1 0xE5 SHL DUP2 MSTORE DUP1 DUP5 ADD DUP7 SWAP1 MSTORE PUSH1 0x7 PUSH1 0x24 DUP3 ADD MSTORE PUSH7 0x1A59081D5CD959 PUSH1 0xCA SHL DUP2 DUP5 ADD MSTORE PUSH1 0x64 SWAP1 REVERT JUMPDEST SWAP1 PUSH14 0x1B9BDD08184818DBDB9D1C9858DD PUSH1 0x92 SHL PUSH1 0x64 SWAP3 PUSH1 0x20 DUP8 MLOAD SWAP4 PUSH3 0x461BCD PUSH1 0xE5 SHL DUP6 MSTORE DUP5 ADD MSTORE PUSH1 0xE PUSH1 0x24 DUP5 ADD MSTORE DUP3 ADD MSTORE REVERT JUMPDEST SWAP1 PUSH14 0x1B9BDD08185D5D1A1BDC9A5E9959 PUSH1 0x92 SHL PUSH1 0x64 SWAP3 PUSH1 0x20 DUP8 MLOAD SWAP4 PUSH3 0x461BCD PUSH1 0xE5 SHL DUP6 MSTORE DUP5 ADD MSTORE PUSH1 0xE PUSH1 0x24 DUP5 ADD MSTORE DUP3 ADD MSTORE REVERT JUMPDEST POP DUP7 PUSH1 0x1 SLOAD AND CALLER EQ PUSH2 0x171 JUMP JUMPDEST SWAP1 PUSH10 0x626F72726F7765723D3 PUSH1 0xB4 SHL PUSH1 0x64 SWAP3 PUSH1 0x20 DUP8 MLOAD SWAP4 PUSH3 0x461BCD PUSH1 0xE5 SHL DUP6 MSTORE DUP5 ADD MSTORE PUSH1 0xA PUSH1 0x24 DUP5 ADD MSTORE DUP3 ADD MSTORE REVERT JUMPDEST POP SWAP2 SWAP1 CALLVALUE PUSH2 0x6F2 JUMPI PUSH1 0x20 SWAP1 DUP2 PUSH1 0x3 NOT CALLDATASIZE ADD SLT PUSH2 0x126 JUMPI DUP4 CALLDATALOAD DUP4 MSTORE PUSH1 0x2 DUP3 MSTORE DUP1 DUP4 KECCAK256 SWAP3 DUP2 MLOAD PUSH2 0x5D7 DUP2 PUSH2 0xB30 JUMP JUMPDEST PUSH1 0x1 DUP1 PUSH1 0xA0 SHL SUB SWAP1 DUP2 DUP7 SLOAD AND SWAP3 DUP4 DUP3 MSTORE DUP3 DUP1 PUSH1 0x1 DUP10 ADD SLOAD AND SWAP3 DUP8 DUP2 ADD SWAP4 DUP5 MSTORE PUSH2 0x618 PUSH1 0x3 PUSH1 0x2 DUP12 ADD SLOAD SWAP11 DUP10 DUP5 ADD SWAP12 DUP13 MSTORE ADD SLOAD SWAP7 PUSH1 0x60 DUP4 ADD SWAP8 DUP9 MSTORE ISZERO ISZERO PUSH2 0xBA3 JUMP JUMPDEST MLOAD AND SWAP7 DUP7 DUP5 DUP5 MLOAD AND PUSH1 0x24 DUP12 DUP10 MLOAD SWAP12 DUP13 SWAP4 DUP5 SWAP3 PUSH4 0x26149657 PUSH1 0xE2 SHL DUP5 MSTORE DUP4 ADD MSTORE GAS STATICCALL SWAP8 DUP9 ISZERO PUSH2 0x6E8 JUMPI DUP3 SWAP9 PUSH2 0x6B9 JUMPI JUMPDEST POP DUP8 DUP2 MLOAD LT PUSH2 0x685 JUMPI MLOAD SWAP7 DUP8 SUB SWAP7 DUP8 GT PUSH2 0x672 JUMPI POP PUSH1 0x60 SWAP7 POP MLOAD AND SWAP1 MLOAD SWAP3 DUP3 MLOAD SWAP5 DUP6 MSTORE DUP5 ADD MSTORE DUP3 ADD MSTORE RETURN JUMPDEST PUSH4 0x4E487B71 PUSH1 0xE0 SHL DUP2 MSTORE PUSH1 0x11 DUP9 MSTORE PUSH1 0x24 SWAP1 REVERT JUMPDEST DUP6 MLOAD PUSH3 0x461BCD PUSH1 0xE5 SHL DUP2 MSTORE DUP1 DUP11 ADD DUP9 SWAP1 MSTORE PUSH1 0xE PUSH1 0x24 DUP3 ADD MSTORE PUSH14 0x1C995B19585CD9590F9D1BDD185B PUSH1 0x92 SHL PUSH1 0x44 DUP3 ADD MSTORE PUSH1 0x64 SWAP1 REVERT JUMPDEST SWAP1 SWAP8 POP DUP7 DUP2 DUP2 RETURNDATASIZE DUP4 GT PUSH2 0x6E1 JUMPI JUMPDEST PUSH2 0x6D1 DUP2 DUP4 PUSH2 0xB62 JUMP JUMPDEST DUP2 ADD SUB SLT PUSH2 0x338 JUMPI MLOAD SWAP7 CODESIZE PUSH2 0x647 JUMP JUMPDEST POP RETURNDATASIZE PUSH2 0x6C7 JUMP JUMPDEST DUP7 MLOAD RETURNDATASIZE DUP5 DUP3 RETURNDATACOPY RETURNDATASIZE SWAP1 REVERT JUMPDEST POP DUP1 REVERT JUMPDEST POP POP CALLVALUE PUSH2 0x6F2 JUMPI DUP2 PUSH1 0x3 NOT CALLDATASIZE ADD SLT PUSH2 0x6F2 JUMPI PUSH1 0x1 SLOAD SWAP1 MLOAD PUSH1 0x1 PUSH1 0x1 PUSH1 0xA0 SHL SUB SWAP1 SWAP2 AND DUP2 MSTORE PUSH1 0x20 SWAP1 RETURN JUMPDEST POP POP CALLVALUE PUSH2 0x6F2 JUMPI DUP2 PUSH1 0x3 NOT CALLDATASIZE ADD SLT PUSH2 0x6F2 JUMPI SWAP1 SLOAD SWAP1 MLOAD PUSH1 0x1 PUSH1 0x1 PUSH1 0xA0 SHL SUB SWAP1 SWAP2 AND DUP2 MSTORE PUSH1 0x20 SWAP1 RETURN JUMPDEST DUP4 CALLVALUE PUSH2 0x7A1 JUMPI DUP1 PUSH1 0x3 NOT CALLDATASIZE ADD SLT PUSH2 0x7A1 JUMPI PUSH2 0x760 PUSH2 0xB04 JUMP JUMPDEST PUSH1 0x0 DUP1 SLOAD PUSH1 0x1 PUSH1 0x1 PUSH1 0xA0 SHL SUB NOT DUP2 AND DUP3 SSTORE PUSH1 0x1 PUSH1 0x1 PUSH1 0xA0 SHL SUB AND PUSH32 0x8BE0079C531659141344CD1FD0A4F28419497F9722A3DAAFE3B4186F6B6457E0 DUP3 DUP1 LOG3 DUP1 RETURN JUMPDEST DUP1 REVERT JUMPDEST POP CALLVALUE PUSH2 0x126 JUMPI PUSH1 0x20 CALLDATASIZE PUSH1 0x3 NOT ADD SLT PUSH2 0x126 JUMPI CALLDATALOAD DUP3 MSTORE PUSH1 0x3 PUSH1 0x20 SWAP1 DUP2 MSTORE SWAP2 DUP2 SWAP1 KECCAK256 SLOAD SWAP1 MLOAD PUSH1 0x1 PUSH1 0x1 PUSH1 0xA0 SHL SUB SWAP1 SWAP2 AND DUP2 MSTORE RETURN JUMPDEST POP CALLVALUE PUSH2 0x126 JUMPI PUSH1 0x20 CALLDATASIZE PUSH1 0x3 NOT ADD SLT PUSH2 0x126 JUMPI PUSH2 0x7F0 PUSH2 0xAD8 JUMP JUMPDEST PUSH2 0x7F8 PUSH2 0xB04 JUMP JUMPDEST PUSH1 0x1 PUSH1 0x1 PUSH1 0xA0 SHL SUB AND SWAP2 DUP3 ISZERO PUSH2 0x820 JUMPI POP POP PUSH1 0x1 PUSH1 0x1 PUSH1 0x60 SHL SUB PUSH1 0xA0 SHL PUSH1 0x1 SLOAD AND OR PUSH1 0x1 SSTORE DUP1 RETURN JUMPDEST SWAP1 PUSH1 0x20 PUSH1 0x64 SWAP3 MLOAD SWAP2 PUSH3 0x461BCD PUSH1 0xE5 SHL DUP4 MSTORE DUP3 ADD MSTORE PUSH1 0x9 PUSH1 0x24 DUP3 ADD MSTORE PUSH9 0x6D616E616765723D3 PUSH1 0xBC SHL PUSH1 0x44 DUP3 ADD MSTORE REVERT JUMPDEST POP SWAP1 CALLVALUE PUSH2 0x126 JUMPI PUSH1 0x60 CALLDATASIZE PUSH1 0x3 NOT ADD SLT PUSH2 0x126 JUMPI PUSH2 0x86A PUSH2 0xAEE JUMP JUMPDEST PUSH1 0x1 SLOAD PUSH1 0x1 PUSH1 0x1 PUSH1 0xA0 SHL SUB SWAP4 SWAP2 PUSH1 0x44 DUP1 CALLDATALOAD SWAP3 SWAP1 SWAP2 SWAP1 DUP7 AND CALLER SUB PUSH2 0x9E1 JUMPI DUP6 AND SWAP5 DUP6 ISZERO PUSH2 0x9B8 JUMPI DUP4 CALLDATALOAD DUP8 MSTORE PUSH1 0x2 PUSH1 0x20 MSTORE DUP5 DUP8 KECCAK256 DUP6 MLOAD SWAP1 PUSH2 0x8A8 DUP3 PUSH2 0xB30 JUMP JUMPDEST PUSH2 0x8DB PUSH1 0x3 DUP5 DUP4 SLOAD AND SWAP3 DUP4 DUP6 MSTORE DUP6 PUSH1 0x1 DUP3 ADD SLOAD AND PUSH1 0x20 DUP7 ADD MSTORE PUSH1 0x2 DUP2 ADD SLOAD DUP11 DUP7 ADD MSTORE ADD SLOAD SWAP2 PUSH1 0x60 DUP5 ADD SWAP3 DUP4 MSTORE ISZERO ISZERO PUSH2 0xBA3 JUMP JUMPDEST MLOAD TIMESTAMP LT PUSH2 0x987 JUMPI DUP4 ISZERO PUSH2 0x95A JUMPI MLOAD AND SWAP5 DUP7 SWAP3 SWAP2 SWAP1 DUP7 EXTCODESIZE ISZERO PUSH2 0x956 JUMPI DUP4 DUP7 MLOAD SWAP8 DUP9 SWAP5 DUP6 SWAP4 PUSH4 0x4E06BAD1 PUSH1 0xE0 SHL DUP6 MSTORE DUP9 DUP6 ADD MSTORE PUSH1 0x24 DUP5 ADD MSTORE GAS CALL DUP1 ISZERO PUSH2 0x94C JUMPI PUSH2 0x921 JUMPI DUP4 DUP1 RETURN JUMPDEST PUSH8 0xFFFFFFFFFFFFFFFF DUP4 GT PUSH2 0x939 JUMPI POP MSTORE CODESIZE DUP1 DUP1 DUP4 DUP1 RETURN JUMPDEST PUSH4 0x4E487B71 PUSH1 0xE0 SHL DUP5 MSTORE PUSH1 0x41 SWAP1 MSTORE PUSH1 0x24 DUP4 REVERT JUMPDEST DUP3 MLOAD RETURNDATASIZE DUP7 DUP3 RETURNDATACOPY RETURNDATASIZE SWAP1 REVERT JUMPDEST DUP4 DUP1 REVERT JUMPDEST DUP6 MLOAD PUSH3 0x461BCD PUSH1 0xE5 SHL DUP2 MSTORE PUSH1 0x20 DUP2 DUP8 ADD MSTORE PUSH1 0x8 PUSH1 0x24 DUP3 ADD MSTORE PUSH8 0x616D6F756E743D3 PUSH1 0xC4 SHL DUP2 DUP6 ADD MSTORE PUSH1 0x64 SWAP1 REVERT JUMPDEST DUP6 MLOAD PUSH3 0x461BCD PUSH1 0xE5 SHL DUP2 MSTORE PUSH1 0x20 DUP2 DUP8 ADD MSTORE PUSH1 0xC PUSH1 0x24 DUP3 ADD MSTORE PUSH12 0x1B9BDD081D5B9B1BD8DAD959 PUSH1 0xA2 SHL DUP2 DUP6 ADD MSTORE PUSH1 0x64 SWAP1 REVERT JUMPDEST DUP5 MLOAD PUSH3 0x461BCD PUSH1 0xE5 SHL DUP2 MSTORE PUSH1 0x20 DUP2 DUP7 ADD MSTORE PUSH1 0x24 DUP2 ADD DUP6 SWAP1 MSTORE PUSH4 0x746F3D3 PUSH1 0xE4 SHL DUP2 DUP5 ADD MSTORE PUSH1 0x64 SWAP1 REVERT JUMPDEST DUP5 MLOAD PUSH3 0x461BCD PUSH1 0xE5 SHL DUP2 MSTORE PUSH1 0x20 DUP2 DUP7 ADD MSTORE PUSH1 0x10 PUSH1 0x24 DUP3 ADD MSTORE PUSH16 0x3737BA103637B0B71036B0B730B3B2B9 PUSH1 0x81 SHL DUP2 DUP5 ADD MSTORE PUSH1 0x64 SWAP1 REVERT JUMPDEST POP CALLVALUE PUSH2 0x126 JUMPI PUSH1 0x20 CALLDATASIZE PUSH1 0x3 NOT ADD SLT PUSH2 0x126 JUMPI PUSH1 0x80 SWAP3 DUP3 SWAP2 CALLDATALOAD DUP2 MSTORE PUSH1 0x2 PUSH1 0x20 MSTORE KECCAK256 SWAP1 PUSH1 0x1 DUP1 PUSH1 0xA0 SHL SUB SWAP2 DUP3 DUP2 SLOAD AND SWAP3 PUSH1 0x1 DUP3 ADD SLOAD AND SWAP2 PUSH1 0x3 PUSH1 0x2 DUP4 ADD SLOAD SWAP3 ADD SLOAD SWAP3 DUP2 MLOAD SWAP5 DUP6 MSTORE PUSH1 0x20 DUP6 ADD MSTORE DUP4 ADD MSTORE PUSH1 0x60 DUP3 ADD MSTORE RETURN JUMPDEST SWAP3 POP POP CALLVALUE PUSH2 0x126 JUMPI PUSH1 0x80 CALLDATASIZE PUSH1 0x3 NOT ADD SLT PUSH2 0x126 JUMPI PUSH2 0xA86 PUSH2 0xAD8 JUMP JUMPDEST POP PUSH2 0xA8F PUSH2 0xAEE JUMP JUMPDEST POP PUSH1 0x64 CALLDATALOAD SWAP1 PUSH8 0xFFFFFFFFFFFFFFFF SWAP1 DUP2 DUP4 GT PUSH2 0xAD4 JUMPI CALLDATASIZE PUSH1 0x23 DUP5 ADD SLT ISZERO PUSH2 0xAD4 JUMPI DUP3 ADD CALLDATALOAD SWAP1 DUP2 GT PUSH2 0x956 JUMPI CALLDATASIZE SWAP2 ADD PUSH1 0x24 ADD GT PUSH2 0x6F2 JUMPI PUSH4 0xA85BD01 PUSH1 0xE1 SHL DUP2 MSTORE PUSH1 0x20 SWAP1 RETURN JUMPDEST DUP5 DUP1 REVERT JUMPDEST PUSH1 0x4 CALLDATALOAD SWAP1 PUSH1 0x1 PUSH1 0x1 PUSH1 0xA0 SHL SUB DUP3 AND DUP3 SUB PUSH2 0x338 JUMPI JUMP JUMPDEST PUSH1 0x24 CALLDATALOAD SWAP1 PUSH1 0x1 PUSH1 0x1 PUSH1 0xA0 SHL SUB DUP3 AND DUP3 SUB PUSH2 0x338 JUMPI JUMP JUMPDEST PUSH1 0x0 SLOAD PUSH1 0x1 PUSH1 0x1 PUSH1 0xA0 SHL SUB AND CALLER SUB PUSH2 0xB18 JUMPI JUMP JUMPDEST PUSH1 0x40 MLOAD PUSH4 0x118CDAA7 PUSH1 0xE0 SHL DUP2 MSTORE CALLER PUSH1 0x4 DUP3 ADD MSTORE PUSH1 0x24 SWAP1 REVERT JUMPDEST PUSH1 0x80 DUP2 ADD SWAP1 DUP2 LT PUSH8 0xFFFFFFFFFFFFFFFF DUP3 GT OR PUSH2 0xB4C JUMPI PUSH1 0x40 MSTORE JUMP JUMPDEST PUSH4 0x4E487B71 PUSH1 0xE0 SHL PUSH1 0x0 MSTORE PUSH1 0x41 PUSH1 0x4 MSTORE PUSH1 0x24 PUSH1 0x0 REVERT JUMPDEST SWAP1 PUSH1 0x1F DUP1 NOT SWAP2 ADD AND DUP2 ADD SWAP1 DUP2 LT PUSH8 0xFFFFFFFFFFFFFFFF DUP3 GT OR PUSH2 0xB4C JUMPI PUSH1 0x40 MSTORE JUMP JUMPDEST SWAP1 DUP2 PUSH1 0x20 SWAP2 SUB SLT PUSH2 0x338 JUMPI MLOAD PUSH1 0x1 PUSH1 0x1 PUSH1 0xA0 SHL SUB DUP2 AND DUP2 SUB PUSH2 0x338 JUMPI SWAP1 JUMP JUMPDEST ISZERO PUSH2 0xBAA JUMPI JUMP JUMPDEST PUSH1 0x40 MLOAD PUSH3 0x461BCD PUSH1 0xE5 SHL DUP2 MSTORE PUSH1 0x20 PUSH1 0x4 DUP3 ADD MSTORE PUSH1 0x12 PUSH1 0x24 DUP3 ADD MSTORE PUSH18 0x1D5B9ADB9BDDDB8818DBDB1B185D195C985B PUSH1 0x72 SHL PUSH1 0x44 DUP3 ADD MSTORE PUSH1 0x64 SWAP1 REVERT INVALID LOG2 PUSH5 0x6970667358 0x22 SLT KECCAK256 PUSH1 0xD2 0xAD 0xEE EXTCODECOPY 0xE6 SELFDESTRUCT 0xAA SDIV SWAP15 SWAP16 0xB7 GASLIMIT 0xD1 JUMPDEST SWAP4 OR PUSH0 SWAP16 0xED PUSH21 0xF7478DBCD006B7FF25A31064736F6C634300081400 CALLER "},"gasEstimates":{"creation":{"codeDepositCost":"619600","executionCost":"26462","totalCost":"646062"},"external":{"collaterals(uint256)":"8771","escrow(uint256,address,address)":"infinite","getDetails(uint256)":"infinite","loanManager()":"2452","onERC721Received(address,address,uint256,bytes)":"453","owner()":"2430","releaseTo(uint256,address,uint256)":"infinite","renounceOwnership()":"28182","setLoanManager(address)":"26727","transferOwnership(address)":"28403","vestingContracts(uint256)":"2450"}},"methodIdentifiers":{"collaterals(uint256)":"24c1173b","escrow(uint256,address,address)":"f2b42e12","getDetails(uint256)":"b93a89f7","loanManager()":"b3ccbcfe","onERC721Received(address,address,uint256,bytes)":"150b7a02","owner()":"8da5cb5b","releaseTo(uint256,address,uint256)":"2a7d7bc5","renounceOwnership()":"715018a6","setLoanManager(address)":"5772ae70","transferOwnership(address)":"f2fde38b","vestingContracts(uint256)":"58281bf3"}},"storageLayout":{"storage":[{"astId":54,"contract":"contracts/VestingAdapter.sol:VestingAdapter","label":"_owner","offset":0,"slot":"0","type":"t_address"},{"astId":9196,"contract":"contracts/VestingAdapter.sol:VestingAdapter","label":"loanManager","offset":0,"slot":"1","type":"t_address"},{"astId":9201,"contract":"contracts/VestingAdapter.sol:VestingAdapter","label":"collaterals","offset":0,"slot":"2","type":"t_mapping(t_uint256,t_struct(Collateral)9194_storage)"},{"astId":9205,"contract":"contracts/VestingAdapter.sol:VestingAdapter","label":"vestingContracts","offset":0,"slot":"3","type":"t_mapping(t_uint256,t_address)"}],"types":{"t_address":{"encoding":"inplace","label":"address","numberOfBytes":"20"},"t_mapping(t_uint256,t_address)":{"encoding":"mapping","key":"t_uint256","label":"mapping(uint256 => address)","numberOfBytes":"32","value":"t_address"},"t_mapping(t_uint256,t_struct(Collateral)9194_storage)":{"encoding":"mapping","key":"t_uint256","label":"mapping(uint256 => struct VestingAdapter.Collateral)","numberOfBytes":"32","value":"t_struct(Collateral)9194_storage"},"t_struct(Collateral)9194_storage":{"encoding":"inplace","label":"struct VestingAdapter.Collateral","members":[{"astId":9187,"contract":"contracts/VestingAdapter.sol:VestingAdapter","label":"vestingContract","offset":0,"slot":"0","type":"t_address"},{"astId":9189,"contract":"contracts/VestingAdapter.sol:VestingAdapter","label":"token","offset":0,"slot":"1","type":"t_address"},{"astId":9191,"contract":"contracts/VestingAdapter.sol:VestingAdapter","label":"totalAmount","offset":0,"slot":"2","type":"t_uint256"},{"astId":9193,"contract":"contracts/VestingAdapter.sol:VestingAdapter","label":"unlockTime","offset":0,"slot":"3","type":"t_uint256"}],"numberOfBytes":"128"},"t_uint256":{"encoding":"inplace","label":"uint256","numberOfBytes":"32"}}},"userdoc":{"kind":"user","methods":{},"version":1}}}}