{"contracts/IdentityVerifierMock.sol":{"IdentityVerifierMock":{"abi":[{"anonymous":false,"inputs":[{"indexed":true,"internalType":"address","name":"user","type":"address"},{"indexed":false,"internalType":"bytes","name":"proof","type":"bytes"}],"name":"ProofSubmitted","type":"event"},{"inputs":[{"internalType":"address","name":"user","type":"address"}],"name":"isVerified","outputs":[{"internalType":"bool","name":"","type":"bool"}],"stateMutability":"view","type":"function"},{"inputs":[{"internalType":"address","name":"","type":"address"}],"name":"verified","outputs":[{"internalType":"bool","name":"","type":"bool"}],"stateMutability":"view","type":"function"},{"inputs":[{"internalType":"address","name":"user","type":"address"},{"internalType":"bytes","name":"proof","type":"bytes"}],"name":"verifyProof","outputs":[{"internalType":"bool","name":"","type":"bool"}],"stateMutability":"nonpayable","type":"function"}],"devdoc":{"kind":"dev","methods":{},"version":1},"evm":{"bytecode":{"linkReferences":{},"object":"6080806040523461001657610202908161001c8239f35b600080fdfe60806040818152600436101561001457600080fd5b600091823560e01c9081630db065f4146100f05750806358b23cd0146100825763b9209e331461004357600080fd5b3461007e57602036600319011261007e5760209160ff9082906001600160a01b0361006c61012e565b16815280855220541690519015158152f35b5080fd5b503461007e578060031936011261007e5761009b61012e565b60243567ffffffffffffffff938482116100ed57366023830112156100ed5781600401359485116100ed5736602486840101116100ed5750926100e49160246020950190610149565b90519015158152f35b80fd5b9190503461012a57602036600319011261012a5760209260ff91906001600160a01b0361011b61012e565b16815280855220541615158152f35b8280fd5b600435906001600160a01b038216820361014457565b600080fd5b909180156101c45760407fbd954cf27c1d4dfe72558701f7c657edbb5f946ac5f89715903a45265689432f9260018060a01b03169384600052600060205281600020600160ff1982541617905582825193849260208452816020850152848401376000828201840152601f01601f19168101030190a2600190565b50505060009056fea264697066735822122065e43c47088726dc8a52129a4661f72df9b973b836012b1870c2b3f2dce461ff64736f6c63430008140033","opcodes":"PUSH1 0x80 DUP1 PUSH1 0x40 MSTORE CALLVALUE PUSH2 0x16 JUMPI PUSH2 0x202 SWAP1 DUP2 PUSH2 0x1C DUP3 CODECOPY RETURN JUMPDEST PUSH1 0x0 DUP1 REVERT INVALID PUSH1 0x80 PUSH1 0x40 DUP2 DUP2 MSTORE PUSH1 0x4 CALLDATASIZE LT ISZERO PUSH2 0x14 JUMPI PUSH1 0x0 DUP1 REVERT JUMPDEST PUSH1 0x0 SWAP2 DUP3 CALLDATALOAD PUSH1 0xE0 SHR SWAP1 DUP2 PUSH4 0xDB065F4 EQ PUSH2 0xF0 JUMPI POP DUP1 PUSH4 0x58B23CD0 EQ PUSH2 0x82 JUMPI PUSH4 0xB9209E33 EQ PUSH2 0x43 JUMPI PUSH1 0x0 DUP1 REVERT JUMPDEST CALLVALUE PUSH2 0x7E JUMPI PUSH1 0x20 CALLDATASIZE PUSH1 0x3 NOT ADD SLT PUSH2 0x7E JUMPI PUSH1 0x20 SWAP2 PUSH1 0xFF SWAP1 DUP3 SWAP1 PUSH1 0x1 PUSH1 0x1 PUSH1 0xA0 SHL SUB PUSH2 0x6C PUSH2 0x12E JUMP JUMPDEST AND DUP2 MSTORE DUP1 DUP6 MSTORE KECCAK256 SLOAD AND SWAP1 MLOAD SWAP1 ISZERO ISZERO DUP2 MSTORE RETURN JUMPDEST POP DUP1 REVERT JUMPDEST POP CALLVALUE PUSH2 0x7E JUMPI DUP1 PUSH1 0x3 NOT CALLDATASIZE ADD SLT PUSH2 0x7E JUMPI PUSH2 0x9B PUSH2 0x12E JUMP JUMPDEST PUSH1 0x24 CALLDATALOAD PUSH8 0xFFFFFFFFFFFFFFFF SWAP4 DUP5 DUP3 GT PUSH2 0xED JUMPI CALLDATASIZE PUSH1 0x23 DUP4 ADD SLT ISZERO PUSH2 0xED JUMPI DUP2 PUSH1 0x4 ADD CALLDATALOAD SWAP5 DUP6 GT PUSH2 0xED JUMPI CALLDATASIZE PUSH1 0x24 DUP7 DUP5 ADD ADD GT PUSH2 0xED JUMPI POP SWAP3 PUSH2 0xE4 SWAP2 PUSH1 0x24 PUSH1 0x20 SWAP6 ADD SWAP1 PUSH2 0x149 JUMP JUMPDEST SWAP1 MLOAD SWAP1 ISZERO ISZERO DUP2 MSTORE RETURN JUMPDEST DUP1 REVERT JUMPDEST SWAP2 SWAP1 POP CALLVALUE PUSH2 0x12A JUMPI PUSH1 0x20 CALLDATASIZE PUSH1 0x3 NOT ADD SLT PUSH2 0x12A JUMPI PUSH1 0x20 SWAP3 PUSH1 0xFF SWAP2 SWAP1 PUSH1 0x1 PUSH1 0x1 PUSH1 0xA0 SHL SUB PUSH2 0x11B PUSH2 0x12E JUMP JUMPDEST AND DUP2 MSTORE DUP1 DUP6 MSTORE KECCAK256 SLOAD AND ISZERO ISZERO DUP2 MSTORE RETURN JUMPDEST DUP3 DUP1 REVERT JUMPDEST PUSH1 0x4 CALLDATALOAD SWAP1 PUSH1 0x1 PUSH1 0x1 PUSH1 0xA0 SHL SUB DUP3 AND DUP3 SUB PUSH2 0x144 JUMPI JUMP JUMPDEST PUSH1 0x0 DUP1 REVERT JUMPDEST SWAP1 SWAP2 DUP1 ISZERO PUSH2 0x1C4 JUMPI PUSH1 0x40 PUSH32 0xBD954CF27C1D4DFE72558701F7C657EDBB5F946AC5F89715903A45265689432F SWAP3 PUSH1 0x1 DUP1 PUSH1 0xA0 SHL SUB AND SWAP4 DUP5 PUSH1 0x0 MSTORE PUSH1 0x0 PUSH1 0x20 MSTORE DUP2 PUSH1 0x0 KECCAK256 PUSH1 0x1 PUSH1 0xFF NOT DUP3 SLOAD AND OR SWAP1 SSTORE DUP3 DUP3 MLOAD SWAP4 DUP5 SWAP3 PUSH1 0x20 DUP5 MSTORE DUP2 PUSH1 0x20 DUP6 ADD MSTORE DUP5 DUP5 ADD CALLDATACOPY PUSH1 0x0 DUP3 DUP3 ADD DUP5 ADD MSTORE PUSH1 0x1F ADD PUSH1 0x1F NOT AND DUP2 ADD SUB ADD SWAP1 LOG2 PUSH1 0x1 SWAP1 JUMP JUMPDEST POP POP POP PUSH1 0x0 SWAP1 JUMP INVALID LOG2 PUSH5 0x6970667358 0x22 SLT KECCAK256 PUSH6 0xE43C47088726 0xDC DUP11 MSTORE SLT SWAP11 CHAINID PUSH2 0xF72D 0xF9 0xB9 PUSH20 0xB836012B1870C2B3F2DCE461FF64736F6C634300 ADDMOD EQ STOP CALLER "},"gasEstimates":{"creation":{"codeDepositCost":"102800","executionCost":"159","totalCost":"102959"},"external":{"isVerified(address)":"2477","verified(address)":"2430","verifyProof(address,bytes)":"infinite"}},"methodIdentifiers":{"isVerified(address)":"b9209e33","verified(address)":"0db065f4","verifyProof(address,bytes)":"58b23cd0"}},"storageLayout":{"storage":[{"astId":7438,"contract":"contracts/IdentityVerifierMock.sol:IdentityVerifierMock","label":"verified","offset":0,"slot":"0","type":"t_mapping(t_address,t_bool)"}],"types":{"t_address":{"encoding":"inplace","label":"address","numberOfBytes":"20"},"t_bool":{"encoding":"inplace","label":"bool","numberOfBytes":"1"},"t_mapping(t_address,t_bool)":{"encoding":"mapping","key":"t_address","label":"mapping(address => bool)","numberOfBytes":"32","value":"t_bool"}}},"userdoc":{"kind":"user","methods":{},"notice":"Mock verifier that simulates Semaphore-style proof checks. This is intentionally permissive for testnets and demos.","version":1}}}}