{"contracts/mocks/MockSwapRouter.sol":{"MockSwapRouter":{"abi":[{"inputs":[{"components":[{"internalType":"bytes","name":"path","type":"bytes"},{"internalType":"address","name":"recipient","type":"address"},{"internalType":"uint256","name":"deadline","type":"uint256"},{"internalType":"uint256","name":"amountIn","type":"uint256"},{"internalType":"uint256","name":"amountOutMinimum","type":"uint256"}],"internalType":"struct ISwapRouter.ExactInputParams","name":"","type":"tuple"}],"name":"exactInput","outputs":[{"internalType":"uint256","name":"","type":"uint256"}],"stateMutability":"payable","type":"function"},{"inputs":[{"components":[{"internalType":"address","name":"tokenIn","type":"address"},{"internalType":"address","name":"tokenOut","type":"address"},{"internalType":"uint24","name":"fee","type":"uint24"},{"internalType":"address","name":"recipient","type":"address"},{"internalType":"uint256","name":"deadline","type":"uint256"},{"internalType":"uint256","name":"amountIn","type":"uint256"},{"internalType":"uint256","name":"amountOutMinimum","type":"uint256"},{"internalType":"uint160","name":"sqrtPriceLimitX96","type":"uint160"}],"internalType":"struct ISwapRouter.ExactInputSingleParams","name":"params","type":"tuple"}],"name":"exactInputSingle","outputs":[{"internalType":"uint256","name":"amountOut","type":"uint256"}],"stateMutability":"payable","type":"function"},{"inputs":[{"components":[{"internalType":"bytes","name":"path","type":"bytes"},{"internalType":"address","name":"recipient","type":"address"},{"internalType":"uint256","name":"deadline","type":"uint256"},{"internalType":"uint256","name":"amountOut","type":"uint256"},{"internalType":"uint256","name":"amountInMaximum","type":"uint256"}],"internalType":"struct ISwapRouter.ExactOutputParams","name":"","type":"tuple"}],"name":"exactOutput","outputs":[{"internalType":"uint256","name":"","type":"uint256"}],"stateMutability":"payable","type":"function"},{"inputs":[{"components":[{"internalType":"address","name":"tokenIn","type":"address"},{"internalType":"address","name":"tokenOut","type":"address"},{"internalType":"uint24","name":"fee","type":"uint24"},{"internalType":"address","name":"recipient","type":"address"},{"internalType":"uint256","name":"deadline","type":"uint256"},{"internalType":"uint256","name":"amountOut","type":"uint256"},{"internalType":"uint256","name":"amountInMaximum","type":"uint256"},{"internalType":"uint160","name":"sqrtPriceLimitX96","type":"uint160"}],"internalType":"struct ISwapRouter.ExactOutputSingleParams","name":"","type":"tuple"}],"name":"exactOutputSingle","outputs":[{"internalType":"uint256","name":"","type":"uint256"}],"stateMutability":"payable","type":"function"},{"inputs":[{"internalType":"int256","name":"","type":"int256"},{"internalType":"int256","name":"","type":"int256"},{"internalType":"bytes","name":"","type":"bytes"}],"name":"uniswapV3SwapCallback","outputs":[],"stateMutability":"pure","type":"function"}],"devdoc":{"kind":"dev","methods":{"exactInputSingle((address,address,uint24,address,uint256,uint256,uint256,uint160))":{"params":{"params":"The parameters necessary for the swap, encoded as `ExactInputSingleParams` in calldata"},"returns":{"amountOut":"The amount of the received token"}}},"version":1},"evm":{"bytecode":{"linkReferences":{},"object":"6080806040523461001657610428908161001c8239f35b600080fdfe60406080815260048036101561001457600080fd5b6000803560e01c8063414bf38914610155578063c04b8d59146100d3578063db3e219814610112578063f28c0498146100d35763fa461e331461005657600080fd5b346100cc5760603660031901126100cc5760443567ffffffffffffffff8082116100cf57366023830112156100cf57818401359081116100cf57369101602401116100cc57506020606492519162461bcd60e51b8352820152600b60248201526a1d5b9cdd5c1c1bdc9d195960aa1b6044820152fd5b80fd5b8280fd5b6064836020866100e23661017a565b505162461bcd60e51b815291820152600f60248201526e1b9bdd081a5b5c1b195b595b9d1959608a1b6044820152fd5b506101003660031901126100cc57506020606492519162461bcd60e51b8352820152600f60248201526e1b9bdd081a5b5c1b195b595b9d1959608a1b6044820152fd5b50826101003660031901126101765760209061016f61023f565b9051908152f35b5080fd5b600319906020818301126101ac576004359167ffffffffffffffff83116101ac578260a0920301126101ac5760040190565b600080fd5b90601f8019910116810190811067ffffffffffffffff8211176101d357604052565b634e487b7160e01b600052604160045260246000fd5b908160209103126101ac575180151581036101ac5790565b1561020857565b60405162461bcd60e51b815260206004820152600f60248201526e1d1c985b9cd9995c8819985a5b1959608a1b6044820152606490fd5b6001600160a01b0390600435828116908190036101ac576024358381168091036101ac5780821461036a576040516323b872dd60e01b815233600482015230602482015260a4356044820181905260009590936020938793909185908290606490829088905af1801561035f576102bd918591610342575b50610201565b6064359182168092036100cf5760448492604051948593849263a9059cbb60e01b845260048401528860248401525af1918215610337576103079394959261030a575b5050610201565b90565b6103299250803d10610330575b61032181836101b1565b8101906101e9565b3880610300565b503d610317565b6040513d87823e3d90fd5b6103599150863d88116103305761032181836101b1565b386102b7565b6040513d86823e3d90fd5b50909160643590811681036101ac576040516323b872dd60e01b81523360048201526001600160a01b0391909116602482015260a4356044820181905291602090829060649082906000905af180156103e657610307916000916103ce5750610201565b610359915060203d81116103305761032181836101b1565b6040513d6000823e3d90fdfea2646970667358221220ae03ea931b58bb506e147cf57a6c45905459e085069f3ef35e326a7912dbb39764736f6c63430008140033","opcodes":"PUSH1 0x80 DUP1 PUSH1 0x40 MSTORE CALLVALUE PUSH2 0x16 JUMPI PUSH2 0x428 SWAP1 DUP2 PUSH2 0x1C DUP3 CODECOPY RETURN JUMPDEST PUSH1 0x0 DUP1 REVERT INVALID PUSH1 0x40 PUSH1 0x80 DUP2 MSTORE PUSH1 0x4 DUP1 CALLDATASIZE LT ISZERO PUSH2 0x14 JUMPI PUSH1 0x0 DUP1 REVERT JUMPDEST PUSH1 0x0 DUP1 CALLDATALOAD PUSH1 0xE0 SHR DUP1 PUSH4 0x414BF389 EQ PUSH2 0x155 JUMPI DUP1 PUSH4 0xC04B8D59 EQ PUSH2 0xD3 JUMPI DUP1 PUSH4 0xDB3E2198 EQ PUSH2 0x112 JUMPI DUP1 PUSH4 0xF28C0498 EQ PUSH2 0xD3 JUMPI PUSH4 0xFA461E33 EQ PUSH2 0x56 JUMPI PUSH1 0x0 DUP1 REVERT JUMPDEST CALLVALUE PUSH2 0xCC JUMPI PUSH1 0x60 CALLDATASIZE PUSH1 0x3 NOT ADD SLT PUSH2 0xCC JUMPI PUSH1 0x44 CALLDATALOAD PUSH8 0xFFFFFFFFFFFFFFFF DUP1 DUP3 GT PUSH2 0xCF JUMPI CALLDATASIZE PUSH1 0x23 DUP4 ADD SLT ISZERO PUSH2 0xCF JUMPI DUP2 DUP5 ADD CALLDATALOAD SWAP1 DUP2 GT PUSH2 0xCF JUMPI CALLDATASIZE SWAP2 ADD PUSH1 0x24 ADD GT PUSH2 0xCC JUMPI POP PUSH1 0x20 PUSH1 0x64 SWAP3 MLOAD SWAP2 PUSH3 0x461BCD PUSH1 0xE5 SHL DUP4 MSTORE DUP3 ADD MSTORE PUSH1 0xB PUSH1 0x24 DUP3 ADD MSTORE PUSH11 0x1D5B9CDD5C1C1BDC9D1959 PUSH1 0xAA SHL PUSH1 0x44 DUP3 ADD MSTORE REVERT JUMPDEST DUP1 REVERT JUMPDEST DUP3 DUP1 REVERT JUMPDEST PUSH1 0x64 DUP4 PUSH1 0x20 DUP7 PUSH2 0xE2 CALLDATASIZE PUSH2 0x17A JUMP JUMPDEST POP MLOAD PUSH3 0x461BCD PUSH1 0xE5 SHL DUP2 MSTORE SWAP2 DUP3 ADD MSTORE PUSH1 0xF PUSH1 0x24 DUP3 ADD MSTORE PUSH15 0x1B9BDD081A5B5C1B195B595B9D1959 PUSH1 0x8A SHL PUSH1 0x44 DUP3 ADD MSTORE REVERT JUMPDEST POP PUSH2 0x100 CALLDATASIZE PUSH1 0x3 NOT ADD SLT PUSH2 0xCC JUMPI POP PUSH1 0x20 PUSH1 0x64 SWAP3 MLOAD SWAP2 PUSH3 0x461BCD PUSH1 0xE5 SHL DUP4 MSTORE DUP3 ADD MSTORE PUSH1 0xF PUSH1 0x24 DUP3 ADD MSTORE PUSH15 0x1B9BDD081A5B5C1B195B595B9D1959 PUSH1 0x8A SHL PUSH1 0x44 DUP3 ADD MSTORE REVERT JUMPDEST POP DUP3 PUSH2 0x100 CALLDATASIZE PUSH1 0x3 NOT ADD SLT PUSH2 0x176 JUMPI PUSH1 0x20 SWAP1 PUSH2 0x16F PUSH2 0x23F JUMP JUMPDEST SWAP1 MLOAD SWAP1 DUP2 MSTORE RETURN JUMPDEST POP DUP1 REVERT JUMPDEST PUSH1 0x3 NOT SWAP1 PUSH1 0x20 DUP2 DUP4 ADD SLT PUSH2 0x1AC JUMPI PUSH1 0x4 CALLDATALOAD SWAP2 PUSH8 0xFFFFFFFFFFFFFFFF DUP4 GT PUSH2 0x1AC JUMPI DUP3 PUSH1 0xA0 SWAP3 SUB ADD SLT PUSH2 0x1AC JUMPI PUSH1 0x4 ADD SWAP1 JUMP JUMPDEST PUSH1 0x0 DUP1 REVERT JUMPDEST SWAP1 PUSH1 0x1F DUP1 NOT SWAP2 ADD AND DUP2 ADD SWAP1 DUP2 LT PUSH8 0xFFFFFFFFFFFFFFFF DUP3 GT OR PUSH2 0x1D3 JUMPI PUSH1 0x40 MSTORE JUMP JUMPDEST PUSH4 0x4E487B71 PUSH1 0xE0 SHL PUSH1 0x0 MSTORE PUSH1 0x41 PUSH1 0x4 MSTORE PUSH1 0x24 PUSH1 0x0 REVERT JUMPDEST SWAP1 DUP2 PUSH1 0x20 SWAP2 SUB SLT PUSH2 0x1AC JUMPI MLOAD DUP1 ISZERO ISZERO DUP2 SUB PUSH2 0x1AC JUMPI SWAP1 JUMP JUMPDEST ISZERO PUSH2 0x208 JUMPI JUMP JUMPDEST PUSH1 0x40 MLOAD PUSH3 0x461BCD PUSH1 0xE5 SHL DUP2 MSTORE PUSH1 0x20 PUSH1 0x4 DUP3 ADD MSTORE PUSH1 0xF PUSH1 0x24 DUP3 ADD MSTORE PUSH15 0x1D1C985B9CD9995C8819985A5B1959 PUSH1 0x8A SHL PUSH1 0x44 DUP3 ADD MSTORE PUSH1 0x64 SWAP1 REVERT JUMPDEST PUSH1 0x1 PUSH1 0x1 PUSH1 0xA0 SHL SUB SWAP1 PUSH1 0x4 CALLDATALOAD DUP3 DUP2 AND SWAP1 DUP2 SWAP1 SUB PUSH2 0x1AC JUMPI PUSH1 0x24 CALLDATALOAD DUP4 DUP2 AND DUP1 SWAP2 SUB PUSH2 0x1AC JUMPI DUP1 DUP3 EQ PUSH2 0x36A JUMPI PUSH1 0x40 MLOAD PUSH4 0x23B872DD PUSH1 0xE0 SHL DUP2 MSTORE CALLER PUSH1 0x4 DUP3 ADD MSTORE ADDRESS PUSH1 0x24 DUP3 ADD MSTORE PUSH1 0xA4 CALLDATALOAD PUSH1 0x44 DUP3 ADD DUP2 SWAP1 MSTORE PUSH1 0x0 SWAP6 SWAP1 SWAP4 PUSH1 0x20 SWAP4 DUP8 SWAP4 SWAP1 SWAP2 DUP6 SWAP1 DUP3 SWAP1 PUSH1 0x64 SWAP1 DUP3 SWAP1 DUP9 SWAP1 GAS CALL DUP1 ISZERO PUSH2 0x35F JUMPI PUSH2 0x2BD SWAP2 DUP6 SWAP2 PUSH2 0x342 JUMPI JUMPDEST POP PUSH2 0x201 JUMP JUMPDEST PUSH1 0x64 CALLDATALOAD SWAP2 DUP3 AND DUP1 SWAP3 SUB PUSH2 0xCF JUMPI PUSH1 0x44 DUP5 SWAP3 PUSH1 0x40 MLOAD SWAP5 DUP6 SWAP4 DUP5 SWAP3 PUSH4 0xA9059CBB PUSH1 0xE0 SHL DUP5 MSTORE PUSH1 0x4 DUP5 ADD MSTORE DUP9 PUSH1 0x24 DUP5 ADD MSTORE GAS CALL SWAP2 DUP3 ISZERO PUSH2 0x337 JUMPI PUSH2 0x307 SWAP4 SWAP5 SWAP6 SWAP3 PUSH2 0x30A JUMPI JUMPDEST POP POP PUSH2 0x201 JUMP JUMPDEST SWAP1 JUMP JUMPDEST PUSH2 0x329 SWAP3 POP DUP1 RETURNDATASIZE LT PUSH2 0x330 JUMPI JUMPDEST PUSH2 0x321 DUP2 DUP4 PUSH2 0x1B1 JUMP JUMPDEST DUP2 ADD SWAP1 PUSH2 0x1E9 JUMP JUMPDEST CODESIZE DUP1 PUSH2 0x300 JUMP JUMPDEST POP RETURNDATASIZE PUSH2 0x317 JUMP JUMPDEST PUSH1 0x40 MLOAD RETURNDATASIZE DUP8 DUP3 RETURNDATACOPY RETURNDATASIZE SWAP1 REVERT JUMPDEST PUSH2 0x359 SWAP2 POP DUP7 RETURNDATASIZE DUP9 GT PUSH2 0x330 JUMPI PUSH2 0x321 DUP2 DUP4 PUSH2 0x1B1 JUMP JUMPDEST CODESIZE PUSH2 0x2B7 JUMP JUMPDEST PUSH1 0x40 MLOAD RETURNDATASIZE DUP7 DUP3 RETURNDATACOPY RETURNDATASIZE SWAP1 REVERT JUMPDEST POP SWAP1 SWAP2 PUSH1 0x64 CALLDATALOAD SWAP1 DUP2 AND DUP2 SUB PUSH2 0x1AC JUMPI PUSH1 0x40 MLOAD PUSH4 0x23B872DD PUSH1 0xE0 SHL DUP2 MSTORE CALLER PUSH1 0x4 DUP3 ADD MSTORE PUSH1 0x1 PUSH1 0x1 PUSH1 0xA0 SHL SUB SWAP2 SWAP1 SWAP2 AND PUSH1 0x24 DUP3 ADD MSTORE PUSH1 0xA4 CALLDATALOAD PUSH1 0x44 DUP3 ADD DUP2 SWAP1 MSTORE SWAP2 PUSH1 0x20 SWAP1 DUP3 SWAP1 PUSH1 0x64 SWAP1 DUP3 SWAP1 PUSH1 0x0 SWAP1 GAS CALL DUP1 ISZERO PUSH2 0x3E6 JUMPI PUSH2 0x307 SWAP2 PUSH1 0x0 SWAP2 PUSH2 0x3CE JUMPI POP PUSH2 0x201 JUMP JUMPDEST PUSH2 0x359 SWAP2 POP PUSH1 0x20 RETURNDATASIZE DUP2 GT PUSH2 0x330 JUMPI PUSH2 0x321 DUP2 DUP4 PUSH2 0x1B1 JUMP JUMPDEST PUSH1 0x40 MLOAD RETURNDATASIZE PUSH1 0x0 DUP3 RETURNDATACOPY RETURNDATASIZE SWAP1 REVERT INVALID LOG2 PUSH5 0x6970667358 0x22 SLT KECCAK256 0xAE SUB 0xEA SWAP4 SHL PC 0xBB POP PUSH15 0x147CF57A6C45905459E085069F3EF3 0x5E ORIGIN PUSH11 0x7912DBB39764736F6C6343 STOP ADDMOD EQ STOP CALLER "},"gasEstimates":{"creation":{"codeDepositCost":"212800","executionCost":"263","totalCost":"213063"},"external":{"exactInput((bytes,address,uint256,uint256,uint256))":"338","exactInputSingle((address,address,uint24,address,uint256,uint256,uint256,uint160))":"infinite","exactOutput((bytes,address,uint256,uint256,uint256))":"382","exactOutputSingle((address,address,uint24,address,uint256,uint256,uint256,uint160))":"255","uniswapV3SwapCallback(int256,int256,bytes)":"434"}},"methodIdentifiers":{"exactInput((bytes,address,uint256,uint256,uint256))":"c04b8d59","exactInputSingle((address,address,uint24,address,uint256,uint256,uint256,uint160))":"414bf389","exactOutput((bytes,address,uint256,uint256,uint256))":"f28c0498","exactOutputSingle((address,address,uint24,address,uint256,uint256,uint256,uint160))":"db3e2198","uniswapV3SwapCallback(int256,int256,bytes)":"fa461e33"}},"storageLayout":{"storage":[],"types":null},"userdoc":{"kind":"user","methods":{"exactInputSingle((address,address,uint24,address,uint256,uint256,uint256,uint160))":{"notice":"Swaps `amountIn` of one token for as much as possible of another token"}},"version":1}}}}