{
  "_format": "hh-sol-artifact-1",
  "contractName": "DutchAuction",
  "sourceName": "contracts/DutchAuction.sol",
  "abi": [
    {
      "inputs": [
        {
          "internalType": "address",
          "name": "_adapter",
          "type": "address"
        },
        {
          "internalType": "address",
          "name": "_usdc",
          "type": "address"
        }
      ],
      "stateMutability": "nonpayable",
      "type": "constructor"
    },
    {
      "inputs": [],
      "name": "EnforcedPause",
      "type": "error"
    },
    {
      "inputs": [],
      "name": "ExpectedPause",
      "type": "error"
    },
    {
      "inputs": [
        {
          "internalType": "address",
          "name": "owner",
          "type": "address"
        }
      ],
      "name": "OwnableInvalidOwner",
      "type": "error"
    },
    {
      "inputs": [
        {
          "internalType": "address",
          "name": "account",
          "type": "address"
        }
      ],
      "name": "OwnableUnauthorizedAccount",
      "type": "error"
    },
    {
      "inputs": [],
      "name": "ReentrancyGuardReentrantCall",
      "type": "error"
    },
    {
      "inputs": [
        {
          "internalType": "address",
          "name": "token",
          "type": "address"
        }
      ],
      "name": "SafeERC20FailedOperation",
      "type": "error"
    },
    {
      "anonymous": false,
      "inputs": [
        {
          "indexed": false,
          "internalType": "uint256",
          "name": "auctionId",
          "type": "uint256"
        },
        {
          "indexed": false,
          "internalType": "address",
          "name": "winner",
          "type": "address"
        },
        {
          "indexed": false,
          "internalType": "uint256",
          "name": "amount",
          "type": "uint256"
        }
      ],
      "name": "AuctionClaimed",
      "type": "event"
    },
    {
      "anonymous": false,
      "inputs": [
        {
          "indexed": false,
          "internalType": "uint256",
          "name": "auctionId",
          "type": "uint256"
        },
        {
          "indexed": false,
          "internalType": "uint256",
          "name": "collateralId",
          "type": "uint256"
        }
      ],
      "name": "AuctionCreated",
      "type": "event"
    },
    {
      "anonymous": false,
      "inputs": [
        {
          "indexed": false,
          "internalType": "uint256",
          "name": "auctionId",
          "type": "uint256"
        },
        {
          "indexed": false,
          "internalType": "address",
          "name": "winner",
          "type": "address"
        },
        {
          "indexed": false,
          "internalType": "uint256",
          "name": "amount",
          "type": "uint256"
        }
      ],
      "name": "AuctionEnded",
      "type": "event"
    },
    {
      "anonymous": false,
      "inputs": [
        {
          "indexed": false,
          "internalType": "uint256",
          "name": "auctionId",
          "type": "uint256"
        },
        {
          "indexed": false,
          "internalType": "address",
          "name": "winner",
          "type": "address"
        },
        {
          "indexed": false,
          "internalType": "uint256",
          "name": "amount",
          "type": "uint256"
        }
      ],
      "name": "AuctionFinalized",
      "type": "event"
    },
    {
      "anonymous": false,
      "inputs": [
        {
          "indexed": false,
          "internalType": "uint256",
          "name": "auctionId",
          "type": "uint256"
        },
        {
          "indexed": false,
          "internalType": "uint256",
          "name": "bid",
          "type": "uint256"
        }
      ],
      "name": "BidPlaced",
      "type": "event"
    },
    {
      "anonymous": false,
      "inputs": [
        {
          "indexed": true,
          "internalType": "address",
          "name": "previousOwner",
          "type": "address"
        },
        {
          "indexed": true,
          "internalType": "address",
          "name": "newOwner",
          "type": "address"
        }
      ],
      "name": "OwnershipTransferred",
      "type": "event"
    },
    {
      "anonymous": false,
      "inputs": [
        {
          "indexed": false,
          "internalType": "address",
          "name": "account",
          "type": "address"
        }
      ],
      "name": "Paused",
      "type": "event"
    },
    {
      "anonymous": false,
      "inputs": [
        {
          "indexed": false,
          "internalType": "address",
          "name": "account",
          "type": "address"
        }
      ],
      "name": "Unpaused",
      "type": "event"
    },
    {
      "inputs": [],
      "name": "BPS_DENOMINATOR",
      "outputs": [
        {
          "internalType": "uint256",
          "name": "",
          "type": "uint256"
        }
      ],
      "stateMutability": "view",
      "type": "function"
    },
    {
      "inputs": [],
      "name": "FEE_BPS",
      "outputs": [
        {
          "internalType": "uint256",
          "name": "",
          "type": "uint256"
        }
      ],
      "stateMutability": "view",
      "type": "function"
    },
    {
      "inputs": [],
      "name": "adapter",
      "outputs": [
        {
          "internalType": "contract VestingAdapter",
          "name": "",
          "type": "address"
        }
      ],
      "stateMutability": "view",
      "type": "function"
    },
    {
      "inputs": [],
      "name": "auctionCount",
      "outputs": [
        {
          "internalType": "uint256",
          "name": "",
          "type": "uint256"
        }
      ],
      "stateMutability": "view",
      "type": "function"
    },
    {
      "inputs": [
        {
          "internalType": "uint256",
          "name": "",
          "type": "uint256"
        }
      ],
      "name": "auctions",
      "outputs": [
        {
          "internalType": "uint256",
          "name": "collateralId",
          "type": "uint256"
        },
        {
          "internalType": "uint256",
          "name": "startPrice",
          "type": "uint256"
        },
        {
          "internalType": "uint256",
          "name": "endPrice",
          "type": "uint256"
        },
        {
          "internalType": "uint256",
          "name": "duration",
          "type": "uint256"
        },
        {
          "internalType": "uint256",
          "name": "startTime",
          "type": "uint256"
        },
        {
          "internalType": "address",
          "name": "seller",
          "type": "address"
        },
        {
          "internalType": "address",
          "name": "highestBidder",
          "type": "address"
        },
        {
          "internalType": "uint256",
          "name": "highestBid",
          "type": "uint256"
        }
      ],
      "stateMutability": "view",
      "type": "function"
    },
    {
      "inputs": [
        {
          "internalType": "uint256",
          "name": "auctionId",
          "type": "uint256"
        },
        {
          "internalType": "uint256",
          "name": "amount",
          "type": "uint256"
        }
      ],
      "name": "bid",
      "outputs": [],
      "stateMutability": "nonpayable",
      "type": "function"
    },
    {
      "inputs": [
        {
          "internalType": "uint256",
          "name": "auctionId",
          "type": "uint256"
        }
      ],
      "name": "claim",
      "outputs": [],
      "stateMutability": "nonpayable",
      "type": "function"
    },
    {
      "inputs": [
        {
          "internalType": "uint256",
          "name": "collateralId",
          "type": "uint256"
        },
        {
          "internalType": "address",
          "name": "vestingContract",
          "type": "address"
        },
        {
          "internalType": "uint256",
          "name": "startPrice",
          "type": "uint256"
        },
        {
          "internalType": "uint256",
          "name": "endPrice",
          "type": "uint256"
        },
        {
          "internalType": "uint256",
          "name": "duration",
          "type": "uint256"
        }
      ],
      "name": "createAuction",
      "outputs": [],
      "stateMutability": "nonpayable",
      "type": "function"
    },
    {
      "inputs": [
        {
          "internalType": "uint256",
          "name": "auctionId",
          "type": "uint256"
        }
      ],
      "name": "endAuction",
      "outputs": [],
      "stateMutability": "nonpayable",
      "type": "function"
    },
    {
      "inputs": [
        {
          "internalType": "uint256",
          "name": "auctionId",
          "type": "uint256"
        }
      ],
      "name": "getCurrentPrice",
      "outputs": [
        {
          "internalType": "uint256",
          "name": "",
          "type": "uint256"
        }
      ],
      "stateMutability": "view",
      "type": "function"
    },
    {
      "inputs": [],
      "name": "owner",
      "outputs": [
        {
          "internalType": "address",
          "name": "",
          "type": "address"
        }
      ],
      "stateMutability": "view",
      "type": "function"
    },
    {
      "inputs": [],
      "name": "pause",
      "outputs": [],
      "stateMutability": "nonpayable",
      "type": "function"
    },
    {
      "inputs": [],
      "name": "paused",
      "outputs": [
        {
          "internalType": "bool",
          "name": "",
          "type": "bool"
        }
      ],
      "stateMutability": "view",
      "type": "function"
    },
    {
      "inputs": [],
      "name": "renounceOwnership",
      "outputs": [],
      "stateMutability": "nonpayable",
      "type": "function"
    },
    {
      "inputs": [
        {
          "internalType": "address",
          "name": "newOwner",
          "type": "address"
        }
      ],
      "name": "transferOwnership",
      "outputs": [],
      "stateMutability": "nonpayable",
      "type": "function"
    },
    {
      "inputs": [],
      "name": "unpause",
      "outputs": [],
      "stateMutability": "nonpayable",
      "type": "function"
    },
    {
      "inputs": [],
      "name": "usdc",
      "outputs": [
        {
          "internalType": "contract IERC20",
          "name": "",
          "type": "address"
        }
      ],
      "stateMutability": "view",
      "type": "function"
    }
  ],
  "bytecode": "0x60c03461016c5761133a90601f38839003908101601f19168201906001600160401b03821183831017610171578083916040958694855283398101031261016c57610055602061004e83610187565b9201610187565b9033156101545760008054336001600160a01b03198216811783558551946001600160a01b0394909385939192918416907f8be0079c531659141344cd1fd0a4f28419497f9722a3daafe3b4186f6b6457e09080a360018055169283156101265750169081156100f95760805260a0525161119e908161019c82396080518181816103a901528181610b1c0152610e5c015260a0518181816106d20152610a8b0152f35b825162461bcd60e51b81526020600482015260066024820152650757364633d360d41b6044820152606490fd5b62461bcd60e51b81526020600482015260096024820152680616461707465723d360bc1b6044820152606490fd5b8251631e4fbdf760e01b815260006004820152602490fd5b600080fd5b634e487b7160e01b600052604160045260246000fd5b51906001600160a01b038216820361016c5756fe608060408181526004908136101561001657600080fd5b600092833560e01c90816303eadcfc14610e48575080632ad7157314610e29578063379607f514610aba5780633e413bee14610a765780633f4ba83a14610a0c578063571a26a01461098d578063598647f8146106665780635c975abb14610642578063715018a6146105e55780638456cb591461058a5780638874c3891461035d5780638da5cb5b14610335578063b9a2de3a146101e9578063bf333f2c146101cd578063c55d0f5614610196578063e1a45218146101755763f2fde38b146100df57600080fd5b34610171576020366003190112610171576001600160a01b0382358181169391929084900361016c57610110610e8b565b8315610156575050600054826001600160601b0360a01b821617600055167f8be0079c531659141344cd1fd0a4f28419497f9722a3daafe3b4186f6b6457e0600080a380f35b51631e4fbdf760e01b8152908101849052602490fd5b600080fd5b8280fd5b838234610192578160031936011261019257602090516127108152f35b5080fd5b509034610171576020366003190112610171576101c1826020946101c6933581526003865220610f3f565b6110e0565b9051908152f35b8382346101925781600319360112610192576020905160c88152f35b5034610171576020918260031936011261033157803592610208610f1c565b610210610efe565b8385526003815261022a610225848720610f3f565b6110c7565b6103085760609284926000927fd2aa34a4fdbbc6dff6a3e56f46e0f3ae2a31d7785ff3487aa5c95c642acea50196885281815261027060ff6002858b200154161561100d565b8488526003815260018060a01b036005848a200154169185855281528284206001600282019186828454926102a860ff85161561100d565b876001600160601b0360a01b825416178155015560ff19161790557f4d9113a1377d665eaa1f9168a9c9080f2e488cb820b10149de3d6d2e0f2780c786845187815284848201528686820152a18251948552840152820152a16001805580f35b606492519162461bcd60e51b8352820152600660248201526561637469766560d01b6044820152fd5b8380fd5b838234610192578160031936011261019257905490516001600160a01b039091168152602090f35b508290346101925760a0366003190112610192578235906001600160a01b036024358181169081900361016c57604435906084359061039a610efe565b821561055d57811561052d57837f000000000000000000000000000000000000000000000000000000000000000016803b15610529578660648a8a80948a51968795869463795a170960e11b865285015260248401523360448401525af1801561051f579087939291610501575b50916007918594937fe00a2da3a0f34a566402a244ab7ec63f8ab7472591cb18edf3269aa00461a41096519461043d86610ee1565b8886526020860192835286860191606435835260608701908152608087019042825260a088019333855260c08901958787528a60e08b0198808a52600554815260036020522099518a555160018a0155516002890155516003880155518b8701558060058701925116916001600160601b0360a01b9283825416179055600686019251169082541617905551910155600554928151908482526020820152a160001981146104ee5760010160055580f35b506011602492634e487b7160e01b835252fd5b61050e9093919293610eb7565b61051b5790859188610408565b8580fd5b85513d89823e3d90fd5b8780fd5b845162461bcd60e51b81526020818a0152600a60248201526906475726174696f6e3d360b41b6044820152606490fd5b845162461bcd60e51b81526020818a01526007602482015266073746172743d360cc1b6044820152606490fd5b83823461019257816003193601126101925760207f62e78cea01bee320cd4e420270b5ea74000d11b0c9f74754ebdbfc544b05a258916105c8610e8b565b6105d0610efe565b600160ff19600254161760025551338152a180f35b833461063f578060031936011261063f576105fe610e8b565b600080546001600160a01b0319811682556001600160a01b03167f8be0079c531659141344cd1fd0a4f28419497f9722a3daafe3b4186f6b6457e08280a380f35b80fd5b83823461019257816003193601126101925760209060ff6002541690519015158152f35b5091903461019257826003193601126101925780356024803592610688610f1c565b610690610efe565b82855260209160038352868620926106aa61022585610f3f565b15610965576001840154600285015411610939576106ca6101c185610f3f565b860361090c577f00000000000000000000000000000000000000000000000000000000000000009388516323b872dd60e01b8382015233848201523060448201528760648201526064815260a0810181811067ffffffffffffffff8211176108f8578a526107389086610fa5565b86600760068301926001600160601b0360a01b93338582541617905501557f0fc69407039e8ba8cdd517e2a4cae9dd19697b0a500ff37a2425c59ebc649b318980518881528985820152a18560005283825260018960002091888260028501948554936107a860ff86161561100d565b81541633178155015560ff1916179055851590811561084e575b88518681523360208201526040810188905288907fd2aa34a4fdbbc6dff6a3e56f46e0f3ae2a31d7785ff3487aa5c95c642acea5019089908990610844908e907f4d9113a1377d665eaa1f9168a9c9080f2e488cb820b10149de3d6d2e0f2780c790606090a15191825233602083015260408201929092529081906060820190565b0390a16001805580f35b600390866000525260018060a01b03918260058a6000200154169360c888029288840460c81417156108e5575050927fd2aa34a4fdbbc6dff6a3e56f46e0f3ae2a31d7785ff3487aa5c95c642acea5019697926108c06108c69361271061084497049081806108d0575b505088611045565b91611068565b94933880806107c2565b6108de916000541686611068565b38816108b8565b601190634e487b7160e01b600052526000fd5b84604187634e487b7160e01b600052526000fd5b875162461bcd60e51b815292830152600a908201526918985908185b5bdd5b9d60b21b6044820152606490fd5b875162461bcd60e51b815292830152600990820152686261642072616e676560b81b6044820152606490fd5b875162461bcd60e51b81529283015260059082015264195b99195960da1b6044820152606490fd5b509034610171576020366003190112610171578161010093823581526003602052208054926001820154926002830154906003840154908401549160018060a01b03936007856005880154169560068801541696015496815198895260208901528701526060860152608085015260a084015260c083015260e0820152f35b509034610171578260031936011261017157610a26610e8b565b6002549060ff821615610a68575060ff1916600255513381527f5db9ee0a495bf2e6ff9c91a7834c1ba4fdd244a5e8aa4e537bd38aeae4b073aa90602090a180f35b8251638dfc202b60e01b8152fd5b838234610192578160031936011261019257517f00000000000000000000000000000000000000000000000000000000000000006001600160a01b03168152602090f35b5091903461019257602080600319360112610171578135610ad9610f1c565b610ae1610efe565b8084528282528484206002810180549060ff821615610df65760ff8260081c16610dc95791546001600160a01b03929083163303610d9957827f0000000000000000000000000000000000000000000000000000000000000000169184885260038652888820549389519463b93a89f760e01b865288860152606085602481875afa908115610d8f5789958a92610d1e575b50504210610cec578315610cbe5761ff0019166101001790558286526003845286862054813b15610cba578751632a7d7bc560e01b81528087019182523360208301526040820184905291879183919082908490829060600103925af18015610cb057610c6e575b50855182815233602082015260408101919091529394859460029491939192907fa17419c3bc6e75f1b6e6dc5b112f894f52567e2a7ab14c65fbb52b577f7a6ec79080606081015b0390a185526003815284600784822082815582600182015582878201558260038201558285820155826005820155826006820155015552822082815582600182015501556001805580f35b917fa17419c3bc6e75f1b6e6dc5b112f894f52567e2a7ab14c65fbb52b577f7a6ec7610c2397949296610ca360029795610eb7565b9692949750509193610bdb565b87513d88823e3d90fd5b8680fd5b885162461bcd60e51b815280880187905260086024820152670616d6f756e743d360c41b6044820152606490fd5b885162461bcd60e51b8152808801879052600c60248201526b1b9bdd081d5b9b1bd8dad95960a21b6044820152606490fd5b9150945060603d8111610d88575b601f8101601f1916820167ffffffffffffffff811183821017610d755760609183918d5281010312610d71578051948782015190811603610d71578901513880610b73565b8880fd5b634e487b7160e01b8b5260418a5260248bfd5b503d610d2c565b8a513d8b823e3d90fd5b875162461bcd60e51b8152808701869052600a6024820152693737ba103bb4b73732b960b11b6044820152606490fd5b875162461bcd60e51b8152808701869052600760248201526618db185a5b595960ca1b6044820152606490fd5b875162461bcd60e51b8152808701869052600d60248201526c1b9bdd08199a5b985b1a5e9959609a1b6044820152606490fd5b8382346101925781600319360112610192576020906005549051908152f35b8490346101925781600319360112610192577f00000000000000000000000000000000000000000000000000000000000000006001600160a01b03168152602090f35b6000546001600160a01b03163303610e9f57565b60405163118cdaa760e01b8152336004820152602490fd5b67ffffffffffffffff8111610ecb57604052565b634e487b7160e01b600052604160045260246000fd5b610100810190811067ffffffffffffffff821117610ecb57604052565b60ff60025416610f0a57565b60405163d93c066560e01b8152600490fd5b600260015414610f2d576002600155565b604051633ee5aeb560e01b8152600490fd5b90604051610f4c81610ee1565b825481526001830154602082015260028301546040820152600383015460608201526004830154608082015260058301546001600160a01b0390811660a083015260068401541660c082015260079092015460e0830152565b906000602091828151910182855af115611001576000513d610ff857506001600160a01b0381163b155b610fd65750565b604051635274afe760e01b81526001600160a01b039091166004820152602490fd5b60011415610fcf565b6040513d6000823e3d90fd5b1561101457565b60405162461bcd60e51b8152602060048201526009602482015268199a5b985b1a5e995960ba1b6044820152606490fd5b9190820391821161105257565b634e487b7160e01b600052601160045260246000fd5b60405163a9059cbb60e01b60208201526001600160a01b039092166024830152604480830193909352918152608081019167ffffffffffffffff831182841017610ecb576110b892604052610fa5565b565b9190820180921161105257565b6110db9060606080820151910151906110ba565b421090565b60808101908151916110f860608301938451906110ba565b42101561115e5761110a905142611045565b9161112060208301926040845191015190611045565b9151918381029381850414901517156110525751801561114857611145920490611045565b90565b634e487b7160e01b600052601260045260246000fd5b506040915001519056fea2646970667358221220ad740d3142c0723a9f84d4781dbe76d63de0fc68be24fa7a39f50dcb5bb3b8f664736f6c63430008140033",
  "linkReferences": {},
  "deployedLinkReferences": {}
}