{
  "_format": "hh-sol-artifact-1",
  "contractName": "AuctionFactory",
  "sourceName": "contracts/AuctionFactory.sol",
  "abi": [
    {
      "inputs": [
        {
          "internalType": "address",
          "name": "_adapter",
          "type": "address"
        },
        {
          "internalType": "address",
          "name": "_usdc",
          "type": "address"
        }
      ],
      "stateMutability": "nonpayable",
      "type": "constructor"
    },
    {
      "anonymous": false,
      "inputs": [
        {
          "indexed": true,
          "internalType": "address",
          "name": "auction",
          "type": "address"
        },
        {
          "indexed": false,
          "internalType": "string",
          "name": "auctionType",
          "type": "string"
        }
      ],
      "name": "AuctionDeployed",
      "type": "event"
    },
    {
      "inputs": [],
      "name": "adapter",
      "outputs": [
        {
          "internalType": "address",
          "name": "",
          "type": "address"
        }
      ],
      "stateMutability": "view",
      "type": "function"
    },
    {
      "inputs": [],
      "name": "createDutchAuction",
      "outputs": [
        {
          "internalType": "address",
          "name": "",
          "type": "address"
        }
      ],
      "stateMutability": "nonpayable",
      "type": "function"
    },
    {
      "inputs": [],
      "name": "createEnglishAuction",
      "outputs": [
        {
          "internalType": "address",
          "name": "",
          "type": "address"
        }
      ],
      "stateMutability": "nonpayable",
      "type": "function"
    },
    {
      "inputs": [],
      "name": "createSealedBidAuction",
      "outputs": [
        {
          "internalType": "address",
          "name": "",
          "type": "address"
        }
      ],
      "stateMutability": "nonpayable",
      "type": "function"
    },
    {
      "inputs": [],
      "name": "usdc",
      "outputs": [
        {
          "internalType": "address",
          "name": "",
          "type": "address"
        }
      ],
      "stateMutability": "view",
      "type": "function"
    }
  ],
  "bytecode": "0x60c03461011857601f61433038819003918201601f19168301916001600160401b0383118484101761011d57808492604094855283398101031261011857610052602061004b83610133565b9201610133565b906001600160a01b03808216156100e7578216156100b95760805260a0526040516141e8908161014882396080518181816099015281816101aa015281816102b00152610320015260a05181818160be015281816101cf0152818161026d01526103450152f35b60405162461bcd60e51b81526020600482015260066024820152650757364633d360d41b6044820152606490fd5b60405162461bcd60e51b81526020600482015260096024820152680616461707465723d360bc1b6044820152606490fd5b600080fd5b634e487b7160e01b600052604160045260246000fd5b51906001600160a01b03821682036101185756fe60806040818152600436101561001457600080fd5b600091823560e01c9081628e7881146102df5750806303eadcfc1461029c5780633e413bee146102595780635dbd0125146101685763c0232c221461005857600080fd5b3461016457816003193601126101645780516113738082019082821067ffffffffffffffff8311176101505782916100e99161170984396001600160a01b037f0000000000000000000000000000000000000000000000000000000000000000811682527f000000000000000000000000000000000000000000000000000000000000000016602082015260400190565b039083f08015610145576020925060018060a01b031690817f16ad04fa4b005b19c6ece1d5ad5bc66db5dfd89e413d67bc9c1d659c055c21aa606083518681526007878201526608a9c8e9892a6960cb1b85820152a251908152f35b5051903d90823e3d90fd5b634e487b7160e01b85526041600452602485fd5b5080fd5b503461016457816003193601126101645780516117378082019082821067ffffffffffffffff8311176101505782916101fa91612a7c84396001600160a01b037f0000000000000000000000000000000000000000000000000000000000000000811682527f000000000000000000000000000000000000000000000000000000000000000016602082015260400190565b039083f08015610145576020925060018060a01b031690817f16ad04fa4b005b19c6ece1d5ad5bc66db5dfd89e413d67bc9c1d659c055c21aa60608351868152600a878201526914d15053115117d0925160b21b85820152a251908152f35b5034610164578160031936011261016457517f00000000000000000000000000000000000000000000000000000000000000006001600160a01b03168152602090f35b5034610164578160031936011261016457517f00000000000000000000000000000000000000000000000000000000000000006001600160a01b03168152602090f35b9050346103ca57826003193601126103ca5761133a8082019082821067ffffffffffffffff831117610150578291610370916103cf84396001600160a01b037f0000000000000000000000000000000000000000000000000000000000000000811682527f000000000000000000000000000000000000000000000000000000000000000016602082015260400190565b039083f08015610145576020925060018060a01b031690817f16ad04fa4b005b19c6ece1d5ad5bc66db5dfd89e413d67bc9c1d659c055c21aa6060835186815260058782015264088aaa886960db1b85820152a251908152f35b8280fdfe60c03461016c5761133a90601f38839003908101601f19168201906001600160401b03821183831017610171578083916040958694855283398101031261016c57610055602061004e83610187565b9201610187565b9033156101545760008054336001600160a01b03198216811783558551946001600160a01b0394909385939192918416907f8be0079c531659141344cd1fd0a4f28419497f9722a3daafe3b4186f6b6457e09080a360018055169283156101265750169081156100f95760805260a0525161119e908161019c82396080518181816103a901528181610b1c0152610e5c015260a0518181816106d20152610a8b0152f35b825162461bcd60e51b81526020600482015260066024820152650757364633d360d41b6044820152606490fd5b62461bcd60e51b81526020600482015260096024820152680616461707465723d360bc1b6044820152606490fd5b8251631e4fbdf760e01b815260006004820152602490fd5b600080fd5b634e487b7160e01b600052604160045260246000fd5b51906001600160a01b038216820361016c5756fe608060408181526004908136101561001657600080fd5b600092833560e01c90816303eadcfc14610e48575080632ad7157314610e29578063379607f514610aba5780633e413bee14610a765780633f4ba83a14610a0c578063571a26a01461098d578063598647f8146106665780635c975abb14610642578063715018a6146105e55780638456cb591461058a5780638874c3891461035d5780638da5cb5b14610335578063b9a2de3a146101e9578063bf333f2c146101cd578063c55d0f5614610196578063e1a45218146101755763f2fde38b146100df57600080fd5b34610171576020366003190112610171576001600160a01b0382358181169391929084900361016c57610110610e8b565b8315610156575050600054826001600160601b0360a01b821617600055167f8be0079c531659141344cd1fd0a4f28419497f9722a3daafe3b4186f6b6457e0600080a380f35b51631e4fbdf760e01b8152908101849052602490fd5b600080fd5b8280fd5b838234610192578160031936011261019257602090516127108152f35b5080fd5b509034610171576020366003190112610171576101c1826020946101c6933581526003865220610f3f565b6110e0565b9051908152f35b8382346101925781600319360112610192576020905160c88152f35b5034610171576020918260031936011261033157803592610208610f1c565b610210610efe565b8385526003815261022a610225848720610f3f565b6110c7565b6103085760609284926000927fd2aa34a4fdbbc6dff6a3e56f46e0f3ae2a31d7785ff3487aa5c95c642acea50196885281815261027060ff6002858b200154161561100d565b8488526003815260018060a01b036005848a200154169185855281528284206001600282019186828454926102a860ff85161561100d565b876001600160601b0360a01b825416178155015560ff19161790557f4d9113a1377d665eaa1f9168a9c9080f2e488cb820b10149de3d6d2e0f2780c786845187815284848201528686820152a18251948552840152820152a16001805580f35b606492519162461bcd60e51b8352820152600660248201526561637469766560d01b6044820152fd5b8380fd5b838234610192578160031936011261019257905490516001600160a01b039091168152602090f35b508290346101925760a0366003190112610192578235906001600160a01b036024358181169081900361016c57604435906084359061039a610efe565b821561055d57811561052d57837f000000000000000000000000000000000000000000000000000000000000000016803b15610529578660648a8a80948a51968795869463795a170960e11b865285015260248401523360448401525af1801561051f579087939291610501575b50916007918594937fe00a2da3a0f34a566402a244ab7ec63f8ab7472591cb18edf3269aa00461a41096519461043d86610ee1565b8886526020860192835286860191606435835260608701908152608087019042825260a088019333855260c08901958787528a60e08b0198808a52600554815260036020522099518a555160018a0155516002890155516003880155518b8701558060058701925116916001600160601b0360a01b9283825416179055600686019251169082541617905551910155600554928151908482526020820152a160001981146104ee5760010160055580f35b506011602492634e487b7160e01b835252fd5b61050e9093919293610eb7565b61051b5790859188610408565b8580fd5b85513d89823e3d90fd5b8780fd5b845162461bcd60e51b81526020818a0152600a60248201526906475726174696f6e3d360b41b6044820152606490fd5b845162461bcd60e51b81526020818a01526007602482015266073746172743d360cc1b6044820152606490fd5b83823461019257816003193601126101925760207f62e78cea01bee320cd4e420270b5ea74000d11b0c9f74754ebdbfc544b05a258916105c8610e8b565b6105d0610efe565b600160ff19600254161760025551338152a180f35b833461063f578060031936011261063f576105fe610e8b565b600080546001600160a01b0319811682556001600160a01b03167f8be0079c531659141344cd1fd0a4f28419497f9722a3daafe3b4186f6b6457e08280a380f35b80fd5b83823461019257816003193601126101925760209060ff6002541690519015158152f35b5091903461019257826003193601126101925780356024803592610688610f1c565b610690610efe565b82855260209160038352868620926106aa61022585610f3f565b15610965576001840154600285015411610939576106ca6101c185610f3f565b860361090c577f00000000000000000000000000000000000000000000000000000000000000009388516323b872dd60e01b8382015233848201523060448201528760648201526064815260a0810181811067ffffffffffffffff8211176108f8578a526107389086610fa5565b86600760068301926001600160601b0360a01b93338582541617905501557f0fc69407039e8ba8cdd517e2a4cae9dd19697b0a500ff37a2425c59ebc649b318980518881528985820152a18560005283825260018960002091888260028501948554936107a860ff86161561100d565b81541633178155015560ff1916179055851590811561084e575b88518681523360208201526040810188905288907fd2aa34a4fdbbc6dff6a3e56f46e0f3ae2a31d7785ff3487aa5c95c642acea5019089908990610844908e907f4d9113a1377d665eaa1f9168a9c9080f2e488cb820b10149de3d6d2e0f2780c790606090a15191825233602083015260408201929092529081906060820190565b0390a16001805580f35b600390866000525260018060a01b03918260058a6000200154169360c888029288840460c81417156108e5575050927fd2aa34a4fdbbc6dff6a3e56f46e0f3ae2a31d7785ff3487aa5c95c642acea5019697926108c06108c69361271061084497049081806108d0575b505088611045565b91611068565b94933880806107c2565b6108de916000541686611068565b38816108b8565b601190634e487b7160e01b600052526000fd5b84604187634e487b7160e01b600052526000fd5b875162461bcd60e51b815292830152600a908201526918985908185b5bdd5b9d60b21b6044820152606490fd5b875162461bcd60e51b815292830152600990820152686261642072616e676560b81b6044820152606490fd5b875162461bcd60e51b81529283015260059082015264195b99195960da1b6044820152606490fd5b509034610171576020366003190112610171578161010093823581526003602052208054926001820154926002830154906003840154908401549160018060a01b03936007856005880154169560068801541696015496815198895260208901528701526060860152608085015260a084015260c083015260e0820152f35b509034610171578260031936011261017157610a26610e8b565b6002549060ff821615610a68575060ff1916600255513381527f5db9ee0a495bf2e6ff9c91a7834c1ba4fdd244a5e8aa4e537bd38aeae4b073aa90602090a180f35b8251638dfc202b60e01b8152fd5b838234610192578160031936011261019257517f00000000000000000000000000000000000000000000000000000000000000006001600160a01b03168152602090f35b5091903461019257602080600319360112610171578135610ad9610f1c565b610ae1610efe565b8084528282528484206002810180549060ff821615610df65760ff8260081c16610dc95791546001600160a01b03929083163303610d9957827f0000000000000000000000000000000000000000000000000000000000000000169184885260038652888820549389519463b93a89f760e01b865288860152606085602481875afa908115610d8f5789958a92610d1e575b50504210610cec578315610cbe5761ff0019166101001790558286526003845286862054813b15610cba578751632a7d7bc560e01b81528087019182523360208301526040820184905291879183919082908490829060600103925af18015610cb057610c6e575b50855182815233602082015260408101919091529394859460029491939192907fa17419c3bc6e75f1b6e6dc5b112f894f52567e2a7ab14c65fbb52b577f7a6ec79080606081015b0390a185526003815284600784822082815582600182015582878201558260038201558285820155826005820155826006820155015552822082815582600182015501556001805580f35b917fa17419c3bc6e75f1b6e6dc5b112f894f52567e2a7ab14c65fbb52b577f7a6ec7610c2397949296610ca360029795610eb7565b9692949750509193610bdb565b87513d88823e3d90fd5b8680fd5b885162461bcd60e51b815280880187905260086024820152670616d6f756e743d360c41b6044820152606490fd5b885162461bcd60e51b8152808801879052600c60248201526b1b9bdd081d5b9b1bd8dad95960a21b6044820152606490fd5b9150945060603d8111610d88575b601f8101601f1916820167ffffffffffffffff811183821017610d755760609183918d5281010312610d71578051948782015190811603610d71578901513880610b73565b8880fd5b634e487b7160e01b8b5260418a5260248bfd5b503d610d2c565b8a513d8b823e3d90fd5b875162461bcd60e51b8152808701869052600a6024820152693737ba103bb4b73732b960b11b6044820152606490fd5b875162461bcd60e51b8152808701869052600760248201526618db185a5b595960ca1b6044820152606490fd5b875162461bcd60e51b8152808701869052600d60248201526c1b9bdd08199a5b985b1a5e9959609a1b6044820152606490fd5b8382346101925781600319360112610192576020906005549051908152f35b8490346101925781600319360112610192577f00000000000000000000000000000000000000000000000000000000000000006001600160a01b03168152602090f35b6000546001600160a01b03163303610e9f57565b60405163118cdaa760e01b8152336004820152602490fd5b67ffffffffffffffff8111610ecb57604052565b634e487b7160e01b600052604160045260246000fd5b610100810190811067ffffffffffffffff821117610ecb57604052565b60ff60025416610f0a57565b60405163d93c066560e01b8152600490fd5b600260015414610f2d576002600155565b604051633ee5aeb560e01b8152600490fd5b90604051610f4c81610ee1565b825481526001830154602082015260028301546040820152600383015460608201526004830154608082015260058301546001600160a01b0390811660a083015260068401541660c082015260079092015460e0830152565b906000602091828151910182855af115611001576000513d610ff857506001600160a01b0381163b155b610fd65750565b604051635274afe760e01b81526001600160a01b039091166004820152602490fd5b60011415610fcf565b6040513d6000823e3d90fd5b1561101457565b60405162461bcd60e51b8152602060048201526009602482015268199a5b985b1a5e995960ba1b6044820152606490fd5b9190820391821161105257565b634e487b7160e01b600052601160045260246000fd5b60405163a9059cbb60e01b60208201526001600160a01b039092166024830152604480830193909352918152608081019167ffffffffffffffff831182841017610ecb576110b892604052610fa5565b565b9190820180921161105257565b6110db9060606080820151910151906110ba565b421090565b60808101908151916110f860608301938451906110ba565b42101561115e5761110a905142611045565b9161112060208301926040845191015190611045565b9151918381029381850414901517156110525751801561114857611145920490611045565b90565b634e487b7160e01b600052601260045260246000fd5b506040915001519056fea2646970667358221220ad740d3142c0723a9f84d4781dbe76d63de0fc68be24fa7a39f50dcb5bb3b8f664736f6c6343000814003360c03461017a5761137390601f38839003908101601f19168201906001600160401b0382118383101761017f578083916040958694855283398101031261017a57610055602061004e83610195565b9201610195565b9033156101625760008054336001600160a01b03198216811783558551946001600160a01b0394909385939192918416907f8be0079c531659141344cd1fd0a4f28419497f9722a3daafe3b4186f6b6457e09080a360018055169283156101345750169081156101075760805260a052516111c990816101aa8239608051818181610284015281816108a40152610be4015260a0518181816105a70152818161081301528181610ff801526110430152f35b825162461bcd60e51b81526020600482015260066024820152650757364633d360d41b6044820152606490fd5b62461bcd60e51b81526020600482015260096024820152680616461707465723d360bc1b6044820152606490fd5b8251631e4fbdf760e01b815260006004820152602490fd5b600080fd5b634e487b7160e01b600052604160045260246000fd5b51906001600160a01b038216820361017a5756fe608060408181526004908136101561001657600080fd5b600092833560e01c90816303eadcfc14610bd0575080632ad7157314610bb1578063379607f5146108425780633e413bee146107fe5780633f4ba83a14610794578063571a26a014610715578063598647f81461053e5780635c975abb1461051a578063715018a6146104c05780638456cb59146104655780638874c389146102385780638da5cb5b14610210578063b9a2de3a146101dc578063bf333f2c146101c0578063c55d0f5614610196578063e1a45218146101755763f2fde38b146100df57600080fd5b34610171576020366003190112610171576001600160a01b0382358181169391929084900361016c57610110610c13565b8315610156575050600054826001600160601b0360a01b821617600055167f8be0079c531659141344cd1fd0a4f28419497f9722a3daafe3b4186f6b6457e0600080a380f35b51631e4fbdf760e01b8152908101849052602490fd5b600080fd5b8280fd5b838234610192578160031936011261019257602090516127108152f35b5080fd5b5082346101bd5760203660031901126101bd57506101b660209235611164565b9051908152f35b80fd5b8382346101925781600319360112610192576020905160c88152f35b50503461019257602036600319011261019257610209906101fb610ca4565b610203610c86565b35610e4d565b6001805580f35b838234610192578160031936011261019257905490516001600160a01b039091168152602090f35b508290346101925760a0366003190112610192578235906001600160a01b036024358181169081900361016c576044359060843590610275610c86565b821561043857811561040857837f000000000000000000000000000000000000000000000000000000000000000016803b15610404578660648a8a80948a51968795869463795a170960e11b865285015260248401523360448401525af180156103fa5790879392916103dc575b50916007918594937fe00a2da3a0f34a566402a244ab7ec63f8ab7472591cb18edf3269aa00461a41096519461031886610c69565b8886526020860192835286860191606435835260608701908152608087019042825260a088019333855260c08901958787528a60e08b0198808a52600554815260036020522099518a555160018a0155516002890155516003880155518b8701558060058701925116916001600160601b0360a01b9283825416179055600686019251169082541617905551910155600554928151908482526020820152a160001981146103c95760010160055580f35b506011602492634e487b7160e01b835252fd5b6103e99093919293610c3f565b6103f657908591886102e3565b8580fd5b85513d89823e3d90fd5b8780fd5b845162461bcd60e51b81526020818a0152600a60248201526906475726174696f6e3d360b41b6044820152606490fd5b845162461bcd60e51b81526020818a01526007602482015266073746172743d360cc1b6044820152606490fd5b83823461019257816003193601126101925760207f62e78cea01bee320cd4e420270b5ea74000d11b0c9f74754ebdbfc544b05a258916104a3610c13565b6104ab610c86565b600160ff19600254161760025551338152a180f35b83346101bd57806003193601126101bd576104d9610c13565b600080546001600160a01b0319811682556001600160a01b03167f8be0079c531659141344cd1fd0a4f28419497f9722a3daafe3b4186f6b6457e08280a380f35b83823461019257816003193601126101925760209060ff6002541690519015158152f35b508290346101925780600319360112610192578235602493843590610561610ca4565b610569610c86565b8285526020906003825284862061058761058282610cc7565b610de7565b156106ec57600781019788548511156106c15760028201548510610696577f0000000000000000000000000000000000000000000000000000000000000000928751916323b872dd60e01b8684015233818401523060448401528660648401526064835260a083019183831067ffffffffffffffff8411176106835750507f0fc69407039e8ba8cdd517e2a4cae9dd19697b0a500ff37a2425c59ebc649b3198999261063a8795936006938b5284610d7f565b019060018060a01b038254169081610670575b505080546001600160a01b03191633179055558351928352820152a16001805580f35b61067c91845491610d2d565b898061064d565b604190634e487b7160e01b600052526000fd5b6007915060649387519362461bcd60e51b8552840152820152667265736572766560c81b6044820152fd5b6007915060649387519362461bcd60e51b8552840152820152661b1bddc8189a5960ca1b6044820152fd5b5060058760649387519362461bcd60e51b855284015282015264195b99195960da1b6044820152fd5b509034610171576020366003190112610171578161010093823581526003602052208054926001820154926002830154906003840154908401549160018060a01b03936007856005880154169560068801541696015496815198895260208901528701526060860152608085015260a084015260c083015260e0820152f35b5090346101715782600319360112610171576107ae610c13565b6002549060ff8216156107f0575060ff1916600255513381527f5db9ee0a495bf2e6ff9c91a7834c1ba4fdd244a5e8aa4e537bd38aeae4b073aa90602090a180f35b8251638dfc202b60e01b8152fd5b838234610192578160031936011261019257517f00000000000000000000000000000000000000000000000000000000000000006001600160a01b03168152602090f35b5091903461019257602080600319360112610171578135610861610ca4565b610869610c86565b8084528282528484206002810180549060ff821615610b7e5760ff8260081c16610b515791546001600160a01b03929083163303610b2157827f0000000000000000000000000000000000000000000000000000000000000000169184885260038652888820549389519463b93a89f760e01b865288860152606085602481875afa908115610b175789958a92610aa6575b50504210610a74578315610a465761ff0019166101001790558286526003845286862054813b15610a42578751632a7d7bc560e01b81528087019182523360208301526040820184905291879183919082908490829060600103925af18015610a38576109f6575b50855182815233602082015260408101919091529394859460029491939192907fa17419c3bc6e75f1b6e6dc5b112f894f52567e2a7ab14c65fbb52b577f7a6ec79080606081015b0390a185526003815284600784822082815582600182015582878201558260038201558285820155826005820155826006820155015552822082815582600182015501556001805580f35b917fa17419c3bc6e75f1b6e6dc5b112f894f52567e2a7ab14c65fbb52b577f7a6ec76109ab97949296610a2b60029795610c3f565b9692949750509193610963565b87513d88823e3d90fd5b8680fd5b885162461bcd60e51b815280880187905260086024820152670616d6f756e743d360c41b6044820152606490fd5b885162461bcd60e51b8152808801879052600c60248201526b1b9bdd081d5b9b1bd8dad95960a21b6044820152606490fd5b9150945060603d8111610b10575b601f8101601f1916820167ffffffffffffffff811183821017610afd5760609183918d5281010312610af9578051948782015190811603610af95789015138806108fb565b8880fd5b634e487b7160e01b8b5260418a5260248bfd5b503d610ab4565b8a513d8b823e3d90fd5b875162461bcd60e51b8152808701869052600a6024820152693737ba103bb4b73732b960b11b6044820152606490fd5b875162461bcd60e51b8152808701869052600760248201526618db185a5b595960ca1b6044820152606490fd5b875162461bcd60e51b8152808701869052600d60248201526c1b9bdd08199a5b985b1a5e9959609a1b6044820152606490fd5b8382346101925781600319360112610192576020906005549051908152f35b8490346101925781600319360112610192577f00000000000000000000000000000000000000000000000000000000000000006001600160a01b03168152602090f35b6000546001600160a01b03163303610c2757565b60405163118cdaa760e01b8152336004820152602490fd5b67ffffffffffffffff8111610c5357604052565b634e487b7160e01b600052604160045260246000fd5b610100810190811067ffffffffffffffff821117610c5357604052565b60ff60025416610c9257565b60405163d93c066560e01b8152600490fd5b600260015414610cb5576002600155565b604051633ee5aeb560e01b8152600490fd5b90604051610cd481610c69565b825481526001830154602082015260028301546040820152600383015460608201526004830154608082015260058301546001600160a01b0390811660a083015260068401541660c082015260079092015460e0830152565b60405163a9059cbb60e01b60208201526001600160a01b039092166024830152604480830193909352918152608081019167ffffffffffffffff831182841017610c5357610d7d92604052610d7f565b565b906000602091828151910182855af115610ddb576000513d610dd257506001600160a01b0381163b155b610db05750565b604051635274afe760e01b81526001600160a01b039091166004820152602490fd5b60011415610da9565b6040513d6000823e3d90fd5b606060808201519101518101809111610dff57421090565b634e487b7160e01b600052601160045260246000fd5b15610e1c57565b60405162461bcd60e51b8152602060048201526009602482015268199a5b985b1a5e995960ba1b6044820152606490fd5b90600082815260209260038452604080832092610e6c61058285610cc7565b6111375782815260048652610e8a60ff600284842001541615610e15565b6006840180546001600160a01b03979190881615611082578760079154169501549684835260048252838320600160028201918a82845492610ecf60ff851615610e15565b80546001600160a01b0319168c178155015560ff19161790558715918215610f8e575b505082518481526001600160a01b03861660208201526040810188905295967fd2aa34a4fdbbc6dff6a3e56f46e0f3ae2a31d7785ff3487aa5c95c642acea50196610f89949193509091507f4d9113a1377d665eaa1f9168a9c9080f2e488cb820b10149de3d6d2e0f2780c790606090a1519283526001600160a01b03909316602083015260408201929092529081906060820190565b0390a1565b600390868552528060058585200154169160c889029089820460c814171561106e57612710900490818061103a575b505087039187831161102657509161101c7fd2aa34a4fdbbc6dff6a3e56f46e0f3ae2a31d7785ff3487aa5c95c642acea501969792610f89947f0000000000000000000000000000000000000000000000000000000000000000610d2d565b9181969538610ef2565b634e487b7160e01b81526011600452602490fd5b611067918554167f0000000000000000000000000000000000000000000000000000000000000000610d2d565b3881610fbd565b634e487b7160e01b84526011600452602484fd5b50606094507fd2aa34a4fdbbc6dff6a3e56f46e0f3ae2a31d7785ff3487aa5c95c642acea5019596848394935260038252600583852001541690600481528284206001600282019186828454926110dc60ff851615610e15565b876001600160601b0360a01b825416178155015560ff19161790557f4d9113a1377d665eaa1f9168a9c9080f2e488cb820b10149de3d6d2e0f2780c786845187815284848201528686820152a18251948552840152820152a1565b815162461bcd60e51b815260048101879052600660248201526561637469766560d01b6044820152606490fd5b60005260036020526111796040600020610cc7565b60e0604082015191015181811161118e575090565b90509056fea264697066735822122014d1c6a6a678671179c809c426213a63aa50874636850e745efbdf02eae115a164736f6c6343000814003360c03461017c576200173790601f38839003908101601f19168201906001600160401b03821183831017610181578083916040958694855283398101031261017c57610056602061004f83610197565b9201610197565b9033156101645760008054336001600160a01b03198216811783558551946001600160a01b0394909385939192918416907f8be0079c531659141344cd1fd0a4f28419497f9722a3daafe3b4186f6b6457e09080a360018055169283156101365750169081156101095760805260a0525161158b9081620001ac823960805181818161076401528181610c3d0152610f7d015260a05181818161036801528181610bac015281816113e901526114340152f35b825162461bcd60e51b81526020600482015260066024820152650757364633d360d41b6044820152606490fd5b62461bcd60e51b81526020600482015260096024820152680616461707465723d360bc1b6044820152606490fd5b8251631e4fbdf760e01b815260006004820152602490fd5b600080fd5b634e487b7160e01b600052604160045260246000fd5b51906001600160a01b038216820361017c5756fe608060408181526004908136101561001657600080fd5b600092833560e01c90816303eadcfc14610f69575080632ad7157314610f4a578063379607f514610bdb5780633e413bee14610b975780633f4ba83a14610b2d578063564e27ee14610aec578063571a26a014610a6d578063598647f814610a245780635c975abb14610a00578063715018a6146109a35780638456cb59146109485780638874c389146107205780638da5cb5b146106f85780639468cb61146105db578063b9a2de3a146105ae578063bb700c801461024a578063bf333f2c1461022e578063c55d0f5614610203578063cca84654146101c2578063e1a45218146101a15763f2fde38b1461010b57600080fd5b3461019d57602036600319011261019d576001600160a01b038235818116939192908490036101985761013c610fc2565b8315610182575050600054826001600160601b0360a01b821617600055167f8be0079c531659141344cd1fd0a4f28419497f9722a3daafe3b4186f6b6457e0600080a380f35b51631e4fbdf760e01b8152908101849052602490fd5b600080fd5b8280fd5b8382346101be57816003193601126101be57602090516127108152f35b5080fd5b50903461019d578160031936011261019d57816020936101e0610fac565b9235815260078552209060018060a01b0316600052825280600020549051908152f35b50903461019d57602036600319011261019d5781602093600792358152600385522001549051908152f35b8382346101be57816003193601126101be576020905160c88152f35b50903461019d57606036600319011261019d57803560249283359261026d611053565b610275611035565b8286526020600381528287209361029783860154600387015460011c90611110565b4210610578576102b66102b16102ac87611076565b611133565b6110dc565b851561054f57808852600682528388203360005282528360002054938415610522578189526007835280892033600052835280600020546104f65780518381018881526044358284015282825267ffffffffffffffff96606083019291888411838510176104e25783855282519020036104b55750506002860154871061048a5760078601916006835497019360018060a01b03958686541697838d5260078352848d203360005283528a85600020557f00000000000000000000000000000000000000000000000000000000000000009b8551926323b872dd60e01b8585015233828501523060448501528c60648501526064845260a0840192848410908411176104775750508a92916103cd9186528c61119e565b88821161042e575b505050505054163314156000146103fa5750506103f391339061114c565b6001805580f35b80919250151580610424575b610413575b5050506103f3565b61041c9261114c565b38808061040b565b5033811415610406565b817f0fc69407039e8ba8cdd517e2a4cae9dd19697b0a500ff37a2425c59ebc649b3195336001600160601b0360a01b895416178855558351928352820152a138808087816103d5565b604190634e487b7160e01b600052526000fd5b5162461bcd60e51b8152808401839052600781890152667265736572766560c81b6044820152606490fd5b9069189859081c995d99585b60b21b60a46064938762461bcd60e51b855285820152600a60848201520152fd5b8b604189634e487b7160e01b600052526000fd5b5162461bcd60e51b8152808401839052600881890152671c995d99585b195960c21b6044820152606490fd5b5162461bcd60e51b8152808401839052600981890152681b9bc818dbdb5b5a5d60ba1b6044820152606490fd5b5085600591606494519362461bcd60e51b85528401528201526406269643d360dc1b6044820152fd5b5085601291606494519362461bcd60e51b8552840152820152711c995d99585b081b9bdd081cdd185c9d195960721b6044820152fd5b5050346101be5760203660031901126101be576103f3906105cd611053565b6105d5611035565b3561123e565b503461019d578060031936011261019d576024359180356105fa611035565b808552602091600383528386206106166102b16102ac83611076565b85156106ca578060038361063293015491015460011c90611110565b4210156106985781865260068352838620336000528352836000205461066957508452600681528184209033600052526000205580f35b835162461bcd60e51b8152908101839052600960248201526818dbdb5b5a5d1d195960ba1b6044820152606490fd5b835162461bcd60e51b8152908101839052600c60248201526b18dbdb5b5a5d08195b99195960a21b6044820152606490fd5b845162461bcd60e51b815280830185905260086024820152670636f6d6d69743d360c41b6044820152606490fd5b8382346101be57816003193601126101be57905490516001600160a01b039091168152602090f35b508290346101be5760a03660031901126101be5782359061073f610fac565b60443560843561074d611035565b811561091b5780156108eb576001600160a01b03927f00000000000000000000000000000000000000000000000000000000000000008416803b156108e7578660648a8a8094898b51978896879563795a170960e11b87528601521660248401523360448401525af180156108dd5790879392916108bf575b50916007918594937fe00a2da3a0f34a566402a244ab7ec63f8ab7472591cb18edf3269aa00461a4109651946107fb86611018565b8886526020860192835286860191606435835260608701908152608087019042825260a088019333855260c08901958787528a60e08b0198808a52600554815260036020522099518a555160018a0155516002890155516003880155518b8701558060058701925116916001600160601b0360a01b9283825416179055600686019251169082541617905551910155600554928151908482526020820152a160001981146108ac5760010160055580f35b506011602492634e487b7160e01b835252fd5b6108cc9093919293610fee565b6108d957908591886107c6565b8580fd5b85513d89823e3d90fd5b8780fd5b835162461bcd60e51b8152602081890152600a60248201526906475726174696f6e3d360b41b6044820152606490fd5b835162461bcd60e51b81526020818901526007602482015266073746172743d360cc1b6044820152606490fd5b8382346101be57816003193601126101be5760207f62e78cea01bee320cd4e420270b5ea74000d11b0c9f74754ebdbfc544b05a25891610986610fc2565b61098e611035565b600160ff19600254161760025551338152a180f35b83346109fd57806003193601126109fd576109bc610fc2565b600080546001600160a01b0319811682556001600160a01b03167f8be0079c531659141344cd1fd0a4f28419497f9722a3daafe3b4186f6b6457e08280a380f35b80fd5b8382346101be57816003193601126101be5760209060ff6002541690519015158152f35b5091346109fd57826003193601126109fd57506020606492519162461bcd60e51b835282015260116024820152701d5cd94818dbdb5b5a5d0bdc995d99585b607a1b6044820152fd5b50903461019d57602036600319011261019d578161010093823581526003602052208054926001820154926002830154906003840154908401549160018060a01b03936007856005880154169560068801541696015496815198895260208901528701526060860152608085015260a084015260c083015260e0820152f35b50903461019d578160031936011261019d5781602093610b0a610fac565b9235815260068552209060018060a01b0316600052825280600020549051908152f35b50903461019d578260031936011261019d57610b47610fc2565b6002549060ff821615610b89575060ff1916600255513381527f5db9ee0a495bf2e6ff9c91a7834c1ba4fdd244a5e8aa4e537bd38aeae4b073aa90602090a180f35b8251638dfc202b60e01b8152fd5b8382346101be57816003193601126101be57517f00000000000000000000000000000000000000000000000000000000000000006001600160a01b03168152602090f35b509190346101be5760208060031936011261019d578135610bfa611053565b610c02611035565b8084528282528484206002810180549060ff821615610f175760ff8260081c16610eea5791546001600160a01b03929083163303610eba57827f0000000000000000000000000000000000000000000000000000000000000000169184885260038652888820549389519463b93a89f760e01b865288860152606085602481875afa908115610eb05789958a92610e3f575b50504210610e0d578315610ddf5761ff0019166101001790558286526003845286862054813b15610ddb578751632a7d7bc560e01b81528087019182523360208301526040820184905291879183919082908490829060600103925af18015610dd157610d8f575b50855182815233602082015260408101919091529394859460029491939192907fa17419c3bc6e75f1b6e6dc5b112f894f52567e2a7ab14c65fbb52b577f7a6ec79080606081015b0390a185526003815284600784822082815582600182015582878201558260038201558285820155826005820155826006820155015552822082815582600182015501556001805580f35b917fa17419c3bc6e75f1b6e6dc5b112f894f52567e2a7ab14c65fbb52b577f7a6ec7610d4497949296610dc460029795610fee565b9692949750509193610cfc565b87513d88823e3d90fd5b8680fd5b885162461bcd60e51b815280880187905260086024820152670616d6f756e743d360c41b6044820152606490fd5b885162461bcd60e51b8152808801879052600c60248201526b1b9bdd081d5b9b1bd8dad95960a21b6044820152606490fd5b9150945060603d8111610ea9575b601f8101601f1916820167ffffffffffffffff811183821017610e965760609183918d5281010312610e92578051948782015190811603610e92578901513880610c94565b8880fd5b634e487b7160e01b8b5260418a5260248bfd5b503d610e4d565b8a513d8b823e3d90fd5b875162461bcd60e51b8152808701869052600a6024820152693737ba103bb4b73732b960b11b6044820152606490fd5b875162461bcd60e51b8152808701869052600760248201526618db185a5b595960ca1b6044820152606490fd5b875162461bcd60e51b8152808701869052600d60248201526c1b9bdd08199a5b985b1a5e9959609a1b6044820152606490fd5b8382346101be57816003193601126101be576020906005549051908152f35b8490346101be57816003193601126101be577f00000000000000000000000000000000000000000000000000000000000000006001600160a01b03168152602090f35b602435906001600160a01b038216820361019857565b6000546001600160a01b03163303610fd657565b60405163118cdaa760e01b8152336004820152602490fd5b67ffffffffffffffff811161100257604052565b634e487b7160e01b600052604160045260246000fd5b610100810190811067ffffffffffffffff82111761100257604052565b60ff6002541661104157565b60405163d93c066560e01b8152600490fd5b600260015414611064576002600155565b604051633ee5aeb560e01b8152600490fd5b9060405161108381611018565b825481526001830154602082015260028301546040820152600383015460608201526004830154608082015260058301546001600160a01b0390811660a083015260068401541660c082015260079092015460e0830152565b156110e357565b60405162461bcd60e51b8152602060048201526005602482015264195b99195960da1b6044820152606490fd5b9190820180921161111d57565b634e487b7160e01b600052601160045260246000fd5b611147906060608082015191015190611110565b421090565b60405163a9059cbb60e01b60208201526001600160a01b039092166024830152604480830193909352918152608081019167ffffffffffffffff8311828410176110025761119c9260405261119e565b565b906000602091828151910182855af1156111fa576000513d6111f157506001600160a01b0381163b155b6111cf5750565b604051635274afe760e01b81526001600160a01b039091166004820152602490fd5b600114156111c8565b6040513d6000823e3d90fd5b1561120d57565b60405162461bcd60e51b8152602060048201526009602482015268199a5b985b1a5e995960ba1b6044820152606490fd5b9060008281526020926003845260408083209261125d6102ac85611076565b611528578281526004865261127b60ff600284842001541615611206565b6006840180546001600160a01b03979190881615611473578760079154169501549684835260048252838320600160028201918a828454926112c060ff851615611206565b80546001600160a01b0319168c178155015560ff1916179055871591821561137f575b505082518481526001600160a01b03861660208201526040810188905295967fd2aa34a4fdbbc6dff6a3e56f46e0f3ae2a31d7785ff3487aa5c95c642acea5019661137a949193509091507f4d9113a1377d665eaa1f9168a9c9080f2e488cb820b10149de3d6d2e0f2780c790606090a1519283526001600160a01b03909316602083015260408201929092529081906060820190565b0390a1565b600390868552528060058585200154169160c889029089820460c814171561145f57612710900490818061142b575b505087039187831161141757509161140d7fd2aa34a4fdbbc6dff6a3e56f46e0f3ae2a31d7785ff3487aa5c95c642acea50196979261137a947f000000000000000000000000000000000000000000000000000000000000000061114c565b91819695386112e3565b634e487b7160e01b81526011600452602490fd5b611458918554167f000000000000000000000000000000000000000000000000000000000000000061114c565b38816113ae565b634e487b7160e01b84526011600452602484fd5b50606094507fd2aa34a4fdbbc6dff6a3e56f46e0f3ae2a31d7785ff3487aa5c95c642acea5019596848394935260038252600583852001541690600481528284206001600282019186828454926114cd60ff851615611206565b876001600160601b0360a01b825416178155015560ff19161790557f4d9113a1377d665eaa1f9168a9c9080f2e488cb820b10149de3d6d2e0f2780c786845187815284848201528686820152a18251948552840152820152a1565b815162461bcd60e51b815260048101879052600660248201526561637469766560d01b6044820152606490fdfea2646970667358221220b398605376add42858441914fe17ed98a2fd6bca0c26eca1cf732a913bd93cba64736f6c63430008140033a2646970667358221220b6d2b31e8c69a95d36424c0267b00ea89c3b9a5869092ce79029e582c3fc837564736f6c63430008140033",
  "linkReferences": {},
  "deployedLinkReferences": {}
}