{
  "_format": "hh-sol-artifact-1",
  "contractName": "EnglishAuction",
  "sourceName": "contracts/EnglishAuction.sol",
  "abi": [
    {
      "inputs": [
        {
          "internalType": "address",
          "name": "_adapter",
          "type": "address"
        },
        {
          "internalType": "address",
          "name": "_usdc",
          "type": "address"
        }
      ],
      "stateMutability": "nonpayable",
      "type": "constructor"
    },
    {
      "inputs": [],
      "name": "EnforcedPause",
      "type": "error"
    },
    {
      "inputs": [],
      "name": "ExpectedPause",
      "type": "error"
    },
    {
      "inputs": [
        {
          "internalType": "address",
          "name": "owner",
          "type": "address"
        }
      ],
      "name": "OwnableInvalidOwner",
      "type": "error"
    },
    {
      "inputs": [
        {
          "internalType": "address",
          "name": "account",
          "type": "address"
        }
      ],
      "name": "OwnableUnauthorizedAccount",
      "type": "error"
    },
    {
      "inputs": [],
      "name": "ReentrancyGuardReentrantCall",
      "type": "error"
    },
    {
      "inputs": [
        {
          "internalType": "address",
          "name": "token",
          "type": "address"
        }
      ],
      "name": "SafeERC20FailedOperation",
      "type": "error"
    },
    {
      "anonymous": false,
      "inputs": [
        {
          "indexed": false,
          "internalType": "uint256",
          "name": "auctionId",
          "type": "uint256"
        },
        {
          "indexed": false,
          "internalType": "address",
          "name": "winner",
          "type": "address"
        },
        {
          "indexed": false,
          "internalType": "uint256",
          "name": "amount",
          "type": "uint256"
        }
      ],
      "name": "AuctionClaimed",
      "type": "event"
    },
    {
      "anonymous": false,
      "inputs": [
        {
          "indexed": false,
          "internalType": "uint256",
          "name": "auctionId",
          "type": "uint256"
        },
        {
          "indexed": false,
          "internalType": "uint256",
          "name": "collateralId",
          "type": "uint256"
        }
      ],
      "name": "AuctionCreated",
      "type": "event"
    },
    {
      "anonymous": false,
      "inputs": [
        {
          "indexed": false,
          "internalType": "uint256",
          "name": "auctionId",
          "type": "uint256"
        },
        {
          "indexed": false,
          "internalType": "address",
          "name": "winner",
          "type": "address"
        },
        {
          "indexed": false,
          "internalType": "uint256",
          "name": "amount",
          "type": "uint256"
        }
      ],
      "name": "AuctionEnded",
      "type": "event"
    },
    {
      "anonymous": false,
      "inputs": [
        {
          "indexed": false,
          "internalType": "uint256",
          "name": "auctionId",
          "type": "uint256"
        },
        {
          "indexed": false,
          "internalType": "address",
          "name": "winner",
          "type": "address"
        },
        {
          "indexed": false,
          "internalType": "uint256",
          "name": "amount",
          "type": "uint256"
        }
      ],
      "name": "AuctionFinalized",
      "type": "event"
    },
    {
      "anonymous": false,
      "inputs": [
        {
          "indexed": false,
          "internalType": "uint256",
          "name": "auctionId",
          "type": "uint256"
        },
        {
          "indexed": false,
          "internalType": "uint256",
          "name": "bid",
          "type": "uint256"
        }
      ],
      "name": "BidPlaced",
      "type": "event"
    },
    {
      "anonymous": false,
      "inputs": [
        {
          "indexed": true,
          "internalType": "address",
          "name": "previousOwner",
          "type": "address"
        },
        {
          "indexed": true,
          "internalType": "address",
          "name": "newOwner",
          "type": "address"
        }
      ],
      "name": "OwnershipTransferred",
      "type": "event"
    },
    {
      "anonymous": false,
      "inputs": [
        {
          "indexed": false,
          "internalType": "address",
          "name": "account",
          "type": "address"
        }
      ],
      "name": "Paused",
      "type": "event"
    },
    {
      "anonymous": false,
      "inputs": [
        {
          "indexed": false,
          "internalType": "address",
          "name": "account",
          "type": "address"
        }
      ],
      "name": "Unpaused",
      "type": "event"
    },
    {
      "inputs": [],
      "name": "BPS_DENOMINATOR",
      "outputs": [
        {
          "internalType": "uint256",
          "name": "",
          "type": "uint256"
        }
      ],
      "stateMutability": "view",
      "type": "function"
    },
    {
      "inputs": [],
      "name": "FEE_BPS",
      "outputs": [
        {
          "internalType": "uint256",
          "name": "",
          "type": "uint256"
        }
      ],
      "stateMutability": "view",
      "type": "function"
    },
    {
      "inputs": [],
      "name": "adapter",
      "outputs": [
        {
          "internalType": "contract VestingAdapter",
          "name": "",
          "type": "address"
        }
      ],
      "stateMutability": "view",
      "type": "function"
    },
    {
      "inputs": [],
      "name": "auctionCount",
      "outputs": [
        {
          "internalType": "uint256",
          "name": "",
          "type": "uint256"
        }
      ],
      "stateMutability": "view",
      "type": "function"
    },
    {
      "inputs": [
        {
          "internalType": "uint256",
          "name": "",
          "type": "uint256"
        }
      ],
      "name": "auctions",
      "outputs": [
        {
          "internalType": "uint256",
          "name": "collateralId",
          "type": "uint256"
        },
        {
          "internalType": "uint256",
          "name": "startPrice",
          "type": "uint256"
        },
        {
          "internalType": "uint256",
          "name": "endPrice",
          "type": "uint256"
        },
        {
          "internalType": "uint256",
          "name": "duration",
          "type": "uint256"
        },
        {
          "internalType": "uint256",
          "name": "startTime",
          "type": "uint256"
        },
        {
          "internalType": "address",
          "name": "seller",
          "type": "address"
        },
        {
          "internalType": "address",
          "name": "highestBidder",
          "type": "address"
        },
        {
          "internalType": "uint256",
          "name": "highestBid",
          "type": "uint256"
        }
      ],
      "stateMutability": "view",
      "type": "function"
    },
    {
      "inputs": [
        {
          "internalType": "uint256",
          "name": "auctionId",
          "type": "uint256"
        },
        {
          "internalType": "uint256",
          "name": "amount",
          "type": "uint256"
        }
      ],
      "name": "bid",
      "outputs": [],
      "stateMutability": "nonpayable",
      "type": "function"
    },
    {
      "inputs": [
        {
          "internalType": "uint256",
          "name": "auctionId",
          "type": "uint256"
        }
      ],
      "name": "claim",
      "outputs": [],
      "stateMutability": "nonpayable",
      "type": "function"
    },
    {
      "inputs": [
        {
          "internalType": "uint256",
          "name": "collateralId",
          "type": "uint256"
        },
        {
          "internalType": "address",
          "name": "vestingContract",
          "type": "address"
        },
        {
          "internalType": "uint256",
          "name": "startPrice",
          "type": "uint256"
        },
        {
          "internalType": "uint256",
          "name": "endPrice",
          "type": "uint256"
        },
        {
          "internalType": "uint256",
          "name": "duration",
          "type": "uint256"
        }
      ],
      "name": "createAuction",
      "outputs": [],
      "stateMutability": "nonpayable",
      "type": "function"
    },
    {
      "inputs": [
        {
          "internalType": "uint256",
          "name": "auctionId",
          "type": "uint256"
        }
      ],
      "name": "endAuction",
      "outputs": [],
      "stateMutability": "nonpayable",
      "type": "function"
    },
    {
      "inputs": [
        {
          "internalType": "uint256",
          "name": "auctionId",
          "type": "uint256"
        }
      ],
      "name": "getCurrentPrice",
      "outputs": [
        {
          "internalType": "uint256",
          "name": "",
          "type": "uint256"
        }
      ],
      "stateMutability": "view",
      "type": "function"
    },
    {
      "inputs": [],
      "name": "owner",
      "outputs": [
        {
          "internalType": "address",
          "name": "",
          "type": "address"
        }
      ],
      "stateMutability": "view",
      "type": "function"
    },
    {
      "inputs": [],
      "name": "pause",
      "outputs": [],
      "stateMutability": "nonpayable",
      "type": "function"
    },
    {
      "inputs": [],
      "name": "paused",
      "outputs": [
        {
          "internalType": "bool",
          "name": "",
          "type": "bool"
        }
      ],
      "stateMutability": "view",
      "type": "function"
    },
    {
      "inputs": [],
      "name": "renounceOwnership",
      "outputs": [],
      "stateMutability": "nonpayable",
      "type": "function"
    },
    {
      "inputs": [
        {
          "internalType": "address",
          "name": "newOwner",
          "type": "address"
        }
      ],
      "name": "transferOwnership",
      "outputs": [],
      "stateMutability": "nonpayable",
      "type": "function"
    },
    {
      "inputs": [],
      "name": "unpause",
      "outputs": [],
      "stateMutability": "nonpayable",
      "type": "function"
    },
    {
      "inputs": [],
      "name": "usdc",
      "outputs": [
        {
          "internalType": "contract IERC20",
          "name": "",
          "type": "address"
        }
      ],
      "stateMutability": "view",
      "type": "function"
    }
  ],
  "bytecode": "0x60c03461017a5761137390601f38839003908101601f19168201906001600160401b0382118383101761017f578083916040958694855283398101031261017a57610055602061004e83610195565b9201610195565b9033156101625760008054336001600160a01b03198216811783558551946001600160a01b0394909385939192918416907f8be0079c531659141344cd1fd0a4f28419497f9722a3daafe3b4186f6b6457e09080a360018055169283156101345750169081156101075760805260a052516111c990816101aa8239608051818181610284015281816108a40152610be4015260a0518181816105a70152818161081301528181610ff801526110430152f35b825162461bcd60e51b81526020600482015260066024820152650757364633d360d41b6044820152606490fd5b62461bcd60e51b81526020600482015260096024820152680616461707465723d360bc1b6044820152606490fd5b8251631e4fbdf760e01b815260006004820152602490fd5b600080fd5b634e487b7160e01b600052604160045260246000fd5b51906001600160a01b038216820361017a5756fe608060408181526004908136101561001657600080fd5b600092833560e01c90816303eadcfc14610bd0575080632ad7157314610bb1578063379607f5146108425780633e413bee146107fe5780633f4ba83a14610794578063571a26a014610715578063598647f81461053e5780635c975abb1461051a578063715018a6146104c05780638456cb59146104655780638874c389146102385780638da5cb5b14610210578063b9a2de3a146101dc578063bf333f2c146101c0578063c55d0f5614610196578063e1a45218146101755763f2fde38b146100df57600080fd5b34610171576020366003190112610171576001600160a01b0382358181169391929084900361016c57610110610c13565b8315610156575050600054826001600160601b0360a01b821617600055167f8be0079c531659141344cd1fd0a4f28419497f9722a3daafe3b4186f6b6457e0600080a380f35b51631e4fbdf760e01b8152908101849052602490fd5b600080fd5b8280fd5b838234610192578160031936011261019257602090516127108152f35b5080fd5b5082346101bd5760203660031901126101bd57506101b660209235611164565b9051908152f35b80fd5b8382346101925781600319360112610192576020905160c88152f35b50503461019257602036600319011261019257610209906101fb610ca4565b610203610c86565b35610e4d565b6001805580f35b838234610192578160031936011261019257905490516001600160a01b039091168152602090f35b508290346101925760a0366003190112610192578235906001600160a01b036024358181169081900361016c576044359060843590610275610c86565b821561043857811561040857837f000000000000000000000000000000000000000000000000000000000000000016803b15610404578660648a8a80948a51968795869463795a170960e11b865285015260248401523360448401525af180156103fa5790879392916103dc575b50916007918594937fe00a2da3a0f34a566402a244ab7ec63f8ab7472591cb18edf3269aa00461a41096519461031886610c69565b8886526020860192835286860191606435835260608701908152608087019042825260a088019333855260c08901958787528a60e08b0198808a52600554815260036020522099518a555160018a0155516002890155516003880155518b8701558060058701925116916001600160601b0360a01b9283825416179055600686019251169082541617905551910155600554928151908482526020820152a160001981146103c95760010160055580f35b506011602492634e487b7160e01b835252fd5b6103e99093919293610c3f565b6103f657908591886102e3565b8580fd5b85513d89823e3d90fd5b8780fd5b845162461bcd60e51b81526020818a0152600a60248201526906475726174696f6e3d360b41b6044820152606490fd5b845162461bcd60e51b81526020818a01526007602482015266073746172743d360cc1b6044820152606490fd5b83823461019257816003193601126101925760207f62e78cea01bee320cd4e420270b5ea74000d11b0c9f74754ebdbfc544b05a258916104a3610c13565b6104ab610c86565b600160ff19600254161760025551338152a180f35b83346101bd57806003193601126101bd576104d9610c13565b600080546001600160a01b0319811682556001600160a01b03167f8be0079c531659141344cd1fd0a4f28419497f9722a3daafe3b4186f6b6457e08280a380f35b83823461019257816003193601126101925760209060ff6002541690519015158152f35b508290346101925780600319360112610192578235602493843590610561610ca4565b610569610c86565b8285526020906003825284862061058761058282610cc7565b610de7565b156106ec57600781019788548511156106c15760028201548510610696577f0000000000000000000000000000000000000000000000000000000000000000928751916323b872dd60e01b8684015233818401523060448401528660648401526064835260a083019183831067ffffffffffffffff8411176106835750507f0fc69407039e8ba8cdd517e2a4cae9dd19697b0a500ff37a2425c59ebc649b3198999261063a8795936006938b5284610d7f565b019060018060a01b038254169081610670575b505080546001600160a01b03191633179055558351928352820152a16001805580f35b61067c91845491610d2d565b898061064d565b604190634e487b7160e01b600052526000fd5b6007915060649387519362461bcd60e51b8552840152820152667265736572766560c81b6044820152fd5b6007915060649387519362461bcd60e51b8552840152820152661b1bddc8189a5960ca1b6044820152fd5b5060058760649387519362461bcd60e51b855284015282015264195b99195960da1b6044820152fd5b509034610171576020366003190112610171578161010093823581526003602052208054926001820154926002830154906003840154908401549160018060a01b03936007856005880154169560068801541696015496815198895260208901528701526060860152608085015260a084015260c083015260e0820152f35b5090346101715782600319360112610171576107ae610c13565b6002549060ff8216156107f0575060ff1916600255513381527f5db9ee0a495bf2e6ff9c91a7834c1ba4fdd244a5e8aa4e537bd38aeae4b073aa90602090a180f35b8251638dfc202b60e01b8152fd5b838234610192578160031936011261019257517f00000000000000000000000000000000000000000000000000000000000000006001600160a01b03168152602090f35b5091903461019257602080600319360112610171578135610861610ca4565b610869610c86565b8084528282528484206002810180549060ff821615610b7e5760ff8260081c16610b515791546001600160a01b03929083163303610b2157827f0000000000000000000000000000000000000000000000000000000000000000169184885260038652888820549389519463b93a89f760e01b865288860152606085602481875afa908115610b175789958a92610aa6575b50504210610a74578315610a465761ff0019166101001790558286526003845286862054813b15610a42578751632a7d7bc560e01b81528087019182523360208301526040820184905291879183919082908490829060600103925af18015610a38576109f6575b50855182815233602082015260408101919091529394859460029491939192907fa17419c3bc6e75f1b6e6dc5b112f894f52567e2a7ab14c65fbb52b577f7a6ec79080606081015b0390a185526003815284600784822082815582600182015582878201558260038201558285820155826005820155826006820155015552822082815582600182015501556001805580f35b917fa17419c3bc6e75f1b6e6dc5b112f894f52567e2a7ab14c65fbb52b577f7a6ec76109ab97949296610a2b60029795610c3f565b9692949750509193610963565b87513d88823e3d90fd5b8680fd5b885162461bcd60e51b815280880187905260086024820152670616d6f756e743d360c41b6044820152606490fd5b885162461bcd60e51b8152808801879052600c60248201526b1b9bdd081d5b9b1bd8dad95960a21b6044820152606490fd5b9150945060603d8111610b10575b601f8101601f1916820167ffffffffffffffff811183821017610afd5760609183918d5281010312610af9578051948782015190811603610af95789015138806108fb565b8880fd5b634e487b7160e01b8b5260418a5260248bfd5b503d610ab4565b8a513d8b823e3d90fd5b875162461bcd60e51b8152808701869052600a6024820152693737ba103bb4b73732b960b11b6044820152606490fd5b875162461bcd60e51b8152808701869052600760248201526618db185a5b595960ca1b6044820152606490fd5b875162461bcd60e51b8152808701869052600d60248201526c1b9bdd08199a5b985b1a5e9959609a1b6044820152606490fd5b8382346101925781600319360112610192576020906005549051908152f35b8490346101925781600319360112610192577f00000000000000000000000000000000000000000000000000000000000000006001600160a01b03168152602090f35b6000546001600160a01b03163303610c2757565b60405163118cdaa760e01b8152336004820152602490fd5b67ffffffffffffffff8111610c5357604052565b634e487b7160e01b600052604160045260246000fd5b610100810190811067ffffffffffffffff821117610c5357604052565b60ff60025416610c9257565b60405163d93c066560e01b8152600490fd5b600260015414610cb5576002600155565b604051633ee5aeb560e01b8152600490fd5b90604051610cd481610c69565b825481526001830154602082015260028301546040820152600383015460608201526004830154608082015260058301546001600160a01b0390811660a083015260068401541660c082015260079092015460e0830152565b60405163a9059cbb60e01b60208201526001600160a01b039092166024830152604480830193909352918152608081019167ffffffffffffffff831182841017610c5357610d7d92604052610d7f565b565b906000602091828151910182855af115610ddb576000513d610dd257506001600160a01b0381163b155b610db05750565b604051635274afe760e01b81526001600160a01b039091166004820152602490fd5b60011415610da9565b6040513d6000823e3d90fd5b606060808201519101518101809111610dff57421090565b634e487b7160e01b600052601160045260246000fd5b15610e1c57565b60405162461bcd60e51b8152602060048201526009602482015268199a5b985b1a5e995960ba1b6044820152606490fd5b90600082815260209260038452604080832092610e6c61058285610cc7565b6111375782815260048652610e8a60ff600284842001541615610e15565b6006840180546001600160a01b03979190881615611082578760079154169501549684835260048252838320600160028201918a82845492610ecf60ff851615610e15565b80546001600160a01b0319168c178155015560ff19161790558715918215610f8e575b505082518481526001600160a01b03861660208201526040810188905295967fd2aa34a4fdbbc6dff6a3e56f46e0f3ae2a31d7785ff3487aa5c95c642acea50196610f89949193509091507f4d9113a1377d665eaa1f9168a9c9080f2e488cb820b10149de3d6d2e0f2780c790606090a1519283526001600160a01b03909316602083015260408201929092529081906060820190565b0390a1565b600390868552528060058585200154169160c889029089820460c814171561106e57612710900490818061103a575b505087039187831161102657509161101c7fd2aa34a4fdbbc6dff6a3e56f46e0f3ae2a31d7785ff3487aa5c95c642acea501969792610f89947f0000000000000000000000000000000000000000000000000000000000000000610d2d565b9181969538610ef2565b634e487b7160e01b81526011600452602490fd5b611067918554167f0000000000000000000000000000000000000000000000000000000000000000610d2d565b3881610fbd565b634e487b7160e01b84526011600452602484fd5b50606094507fd2aa34a4fdbbc6dff6a3e56f46e0f3ae2a31d7785ff3487aa5c95c642acea5019596848394935260038252600583852001541690600481528284206001600282019186828454926110dc60ff851615610e15565b876001600160601b0360a01b825416178155015560ff19161790557f4d9113a1377d665eaa1f9168a9c9080f2e488cb820b10149de3d6d2e0f2780c786845187815284848201528686820152a18251948552840152820152a1565b815162461bcd60e51b815260048101879052600660248201526561637469766560d01b6044820152606490fd5b60005260036020526111796040600020610cc7565b60e0604082015191015181811161118e575090565b90509056fea264697066735822122014d1c6a6a678671179c809c426213a63aa50874636850e745efbdf02eae115a164736f6c63430008140033",
  "linkReferences": {},
  "deployedLinkReferences": {}
}