{"abi":[{"type":"constructor","inputs":[{"name":"_registry","type":"address","internalType":"address"},{"name":"_initialGovernor","type":"address","internalType":"address"}],"stateMutability":"nonpayable"},{"type":"function","name":"BASE_LTV_BPS","inputs":[],"outputs":[{"name":"","type":"uint256","internalType":"uint256"}],"stateMutability":"view"},{"type":"function","name":"BPS_DENOMINATOR","inputs":[],"outputs":[{"name":"","type":"uint256","internalType":"uint256"}],"stateMutability":"view"},{"type":"function","name":"DEFAULT_ADMIN_ROLE","inputs":[],"outputs":[{"name":"","type":"bytes32","internalType":"bytes32"}],"stateMutability":"view"},{"type":"function","name":"GOVERNOR_ROLE","inputs":[],"outputs":[{"name":"","type":"bytes32","internalType":"bytes32"}],"stateMutability":"view"},{"type":"function","name":"GUARDIAN_ROLE","inputs":[],"outputs":[{"name":"","type":"bytes32","internalType":"bytes32"}],"stateMutability":"view"},{"type":"function","name":"PAUSER_ROLE","inputs":[],"outputs":[{"name":"","type":"bytes32","internalType":"bytes32"}],"stateMutability":"view"},{"type":"function","name":"adminTimelockDelay","inputs":[],"outputs":[{"name":"","type":"uint256","internalType":"uint256"}],"stateMutability":"view"},{"type":"function","name":"adminTimelockEnabled","inputs":[],"outputs":[{"name":"","type":"bool","internalType":"bool"}],"stateMutability":"view"},{"type":"function","name":"checkSequencerActive","inputs":[],"outputs":[],"stateMutability":"view"},{"type":"function","name":"clearFlashPumpCooldown","inputs":[{"name":"token","type":"address","internalType":"address"}],"outputs":[],"stateMutability":"nonpayable"},{"type":"function","name":"clearTokenPriceBounds","inputs":[{"name":"token","type":"address","internalType":"address"}],"outputs":[],"stateMutability":"nonpayable"},{"type":"function","name":"computeDPV","inputs":[{"name":"quantity","type":"uint256","internalType":"uint256"},{"name":"token","type":"address","internalType":"address"},{"name":"unlockTime","type":"uint256","internalType":"uint256"},{"name":"vestingContract","type":"address","internalType":"address"}],"outputs":[{"name":"pv","type":"uint256","internalType":"uint256"},{"name":"ltvBps","type":"uint256","internalType":"uint256"}],"stateMutability":"view"},{"type":"function","name":"coprocessor","inputs":[],"outputs":[{"name":"","type":"address","internalType":"address"}],"stateMutability":"view"},{"type":"function","name":"deviationThresholdBps","inputs":[],"outputs":[{"name":"","type":"uint256","internalType":"uint256"}],"stateMutability":"view"},{"type":"function","name":"drawdownPenaltyPerBps","inputs":[],"outputs":[{"name":"","type":"uint256","internalType":"uint256"}],"stateMutability":"view"},{"type":"function","name":"ewmaAlpha","inputs":[],"outputs":[{"name":"","type":"uint256","internalType":"uint256"}],"stateMutability":"view"},{"type":"function","name":"executeQueuedTokenPriceFeed","inputs":[{"name":"token","type":"address","internalType":"address"}],"outputs":[],"stateMutability":"nonpayable"},{"type":"function","name":"flashPumpCooldownUntil","inputs":[{"name":"","type":"address","internalType":"address"}],"outputs":[{"name":"","type":"uint256","internalType":"uint256"}],"stateMutability":"view"},{"type":"function","name":"getPriceFeedForToken","inputs":[{"name":"token","type":"address","internalType":"address"}],"outputs":[{"name":"","type":"address","internalType":"address"}],"stateMutability":"view"},{"type":"function","name":"getRoleAdmin","inputs":[{"name":"role","type":"bytes32","internalType":"bytes32"}],"outputs":[{"name":"","type":"bytes32","internalType":"bytes32"}],"stateMutability":"view"},{"type":"function","name":"globalMaxOmegaBps","inputs":[],"outputs":[{"name":"","type":"uint256","internalType":"uint256"}],"stateMutability":"view"},{"type":"function","name":"gracePeriodTime","inputs":[],"outputs":[{"name":"","type":"uint256","internalType":"uint256"}],"stateMutability":"view"},{"type":"function","name":"grantRole","inputs":[{"name":"role","type":"bytes32","internalType":"bytes32"},{"name":"account","type":"address","internalType":"address"}],"outputs":[],"stateMutability":"nonpayable"},{"type":"function","name":"hardLTVCapBps","inputs":[{"name":"","type":"address","internalType":"address"}],"outputs":[{"name":"","type":"uint256","internalType":"uint256"}],"stateMutability":"view"},{"type":"function","name":"hasRole","inputs":[{"name":"role","type":"bytes32","internalType":"bytes32"},{"name":"account","type":"address","internalType":"address"}],"outputs":[{"name":"","type":"bool","internalType":"bool"}],"stateMutability":"view"},{"type":"function","name":"isFlashPumpFrozen","inputs":[{"name":"token","type":"address","internalType":"address"}],"outputs":[{"name":"","type":"bool","internalType":"bool"}],"stateMutability":"view"},{"type":"function","name":"isQuarantined","inputs":[{"name":"","type":"address","internalType":"address"}],"outputs":[{"name":"","type":"bool","internalType":"bool"}],"stateMutability":"view"},{"type":"function","name":"lastEWMATimestamp","inputs":[{"name":"","type":"address","internalType":"address"}],"outputs":[{"name":"","type":"uint256","internalType":"uint256"}],"stateMutability":"view"},{"type":"function","name":"maxDrawdownPenaltyBps","inputs":[],"outputs":[{"name":"","type":"uint256","internalType":"uint256"}],"stateMutability":"view"},{"type":"function","name":"maxPriceAge","inputs":[],"outputs":[{"name":"","type":"uint256","internalType":"uint256"}],"stateMutability":"view"},{"type":"function","name":"maxTwapLookback","inputs":[],"outputs":[{"name":"","type":"uint256","internalType":"uint256"}],"stateMutability":"view"},{"type":"function","name":"openClawLighthouse","inputs":[],"outputs":[{"name":"","type":"address","internalType":"address"}],"stateMutability":"view"},{"type":"function","name":"pendingTokenFeeds","inputs":[{"name":"","type":"address","internalType":"address"}],"outputs":[{"name":"feed","type":"address","internalType":"address"},{"name":"executeAfter","type":"uint256","internalType":"uint256"},{"name":"exists","type":"bool","internalType":"bool"}],"stateMutability":"view"},{"type":"function","name":"preTGECaps","inputs":[{"name":"","type":"address","internalType":"address"}],"outputs":[{"name":"","type":"uint256","internalType":"uint256"}],"stateMutability":"view"},{"type":"function","name":"preTGEOracle","inputs":[],"outputs":[{"name":"","type":"address","internalType":"address"}],"stateMutability":"view"},{"type":"function","name":"quarantineToken","inputs":[{"name":"token","type":"address","internalType":"address"},{"name":"status","type":"bool","internalType":"bool"},{"name":"reason","type":"string","internalType":"string"}],"outputs":[],"stateMutability":"nonpayable"},{"type":"function","name":"queueTokenPriceFeed","inputs":[{"name":"token","type":"address","internalType":"address"},{"name":"feed","type":"address","internalType":"address"}],"outputs":[],"stateMutability":"nonpayable"},{"type":"function","name":"rangeVolWeightBps","inputs":[],"outputs":[{"name":"","type":"uint256","internalType":"uint256"}],"stateMutability":"view"},{"type":"function","name":"registry","inputs":[],"outputs":[{"name":"","type":"address","internalType":"contract VestingRegistry"}],"stateMutability":"view"},{"type":"function","name":"renounceRole","inputs":[{"name":"role","type":"bytes32","internalType":"bytes32"},{"name":"callerConfirmation","type":"address","internalType":"address"}],"outputs":[],"stateMutability":"nonpayable"},{"type":"function","name":"reportFlashPump","inputs":[{"name":"token","type":"address","internalType":"address"},{"name":"cooldownDuration","type":"uint256","internalType":"uint256"}],"outputs":[],"stateMutability":"nonpayable"},{"type":"function","name":"revokeRole","inputs":[{"name":"role","type":"bytes32","internalType":"bytes32"},{"name":"account","type":"address","internalType":"address"}],"outputs":[],"stateMutability":"nonpayable"},{"type":"function","name":"riskFreeRate","inputs":[],"outputs":[{"name":"","type":"uint256","internalType":"uint256"}],"stateMutability":"view"},{"type":"function","name":"secondaryPriceFeeds","inputs":[{"name":"","type":"address","internalType":"address"}],"outputs":[{"name":"","type":"address","internalType":"address"}],"stateMutability":"view"},{"type":"function","name":"sequencerUptimeFeed","inputs":[],"outputs":[{"name":"","type":"address","internalType":"address"}],"stateMutability":"view"},{"type":"function","name":"setAdminTimelockConfig","inputs":[{"name":"enabled","type":"bool","internalType":"bool"},{"name":"delaySeconds","type":"uint256","internalType":"uint256"}],"outputs":[],"stateMutability":"nonpayable"},{"type":"function","name":"setCoprocessor","inputs":[{"name":"_coprocessor","type":"address","internalType":"address"}],"outputs":[],"stateMutability":"nonpayable"},{"type":"function","name":"setDeviationThresholdBps","inputs":[{"name":"thresholdBps","type":"uint256","internalType":"uint256"}],"outputs":[],"stateMutability":"nonpayable"},{"type":"function","name":"setDrawdownParams","inputs":[{"name":"penaltyPerBps","type":"uint256","internalType":"uint256"},{"name":"maxPenaltyBps","type":"uint256","internalType":"uint256"}],"outputs":[],"stateMutability":"nonpayable"},{"type":"function","name":"setEWMAAlpha","inputs":[{"name":"newAlphaBps","type":"uint256","internalType":"uint256"}],"outputs":[],"stateMutability":"nonpayable"},{"type":"function","name":"setGlobalMaxOmega","inputs":[{"name":"capBps","type":"uint256","internalType":"uint256"}],"outputs":[],"stateMutability":"nonpayable"},{"type":"function","name":"setGracePeriodTime","inputs":[{"name":"timeSeconds","type":"uint256","internalType":"uint256"}],"outputs":[],"stateMutability":"nonpayable"},{"type":"function","name":"setHardLTVCap","inputs":[{"name":"token","type":"address","internalType":"address"},{"name":"capBps","type":"uint256","internalType":"uint256"}],"outputs":[],"stateMutability":"nonpayable"},{"type":"function","name":"setMaxPriceAge","inputs":[{"name":"newMaxPriceAge","type":"uint256","internalType":"uint256"}],"outputs":[],"stateMutability":"nonpayable"},{"type":"function","name":"setMaxTwapLookback","inputs":[{"name":"newMax","type":"uint256","internalType":"uint256"}],"outputs":[],"stateMutability":"nonpayable"},{"type":"function","name":"setOpenClawLighthouse","inputs":[{"name":"_lighthouse","type":"address","internalType":"address"}],"outputs":[],"stateMutability":"nonpayable"},{"type":"function","name":"setPreTGECap","inputs":[{"name":"token","type":"address","internalType":"address"},{"name":"maxExposureUsd","type":"uint256","internalType":"uint256"}],"outputs":[],"stateMutability":"nonpayable"},{"type":"function","name":"setPreTGEOracle","inputs":[{"name":"_oracle","type":"address","internalType":"address"}],"outputs":[],"stateMutability":"nonpayable"},{"type":"function","name":"setRangeVolWeight","inputs":[{"name":"weightBps","type":"uint256","internalType":"uint256"}],"outputs":[],"stateMutability":"nonpayable"},{"type":"function","name":"setRegistry","inputs":[{"name":"_registry","type":"address","internalType":"address"}],"outputs":[],"stateMutability":"nonpayable"},{"type":"function","name":"setRiskFreeRate","inputs":[{"name":"newRate","type":"uint256","internalType":"uint256"}],"outputs":[],"stateMutability":"nonpayable"},{"type":"function","name":"setSecondaryPriceFeed","inputs":[{"name":"token","type":"address","internalType":"address"},{"name":"feed","type":"address","internalType":"address"}],"outputs":[],"stateMutability":"nonpayable"},{"type":"function","name":"setSequencerUptimeFeed","inputs":[{"name":"feed","type":"address","internalType":"address"}],"outputs":[],"stateMutability":"nonpayable"},{"type":"function","name":"setTokenMaxLiquidityBorrow","inputs":[{"name":"token","type":"address","internalType":"address"},{"name":"maxBorrowUsd","type":"uint256","internalType":"uint256"}],"outputs":[],"stateMutability":"nonpayable"},{"type":"function","name":"setTokenPriceBounds","inputs":[{"name":"token","type":"address","internalType":"address"},{"name":"ath","type":"uint256","internalType":"uint256"},{"name":"atl","type":"uint256","internalType":"uint256"},{"name":"boundsDecimals","type":"uint8","internalType":"uint8"}],"outputs":[],"stateMutability":"nonpayable"},{"type":"function","name":"setTokenPriceFeed","inputs":[{"name":"token","type":"address","internalType":"address"},{"name":"feed","type":"address","internalType":"address"}],"outputs":[],"stateMutability":"nonpayable"},{"type":"function","name":"setTwapInterval","inputs":[{"name":"newInterval","type":"uint256","internalType":"uint256"}],"outputs":[],"stateMutability":"nonpayable"},{"type":"function","name":"setVolatility","inputs":[{"name":"newVol","type":"uint256","internalType":"uint256"}],"outputs":[],"stateMutability":"nonpayable"},{"type":"function","name":"supportsInterface","inputs":[{"name":"interfaceId","type":"bytes4","internalType":"bytes4"}],"outputs":[{"name":"","type":"bool","internalType":"bool"}],"stateMutability":"view"},{"type":"function","name":"tokenEWMA","inputs":[{"name":"","type":"address","internalType":"address"}],"outputs":[{"name":"","type":"uint256","internalType":"uint256"}],"stateMutability":"view"},{"type":"function","name":"tokenMaxLiquidityBorrow","inputs":[{"name":"","type":"address","internalType":"address"}],"outputs":[{"name":"","type":"uint256","internalType":"uint256"}],"stateMutability":"view"},{"type":"function","name":"tokenOmegaBps","inputs":[{"name":"","type":"address","internalType":"address"}],"outputs":[{"name":"","type":"uint256","internalType":"uint256"}],"stateMutability":"view"},{"type":"function","name":"tokenPriceBounds","inputs":[{"name":"","type":"address","internalType":"address"}],"outputs":[{"name":"ath","type":"uint256","internalType":"uint256"},{"name":"atl","type":"uint256","internalType":"uint256"},{"name":"decimals","type":"uint8","internalType":"uint8"},{"name":"set","type":"bool","internalType":"bool"}],"stateMutability":"view"},{"type":"function","name":"tokenPriceFeeds","inputs":[{"name":"","type":"address","internalType":"address"}],"outputs":[{"name":"","type":"address","internalType":"address"}],"stateMutability":"view"},{"type":"function","name":"twapInterval","inputs":[],"outputs":[{"name":"","type":"uint256","internalType":"uint256"}],"stateMutability":"view"},{"type":"function","name":"updateEWMA","inputs":[{"name":"token","type":"address","internalType":"address"}],"outputs":[{"name":"","type":"uint256","internalType":"uint256"}],"stateMutability":"nonpayable"},{"type":"function","name":"updateOmega","inputs":[{"name":"token","type":"address","internalType":"address"},{"name":"omegaBps","type":"uint256","internalType":"uint256"}],"outputs":[],"stateMutability":"nonpayable"},{"type":"function","name":"volatility","inputs":[],"outputs":[{"name":"","type":"uint256","internalType":"uint256"}],"stateMutability":"view"},{"type":"event","name":"AdminTimelockConfigUpdated","inputs":[{"name":"enabled","type":"bool","indexed":false,"internalType":"bool"},{"name":"delaySeconds","type":"uint256","indexed":false,"internalType":"uint256"}],"anonymous":false},{"type":"event","name":"CoprocessorUpdated","inputs":[{"name":"coprocessor","type":"address","indexed":true,"internalType":"address"}],"anonymous":false},{"type":"event","name":"DrawdownParamsUpdated","inputs":[{"name":"penaltyPerBps","type":"uint256","indexed":false,"internalType":"uint256"},{"name":"maxPenaltyBps","type":"uint256","indexed":false,"internalType":"uint256"}],"anonymous":false},{"type":"event","name":"FlashPumpCooldownCleared","inputs":[{"name":"token","type":"address","indexed":true,"internalType":"address"}],"anonymous":false},{"type":"event","name":"FlashPumpCooldownSet","inputs":[{"name":"token","type":"address","indexed":true,"internalType":"address"},{"name":"cooldownUntil","type":"uint256","indexed":false,"internalType":"uint256"}],"anonymous":false},{"type":"event","name":"GlobalMaxOmegaUpdated","inputs":[{"name":"capBps","type":"uint256","indexed":false,"internalType":"uint256"}],"anonymous":false},{"type":"event","name":"GovernanceInitialised","inputs":[{"name":"governor","type":"address","indexed":false,"internalType":"address"}],"anonymous":false},{"type":"event","name":"GracePeriodTimeUpdated","inputs":[{"name":"timeSeconds","type":"uint256","indexed":false,"internalType":"uint256"}],"anonymous":false},{"type":"event","name":"HardLTVCapUpdated","inputs":[{"name":"token","type":"address","indexed":true,"internalType":"address"},{"name":"capBps","type":"uint256","indexed":false,"internalType":"uint256"}],"anonymous":false},{"type":"event","name":"OmegaUpdated","inputs":[{"name":"token","type":"address","indexed":true,"internalType":"address"},{"name":"omegaBps","type":"uint256","indexed":false,"internalType":"uint256"}],"anonymous":false},{"type":"event","name":"PreTGECapUpdated","inputs":[{"name":"token","type":"address","indexed":true,"internalType":"address"},{"name":"maxProtocolExposure","type":"uint256","indexed":false,"internalType":"uint256"}],"anonymous":false},{"type":"event","name":"RangeVolWeightUpdated","inputs":[{"name":"rangeVolWeightBps","type":"uint256","indexed":false,"internalType":"uint256"}],"anonymous":false},{"type":"event","name":"RegistryUpdated","inputs":[{"name":"registry","type":"address","indexed":true,"internalType":"address"}],"anonymous":false},{"type":"event","name":"RoleAdminChanged","inputs":[{"name":"role","type":"bytes32","indexed":true,"internalType":"bytes32"},{"name":"previousAdminRole","type":"bytes32","indexed":true,"internalType":"bytes32"},{"name":"newAdminRole","type":"bytes32","indexed":true,"internalType":"bytes32"}],"anonymous":false},{"type":"event","name":"RoleGranted","inputs":[{"name":"role","type":"bytes32","indexed":true,"internalType":"bytes32"},{"name":"account","type":"address","indexed":true,"internalType":"address"},{"name":"sender","type":"address","indexed":true,"internalType":"address"}],"anonymous":false},{"type":"event","name":"RoleRevoked","inputs":[{"name":"role","type":"bytes32","indexed":true,"internalType":"bytes32"},{"name":"account","type":"address","indexed":true,"internalType":"address"},{"name":"sender","type":"address","indexed":true,"internalType":"address"}],"anonymous":false},{"type":"event","name":"SequencerUptimeFeedUpdated","inputs":[{"name":"feed","type":"address","indexed":true,"internalType":"address"}],"anonymous":false},{"type":"event","name":"TokenMaxLiquidityBorrowUpdated","inputs":[{"name":"token","type":"address","indexed":true,"internalType":"address"},{"name":"maxBorrowUsd","type":"uint256","indexed":false,"internalType":"uint256"}],"anonymous":false},{"type":"event","name":"TokenPriceBoundsUpdated","inputs":[{"name":"token","type":"address","indexed":true,"internalType":"address"},{"name":"ath","type":"uint256","indexed":false,"internalType":"uint256"},{"name":"atl","type":"uint256","indexed":false,"internalType":"uint256"},{"name":"decimals","type":"uint8","indexed":false,"internalType":"uint8"}],"anonymous":false},{"type":"event","name":"TokenPriceFeedCancelled","inputs":[{"name":"token","type":"address","indexed":true,"internalType":"address"}],"anonymous":false},{"type":"event","name":"TokenPriceFeedQueued","inputs":[{"name":"token","type":"address","indexed":true,"internalType":"address"},{"name":"feed","type":"address","indexed":true,"internalType":"address"},{"name":"executeAfter","type":"uint256","indexed":false,"internalType":"uint256"}],"anonymous":false},{"type":"event","name":"TokenQuarantined","inputs":[{"name":"token","type":"address","indexed":true,"internalType":"address"},{"name":"reason","type":"string","indexed":false,"internalType":"string"}],"anonymous":false},{"type":"error","name":"AccessControlBadConfirmation","inputs":[]},{"type":"error","name":"AccessControlUnauthorizedAccount","inputs":[{"name":"account","type":"address","internalType":"address"},{"name":"neededRole","type":"bytes32","internalType":"bytes32"}]}],"bytecode":{"object":"0x60803461020d57601f614c5538819003918201601f19168301916001600160401b0383118484101761021157808492604094855283398101031261020d577f9789733827840833afc031fb2ef9ab6894271f77bad2085687cf4ae5c7bee4db60206100748161006d85610225565b9401610225565b61007d81610239565b50610087816102af565b505f516020614c355f395f51905f525f525f82525f516020614bd55f395f51905f52600160405f2001545f516020614c355f395f51905f525f525f845281600160405f2001555f516020614c355f395f51905f525f516020614b955f395f51905f525f80a45f516020614bf55f395f51905f525f525f82525f516020614bd55f395f51905f52600160405f2001545f516020614bf55f395f51905f525f525f845281600160405f2001555f516020614bf55f395f51905f525f516020614b955f395f51905f525f80a46040516001600160a01b039091168152a16103e8600455600580556032600655610e10600755610e1060085560146009556107d0600a5562015180600e55610e106016556032601a556107d0601b55600a601c55612710601f5560018060a01b031680156101db57600180546001600160a01b03191691909117905560405161484590816103308239f35b60405162461bcd60e51b815260206004820152600a602482015269072656769737472793d360b41b6044820152606490fd5b5f80fd5b634e487b7160e01b5f52604160045260245ffd5b51906001600160a01b038216820361020d57565b6001600160a01b0381165f9081525f516020614c155f395f51905f52602052604090205460ff166102aa576001600160a01b03165f8181525f516020614c155f395f51905f5260205260408120805460ff191660011790553391905f516020614b755f395f51905f528180a4600190565b505f90565b6001600160a01b0381165f9081525f516020614bb55f395f51905f52602052604090205460ff166102aa576001600160a01b03165f8181525f516020614bb55f395f51905f5260205260408120805460ff191660011790553391905f516020614bd55f395f51905f52905f516020614b755f395f51905f529080a460019056fe6080806040526004361015610012575f80fd5b5f905f3560e01c90816301ffc9a714612d40575080630b481d5114612cab57806311a6f3da14612c8e57806312984b0b14612c4b5780631380c44a14612c135780631457db0114612b4d578063153d291314612b155780631584410a14612af85780631fb3b97114612adb57806322e9d5bf14612abf578063248a9ca314612a9557806324ea54f414612a5b5780632dd2ebb414612a3e5780632f2ff15d14612a0157806336568abe146129bd5780633a460ae51461294e5780633c1d5df0146129315780633d59b5f1146128a65780633daf46c7146128475780633eba752b146127a1578063440301b3146126555780634416472b146125d1578063449a7efa146124cc578063454802e9146124a4578063485d6ef814612467578063517e36891461240557806354c37c4f146123e357806356447ce814612353578063595476511461231b57806359f27088146121e65780635ea679ef1461214b5780636480b5b81461211357806364a2e661146120f6578063674417ae14612069578063685b464a1461203e57806370c3bd6714611fc15780637382084a14611f995780637402ba2c14611f3d5780637b10399914611f155780637c48929c14611df4578063906f788814611dbc57806391d1485414611d7457806393fabc3314611d4c57806396c7280414611d3457806397cab63c14611d17578063984e9f5014611c6a5780639fdcadc414611bed578063a217fddf14611bd3578063a3258d7c14611b39578063a4636bed14611b01578063a4bbe2bf14611a72578063a53566f414611972578063a59ffd3614611896578063a72647051461186e578063a8a4a2f014611836578063a91ee0dc1461177d578063b7e101911461173d578063b8f44963146116b8578063bcb5458a1461161e578063bd9c47e3146115de578063c133a12f146114d5578063ccc574901461149b578063cce992301461147e578063cf37a8921461139a578063d0c156e71461137d578063d547741f14611339578063d5bd765c1461131c578063de754232146112ba578063e1a452181461129e578063e1ea1cf514611209578063e2942092146111ec578063e63ab1e9146111b2578063ed2acd7214611195578063f26224e6146110fc578063f3cc6993146110df578063fbe7f4711461109b578063fd7187ba14610f4c5763ff47522414610378575f80fd5b346109fd5760803660031901126109fd5760043590610395612da9565b916044356064356001600160a01b038116908190036109fd578215610f1a5742821115610ee2576001600160a01b0385165f908152601360205260409020544210610eae5760015460405163152303bd60e21b81526004810192909252602090829060249082906001600160a01b03165afa8015610e23575f90610e74575b60ff9150169384151580610e69575b15610e2e57610431816134ac565b60405163313ce56760e01b815290956001600160a01b039093169491929190602081600481895afa908115610e235784905f92610de4575b506104749192612f75565b620f4240810290808204620f42401490151715610dd05761049a60ff6104a0931661322e565b90612f95565b916104b260ff87169361049a8561322e565b936001881497885f14610db657611388985b15610da1575060025b6104dc60ff8216924290612f88565b6001600160c01b038111610ca25784610c8e576301e133809060401b045b6001600160801b038111610c8a576001600160801b031660016001607f1b038111610c8a57600f0b916001600160c01b038111610c0c575083610bf85760ff60401b60649160401b16045b6001600160801b0381116107bb576001600160801b031660016001607f1b0381116107bb57600f0b81610bcc575050600160401b955b600654918394878552601960205260408520916040519361059b85612eb1565b83549283865260018501546002602088019682885201549460ff86169160ff60408a019784895260081c161515918260608b015282610bc0575b5081610bb6575b50610a59575b505050505050509080610a4557505f9567e6666666666666669567f333333333333333929091906001600160c01b03811161094b57886109375760c89060401b045b6001600160801b038111610922576001600160801b031660016001607f1b03811161092257600f0b600160401b039160016001607f1b031983121580610926575b15610922578792600f0b9089821261090d575b878a5260106020528460408b20548015610904575b601f548082116108fc575b50898c52601e60205260408c2054801515806108f3575b6108eb575b50601d546001600160a01b031680610838575b50836106e86106ed94936106e86106e06106e8956135b9565b998a96613718565b613718565b9585151596876107fd575b9061070291613794565b97677fffffffffffffff61ffff8416116107f95761073c946106e86106e89269ffff00000000000000006106e89660401b16600f0b613718565b916107bf575b50600f0b8381126107bb579267ffffffffffffffff604094851d169061271082116107b1575b849192815260126020522054801515806107a8575b61078f575b5082519182526020820152f35b9161079d836107a293612f75565b612f95565b5f610782565b5080831161077d565b6127109150610768565b8380fd5b6127100361271081116107e557906107d96107df926135b9565b90613718565b5f610742565b634e487b7160e01b85526011600452602485fd5b8980fd5b866127100361271081116108245761070292916107d961081c926135b9565b9091506106f8565b634e487b7160e01b8c52601160045260248cfd5b602091965060249250604051928380926319be4a7560e11b82528d60048301525afa9485156108e0578a9587928d9161089f575b506106e86106ed94936106e86106e085858a966106e89811610897575b5095505050939450506106c7565b90505f610889565b9392505094506020823d6020116108d8575b816108be60209383612efd565b810103126108d4579051899486916106e861086c565b8a80fd5b3d91506108b1565b6040513d8d823e3d90fd5b90505f6106b4565b508082116106af565b90505f610698565b5061271061068d565b9250508761091e5786915f90610678565b8780fd5b8880fd5b5060016001607f1b03831315610665565b634e487b7160e01b89526012600452602489fd5b9760c098808a1c809a640100000000821015610a38575b600282620100006109b0941015610a2c575b610100811015610a20575b6010811015610a14575b6004811015610a09575b1015610a01575b82600160c760be1984011c019160ff031b612f95565b916001600160801b0383116109fd5760c88302918b9060401b9b838d106109f2575b506109e7575060c8905f9a0304905b01610624565b9950506001906109e1565b5f190190505f6109d2565b5f80fd5b60010161099a565b91810191811c610993565b6004928301921c610989565b6008928301921c61097f565b6010928301921c610974565b505060e081811c90610962565b634e487b7160e01b81526012600452602490fd5b839181811115610b8457505050610a7b61049a9160ff610a809551169061323c565b613250565b825180151580610b7a575b610b23575b5050610a9f8251825190612f1f565b9182610aaf575b808080806105e2565b519051610abb91612f88565b6127108102908082046127101490151715610b0f57610aec610ae3610af39493606493612f95565b601c5490612f75565b0490612f1f565b9060648211610b06575b905f8080610aa6565b60649150610afd565b634e487b7160e01b84526011600452602484fd5b610b2e929650612f88565b6127108102908082046127101490151715610b0f57610b5d610b54606492845190612f95565b601a5490612f75565b04601b54808211610b72575b50935f80610a90565b90505f610b69565b5080821115610a8b565b8192955010610b96575b505050610a80565b610bae9350610ba891610a7b9161323c565b90612f75565b5f8080610b8e565b905015155f6105dc565b8192501015905f6105d5565b60016001607f1b031981146107bb57610bf291610bed918503600f0b613718565b613752565b9561057b565b634e487b7160e01b84526012600452602484fd5b5f9190610c1e90603290603f1b612f95565b916001600160801b038311610c8657606483029160401b60ff60401b169080838310610c7b575b50610c715785610c5d57906064910304905b01610545565b634e487b7160e01b86526012600452602486fd5b5050600190610c57565b5f190190505f610c45565b8580fd5b8480fd5b634e487b7160e01b85526012600452602485fd5b9360c09480861c8096640100000000821015610d94575b60028262010000610d0a941015610d88575b610100811015610d7c575b6010811015610d70575b6004811015610d65575b1015610d5d575b8260016301e1337f60be1984011c019160ff031b612f95565b916001600160801b0383116109fd576301e13380830291879060401b97838910610d52575b50610d4757506301e13380905f960304905b016104fa565b955050600190610d41565b5f190190505f610d2f565b600101610cf1565b91810191811c610cea565b6004928301921c610ce0565b6008928301921c610cd6565b6010928301921c610ccb565b505060e081811c90610cb9565b600203610daf5760056104cd565b600a6104cd565b60028103610dc857610dac5b986104c4565b6107d0610dc2565b634e487b7160e01b5f52601160045260245ffd5b9150506020813d602011610e1b575b81610e0060209383612efd565b810103126109fd5783610e1561047492613220565b91610469565b3d9150610df3565b6040513d5f823e3d90fd5b60405162461bcd60e51b81526020600482015260136024820152721d5b9d995c9a599a59590818dbdb9d1c9858dd606a1b6044820152606490fd5b506003851115610423565b506020813d602011610ea6575b81610e8e60209383612efd565b810103126109fd57610ea160ff91613220565b610414565b3d9150610e81565b60405162461bcd60e51b815260206004820152600c60248201526b3a37b5b2b710333937bd32b760a11b6044820152606490fd5b60405162461bcd60e51b815260206004820152601060248201526f185b1c9958591e481d5b9b1bd8dad95960821b6044820152606490fd5b60405162461bcd60e51b815260206004820152600a60248201526907175616e746974793d360b41b6044820152606490fd5b346109fd5760403660031901126109fd57610f65612d93565b610f6d612da9565b335f9081525f5160206147f05f395f51905f526020526040902054909190610f979060ff16612dbf565b60ff600d541615611062576001600160a01b0316610fb6811515612e7b565b7f6ab4d325309c5a4afd1953f37e097db8f6cd0fe10ba23eb26306bfd349eb13d66020610fe5600e5442612f1f565b61105960405195610ff587612ee1565b6001600160a01b0390811680885284880184815260016040808b018281525f8b815260188a52919091209a518b5495166001600160a01b0319909516949094178a5590519089015590516002909701805460ff191697151560ff1697909717909655565b604051908152a3005b60405162461bcd60e51b81526020600482015260116024820152701d1a5b595b1bd8dac8191a5cd8589b1959607a1b6044820152606490fd5b346109fd5760203660031901126109fd5760206110d56110b9612d93565b6001600160a01b03165f90815260136020526040902054421090565b6040519015158152f35b346109fd575f3660031901126109fd576020600554604051908152f35b346109fd5760203660031901126109fd57335f9081525f5160206147f05f395f51905f526020526040902054600435906111389060ff16612dbf565b60058110158061118a575b1561114d57600955005b60405162461bcd60e51b81526020600482015260156024820152746c6f6f6b6261636b206f7574206f662072616e676560581b6044820152606490fd5b506064811115611143565b346109fd575f3660031901126109fd576020600454604051908152f35b346109fd575f3660031901126109fd5760206040517f65d7a28e3265b37a6474929f336521b332c1681b933f6cb9f3376673440d862a8152f35b346109fd575f3660031901126109fd576020600a54604051908152f35b346109fd5760203660031901126109fd57335f9081525f5160206147f05f395f51905f526020526040902054600435906112459060ff16612dbf565b600181101580611293575b1561125a57600555005b60405162461bcd60e51b815260206004820152601160248201527072617465206f7574206f662072616e676560781b6044820152606490fd5b506014811115611250565b346109fd575f3660031901126109fd5760206040516127108152f35b346109fd5760203660031901126109fd576112d3612d93565b335f9081525f5160206147f05f395f51905f5260205260409020546112fa9060ff16612dbf565b601d80546001600160a01b0319166001600160a01b0392909216919091179055005b346109fd575f3660031901126109fd576020601654604051908152f35b346109fd5760403660031901126109fd5761137b600435611358612da9565b90611376611371825f525f602052600160405f20015490565b613261565b6133ec565b005b346109fd575f3660031901126109fd576020600954604051908152f35b346109fd5760403660031901126109fd576113b3612d93565b335f9081525f5160206147f05f395f51905f526020526040902054602435919060ff16801561146a575b156114255760207f32a6f6ec8df08a7385e74eac859273662fb8645e637b092f394814e021c4e4469160018060a01b031692835f52601482528060405f2055604051908152a2005b60405162461bcd60e51b815260206004820152601860248201527f6e6f74206f776e6572206f7220636f70726f636573736f7200000000000000006044820152606490fd5b50600f546001600160a01b031633146113dd565b346109fd575f3660031901126109fd576020600654604051908152f35b346109fd575f3660031901126109fd5760206040517f7935bd0ae54bc31f548c14dba4d37c5c64b3f8ca900cb468fb8abd54d5894f558152f35b346109fd5760603660031901126109fd576114ee612d93565b6024359081151582036109fd5760443567ffffffffffffffff81116109fd57366023820112156109fd5780600401359167ffffffffffffffff83116109fd5736602484840101116109fd57335f9081525f5160206147f05f395f51905f5260205260409020546115609060ff16612dbf565b6001600160a01b03165f818152601760205260409020805460ff191660ff861515161790559261158c57005b6040602491837fb5bf3a5d2f0fddac0fe694e6ae235d116299ce3b293ba4efdce653a9eb2e9a0c9483519485936020855282602086015201848401375f828201840152601f01601f19168101030190a2005b346109fd5760203660031901126109fd576001600160a01b036115ff612d93565b165f526002602052602060018060a01b0360405f205416604051908152f35b346109fd5760203660031901126109fd57611637612d93565b600f546001600160a01b031633148015611694575b61165590612e40565b6001600160a01b03165f8181526013602052604081208190557ff54b86da8253d4649287c659ebfeaad8fd150c4692f222685eb509f1bae73fc89080a2005b50335f9081525f5160206147f05f395f51905f52602052604090205460ff1661164c565b346109fd5760203660031901126109fd576116d1612d93565b335f9081525f5160206147f05f395f51905f5260205260409020546116f89060ff16612dbf565b601580546001600160a01b0319166001600160a01b039290921691821790557f32db38c7b3e5c8341ceb63fa1ae4ce0ba937b716427686f76033425ef435341a5f80a2005b346109fd5760203660031901126109fd576001600160a01b0361175e612d93565b165f526003602052602060018060a01b0360405f205416604051908152f35b346109fd5760203660031901126109fd57611796612d93565b335f9081525f5160206147f05f395f51905f5260205260409020546117bd9060ff16612dbf565b6001600160a01b0316801561180457600180546001600160a01b031916821790557fd6ceddf6d2a22f21c7c81675c518004eff43bc5c8a6fc32a0b748e69d58671cd5f80a2005b60405162461bcd60e51b815260206004820152600a602482015269072656769737472793d360b41b6044820152606490fd5b346109fd5760203660031901126109fd576001600160a01b03611857612d93565b165f526012602052602060405f2054604051908152f35b346109fd575f3660031901126109fd576015546040516001600160a01b039091168152602090f35b346109fd5760403660031901126109fd576004358015158091036109fd57335f9081525f5160206147f05f395f51905f526020526040902054602435906118df9060ff16612dbf565b603c81101580611965575b15611934577f687911c7f7b365a8368a45830a19c83a06fd492822054b1e7035e987f6ac50699160409160ff19600d541660ff831617600d5580600e5582519182526020820152a1005b60405162461bcd60e51b81526020600482015260096024820152686261642064656c617960b81b6044820152606490fd5b5062278d008111156118ea565b346109fd5760403660031901126109fd57335f9081525f5160206147f05f395f51905f52602052604090205460043590602435906119b29060ff16612dbf565b6103e88211611a3a5761138881116119fe57816040917f75a9c32f678cc19b5784380435b4a0d91575945745dd2e434a904944c8e012c293601a5580601b5582519182526020820152a1005b60405162461bcd60e51b81526020600482015260146024820152730dac2f040e0cadcc2d8e8f240e8dede40d0d2ced60631b6044820152606490fd5b60405162461bcd60e51b815260206004820152601060248201526f0e0cadcc2d8e8f240e8dede40d0d2ced60831b6044820152606490fd5b346109fd5760203660031901126109fd57611a8b612d93565b335f9081525f5160206147f05f395f51905f526020526040902054611ab29060ff16612dbf565b600f80546001600160a01b0319166001600160a01b03831690811790915590611ada90613299565b507fa1d165f64fc8038b3ec091282071a15d4a762afdc20908e52066958a80289d035f80a2005b346109fd5760203660031901126109fd576001600160a01b03611b22612d93565b165f526014602052602060405f2054604051908152f35b346109fd5760403660031901126109fd57611b52612d93565b335f9081525f5160206147f05f395f51905f526020908152604090912054602435927fc4d5bf409918958dfc8b5f72ba6c0a48e36f2fc4dfdd7af9f16b474d2eb39a739291611ba39060ff16612dbf565b611bb16127108511156130ea565b6001600160a01b03165f818152601e83526040908190208590555193845292a2005b346109fd575f3660031901126109fd5760206040515f8152f35b346109fd5760203660031901126109fd57335f9081525f5160206147f05f395f51905f52602052604090205460043590611c299060ff16612dbf565b60648111611c3657600655005b60405162461bcd60e51b815260206004820152600c60248201526b0ecded840e8dede40d0d2ced60a31b6044820152606490fd5b346109fd5760203660031901126109fd57335f9081525f5160206147f05f395f51905f52602052604090205460043590611ca69060ff16612dbf565b6103e88111611ce0576020817ffa207c11e031100d60764683bc02845d73fbc0ff01eb725498fe2415157a7f3d92601c55604051908152a1005b60405162461bcd60e51b815260206004820152600f60248201526e0eecad2ced0e840e8dede40d0d2ced608b1b6044820152606490fd5b346109fd575f3660031901126109fd576020601c54604051908152f35b346109fd575f3660031901126109fd5761137b613124565b346109fd575f3660031901126109fd57601d546040516001600160a01b039091168152602090f35b346109fd5760403660031901126109fd57611d8d612da9565b6004355f525f60205260405f209060018060a01b03165f52602052602060ff60405f2054166040519015158152f35b346109fd5760203660031901126109fd576001600160a01b03611ddd612d93565b165f52600b602052602060405f2054604051908152f35b346109fd5760403660031901126109fd57611e0d612d93565b335f9081527f8a40f0b47fdc2a0ce293b772acfc7508c8315a4d462786c1adc3a56f92ca2d0560205260409020546024359060ff1615611ed75760207f358399cc01220edec7636194502bd80a4dc910eb40d9a1281409387bee851c5091601f54908181115f14611ecf5750925b6001600160a01b03165f818152601e83526040902054909390801515818382611ec5575b5050611ebd575b50835f52601082528060405f2055604051908152a2005b905084611ea6565b1190508187611e9f565b905092611e7b565b60405162461bcd60e51b815260206004820152601660248201527521b0b63632b91034b9903737ba1033bab0b93234b0b760511b6044820152606490fd5b346109fd575f3660031901126109fd576001546040516001600160a01b039091168152602090f35b346109fd5760203660031901126109fd576001600160a01b03611f5e612d93565b165f526018602052606060405f2060018060a01b038154169060ff600260018301549201541690604051928352602083015215156040820152f35b346109fd575f3660031901126109fd57600f546040516001600160a01b039091168152602090f35b346109fd5760203660031901126109fd57335f9081525f5160206147f05f395f51905f5260209081526040909120547fbf8898c401e74d1046d23cba1a6380d3f09730b239b8148215650fbcfdcde8589190600435906120239060ff16612dbf565b6120316127108211156130ea565b80601f55604051908152a1005b346109fd5760203660031901126109fd57602061206161205c612d93565b612fb3565b604051908152f35b346109fd5760403660031901126109fd57612082612d93565b61208a612da9565b335f9081525f5160206147f05f395f51905f5260205260409020546120b19060ff16612dbf565b60ff600d54166120c45761137b9161346c565b60405162461bcd60e51b815260206004820152600a6024820152691d1a5b595b1bd8dad95960b21b6044820152606490fd5b346109fd575f3660031901126109fd576020601f54604051908152f35b346109fd5760203660031901126109fd576001600160a01b03612134612d93565b165f526013602052602060405f2054604051908152f35b346109fd5760203660031901126109fd57335f9081525f5160206147f05f395f51905f526020526040902054600435906121879060ff16612dbf565b6001811015806121d9575b1561219c57600855005b60405162461bcd60e51b8152602060048201526015602482015274696e74657276616c206f7574206f662072616e676560581b6044820152606490fd5b5062093a80811115612192565b346109fd5760203660031901126109fd576121ff612d93565b335f9081525f5160206147f05f395f51905f5260205260409020546122269060ff16612dbf565b60018060a01b03811690815f52601860205260405f206040519061224982612ee1565b80546001600160a01b0316825260018101546020830190815260029091015460ff1615801560408401526122e3575142106122ab5761137b925f5260186020525f600260408220828155826001820155015560018060a01b039051169061346c565b60405162461bcd60e51b815260206004820152601060248201526f74696d656c6f636b2070656e64696e6760801b6044820152606490fd5b60405162461bcd60e51b815260206004820152601060248201526f6e6f2071756575656420636f6e66696760801b6044820152606490fd5b346109fd5760203660031901126109fd576001600160a01b0361233c612d93565b165f526010602052602060405f2054604051908152f35b346109fd5760203660031901126109fd57335f9081525f5160206147f05f395f51905f5260205260409020546004359061238f9060ff16612dbf565b801515806123d5575b156123a257600755005b60405162461bcd60e51b815260206004820152600b60248201526a626164206d61782061676560a81b6044820152606490fd5b506301e13380811115612398565b346109fd575f3660031901126109fd57602060ff600d54166040519015158152f35b346109fd5760203660031901126109fd5761241e612d93565b335f9081525f5160206147f05f395f51905f5260205260409020546124459060ff16612dbf565b601180546001600160a01b0319166001600160a01b0392909216919091179055005b346109fd5760203660031901126109fd576001600160a01b03612488612d93565b165f526017602052602060ff60405f2054166040519015158152f35b346109fd575f3660031901126109fd576011546040516001600160a01b039091168152602090f35b346109fd5760403660031901126109fd576124e5612d93565b6024359060018060a01b03600f5416331480156125ad575b61250690612e40565b6001600160a01b03169061251b821515612e7b565b801515806125a0575b1561256c5760206125567f590a9390629a95932b7f7842b638d679149b13bba001ff50e89aebaca627996d9242612f1f565b835f52601382528060405f2055604051908152a2005b60405162461bcd60e51b815260206004820152600c60248201526b3130b210323ab930ba34b7b760a11b6044820152606490fd5b5062093a80811115612524565b50335f9081525f5160206147f05f395f51905f52602052604090205460ff166124fd565b346109fd5760203660031901126109fd57335f9081525f5160206147f05f395f51905f5260205260409020546004359061260d9060ff16612dbf565b611388811161261b57600455005b60405162461bcd60e51b81526020600482015260126024820152710e8d0e4cae6d0ded8c840e8dede40d0d2ced60731b6044820152606490fd5b346109fd5760803660031901126109fd5761266e612d93565b602435906044356064359160ff83168093036109fd57335f9081525f5160206147f05f395f51905f5260205260409020546126ab9060ff16612dbf565b6001600160a01b0316926126c0841515612e7b565b81151580612797575b15612761577f1bd846b49ea2dab5c657abf37a6c691fb4341d87a08f749d9c9ac9352c1219f3926060926040516126ff81612eb1565b8381526020810182815260ff6002604084019386855288810193600185528b5f52601960205260405f20915182555160018201550192511661ff0083549251151560081b169161ffff19161717905560405192835260208301526040820152a2005b60405162461bcd60e51b815260206004820152600e60248201526d696e76616c696420626f756e647360901b6044820152606490fd5b50818110156126c9565b346109fd5760203660031901126109fd576127ba612d93565b335f9081525f5160206147f05f395f51905f5260205260409020546127e19060ff16612dbf565b6001600160a01b03166127f5811515612e7b565b805f5260196020525f60026040822082815582600182015501557f1bd846b49ea2dab5c657abf37a6c691fb4341d87a08f749d9c9ac9352c1219f360606040515f81525f60208201525f6040820152a2005b346109fd5760203660031901126109fd576001600160a01b03612868612d93565b165f526019602052608060405f2060ff81549160026001820154910154906040519384526020840152818116604084015260081c1615156060820152f35b346109fd5760403660031901126109fd576128bf612d93565b6128c7612da9565b335f9081525f5160206147f05f395f51905f5260205260409020549091906128f19060ff16612dbf565b6001600160a01b0316612905811515612e7b565b5f90815260036020526040902080546001600160a01b0319166001600160a01b03909216919091179055005b346109fd575f3660031901126109fd576020600854604051908152f35b346109fd5760203660031901126109fd57335f9081525f5160206147f05f395f51905f5260209081526040909120547fd9702fe054bf54417f1c18cd26e9ee6d11dab232b39c5431ef684c62de1edafe9190600435906129b09060ff16612dbf565b80601655604051908152a1005b346109fd5760403660031901126109fd576129d6612da9565b336001600160a01b038216036129f25761137b906004356133ec565b63334bd91960e11b5f5260045ffd5b346109fd5760403660031901126109fd5761137b600435612a20612da9565b90612a39611371825f525f602052600160405f20015490565b61336a565b346109fd575f3660031901126109fd576020601b54604051908152f35b346109fd575f3660031901126109fd5760206040517f55435dd261a4b9b3364963f7738a7a662ad9c84396d64be3365284bb7f0a50418152f35b346109fd5760203660031901126109fd5760206120616004355f525f602052600160405f20015490565b346109fd575f3660031901126109fd576020604051610bb88152f35b346109fd575f3660031901126109fd576020601a54604051908152f35b346109fd575f3660031901126109fd576020600754604051908152f35b346109fd5760203660031901126109fd576001600160a01b03612b36612d93565b165f52601e602052602060405f2054604051908152f35b346109fd5760403660031901126109fd57612b66612d93565b7fd846b7f99275493ab48b87da527437a131376e865195a541265e721a5e20232660206024359260018060a01b03600f541633148015612bd5575b612baa90612e40565b6001600160a01b031692612bbf841515612e7b565b835f52601282528060405f2055604051908152a2005b507f7935bd0ae54bc31f548c14dba4d37c5c64b3f8ca900cb468fb8abd54d5894f555f9081528083526040808220338352845290205460ff16612ba1565b346109fd5760203660031901126109fd576001600160a01b03612c34612d93565b165f52600c602052602060405f2054604051908152f35b346109fd5760203660031901126109fd576001600160a01b03612c6c612d93565b165f526002602052602060018060a01b0360405f205416612061811515612e04565b346109fd575f3660031901126109fd576020600e54604051908152f35b346109fd5760203660031901126109fd57335f9081525f5160206147f05f395f51905f52602052604090205460043590612ce79060ff16612dbf565b80151580612d34575b15612cfa57600a55005b60405162461bcd60e51b8152602060048201526012602482015271616c706861206f7574206f662072616e676560701b6044820152606490fd5b50612710811115612cf0565b346109fd5760203660031901126109fd576004359063ffffffff60e01b82168092036109fd57602091637965db0b60e01b8114908115612d82575b5015158152f35b6301ffc9a760e01b14905083612d7b565b600435906001600160a01b03821682036109fd57565b602435906001600160a01b03821682036109fd57565b15612dc657565b60405162461bcd60e51b815260206004820152601660248201527521b0b63632b91034b9903737ba1033b7bb32b93737b960511b6044820152606490fd5b15612e0b57565b60405162461bcd60e51b815260206004820152600d60248201526c1b9bc81c1c9a58d94819995959609a1b6044820152606490fd5b15612e4757565b60405162461bcd60e51b815260206004820152600c60248201526b1d5b985d5d1a1bdc9a5e995960a21b6044820152606490fd5b15612e8257565b60405162461bcd60e51b81526020600482015260076024820152660746f6b656e3d360cc1b6044820152606490fd5b6080810190811067ffffffffffffffff821117612ecd57604052565b634e487b7160e01b5f52604160045260245ffd5b6060810190811067ffffffffffffffff821117612ecd57604052565b90601f8019910116810190811067ffffffffffffffff821117612ecd57604052565b91908201809211610dd057565b51906001600160501b03821682036109fd57565b908160a09103126109fd57612f5481612f2c565b91602082015191604081015191612f72608060608401519301612f2c565b90565b81810292918115918404141715610dd057565b91908203918211610dd057565b8115612f9f570490565b634e487b7160e01b5f52601260045260245ffd5b6001600160a01b039081165f8181526002602052604090205490911680156130e45760a060049160405192838092633fabe5a360e21b82525afa908115610e23575f905f926130af575b505f8113801590613099575b61309257825f52600b60205260405f20549081156130725761302e600a548092612f75565b9061271003906127108211610dd05761304d6130539261271094612f75565b90612f1f565b0491805f52600b6020528260405f20555f52600c60205260405f205590565b928091505f52600b6020528260405f20555f52600c60205260405f205590565b5050505f90565b50825f52601760205260ff60405f205416613009565b90506130d3915060a03d60a0116130dd575b6130cb8183612efd565b810190612f40565b509250505f612ffd565b503d6130c1565b50505f90565b156130f157565b60405162461bcd60e51b815260206004820152600b60248201526a0696e76616c6964206361760ac1b6044820152606490fd5b6015546001600160a01b0316806131385750565b60a060049160405192838092633fabe5a360e21b82525afa908115610e23575f905f926131fb575b506131bf5761316f9042612f88565b601654101561317a57565b60405162461bcd60e51b815260206004820152601d60248201527f53657175656e63657220677261636520706572696f64206163746976650000006044820152606490fd5b60405162461bcd60e51b815260206004820152601460248201527326191029b2b8bab2b731b2b91034b9903237bbb760611b6044820152606490fd5b9050613216915060a03d60a0116130dd576130cb8183612efd565b509250505f613160565b519060ff821682036109fd57565b604d8111610dd057600a0a90565b9060ff8091169116039060ff8211610dd057565b60ff16604d8111610dd057600a0a90565b5f8181526020818152604080832033845290915290205460ff16156132835750565b63e2517d3f60e01b5f523360045260245260445ffd5b6001600160a01b0381165f9081527f8a40f0b47fdc2a0ce293b772acfc7508c8315a4d462786c1adc3a56f92ca2d05602052604090205460ff16613365576001600160a01b03165f8181527f8a40f0b47fdc2a0ce293b772acfc7508c8315a4d462786c1adc3a56f92ca2d0560205260408120805460ff191660011790553391907f55435dd261a4b9b3364963f7738a7a662ad9c84396d64be3365284bb7f0a5041907f2f8788117e7eff1d82e926ec794901d17c78024a50270940304540a733656f0d9080a4600190565b505f90565b5f818152602081815260408083206001600160a01b038616845290915290205460ff166130e4575f818152602081815260408083206001600160a01b0395909516808452949091528120805460ff19166001179055339291907f2f8788117e7eff1d82e926ec794901d17c78024a50270940304540a733656f0d9080a4600190565b5f818152602081815260408083206001600160a01b038616845290915290205460ff16156130e4575f818152602081815260408083206001600160a01b0395909516808452949091528120805460ff19169055339291907ff6391f5c32d9c69d2a47ea670b442974b53935d1edc7fd64eb21e047a839171b9080a4600190565b6001600160a01b0316613480811515612e7b565b5f52600260205260405f209060018060a01b03166bffffffffffffffffffffffff60a01b825416179055565b906134b5613124565b6001600160a01b038281165f81815260026020526040902054909391169081156134e8576134e49293506137d5565b9091565b50506011546001600160a01b031691606090613505841515612e04565b6024604051809581936302c68be360e31b835260048301525afa8015610e23575f905f935f9161356f575b50421061353b579190565b60405162461bcd60e51b815260206004820152600c60248201526b199d5d1d5c99481c9bdd5b9960a21b6044820152606490fd5b935050506060823d6060116135b1575b8161358c60609383612efd565b810103126109fd5781519160406135a560208301613220565b9101519290925f613530565b3d915061357f565b5f906001600160c01b03811161361f578161360b576127109060401b045b6001600160801b038111613607576001600160801b03169060016001607f1b0382116136045750600f0b90565b80fd5b5080fd5b634e487b7160e01b82526012600452602482fd5b9060c09180831c809364010000000082101561370b575b600282620100006136859410156136ff575b6101008110156136f3575b60108110156136e7575b60048110156136dc575b10156136d4575b82600161270f60be1984011c019160ff031b612f95565b916001600160801b0383116109fd57612710830291849060401b948386106136c9575b506136be5750612710905f930304905b016135d7565b9250506001906136b8565b5f190190505f6136a8565b60010161366e565b91810191811c613667565b6004928301921c61365d565b6008928301921c613653565b6010928301921c613648565b505060e081811c90613636565b90600f0b90600f0b0260401d60016001607f1b031981121580613741575b156109fd57600f0b90565b5060016001607f1b03811315613736565b600f0b600160461b8112156109fd57683fffffffffffffffff19811261336557700171547652b82fe1777d0ffda0d23a7d12612f72910260801d600f0b613c0b565b81156130e457600f0b5f81126109fd576001600160801b038216810260401c9160801c026001600160c01b0381116109fd5760401b811981116109fd570190565b604051633fabe5a360e21b81526001600160a01b039092169160a081600481865afa8015610e23575f5f925f92613be4575b5060405163313ce56760e01b815294602086600481845afa958615610e23575f96613ba8575b50855f8513801590613b87575b613b7a575082151580613b70575b15613b3b576138578342612f88565b60075410613b08576008545f9384939192908642851015613b005761387c8542612f88565b929091925b5f5b81851180613aee575b80613ae3575b15613ad5575f198114610dd057600101946001600160501b035f19911601906001600160501b038211610dd0576001600160501b0360405192639a6fc8f560e01b845216600483015260a082602481865afa935f95855f945f97613aa8575b50613a1f57505050505050506001905b106139da5760011c8111156139955761391991612f95565b6001600160a01b039092165f908152600b6020526040902054801561398857600a546139458184612f75565b9061271003906127108211610dd05761304d6139649261271094612f75565b04918082101561398157505b8082101561397c575091565b905091565b9050613970565b508082101561397c575091565b60405162461bcd60e51b815260206004820152601760248201527f696e73756666696369656e7420545741502064657074680000000000000000006044820152606490fd5b60405162461bcd60e51b815260206004820152601a60248201527f696e73756666696369656e74206f7261636c6520726f756e64730000000000006044820152606490fd5b82869894969b929395979a9b108015613aa0575b8015613a96575b613a6a57613a60929161304d613a538a613a5a94612f88565b8094612f75565b99612f1f565b9694939190613883565b613a539193995060019750613a90965061304d92955093613a8a94612f88565b95612f1f565b92613901565b505f861315613a3a565b508715613a33565b9197509550613ac691935060a03d81116130dd576130cb8183612efd565b5094929050969093955f6138f1565b935050505060019150613901565b506009548110613892565b506001600160501b038616151561388c565b90915f613881565b60405162461bcd60e51b815260206004820152600b60248201526a7374616c6520707269636560a81b6044820152606490fd5b60405162461bcd60e51b815260206004820152600d60248201526c06261642074696d657374616d7609c1b6044820152606490fd5b5082421015613848565b96955050505050505f9190565b506001600160a01b0386165f9081526017602052604090205460ff1661383a565b9095506020813d602011613bdc575b81613bc460209383612efd565b810103126109fd57613bd590613220565b945f61382d565b3d9150613bb7565b915050613c00915060a03d60a0116130dd576130cb8183612efd565b50919290505f613807565b80600f0b600160461b8112156109fd57683fffffffffffffffff1981126130e4576001607f1b915f6780000000000000008216600f0b136147d7575b5f6740000000000000008216600f0b136147ba575b5f6720000000000000008216600f0b1361479d575b5f6710000000000000008216600f0b13614780575b5f6708000000000000008216600f0b13614763575b5f6704000000000000008216600f0b13614746575b5f6702000000000000008216600f0b13614729575b5f6701000000000000008216600f0b1361470c575b5f66800000000000008216600f0b136146ef575b5f66400000000000008216600f0b136146d2575b5f66200000000000008216600f0b136146b5575b5f66100000000000008216600f0b13614698575b5f66080000000000008216600f0b1361467b575b5f66040000000000008216600f0b1361465e575b5f66020000000000008216600f0b13614641575b5f66010000000000008216600f0b13614624575b5f658000000000008216600f0b13614607575b5f654000000000008216600f0b136145ea575b5f652000000000008216600f0b136145cd575b5f651000000000008216600f0b136145b0575b5f650800000000008216600f0b13614593575b5f650400000000008216600f0b13614576575b5f650200000000008216600f0b13614559575b5f650100000000008216600f0b1361453c575b5f6480000000008216600f0b1361451f575b5f6440000000008216600f0b13614502575b5f6420000000008216600f0b136144e5575b5f6410000000008216600f0b136144c8575b5f6408000000008216600f0b136144ab575b5f6404000000008216600f0b1361448e575b5f6402000000008216600f0b13614471575b5f6401000000008216600f0b13614454575b5f63800000008216600f0b13614437575b5f63400000008216600f0b1361441a575b5f63200000008216600f0b136143fd575b5f63100000008216600f0b136143e0575b5f63080000008216600f0b136143c3575b5f63040000008216600f0b136143a6575b5f63020000008216600f0b13614389575b5f63010000008216600f0b1361436c575b5f628000008216600f0b1361434f575b5f624000008216600f0b13614332575b5f622000008216600f0b13614315575b5f621000008216600f0b136142f8575b5f620800008216600f0b136142db575b5f620400008216600f0b136142be575b5f620200008216600f0b136142a1575b5f620100008216600f0b13614284575b5f6180008216600f0b13614267575b5f6140008216600f0b1361424a575b5f6120008216600f0b1361422d575b5f6110008216600f0b13614210575b5f6108008216600f0b136141f3575b5f6104008216600f0b136141d6575b5f6102008216600f0b136141b9575b5f6101008216600f0b1361419c575b5f60808216600f0b1361417f575b5f60408216600f0b13614162575b5f60208216600f0b13614145575b5f60108216600f0b13614128575b5f60088216600f0b1361410b575b5f60048216600f0b136140ee575b5f60028216600f0b136140d0575b60015f9116600f0b136140b3575b60401d600f0b603f03600f0b1c60016001607f1b0381116109fd57600f0b90565b9070010000000000000000b17217f7d1cf79ab0260801c90614092565b7001000000000000000162e42fefa39ef35890920260801c91614084565b9170010000000000000002c5c85fdf473de6b20260801c91614076565b91700100000000000000058b90bfbe8e7bcd6d0260801c91614068565b917001000000000000000b17217f7d1cf79afa0260801c9161405a565b91700100000000000000162e42fefa39ef366f0260801c9161404c565b917001000000000000002c5c85fdf473de6eca0260801c9161403e565b9170010000000000000058b90bfbe8e7bce5440260801c91614030565b91700100000000000000b17217f7d1cf79e9490260801c91614022565b9170010000000000000162e42fefa39ef44d910260801c91614013565b91700100000000000002c5c85fdf473dea871f0260801c91614004565b917001000000000000058b90bfbe8e7bdcbe2e0260801c91613ff5565b9170010000000000000b17217f7d1cf7d83c1a0260801c91613fe6565b917001000000000000162e42fefa39f02b772c0260801c91613fd7565b9170010000000000002c5c85fdf473e242ea380260801c91613fc8565b91700100000000000058b90bfbe8e7cc35c3f00260801c91613fb9565b917001000000000000b17217f7d1cfb72b45e10260801c91613faa565b91700100000000000162e42fefa39fe95583c20260801c91613f9a565b917001000000000002c5c85fdf4741bea6e77e0260801c91613f8a565b9170010000000000058b90bfbe8e8b2d3d4ede0260801c91613f7a565b91700100000000000b17217f7d1d351a389d400260801c91613f6a565b9170010000000000162e42fefa3ae53369388c0260801c91613f5a565b91700100000000002c5c85fdf477b662b269450260801c91613f4a565b917001000000000058b90bfbe8f71cb4e4b33d0260801c91613f3a565b9170010000000000b17217f7d20cf927c8e94c0260801c91613f2a565b917001000000000162e42fefa494f1478fde050260801c91613f19565b9170010000000002c5c85fdf4b15de6f17eb0d0260801c91613f08565b91700100000000058b90bfbe9ddbac5e109cce0260801c91613ef7565b917001000000000b17217f7d5a7716bba4a9ae0260801c91613ee6565b91700100000000162e42fefb2fed257559bdaa0260801c91613ed5565b917001000000002c5c85fdf84bd62ae30a74cc0260801c91613ec4565b9170010000000058b90bfbf8479bd5a81b51ad0260801c91613eb3565b91700100000000b17217f80f4ef5aadda455540260801c91613ea2565b9170010000000162e42ff0999ce3541b9fffcf0260801c91613e90565b91700100000002c5c85fe31f35a6a30da1be500260801c91613e7e565b917001000000058b90bfcdee5acd3c1cedc8230260801c91613e6c565b9170010000000b17217fba9c739aa5819f44f90260801c91613e5a565b917001000000162e42fff037df38aa2b219f060260801c91613e48565b9170010000002c5c8601cc6b9e94213c72737a0260801c91613e36565b91700100000058b90c0b48c6be5df846c5b2ef0260801c91613e24565b917001000000b1721835514b86e6d96efd1bfe0260801c91613e12565b91700100000162e430e5a18f6119e3c02282a50260801c91613dff565b917001000002c5c863b73f016468f6bac5ca2b0260801c91613dec565b9170010000058b90cf1e6d97f9ca14dbcc16280260801c91613dd9565b91700100000b1721bcfc99d9f890ea069117630260801c91613dc6565b9170010000162e43f4f831060e02d839a9d16d0260801c91613db3565b91700100002c5c89d5ec6ca4d7c8acc017b7c90260801c91613da0565b917001000058b91b5bc9ae2eed81e9b7d4cfab0260801c91613d8d565b9170010000b17255775c040618bf4a4ade83fc0260801c91613d7a565b917001000162e525ee054754457d59952920260260801c91613d66565b9170010002c5cc37da9491d0985c348c68e7b30260801c91613d52565b91700100058ba01fb9f96d6cacd4b180917c3d0260801c91613d3e565b917001000b175effdc76ba38e31671ca9397250260801c91613d2a565b91700100162f3904051fa128bca9c55c31e5df0260801c91613d16565b917001002c605e2e8cec506d21bfc89a23a00f0260801c91613d02565b9170010058c86da1c09ea1ff19d294cf2f679b0260801c91613cee565b91700100b1afa5abcbed6129ab13ec11dc95430260801c91613cda565b9170010163da9fb33356d84a66ae336dcdfa3f0260801c91613cc5565b91700102c9a3e778060ee6f7caca4f7a29bde80260801c91613cb0565b917001059b0d31585743ae7c548eb68ca417fd0260801c91613c9b565b9170010b5586cf9890f6298b92b71842a983630260801c91613c86565b917001172b83c7d517adcdf7c8c50eb14a791f0260801c91613c71565b917001306fe0a31b7152de8d5a46305c85edec0260801c91613c5c565b6fb504f333f9de6484597d89b3754abe9f9250613c4756fe6f3b488caa0dc03e5f3d9fd6a25fa8755afcfd62ccffb6e436c696bfa6b866dea2646970667358221220184dafc27f81955dca68476a6231834339ffa5e068e4b18921184beb8d7fe08964736f6c634300082100332f8788117e7eff1d82e926ec794901d17c78024a50270940304540a733656f0dbd79b86ffe0ab8e8776151514217cd7cacd52c909f66475c3af44e129f0b00ff6f3b488caa0dc03e5f3d9fd6a25fa8755afcfd62ccffb6e436c696bfa6b866de7935bd0ae54bc31f548c14dba4d37c5c64b3f8ca900cb468fb8abd54d5894f5565d7a28e3265b37a6474929f336521b332c1681b933f6cb9f3376673440d862aad3228b676f7d3cd4284a5443f17f1962b36e491b30a40b2405849e597ba5fb555435dd261a4b9b3364963f7738a7a662ad9c84396d64be3365284bb7f0a5041","linkReferences":{}},"methodIdentifiers":{"BASE_LTV_BPS()":"22e9d5bf","BPS_DENOMINATOR()":"e1a45218","DEFAULT_ADMIN_ROLE()":"a217fddf","GOVERNOR_ROLE()":"ccc57490","GUARDIAN_ROLE()":"24ea54f4","PAUSER_ROLE()":"e63ab1e9","adminTimelockDelay()":"11a6f3da","adminTimelockEnabled()":"54c37c4f","checkSequencerActive()":"96c72804","clearFlashPumpCooldown(address)":"bcb5458a","clearTokenPriceBounds(address)":"3eba752b","computeDPV(uint256,address,uint256,address)":"ff475224","coprocessor()":"7382084a","deviationThresholdBps()":"ed2acd72","drawdownPenaltyPerBps()":"1fb3b971","ewmaAlpha()":"e2942092","executeQueuedTokenPriceFeed(address)":"59f27088","flashPumpCooldownUntil(address)":"6480b5b8","getPriceFeedForToken(address)":"12984b0b","getRoleAdmin(bytes32)":"248a9ca3","globalMaxOmegaBps()":"64a2e661","gracePeriodTime()":"d5bd765c","grantRole(bytes32,address)":"2f2ff15d","hardLTVCapBps(address)":"153d2913","hasRole(bytes32,address)":"91d14854","isFlashPumpFrozen(address)":"fbe7f471","isQuarantined(address)":"485d6ef8","lastEWMATimestamp(address)":"1380c44a","maxDrawdownPenaltyBps()":"2dd2ebb4","maxPriceAge()":"1584410a","maxTwapLookback()":"d0c156e7","openClawLighthouse()":"93fabc33","pendingTokenFeeds(address)":"7402ba2c","preTGECaps(address)":"a4636bed","preTGEOracle()":"454802e9","quarantineToken(address,bool,string)":"c133a12f","queueTokenPriceFeed(address,address)":"fd7187ba","rangeVolWeightBps()":"97cab63c","registry()":"7b103999","renounceRole(bytes32,address)":"36568abe","reportFlashPump(address,uint256)":"449a7efa","revokeRole(bytes32,address)":"d547741f","riskFreeRate()":"f3cc6993","secondaryPriceFeeds(address)":"b7e10191","sequencerUptimeFeed()":"a7264705","setAdminTimelockConfig(bool,uint256)":"a59ffd36","setCoprocessor(address)":"a4bbe2bf","setDeviationThresholdBps(uint256)":"4416472b","setDrawdownParams(uint256,uint256)":"a53566f4","setEWMAAlpha(uint256)":"0b481d51","setGlobalMaxOmega(uint256)":"70c3bd67","setGracePeriodTime(uint256)":"3a460ae5","setHardLTVCap(address,uint256)":"a3258d7c","setMaxPriceAge(uint256)":"56447ce8","setMaxTwapLookback(uint256)":"f26224e6","setOpenClawLighthouse(address)":"de754232","setPreTGECap(address,uint256)":"cf37a892","setPreTGEOracle(address)":"517e3689","setRangeVolWeight(uint256)":"984e9f50","setRegistry(address)":"a91ee0dc","setRiskFreeRate(uint256)":"e1ea1cf5","setSecondaryPriceFeed(address,address)":"3d59b5f1","setSequencerUptimeFeed(address)":"b8f44963","setTokenMaxLiquidityBorrow(address,uint256)":"1457db01","setTokenPriceBounds(address,uint256,uint256,uint8)":"440301b3","setTokenPriceFeed(address,address)":"674417ae","setTwapInterval(uint256)":"5ea679ef","setVolatility(uint256)":"9fdcadc4","supportsInterface(bytes4)":"01ffc9a7","tokenEWMA(address)":"906f7888","tokenMaxLiquidityBorrow(address)":"a8a4a2f0","tokenOmegaBps(address)":"59547651","tokenPriceBounds(address)":"3daf46c7","tokenPriceFeeds(address)":"bd9c47e3","twapInterval()":"3c1d5df0","updateEWMA(address)":"685b464a","updateOmega(address,uint256)":"7c48929c","volatility()":"cce99230"},"id":48}