{
  "_format": "hh-sol-artifact-1",
  "contractName": "ValuationEngine",
  "sourceName": "contracts/ValuationEngine.sol",
  "abi": [
    {
      "inputs": [
        {
          "internalType": "address",
          "name": "_priceFeed",
          "type": "address"
        }
      ],
      "stateMutability": "nonpayable",
      "type": "constructor"
    },
    {
      "inputs": [
        {
          "internalType": "address",
          "name": "owner",
          "type": "address"
        }
      ],
      "name": "OwnableInvalidOwner",
      "type": "error"
    },
    {
      "inputs": [
        {
          "internalType": "address",
          "name": "account",
          "type": "address"
        }
      ],
      "name": "OwnableUnauthorizedAccount",
      "type": "error"
    },
    {
      "anonymous": false,
      "inputs": [
        {
          "indexed": true,
          "internalType": "address",
          "name": "previousOwner",
          "type": "address"
        },
        {
          "indexed": true,
          "internalType": "address",
          "name": "newOwner",
          "type": "address"
        }
      ],
      "name": "OwnershipTransferred",
      "type": "event"
    },
    {
      "inputs": [],
      "name": "BASE_LTV_BPS",
      "outputs": [
        {
          "internalType": "uint256",
          "name": "",
          "type": "uint256"
        }
      ],
      "stateMutability": "view",
      "type": "function"
    },
    {
      "inputs": [],
      "name": "BPS_DENOMINATOR",
      "outputs": [
        {
          "internalType": "uint256",
          "name": "",
          "type": "uint256"
        }
      ],
      "stateMutability": "view",
      "type": "function"
    },
    {
      "inputs": [
        {
          "internalType": "uint256",
          "name": "quantity",
          "type": "uint256"
        },
        {
          "internalType": "address",
          "name": "",
          "type": "address"
        },
        {
          "internalType": "uint256",
          "name": "unlockTime",
          "type": "uint256"
        }
      ],
      "name": "computeDPV",
      "outputs": [
        {
          "internalType": "uint256",
          "name": "pv",
          "type": "uint256"
        },
        {
          "internalType": "uint256",
          "name": "ltvBps",
          "type": "uint256"
        }
      ],
      "stateMutability": "view",
      "type": "function"
    },
    {
      "inputs": [],
      "name": "owner",
      "outputs": [
        {
          "internalType": "address",
          "name": "",
          "type": "address"
        }
      ],
      "stateMutability": "view",
      "type": "function"
    },
    {
      "inputs": [],
      "name": "priceFeed",
      "outputs": [
        {
          "internalType": "contract AggregatorV3Interface",
          "name": "",
          "type": "address"
        }
      ],
      "stateMutability": "view",
      "type": "function"
    },
    {
      "inputs": [],
      "name": "renounceOwnership",
      "outputs": [],
      "stateMutability": "nonpayable",
      "type": "function"
    },
    {
      "inputs": [],
      "name": "riskFreeRate",
      "outputs": [
        {
          "internalType": "uint256",
          "name": "",
          "type": "uint256"
        }
      ],
      "stateMutability": "view",
      "type": "function"
    },
    {
      "inputs": [
        {
          "internalType": "uint256",
          "name": "newRate",
          "type": "uint256"
        }
      ],
      "name": "setRiskFreeRate",
      "outputs": [],
      "stateMutability": "nonpayable",
      "type": "function"
    },
    {
      "inputs": [
        {
          "internalType": "uint256",
          "name": "newVol",
          "type": "uint256"
        }
      ],
      "name": "setVolatility",
      "outputs": [],
      "stateMutability": "nonpayable",
      "type": "function"
    },
    {
      "inputs": [
        {
          "internalType": "address",
          "name": "newOwner",
          "type": "address"
        }
      ],
      "name": "transferOwnership",
      "outputs": [],
      "stateMutability": "nonpayable",
      "type": "function"
    },
    {
      "inputs": [],
      "name": "volatility",
      "outputs": [
        {
          "internalType": "uint256",
          "name": "",
          "type": "uint256"
        }
      ],
      "stateMutability": "view",
      "type": "function"
    }
  ],
  "bytecode": "0x6080346100d057601f61181c38819003918201601f19168301916001600160401b038311848410176100d5578084926020946040528339810103126100d057516001600160a01b0390818116908190036100d05733156100b75760005460018060a01b0319903382821617600055604051933391167f8be0079c531659141344cd1fd0a4f28419497f9722a3daafe3b4186f6b6457e0600080a360056002556032600355600154161760015561173090816100ec8239f35b604051631e4fbdf760e01b815260006004820152602490fd5b600080fd5b634e487b7160e01b600052604160045260246000fdfe608060408181526004918236101561001657600080fd5b60009260e08435811c92836322e9d5bf146109c857508263715018a61461096e578263741bef1a146109445782638da5cb5b1461091b5782639fdcadc4146108ba578263bfd847a8146101f157508163cce99230146101d2578163e1a45218146101b5578163e1ea1cf514610154578163f2fde38b146100c1575063f3cc6993146100a057600080fd5b346100bd57816003193601126100bd576020906002549051908152f35b5080fd5b91905034610150576020366003190112610150576001600160a01b0382358181169391929084900361014c576100f56109e4565b831561013657505082546001600160a01b0319811683178455167f8be0079c531659141344cd1fd0a4f28419497f9722a3daafe3b4186f6b6457e08380a380f35b51631e4fbdf760e01b8152908101849052602490fd5b8480fd5b8280fd5b905034610150576020366003190112610150578035916101726109e4565b6014831161018257505060025580f35b906020606492519162461bcd60e51b8352820152600d60248201526c0e4c2e8ca40e8dede40d0d2ced609b1b6044820152fd5b5050346100bd57816003193601126100bd57602090516127108152f35b5050346100bd57816003193601126100bd576020906003549051908152f35b909150346108b65760603660031901126108b6578135916024916001600160a01b039183358381160361046957604435948015610887574286111561085257600180548851633fabe5a360e21b815291951660a0828581845afa9182156107cc578a92610804575b50898213156107d65790602084928a519384809263313ce56760e01b82525afa9182156107cc578a9261078f575b508083029283040361077d5760ff16604d811161077d57906102ac91600a0a90610a64565b9342860395861161076c57506001600160c01b039485811161067b576301e1338090871b045b6001600160801b039081811161048d5781169260016001607f1b0396878511610677576002805490929082811161058b576064908b1b045b8481116105395784168981116105395761032b90600f97880b90880b610add565b60016001607f1b0319979080880b89146105875761034c908d03880b610b05565b6003549096909384116104915750505060c89150881b045b81811161048d571685811161047757820b68010000000000000000038381121580610483575b1561047757820b9387851261047b575b677fffffffffffffff81116104775767e666666666666666916103c091881b840b610add565b820b02851d828112158061046d575b1561046957956103f59495966103ff6103fa8667ffffffffffffffff988994870b610a9f565b610add565b610a84565b1695710a8bfffffffffffffb500000000000000000881d93841215908161045e575b501561045b5750916103f56103fa9261043a940b610a9f565b16612710808211610453575b5082519182526020820152f35b905038610446565b80fd5b905083131538610421565b8680fd5b50848113156103cf565b8780fd5b87945061039a565b508581131561038a565b8880fd5b816104f99294939560c09285841c90819864010000000083101561057a575b506201000082101561056b575b61010082101561055c575b601082101561054f575b8290821015610544575b50101561053d575b60c760be1983011c019060ff0383901b610a64565b928484116105395760c88402918b1b908083831061052d575b506105255760c892500304905b01610364565b50509061051f565b60001901905038610512565b8b80fd5b01836104e4565b938401931c816104dc565b9384019390811c906104d2565b9390600890811c9101936104c8565b9390601090811c9101936104bd565b945086851c9150386104b0565b8c80fd5b60c081811c80918a87640100000000841015610667575b83620100006105ef95101561065b575b61010081101561064f575b8b6010821015610644575b8290821015610639575b501015610632575b606360be1983011c019060ff0384901b610a64565b918d87841161045b57908d1b91606484029181838510610626575b505061061d576064910304905b0161030a565b50508790610617565b6000190191503861060a565b018a6105da565b938401931c816105d2565b938401931c8b6105c8565b6008938401931c6105bd565b6010938401931c6105b2565b50505082841c9050838a876105a2565b8980fd5b60c081811c80918664010000000083101561075f575b600283620100006106e0951015610753575b610100811015610747575b87601082101561073c575b811015610731575b101561072a575b6301e1337f60be1983011c019060ff0384901b610a64565b916001600160801b038311610677576301e1338091838302918a1b908083831061071e575b50610714570304905b016102d2565b505050839061070e565b60001901905038610705565b01866106c8565b92810192811c6106c1565b938401931c876106b9565b6008938401931c6106ae565b6010938401931c6106a3565b50505081841c8486610691565b634e487b7160e01b88526011825287fd5b634e487b7160e01b8952601183528589fd5b9091506020813d82116107c4575b816107aa60209383610a10565b81010312610677575160ff81168103610677579038610287565b3d915061079d565b89513d8c823e3d90fd5b885162461bcd60e51b81526020818601526009818901526862616420707269636560b81b6044820152606490fd5b90915060a0813d821161084a575b8161081f60a09383610a10565b810103126106775761083081610a48565b50610842608060208301519201610a48565b509038610259565b3d9150610812565b865162461bcd60e51b81526020818401526010818701526f185b1c9958591e481d5b9b1bd8dad95960821b6044820152606490fd5b865162461bcd60e51b8152602081840152600a818701526907175616e746974793d360b41b6044820152606490fd5b8380fd5b50905034610150576020366003190112610150578035916108d96109e4565b606483116108e957505060035580f35b906020606492519162461bcd60e51b8352820152600c60248201526b0ecded840e8dede40d0d2ced60a31b6044820152fd5b505050346100bd57816003193601126100bd57905490516001600160a01b039091168152602090f35b505050346100bd57816003193601126100bd5760015490516001600160a01b039091168152602090f35b843461045b578060031936011261045b576109876109e4565b80546001600160a01b03198116825581906001600160a01b03167f8be0079c531659141344cd1fd0a4f28419497f9722a3daafe3b4186f6b6457e08280a380f35b8590346100bd57816003193601126100bd5780610bb860209252f35b6000546001600160a01b031633036109f857565b60405163118cdaa760e01b8152336004820152602490fd5b90601f8019910116810190811067ffffffffffffffff821117610a3257604052565b634e487b7160e01b600052604160045260246000fd5b519069ffffffffffffffffffff82168203610a5f57565b600080fd5b8115610a6e570490565b634e487b7160e01b600052601260045260246000fd5b600f0b60008112610a5f5760401d67ffffffffffffffff1690565b600f0b67f3333333333333330260401d60016001607f1b031981121580610acc575b15610a5f57600f0b90565b5060016001607f1b03811315610ac1565b90600f0b90600f0b0260401d60016001607f1b031981121580610acc5715610a5f57600f0b90565b600f0b600160461b811215610a5f57683fffffffffffffffff198112610b4a57700171547652b82fe1777d0ffda0d23a7d12610b47910260801d600f0b610b50565b90565b50600090565b600f81810b600160461b811215610a5f57683fffffffffffffffff1981126116f2576001607f1b90600093846780000000000000008216850b136116da575b846740000000000000008216850b136116bd575b846720000000000000008216850b136116a0575b846710000000000000008216850b13611683575b846708000000000000008216850b13611666575b846704000000000000008216850b13611649575b846702000000000000008216850b1361162c575b846701000000000000008216850b1361160f575b8466800000000000008216850b136115f2575b8466400000000000008216850b136115d5575b8466200000000000008216850b136115b8575b8466100000000000008216850b1361159b575b8466080000000000008216850b1361157e575b8466040000000000008216850b13611561575b8466020000000000008216850b13611544575b8466010000000000008216850b13611527575b84658000000000008216850b1361150a575b84654000000000008216850b136114ed575b84652000000000008216850b136114d0575b84651000000000008216850b136114b3575b84650800000000008216850b13611496575b84650400000000008216850b13611479575b84650200000000008216850b1361145c575b84650100000000008216850b1361143f575b846480000000008216850b13611422575b846440000000008216850b13611405575b846420000000008216850b136113e8575b846410000000008216850b136113cb575b846408000000008216850b136113ae575b846404000000008216850b13611391575b846402000000008216850b13611374575b846401000000008216850b13611357575b8463800000008216850b1361133a575b8463400000008216850b1361131d575b8463200000008216850b13611300575b8463100000008216850b136112e3575b8463080000008216850b136112c6575b8463040000008216850b136112a9575b8463020000008216850b1361128c575b8463010000008216850b1361126f575b84628000008216850b13611252575b84624000008216850b13611235575b84622000008216850b13611218575b84621000008216850b136111fb575b84620800008216850b136111de575b84620400008216850b136111c1575b84620200008216850b136111a4575b84620100008216850b13611187575b846180008216850b1361116a575b846140008216850b1361114d575b846120008216850b13611130575b846110008216850b13611113575b846108008216850b136110f6575b846104008216850b136110d9575b846102008216850b136110bc575b846101008216850b1361109f575b8460809181838216870b13611083575b8160408216870b13611067575b8160208216870b1361104b575b8160108216870b1361102f575b8160088216870b13611013575b8160048216870b13610ff7575b8160028216870b13610fda575b600116850b13610fbc575b5060401d820b603f03820b1c9160016001607f1b03831161045b57500b90565b909170010000000000000000b17217f7d1cf79ab02901c9038610f9c565b7001000000000000000162e42fefa39ef358909402821c93610f91565b9370010000000000000002c5c85fdf473de6b202821c93610f84565b93700100000000000000058b90bfbe8e7bcd6d02821c93610f77565b937001000000000000000b17217f7d1cf79afa02821c93610f6a565b93700100000000000000162e42fefa39ef366f02821c93610f5d565b937001000000000000002c5c85fdf473de6eca02821c93610f50565b9370010000000000000058b90bfbe8e7bce54402821c93610f43565b91700100000000000000b17217f7d1cf79e9490260801c91610f33565b9170010000000000000162e42fefa39ef44d910260801c91610f25565b91700100000000000002c5c85fdf473dea871f0260801c91610f17565b917001000000000000058b90bfbe8e7bdcbe2e0260801c91610f09565b9170010000000000000b17217f7d1cf7d83c1a0260801c91610efb565b917001000000000000162e42fefa39f02b772c0260801c91610eed565b9170010000000000002c5c85fdf473e242ea380260801c91610edf565b91700100000000000058b90bfbe8e7cc35c3f00260801c91610ed1565b917001000000000000b17217f7d1cfb72b45e10260801c91610ec3565b91700100000000000162e42fefa39fe95583c20260801c91610eb4565b917001000000000002c5c85fdf4741bea6e77e0260801c91610ea5565b9170010000000000058b90bfbe8e8b2d3d4ede0260801c91610e96565b91700100000000000b17217f7d1d351a389d400260801c91610e87565b9170010000000000162e42fefa3ae53369388c0260801c91610e78565b91700100000000002c5c85fdf477b662b269450260801c91610e69565b917001000000000058b90bfbe8f71cb4e4b33d0260801c91610e5a565b9170010000000000b17217f7d20cf927c8e94c0260801c91610e4b565b917001000000000162e42fefa494f1478fde050260801c91610e3b565b9170010000000002c5c85fdf4b15de6f17eb0d0260801c91610e2b565b91700100000000058b90bfbe9ddbac5e109cce0260801c91610e1b565b917001000000000b17217f7d5a7716bba4a9ae0260801c91610e0b565b91700100000000162e42fefb2fed257559bdaa0260801c91610dfb565b917001000000002c5c85fdf84bd62ae30a74cc0260801c91610deb565b9170010000000058b90bfbf8479bd5a81b51ad0260801c91610ddb565b91700100000000b17217f80f4ef5aadda455540260801c91610dcb565b9170010000000162e42ff0999ce3541b9fffcf0260801c91610dba565b91700100000002c5c85fe31f35a6a30da1be500260801c91610da9565b917001000000058b90bfcdee5acd3c1cedc8230260801c91610d98565b9170010000000b17217fba9c739aa5819f44f90260801c91610d87565b917001000000162e42fff037df38aa2b219f060260801c91610d76565b9170010000002c5c8601cc6b9e94213c72737a0260801c91610d65565b91700100000058b90c0b48c6be5df846c5b2ef0260801c91610d54565b917001000000b1721835514b86e6d96efd1bfe0260801c91610d43565b91700100000162e430e5a18f6119e3c02282a50260801c91610d31565b917001000002c5c863b73f016468f6bac5ca2b0260801c91610d1f565b9170010000058b90cf1e6d97f9ca14dbcc16280260801c91610d0d565b91700100000b1721bcfc99d9f890ea069117630260801c91610cfb565b9170010000162e43f4f831060e02d839a9d16d0260801c91610ce9565b91700100002c5c89d5ec6ca4d7c8acc017b7c90260801c91610cd7565b917001000058b91b5bc9ae2eed81e9b7d4cfab0260801c91610cc5565b9170010000b17255775c040618bf4a4ade83fc0260801c91610cb3565b917001000162e525ee054754457d59952920260260801c91610ca0565b9170010002c5cc37da9491d0985c348c68e7b30260801c91610c8d565b91700100058ba01fb9f96d6cacd4b180917c3d0260801c91610c7a565b917001000b175effdc76ba38e31671ca9397250260801c91610c67565b91700100162f3904051fa128bca9c55c31e5df0260801c91610c54565b917001002c605e2e8cec506d21bfc89a23a00f0260801c91610c41565b9170010058c86da1c09ea1ff19d294cf2f679b0260801c91610c2e565b91700100b1afa5abcbed6129ab13ec11dc95430260801c91610c1b565b9170010163da9fb33356d84a66ae336dcdfa3f0260801c91610c07565b91700102c9a3e778060ee6f7caca4f7a29bde80260801c91610bf3565b917001059b0d31585743ae7c548eb68ca417fd0260801c91610bdf565b9170010b5586cf9890f6298b92b71842a983630260801c91610bcb565b917001172b83c7d517adcdf7c8c50eb14a791f0260801c91610bb7565b917001306fe0a31b7152de8d5a46305c85edec0260801c91610ba3565b6fb504f333f9de6484597d89b3754abe9f9250610b8f565b50505060009056fea2646970667358221220032e1536148929ab6474b856f4f170e0130e9992eb1d14dbd63e08206c91894464736f6c63430008140033",
  "linkReferences": {},
  "deployedLinkReferences": {}
}