{
  "_format": "hh-sol-artifact-1",
  "contractName": "VestingAdapter",
  "sourceName": "contracts/VestingAdapter.sol",
  "abi": [
    {
      "inputs": [],
      "stateMutability": "nonpayable",
      "type": "constructor"
    },
    {
      "inputs": [
        {
          "internalType": "address",
          "name": "owner",
          "type": "address"
        }
      ],
      "name": "OwnableInvalidOwner",
      "type": "error"
    },
    {
      "inputs": [
        {
          "internalType": "address",
          "name": "account",
          "type": "address"
        }
      ],
      "name": "OwnableUnauthorizedAccount",
      "type": "error"
    },
    {
      "anonymous": false,
      "inputs": [
        {
          "indexed": true,
          "internalType": "address",
          "name": "previousOwner",
          "type": "address"
        },
        {
          "indexed": true,
          "internalType": "address",
          "name": "newOwner",
          "type": "address"
        }
      ],
      "name": "OwnershipTransferred",
      "type": "event"
    },
    {
      "inputs": [
        {
          "internalType": "address",
          "name": "",
          "type": "address"
        }
      ],
      "name": "authorizedCallers",
      "outputs": [
        {
          "internalType": "bool",
          "name": "",
          "type": "bool"
        }
      ],
      "stateMutability": "view",
      "type": "function"
    },
    {
      "inputs": [
        {
          "internalType": "uint256",
          "name": "",
          "type": "uint256"
        }
      ],
      "name": "collaterals",
      "outputs": [
        {
          "internalType": "address",
          "name": "vestingContract",
          "type": "address"
        },
        {
          "internalType": "address",
          "name": "token",
          "type": "address"
        },
        {
          "internalType": "uint256",
          "name": "totalAmount",
          "type": "uint256"
        },
        {
          "internalType": "uint256",
          "name": "unlockTime",
          "type": "uint256"
        }
      ],
      "stateMutability": "view",
      "type": "function"
    },
    {
      "inputs": [
        {
          "internalType": "uint256",
          "name": "collateralId",
          "type": "uint256"
        },
        {
          "internalType": "address",
          "name": "vestingContract",
          "type": "address"
        },
        {
          "internalType": "address",
          "name": "borrower",
          "type": "address"
        }
      ],
      "name": "escrow",
      "outputs": [],
      "stateMutability": "nonpayable",
      "type": "function"
    },
    {
      "inputs": [
        {
          "internalType": "uint256",
          "name": "collateralId",
          "type": "uint256"
        }
      ],
      "name": "getDetails",
      "outputs": [
        {
          "internalType": "uint256",
          "name": "quantity",
          "type": "uint256"
        },
        {
          "internalType": "address",
          "name": "token",
          "type": "address"
        },
        {
          "internalType": "uint256",
          "name": "unlockTime",
          "type": "uint256"
        }
      ],
      "stateMutability": "view",
      "type": "function"
    },
    {
      "inputs": [],
      "name": "loanManager",
      "outputs": [
        {
          "internalType": "address",
          "name": "",
          "type": "address"
        }
      ],
      "stateMutability": "view",
      "type": "function"
    },
    {
      "inputs": [
        {
          "internalType": "address",
          "name": "",
          "type": "address"
        },
        {
          "internalType": "address",
          "name": "",
          "type": "address"
        },
        {
          "internalType": "uint256",
          "name": "",
          "type": "uint256"
        },
        {
          "internalType": "bytes",
          "name": "",
          "type": "bytes"
        }
      ],
      "name": "onERC721Received",
      "outputs": [
        {
          "internalType": "bytes4",
          "name": "",
          "type": "bytes4"
        }
      ],
      "stateMutability": "pure",
      "type": "function"
    },
    {
      "inputs": [],
      "name": "owner",
      "outputs": [
        {
          "internalType": "address",
          "name": "",
          "type": "address"
        }
      ],
      "stateMutability": "view",
      "type": "function"
    },
    {
      "inputs": [
        {
          "internalType": "uint256",
          "name": "collateralId",
          "type": "uint256"
        },
        {
          "internalType": "address",
          "name": "to",
          "type": "address"
        },
        {
          "internalType": "uint256",
          "name": "amount",
          "type": "uint256"
        }
      ],
      "name": "releaseTo",
      "outputs": [],
      "stateMutability": "nonpayable",
      "type": "function"
    },
    {
      "inputs": [],
      "name": "renounceOwnership",
      "outputs": [],
      "stateMutability": "nonpayable",
      "type": "function"
    },
    {
      "inputs": [
        {
          "internalType": "address",
          "name": "caller",
          "type": "address"
        },
        {
          "internalType": "bool",
          "name": "allowed",
          "type": "bool"
        }
      ],
      "name": "setAuthorizedCaller",
      "outputs": [],
      "stateMutability": "nonpayable",
      "type": "function"
    },
    {
      "inputs": [
        {
          "internalType": "address",
          "name": "manager",
          "type": "address"
        }
      ],
      "name": "setLoanManager",
      "outputs": [],
      "stateMutability": "nonpayable",
      "type": "function"
    },
    {
      "inputs": [
        {
          "internalType": "address",
          "name": "newOwner",
          "type": "address"
        }
      ],
      "name": "transferOwnership",
      "outputs": [],
      "stateMutability": "nonpayable",
      "type": "function"
    },
    {
      "inputs": [
        {
          "internalType": "uint256",
          "name": "",
          "type": "uint256"
        }
      ],
      "name": "vestingContracts",
      "outputs": [
        {
          "internalType": "address",
          "name": "",
          "type": "address"
        }
      ],
      "stateMutability": "view",
      "type": "function"
    }
  ],
  "bytecode": "0x6080806040523461007a5733156100645760008054336001600160a01b03198216811783556040519290916001600160a01b0316907f8be0079c531659141344cd1fd0a4f28419497f9722a3daafe3b4186f6b6457e09080a3610d0890816100808239f35b631e4fbdf760e01b815260006004820152602490fd5b600080fdfe6080604081815260048036101561001557600080fd5b600092833560e01c908163150b7a0214610b1b5750806324c1173b14610ac75780632a7d7bc514610919578063454bbd291461088c578063536fff6c1461084e5780635772ae70146107d557806358281bf3146107a4578063715018a6146107475780638da5cb5b1461071f578063b3ccbcfe146106f6578063b93a89f7146105aa578063f2b42e12146101405763f2fde38b146100b257600080fd5b3461013c57602036600319011261013c576100cb610b89565b906100d4610bb5565b6001600160a01b03918216928315610126575050600054826001600160601b0360a01b821617600055167f8be0079c531659141344cd1fd0a4f28419497f9722a3daafe3b4186f6b6457e0600080a380f35b51631e4fbdf760e01b8152908101849052602490fd5b8280fd5b50903461013c57606036600319011261013c5781359061015e610b9f565b6001600160a01b03936044803586811695929392919086900361035557851561057b57853314801561056e575b8015610559575b61019b90610be1565b823b15610526578188526020926003845287868a2054166104fa5787169585516338af3eed60e01b8152848187818b5afa9081156103c4579089918b916104dd575b5016036104aa57845163be9a655560e01b815290838286818a5afa9182156104a0578992610471575b5085516303ed69ad60e21b8152848187818b5afa9081156103c4578a91610444575b50801561041557820180921161040257428211156103ce578551637e062a3560e11b8152848187818b5afa9081156103c4579089918b91610397575b5016801561036b578651631e480f7160e21b815291858388818c5afa928315610361578b9361032d575b508215610302575090600392918751946102a786610c1e565b898652868601918252888601928352606086019384528b5283865289888c20955116996001600160601b0360a01b9a8b875416178655600186019151168a825416179055516002840155519101555283209182541617905580f35b86660746f74616c3d360cc1b606492888b519362461bcd60e51b855284015260076024840152820152fd5b9092508581813d831161035a575b6103458183610c50565b810103126103555751913861028e565b600080fd5b503d61033b565b88513d8d823e3d90fd5b865162461bcd60e51b815280870186905260076024820152660746f6b656e3d360cc1b81840152606490fd5b6103b79150863d88116103bd575b6103af8183610c50565b810190610c72565b38610264565b503d6103a5565b87513d8c823e3d90fd5b846f185b1c9958591e481d5b9b1bd8dad95960821b6064928689519362461bcd60e51b855284015260106024840152820152fd5b634e487b7160e01b895260118552602489fd5b865162461bcd60e51b8152808701869052600a60248201526906475726174696f6e3d360b41b81840152606490fd5b90508481813d831161046a575b61045b8183610c50565b81010312610355575138610228565b503d610451565b9091508381813d8311610499575b6104898183610c50565b8101031261035557519038610206565b503d61047f565b86513d8b823e3d90fd5b90506e6e6f742062656e656669636961727960881b91606494519362461bcd60e51b8552840152600f6024840152820152fd5b6104f49150863d88116103bd576103af8183610c50565b386101dd565b855162461bcd60e51b815280860185905260076024820152661a59081d5cd95960ca1b81840152606490fd5b836d1b9bdd08184818dbdb9d1c9858dd60921b606492602088519362461bcd60e51b8552840152600e6024840152820152fd5b5033885260026020528488205460ff16610192565b508660015416331461018b565b83690626f72726f7765723d360b41b606492602088519362461bcd60e51b8552840152600a6024840152820152fd5b509190346106f2576020908160031936011261013c5783358352600382528083209281516105d781610c1e565b60018060a01b03908186541692838252828060018901541692878101938452610618600360028b01549a8984019b8c52015496606083019788521515610c91565b511696868484511660248b89519b8c938492632614965760e21b84528301525afa9788156106e85782986106b9575b5087815110610685575196870396871161067257506060965051169051928251948552840152820152f35b634e487b7160e01b815260118852602490fd5b855162461bcd60e51b8152808a01889052600e60248201526d1c995b19585cd9590f9d1bdd185b60921b6044820152606490fd5b9097508681813d83116106e1575b6106d18183610c50565b8101031261035557519638610647565b503d6106c7565b86513d84823e3d90fd5b5080fd5b5050346106f257816003193601126106f25760015490516001600160a01b039091168152602090f35b5050346106f257816003193601126106f257905490516001600160a01b039091168152602090f35b83346107a157806003193601126107a157610760610bb5565b600080546001600160a01b0319811682556001600160a01b03167f8be0079c531659141344cd1fd0a4f28419497f9722a3daafe3b4186f6b6457e08280a380f35b80fd5b503461013c57602036600319011261013c57803583526020908152918190205490516001600160a01b039091168152f35b503461013c57602036600319011261013c576107ef610b89565b6107f7610bb5565b6001600160a01b031691821561081f5750506001600160601b0360a01b600154161760015580f35b906020606492519162461bcd60e51b8352820152600960248201526806d616e616765723d360bc1b6044820152fd5b5050346106f25760203660031901126106f25760209160ff9082906001600160a01b03610879610b89565b1681526002855220541690519015158152f35b50903461013c578060031936011261013c576108a6610b89565b9160243592831515809403610915576108bd610bb5565b6001600160a01b03169081156108e757508352600260205282209060ff8019835416911617905580f35b606490602084519162461bcd60e51b83528201526008602482015267063616c6c65723d360c41b6044820152fd5b8480fd5b50903461013c57606036600319011261013c57610934610b9f565b9160443560018060a01b038094816001541633148015610ab2575b61095890610be1565b16938415610a885782358652600360205283862084519061097882610c1e565b6109ab60038483541692838552856001820154166020860152600281015489860152015491606084019283521515610c91565b514210610a56578215610a2857511693859190853b1561013c576044908386519788948593634e06bad160e01b85528885015260248401525af18015610a1e576109f3578380f35b67ffffffffffffffff8311610a0b5750523880808380f35b634e487b7160e01b845260419052602483fd5b82513d86823e3d90fd5b845162461bcd60e51b815260208186015260086024820152670616d6f756e743d360c41b6044820152606490fd5b845162461bcd60e51b8152602081860152600c60248201526b1b9bdd081d5b9b1bd8dad95960a21b6044820152606490fd5b835162461bcd60e51b815260208185015260248101849052630746f3d360e41b6044820152606490fd5b5033875260026020528487205460ff1661094f565b503461013c57602036600319011261013c5760809282913581526003602052209060018060a01b03918281541692600182015416916003600283015492015492815194855260208501528301526060820152f35b9250503461013c57608036600319011261013c57610b37610b89565b50610b40610b9f565b506064359067ffffffffffffffff90818311610915573660238401121561091557820135908111610b8557369101602401116106f257630a85bd0160e11b8152602090f35b8380fd5b600435906001600160a01b038216820361035557565b602435906001600160a01b038216820361035557565b6000546001600160a01b03163303610bc957565b60405163118cdaa760e01b8152336004820152602490fd5b15610be857565b60405162461bcd60e51b815260206004820152600e60248201526d1b9bdd08185d5d1a1bdc9a5e995960921b6044820152606490fd5b6080810190811067ffffffffffffffff821117610c3a57604052565b634e487b7160e01b600052604160045260246000fd5b90601f8019910116810190811067ffffffffffffffff821117610c3a57604052565b9081602091031261035557516001600160a01b03811681036103555790565b15610c9857565b60405162461bcd60e51b81526020600482015260126024820152711d5b9adb9bdddb8818dbdb1b185d195c985b60721b6044820152606490fdfea2646970667358221220223be6b6b634b0f6fa2bd3c42e0bdadc5a8060e9eeb4b2404d32818803de097464736f6c63430008140033",
  "linkReferences": {},
  "deployedLinkReferences": {}
}