{
  "_format": "hh-sol-artifact-1",
  "contractName": "LoanManager",
  "sourceName": "contracts/LoanManager.sol",
  "abi": [
    {
      "inputs": [
        {
          "internalType": "address",
          "name": "_valuation",
          "type": "address"
        },
        {
          "internalType": "address",
          "name": "_adapter",
          "type": "address"
        },
        {
          "internalType": "address",
          "name": "_pool",
          "type": "address"
        },
        {
          "internalType": "address",
          "name": "_identityVerifier",
          "type": "address"
        },
        {
          "internalType": "uint256",
          "name": "_identityBoostBps",
          "type": "uint256"
        },
        {
          "internalType": "address",
          "name": "_uniswapRouter",
          "type": "address"
        },
        {
          "internalType": "uint24",
          "name": "_poolFee",
          "type": "uint24"
        },
        {
          "internalType": "uint256",
          "name": "_slippageBps",
          "type": "uint256"
        }
      ],
      "stateMutability": "nonpayable",
      "type": "constructor"
    },
    {
      "inputs": [],
      "name": "EnforcedPause",
      "type": "error"
    },
    {
      "inputs": [],
      "name": "ExpectedPause",
      "type": "error"
    },
    {
      "inputs": [
        {
          "internalType": "address",
          "name": "owner",
          "type": "address"
        }
      ],
      "name": "OwnableInvalidOwner",
      "type": "error"
    },
    {
      "inputs": [
        {
          "internalType": "address",
          "name": "account",
          "type": "address"
        }
      ],
      "name": "OwnableUnauthorizedAccount",
      "type": "error"
    },
    {
      "inputs": [],
      "name": "ReentrancyGuardReentrantCall",
      "type": "error"
    },
    {
      "anonymous": false,
      "inputs": [
        {
          "indexed": true,
          "internalType": "uint256",
          "name": "loanId",
          "type": "uint256"
        },
        {
          "indexed": true,
          "internalType": "address",
          "name": "token",
          "type": "address"
        },
        {
          "indexed": false,
          "internalType": "uint256",
          "name": "seizedAmount",
          "type": "uint256"
        },
        {
          "indexed": false,
          "internalType": "uint256",
          "name": "usdcReceived",
          "type": "uint256"
        }
      ],
      "name": "CollateralLiquidated",
      "type": "event"
    },
    {
      "anonymous": false,
      "inputs": [
        {
          "indexed": false,
          "internalType": "address",
          "name": "verifier",
          "type": "address"
        },
        {
          "indexed": false,
          "internalType": "uint256",
          "name": "boostBps",
          "type": "uint256"
        }
      ],
      "name": "IdentityConfigUpdated",
      "type": "event"
    },
    {
      "anonymous": false,
      "inputs": [
        {
          "indexed": true,
          "internalType": "address",
          "name": "borrower",
          "type": "address"
        },
        {
          "indexed": false,
          "internalType": "uint256",
          "name": "boostBps",
          "type": "uint256"
        }
      ],
      "name": "IdentityLinked",
      "type": "event"
    },
    {
      "anonymous": false,
      "inputs": [
        {
          "indexed": false,
          "internalType": "address",
          "name": "router",
          "type": "address"
        },
        {
          "indexed": false,
          "internalType": "uint24",
          "name": "poolFee",
          "type": "uint24"
        },
        {
          "indexed": false,
          "internalType": "uint256",
          "name": "slippageBps",
          "type": "uint256"
        }
      ],
      "name": "LiquidationConfigUpdated",
      "type": "event"
    },
    {
      "anonymous": false,
      "inputs": [
        {
          "indexed": true,
          "internalType": "uint256",
          "name": "loanId",
          "type": "uint256"
        },
        {
          "indexed": true,
          "internalType": "address",
          "name": "borrower",
          "type": "address"
        },
        {
          "indexed": false,
          "internalType": "uint256",
          "name": "amount",
          "type": "uint256"
        }
      ],
      "name": "LoanCreated",
      "type": "event"
    },
    {
      "anonymous": false,
      "inputs": [
        {
          "indexed": true,
          "internalType": "uint256",
          "name": "loanId",
          "type": "uint256"
        },
        {
          "indexed": false,
          "internalType": "uint256",
          "name": "amount",
          "type": "uint256"
        }
      ],
      "name": "LoanRepaid",
      "type": "event"
    },
    {
      "anonymous": false,
      "inputs": [
        {
          "indexed": true,
          "internalType": "uint256",
          "name": "loanId",
          "type": "uint256"
        },
        {
          "indexed": true,
          "internalType": "address",
          "name": "tokenIn",
          "type": "address"
        },
        {
          "indexed": false,
          "internalType": "uint256",
          "name": "amountIn",
          "type": "uint256"
        },
        {
          "indexed": false,
          "internalType": "uint256",
          "name": "usdcReceived",
          "type": "uint256"
        }
      ],
      "name": "LoanRepaidWithSwap",
      "type": "event"
    },
    {
      "anonymous": false,
      "inputs": [
        {
          "indexed": true,
          "internalType": "uint256",
          "name": "loanId",
          "type": "uint256"
        },
        {
          "indexed": false,
          "internalType": "bool",
          "name": "defaulted",
          "type": "bool"
        }
      ],
      "name": "LoanSettled",
      "type": "event"
    },
    {
      "anonymous": false,
      "inputs": [
        {
          "indexed": true,
          "internalType": "address",
          "name": "previousOwner",
          "type": "address"
        },
        {
          "indexed": true,
          "internalType": "address",
          "name": "newOwner",
          "type": "address"
        }
      ],
      "name": "OwnershipTransferred",
      "type": "event"
    },
    {
      "anonymous": false,
      "inputs": [
        {
          "indexed": false,
          "internalType": "address",
          "name": "account",
          "type": "address"
        }
      ],
      "name": "Paused",
      "type": "event"
    },
    {
      "anonymous": false,
      "inputs": [
        {
          "indexed": false,
          "internalType": "address[]",
          "name": "tokens",
          "type": "address[]"
        }
      ],
      "name": "RepayTokenPriorityUpdated",
      "type": "event"
    },
    {
      "anonymous": false,
      "inputs": [
        {
          "indexed": false,
          "internalType": "address",
          "name": "issuanceTreasury",
          "type": "address"
        },
        {
          "indexed": false,
          "internalType": "address",
          "name": "returnsTreasury",
          "type": "address"
        }
      ],
      "name": "TreasuryConfigUpdated",
      "type": "event"
    },
    {
      "anonymous": false,
      "inputs": [
        {
          "indexed": false,
          "internalType": "address",
          "name": "account",
          "type": "address"
        }
      ],
      "name": "Unpaused",
      "type": "event"
    },
    {
      "inputs": [],
      "name": "BPS_DENOMINATOR",
      "outputs": [
        {
          "internalType": "uint256",
          "name": "",
          "type": "uint256"
        }
      ],
      "stateMutability": "view",
      "type": "function"
    },
    {
      "inputs": [],
      "name": "adapter",
      "outputs": [
        {
          "internalType": "contract VestingAdapter",
          "name": "",
          "type": "address"
        }
      ],
      "stateMutability": "view",
      "type": "function"
    },
    {
      "inputs": [
        {
          "internalType": "uint256",
          "name": "collateralId",
          "type": "uint256"
        },
        {
          "internalType": "address",
          "name": "vestingContract",
          "type": "address"
        },
        {
          "internalType": "uint256",
          "name": "borrowAmount",
          "type": "uint256"
        }
      ],
      "name": "createLoan",
      "outputs": [],
      "stateMutability": "nonpayable",
      "type": "function"
    },
    {
      "inputs": [],
      "name": "getRepayTokenPriority",
      "outputs": [
        {
          "internalType": "address[]",
          "name": "",
          "type": "address[]"
        }
      ],
      "stateMutability": "view",
      "type": "function"
    },
    {
      "inputs": [],
      "name": "identityBoostBps",
      "outputs": [
        {
          "internalType": "uint256",
          "name": "",
          "type": "uint256"
        }
      ],
      "stateMutability": "view",
      "type": "function"
    },
    {
      "inputs": [
        {
          "internalType": "address",
          "name": "",
          "type": "address"
        }
      ],
      "name": "identityLinked",
      "outputs": [
        {
          "internalType": "bool",
          "name": "",
          "type": "bool"
        }
      ],
      "stateMutability": "view",
      "type": "function"
    },
    {
      "inputs": [],
      "name": "identityVerifier",
      "outputs": [
        {
          "internalType": "address",
          "name": "",
          "type": "address"
        }
      ],
      "stateMutability": "view",
      "type": "function"
    },
    {
      "inputs": [],
      "name": "issuanceTreasury",
      "outputs": [
        {
          "internalType": "address",
          "name": "",
          "type": "address"
        }
      ],
      "stateMutability": "view",
      "type": "function"
    },
    {
      "inputs": [
        {
          "internalType": "bytes",
          "name": "proof",
          "type": "bytes"
        }
      ],
      "name": "linkIdentity",
      "outputs": [
        {
          "internalType": "bool",
          "name": "",
          "type": "bool"
        }
      ],
      "stateMutability": "nonpayable",
      "type": "function"
    },
    {
      "inputs": [],
      "name": "liquidationSlippageBps",
      "outputs": [
        {
          "internalType": "uint256",
          "name": "",
          "type": "uint256"
        }
      ],
      "stateMutability": "view",
      "type": "function"
    },
    {
      "inputs": [],
      "name": "loanCount",
      "outputs": [
        {
          "internalType": "uint256",
          "name": "",
          "type": "uint256"
        }
      ],
      "stateMutability": "view",
      "type": "function"
    },
    {
      "inputs": [
        {
          "internalType": "uint256",
          "name": "",
          "type": "uint256"
        }
      ],
      "name": "loans",
      "outputs": [
        {
          "internalType": "address",
          "name": "borrower",
          "type": "address"
        },
        {
          "internalType": "uint256",
          "name": "principal",
          "type": "uint256"
        },
        {
          "internalType": "uint256",
          "name": "interest",
          "type": "uint256"
        },
        {
          "internalType": "uint256",
          "name": "collateralId",
          "type": "uint256"
        },
        {
          "internalType": "uint256",
          "name": "unlockTime",
          "type": "uint256"
        },
        {
          "internalType": "bool",
          "name": "active",
          "type": "bool"
        }
      ],
      "stateMutability": "view",
      "type": "function"
    },
    {
      "inputs": [],
      "name": "owner",
      "outputs": [
        {
          "internalType": "address",
          "name": "",
          "type": "address"
        }
      ],
      "stateMutability": "view",
      "type": "function"
    },
    {
      "inputs": [],
      "name": "pause",
      "outputs": [],
      "stateMutability": "nonpayable",
      "type": "function"
    },
    {
      "inputs": [],
      "name": "paused",
      "outputs": [
        {
          "internalType": "bool",
          "name": "",
          "type": "bool"
        }
      ],
      "stateMutability": "view",
      "type": "function"
    },
    {
      "inputs": [],
      "name": "pool",
      "outputs": [
        {
          "internalType": "contract LendingPool",
          "name": "",
          "type": "address"
        }
      ],
      "stateMutability": "view",
      "type": "function"
    },
    {
      "inputs": [],
      "name": "poolFee",
      "outputs": [
        {
          "internalType": "uint24",
          "name": "",
          "type": "uint24"
        }
      ],
      "stateMutability": "view",
      "type": "function"
    },
    {
      "inputs": [],
      "name": "renounceOwnership",
      "outputs": [],
      "stateMutability": "nonpayable",
      "type": "function"
    },
    {
      "inputs": [
        {
          "internalType": "uint256",
          "name": "loanId",
          "type": "uint256"
        },
        {
          "internalType": "uint256",
          "name": "amount",
          "type": "uint256"
        }
      ],
      "name": "repayLoan",
      "outputs": [],
      "stateMutability": "nonpayable",
      "type": "function"
    },
    {
      "inputs": [
        {
          "internalType": "address",
          "name": "",
          "type": "address"
        }
      ],
      "name": "repayTokenPriority",
      "outputs": [
        {
          "internalType": "uint256",
          "name": "",
          "type": "uint256"
        }
      ],
      "stateMutability": "view",
      "type": "function"
    },
    {
      "inputs": [
        {
          "internalType": "uint256",
          "name": "",
          "type": "uint256"
        }
      ],
      "name": "repayTokens",
      "outputs": [
        {
          "internalType": "address",
          "name": "",
          "type": "address"
        }
      ],
      "stateMutability": "view",
      "type": "function"
    },
    {
      "inputs": [
        {
          "internalType": "uint256",
          "name": "loanId",
          "type": "uint256"
        },
        {
          "internalType": "address",
          "name": "tokenIn",
          "type": "address"
        },
        {
          "internalType": "uint256",
          "name": "amountIn",
          "type": "uint256"
        },
        {
          "internalType": "uint256",
          "name": "minUsdcOut",
          "type": "uint256"
        }
      ],
      "name": "repayWithSwap",
      "outputs": [],
      "stateMutability": "nonpayable",
      "type": "function"
    },
    {
      "inputs": [
        {
          "internalType": "uint256",
          "name": "loanId",
          "type": "uint256"
        },
        {
          "internalType": "address[]",
          "name": "tokens",
          "type": "address[]"
        },
        {
          "internalType": "uint256[]",
          "name": "amounts",
          "type": "uint256[]"
        },
        {
          "internalType": "uint256[]",
          "name": "minUsdcOut",
          "type": "uint256[]"
        }
      ],
      "name": "repayWithSwapBatch",
      "outputs": [],
      "stateMutability": "nonpayable",
      "type": "function"
    },
    {
      "inputs": [],
      "name": "returnsTreasury",
      "outputs": [
        {
          "internalType": "address",
          "name": "",
          "type": "address"
        }
      ],
      "stateMutability": "view",
      "type": "function"
    },
    {
      "inputs": [
        {
          "internalType": "address",
          "name": "verifier",
          "type": "address"
        },
        {
          "internalType": "uint256",
          "name": "boostBps",
          "type": "uint256"
        }
      ],
      "name": "setIdentityConfig",
      "outputs": [],
      "stateMutability": "nonpayable",
      "type": "function"
    },
    {
      "inputs": [
        {
          "internalType": "address",
          "name": "router",
          "type": "address"
        },
        {
          "internalType": "uint24",
          "name": "newPoolFee",
          "type": "uint24"
        },
        {
          "internalType": "uint256",
          "name": "slippageBps",
          "type": "uint256"
        }
      ],
      "name": "setLiquidationConfig",
      "outputs": [],
      "stateMutability": "nonpayable",
      "type": "function"
    },
    {
      "inputs": [
        {
          "internalType": "address[]",
          "name": "tokens",
          "type": "address[]"
        }
      ],
      "name": "setRepayTokenPriority",
      "outputs": [],
      "stateMutability": "nonpayable",
      "type": "function"
    },
    {
      "inputs": [
        {
          "internalType": "address",
          "name": "issuance",
          "type": "address"
        },
        {
          "internalType": "address",
          "name": "returnsAddr",
          "type": "address"
        }
      ],
      "name": "setTreasuries",
      "outputs": [],
      "stateMutability": "nonpayable",
      "type": "function"
    },
    {
      "inputs": [
        {
          "internalType": "uint256",
          "name": "loanId",
          "type": "uint256"
        }
      ],
      "name": "settleAtUnlock",
      "outputs": [],
      "stateMutability": "nonpayable",
      "type": "function"
    },
    {
      "inputs": [
        {
          "internalType": "address",
          "name": "newOwner",
          "type": "address"
        }
      ],
      "name": "transferOwnership",
      "outputs": [],
      "stateMutability": "nonpayable",
      "type": "function"
    },
    {
      "inputs": [],
      "name": "uniswapRouter",
      "outputs": [
        {
          "internalType": "contract ISwapRouter",
          "name": "",
          "type": "address"
        }
      ],
      "stateMutability": "view",
      "type": "function"
    },
    {
      "inputs": [],
      "name": "unpause",
      "outputs": [],
      "stateMutability": "nonpayable",
      "type": "function"
    },
    {
      "inputs": [],
      "name": "usdc",
      "outputs": [
        {
          "internalType": "contract IERC20",
          "name": "",
          "type": "address"
        }
      ],
      "stateMutability": "view",
      "type": "function"
    },
    {
      "inputs": [],
      "name": "valuation",
      "outputs": [
        {
          "internalType": "contract ValuationEngine",
          "name": "",
          "type": "address"
        }
      ],
      "stateMutability": "view",
      "type": "function"
    }
  ],
  "bytecode": "0x60806040818152346200021857610100826200313b80380380916200002582856200021d565b83398101031262000218576200003b8262000257565b916200004a6020820162000257565b926200005883830162000257565b93620000676060840162000257565b916080840151956200007c60a0860162000257565b9060c08601519562ffffff87168703620002185760e001519433156200020057976004602092899a600097889687549560018060a01b0319809e33828a16178b55519a8b98899760018060a01b039e8f97888095819582947f8be0079c531659141344cd1fd0a4f28419497f9722a3daafe3b4186f6b6457e0843393169180a3600180551686600254161760025516846003541617600355169586838a541617895516906005541617600555600655168b60075416176007556008549962ffffff60a01b9060a01b16988962ffffff60a01b198c1617600855600955631f209df760e11b82525afa918215620001f4578192620001a8575b5050169160018060b81b03191617176008553381600a541617600a553390600b541617600b5551612ece90816200026d8239f35b9091506020813d8211620001eb575b81620001c6602093836200021d565b81010312620001e75751908282168203620001e45750388062000174565b80fd5b5080fd5b3d9150620001b7565b508651903d90823e3d90fd5b8751631e4fbdf760e01b815260006004820152602490fd5b600080fd5b601f909101601f19168101906001600160401b038211908210176200024157604052565b634e487b7160e01b600052604160045260246000fd5b51906001600160a01b0382168203620002185756fe60a080604052600436101561001357600080fd5b600090813560e01c90816303eadcfc146120d057508063089fe6aa146120aa5780630bf7187d14611f095780630f161dce14611a0c5780631352f187146119e357806316f0115b146119ba5780631b15cee6146115be578063202ae7171461158557806321a7cfe41461155c5780633e413bee146115335780633f4ba83a146114c25780634651e789146114055780634d158c641461130d5780635bb49626146112ef5780635c975abb146112ca578063715018a614611270578063735de9f7146112475780638456cb59146111e65780638a700b53146110d05780638da5cb5b146110a95780639ffb86061461108b578063ac1d926314610e85578063af048b6f14610ab9578063b123cb7414610576578063be5edb821461054d578063c8394b1d14610440578063ce63094d14610422578063dfd572a0146103f9578063e1a45218146103dc578063e1ddb96414610316578063e1ec3c68146102a7578063e640b81414610268578063ecf4911f146102245763f2fde38b1461019757600080fd5b34610221576020366003190112610221576101b061213c565b6101b861219f565b6001600160a01b0390811690811561020857600054826001600160601b0360a01b821617600055167f8be0079c531659141344cd1fd0a4f28419497f9722a3daafe3b4186f6b6457e0600080a380f35b604051631e4fbdf760e01b815260048101849052602490fd5b80fd5b5034610221576020366003190112610221576004359060105482101561022157602061024f83612152565b905460405160039290921b1c6001600160a01b03168152f35b50346102215760203660031901126102215760209060ff906040906001600160a01b0361029361213c565b168152600e84522054166040519015158152f35b503461022157602036600319011261022157604060c0916004358152600c6020522060018060a01b0381541690600181015490600281015460038201549060ff6005600485015494015416936040519586526020860152604085015260608401526080830152151560a0820152f35b503461022157806003193601126102215760405180916010549081835260208093018092601083527f1b6847dc741a1b0cd08d278845f9d819d87b734759afb55fe2de5cb82a9ae67290835b8181106103bf5750505084610378910385612233565b60405193838594850191818652518092526040850193925b82811061039f57505050500390f35b83516001600160a01b031685528695509381019392810192600101610390565b82546001600160a01b031684529286019260019283019201610362565b503461022157806003193601126102215760206040516127108152f35b50346102215780600319360112610221576005546040516001600160a01b039091168152602090f35b50346102215780600319360112610221576020600d54604051908152f35b50346102215760603660031901126102215761045a61213c565b60243562ffffff811691828203610549576044359061047761219f565b6001600160a01b03169061048c8215156121cb565b8015158061053d575b15610509577f8b5c8d8f89d3a1faecb05d234f488196bd0a31cbd4f482bf686b2581b1e4dbe493606093836001600160601b0360a01b60075416176007556008549062ffffff60a01b9060a01b169062ffffff60a01b1916176008558160095560405192835260208301526040820152a180f35b60405162461bcd60e51b815260206004820152600c60248201526b62616420736c69707061676560a01b6044820152606490fd5b50612710811115610495565b8380fd5b5034610221578060031936011261022157600a546040516001600160a01b039091168152602090f35b50346102215760203660031901126102215760043561059361226d565b61059b61228e565b808252600c602052604082206105b760ff60058301541661234c565b60048101544210610a85576001810190836105d88354600284015490612316565b600380549084015460405163b93a89f760e01b81526004810182905292949290916001600160a01b0316606082602481845afa8015610a7a5785928691610a45575b50600b546001600160a01b031680610a3f57506004546001600160a01b0316935b876107215750505080610695575b505090600260209392827f2b8a84e623a466252d40df763a21d8d87755b1c874a96449b31b8ce3b5bbe7d7965b60058301805460ff191690555501556040519015158152a26001805580f35b600380549084015491906001600160a01b0316803b1561071d57604051632a7d7bc560e01b815260048101939093526001600160a01b0393909316602483015260448201529083908290606490829084905af18015610712576106f9575b80610649565b916107068192949361221f565b610221579091386106f3565b6040513d85823e3d90fd5b8580fd5b8361075b575b505050505090600260209392827f2b8a84e623a466252d40df763a21d8d87755b1c874a96449b31b8ce3b5bbe7d796610676565b6107658883612cb2565b92848411610a37575b8361080c575b505050808211610786575b8080610727565b6107a060018060a01b03600354169160038601549361258d565b90803b1561071d57604051632a7d7bc560e01b815260048101939093526001600160a01b0393909316602483015260448201529083908290606490829084905af18015610712576107f3575b808061077f565b916108008192949361221f565b610221579091386107ec565b803b15610a3357604051632a7d7bc560e01b815260048101929092523060248301526044820184905287908290606490829084905af180156109bb5783918891610a1c575b505061085d918a612743565b8061086a575b8080610774565b8060018060a01b03600454166040516313064e1b60e21b8152602081600481855afa908115610a115789916109d7575b508083116109cd575b50600b546108fd9260209290916001600160a01b0316806109c657505b60085460405163a9059cbb60e01b81526001600160a01b0392831660048201526024810193909352919384929091169082908b9082906044820190565b03925af180156109bb5761091891889161098c575b506124d9565b8015610863576004546001600160a01b031690813b15610988578691602483926040519485938492631b8fec7360e11b845260048401525af190811561097d578691610965575b50610863565b61096e9061221f565b61097957843861095f565b8480fd5b6040513d88823e3d90fd5b8680fd5b6109ae915060203d6020116109b4575b6109a68183612233565b810190612255565b38610912565b503d61099c565b6040513d89823e3d90fd5b90506108c0565b92506108fd6108a3565b9850506020883d602011610a09575b816109f360209383612233565b81010312610a04578b97513861089a565b600080fd5b3d91506109e6565b6040513d8b823e3d90fd5b610a2791925061221f565b61071d57818638610851565b8780fd5b84935061076e565b9361063b565b9050610a6991925060603d8111610a73575b610a618183612233565b8101906122e8565b509190913861061a565b503d610a57565b6040513d87823e3d90fd5b60405162461bcd60e51b815260206004820152600c60248201526b1b9bdd081d5b9b1bd8dad95960a21b6044820152606490fd5b503461022157608036600319011261022157610b22600435610ad9612126565b604435610ae461226d565b610aec61228e565b828552602091600c83526040862090610b0b60ff60058401541661234c565b90546001600160a01b039586929183163314612383565b610b2d8315156122b1565b1693610b3a8515156123fc565b848652600f8352610b5060408720541515612432565b60085481168503610c3d5790828183610bbd9594600b54168015600014610c3757508060045416905b6008546040516323b872dd60e01b81523360048201526001600160a01b039093166024840152604483019390935290958692919091169082908a9082906064820190565b03925af191821561097d57610bfd6040937f6fc7d8a2bd2a82416c4a47d922756ad5d86230f1046784d16fcdfc3d0a332716958991610c1a575b506123be565b81905b610c0a828761259a565b8351928352820152a36001805580f35b610c319150833d85116109b4576109a68183612233565b38610bf7565b90610b79565b610c4c816007541615156121cb565b6040516323b872dd60e01b81523360048201523060248201526044810183905283816064818a8a5af180156109bb57610c8b918891610e6e57506123be565b60075460405163095ea7b360e01b81529082166001600160a01b031660048201526024810183905283816044818a8a5af180156109bb57610e51575b5060085461012c4201804211610e3d5793610d4681949392899662ffffff60405192610cf284612202565b8b84528681168685015260a01c16604083015230606083015260808201528460a082015260643560c08201528660e082015283600754169060405197888094819363414bf38960e01b835260048301612472565b03925af19384156109bb578794610e0e575b508284610dad959280600b54168015600014610e0857508060045416905b60085416908a60405180998195829463a9059cbb60e01b84526004840160209093929193604081019460018060a01b031681520152565b03925af19283156109bb57610dec6040947f6fc7d8a2bd2a82416c4a47d922756ad5d86230f1046784d16fcdfc3d0a332716968a91610df157506124d9565b610c00565b6109ae9150833d85116109b4576109a68183612233565b90610d76565b93508284813d8311610e36575b610e258183612233565b81010312610a045792519282610d58565b503d610e1b565b634e487b7160e01b88526011600452602488fd5b610e6790843d86116109b4576109a68183612233565b5038610cc7565b610c319150853d87116109b4576109a68183612233565b503461022157602090816003193601126102215760043567ffffffffffffffff811161108757610eb99036906004016120f5565b9290610ec361219f565b825b601054811015610f055780610edc610f0092612152565b905460039190911b1c6001600160a01b03168552600f84526040852085905561255a565b610ec5565b50926010805484825580611046575b50835b828110610f9057505090604051918082840183855252604083019491845b828110610f6657857f958e5a764e61c98b372056000d351e2fc534fa9b6dec706da2cf0aec85ba6e6f86890387a180f35b9091929586359060018060a01b038216809203610a04579081528201958201929190600101610f35565b6001600160a01b0380610fac610fa784878b612569565b612579565b1690610fb98215156123fc565b818752600f90818752604088205415610fde575b505050610fd99061255a565b610f17565b84549068010000000000000000821015611032576110026001928381018855612152565b819291549060031b9186831b921b1916179055830191828411610e3d57875285526040862055610fd93880610fcd565b634e487b7160e01b89526041600452602489fd5b8185527f1b6847dc741a1b0cd08d278845f9d819d87b734759afb55fe2de5cb82a9ae672908101905b81811061107c5750610f14565b85815560010161106f565b5080fd5b50346102215780600319360112610221576020600654604051908152f35b5034610221578060031936011261022157546040516001600160a01b039091168152602090f35b5034610221576040366003190112610221576111926024356004356110f361226d565b6110fb61228e565b808452600c6020526020826040862061111a60ff60058301541661234c565b546001600160a01b03906111319082163314612383565b61113c8215156122b1565b600b548116806111e057508060045416905b6008546040516323b872dd60e01b81523360048201526001600160a01b03909316602484015260448301939093529095869291909116908290889082906064820190565b03925af19283156111d5576111b6936111b19186916111bd57506123be565b61259a565b6001805580f35b610c31915060203d81116109b4576109a68183612233565b6040513d86823e3d90fd5b9061114e565b50346102215780600319360112610221576111ff61219f565b61120761226d565b805460ff60a01b1916600160a01b1781556040513381527f62e78cea01bee320cd4e420270b5ea74000d11b0c9f74754ebdbfc544b05a25890602090a180f35b50346102215780600319360112610221576007546040516001600160a01b039091168152602090f35b503461022157806003193601126102215761128961219f565b600080546001600160a01b0319811682556001600160a01b03167f8be0079c531659141344cd1fd0a4f28419497f9722a3daafe3b4186f6b6457e08280a380f35b503461022157806003193601126102215760ff6020915460a01c166040519015158152f35b50346102215780600319360112610221576020600954604051908152f35b50346102215760403660031901126102215761132761213c565b61132f612126565b9061133861219f565b6001600160a01b039081169182156113d3571680156113a2577f81a577879f5afba839dc12949fdfc537e7ab528414301ccc1d723e2abcbe7d1b91816040926001600160601b0360a01b8381600a541617600a55600b541617600b5582519182526020820152a180f35b60405162461bcd60e51b8152602060048201526009602482015268072657475726e733d360bc1b6044820152606490fd5b60405162461bcd60e51b815260206004820152600a602482015269069737375616e63653d360b41b6044820152606490fd5b50346102215760403660031901126102215761141f61213c565b60243561142a61219f565b6107d0811161148c57600580546001600160a01b0319166001600160a01b0393909316928317905560068190556040805192835260208301919091527f4e9c2c9d7ce2ff823cab7f6f0dedfb36ea1f4e5be270f6c13ae74c65fb6c63bf91a180f35b60405162461bcd60e51b815260206004820152600e60248201526d0c4dedee6e840e8dede40d0d2ced60931b6044820152606490fd5b50346102215780600319360112610221576114db61219f565b805460ff8160a01c16156115215760ff60a01b191681556040513381527f5db9ee0a495bf2e6ff9c91a7834c1ba4fdd244a5e8aa4e537bd38aeae4b073aa90602090a180f35b604051638dfc202b60e01b8152600490fd5b50346102215780600319360112610221576008546040516001600160a01b039091168152602090f35b50346102215780600319360112610221576002546040516001600160a01b039091168152602090f35b5034610221576020366003190112610221576020906040906001600160a01b036115ad61213c565b168152600f83522054604051908152f35b5034610221576060366003190112610221576004356115db612126565b90604435916115e861226d565b6115f061228e565b6115fb8315156122b1565b6003546001600160a01b0391908216908590823b15611087576064849183604051958694859363795a170960e11b85528a60048601521660248401523360448401525af18015610a7a576119a4575b5090816060602493600354166040519485809263b93a89f760e01b82528660048301525afa918215610a7a57859386908794611978575b50600254604080516317fb08f560e31b815260048101979097526001600160a01b03909216602487015260448601859052939493849084168180606481015b03915afa92831561097d578690879461193e575b508390338852602094600e865260ff60408a20541680611933575b611910575b50611703612710928392612339565b0486116118dd576004848482541660405192838092633fceb09960e21b82525afa80156118d25788906118a3575b61173c915087612339565b0490600d54946040519060c082019282841067ffffffffffffffff85111761188d576005936040523383528683019489865260408401908152606084019182526080840192835260a084019560018752898c52600c89528760408d209551166001600160601b0360a01b865416178555516001850155516002840155516003830155516004820155019051151560ff80198354169116179055600d546001810180911161187957600d55600454859116803b156110875760405163a2fb342d60e01b8152336004820152602481018690529082908290604490829084905af1801561186e5761185a575b50507f8910ba13a55695f056e224bbbc6b65d866b12a8c2fbdf387fb853a1cca298cd7906040519384523393a36001805580f35b6118639061221f565b610549578338611826565b6040513d84823e3d90fd5b634e487b7160e01b86526011600452602486fd5b634e487b7160e01b600052604160045260246000fd5b508481813d83116118cb575b6118b98183612233565b81010312610a045761173c9051611731565b503d6118af565b6040513d8a823e3d90fd5b60405162461bcd60e51b815260048101859052600b60248201526a32bc31b2b2b23990262a2b60a91b6044820152606490fd5b61191f91925060065490612316565b90612710808311156116f4579150386116f4565b5060065415156116ef565b9350506040833d604011611970575b8161195a60409383612233565b8101031261071d576020835193015192386116d4565b3d915061194d565b604095506116c09450611999915060603d8111610a7357610a618183612233565b919591945090611681565b936119b2602493929561221f565b93909161164a565b50346102215780600319360112610221576004546040516001600160a01b039091168152602090f35b5034610221578060031936011261022157600b546040516001600160a01b039091168152602090f35b50346102215760803660031901126102215767ffffffffffffffff602435818111611f0557611a3f9036906004016120f5565b919060443582811161097957611a599036906004016120f5565b93909260643590811161071d57611a749036906004016120f5565b611a7c61226d565b611a8461228e565b611a8f86841461251c565b611a9a81841461251c565b6004358752600c6020526040872093611ab960ff60058701541661234c565b611acd60018060a01b038654163314612383565b8793885b818110611ae1575b896001805580f35b611aef610fa7828486612569565b95611afb828b8b612569565b35908115611ef9576001600160a01b0388168c52600f60205260408c205490611b25821515612432565b8110611ec3576008549097906001600160a01b03808316911603611c5957600b548c9083906001600160a01b031680611c4d5750600454611bb0916020916001600160a01b03165b6008546040516323b872dd60e01b81523360048201526001600160a01b039283166024820152604481019390935291938492909116908290869082906064820190565b03925af190811561186e57611bca9291611c3457506123be565b815b611bd88160043561259a565b604051928352602083015260018060a01b0316907f6fc7d8a2bd2a82416c4a47d922756ad5d86230f1046784d16fcdfc3d0a332716604060043592a360ff60058801541615611c2f57611c2a9061255a565b611ad1565b611ad9565b610c31915060203d6020116109b4576109a68183612233565b611bb091602091611b6d565b600754611c70906001600160a01b031615156121cb565b6040516323b872dd60e01b8152336004820152306024820152604481018390528c90602081606481856001600160a01b0388165af1801561186e5782611cc38692602094611cfb9691610e6e57506123be565b60075460405163095ea7b360e01b81526001600160a01b03909116600482015260248101929092529092839190829081906044820190565b03916001600160a01b0387165af18015611e8557611ea4575b5060085461012c42014211611e90576020611db18e92611d35878b8d612569565b358660405192611d4484612202565b60018060a01b038816845260018060a01b0381168685015262ffffff60a091821c16604085015230606085015261012c4201608085015283015260c08201528360e082015260018060a01b03600754169060405194858094819363414bf38960e01b835260048301612472565b03925af1908115611e85578d91611e4f575b50600b548d90611e2b9060209084906001600160a01b031680611e4a57506004546001600160a01b03165b60085460405163a9059cbb60e01b81526001600160a01b039283166004820152602481019390935291938492909116908290869082906044820190565b03925af190811561186e57611e45929161098c57506124d9565b611bcc565b611dee565b90506020813d602011611e7d575b81611e6a60209383612233565b81010312611e79575138611dc3565b8c80fd5b3d9150611e5d565b6040513d8f823e3d90fd5b634e487b7160e01b8d52601160045260248dfd5b611ebc9060203d6020116109b4576109a68183612233565b5038611d14565b60405162461bcd60e51b815260206004820152600e60248201526d383934b7b934ba3c9037b93232b960911b6044820152606490fd5b965050611c2a9061255a565b8280fd5b503461022157602090816003193601126102215767ffffffffffffffff600435818111611f055736602382011215611f05578060040135918211611f05573660248383010111611f0557611f5b61226d565b611f6361228e565b6005546001600160a01b0316908115612077578491602485606486946040519788968795869363058b23cd60e41b855233600486015260408286015282604486015201848401378181018301849052601f01601f191681010301925af190811561186e57829161205a575b501561202557604090338152600e835220600160ff198254161790556006546040519081527f60b66827d6b8dc4c21c455ee1239c41dffbc94e0604392a84cdea38f8f76fd59823392a26001805560405160018152f35b60405162461bcd60e51b815260048101839052600d60248201526c34b73b30b634b210383937b7b360991b6044820152606490fd5b6120719150833d85116109b4576109a68183612233565b38611fce565b60405162461bcd60e51b815260048101869052600b60248201526a3737903b32b934b334b2b960a91b6044820152606490fd5b5034610221578060031936011261022157602062ffffff60085460a01c16604051908152f35b9050346110875781600319360112611087576003546001600160a01b03168152602090f35b9181601f84011215610a045782359167ffffffffffffffff8311610a04576020808501948460051b010111610a0457565b602435906001600160a01b0382168203610a0457565b600435906001600160a01b0382168203610a0457565b6010548110156121895760106000527f1b6847dc741a1b0cd08d278845f9d819d87b734759afb55fe2de5cb82a9ae6720190600090565b634e487b7160e01b600052603260045260246000fd5b6000546001600160a01b031633036121b357565b60405163118cdaa760e01b8152336004820152602490fd5b156121d257565b60405162461bcd60e51b81526020600482015260086024820152670726f757465723d360c41b6044820152606490fd5b610100810190811067ffffffffffffffff82111761188d57604052565b67ffffffffffffffff811161188d57604052565b90601f8019910116810190811067ffffffffffffffff82111761188d57604052565b90816020910312610a0457518015158103610a045790565b60ff60005460a01c1661227c57565b60405163d93c066560e01b8152600490fd5b60026001541461229f576002600155565b604051633ee5aeb560e01b8152600490fd5b156122b857565b60405162461bcd60e51b81526020600482015260086024820152670616d6f756e743d360c41b6044820152606490fd5b90816060910312610a0457805160208201519092906001600160a01b0381168103610a045760409092015190565b9190820180921161232357565b634e487b7160e01b600052601160045260246000fd5b8181029291811591840414171561232357565b1561235357565b60405162461bcd60e51b8152602060048201526008602482015267696e61637469766560c01b6044820152606490fd5b1561238a57565b60405162461bcd60e51b815260206004820152600c60248201526b3737ba103137b93937bbb2b960a11b6044820152606490fd5b156123c557565b60405162461bcd60e51b815260206004820152600f60248201526e1d1c985b9cd9995c8819985a5b1959608a1b6044820152606490fd5b1561240357565b60405162461bcd60e51b81526020600482015260076024820152660746f6b656e3d360cc1b6044820152606490fd5b1561243957565b60405162461bcd60e51b81526020600482015260116024820152701d1bdad95b881b9bdd08185b1b1bddd959607a1b6044820152606490fd5b91909160e06101008201938160018060a01b039182815116855282602082015116602086015262ffffff60408201511660408601528260608201511660608601526080810151608086015260a081015160a086015260c081015160c0860152015116910152565b156124e057565b60405162461bcd60e51b81526020600482015260146024820152731d5cd918c81d1c985b9cd9995c8819985a5b195960621b6044820152606490fd5b1561252357565b60405162461bcd60e51b815260206004820152600f60248201526e0d8cadccee8d040dad2e6dac2e8c6d608b1b6044820152606490fd5b60001981146123235760010190565b91908110156121895760051b0190565b356001600160a01b0381168103610a045790565b9190820391821161232357565b9190916000831561273d5760018060a01b03600454169360408051926313064e1b60e21b845260209384816004818b5afa908115612733578291612706575b50808411156126ff575b80612686575b50847f040cee90ee4799897c30ca04e5feb6fa43dbba9b6d084b4b257cdafd84ba013e959697508152600c84528181206002810191825492600183019384549187828110156000146126765750908361264392558761258d565b90808210612662575050600592550160ff1981541690555b51908152a2565b90915061266f925061258d565b905561265b565b93509450905061266f925061258d565b8782983b15611f05576024839285519a8b938492631b8fec7360e11b845260048401525af19687156126f3577f040cee90ee4799897c30ca04e5feb6fa43dbba9b6d084b4b257cdafd84ba013e9596976126e4575b879695506125e9565b6126ed9061221f565b386126db565b509051903d90823e3d90fd5b50826125e3565b90508481813d831161272c575b61271d8183612233565b810103126110875751386125d9565b503d612713565b83513d84823e3d90fd5b50509050565b60075492939290916001600160a01b0391821691908215612b27576040805163095ea7b360e01b8152602060809081526001600160a01b0395909516600482015260248101889052935160009795949193929190816044818b8688165af18015612afe57612b08575b508160025416835190633a0df78d60e11b825281600481608051935afa908115612afe579083918991612acf575b508451633fabe5a360e21b8152911660a082600481845afa918215612ac5578992612a90575b5061280c898313612b9c565b845163313ce56760e01b9182825281600481608051935afa908115612a86578a91612a67575b50855192828452608051846004818989165afa938415612a5d578b94612a3c575b50600854938751938452608051846004818a89165afa938c8515612a31576128ae9361271096936128b796938e93956129ec575b5061289c926128a89261289c6128a293612bed565b91612bfe565b93612bed565b91612bed565b60095490612339565b0461012c42018042116129d85762ffffff8651936128d485612202565b868616855286811660805186015260a01c168684015230606084015260808301528660a083015260c08201528760e08201528260075416908451809263414bf38960e01b8252818b8161292d6080519660048301612472565b03925af19788156129cd578098612976575b5050907fde2f91861847a1451d81a38725e38c8a517405db456a0d947e7ac3cfa6c0aaf792918783519687526080518701521693a3565b909197506080513d81116129c6575b61298f8184612233565b826080519181010312610221575051957fde2f91861847a1451d81a38725e38c8a517405db456a0d947e7ac3cfa6c0aaf73861293f565b503d612985565b8451903d90823e3d90fd5b634e487b7160e01b8a52601160045260248afd5b6128a2919550926128a89261289c612a1e61289c966080513d8111612a2a575b612a168183612233565b810190612bd4565b97935050925092612887565b503d612a0c565b8951903d90823e3d90fd5b612a569194506080513d8111612a2a57612a168183612233565b9238612853565b87513d8d823e3d90fd5b612a8091506080513d8111612a2a57612a168183612233565b38612832565b86513d8c823e3d90fd5b612ab291925060a03d8111612abe575b612aaa8183612233565b810190612b67565b50505090509038612800565b503d612aa0565b85513d8b823e3d90fd5b612af191506080513d8111612af7575b612ae98183612233565b810190612b31565b386127da565b503d612adf565b84513d8a823e3d90fd5b612b20906080513d81116109b4576109a68183612233565b50386127ac565b5060009450505050565b90816020910312610a0457516001600160a01b0381168103610a045790565b519069ffffffffffffffffffff82168203610a0457565b908160a0910312610a0457612b7b81612b50565b91602082015191604081015191612b99608060608401519301612b50565b90565b15612ba357565b60405162461bcd60e51b815260206004820152600960248201526862616420707269636560b81b6044820152606490fd5b90816020910312610a04575160ff81168103610a045790565b60ff16604d811161232357600a0a90565b90916000198383099280830292838086109503948086039514612c8e5784831115612c75579082910981600003821680920460028082600302188083028203028083028203028083028203028083028203028083028203028092029003029360018380600003040190848311900302920304170290565b82634e487b71600052156003026011186020526024601cfd5b505080925015612c9c570490565b634e487b7160e01b600052601260045260246000fd5b6008549192916001600160a01b03918216908216818114612e935782600254169260409081518095633a0df78d60e11b825281600460209889935afa908115612e6b57600091612e76575b501691815194633fabe5a360e21b865260a086600481875afa958615612e6b57600096612e46575b50612d3260008713612b9c565b825193818560048163313ce56760e01b948582525afa948515612e3b57600095612e17575b508184959660049551958680928582525afa938415612e0c57600094612deb575b508190600486518095819382525afa938415612de15750926128a892612b99979892612db495600093612dba575b50506128a861289c91612bed565b90612bfe565b61289c9293506128a89181612dda92903d10612a2a57612a168183612233565b9291612da6565b513d6000823e3d90fd5b82919450612e0590823d8411612a2a57612a168183612233565b9390612d78565b85513d6000823e3d90fd5b6004949550612e338391823d8411612a2a57612a168183612233565b959450612d57565b84513d6000823e3d90fd5b612e5f91965060a03d8111612abe57612aaa8183612233565b50505090509438612d25565b83513d6000823e3d90fd5b612e8d9150863d8811612af757612ae98183612233565b38612cfd565b50505056fea2646970667358221220e71ba9219a7d5a4421c20708ddcf4682841af1ebab5dfbf1cef686b0d36a824464736f6c63430008140033",
  "linkReferences": {},
  "deployedLinkReferences": {}
}