{
  "_format": "hh-sol-artifact-1",
  "contractName": "LoanManager",
  "sourceName": "contracts/LoanManager.sol",
  "abi": [
    {
      "inputs": [
        {
          "internalType": "address",
          "name": "_valuation",
          "type": "address"
        },
        {
          "internalType": "address",
          "name": "_adapter",
          "type": "address"
        },
        {
          "internalType": "address",
          "name": "_pool",
          "type": "address"
        },
        {
          "internalType": "address",
          "name": "_identityVerifier",
          "type": "address"
        },
        {
          "internalType": "uint256",
          "name": "_identityBoostBps",
          "type": "uint256"
        },
        {
          "internalType": "address",
          "name": "_uniswapRouter",
          "type": "address"
        },
        {
          "internalType": "uint24",
          "name": "_poolFee",
          "type": "uint24"
        },
        {
          "internalType": "uint256",
          "name": "_slippageBps",
          "type": "uint256"
        }
      ],
      "stateMutability": "nonpayable",
      "type": "constructor"
    },
    {
      "inputs": [],
      "name": "EnforcedPause",
      "type": "error"
    },
    {
      "inputs": [],
      "name": "ExpectedPause",
      "type": "error"
    },
    {
      "inputs": [
        {
          "internalType": "address",
          "name": "owner",
          "type": "address"
        }
      ],
      "name": "OwnableInvalidOwner",
      "type": "error"
    },
    {
      "inputs": [
        {
          "internalType": "address",
          "name": "account",
          "type": "address"
        }
      ],
      "name": "OwnableUnauthorizedAccount",
      "type": "error"
    },
    {
      "inputs": [],
      "name": "ReentrancyGuardReentrantCall",
      "type": "error"
    },
    {
      "anonymous": false,
      "inputs": [
        {
          "indexed": true,
          "internalType": "uint256",
          "name": "loanId",
          "type": "uint256"
        },
        {
          "indexed": true,
          "internalType": "address",
          "name": "token",
          "type": "address"
        },
        {
          "indexed": false,
          "internalType": "uint256",
          "name": "seizedAmount",
          "type": "uint256"
        },
        {
          "indexed": false,
          "internalType": "uint256",
          "name": "usdcReceived",
          "type": "uint256"
        }
      ],
      "name": "CollateralLiquidated",
      "type": "event"
    },
    {
      "anonymous": false,
      "inputs": [
        {
          "indexed": false,
          "internalType": "address",
          "name": "verifier",
          "type": "address"
        },
        {
          "indexed": false,
          "internalType": "uint256",
          "name": "boostBps",
          "type": "uint256"
        }
      ],
      "name": "IdentityConfigUpdated",
      "type": "event"
    },
    {
      "anonymous": false,
      "inputs": [
        {
          "indexed": true,
          "internalType": "address",
          "name": "borrower",
          "type": "address"
        },
        {
          "indexed": false,
          "internalType": "uint256",
          "name": "boostBps",
          "type": "uint256"
        }
      ],
      "name": "IdentityLinked",
      "type": "event"
    },
    {
      "anonymous": false,
      "inputs": [
        {
          "indexed": false,
          "internalType": "address",
          "name": "router",
          "type": "address"
        },
        {
          "indexed": false,
          "internalType": "uint24",
          "name": "poolFee",
          "type": "uint24"
        },
        {
          "indexed": false,
          "internalType": "uint256",
          "name": "slippageBps",
          "type": "uint256"
        }
      ],
      "name": "LiquidationConfigUpdated",
      "type": "event"
    },
    {
      "anonymous": false,
      "inputs": [
        {
          "indexed": true,
          "internalType": "uint256",
          "name": "loanId",
          "type": "uint256"
        },
        {
          "indexed": true,
          "internalType": "address",
          "name": "borrower",
          "type": "address"
        },
        {
          "indexed": false,
          "internalType": "uint256",
          "name": "amount",
          "type": "uint256"
        }
      ],
      "name": "LoanCreated",
      "type": "event"
    },
    {
      "anonymous": false,
      "inputs": [
        {
          "indexed": true,
          "internalType": "uint256",
          "name": "loanId",
          "type": "uint256"
        },
        {
          "indexed": false,
          "internalType": "uint256",
          "name": "amount",
          "type": "uint256"
        }
      ],
      "name": "LoanRepaid",
      "type": "event"
    },
    {
      "anonymous": false,
      "inputs": [
        {
          "indexed": true,
          "internalType": "uint256",
          "name": "loanId",
          "type": "uint256"
        },
        {
          "indexed": false,
          "internalType": "bool",
          "name": "defaulted",
          "type": "bool"
        }
      ],
      "name": "LoanSettled",
      "type": "event"
    },
    {
      "anonymous": false,
      "inputs": [
        {
          "indexed": true,
          "internalType": "address",
          "name": "previousOwner",
          "type": "address"
        },
        {
          "indexed": true,
          "internalType": "address",
          "name": "newOwner",
          "type": "address"
        }
      ],
      "name": "OwnershipTransferred",
      "type": "event"
    },
    {
      "anonymous": false,
      "inputs": [
        {
          "indexed": false,
          "internalType": "address",
          "name": "account",
          "type": "address"
        }
      ],
      "name": "Paused",
      "type": "event"
    },
    {
      "anonymous": false,
      "inputs": [
        {
          "indexed": false,
          "internalType": "address",
          "name": "account",
          "type": "address"
        }
      ],
      "name": "Unpaused",
      "type": "event"
    },
    {
      "inputs": [],
      "name": "BPS_DENOMINATOR",
      "outputs": [
        {
          "internalType": "uint256",
          "name": "",
          "type": "uint256"
        }
      ],
      "stateMutability": "view",
      "type": "function"
    },
    {
      "inputs": [],
      "name": "adapter",
      "outputs": [
        {
          "internalType": "contract VestingAdapter",
          "name": "",
          "type": "address"
        }
      ],
      "stateMutability": "view",
      "type": "function"
    },
    {
      "inputs": [
        {
          "internalType": "uint256",
          "name": "collateralId",
          "type": "uint256"
        },
        {
          "internalType": "address",
          "name": "vestingContract",
          "type": "address"
        },
        {
          "internalType": "uint256",
          "name": "borrowAmount",
          "type": "uint256"
        }
      ],
      "name": "createLoan",
      "outputs": [],
      "stateMutability": "nonpayable",
      "type": "function"
    },
    {
      "inputs": [],
      "name": "identityBoostBps",
      "outputs": [
        {
          "internalType": "uint256",
          "name": "",
          "type": "uint256"
        }
      ],
      "stateMutability": "view",
      "type": "function"
    },
    {
      "inputs": [
        {
          "internalType": "address",
          "name": "",
          "type": "address"
        }
      ],
      "name": "identityLinked",
      "outputs": [
        {
          "internalType": "bool",
          "name": "",
          "type": "bool"
        }
      ],
      "stateMutability": "view",
      "type": "function"
    },
    {
      "inputs": [],
      "name": "identityVerifier",
      "outputs": [
        {
          "internalType": "address",
          "name": "",
          "type": "address"
        }
      ],
      "stateMutability": "view",
      "type": "function"
    },
    {
      "inputs": [
        {
          "internalType": "bytes",
          "name": "proof",
          "type": "bytes"
        }
      ],
      "name": "linkIdentity",
      "outputs": [
        {
          "internalType": "bool",
          "name": "",
          "type": "bool"
        }
      ],
      "stateMutability": "nonpayable",
      "type": "function"
    },
    {
      "inputs": [],
      "name": "liquidationSlippageBps",
      "outputs": [
        {
          "internalType": "uint256",
          "name": "",
          "type": "uint256"
        }
      ],
      "stateMutability": "view",
      "type": "function"
    },
    {
      "inputs": [],
      "name": "loanCount",
      "outputs": [
        {
          "internalType": "uint256",
          "name": "",
          "type": "uint256"
        }
      ],
      "stateMutability": "view",
      "type": "function"
    },
    {
      "inputs": [
        {
          "internalType": "uint256",
          "name": "",
          "type": "uint256"
        }
      ],
      "name": "loans",
      "outputs": [
        {
          "internalType": "address",
          "name": "borrower",
          "type": "address"
        },
        {
          "internalType": "uint256",
          "name": "principal",
          "type": "uint256"
        },
        {
          "internalType": "uint256",
          "name": "interest",
          "type": "uint256"
        },
        {
          "internalType": "uint256",
          "name": "collateralId",
          "type": "uint256"
        },
        {
          "internalType": "uint256",
          "name": "unlockTime",
          "type": "uint256"
        },
        {
          "internalType": "bool",
          "name": "active",
          "type": "bool"
        }
      ],
      "stateMutability": "view",
      "type": "function"
    },
    {
      "inputs": [],
      "name": "owner",
      "outputs": [
        {
          "internalType": "address",
          "name": "",
          "type": "address"
        }
      ],
      "stateMutability": "view",
      "type": "function"
    },
    {
      "inputs": [],
      "name": "pause",
      "outputs": [],
      "stateMutability": "nonpayable",
      "type": "function"
    },
    {
      "inputs": [],
      "name": "paused",
      "outputs": [
        {
          "internalType": "bool",
          "name": "",
          "type": "bool"
        }
      ],
      "stateMutability": "view",
      "type": "function"
    },
    {
      "inputs": [],
      "name": "pool",
      "outputs": [
        {
          "internalType": "contract LendingPool",
          "name": "",
          "type": "address"
        }
      ],
      "stateMutability": "view",
      "type": "function"
    },
    {
      "inputs": [],
      "name": "poolFee",
      "outputs": [
        {
          "internalType": "uint24",
          "name": "",
          "type": "uint24"
        }
      ],
      "stateMutability": "view",
      "type": "function"
    },
    {
      "inputs": [],
      "name": "renounceOwnership",
      "outputs": [],
      "stateMutability": "nonpayable",
      "type": "function"
    },
    {
      "inputs": [
        {
          "internalType": "uint256",
          "name": "loanId",
          "type": "uint256"
        },
        {
          "internalType": "uint256",
          "name": "amount",
          "type": "uint256"
        }
      ],
      "name": "repayLoan",
      "outputs": [],
      "stateMutability": "nonpayable",
      "type": "function"
    },
    {
      "inputs": [
        {
          "internalType": "address",
          "name": "verifier",
          "type": "address"
        },
        {
          "internalType": "uint256",
          "name": "boostBps",
          "type": "uint256"
        }
      ],
      "name": "setIdentityConfig",
      "outputs": [],
      "stateMutability": "nonpayable",
      "type": "function"
    },
    {
      "inputs": [
        {
          "internalType": "address",
          "name": "router",
          "type": "address"
        },
        {
          "internalType": "uint24",
          "name": "newPoolFee",
          "type": "uint24"
        },
        {
          "internalType": "uint256",
          "name": "slippageBps",
          "type": "uint256"
        }
      ],
      "name": "setLiquidationConfig",
      "outputs": [],
      "stateMutability": "nonpayable",
      "type": "function"
    },
    {
      "inputs": [
        {
          "internalType": "uint256",
          "name": "loanId",
          "type": "uint256"
        }
      ],
      "name": "settleAtUnlock",
      "outputs": [],
      "stateMutability": "nonpayable",
      "type": "function"
    },
    {
      "inputs": [
        {
          "internalType": "address",
          "name": "newOwner",
          "type": "address"
        }
      ],
      "name": "transferOwnership",
      "outputs": [],
      "stateMutability": "nonpayable",
      "type": "function"
    },
    {
      "inputs": [],
      "name": "uniswapRouter",
      "outputs": [
        {
          "internalType": "contract ISwapRouter",
          "name": "",
          "type": "address"
        }
      ],
      "stateMutability": "view",
      "type": "function"
    },
    {
      "inputs": [],
      "name": "unpause",
      "outputs": [],
      "stateMutability": "nonpayable",
      "type": "function"
    },
    {
      "inputs": [],
      "name": "usdc",
      "outputs": [
        {
          "internalType": "contract IERC20",
          "name": "",
          "type": "address"
        }
      ],
      "stateMutability": "view",
      "type": "function"
    },
    {
      "inputs": [],
      "name": "valuation",
      "outputs": [
        {
          "internalType": "contract ValuationEngine",
          "name": "",
          "type": "address"
        }
      ],
      "stateMutability": "view",
      "type": "function"
    }
  ],
  "bytecode": "0x6080604090808252346200020157610100816200209d803803809162000026828562000206565b83398101031262000201576200003c8162000240565b6200004a6020830162000240565b6200005784840162000240565b91620000666060850162000240565b9260808501516200007a60a0870162000240565b9160c08701519662ffffff88168803620002015760e00151953315620001e957602092916004918a600098899788549660018060a01b03199333858a16178b55519a8b98899760018060a01b039e8f96878095819582947f8be0079c531659141344cd1fd0a4f28419497f9722a3daafe3b4186f6b6457e0843393169180a3600180551689600254161760025516876003541617600355169586868a541617895516846005541617600555600655169060075416176007556008549962ffffff60a01b9060a01b16988962ffffff60a01b198c1617600855600955631f209df760e11b82525afa918215620001dd57819262000191575b5050169160018060b81b031916171760085551611e479081620002568239f35b9091506020813d8211620001d4575b81620001af6020938362000206565b81010312620001d05751908282168203620001cd5750388062000171565b80fd5b5080fd5b3d9150620001a0565b508551903d90823e3d90fd5b8851631e4fbdf760e01b815260006004820152602490fd5b600080fd5b601f909101601f19168101906001600160401b038211908210176200022a57604052565b634e487b7160e01b600052604160045260246000fd5b51906001600160a01b0382168203620002015756fe608080604052600436101561001357600080fd5b600090813560e01c90816303eadcfc1461143957508063089fe6aa146114135780630bf7187d1461127257806316f0115b146112495780631b15cee614610e5057806321a7cfe414610e275780633e413bee14610dfe5780633f4ba83a14610d8d5780634651e78914610cd05780635bb4962614610cb25780635c975abb14610c8d578063715018a614610c33578063735de9f714610c0a5780638456cb5914610ba95780638a700b531461098a5780638da5cb5b146109635780639ffb860614610945578063b123cb741461040b578063c8394b1d146102d3578063ce63094d146102b5578063dfd572a01461028c578063e1a452181461026f578063e1ec3c6814610200578063e640b814146101c15763f2fde38b1461013457600080fd5b346101be5760203660031901126101be5761014d61145e565b610155611474565b6001600160a01b039081169081156101a557600054826001600160601b0360a01b821617600055167f8be0079c531659141344cd1fd0a4f28419497f9722a3daafe3b4186f6b6457e0600080a380f35b604051631e4fbdf760e01b815260048101849052602490fd5b80fd5b50346101be5760203660031901126101be5760209060ff906040906001600160a01b036101ec61145e565b168152600c84522054166040519015158152f35b50346101be5760203660031901126101be57604060c0916004358152600a6020522060018060a01b0381541690600181015490600281015460038201549060ff6005600485015494015416936040519586526020860152604085015260608401526080830152151560a0820152f35b50346101be57806003193601126101be5760206040516127108152f35b50346101be57806003193601126101be576005546040516001600160a01b039091168152602090f35b50346101be57806003193601126101be576020600b54604051908152f35b50346101be5760603660031901126101be576102ed61145e565b60243562ffffff811691828203610407576044359061030a611474565b6001600160a01b03169081156103d757801515806103cb575b15610397577f8b5c8d8f89d3a1faecb05d234f488196bd0a31cbd4f482bf686b2581b1e4dbe493606093836001600160601b0360a01b60075416176007556008549062ffffff60a01b9060a01b169062ffffff60a01b1916176008558160095560405192835260208301526040820152a180f35b60405162461bcd60e51b815260206004820152600c60248201526b62616420736c69707061676560a01b6044820152606490fd5b50612710811115610323565b60405162461bcd60e51b81526020600482015260086024820152670726f757465723d360c41b6044820152606490fd5b8380fd5b50346101be5760203660031901126101be57610425611504565b61042d611525565b6004358152600a6020526040812061044b60ff6005830154166115e3565b60048101544210610911576001810154908261046d60028301938454906115ad565b9260018060a01b03600354169260038101546040519063b93a89f760e01b8252806004830152606082602481895afa90811561090657859286926108d2575b50876105a75750508394508093929361050d575b506001905b60ff19600582015416600582015501555560405190151581527f2b8a84e623a466252d40df763a21d8d87755b1c874a96449b31b8ce3b5bbe7d7602060043592a26001805580f35b600380549083015483549394506001600160a01b039384169390929116803b156105a357604051632a7d7bc560e01b815260048101939093526001600160a01b0393909316602483015260448201529084908290606490829084905af1908115610598578491610580575b9190916104c0565b610589906114a0565b610594578238610578565b8280fd5b6040513d86823e3d90fd5b8680fd5b829693966105be575b5050505090600181936104c5565b6105cb8883989598611c2b565b968388116108c9575b87610686575b50505084849582959495116105f3575b829594936105b0565b600380549084015484549495506001600160a01b0394851694909391169161061a9161161a565b90803b156105a357604051632a7d7bc560e01b815260048101939093526001600160a01b0393909316602483015260448201529084908290606490829084905af1908115610598578491610672575b809291926105ea565b61067b906114a0565b610594578238610669565b803b156105a357604051632a7d7bc560e01b815260048101929092523060248301526044820188905286908290606490829084905af180156107ed57879187916108b2575b50506106d991600435611627565b806106e6575b80806105da565b600480546040516313064e1b60e21b81526001600160a01b03909116918390602090839081865afa918215610863578892610876575b50811061086e575b5081610731575b506106df565b60085460405163a9059cbb60e01b81526001600160a01b03928316600482015260248101849052959650919491602091839160449183918d91165af1908115610863578891610834575b50156107f85760045487956001600160a01b0390911693843b156105a3578694602486926040519788938492631b8fec7360e11b845260048401525af19384156107ed5786946107d1575b81965094939461072b565b6107dd909491946114a0565b6107e9578492386107c6565b8480fd5b6040513d88823e3d90fd5b60405162461bcd60e51b81526020600482015260146024820152731d5cd918c81d1c985b9cd9995c8819985a5b195960621b6044820152606490fd5b610856915060203d60201161085c575b61084e81836114ca565b8101906114ec565b3861077b565b503d610844565b6040513d8a823e3d90fd5b915038610724565b975090506020873d6020116108aa575b81610893602093836114ca565b810103126108a557899651903861071c565b600080fd5b3d9150610886565b6108bd9192506114a0565b6107e9578585386106cb565b965082966105d4565b9092506108f6915060603d81116108ff575b6108ee81836114ca565b81019061157f565b509091386104ac565b503d6108e4565b6040513d87823e3d90fd5b60405162461bcd60e51b815260206004820152600c60248201526b1b9bdd081d5b9b1bd8dad95960a21b6044820152606490fd5b50346101be57806003193601126101be576020600654604051908152f35b50346101be57806003193601126101be57546040516001600160a01b039091168152602090f35b50346101be5760403660031901126101be576004356024356109aa611504565b6109b2611525565b8183526020600a81526040842091600583016109d160ff8254166115e3565b83546001600160a01b039081163303610b75576109ef831515611548565b868482600854166064846004541660405194859384926323b872dd60e01b845233600485015260248401528960448401525af1908115610863578891610b58575b5015610b2157869060045416803b15610b1d57818091602460405180948193631b8fec7360e11b83528960048401525af18015610b1257610afe575b508460027f040cee90ee4799897c30ca04e5feb6fa43dbba9b6d084b4b257cdafd84ba013e9601600181549201918254918682811015600014610aee57509084610ab792558661161a565b90808210610ad957505055805460ff191690555b604051908152a26001805580f35b90919350610ae7925061161a565b9055610acb565b935094509050610ae7925061161a565b610b0882916114a0565b6101be5738610a6c565b6040513d84823e3d90fd5b5080fd5b60405162461bcd60e51b815260048101859052600f60248201526e1d1c985b9cd9995c8819985a5b1959608a1b6044820152606490fd5b610b6f9150853d871161085c5761084e81836114ca565b38610a30565b60405162461bcd60e51b815260048101859052600c60248201526b3737ba103137b93937bbb2b960a11b6044820152606490fd5b50346101be57806003193601126101be57610bc2611474565b610bca611504565b805460ff60a01b1916600160a01b1781556040513381527f62e78cea01bee320cd4e420270b5ea74000d11b0c9f74754ebdbfc544b05a25890602090a180f35b50346101be57806003193601126101be576007546040516001600160a01b039091168152602090f35b50346101be57806003193601126101be57610c4c611474565b600080546001600160a01b0319811682556001600160a01b03167f8be0079c531659141344cd1fd0a4f28419497f9722a3daafe3b4186f6b6457e08280a380f35b50346101be57806003193601126101be5760ff6020915460a01c166040519015158152f35b50346101be57806003193601126101be576020600954604051908152f35b50346101be5760403660031901126101be57610cea61145e565b602435610cf5611474565b6107d08111610d5757600580546001600160a01b0319166001600160a01b0393909316928317905560068190556040805192835260208301919091527f4e9c2c9d7ce2ff823cab7f6f0dedfb36ea1f4e5be270f6c13ae74c65fb6c63bf91a180f35b60405162461bcd60e51b815260206004820152600e60248201526d0c4dedee6e840e8dede40d0d2ced60931b6044820152606490fd5b50346101be57806003193601126101be57610da6611474565b805460ff8160a01c1615610dec5760ff60a01b191681556040513381527f5db9ee0a495bf2e6ff9c91a7834c1ba4fdd244a5e8aa4e537bd38aeae4b073aa90602090a180f35b604051638dfc202b60e01b8152600490fd5b50346101be57806003193601126101be576008546040516001600160a01b039091168152602090f35b50346101be57806003193601126101be576002546040516001600160a01b039091168152602090f35b50346101be5760603660031901126101be576001600160a01b03602480358281169260043592918490036107e9578460443594610e8b611504565b610e93611525565b610e9e861515611548565b8260035416803b156105945760648392604051948593849263795a170960e11b84528a6004850152898401523360448401525af180156107ed57611236575b5081606082600354166040519485809263b93a89f760e01b82528860048301525afa80156107ed57610f5a93879088908993611212575b50600254604080516317fb08f560e31b815260048101949094526001600160a01b0390921660248401526044830184905291959091869190861690829081906064820190565b03915afa93841561120757879088956111cd575b508490338952602095600c875260ff60408b205416806111c2575b61119f575b50610f9d6127109283926115d0565b04871161116d576004858582541660405192838092633fceb09960e21b82525afa8015611162578990611133575b610fd69150886115d0565b0490600b54956040519260c0840184811067ffffffffffffffff82111761111e5791600593918b95936040523384528884018b815260408501918252606085019283526080850193845288604060a087019860018a528d8152600a8d52209551166001600160601b0360a01b865416178555516001850155516002840155516003830155516004820155019051151560ff80198354169116179055600b54906001820180921161110c5750600b55600454859116803b15610b1d5760405163a2fb342d60e01b8152336004820152602481018690529082908290604490829084905af18015610b12576110f8575b50507f8910ba13a55695f056e224bbbc6b65d866b12a8c2fbdf387fb853a1cca298cd7906040519384523393a36001805580f35b611101906114a0565b6104075783386110c4565b634e487b7160e01b8752601160045286fd5b85634e487b7160e01b60005260416004526000fd5b508581813d831161115b575b61114981836114ca565b810103126108a557610fd69051610fcb565b503d61113f565b6040513d8b823e3d90fd5b60405162461bcd60e51b815260048101869052600b818501526a32bc31b2b2b23990262a2b60a91b6044820152606490fd5b6111ae919250600654906115ad565b9061271080831115610f8e57915038610f8e565b506006541515610f89565b9450506040843d6040116111ff575b816111e9604093836114ca565b810103126105a357602084519401519338610f6e565b3d91506111dc565b6040513d89823e3d90fd5b905060409250611230915060603d81116108ff576108ee81836114ca565b92610f14565b611242909591956114a0565b9338610edd565b50346101be57806003193601126101be576004546040516001600160a01b039091168152602090f35b50346101be57602090816003193601126101be5767ffffffffffffffff6004358181116105945736602382011215610594578060040135918211610594573660248383010111610594576112c4611504565b6112cc611525565b6005546001600160a01b03169081156113e0578491602485606486946040519788968795869363058b23cd60e41b855233600486015260408286015282604486015201848401378181018301849052601f01601f191681010301925af1908115610b125782916113c3575b501561138e57604090338152600c835220600160ff198254161790556006546040519081527f60b66827d6b8dc4c21c455ee1239c41dffbc94e0604392a84cdea38f8f76fd59823392a26001805560405160018152f35b60405162461bcd60e51b815260048101839052600d60248201526c34b73b30b634b210383937b7b360991b6044820152606490fd5b6113da9150833d851161085c5761084e81836114ca565b38611337565b60405162461bcd60e51b815260048101869052600b60248201526a3737903b32b934b334b2b960a91b6044820152606490fd5b50346101be57806003193601126101be57602062ffffff60085460a01c16604051908152f35b905034610b1d5781600319360112610b1d576003546001600160a01b03168152602090f35b600435906001600160a01b03821682036108a557565b6000546001600160a01b0316330361148857565b60405163118cdaa760e01b8152336004820152602490fd5b67ffffffffffffffff81116114b457604052565b634e487b7160e01b600052604160045260246000fd5b90601f8019910116810190811067ffffffffffffffff8211176114b457604052565b908160209103126108a5575180151581036108a55790565b60ff60005460a01c1661151357565b60405163d93c066560e01b8152600490fd5b600260015414611536576002600155565b604051633ee5aeb560e01b8152600490fd5b1561154f57565b60405162461bcd60e51b81526020600482015260086024820152670616d6f756e743d360c41b6044820152606490fd5b908160609103126108a557805160208201519092906001600160a01b03811681036108a55760409092015190565b919082018092116115ba57565b634e487b7160e01b600052601160045260246000fd5b818102929181159184041417156115ba57565b156115ea57565b60405162461bcd60e51b8152602060048201526008602482015267696e61637469766560c01b6044820152606490fd5b919082039182116115ba57565b6007549293929091906001600160a01b03168015611aa15760405163095ea7b360e01b81526001600160a01b03918216600482015260248101869052600095939291602090829060449082908a9087165af180156107ed57611a82575b50600254604051633a0df78d60e11b815290602090829060049082906001600160a01b03165afa9081156107ed578691611a53575b50604051633fabe5a360e21b81526001600160a01b03919091169060a081600481855afa908115611207578791611a20575b506116f7878213611b15565b6040519160208360048163313ce56760e01b948582525afa9283156108635788936119ff575b50604051818152906020826004816001600160a01b0389165afa9182156111625789926119de575b50600854604051918252936020826004816001600160a01b0389165afa9081156119d357612710946117b2946117a9948d94611990575b506117976117a39261179061179d93611b66565b908d611b77565b93611b66565b91611b66565b91611b77565b600954906115d0565b0461012c42019081421161197c5760405191610100830183811067ffffffffffffffff8211176119685790602093929160405260018060a01b038616835260018060a01b0385168484015262ffffff809560a01c16604084015230606084015260808301528660a083015260c08201528760e082015261010460018060a01b03600754169389604051958694859363414bf38960e01b855260018060a01b03825116600486015260018060a01b0388830151166024860152604082015116604485015260018060a01b0360608201511660648501526080810151608485015260a081015160a485015260c081015160c485015260e060018060a01b039101511660e48401525af195861561195c578096611904575b505060407fde2f91861847a1451d81a38725e38c8a517405db456a0d947e7ac3cfa6c0aaf791868251958652602086015260018060a01b031693a3565b909195506020823d602011611954575b81611921602093836114ca565b810103126101be5750519360407fde2f91861847a1451d81a38725e38c8a517405db456a0d947e7ac3cfa6c0aaf76118c7565b3d9150611914565b604051903d90823e3d90fd5b634e487b7160e01b8a52604160045260248afd5b634e487b7160e01b88526011600452602488fd5b61179d9194506117a3926117906119c16117979360203d6020116119cc575b6119b981836114ca565b810190611b4d565b96935050925061177c565b503d6119af565b6040513d8c823e3d90fd5b6119f891925060203d6020116119cc576119b981836114ca565b9038611745565b611a1991935060203d6020116119cc576119b981836114ca565b913861171d565b611a41915060a03d8111611a4c575b611a3981836114ca565b810190611ae0565b5050509050386116eb565b503d611a2f565b611a75915060203d602011611a7b575b611a6d81836114ca565b810190611aaa565b386116b9565b503d611a63565b611a9a9060203d60201161085c5761084e81836114ca565b5038611684565b50600093505050565b908160209103126108a557516001600160a01b03811681036108a55790565b519069ffffffffffffffffffff821682036108a557565b908160a09103126108a557611af481611ac9565b91602082015191604081015191611b12608060608401519301611ac9565b90565b15611b1c57565b60405162461bcd60e51b815260206004820152600960248201526862616420707269636560b81b6044820152606490fd5b908160209103126108a5575160ff811681036108a55790565b60ff16604d81116115ba57600a0a90565b90916000198383099280830292838086109503948086039514611c075784831115611bee579082910981600003821680920460028082600302188083028203028083028203028083028203028083028203028083028203028092029003029360018380600003040190848311900302920304170290565b82634e487b71600052156003026011186020526024601cfd5b505080925015611c15570490565b634e487b7160e01b600052601260045260246000fd5b6008549192916001600160a01b03918216908216818114611e0c5782600254169260409081518095633a0df78d60e11b825281600460209889935afa908115611de457600091611def575b501691815194633fabe5a360e21b865260a086600481875afa958615611de457600096611dbf575b50611cab60008713611b15565b825193818560048163313ce56760e01b948582525afa948515611db457600095611d90575b508184959660049551958680928582525afa938415611d8557600094611d64575b508190600486518095819382525afa938415611d5a57509261179d92611b12979892611d2d95600093611d33575b505061179d6117a391611b66565b90611b77565b6117a392935061179d9181611d5392903d106119cc576119b981836114ca565b9291611d1f565b513d6000823e3d90fd5b82919450611d7e90823d84116119cc576119b981836114ca565b9390611cf1565b85513d6000823e3d90fd5b6004949550611dac8391823d84116119cc576119b981836114ca565b959450611cd0565b84513d6000823e3d90fd5b611dd891965060a03d8111611a4c57611a3981836114ca565b50505090509438611c9e565b83513d6000823e3d90fd5b611e069150863d8811611a7b57611a6d81836114ca565b38611c76565b50505056fea26469706673582212204e0ec0d66ad338a400b1881f0039236f2df2dbf054fca15ffdf701eb0d6a194464736f6c63430008140033",
  "linkReferences": {},
  "deployedLinkReferences": {}
}