{
  "address": "0x7b0B2268bdd8D9D586CB58f6Cc65076D543EB115",
  "abi": [
    {
      "anonymous": false,
      "inputs": [
        {
          "indexed": true,
          "internalType": "address",
          "name": "user",
          "type": "address"
        },
        {
          "indexed": false,
          "internalType": "bytes",
          "name": "proof",
          "type": "bytes"
        }
      ],
      "name": "ProofSubmitted",
      "type": "event"
    },
    {
      "inputs": [
        {
          "internalType": "address",
          "name": "user",
          "type": "address"
        }
      ],
      "name": "isVerified",
      "outputs": [
        {
          "internalType": "bool",
          "name": "",
          "type": "bool"
        }
      ],
      "stateMutability": "view",
      "type": "function"
    },
    {
      "inputs": [
        {
          "internalType": "address",
          "name": "",
          "type": "address"
        }
      ],
      "name": "verified",
      "outputs": [
        {
          "internalType": "bool",
          "name": "",
          "type": "bool"
        }
      ],
      "stateMutability": "view",
      "type": "function"
    },
    {
      "inputs": [
        {
          "internalType": "address",
          "name": "user",
          "type": "address"
        },
        {
          "internalType": "bytes",
          "name": "proof",
          "type": "bytes"
        }
      ],
      "name": "verifyProof",
      "outputs": [
        {
          "internalType": "bool",
          "name": "",
          "type": "bool"
        }
      ],
      "stateMutability": "nonpayable",
      "type": "function"
    }
  ],
  "transactionHash": "0x14d427e789f13925133a70a105b7504497cc7342244c57275b7096f1fc9c442f",
  "args": [],
  "numDeployments": 1,
  "solcInputHash": "5a0dbf365cd93218019dd0b1bec0607e",
  "bytecode": "0x6080806040523461001657610202908161001c8239f35b600080fdfe60806040818152600436101561001457600080fd5b600091823560e01c9081630db065f4146100f05750806358b23cd0146100825763b9209e331461004357600080fd5b3461007e57602036600319011261007e5760209160ff9082906001600160a01b0361006c61012e565b16815280855220541690519015158152f35b5080fd5b503461007e578060031936011261007e5761009b61012e565b60243567ffffffffffffffff938482116100ed57366023830112156100ed5781600401359485116100ed5736602486840101116100ed5750926100e49160246020950190610149565b90519015158152f35b80fd5b9190503461012a57602036600319011261012a5760209260ff91906001600160a01b0361011b61012e565b16815280855220541615158152f35b8280fd5b600435906001600160a01b038216820361014457565b600080fd5b909180156101c45760407fbd954cf27c1d4dfe72558701f7c657edbb5f946ac5f89715903a45265689432f9260018060a01b03169384600052600060205281600020600160ff1982541617905582825193849260208452816020850152848401376000828201840152601f01601f19168101030190a2600190565b50505060009056fea264697066735822122065e43c47088726dc8a52129a4661f72df9b973b836012b1870c2b3f2dce461ff64736f6c63430008140033",
  "devdoc": {
    "kind": "dev",
    "methods": {},
    "version": 1
  },
  "userdoc": {
    "kind": "user",
    "methods": {},
    "notice": "Mock verifier that simulates Semaphore-style proof checks. This is intentionally permissive for testnets and demos.",
    "version": 1
  },
  "storageLayout": {
    "storage": [
      {
        "astId": 3208,
        "contract": "contracts/IdentityVerifierMock.sol:IdentityVerifierMock",
        "label": "verified",
        "offset": 0,
        "slot": "0",
        "type": "t_mapping(t_address,t_bool)"
      }
    ],
    "types": {
      "t_address": {
        "encoding": "inplace",
        "label": "address",
        "numberOfBytes": "20"
      },
      "t_bool": {
        "encoding": "inplace",
        "label": "bool",
        "numberOfBytes": "1"
      },
      "t_mapping(t_address,t_bool)": {
        "encoding": "mapping",
        "key": "t_address",
        "label": "mapping(address => bool)",
        "numberOfBytes": "32",
        "value": "t_bool"
      }
    }
  }
}