{
  "address": "0x0914E18f160700d9ee70d0584F5E869e4CA2b6b6",
  "abi": [
    {
      "inputs": [
        {
          "internalType": "address",
          "name": "_usdc",
          "type": "address"
        },
        {
          "internalType": "address",
          "name": "_initialGovernor",
          "type": "address"
        }
      ],
      "stateMutability": "nonpayable",
      "type": "constructor"
    },
    {
      "inputs": [],
      "name": "AccessControlBadConfirmation",
      "type": "error"
    },
    {
      "inputs": [
        {
          "internalType": "address",
          "name": "account",
          "type": "address"
        },
        {
          "internalType": "bytes32",
          "name": "neededRole",
          "type": "bytes32"
        }
      ],
      "name": "AccessControlUnauthorizedAccount",
      "type": "error"
    },
    {
      "inputs": [],
      "name": "EnforcedPause",
      "type": "error"
    },
    {
      "inputs": [],
      "name": "ExpectedPause",
      "type": "error"
    },
    {
      "inputs": [],
      "name": "ReentrancyGuardReentrantCall",
      "type": "error"
    },
    {
      "inputs": [
        {
          "internalType": "address",
          "name": "token",
          "type": "address"
        }
      ],
      "name": "SafeERC20FailedOperation",
      "type": "error"
    },
    {
      "anonymous": false,
      "inputs": [
        {
          "indexed": false,
          "internalType": "bool",
          "name": "enabled",
          "type": "bool"
        },
        {
          "indexed": false,
          "internalType": "uint256",
          "name": "delaySeconds",
          "type": "uint256"
        }
      ],
      "name": "AdminTimelockConfigUpdated",
      "type": "event"
    },
    {
      "anonymous": false,
      "inputs": [
        {
          "indexed": true,
          "internalType": "uint256",
          "name": "poolId",
          "type": "uint256"
        },
        {
          "indexed": false,
          "internalType": "uint256",
          "name": "amountMovedToLiquidity",
          "type": "uint256"
        }
      ],
      "name": "CommunityPoolActivated",
      "type": "event"
    },
    {
      "anonymous": false,
      "inputs": [
        {
          "indexed": true,
          "internalType": "uint256",
          "name": "poolId",
          "type": "uint256"
        }
      ],
      "name": "CommunityPoolClosed",
      "type": "event"
    },
    {
      "anonymous": false,
      "inputs": [
        {
          "indexed": true,
          "internalType": "uint256",
          "name": "poolId",
          "type": "uint256"
        },
        {
          "indexed": true,
          "internalType": "address",
          "name": "contributor",
          "type": "address"
        },
        {
          "indexed": false,
          "internalType": "uint256",
          "name": "amount",
          "type": "uint256"
        },
        {
          "indexed": false,
          "internalType": "uint256",
          "name": "buildingUnits",
          "type": "uint256"
        }
      ],
      "name": "CommunityPoolContribution",
      "type": "event"
    },
    {
      "anonymous": false,
      "inputs": [
        {
          "indexed": true,
          "internalType": "uint256",
          "name": "poolId",
          "type": "uint256"
        },
        {
          "indexed": true,
          "internalType": "address",
          "name": "creator",
          "type": "address"
        },
        {
          "indexed": false,
          "internalType": "string",
          "name": "name",
          "type": "string"
        },
        {
          "indexed": false,
          "internalType": "uint256",
          "name": "targetAmount",
          "type": "uint256"
        },
        {
          "indexed": false,
          "internalType": "uint256",
          "name": "maxAmount",
          "type": "uint256"
        },
        {
          "indexed": false,
          "internalType": "uint256",
          "name": "deadline",
          "type": "uint256"
        },
        {
          "indexed": false,
          "internalType": "bool",
          "name": "rewardsByBuildingSize",
          "type": "bool"
        }
      ],
      "name": "CommunityPoolCreated",
      "type": "event"
    },
    {
      "anonymous": false,
      "inputs": [
        {
          "indexed": true,
          "internalType": "uint256",
          "name": "poolId",
          "type": "uint256"
        }
      ],
      "name": "CommunityPoolMarkedRefunding",
      "type": "event"
    },
    {
      "anonymous": false,
      "inputs": [
        {
          "indexed": true,
          "internalType": "uint256",
          "name": "poolId",
          "type": "uint256"
        },
        {
          "indexed": true,
          "internalType": "address",
          "name": "contributor",
          "type": "address"
        },
        {
          "indexed": false,
          "internalType": "uint256",
          "name": "amount",
          "type": "uint256"
        }
      ],
      "name": "CommunityPoolRefunded",
      "type": "event"
    },
    {
      "anonymous": false,
      "inputs": [
        {
          "indexed": true,
          "internalType": "uint256",
          "name": "poolId",
          "type": "uint256"
        },
        {
          "indexed": true,
          "internalType": "address",
          "name": "contributor",
          "type": "address"
        },
        {
          "indexed": false,
          "internalType": "uint256",
          "name": "amount",
          "type": "uint256"
        }
      ],
      "name": "CommunityPoolRewardsClaimed",
      "type": "event"
    },
    {
      "anonymous": false,
      "inputs": [
        {
          "indexed": true,
          "internalType": "uint256",
          "name": "poolId",
          "type": "uint256"
        },
        {
          "indexed": true,
          "internalType": "address",
          "name": "funder",
          "type": "address"
        },
        {
          "indexed": false,
          "internalType": "uint256",
          "name": "amount",
          "type": "uint256"
        }
      ],
      "name": "CommunityPoolRewardsFunded",
      "type": "event"
    },
    {
      "anonymous": false,
      "inputs": [
        {
          "indexed": true,
          "internalType": "address",
          "name": "coprocessor",
          "type": "address"
        }
      ],
      "name": "CoprocessorUpdated",
      "type": "event"
    },
    {
      "anonymous": false,
      "inputs": [
        {
          "indexed": false,
          "internalType": "address",
          "name": "governor",
          "type": "address"
        }
      ],
      "name": "GovernanceInitialised",
      "type": "event"
    },
    {
      "anonymous": false,
      "inputs": [],
      "name": "LoanManagerQueueCancelled",
      "type": "event"
    },
    {
      "anonymous": false,
      "inputs": [
        {
          "indexed": true,
          "internalType": "address",
          "name": "manager",
          "type": "address"
        },
        {
          "indexed": false,
          "internalType": "uint256",
          "name": "executeAfter",
          "type": "uint256"
        }
      ],
      "name": "LoanManagerQueued",
      "type": "event"
    },
    {
      "anonymous": false,
      "inputs": [
        {
          "indexed": true,
          "internalType": "address",
          "name": "loanManager",
          "type": "address"
        }
      ],
      "name": "LoanManagerUpdated",
      "type": "event"
    },
    {
      "anonymous": false,
      "inputs": [
        {
          "indexed": false,
          "internalType": "address",
          "name": "account",
          "type": "address"
        }
      ],
      "name": "Paused",
      "type": "event"
    },
    {
      "anonymous": false,
      "inputs": [
        {
          "indexed": false,
          "internalType": "uint256",
          "name": "windowEndTime",
          "type": "uint256"
        }
      ],
      "name": "RagequitTriggered",
      "type": "event"
    },
    {
      "anonymous": false,
      "inputs": [],
      "name": "RateModelCancelled",
      "type": "event"
    },
    {
      "anonymous": false,
      "inputs": [
        {
          "indexed": false,
          "internalType": "uint256",
          "name": "lowThresholdBps",
          "type": "uint256"
        },
        {
          "indexed": false,
          "internalType": "uint256",
          "name": "highThresholdBps",
          "type": "uint256"
        },
        {
          "indexed": false,
          "internalType": "uint256",
          "name": "lowRateBps",
          "type": "uint256"
        },
        {
          "indexed": false,
          "internalType": "uint256",
          "name": "midRateBps",
          "type": "uint256"
        },
        {
          "indexed": false,
          "internalType": "uint256",
          "name": "highRateBps",
          "type": "uint256"
        },
        {
          "indexed": false,
          "internalType": "uint256",
          "name": "executeAfter",
          "type": "uint256"
        }
      ],
      "name": "RateModelQueued",
      "type": "event"
    },
    {
      "anonymous": false,
      "inputs": [
        {
          "indexed": false,
          "internalType": "uint256",
          "name": "lowThresholdBps",
          "type": "uint256"
        },
        {
          "indexed": false,
          "internalType": "uint256",
          "name": "highThresholdBps",
          "type": "uint256"
        },
        {
          "indexed": false,
          "internalType": "uint256",
          "name": "lowRateBps",
          "type": "uint256"
        },
        {
          "indexed": false,
          "internalType": "uint256",
          "name": "midRateBps",
          "type": "uint256"
        },
        {
          "indexed": false,
          "internalType": "uint256",
          "name": "highRateBps",
          "type": "uint256"
        }
      ],
      "name": "RateModelUpdated",
      "type": "event"
    },
    {
      "anonymous": false,
      "inputs": [
        {
          "indexed": true,
          "internalType": "bytes32",
          "name": "role",
          "type": "bytes32"
        },
        {
          "indexed": true,
          "internalType": "bytes32",
          "name": "previousAdminRole",
          "type": "bytes32"
        },
        {
          "indexed": true,
          "internalType": "bytes32",
          "name": "newAdminRole",
          "type": "bytes32"
        }
      ],
      "name": "RoleAdminChanged",
      "type": "event"
    },
    {
      "anonymous": false,
      "inputs": [
        {
          "indexed": true,
          "internalType": "bytes32",
          "name": "role",
          "type": "bytes32"
        },
        {
          "indexed": true,
          "internalType": "address",
          "name": "account",
          "type": "address"
        },
        {
          "indexed": true,
          "internalType": "address",
          "name": "sender",
          "type": "address"
        }
      ],
      "name": "RoleGranted",
      "type": "event"
    },
    {
      "anonymous": false,
      "inputs": [
        {
          "indexed": true,
          "internalType": "bytes32",
          "name": "role",
          "type": "bytes32"
        },
        {
          "indexed": true,
          "internalType": "address",
          "name": "account",
          "type": "address"
        },
        {
          "indexed": true,
          "internalType": "address",
          "name": "sender",
          "type": "address"
        }
      ],
      "name": "RoleRevoked",
      "type": "event"
    },
    {
      "anonymous": false,
      "inputs": [],
      "name": "TreasuryConfigCancelled",
      "type": "event"
    },
    {
      "anonymous": false,
      "inputs": [
        {
          "indexed": false,
          "internalType": "address",
          "name": "issuanceTreasury",
          "type": "address"
        },
        {
          "indexed": false,
          "internalType": "address",
          "name": "returnsTreasury",
          "type": "address"
        },
        {
          "indexed": false,
          "internalType": "uint256",
          "name": "executeAfter",
          "type": "uint256"
        }
      ],
      "name": "TreasuryConfigQueued",
      "type": "event"
    },
    {
      "anonymous": false,
      "inputs": [
        {
          "indexed": false,
          "internalType": "address",
          "name": "issuanceTreasury",
          "type": "address"
        },
        {
          "indexed": false,
          "internalType": "address",
          "name": "returnsTreasury",
          "type": "address"
        }
      ],
      "name": "TreasuryConfigUpdated",
      "type": "event"
    },
    {
      "anonymous": false,
      "inputs": [
        {
          "indexed": false,
          "internalType": "address",
          "name": "account",
          "type": "address"
        }
      ],
      "name": "Unpaused",
      "type": "event"
    },
    {
      "anonymous": false,
      "inputs": [
        {
          "indexed": false,
          "internalType": "string",
          "name": "reason",
          "type": "string"
        }
      ],
      "name": "UpgradeVetoed",
      "type": "event"
    },
    {
      "inputs": [],
      "name": "BPS_DENOMINATOR",
      "outputs": [
        {
          "internalType": "uint256",
          "name": "",
          "type": "uint256"
        }
      ],
      "stateMutability": "view",
      "type": "function"
    },
    {
      "inputs": [],
      "name": "DEFAULT_ADMIN_ROLE",
      "outputs": [
        {
          "internalType": "bytes32",
          "name": "",
          "type": "bytes32"
        }
      ],
      "stateMutability": "view",
      "type": "function"
    },
    {
      "inputs": [],
      "name": "GOVERNOR_ROLE",
      "outputs": [
        {
          "internalType": "bytes32",
          "name": "",
          "type": "bytes32"
        }
      ],
      "stateMutability": "view",
      "type": "function"
    },
    {
      "inputs": [],
      "name": "GUARDIAN_ROLE",
      "outputs": [
        {
          "internalType": "bytes32",
          "name": "",
          "type": "bytes32"
        }
      ],
      "stateMutability": "view",
      "type": "function"
    },
    {
      "inputs": [],
      "name": "PAUSER_ROLE",
      "outputs": [
        {
          "internalType": "bytes32",
          "name": "",
          "type": "bytes32"
        }
      ],
      "stateMutability": "view",
      "type": "function"
    },
    {
      "inputs": [],
      "name": "REWARD_PRECISION",
      "outputs": [
        {
          "internalType": "uint256",
          "name": "",
          "type": "uint256"
        }
      ],
      "stateMutability": "view",
      "type": "function"
    },
    {
      "inputs": [
        {
          "internalType": "uint256",
          "name": "poolId",
          "type": "uint256"
        }
      ],
      "name": "activateCommunityPool",
      "outputs": [],
      "stateMutability": "nonpayable",
      "type": "function"
    },
    {
      "inputs": [],
      "name": "adminTimelockDelay",
      "outputs": [
        {
          "internalType": "uint256",
          "name": "",
          "type": "uint256"
        }
      ],
      "stateMutability": "view",
      "type": "function"
    },
    {
      "inputs": [],
      "name": "adminTimelockEnabled",
      "outputs": [
        {
          "internalType": "bool",
          "name": "",
          "type": "bool"
        }
      ],
      "stateMutability": "view",
      "type": "function"
    },
    {
      "inputs": [],
      "name": "availableLiquidity",
      "outputs": [
        {
          "internalType": "uint256",
          "name": "",
          "type": "uint256"
        }
      ],
      "stateMutability": "view",
      "type": "function"
    },
    {
      "inputs": [],
      "name": "cancelQueuedLoanManager",
      "outputs": [],
      "stateMutability": "nonpayable",
      "type": "function"
    },
    {
      "inputs": [],
      "name": "cancelQueuedRateModel",
      "outputs": [],
      "stateMutability": "nonpayable",
      "type": "function"
    },
    {
      "inputs": [],
      "name": "cancelQueuedTreasuries",
      "outputs": [],
      "stateMutability": "nonpayable",
      "type": "function"
    },
    {
      "inputs": [
        {
          "internalType": "uint256",
          "name": "poolId",
          "type": "uint256"
        }
      ],
      "name": "claimCommunityPoolRefund",
      "outputs": [],
      "stateMutability": "nonpayable",
      "type": "function"
    },
    {
      "inputs": [
        {
          "internalType": "uint256",
          "name": "poolId",
          "type": "uint256"
        }
      ],
      "name": "claimCommunityPoolRewards",
      "outputs": [],
      "stateMutability": "nonpayable",
      "type": "function"
    },
    {
      "inputs": [
        {
          "internalType": "address",
          "name": "to",
          "type": "address"
        },
        {
          "internalType": "uint256",
          "name": "amount",
          "type": "uint256"
        }
      ],
      "name": "claimInsurance",
      "outputs": [],
      "stateMutability": "nonpayable",
      "type": "function"
    },
    {
      "inputs": [
        {
          "internalType": "uint256",
          "name": "poolId",
          "type": "uint256"
        }
      ],
      "name": "closeCommunityPool",
      "outputs": [],
      "stateMutability": "nonpayable",
      "type": "function"
    },
    {
      "inputs": [],
      "name": "communityPoolCount",
      "outputs": [
        {
          "internalType": "uint256",
          "name": "",
          "type": "uint256"
        }
      ],
      "stateMutability": "view",
      "type": "function"
    },
    {
      "inputs": [
        {
          "internalType": "uint256",
          "name": "",
          "type": "uint256"
        }
      ],
      "name": "communityPools",
      "outputs": [
        {
          "internalType": "string",
          "name": "name",
          "type": "string"
        },
        {
          "internalType": "address",
          "name": "creator",
          "type": "address"
        },
        {
          "internalType": "uint256",
          "name": "targetAmount",
          "type": "uint256"
        },
        {
          "internalType": "uint256",
          "name": "maxAmount",
          "type": "uint256"
        },
        {
          "internalType": "uint256",
          "name": "deadline",
          "type": "uint256"
        },
        {
          "internalType": "uint256",
          "name": "totalContributed",
          "type": "uint256"
        },
        {
          "internalType": "uint256",
          "name": "totalBuildingUnits",
          "type": "uint256"
        },
        {
          "internalType": "uint256",
          "name": "participantCount",
          "type": "uint256"
        },
        {
          "internalType": "uint256",
          "name": "accRewardPerWeight",
          "type": "uint256"
        },
        {
          "internalType": "uint256",
          "name": "totalRewardFunded",
          "type": "uint256"
        },
        {
          "internalType": "bool",
          "name": "rewardsByBuildingSize",
          "type": "bool"
        },
        {
          "internalType": "enum LendingPool.CommunityPoolState",
          "name": "state",
          "type": "uint8"
        }
      ],
      "stateMutability": "view",
      "type": "function"
    },
    {
      "inputs": [
        {
          "internalType": "uint256",
          "name": "",
          "type": "uint256"
        },
        {
          "internalType": "address",
          "name": "",
          "type": "address"
        }
      ],
      "name": "communityPositions",
      "outputs": [
        {
          "internalType": "uint256",
          "name": "contributed",
          "type": "uint256"
        },
        {
          "internalType": "uint256",
          "name": "buildingUnits",
          "type": "uint256"
        },
        {
          "internalType": "uint256",
          "name": "rewardDebt",
          "type": "uint256"
        },
        {
          "internalType": "uint256",
          "name": "pendingRewards",
          "type": "uint256"
        },
        {
          "internalType": "bool",
          "name": "joined",
          "type": "bool"
        }
      ],
      "stateMutability": "view",
      "type": "function"
    },
    {
      "inputs": [
        {
          "internalType": "uint256",
          "name": "poolId",
          "type": "uint256"
        },
        {
          "internalType": "uint256",
          "name": "amount",
          "type": "uint256"
        },
        {
          "internalType": "uint256",
          "name": "buildingUnits",
          "type": "uint256"
        }
      ],
      "name": "contributeToCommunityPool",
      "outputs": [],
      "stateMutability": "nonpayable",
      "type": "function"
    },
    {
      "inputs": [],
      "name": "coprocessor",
      "outputs": [
        {
          "internalType": "address",
          "name": "",
          "type": "address"
        }
      ],
      "stateMutability": "view",
      "type": "function"
    },
    {
      "inputs": [
        {
          "internalType": "string",
          "name": "name",
          "type": "string"
        },
        {
          "internalType": "uint256",
          "name": "targetAmount",
          "type": "uint256"
        },
        {
          "internalType": "uint256",
          "name": "maxAmount",
          "type": "uint256"
        },
        {
          "internalType": "uint256",
          "name": "deadline",
          "type": "uint256"
        },
        {
          "internalType": "bool",
          "name": "rewardsByBuildingSize",
          "type": "bool"
        }
      ],
      "name": "createCommunityPool",
      "outputs": [
        {
          "internalType": "uint256",
          "name": "poolId",
          "type": "uint256"
        }
      ],
      "stateMutability": "nonpayable",
      "type": "function"
    },
    {
      "inputs": [
        {
          "internalType": "uint256",
          "name": "amount",
          "type": "uint256"
        }
      ],
      "name": "deposit",
      "outputs": [],
      "stateMutability": "nonpayable",
      "type": "function"
    },
    {
      "inputs": [
        {
          "internalType": "address",
          "name": "",
          "type": "address"
        }
      ],
      "name": "deposits",
      "outputs": [
        {
          "internalType": "uint256",
          "name": "",
          "type": "uint256"
        }
      ],
      "stateMutability": "view",
      "type": "function"
    },
    {
      "inputs": [],
      "name": "executeQueuedLoanManager",
      "outputs": [],
      "stateMutability": "nonpayable",
      "type": "function"
    },
    {
      "inputs": [],
      "name": "executeQueuedRateModel",
      "outputs": [],
      "stateMutability": "nonpayable",
      "type": "function"
    },
    {
      "inputs": [],
      "name": "executeQueuedTreasuries",
      "outputs": [],
      "stateMutability": "nonpayable",
      "type": "function"
    },
    {
      "inputs": [
        {
          "internalType": "uint256",
          "name": "poolId",
          "type": "uint256"
        },
        {
          "internalType": "uint256",
          "name": "amount",
          "type": "uint256"
        }
      ],
      "name": "fundCommunityPoolRewards",
      "outputs": [],
      "stateMutability": "nonpayable",
      "type": "function"
    },
    {
      "inputs": [
        {
          "internalType": "uint256",
          "name": "durationDays",
          "type": "uint256"
        }
      ],
      "name": "getInterestRateBps",
      "outputs": [
        {
          "internalType": "uint256",
          "name": "",
          "type": "uint256"
        }
      ],
      "stateMutability": "view",
      "type": "function"
    },
    {
      "inputs": [
        {
          "internalType": "bytes32",
          "name": "role",
          "type": "bytes32"
        }
      ],
      "name": "getRoleAdmin",
      "outputs": [
        {
          "internalType": "bytes32",
          "name": "",
          "type": "bytes32"
        }
      ],
      "stateMutability": "view",
      "type": "function"
    },
    {
      "inputs": [
        {
          "internalType": "bytes32",
          "name": "role",
          "type": "bytes32"
        },
        {
          "internalType": "address",
          "name": "account",
          "type": "address"
        }
      ],
      "name": "grantRole",
      "outputs": [],
      "stateMutability": "nonpayable",
      "type": "function"
    },
    {
      "inputs": [
        {
          "internalType": "bytes32",
          "name": "role",
          "type": "bytes32"
        },
        {
          "internalType": "address",
          "name": "account",
          "type": "address"
        }
      ],
      "name": "hasRole",
      "outputs": [
        {
          "internalType": "bool",
          "name": "",
          "type": "bool"
        }
      ],
      "stateMutability": "view",
      "type": "function"
    },
    {
      "inputs": [],
      "name": "highUtilizationRateBps",
      "outputs": [
        {
          "internalType": "uint256",
          "name": "",
          "type": "uint256"
        }
      ],
      "stateMutability": "view",
      "type": "function"
    },
    {
      "inputs": [],
      "name": "highUtilizationThresholdBps",
      "outputs": [
        {
          "internalType": "uint256",
          "name": "",
          "type": "uint256"
        }
      ],
      "stateMutability": "view",
      "type": "function"
    },
    {
      "inputs": [],
      "name": "insuranceReserve",
      "outputs": [
        {
          "internalType": "uint256",
          "name": "",
          "type": "uint256"
        }
      ],
      "stateMutability": "view",
      "type": "function"
    },
    {
      "inputs": [],
      "name": "issuanceTreasury",
      "outputs": [
        {
          "internalType": "address",
          "name": "",
          "type": "address"
        }
      ],
      "stateMutability": "view",
      "type": "function"
    },
    {
      "inputs": [
        {
          "internalType": "address",
          "name": "to",
          "type": "address"
        },
        {
          "internalType": "uint256",
          "name": "amount",
          "type": "uint256"
        }
      ],
      "name": "lend",
      "outputs": [],
      "stateMutability": "nonpayable",
      "type": "function"
    },
    {
      "inputs": [],
      "name": "loanManager",
      "outputs": [
        {
          "internalType": "address",
          "name": "",
          "type": "address"
        }
      ],
      "stateMutability": "view",
      "type": "function"
    },
    {
      "inputs": [],
      "name": "lowUtilizationRateBps",
      "outputs": [
        {
          "internalType": "uint256",
          "name": "",
          "type": "uint256"
        }
      ],
      "stateMutability": "view",
      "type": "function"
    },
    {
      "inputs": [],
      "name": "lowUtilizationThresholdBps",
      "outputs": [
        {
          "internalType": "uint256",
          "name": "",
          "type": "uint256"
        }
      ],
      "stateMutability": "view",
      "type": "function"
    },
    {
      "inputs": [],
      "name": "midUtilizationRateBps",
      "outputs": [
        {
          "internalType": "uint256",
          "name": "",
          "type": "uint256"
        }
      ],
      "stateMutability": "view",
      "type": "function"
    },
    {
      "inputs": [],
      "name": "pause",
      "outputs": [],
      "stateMutability": "nonpayable",
      "type": "function"
    },
    {
      "inputs": [],
      "name": "paused",
      "outputs": [
        {
          "internalType": "bool",
          "name": "",
          "type": "bool"
        }
      ],
      "stateMutability": "view",
      "type": "function"
    },
    {
      "inputs": [
        {
          "internalType": "uint256",
          "name": "poolId",
          "type": "uint256"
        },
        {
          "internalType": "address",
          "name": "user",
          "type": "address"
        }
      ],
      "name": "pendingCommunityPoolRewards",
      "outputs": [
        {
          "internalType": "uint256",
          "name": "",
          "type": "uint256"
        }
      ],
      "stateMutability": "view",
      "type": "function"
    },
    {
      "inputs": [],
      "name": "pendingLoanManager",
      "outputs": [
        {
          "internalType": "address",
          "name": "manager",
          "type": "address"
        },
        {
          "internalType": "uint256",
          "name": "executeAfter",
          "type": "uint256"
        },
        {
          "internalType": "bool",
          "name": "exists",
          "type": "bool"
        }
      ],
      "stateMutability": "view",
      "type": "function"
    },
    {
      "inputs": [],
      "name": "pendingRateModel",
      "outputs": [
        {
          "internalType": "uint256",
          "name": "lowThresholdBps",
          "type": "uint256"
        },
        {
          "internalType": "uint256",
          "name": "highThresholdBps",
          "type": "uint256"
        },
        {
          "internalType": "uint256",
          "name": "lowRateBps",
          "type": "uint256"
        },
        {
          "internalType": "uint256",
          "name": "midRateBps",
          "type": "uint256"
        },
        {
          "internalType": "uint256",
          "name": "highRateBps",
          "type": "uint256"
        },
        {
          "internalType": "uint256",
          "name": "executeAfter",
          "type": "uint256"
        },
        {
          "internalType": "bool",
          "name": "exists",
          "type": "bool"
        }
      ],
      "stateMutability": "view",
      "type": "function"
    },
    {
      "inputs": [],
      "name": "pendingTreasuryConfig",
      "outputs": [
        {
          "internalType": "address",
          "name": "issuanceTreasury",
          "type": "address"
        },
        {
          "internalType": "address",
          "name": "returnsTreasury",
          "type": "address"
        },
        {
          "internalType": "uint256",
          "name": "executeAfter",
          "type": "uint256"
        },
        {
          "internalType": "bool",
          "name": "exists",
          "type": "bool"
        }
      ],
      "stateMutability": "view",
      "type": "function"
    },
    {
      "inputs": [
        {
          "internalType": "address",
          "name": "manager",
          "type": "address"
        }
      ],
      "name": "queueLoanManager",
      "outputs": [],
      "stateMutability": "nonpayable",
      "type": "function"
    },
    {
      "inputs": [
        {
          "internalType": "uint256",
          "name": "lowThresholdBps",
          "type": "uint256"
        },
        {
          "internalType": "uint256",
          "name": "highThresholdBps",
          "type": "uint256"
        },
        {
          "internalType": "uint256",
          "name": "lowRateBps",
          "type": "uint256"
        },
        {
          "internalType": "uint256",
          "name": "midRateBps",
          "type": "uint256"
        },
        {
          "internalType": "uint256",
          "name": "highRateBps",
          "type": "uint256"
        }
      ],
      "name": "queueRateModel",
      "outputs": [],
      "stateMutability": "nonpayable",
      "type": "function"
    },
    {
      "inputs": [
        {
          "internalType": "address",
          "name": "issuance",
          "type": "address"
        },
        {
          "internalType": "address",
          "name": "returnsAddr",
          "type": "address"
        }
      ],
      "name": "queueTreasuries",
      "outputs": [],
      "stateMutability": "nonpayable",
      "type": "function"
    },
    {
      "inputs": [],
      "name": "ragequitActive",
      "outputs": [
        {
          "internalType": "bool",
          "name": "",
          "type": "bool"
        }
      ],
      "stateMutability": "view",
      "type": "function"
    },
    {
      "inputs": [],
      "name": "ragequitEndTime",
      "outputs": [
        {
          "internalType": "uint256",
          "name": "",
          "type": "uint256"
        }
      ],
      "stateMutability": "view",
      "type": "function"
    },
    {
      "inputs": [
        {
          "internalType": "bytes32",
          "name": "role",
          "type": "bytes32"
        },
        {
          "internalType": "address",
          "name": "callerConfirmation",
          "type": "address"
        }
      ],
      "name": "renounceRole",
      "outputs": [],
      "stateMutability": "nonpayable",
      "type": "function"
    },
    {
      "inputs": [
        {
          "internalType": "uint256",
          "name": "amount",
          "type": "uint256"
        },
        {
          "internalType": "uint256",
          "name": "interestAmount",
          "type": "uint256"
        }
      ],
      "name": "repay",
      "outputs": [],
      "stateMutability": "nonpayable",
      "type": "function"
    },
    {
      "inputs": [],
      "name": "returnsTreasury",
      "outputs": [
        {
          "internalType": "address",
          "name": "",
          "type": "address"
        }
      ],
      "stateMutability": "view",
      "type": "function"
    },
    {
      "inputs": [
        {
          "internalType": "bytes32",
          "name": "role",
          "type": "bytes32"
        },
        {
          "internalType": "address",
          "name": "account",
          "type": "address"
        }
      ],
      "name": "revokeRole",
      "outputs": [],
      "stateMutability": "nonpayable",
      "type": "function"
    },
    {
      "inputs": [
        {
          "internalType": "bool",
          "name": "enabled",
          "type": "bool"
        },
        {
          "internalType": "uint256",
          "name": "delaySeconds",
          "type": "uint256"
        }
      ],
      "name": "setAdminTimelockConfig",
      "outputs": [],
      "stateMutability": "nonpayable",
      "type": "function"
    },
    {
      "inputs": [
        {
          "internalType": "address",
          "name": "_coprocessor",
          "type": "address"
        }
      ],
      "name": "setCoprocessor",
      "outputs": [],
      "stateMutability": "nonpayable",
      "type": "function"
    },
    {
      "inputs": [
        {
          "internalType": "address",
          "name": "manager",
          "type": "address"
        }
      ],
      "name": "setLoanManager",
      "outputs": [],
      "stateMutability": "nonpayable",
      "type": "function"
    },
    {
      "inputs": [
        {
          "internalType": "uint256",
          "name": "lowThresholdBps",
          "type": "uint256"
        },
        {
          "internalType": "uint256",
          "name": "highThresholdBps",
          "type": "uint256"
        },
        {
          "internalType": "uint256",
          "name": "lowRateBps",
          "type": "uint256"
        },
        {
          "internalType": "uint256",
          "name": "midRateBps",
          "type": "uint256"
        },
        {
          "internalType": "uint256",
          "name": "highRateBps",
          "type": "uint256"
        }
      ],
      "name": "setRateModel",
      "outputs": [],
      "stateMutability": "nonpayable",
      "type": "function"
    },
    {
      "inputs": [
        {
          "internalType": "address",
          "name": "issuance",
          "type": "address"
        },
        {
          "internalType": "address",
          "name": "returnsAddr",
          "type": "address"
        }
      ],
      "name": "setTreasuries",
      "outputs": [],
      "stateMutability": "nonpayable",
      "type": "function"
    },
    {
      "inputs": [
        {
          "internalType": "bytes4",
          "name": "interfaceId",
          "type": "bytes4"
        }
      ],
      "name": "supportsInterface",
      "outputs": [
        {
          "internalType": "bool",
          "name": "",
          "type": "bool"
        }
      ],
      "stateMutability": "view",
      "type": "function"
    },
    {
      "inputs": [],
      "name": "totalBorrowed",
      "outputs": [
        {
          "internalType": "uint256",
          "name": "",
          "type": "uint256"
        }
      ],
      "stateMutability": "view",
      "type": "function"
    },
    {
      "inputs": [],
      "name": "totalDeposits",
      "outputs": [
        {
          "internalType": "uint256",
          "name": "",
          "type": "uint256"
        }
      ],
      "stateMutability": "view",
      "type": "function"
    },
    {
      "inputs": [],
      "name": "triggerRagequit",
      "outputs": [],
      "stateMutability": "nonpayable",
      "type": "function"
    },
    {
      "inputs": [],
      "name": "unpause",
      "outputs": [],
      "stateMutability": "nonpayable",
      "type": "function"
    },
    {
      "inputs": [],
      "name": "usdc",
      "outputs": [
        {
          "internalType": "contract IERC20",
          "name": "",
          "type": "address"
        }
      ],
      "stateMutability": "view",
      "type": "function"
    },
    {
      "inputs": [],
      "name": "utilizationRateBps",
      "outputs": [
        {
          "internalType": "uint256",
          "name": "",
          "type": "uint256"
        }
      ],
      "stateMutability": "view",
      "type": "function"
    },
    {
      "inputs": [
        {
          "internalType": "string",
          "name": "reason",
          "type": "string"
        }
      ],
      "name": "vetoUpgrade",
      "outputs": [],
      "stateMutability": "nonpayable",
      "type": "function"
    },
    {
      "inputs": [
        {
          "internalType": "uint256",
          "name": "amount",
          "type": "uint256"
        }
      ],
      "name": "withdraw",
      "outputs": [],
      "stateMutability": "nonpayable",
      "type": "function"
    }
  ],
  "transactionHash": "0xa8c8b5e5fbfcd9fa17654e55d943c93495ff5d2ab095425ae49affdef4f044d5",
  "args": [
    "0x3dF11e82a5aBe55DE936418Cf89373FDAE1579C8",
    "0x39EcF94ed35451A67006dcCE4A467aecdfAB6940"
  ],
  "numDeployments": 4,
  "solcInputHash": "1db5c0d76624c8fe76721fc2ccdaf437",
  "bytecode": "0x608034620001c95762003af390601f38839003908101601f19168201906001600160401b03821183831017620001ce5780839160409586948552833981010312620001c9577f9789733827840833afc031fb2ef9ab6894271f77bad2085687cf4ae5c7bee4db60206200007f816200007785620001e4565b9401620001e4565b6000600181556200009082620001f9565b506200009c826200027a565b507f55435dd261a4b9b3364963f7738a7a662ad9c84396d64be3365284bb7f0a504190818152600184526001878220019182549260008051602062003ad383398151915293848092557fbd79b86ffe0ab8e8776151514217cd7cacd52c909f66475c3af44e129f0b00ff92838580a47f65d7a28e3265b37a6474929f336521b332c1681b933f6cb9f3376673440d862a9081835260018984200192848454945580a484516001600160a01b039091168152a1610fa0600a55611d4c600b556104b0600c55610708600d55610a28600e556201518060105560028054610100600160a81b03191660089290921b610100600160a81b0316919091179055600480546001600160a01b031990811633908117909255600580549091169091179055516137a690816200030d8239f35b600080fd5b634e487b7160e01b600052604160045260246000fd5b51906001600160a01b0382168203620001c957565b6001600160a01b031660008181527fa6eef7e35abe7026729641147f7915573c7e97b47efa546f5f6e3230263bcb49602052604081205490919060ff16620002765781805260016020526040822081835260205260408220600160ff19825416179055339160008051602062003ab38339815191528180a4600190565b5090565b6001600160a01b031660008181527ff834af1c04a6eb42db13cdf5a7e2a2d1dbed4d1a808cc90092b8d02008ab0329602052604081205490919060008051602062003ad38339815191529060ff16620003075780835260016020526040832082845260205260408320600160ff1982541617905560008051602062003ab3833981519152339380a4600190565b50509056fe608080604052600436101561001357600080fd5b60003560e01c90816301ffc9a7146129715750806302c83c241461295357806303d98c1f1461293857806307c506c91461291a5780630b1b656d146127b157806311a6f3da146127935780631352f1871461276a578063159e9afb146126cf5780632065124f146126885780632216fc7114612531578063228a30e914612513578063248a9ca3146124e457806324ea54f4146124a957806325b631ea14612484578063282c2c2f146122aa5780632e1a7d4d146121c25780632f2ff15d1461218357806332b281201461211e57806336568abe146120d75780633d6aa5e1146120b45780633e413bee146120875780633f4ba83a14611ffc5780634003084114611ec1578063423ae28d14611de75780634c19386c14611dc95780634d158c6414611d6557806354c37c4f14611d42578063571414cf14611d245780635772ae7014611ccb57806357be57a714611c3a57806359090feb14611be45780635c975abb14611bc15780636f9e41a114611b0557806371c9aaa5146118e95780637382084a146118c257806374375359146118a05780637c9f95aa146118825780637d882097146118645780638456cb59146117e9578063862c53be1461160d57806389b8395f146114fb57806391d14854146114ae5780639baee8fc146113b05780639db9cbf9146112fc578063a217fddf146112e0578063a2fb342d14611248578063a4bbe2bf146111c0578063a59ffd36146110e2578063ad02b40d14610fd5578063af91842014610fa7578063b340367714610e06578063b3ccbcfe14610ddd578063b5b978a214610dbf578063b6a6eeb614610da1578063b6b55f2514610d14578063be5edb8214610ceb578063c1207bd714610c66578063ca068d1414610805578063ccc57490146107dc578063cdc4ac82146107a0578063d547741f14610761578063d5fe04a1146106f5578063d6abd0121461069f578063d8aed145146105c2578063e1a45218146105a5578063e37696bc146104a2578063e63ab1e914610467578063ec7320eb146103ee578063f660d05814610389578063fa6e9c2f1461036b5763fc7e286d1461032c57600080fd5b34610366576020366003190112610366576001600160a01b0361034d6129f0565b1660005260066020526020604060002054604051908152f35b600080fd5b34610366576000366003190112610366576020601f54604051908152f35b34610366576000366003190112610366573360009081526000805160206136d183398151915260205260409020546103c39060ff16612c3e565b6103d160ff60175416612dd2565b6103d9612cbe565b600080516020613751833981519152600080a1005b34610366576040366003190112610366576104076129da565b600435600052602360205260406000209060018060a01b031660005260205260a06040600020805490600181015490600281015460ff60046003840154930154169260405194855260208501526040840152606083015215156080820152f35b346103665760003660031901126103665760206040517f65d7a28e3265b37a6474929f336521b332c1681b933f6cb9f3376673440d862a8152f35b346103665760003660031901126103665760208054336001600160a01b038216148015610577575b6104d390612c83565b60ff8160a01c166105415760ff60a01b1916600160a01b1781554262093a8081019190821061052b57817f3f73172bbf433cae5fa1edf2fdf33f78336cc9639b12fe18f482854b592c55ab92602155604051908152a1005b634e487b7160e01b600052601160045260246000fd5b60405162461bcd60e51b815260048101839052600e60248201526d616c72656164792061637469766560901b6044820152606490fd5b506000805160206137118339815191526000908152600183526040808220338352845290205460ff166104ca565b346103665760003660031901126103665760206040516127108152f35b34610366576105d0366129c4565b906105d961320d565b6105ee60018060a01b03600354163314613282565b6105f66131ef565b610601811515613113565b6008549080821061066d5761061591613275565b60085580158015610628575b6001600055005b6107d0908183029183830414171561052b576106639161271061065b92049061065382600954612d14565b600955613275565b600754612d14565b6007558080610621565b60405162461bcd60e51b815260206004820152600a6024820152691c995c185e4f9919589d60b21b6044820152606490fd5b34610366576106f36106b036612a33565b3360009081526000805160206136d183398151915260205260409020549094919391906106df9060ff16612c3e565b6106ee60ff600f541615612d21565b6130ad565b005b34610366576000366003190112610366573360009081526000805160206136d1833981519152602052604090205461072f9060ff16612c3e565b61073d60ff60135416612dd2565b600060115560006012556000601355600080516020613731833981519152600080a1005b34610366576040366003190112610366576106f36004356107806129da565b9080600052600160205261079b600160406000200154612b03565b612bc7565b3461036657600036600319011261036657606060018060a01b036011541660125460ff6013541690604051928352602083015215156040820152f35b346103665760003660031901126103665760206040516000805160206137118339815191528152f35b346103665760a0366003190112610366576004356001600160401b03811161036657610835903690600401612a06565b9060843580151581036103665761084a6131ef565b8215610c315760243515610c015760243560443510610bcf57426064351115610b9b57601f54916001830180841161052b57601f556040516001600160401b03610180820190811190821117610b855761018081016040526001600160401b038511610b85576108c8601f8601601f19166020016101808301612ae0565b8461018082015236858301116103665760006101a0868482850137868301015261018081018152336020820152602435604082015260443560608201526064356080820152600060a0820152600060c0820152600060e08201526000610100820152600061012082015282151561014082015260006101608201528360005260226020526040600020815180519060018060401b038211610b855761096d8354612a55565b601f8111610b41575b50602090601f8311600114610ad657600a93929160009183610acb575b50508160011b916000199060031b1c19161781555b6001810160018060a01b0360208501511660018060a01b031982541617905560408301516002820155606083015160038201556080830151600482015560a0830151600582015560c0830151600682015560e083015160078201556101008301516008820155610120830151600982015501946101408201511515926101608754930151906004821015610ab55760209787957fbc664034040964aad99a74f7a8c17408249c4e555e8b759524e9e36b144180029560ff61ff00610a889660081b1692169061ffff1916171790556040519260a0845260a0840191612cf3565b936024358783015260443560408301526064356060830152151560808201528033940390a3604051908152f35b634e487b7160e01b600052602160045260246000fd5b015190508980610993565b90601f198316918460005260206000209260005b818110610b295750916001939185600a97969410610b10575b505050811b0181556109a8565b015160001960f88460031b161c19169055898080610b03565b92936020600181928786015181550195019301610aea565b836000526020600020601f840160051c810160208510610b7e575b601f830160051c82018110610b72575050610976565b60008155600101610b5c565b5080610b5c565b634e487b7160e01b600052604160045260246000fd5b60405162461bcd60e51b815260206004820152600c60248201526b62616420646561646c696e6560a01b6044820152606490fd5b60405162461bcd60e51b815260206004820152600a6024820152691b585e0f1d185c99d95d60b21b6044820152606490fd5b60405162461bcd60e51b815260206004820152600860248201526707461726765743d360c41b6044820152606490fd5b60405162461bcd60e51b815260206004820152600d60248201526c1b985b59481c995c5d5a5c9959609a1b6044820152606490fd5b3461036657602036600319011261036657600435610c8261320d565b610c8a6131ef565b610c97601f548210613360565b806000526022602052604060002090610cb081836134db565b60ff600a83015460081c16916004831015610ab557610cd26106219315613397565b610ce66005820154600283015411156133d5565b61355e565b34610366576000366003190112610366576004546040516001600160a01b039091168152602090f35b3461036657602036600319011261036657610d97600435610d3361320d565b610d3b6131ef565b610d46811515613113565b600454610d749082906001600160a01b0390811690610d66821515612e50565b60025460081c16339061314a565b3360005260066020526040600020610d8d828254612d14565b9055600754612d14565b6007556001600055005b34610366576000366003190112610366576020600e54604051908152f35b34610366576000366003190112610366576020602154604051908152f35b34610366576000366003190112610366576003546040516001600160a01b039091168152602090f35b34610366576020366003190112610366576004356000526022602052604060002060405190600081549083610e3a83612a55565b918282526001938481169081600014610f885750600114610f44575b610e6292500384612ae0565b60018060a01b039082015416600282015491600381015490600481015460058201546006830154600784015491600885015493600a600987015496015496604051996101808b528b51998a6101808d015260005b8b8110610f2e57508b9c5060006101a08c60ff9d9e01015260208d015260408c015260608b015260808a015260a089015260c088015260e0870152610100860152610120850152818116151561014085015260081c166004811015610ab557610160830152601f01601f191681018190036101a00190f35b6020818f018101516101a08f8401015201610eb6565b509083600052602060002090836000925b828410610f6e57505050906020610e6292820101610e56565b6020929450805483858a0101520191019091838693610f55565b60209250610e6294915060ff191682840152151560051b820101610e56565b34610366576040366003190112610366576020610fcd610fc56129da565b60043561344b565b604051908152f35b34610366576040366003190112610366577f647072bbcdcd9f4418ac0a9877bfa49124711cdef9da497d4d1c9619934f24ac61100f6129f0565b6110176129da565b3360009081526000805160206136d183398151915260205260409020549091906110439060ff16612c3e565b61105160ff600f5416612d5a565b6110dd6001600160a01b038281169061106b821515612e50565b8416611078811515612e89565b61108460105442612d14565b916001606060405161109581612a8f565b838152846020820152856040820152015260018060a01b031990816014541617601455601554161760155580601655600160ff19601754161760175560405193849384612ec1565b0390a1005b3461036657604036600319011261036657600435801515809103610366573360009081526000805160206136d183398151915260205260409020546024359061112d9060ff16612c3e565b603c811015806111b3575b15611182577f687911c7f7b365a8368a45830a19c83a06fd492822054b1e7035e987f6ac50699160409160ff19600f541660ff831617600f558060105582519182526020820152a1005b60405162461bcd60e51b81526020600482015260096024820152686261642064656c617960b81b6044820152606490fd5b5062278d00811115611138565b34610366576020366003190112610366576111d96129f0565b3360009081526000805160206136d183398151915260205260409020546112029060ff16612c3e565b602080546001600160a01b0319166001600160a01b039290921691821790557fa1d165f64fc8038b3ec091282071a15d4a762afdc20908e52066958a80289d03600080a2005b34610366576040366003190112610366576106216112646129f0565b6024359061127061320d565b6003546001600160a01b03906112899082163314613282565b6112916131ef565b61129c831515613113565b6112c0836007546112bb826112b46008548094613275565b1015613230565b612d14565b6008558060045416906112d4821515612e50565b60025460081c1661314a565b3461036657600036600319011261036657602060405160008152f35b34610366576040366003190112610366576113156129f0565b60243561132061320d565b6003546001600160a01b03929061133a9084163314613282565b6113426131ef565b61134d821515613113565b60095492828410611374576113658361062195613275565b60095560025460081c166132f4565b60405162461bcd60e51b8152602060048201526014602482015273696e73756666696369656e74207265736572766560601b6044820152606490fd5b34610366577fc1e9621371d80b4b7121b562414767106563087ecc4487a1858ad3005c13a2a660c06113e136612a33565b3360009081526000805160206136d1833981519152602052604090205490929061140d9060ff16612c3e565b61141b60ff600f5416612d5a565b6114288383838789612fa0565b61143460105442612d14565b9360018760405161144481612ac5565b8881528360208201528460408201528560608201528660808201528760a08201520152856018558060195581601a5582601b5583601c5584601d55600160ff19601e541617601e55604051958652602086015260408501526060840152608083015260a0820152a1005b34610366576040366003190112610366576114c76129da565b600435600052600160205260406000209060018060a01b0316600052602052602060ff604060002054166040519015158152f35b34610366576020366003190112610366576004356115176131ef565b611524601f548210613360565b806000526022602052604060002061153c82826134db565b600a81019081549060ff8260081c166004811015610ab55760016115609114613412565b3360009081526000805160206136d1833981519152602052604090205460ff169081156115f6575b50156115c05761ff0019166103001790557fd266f99b11b50da9da18867f650c6dfb06e19d5081e83247799674db155d818e600080a2005b60405162461bcd60e51b815260206004820152600e60248201526d1b9bdd08185d5d1a1bdc9a5e995960921b6044820152606490fd5b600101546001600160a01b03163314905084611588565b34610366576020806003193601126103665760043561162a61320d565b6116326131ef565b61163f601f548210613360565b8060005260228252604060002061165682826134db565b60ff600a82015460081c166004811015610ab5576002036117b45781600052602383526040600020336000528352604060002092835493841561177b57600583016116a2868254613275565b905560076006840193845494600184019586541115600014611772576116ca86548254613275565b90555b0180549081151580611764575b61174b575b50508060007fab40950dcb0c1c5980175f904ffc0f9eaab42f7fc3fd517555b98a4a22d8bc5e9481600494555560006002820155600060038201550160ff19815416905561173b843360018060a01b0360025460081c166132f4565b6040519384523393a36001600055005b60001982019291831161052b57919091558060006116df565b5060ff6004840154166116da565b600090556116cd565b60405162461bcd60e51b81526004810183905260116024820152701b9bdd1a1a5b99c81d1bc81c99599d5b99607a1b6044820152606490fd5b60405162461bcd60e51b815260048101849052600d60248201526c6e6f7420726566756e64696e6760981b6044820152606490fd5b34610366576000366003190112610366573360009081526000805160206136d183398151915260205260409020546118239060ff16612c3e565b61182b6131ef565b600160ff1960025416176002557f62e78cea01bee320cd4e420270b5ea74000d11b0c9f74754ebdbfc544b05a2586020604051338152a1005b34610366576000366003190112610366576020600754604051908152f35b34610366576000366003190112610366576020600c54604051908152f35b34610366576000366003190112610366576020610fcd60075460085490613275565b3461036657600036600319011261036657602080546040516001600160a01b039091168152f35b346103665760603660031901126103665760443560043560243561190b61320d565b6119136131ef565b8160005260209060228252604060002093611931601f548510613360565b61193b84866134db565b600a8501549260ff8460081c166004811015610ab55761195b9015613397565b611966831515613113565b6005860193611976848654612d14565b600388015410611ad15760ff16611a9b575b8460005260238152604060002033600052815260406000206119aa8188613652565b60048101805460ff811615611a73575b5050806119cb85611a029354612d14565b8155600181016119dc858254612d14565b90556119e9858754612d14565b8655600688016119fa858254612d14565b9055876136af565b600254611a209084903090339060081c6001600160a01b031661314a565b604051928352820152827f516e0b1a47f60c52094a67b03256aec299389abccd049f85b6ec7089fd697f8460403393a35460028301541115611a63576001600055005b611a6c9161355e565b8080610621565b60019060ff1916179055600787019081546001810180911161052b57611a02925590886119ba565b81611988576064906040519062461bcd60e51b82526004820152600a60248201526906275696c64696e673d360b41b6044820152fd5b60405162461bcd60e51b815260048101839052600c60248201526b1b585e08195e18d95959195960a21b6044820152606490fd5b34610366576000366003190112610366573360009081526000805160206136d18339815191526020526040902054611b3f9060ff16612c3e565b6106f3604051611b4e81612ac5565b60185481526019549060208101918252601a5460408201908152601b549060608301918252601c549260808101938452611baa601d5460a08301908152611ba160ff601e541615158060c0860152612dd2565b51421015612e11565b611bb2612cd4565b519351905191519251936130ad565b3461036657600036600319011261036657602060ff600254166040519015158152f35b346103665760003660031901126103665760e0601854601954601a54601b54601c5490601d549260ff601e541694604051968752602087015260408601526060850152608084015260a0830152151560c0820152f35b34610366576000366003190112610366573360009081526000805160206136d18339815191526020526040902054611c749060ff16612c3e565b6106f3604051611c8381612aaa565b60018060a01b039081601154168152611cb560125460208301908152611ba160ff601354161515806040860152612dd2565b6000601155600060125560006013555116612ee3565b34610366576020366003190112610366576106f3611ce76129f0565b3360009081526000805160206136d18339815191526020526040902054611d109060ff16612c3e565b611d1f60ff600f541615612d21565b612ee3565b34610366576000366003190112610366576020600954604051908152f35b3461036657600036600319011261036657602060ff600f54166040519015158152f35b34610366576040366003190112610366576106f3611d816129f0565b611d896129da565b3360009081526000805160206136d18339815191526020526040902054909190611db59060ff16612c3e565b611dc460ff600f541615612d21565b612f30565b34610366576000366003190112610366576020600854604051908152f35b3461036657602036600319011261036657611e006129f0565b3360009081526000805160206136d18339815191526020526040902054611e299060ff16612c3e565b611e3760ff600f5416612d5a565b6001600160a01b0316611e4b811515612d9a565b7f4613d1ec45c5fb4e57c5e0fa3f672ab285fe109e70e3580957a76423e5f847616020611e7a60105442612d14565b600160408051611e8981612aaa565b8681528481018490520152601180546001600160a01b0319168517905560128190556013805460ff19166001179055604051908152a2005b3461036657602080600319360112610366576004356001600160401b038111610366577f754df152d0a57533789d46c66d2655acf7c11229fd43554ac6ce15d58779bb8b91611f176110dd923690600401612a06565b929060018060a01b0383541633148015611fce575b611f3590612c83565b60ff60135416611fa7575b60ff60175416611f87575b60ff601e5416611f67575b604051938385948552840191612cf3565b611f6f612cd4565b6000805160206136f1833981519152600080a1611f56565b611f8f612cbe565b600080516020613751833981519152600080a1611f4b565b600060115560006012556000601355600080516020613731833981519152600080a1611f40565b506000805160206137118339815191526000908152600184526040808220338352855290205460ff16611f2c565b34610366576000366003190112610366573360009081526000805160206136d183398151915260205260409020546120369060ff16612c3e565b60025460ff8116156120755760ff19166002557f5db9ee0a495bf2e6ff9c91a7834c1ba4fdd244a5e8aa4e537bd38aeae4b073aa6020604051338152a1005b604051638dfc202b60e01b8152600490fd5b346103665760003660031901126103665760025460405160089190911c6001600160a01b03168152602090f35b34610366576000366003190112610366576020604051670de0b6b3a76400008152f35b34610366576040366003190112610366576120f06129da565b336001600160a01b0382160361210c576106f390600435612bc7565b60405163334bd91960e11b8152600490fd5b34610366576000366003190112610366573360009081526000805160206136d183398151915260205260409020546121589060ff16612c3e565b61216660ff601e5416612dd2565b61216e612cd4565b6000805160206136f1833981519152600080a1005b34610366576040366003190112610366576106f36004356121a26129da565b908060005260016020526121bd600160406000200154612b03565b612b47565b34610366576020366003190112610366576004356121de61320d565b6121e66131ef565b6121f1811515613113565b336000526006602052806040600020541061226e578061221d610621926112b460075460085490613275565b3360005260066020526040600020612236828254613275565b905561224481600754613275565b6007556004546001600160a01b03908116612260811515612e50565b339160025460081c1661314a565b60405162461bcd60e51b81526020600482015260146024820152731a5b9cdd59999a58da595b9d0819195c1bdcda5d60621b6044820152606490fd5b34610366576020366003190112610366576004356122c661332d565b600a548082116123dd576103e89182810292818404149015171561052b576122ed916132d4565b6101f490810180911161052b57905b819060b48110612386575b61016d80821161231d575b602083604051908152f35b61016c198201925090821161052b57612710918281029080820484149015171561052b5704810180821161052b576123568291846132c1565b04906175309283810293818504149015171561052b576020920480821161237e575b80612312565b905082612378565b80915060b40360b4811161052b57611388808202918204148260b414171561052b5760b46127109104810381811161052b576123c290846132c1565b04906101f48083106123d5575b50612307565b9150836123cf565b600b5490818311612428576123f5816123fb93613275565b92613275565b6105dc918282029180830484149015171561052b57612419916132d4565b810180911161052b57906122fc565b506127109181830392831161052b5761244a9161244491613275565b806132c1565b612ee09081810291818304149015171561052b5761246b82612471936132c1565b906132d4565b610bb890810180911161052b57906122fc565b3461036657600036600319011261036657602060ff815460a01c166040519015158152f35b346103665760003660031901126103665760206040517f55435dd261a4b9b3364963f7738a7a662ad9c84396d64be3365284bb7f0a50418152f35b346103665760203660031901126103665760043560005260016020526020600160406000200154604051908152f35b34610366576000366003190112610366576020600a54604051908152f35b346103665761253f366129c4565b9061254861320d565b6125506131ef565b61255d601f548210613360565b81156125698115613113565b816000526022602052604060002061258183826134db565b600a81015460ff8160081c16906004821015610ab5576125a5600160ff9314613412565b161561267d576006810154915b821561264c576002546125d69086903090339060081c6001600160a01b031661314a565b670de0b6b3a7640000908186029186830414171561052b576009926125fa916132d4565b61260960088301918254612d14565b905501612617838254612d14565b90556040519182527f1bb1eb476732d037d653062e98fbdbb9e30d2bc8c526483e30fa241d6369843b60203393a36001600055005b60405162461bcd60e51b81526020600482015260096024820152681b9bc81dd95a59da1d60ba1b6044820152606490fd5b6005810154916125b2565b3461036657600036600319011261036657608060018060a01b038060145416906015541660165460ff60175416916040519384526020840152604083015215156060820152f35b34610366576000366003190112610366573360009081526000805160206136d183398151915260205260409020546127099060ff16612c3e565b6106f360405161271881612a8f565b60018060a01b0380601454168252808060155416926020810193845261275760165460408301908152611ba160ff601754161515806060860152612dd2565b61275f612cbe565b511691511690612f30565b34610366576000366003190112610366576005546040516001600160a01b039091168152602090f35b34610366576000366003190112610366576020601054604051908152f35b3461036657602080600319360112610366576004356127ce61320d565b6127d66131ef565b6127e3601f548210613360565b80600052602282526040600020916127fb82846134db565b60ff600a84015460081c166004811015610ab5576001811490811561290f575b50156128d5578160005260238152604060002033600052815260406000206128438185613652565b6003810193845494851561289d57916128819160007f92ee7dc6833e54268f75eaaa7fd76858a95102ef65d5ae036305e656385860399594556136af565b60025461173b908590339060081c6001600160a01b03166132f4565b60405162461bcd60e51b815260048101859052601060248201526f6e6f7468696e6720746f20636c61696d60801b6044820152606490fd5b6064906040519062461bcd60e51b8252600482015260136024820152727265776172647320756e617661696c61626c6560681b6044820152fd5b60039150148461281b565b34610366576000366003190112610366576020600b54604051908152f35b34610366576000366003190112610366576020610fcd61332d565b34610366576000366003190112610366576020600d54604051908152f35b34610366576020366003190112610366576004359063ffffffff60e01b821680920361036657602091637965db0b60e01b81149081156129b3575b5015158152f35b6301ffc9a760e01b149050836129ac565b6040906003190112610366576004359060243590565b602435906001600160a01b038216820361036657565b600435906001600160a01b038216820361036657565b9181601f84011215610366578235916001600160401b038311610366576020838186019501011161036657565b60a0906003190112610366576004359060243590604435906064359060843590565b90600182811c92168015612a85575b6020831014612a6f57565b634e487b7160e01b600052602260045260246000fd5b91607f1691612a64565b608081019081106001600160401b03821117610b8557604052565b606081019081106001600160401b03821117610b8557604052565b60e081019081106001600160401b03821117610b8557604052565b601f909101601f19168101906001600160401b03821190821017610b8557604052565b80600052600160205260406000203360005260205260ff6040600020541615612b295750565b6044906040519063e2517d3f60e01b82523360048301526024820152fd5b906000918083526001602052604083209160018060a01b03169182845260205260ff60408420541615600014612bc25780835260016020526040832082845260205260408320600160ff198254161790557f2f8788117e7eff1d82e926ec794901d17c78024a50270940304540a733656f0d339380a4600190565b505090565b906000918083526001602052604083209160018060a01b03169182845260205260ff604084205416600014612bc2578083526001602052604083208284526020526040832060ff1981541690557ff6391f5c32d9c69d2a47ea670b442974b53935d1edc7fd64eb21e047a839171b339380a4600190565b15612c4557565b60405162461bcd60e51b815260206004820152601660248201527521b0b63632b91034b9903737ba1033b7bb32b93737b960511b6044820152606490fd5b15612c8a57565b60405162461bcd60e51b815260206004820152600c60248201526b1d5b985d5d1a1bdc9a5e995960a21b6044820152606490fd5b6000601455600060155560006016556000601755565b6000806018558060195580601a5580601b5580601c5580601d55601e55565b908060209392818452848401376000828201840152601f01601f1916010190565b9190820180921161052b57565b15612d2857565b60405162461bcd60e51b815260206004820152600a6024820152691d1a5b595b1bd8dad95960b21b6044820152606490fd5b15612d6157565b60405162461bcd60e51b81526020600482015260116024820152701d1a5b595b1bd8dac8191a5cd8589b1959607a1b6044820152606490fd5b15612da157565b60405162461bcd60e51b815260206004820152600960248201526806d616e616765723d360bc1b6044820152606490fd5b15612dd957565b60405162461bcd60e51b815260206004820152601060248201526f6e6f2071756575656420636f6e66696760801b6044820152606490fd5b15612e1857565b60405162461bcd60e51b815260206004820152601060248201526f74696d656c6f636b2070656e64696e6760801b6044820152606490fd5b15612e5757565b60405162461bcd60e51b815260206004820152600a602482015269069737375616e63653d360b41b6044820152606490fd5b15612e9057565b60405162461bcd60e51b8152602060048201526009602482015268072657475726e733d360bc1b6044820152606490fd5b6001600160a01b03918216815291166020820152604081019190915260600190565b6001600160a01b0316612ef7811515612d9a565b600380546001600160a01b031916821790557f1dc4f84ee7313043091b27f406c2494a0c94127ded69968d246cb341249d5f16600080a2565b7f81a577879f5afba839dc12949fdfc537e7ab528414301ccc1d723e2abcbe7d1b916040916001600160a01b0390811691612f6c831515612e50565b16612f78811515612e89565b8060018060a01b031983816004541617600455600554161760055582519182526020820152a1565b811115613077576127101061303d5781839111159182613032575b5050156130015761138810612fcc57565b60405162461bcd60e51b815260206004820152600d60248201526c0e4c2e8ca40e8dede40d0d2ced609b1b6044820152606490fd5b60405162461bcd60e51b815260206004820152600960248201526862616420726174657360b81b6044820152606490fd5b111590508138612fbb565b60405162461bcd60e51b81526020600482015260126024820152710e8d0e4cae6d0ded8c840e8dede40d0d2ced60731b6044820152606490fd5b60405162461bcd60e51b815260206004820152600e60248201526d626164207468726573686f6c647360901b6044820152606490fd5b919260a0937f2a563719518ef25a5afb5aa238bf2c271eff54e0d1e0fd3b9b8b779c7919c35f95926130e28484848489612fa0565b84600a5580600b5581600c5582600d5583600e556040519485526020850152604084015260608301526080820152a1565b1561311a57565b60405162461bcd60e51b81526020600482015260086024820152670616d6f756e743d360c41b6044820152606490fd5b9061318090613172613185956040519586936323b872dd60e01b602086015260248501612ec1565b03601f198101845283612ae0565b613187565b565b906000602091828151910182855af1156131e3576000513d6131da57506001600160a01b0381163b155b6131b85750565b604051635274afe760e01b81526001600160a01b039091166004820152602490fd5b600114156131b1565b6040513d6000823e3d90fd5b60ff600254166131fb57565b60405163d93c066560e01b8152600490fd5b60026000541461321e576002600055565b604051633ee5aeb560e01b8152600490fd5b1561323757565b60405162461bcd60e51b8152602060048201526016602482015275696e73756666696369656e74206c697175696469747960501b6044820152606490fd5b9190820391821161052b57565b1561328957565b60405162461bcd60e51b815260206004820152601060248201526f3737ba103637b0b71036b0b730b3b2b960811b6044820152606490fd5b8181029291811591840414171561052b57565b81156132de570490565b634e487b7160e01b600052601260045260246000fd5b60405163a9059cbb60e01b60208201526001600160a01b0390921660248301526044808301939093529181526131859161318082612a8f565b600754801561335a57600854906127109182810292818404149015171561052b57613357916132d4565b90565b50600090565b1561336757565b60405162461bcd60e51b8152602060048201526008602482015267189859081c1bdbdb60c21b6044820152606490fd5b1561339e57565b60405162461bcd60e51b815260206004820152600f60248201526e6e6f742066756e6472616973696e6760881b6044820152606490fd5b156133dc57565b60405162461bcd60e51b815260206004820152600e60248201526d1d185c99d95d081b9bdd081b595d60921b6044820152606490fd5b1561341957565b60405162461bcd60e51b815260206004820152600a6024820152696e6f742061637469766560b01b6044820152606490fd5b90601f548210156134d4576003613357926000908152602260205260408120926023602052604082209060018060a01b03168252602052670de0b6b3a76400006134a86040832094600861349f878361363b565b910154906132c1565b046002840154908181116000146134cc576134c39250613275565b915b0154612d14565b5050916134c5565b5050600090565b600a81019081549060ff8260081c166004811015610ab557159081613550575b8161353d575b5061350b57505050565b61ff0019166102001790557f31acae2083c1a37b8a7eb34e8667202cf6bb4209f8162929f0c02f44b75beb2f600080a2565b9050600260058201549101541138613501565b6004810154421191506134fb565b600a810180549060ff8260081c166004811015610ab55761360a576136006020926135e88560057f441a482477fd291d40436600f2605cb0aeffdb58ef2c34a06ea4d65b93ada8d69701946135bb600287549301548310156133d5565b6004546001600160a01b0394610100916135d89087161515612e50565b61ff001916179055600754612d14565b6007558060025460081c1690600454168354916132f4565b54604051908152a2565b60405162461bcd60e51b815260206004820152600960248201526862616420737461746560b81b6044820152606490fd5b600a015460ff161561364e576001015490565b5490565b61365c828261363b565b9081156136aa57670de0b6b3a764000091600861367b920154906132c1565b04600282015480821161368d57505050565b61369c6003916136a693613275565b9201918254612d14565b9055565b505050565b670de0b6b3a76400006136ca600292600861349f868361363b565b0491015556fef834af1c04a6eb42db13cdf5a7e2a2d1dbed4d1a808cc90092b8d02008ab03293c3bb58a6ec21fde7b06fdffe6980a39034922699377f69f77d65e2ce88575d27935bd0ae54bc31f548c14dba4d37c5c64b3f8ca900cb468fb8abd54d5894f5558f8d058d65c5fba672452718f4ce16cb9299d1bd63285d363dc5a6fcf18ed240b1bd025678edba0e950e7e8f0c266baa82960a66328930d072cac4f40264708a2646970667358221220e48194000f56b6fc40c703ab889d64a789c5f11c77d60662c2daa0d5774a608864736f6c634300081400332f8788117e7eff1d82e926ec794901d17c78024a50270940304540a733656f0d7935bd0ae54bc31f548c14dba4d37c5c64b3f8ca900cb468fb8abd54d5894f55",
  "devdoc": {
    "errors": {
      "AccessControlBadConfirmation()": [
        {
          "details": "The caller of a function is not the expected one. NOTE: Don't confuse with {AccessControlUnauthorizedAccount}."
        }
      ],
      "AccessControlUnauthorizedAccount(address,bytes32)": [
        {
          "details": "The `account` is missing a role."
        }
      ],
      "EnforcedPause()": [
        {
          "details": "The operation failed because the contract is paused."
        }
      ],
      "ExpectedPause()": [
        {
          "details": "The operation failed because the contract is not paused."
        }
      ],
      "ReentrancyGuardReentrantCall()": [
        {
          "details": "Unauthorized reentrant call."
        }
      ],
      "SafeERC20FailedOperation(address)": [
        {
          "details": "An operation with an ERC-20 token failed."
        }
      ]
    },
    "events": {
      "Paused(address)": {
        "details": "Emitted when the pause is triggered by `account`."
      },
      "RoleAdminChanged(bytes32,bytes32,bytes32)": {
        "details": "Emitted when `newAdminRole` is set as ``role``'s admin role, replacing `previousAdminRole` `DEFAULT_ADMIN_ROLE` is the starting admin for all roles, despite {RoleAdminChanged} not being emitted to signal this."
      },
      "RoleGranted(bytes32,address,address)": {
        "details": "Emitted when `account` is granted `role`. `sender` is the account that originated the contract call. This account bears the admin role (for the granted role). Expected in cases where the role was granted using the internal {AccessControl-_grantRole}."
      },
      "RoleRevoked(bytes32,address,address)": {
        "details": "Emitted when `account` is revoked `role`. `sender` is the account that originated the contract call:   - if using `revokeRole`, it is the admin role bearer   - if using `renounceRole`, it is the role bearer (i.e. `account`)"
      },
      "Unpaused(address)": {
        "details": "Emitted when the pause is lifted by `account`."
      }
    },
    "kind": "dev",
    "methods": {
      "getRoleAdmin(bytes32)": {
        "details": "Returns the admin role that controls `role`. See {grantRole} and {revokeRole}. To change a role's admin, use {_setRoleAdmin}."
      },
      "grantRole(bytes32,address)": {
        "details": "Grants `role` to `account`. If `account` had not been already granted `role`, emits a {RoleGranted} event. Requirements: - the caller must have ``role``'s admin role. May emit a {RoleGranted} event."
      },
      "hasRole(bytes32,address)": {
        "details": "Returns `true` if `account` has been granted `role`."
      },
      "paused()": {
        "details": "Returns true if the contract is paused, and false otherwise."
      },
      "renounceRole(bytes32,address)": {
        "details": "Revokes `role` from the calling account. Roles are often managed via {grantRole} and {revokeRole}: this function's purpose is to provide a mechanism for accounts to lose their privileges if they are compromised (such as when a trusted device is misplaced). If the calling account had been revoked `role`, emits a {RoleRevoked} event. Requirements: - the caller must be `callerConfirmation`. May emit a {RoleRevoked} event."
      },
      "revokeRole(bytes32,address)": {
        "details": "Revokes `role` from `account`. If `account` had been granted `role`, emits a {RoleRevoked} event. Requirements: - the caller must have ``role``'s admin role. May emit a {RoleRevoked} event."
      },
      "supportsInterface(bytes4)": {
        "details": "Returns true if this contract implements the interface defined by `interfaceId`. See the corresponding https://eips.ethereum.org/EIPS/eip-165#how-interfaces-are-identified[ERC section] to learn more about how these ids are created. This function call must use less than 30 000 gas."
      }
    },
    "version": 1
  },
  "userdoc": {
    "kind": "user",
    "methods": {
      "triggerRagequit()": {
        "notice": "V6.0 Citadel: If a malicious upgrade bypasses the veto, the Coprocessor or Owner can trigger a global 7-day LP Ragequit window, allowing LPs to withdraw all available liquidity instantly."
      },
      "vetoUpgrade(string)": {
        "notice": "V6.0 Citadel: The AI Coprocessor or Owner can veto pending configuration upgrades  if they are deemed malicious (e.g., routing funds to a hacker's treasury)."
      }
    },
    "version": 1
  },
  "storageLayout": {
    "storage": [
      {
        "astId": 4301,
        "contract": "contracts/LendingPool.sol:LendingPool",
        "label": "_status",
        "offset": 0,
        "slot": "0",
        "type": "t_uint256"
      },
      {
        "astId": 73,
        "contract": "contracts/LendingPool.sol:LendingPool",
        "label": "_roles",
        "offset": 0,
        "slot": "1",
        "type": "t_mapping(t_bytes32,t_struct(RoleData)68_storage)"
      },
      {
        "astId": 4191,
        "contract": "contracts/LendingPool.sol:LendingPool",
        "label": "_paused",
        "offset": 0,
        "slot": "2",
        "type": "t_bool"
      },
      {
        "astId": 14240,
        "contract": "contracts/LendingPool.sol:LendingPool",
        "label": "usdc",
        "offset": 1,
        "slot": "2",
        "type": "t_contract(IERC20)1591"
      },
      {
        "astId": 14242,
        "contract": "contracts/LendingPool.sol:LendingPool",
        "label": "loanManager",
        "offset": 0,
        "slot": "3",
        "type": "t_address"
      },
      {
        "astId": 14244,
        "contract": "contracts/LendingPool.sol:LendingPool",
        "label": "issuanceTreasury",
        "offset": 0,
        "slot": "4",
        "type": "t_address"
      },
      {
        "astId": 14246,
        "contract": "contracts/LendingPool.sol:LendingPool",
        "label": "returnsTreasury",
        "offset": 0,
        "slot": "5",
        "type": "t_address"
      },
      {
        "astId": 14250,
        "contract": "contracts/LendingPool.sol:LendingPool",
        "label": "deposits",
        "offset": 0,
        "slot": "6",
        "type": "t_mapping(t_address,t_uint256)"
      },
      {
        "astId": 14252,
        "contract": "contracts/LendingPool.sol:LendingPool",
        "label": "totalDeposits",
        "offset": 0,
        "slot": "7",
        "type": "t_uint256"
      },
      {
        "astId": 14254,
        "contract": "contracts/LendingPool.sol:LendingPool",
        "label": "totalBorrowed",
        "offset": 0,
        "slot": "8",
        "type": "t_uint256"
      },
      {
        "astId": 14256,
        "contract": "contracts/LendingPool.sol:LendingPool",
        "label": "insuranceReserve",
        "offset": 0,
        "slot": "9",
        "type": "t_uint256"
      },
      {
        "astId": 14265,
        "contract": "contracts/LendingPool.sol:LendingPool",
        "label": "lowUtilizationThresholdBps",
        "offset": 0,
        "slot": "10",
        "type": "t_uint256"
      },
      {
        "astId": 14268,
        "contract": "contracts/LendingPool.sol:LendingPool",
        "label": "highUtilizationThresholdBps",
        "offset": 0,
        "slot": "11",
        "type": "t_uint256"
      },
      {
        "astId": 14271,
        "contract": "contracts/LendingPool.sol:LendingPool",
        "label": "lowUtilizationRateBps",
        "offset": 0,
        "slot": "12",
        "type": "t_uint256"
      },
      {
        "astId": 14274,
        "contract": "contracts/LendingPool.sol:LendingPool",
        "label": "midUtilizationRateBps",
        "offset": 0,
        "slot": "13",
        "type": "t_uint256"
      },
      {
        "astId": 14277,
        "contract": "contracts/LendingPool.sol:LendingPool",
        "label": "highUtilizationRateBps",
        "offset": 0,
        "slot": "14",
        "type": "t_uint256"
      },
      {
        "astId": 14279,
        "contract": "contracts/LendingPool.sol:LendingPool",
        "label": "adminTimelockEnabled",
        "offset": 0,
        "slot": "15",
        "type": "t_bool"
      },
      {
        "astId": 14282,
        "contract": "contracts/LendingPool.sol:LendingPool",
        "label": "adminTimelockDelay",
        "offset": 0,
        "slot": "16",
        "type": "t_uint256"
      },
      {
        "astId": 14316,
        "contract": "contracts/LendingPool.sol:LendingPool",
        "label": "pendingLoanManager",
        "offset": 0,
        "slot": "17",
        "type": "t_struct(PendingLoanManager)14289_storage"
      },
      {
        "astId": 14319,
        "contract": "contracts/LendingPool.sol:LendingPool",
        "label": "pendingTreasuryConfig",
        "offset": 0,
        "slot": "20",
        "type": "t_struct(PendingTreasuryConfig)14298_storage"
      },
      {
        "astId": 14322,
        "contract": "contracts/LendingPool.sol:LendingPool",
        "label": "pendingRateModel",
        "offset": 0,
        "slot": "24",
        "type": "t_struct(PendingRateModel)14313_storage"
      },
      {
        "astId": 14324,
        "contract": "contracts/LendingPool.sol:LendingPool",
        "label": "communityPoolCount",
        "offset": 0,
        "slot": "31",
        "type": "t_uint256"
      },
      {
        "astId": 14326,
        "contract": "contracts/LendingPool.sol:LendingPool",
        "label": "coprocessor",
        "offset": 0,
        "slot": "32",
        "type": "t_address"
      },
      {
        "astId": 14328,
        "contract": "contracts/LendingPool.sol:LendingPool",
        "label": "ragequitActive",
        "offset": 20,
        "slot": "32",
        "type": "t_bool"
      },
      {
        "astId": 14330,
        "contract": "contracts/LendingPool.sol:LendingPool",
        "label": "ragequitEndTime",
        "offset": 0,
        "slot": "33",
        "type": "t_uint256"
      },
      {
        "astId": 14389,
        "contract": "contracts/LendingPool.sol:LendingPool",
        "label": "communityPools",
        "offset": 0,
        "slot": "34",
        "type": "t_mapping(t_uint256,t_struct(CommunityPool)14373_storage)"
      },
      {
        "astId": 14396,
        "contract": "contracts/LendingPool.sol:LendingPool",
        "label": "communityPositions",
        "offset": 0,
        "slot": "35",
        "type": "t_mapping(t_uint256,t_mapping(t_address,t_struct(CommunityPosition)14384_storage))"
      }
    ],
    "types": {
      "t_address": {
        "encoding": "inplace",
        "label": "address",
        "numberOfBytes": "20"
      },
      "t_bool": {
        "encoding": "inplace",
        "label": "bool",
        "numberOfBytes": "1"
      },
      "t_bytes32": {
        "encoding": "inplace",
        "label": "bytes32",
        "numberOfBytes": "32"
      },
      "t_contract(IERC20)1591": {
        "encoding": "inplace",
        "label": "contract IERC20",
        "numberOfBytes": "20"
      },
      "t_enum(CommunityPoolState)14347": {
        "encoding": "inplace",
        "label": "enum LendingPool.CommunityPoolState",
        "numberOfBytes": "1"
      },
      "t_mapping(t_address,t_bool)": {
        "encoding": "mapping",
        "key": "t_address",
        "label": "mapping(address => bool)",
        "numberOfBytes": "32",
        "value": "t_bool"
      },
      "t_mapping(t_address,t_struct(CommunityPosition)14384_storage)": {
        "encoding": "mapping",
        "key": "t_address",
        "label": "mapping(address => struct LendingPool.CommunityPosition)",
        "numberOfBytes": "32",
        "value": "t_struct(CommunityPosition)14384_storage"
      },
      "t_mapping(t_address,t_uint256)": {
        "encoding": "mapping",
        "key": "t_address",
        "label": "mapping(address => uint256)",
        "numberOfBytes": "32",
        "value": "t_uint256"
      },
      "t_mapping(t_bytes32,t_struct(RoleData)68_storage)": {
        "encoding": "mapping",
        "key": "t_bytes32",
        "label": "mapping(bytes32 => struct AccessControl.RoleData)",
        "numberOfBytes": "32",
        "value": "t_struct(RoleData)68_storage"
      },
      "t_mapping(t_uint256,t_mapping(t_address,t_struct(CommunityPosition)14384_storage))": {
        "encoding": "mapping",
        "key": "t_uint256",
        "label": "mapping(uint256 => mapping(address => struct LendingPool.CommunityPosition))",
        "numberOfBytes": "32",
        "value": "t_mapping(t_address,t_struct(CommunityPosition)14384_storage)"
      },
      "t_mapping(t_uint256,t_struct(CommunityPool)14373_storage)": {
        "encoding": "mapping",
        "key": "t_uint256",
        "label": "mapping(uint256 => struct LendingPool.CommunityPool)",
        "numberOfBytes": "32",
        "value": "t_struct(CommunityPool)14373_storage"
      },
      "t_string_storage": {
        "encoding": "bytes",
        "label": "string",
        "numberOfBytes": "32"
      },
      "t_struct(CommunityPool)14373_storage": {
        "encoding": "inplace",
        "label": "struct LendingPool.CommunityPool",
        "members": [
          {
            "astId": 14349,
            "contract": "contracts/LendingPool.sol:LendingPool",
            "label": "name",
            "offset": 0,
            "slot": "0",
            "type": "t_string_storage"
          },
          {
            "astId": 14351,
            "contract": "contracts/LendingPool.sol:LendingPool",
            "label": "creator",
            "offset": 0,
            "slot": "1",
            "type": "t_address"
          },
          {
            "astId": 14353,
            "contract": "contracts/LendingPool.sol:LendingPool",
            "label": "targetAmount",
            "offset": 0,
            "slot": "2",
            "type": "t_uint256"
          },
          {
            "astId": 14355,
            "contract": "contracts/LendingPool.sol:LendingPool",
            "label": "maxAmount",
            "offset": 0,
            "slot": "3",
            "type": "t_uint256"
          },
          {
            "astId": 14357,
            "contract": "contracts/LendingPool.sol:LendingPool",
            "label": "deadline",
            "offset": 0,
            "slot": "4",
            "type": "t_uint256"
          },
          {
            "astId": 14359,
            "contract": "contracts/LendingPool.sol:LendingPool",
            "label": "totalContributed",
            "offset": 0,
            "slot": "5",
            "type": "t_uint256"
          },
          {
            "astId": 14361,
            "contract": "contracts/LendingPool.sol:LendingPool",
            "label": "totalBuildingUnits",
            "offset": 0,
            "slot": "6",
            "type": "t_uint256"
          },
          {
            "astId": 14363,
            "contract": "contracts/LendingPool.sol:LendingPool",
            "label": "participantCount",
            "offset": 0,
            "slot": "7",
            "type": "t_uint256"
          },
          {
            "astId": 14365,
            "contract": "contracts/LendingPool.sol:LendingPool",
            "label": "accRewardPerWeight",
            "offset": 0,
            "slot": "8",
            "type": "t_uint256"
          },
          {
            "astId": 14367,
            "contract": "contracts/LendingPool.sol:LendingPool",
            "label": "totalRewardFunded",
            "offset": 0,
            "slot": "9",
            "type": "t_uint256"
          },
          {
            "astId": 14369,
            "contract": "contracts/LendingPool.sol:LendingPool",
            "label": "rewardsByBuildingSize",
            "offset": 0,
            "slot": "10",
            "type": "t_bool"
          },
          {
            "astId": 14372,
            "contract": "contracts/LendingPool.sol:LendingPool",
            "label": "state",
            "offset": 1,
            "slot": "10",
            "type": "t_enum(CommunityPoolState)14347"
          }
        ],
        "numberOfBytes": "352"
      },
      "t_struct(CommunityPosition)14384_storage": {
        "encoding": "inplace",
        "label": "struct LendingPool.CommunityPosition",
        "members": [
          {
            "astId": 14375,
            "contract": "contracts/LendingPool.sol:LendingPool",
            "label": "contributed",
            "offset": 0,
            "slot": "0",
            "type": "t_uint256"
          },
          {
            "astId": 14377,
            "contract": "contracts/LendingPool.sol:LendingPool",
            "label": "buildingUnits",
            "offset": 0,
            "slot": "1",
            "type": "t_uint256"
          },
          {
            "astId": 14379,
            "contract": "contracts/LendingPool.sol:LendingPool",
            "label": "rewardDebt",
            "offset": 0,
            "slot": "2",
            "type": "t_uint256"
          },
          {
            "astId": 14381,
            "contract": "contracts/LendingPool.sol:LendingPool",
            "label": "pendingRewards",
            "offset": 0,
            "slot": "3",
            "type": "t_uint256"
          },
          {
            "astId": 14383,
            "contract": "contracts/LendingPool.sol:LendingPool",
            "label": "joined",
            "offset": 0,
            "slot": "4",
            "type": "t_bool"
          }
        ],
        "numberOfBytes": "160"
      },
      "t_struct(PendingLoanManager)14289_storage": {
        "encoding": "inplace",
        "label": "struct LendingPool.PendingLoanManager",
        "members": [
          {
            "astId": 14284,
            "contract": "contracts/LendingPool.sol:LendingPool",
            "label": "manager",
            "offset": 0,
            "slot": "0",
            "type": "t_address"
          },
          {
            "astId": 14286,
            "contract": "contracts/LendingPool.sol:LendingPool",
            "label": "executeAfter",
            "offset": 0,
            "slot": "1",
            "type": "t_uint256"
          },
          {
            "astId": 14288,
            "contract": "contracts/LendingPool.sol:LendingPool",
            "label": "exists",
            "offset": 0,
            "slot": "2",
            "type": "t_bool"
          }
        ],
        "numberOfBytes": "96"
      },
      "t_struct(PendingRateModel)14313_storage": {
        "encoding": "inplace",
        "label": "struct LendingPool.PendingRateModel",
        "members": [
          {
            "astId": 14300,
            "contract": "contracts/LendingPool.sol:LendingPool",
            "label": "lowThresholdBps",
            "offset": 0,
            "slot": "0",
            "type": "t_uint256"
          },
          {
            "astId": 14302,
            "contract": "contracts/LendingPool.sol:LendingPool",
            "label": "highThresholdBps",
            "offset": 0,
            "slot": "1",
            "type": "t_uint256"
          },
          {
            "astId": 14304,
            "contract": "contracts/LendingPool.sol:LendingPool",
            "label": "lowRateBps",
            "offset": 0,
            "slot": "2",
            "type": "t_uint256"
          },
          {
            "astId": 14306,
            "contract": "contracts/LendingPool.sol:LendingPool",
            "label": "midRateBps",
            "offset": 0,
            "slot": "3",
            "type": "t_uint256"
          },
          {
            "astId": 14308,
            "contract": "contracts/LendingPool.sol:LendingPool",
            "label": "highRateBps",
            "offset": 0,
            "slot": "4",
            "type": "t_uint256"
          },
          {
            "astId": 14310,
            "contract": "contracts/LendingPool.sol:LendingPool",
            "label": "executeAfter",
            "offset": 0,
            "slot": "5",
            "type": "t_uint256"
          },
          {
            "astId": 14312,
            "contract": "contracts/LendingPool.sol:LendingPool",
            "label": "exists",
            "offset": 0,
            "slot": "6",
            "type": "t_bool"
          }
        ],
        "numberOfBytes": "224"
      },
      "t_struct(PendingTreasuryConfig)14298_storage": {
        "encoding": "inplace",
        "label": "struct LendingPool.PendingTreasuryConfig",
        "members": [
          {
            "astId": 14291,
            "contract": "contracts/LendingPool.sol:LendingPool",
            "label": "issuanceTreasury",
            "offset": 0,
            "slot": "0",
            "type": "t_address"
          },
          {
            "astId": 14293,
            "contract": "contracts/LendingPool.sol:LendingPool",
            "label": "returnsTreasury",
            "offset": 0,
            "slot": "1",
            "type": "t_address"
          },
          {
            "astId": 14295,
            "contract": "contracts/LendingPool.sol:LendingPool",
            "label": "executeAfter",
            "offset": 0,
            "slot": "2",
            "type": "t_uint256"
          },
          {
            "astId": 14297,
            "contract": "contracts/LendingPool.sol:LendingPool",
            "label": "exists",
            "offset": 0,
            "slot": "3",
            "type": "t_bool"
          }
        ],
        "numberOfBytes": "128"
      },
      "t_struct(RoleData)68_storage": {
        "encoding": "inplace",
        "label": "struct AccessControl.RoleData",
        "members": [
          {
            "astId": 65,
            "contract": "contracts/LendingPool.sol:LendingPool",
            "label": "hasRole",
            "offset": 0,
            "slot": "0",
            "type": "t_mapping(t_address,t_bool)"
          },
          {
            "astId": 67,
            "contract": "contracts/LendingPool.sol:LendingPool",
            "label": "adminRole",
            "offset": 0,
            "slot": "1",
            "type": "t_bytes32"
          }
        ],
        "numberOfBytes": "64"
      },
      "t_uint256": {
        "encoding": "inplace",
        "label": "uint256",
        "numberOfBytes": "32"
      }
    }
  }
}