{
  "address": "0xAc436E104AE240AD662C35675c1914b5aA3A6592",
  "abi": [
    {
      "inputs": [
        {
          "internalType": "address",
          "name": "_usdc",
          "type": "address"
        }
      ],
      "stateMutability": "nonpayable",
      "type": "constructor"
    },
    {
      "inputs": [
        {
          "internalType": "address",
          "name": "owner",
          "type": "address"
        }
      ],
      "name": "OwnableInvalidOwner",
      "type": "error"
    },
    {
      "inputs": [
        {
          "internalType": "address",
          "name": "account",
          "type": "address"
        }
      ],
      "name": "OwnableUnauthorizedAccount",
      "type": "error"
    },
    {
      "inputs": [],
      "name": "ReentrancyGuardReentrantCall",
      "type": "error"
    },
    {
      "anonymous": false,
      "inputs": [
        {
          "indexed": true,
          "internalType": "address",
          "name": "previousOwner",
          "type": "address"
        },
        {
          "indexed": true,
          "internalType": "address",
          "name": "newOwner",
          "type": "address"
        }
      ],
      "name": "OwnershipTransferred",
      "type": "event"
    },
    {
      "inputs": [],
      "name": "BPS_DENOMINATOR",
      "outputs": [
        {
          "internalType": "uint256",
          "name": "",
          "type": "uint256"
        }
      ],
      "stateMutability": "view",
      "type": "function"
    },
    {
      "inputs": [],
      "name": "availableLiquidity",
      "outputs": [
        {
          "internalType": "uint256",
          "name": "",
          "type": "uint256"
        }
      ],
      "stateMutability": "view",
      "type": "function"
    },
    {
      "inputs": [
        {
          "internalType": "uint256",
          "name": "amount",
          "type": "uint256"
        }
      ],
      "name": "deposit",
      "outputs": [],
      "stateMutability": "nonpayable",
      "type": "function"
    },
    {
      "inputs": [
        {
          "internalType": "address",
          "name": "",
          "type": "address"
        }
      ],
      "name": "deposits",
      "outputs": [
        {
          "internalType": "uint256",
          "name": "",
          "type": "uint256"
        }
      ],
      "stateMutability": "view",
      "type": "function"
    },
    {
      "inputs": [],
      "name": "getInterestRateBps",
      "outputs": [
        {
          "internalType": "uint256",
          "name": "",
          "type": "uint256"
        }
      ],
      "stateMutability": "view",
      "type": "function"
    },
    {
      "inputs": [
        {
          "internalType": "address",
          "name": "to",
          "type": "address"
        },
        {
          "internalType": "uint256",
          "name": "amount",
          "type": "uint256"
        }
      ],
      "name": "lend",
      "outputs": [],
      "stateMutability": "nonpayable",
      "type": "function"
    },
    {
      "inputs": [],
      "name": "loanManager",
      "outputs": [
        {
          "internalType": "address",
          "name": "",
          "type": "address"
        }
      ],
      "stateMutability": "view",
      "type": "function"
    },
    {
      "inputs": [],
      "name": "owner",
      "outputs": [
        {
          "internalType": "address",
          "name": "",
          "type": "address"
        }
      ],
      "stateMutability": "view",
      "type": "function"
    },
    {
      "inputs": [],
      "name": "renounceOwnership",
      "outputs": [],
      "stateMutability": "nonpayable",
      "type": "function"
    },
    {
      "inputs": [
        {
          "internalType": "uint256",
          "name": "amount",
          "type": "uint256"
        }
      ],
      "name": "repay",
      "outputs": [],
      "stateMutability": "nonpayable",
      "type": "function"
    },
    {
      "inputs": [
        {
          "internalType": "address",
          "name": "manager",
          "type": "address"
        }
      ],
      "name": "setLoanManager",
      "outputs": [],
      "stateMutability": "nonpayable",
      "type": "function"
    },
    {
      "inputs": [],
      "name": "totalBorrowed",
      "outputs": [
        {
          "internalType": "uint256",
          "name": "",
          "type": "uint256"
        }
      ],
      "stateMutability": "view",
      "type": "function"
    },
    {
      "inputs": [],
      "name": "totalDeposits",
      "outputs": [
        {
          "internalType": "uint256",
          "name": "",
          "type": "uint256"
        }
      ],
      "stateMutability": "view",
      "type": "function"
    },
    {
      "inputs": [
        {
          "internalType": "address",
          "name": "newOwner",
          "type": "address"
        }
      ],
      "name": "transferOwnership",
      "outputs": [],
      "stateMutability": "nonpayable",
      "type": "function"
    },
    {
      "inputs": [],
      "name": "usdc",
      "outputs": [
        {
          "internalType": "contract IERC20",
          "name": "",
          "type": "address"
        }
      ],
      "stateMutability": "view",
      "type": "function"
    },
    {
      "inputs": [],
      "name": "utilizationRateBps",
      "outputs": [
        {
          "internalType": "uint256",
          "name": "",
          "type": "uint256"
        }
      ],
      "stateMutability": "view",
      "type": "function"
    },
    {
      "inputs": [
        {
          "internalType": "uint256",
          "name": "amount",
          "type": "uint256"
        }
      ],
      "name": "withdraw",
      "outputs": [],
      "stateMutability": "nonpayable",
      "type": "function"
    }
  ],
  "transactionHash": "0x4a82999b24e6b52f6ec5d0decdd6d74259b000f5d6fc5dc19e23cd69de51c914",
  "args": [
    "0x0A204F3f3e65F7a0ec6Db731DfF28012c5a61Ee6"
  ],
  "numDeployments": 1,
  "solcInputHash": "59243d003e81bfe1b4537c0ad03dbf63",
  "bytecode": "0x6080346100cd57601f610ab838819003918201601f19168301916001600160401b038311848410176100d2578084926020946040528339810103126100cd57516001600160a01b0390818116908190036100cd57600160005533156100b45760018054336001600160a01b03198083168217909355604051949091167f8be0079c531659141344cd1fd0a4f28419497f9722a3daafe3b4186f6b6457e0600080a360025416176002556109cf90816100e98239f35b604051631e4fbdf760e01b815260006004820152602490fd5b600080fd5b634e487b7160e01b600052604160045260246000fdfe6040608081526004908136101561001557600080fd5b600091823560e01c90816303d98c1f1461076f5781632e1a7d4d14610636578163371fd8e6146105a75781633e413bee1461057e5781634c19386c1461055f5781635772ae70146104e0578163715018a61461048057816374375359146104555781637d882097146104365781638da5cb5b1461040d578163a2fb342d14610316578163b3ccbcfe146102ed57838263b6b55f251461020c57508163e1a45218146101ef578163f2fde38b1461015f578163fc7e286d14610125575063ff3ac264146100e057600080fd5b346101215781600319360112610121576020916113886100fe61096f565b111590506101155761ffff6103e8915b5191168152f35b61ffff6101f49161010e565b5080fd5b90503461015b57602036600319011261015b5760209282916001600160a01b0361014d61078c565b168252845220549051908152f35b8280fd5b90503461015b57602036600319011261015b5761017a61078c565b906101836107a7565b6001600160a01b039182169283156101d9575050600154826bffffffffffffffffffffffff60a01b821617600155167f8be0079c531659141344cd1fd0a4f28419497f9722a3daafe3b4186f6b6457e08380a380f35b51631e4fbdf760e01b8152908101849052602490fd5b505034610121578160031936011261012157602090516127108152f35b809184346102e95760203660031901126102e95781359161022b6108bb565b6102368315156107d3565b60025482516323b872dd60e01b81523383820152306024820152604481018590529460209186916064918391906001600160a01b03165af19384156102df576102a79461028a9187916102b1575b5061085a565b338552602052832061029d828254610898565b9055600554610898565b6005556001815580f35b6102d2915060203d81116102d8575b6102ca818361080a565b810190610842565b87610284565b503d6102c0565b82513d87823e3d90fd5b5050fd5b50503461012157816003193601126101215760035490516001600160a01b039091168152602090f35b90503461015b578160031936011261015b5760206103c09161033661078c565b90602435916103436108bb565b8660018060a01b0361035a81600354163314610930565b6103658515156107d3565b610389856005546103848261037d6006548094610923565b10156108de565b610898565b600655600254169287519687958694859363a9059cbb60e01b8552840160209093929193604081019460018060a01b031681520152565b03925af1908115610401576103dc925083916103e3575061085a565b6001815580f35b6103fb915060203d81116102d8576102ca818361080a565b38610284565b505051903d90823e3d90fd5b50503461012157816003193601126101215760015490516001600160a01b039091168152602090f35b5050346101215781600319360112610121576020906005549051908152f35b50503461012157816003193601126101215760209061047960055460065490610923565b9051908152f35b83346104dd57806003193601126104dd576104996107a7565b600180546001600160a01b0319811690915581906001600160a01b03167f8be0079c531659141344cd1fd0a4f28419497f9722a3daafe3b4186f6b6457e08280a380f35b80fd5b90503461015b57602036600319011261015b576104fb61078c565b6105036107a7565b6001600160a01b03169182156105305750506bffffffffffffffffffffffff60a01b600354161760035580f35b906020606492519162461bcd60e51b8352820152600960248201526806d616e616765723d360bc1b6044820152fd5b5050346101215781600319360112610121576020906006549051908152f35b50503461012157816003193601126101215760025490516001600160a01b039091168152602090f35b83915034610121576020366003190112610121578035906105c66108bb565b6105db60018060a01b03600354163314610930565b6105e68215156107d3565b600654908282106106065750906105fc91610923565b6006556001815580f35b606490602086519162461bcd60e51b8352820152600a6024820152691c995c185e4f9919589d60b21b6044820152fd5b90503461015b576020908160031936011261076b578035906106566108bb565b6106618215156107d3565b3385528083528184862054106107315781839161068a6106e99461037d60055460065490610923565b33875280835285872061069e838254610923565b90556106ac82600554610923565b600555600254865163a9059cbb60e01b8152339281019283526020830193909352919384926001600160a01b031691839189918391604090910190565b03925af1918215610724576103dc93508492610707575b505061085a565b61071d9250803d106102d8576102ca818361080a565b3880610700565b50505051903d90823e3d90fd5b835162461bcd60e51b815290810183905260146024820152731a5b9cdd59999a58da595b9d0819195c1bdcda5d60621b6044820152606490fd5b8380fd5b50503461012157816003193601126101215760209061047961096f565b600435906001600160a01b03821682036107a257565b600080fd5b6001546001600160a01b031633036107bb57565b60405163118cdaa760e01b8152336004820152602490fd5b156107da57565b60405162461bcd60e51b81526020600482015260086024820152670616d6f756e743d360c41b6044820152606490fd5b90601f8019910116810190811067ffffffffffffffff82111761082c57604052565b634e487b7160e01b600052604160045260246000fd5b908160209103126107a2575180151581036107a25790565b1561086157565b60405162461bcd60e51b815260206004820152600f60248201526e1d1c985b9cd9995c8819985a5b1959608a1b6044820152606490fd5b919082018092116108a557565b634e487b7160e01b600052601160045260246000fd5b6002600054146108cc576002600055565b604051633ee5aeb560e01b8152600490fd5b156108e557565b60405162461bcd60e51b8152602060048201526016602482015275696e73756666696369656e74206c697175696469747960501b6044820152606490fd5b919082039182116108a557565b1561093757565b60405162461bcd60e51b815260206004820152601060248201526f3737ba103637b0b71036b0b730b3b2b960811b6044820152606490fd5b600554801561099357600654612710908181029181830414901517156108a5570490565b5060009056fea26469706673582212200312d47dc59519fe88f51f0b7ab67ac3594424a3ae247dd5e69804a9598fc37a64736f6c63430008140033",
  "devdoc": {
    "errors": {
      "OwnableInvalidOwner(address)": [
        {
          "details": "The owner is not a valid owner account. (eg. `address(0)`)"
        }
      ],
      "OwnableUnauthorizedAccount(address)": [
        {
          "details": "The caller account is not authorized to perform an operation."
        }
      ],
      "ReentrancyGuardReentrantCall()": [
        {
          "details": "Unauthorized reentrant call."
        }
      ]
    },
    "kind": "dev",
    "methods": {
      "owner()": {
        "details": "Returns the address of the current owner."
      },
      "renounceOwnership()": {
        "details": "Leaves the contract without owner. It will not be possible to call `onlyOwner` functions. Can only be called by the current owner. NOTE: Renouncing ownership will leave the contract without an owner, thereby disabling any functionality that is only available to the owner."
      },
      "transferOwnership(address)": {
        "details": "Transfers ownership of the contract to a new account (`newOwner`). Can only be called by the current owner."
      }
    },
    "version": 1
  },
  "userdoc": {
    "kind": "user",
    "methods": {},
    "version": 1
  },
  "storageLayout": {
    "storage": [
      {
        "astId": 1008,
        "contract": "contracts/LendingPool.sol:LendingPool",
        "label": "_status",
        "offset": 0,
        "slot": "0",
        "type": "t_uint256"
      },
      {
        "astId": 54,
        "contract": "contracts/LendingPool.sol:LendingPool",
        "label": "_owner",
        "offset": 0,
        "slot": "1",
        "type": "t_address"
      },
      {
        "astId": 3891,
        "contract": "contracts/LendingPool.sol:LendingPool",
        "label": "usdc",
        "offset": 0,
        "slot": "2",
        "type": "t_contract(IERC20)923"
      },
      {
        "astId": 3893,
        "contract": "contracts/LendingPool.sol:LendingPool",
        "label": "loanManager",
        "offset": 0,
        "slot": "3",
        "type": "t_address"
      },
      {
        "astId": 3897,
        "contract": "contracts/LendingPool.sol:LendingPool",
        "label": "deposits",
        "offset": 0,
        "slot": "4",
        "type": "t_mapping(t_address,t_uint256)"
      },
      {
        "astId": 3899,
        "contract": "contracts/LendingPool.sol:LendingPool",
        "label": "totalDeposits",
        "offset": 0,
        "slot": "5",
        "type": "t_uint256"
      },
      {
        "astId": 3901,
        "contract": "contracts/LendingPool.sol:LendingPool",
        "label": "totalBorrowed",
        "offset": 0,
        "slot": "6",
        "type": "t_uint256"
      }
    ],
    "types": {
      "t_address": {
        "encoding": "inplace",
        "label": "address",
        "numberOfBytes": "20"
      },
      "t_contract(IERC20)923": {
        "encoding": "inplace",
        "label": "contract IERC20",
        "numberOfBytes": "20"
      },
      "t_mapping(t_address,t_uint256)": {
        "encoding": "mapping",
        "key": "t_address",
        "label": "mapping(address => uint256)",
        "numberOfBytes": "32",
        "value": "t_uint256"
      },
      "t_uint256": {
        "encoding": "inplace",
        "label": "uint256",
        "numberOfBytes": "32"
      }
    }
  }
}