{
  "address": "0x65cDA56b1884E02C061EE27ffae02bD2aB2423ff",
  "abi": [
    {
      "inputs": [
        {
          "internalType": "address",
          "name": "_usdc",
          "type": "address"
        }
      ],
      "stateMutability": "nonpayable",
      "type": "constructor"
    },
    {
      "inputs": [],
      "name": "EnforcedPause",
      "type": "error"
    },
    {
      "inputs": [],
      "name": "ExpectedPause",
      "type": "error"
    },
    {
      "inputs": [
        {
          "internalType": "address",
          "name": "owner",
          "type": "address"
        }
      ],
      "name": "OwnableInvalidOwner",
      "type": "error"
    },
    {
      "inputs": [
        {
          "internalType": "address",
          "name": "account",
          "type": "address"
        }
      ],
      "name": "OwnableUnauthorizedAccount",
      "type": "error"
    },
    {
      "inputs": [],
      "name": "ReentrancyGuardReentrantCall",
      "type": "error"
    },
    {
      "inputs": [
        {
          "internalType": "address",
          "name": "token",
          "type": "address"
        }
      ],
      "name": "SafeERC20FailedOperation",
      "type": "error"
    },
    {
      "anonymous": false,
      "inputs": [
        {
          "indexed": false,
          "internalType": "bool",
          "name": "enabled",
          "type": "bool"
        },
        {
          "indexed": false,
          "internalType": "uint256",
          "name": "delaySeconds",
          "type": "uint256"
        }
      ],
      "name": "AdminTimelockConfigUpdated",
      "type": "event"
    },
    {
      "anonymous": false,
      "inputs": [
        {
          "indexed": true,
          "internalType": "uint256",
          "name": "poolId",
          "type": "uint256"
        },
        {
          "indexed": false,
          "internalType": "uint256",
          "name": "amountMovedToLiquidity",
          "type": "uint256"
        }
      ],
      "name": "CommunityPoolActivated",
      "type": "event"
    },
    {
      "anonymous": false,
      "inputs": [
        {
          "indexed": true,
          "internalType": "uint256",
          "name": "poolId",
          "type": "uint256"
        }
      ],
      "name": "CommunityPoolClosed",
      "type": "event"
    },
    {
      "anonymous": false,
      "inputs": [
        {
          "indexed": true,
          "internalType": "uint256",
          "name": "poolId",
          "type": "uint256"
        },
        {
          "indexed": true,
          "internalType": "address",
          "name": "contributor",
          "type": "address"
        },
        {
          "indexed": false,
          "internalType": "uint256",
          "name": "amount",
          "type": "uint256"
        },
        {
          "indexed": false,
          "internalType": "uint256",
          "name": "buildingUnits",
          "type": "uint256"
        }
      ],
      "name": "CommunityPoolContribution",
      "type": "event"
    },
    {
      "anonymous": false,
      "inputs": [
        {
          "indexed": true,
          "internalType": "uint256",
          "name": "poolId",
          "type": "uint256"
        },
        {
          "indexed": true,
          "internalType": "address",
          "name": "creator",
          "type": "address"
        },
        {
          "indexed": false,
          "internalType": "string",
          "name": "name",
          "type": "string"
        },
        {
          "indexed": false,
          "internalType": "uint256",
          "name": "targetAmount",
          "type": "uint256"
        },
        {
          "indexed": false,
          "internalType": "uint256",
          "name": "maxAmount",
          "type": "uint256"
        },
        {
          "indexed": false,
          "internalType": "uint256",
          "name": "deadline",
          "type": "uint256"
        },
        {
          "indexed": false,
          "internalType": "bool",
          "name": "rewardsByBuildingSize",
          "type": "bool"
        }
      ],
      "name": "CommunityPoolCreated",
      "type": "event"
    },
    {
      "anonymous": false,
      "inputs": [
        {
          "indexed": true,
          "internalType": "uint256",
          "name": "poolId",
          "type": "uint256"
        }
      ],
      "name": "CommunityPoolMarkedRefunding",
      "type": "event"
    },
    {
      "anonymous": false,
      "inputs": [
        {
          "indexed": true,
          "internalType": "uint256",
          "name": "poolId",
          "type": "uint256"
        },
        {
          "indexed": true,
          "internalType": "address",
          "name": "contributor",
          "type": "address"
        },
        {
          "indexed": false,
          "internalType": "uint256",
          "name": "amount",
          "type": "uint256"
        }
      ],
      "name": "CommunityPoolRefunded",
      "type": "event"
    },
    {
      "anonymous": false,
      "inputs": [
        {
          "indexed": true,
          "internalType": "uint256",
          "name": "poolId",
          "type": "uint256"
        },
        {
          "indexed": true,
          "internalType": "address",
          "name": "contributor",
          "type": "address"
        },
        {
          "indexed": false,
          "internalType": "uint256",
          "name": "amount",
          "type": "uint256"
        }
      ],
      "name": "CommunityPoolRewardsClaimed",
      "type": "event"
    },
    {
      "anonymous": false,
      "inputs": [
        {
          "indexed": true,
          "internalType": "uint256",
          "name": "poolId",
          "type": "uint256"
        },
        {
          "indexed": true,
          "internalType": "address",
          "name": "funder",
          "type": "address"
        },
        {
          "indexed": false,
          "internalType": "uint256",
          "name": "amount",
          "type": "uint256"
        }
      ],
      "name": "CommunityPoolRewardsFunded",
      "type": "event"
    },
    {
      "anonymous": false,
      "inputs": [],
      "name": "LoanManagerQueueCancelled",
      "type": "event"
    },
    {
      "anonymous": false,
      "inputs": [
        {
          "indexed": true,
          "internalType": "address",
          "name": "manager",
          "type": "address"
        },
        {
          "indexed": false,
          "internalType": "uint256",
          "name": "executeAfter",
          "type": "uint256"
        }
      ],
      "name": "LoanManagerQueued",
      "type": "event"
    },
    {
      "anonymous": false,
      "inputs": [
        {
          "indexed": true,
          "internalType": "address",
          "name": "loanManager",
          "type": "address"
        }
      ],
      "name": "LoanManagerUpdated",
      "type": "event"
    },
    {
      "anonymous": false,
      "inputs": [
        {
          "indexed": true,
          "internalType": "address",
          "name": "previousOwner",
          "type": "address"
        },
        {
          "indexed": true,
          "internalType": "address",
          "name": "newOwner",
          "type": "address"
        }
      ],
      "name": "OwnershipTransferred",
      "type": "event"
    },
    {
      "anonymous": false,
      "inputs": [
        {
          "indexed": false,
          "internalType": "address",
          "name": "account",
          "type": "address"
        }
      ],
      "name": "Paused",
      "type": "event"
    },
    {
      "anonymous": false,
      "inputs": [],
      "name": "RateModelCancelled",
      "type": "event"
    },
    {
      "anonymous": false,
      "inputs": [
        {
          "indexed": false,
          "internalType": "uint256",
          "name": "lowThresholdBps",
          "type": "uint256"
        },
        {
          "indexed": false,
          "internalType": "uint256",
          "name": "highThresholdBps",
          "type": "uint256"
        },
        {
          "indexed": false,
          "internalType": "uint256",
          "name": "lowRateBps",
          "type": "uint256"
        },
        {
          "indexed": false,
          "internalType": "uint256",
          "name": "midRateBps",
          "type": "uint256"
        },
        {
          "indexed": false,
          "internalType": "uint256",
          "name": "highRateBps",
          "type": "uint256"
        },
        {
          "indexed": false,
          "internalType": "uint256",
          "name": "executeAfter",
          "type": "uint256"
        }
      ],
      "name": "RateModelQueued",
      "type": "event"
    },
    {
      "anonymous": false,
      "inputs": [
        {
          "indexed": false,
          "internalType": "uint256",
          "name": "lowThresholdBps",
          "type": "uint256"
        },
        {
          "indexed": false,
          "internalType": "uint256",
          "name": "highThresholdBps",
          "type": "uint256"
        },
        {
          "indexed": false,
          "internalType": "uint256",
          "name": "lowRateBps",
          "type": "uint256"
        },
        {
          "indexed": false,
          "internalType": "uint256",
          "name": "midRateBps",
          "type": "uint256"
        },
        {
          "indexed": false,
          "internalType": "uint256",
          "name": "highRateBps",
          "type": "uint256"
        }
      ],
      "name": "RateModelUpdated",
      "type": "event"
    },
    {
      "anonymous": false,
      "inputs": [],
      "name": "TreasuryConfigCancelled",
      "type": "event"
    },
    {
      "anonymous": false,
      "inputs": [
        {
          "indexed": false,
          "internalType": "address",
          "name": "issuanceTreasury",
          "type": "address"
        },
        {
          "indexed": false,
          "internalType": "address",
          "name": "returnsTreasury",
          "type": "address"
        },
        {
          "indexed": false,
          "internalType": "uint256",
          "name": "executeAfter",
          "type": "uint256"
        }
      ],
      "name": "TreasuryConfigQueued",
      "type": "event"
    },
    {
      "anonymous": false,
      "inputs": [
        {
          "indexed": false,
          "internalType": "address",
          "name": "issuanceTreasury",
          "type": "address"
        },
        {
          "indexed": false,
          "internalType": "address",
          "name": "returnsTreasury",
          "type": "address"
        }
      ],
      "name": "TreasuryConfigUpdated",
      "type": "event"
    },
    {
      "anonymous": false,
      "inputs": [
        {
          "indexed": false,
          "internalType": "address",
          "name": "account",
          "type": "address"
        }
      ],
      "name": "Unpaused",
      "type": "event"
    },
    {
      "inputs": [],
      "name": "BPS_DENOMINATOR",
      "outputs": [
        {
          "internalType": "uint256",
          "name": "",
          "type": "uint256"
        }
      ],
      "stateMutability": "view",
      "type": "function"
    },
    {
      "inputs": [],
      "name": "REWARD_PRECISION",
      "outputs": [
        {
          "internalType": "uint256",
          "name": "",
          "type": "uint256"
        }
      ],
      "stateMutability": "view",
      "type": "function"
    },
    {
      "inputs": [
        {
          "internalType": "uint256",
          "name": "poolId",
          "type": "uint256"
        }
      ],
      "name": "activateCommunityPool",
      "outputs": [],
      "stateMutability": "nonpayable",
      "type": "function"
    },
    {
      "inputs": [],
      "name": "adminTimelockDelay",
      "outputs": [
        {
          "internalType": "uint256",
          "name": "",
          "type": "uint256"
        }
      ],
      "stateMutability": "view",
      "type": "function"
    },
    {
      "inputs": [],
      "name": "adminTimelockEnabled",
      "outputs": [
        {
          "internalType": "bool",
          "name": "",
          "type": "bool"
        }
      ],
      "stateMutability": "view",
      "type": "function"
    },
    {
      "inputs": [],
      "name": "availableLiquidity",
      "outputs": [
        {
          "internalType": "uint256",
          "name": "",
          "type": "uint256"
        }
      ],
      "stateMutability": "view",
      "type": "function"
    },
    {
      "inputs": [],
      "name": "cancelQueuedLoanManager",
      "outputs": [],
      "stateMutability": "nonpayable",
      "type": "function"
    },
    {
      "inputs": [],
      "name": "cancelQueuedRateModel",
      "outputs": [],
      "stateMutability": "nonpayable",
      "type": "function"
    },
    {
      "inputs": [],
      "name": "cancelQueuedTreasuries",
      "outputs": [],
      "stateMutability": "nonpayable",
      "type": "function"
    },
    {
      "inputs": [
        {
          "internalType": "uint256",
          "name": "poolId",
          "type": "uint256"
        }
      ],
      "name": "claimCommunityPoolRefund",
      "outputs": [],
      "stateMutability": "nonpayable",
      "type": "function"
    },
    {
      "inputs": [
        {
          "internalType": "uint256",
          "name": "poolId",
          "type": "uint256"
        }
      ],
      "name": "claimCommunityPoolRewards",
      "outputs": [],
      "stateMutability": "nonpayable",
      "type": "function"
    },
    {
      "inputs": [
        {
          "internalType": "uint256",
          "name": "poolId",
          "type": "uint256"
        }
      ],
      "name": "closeCommunityPool",
      "outputs": [],
      "stateMutability": "nonpayable",
      "type": "function"
    },
    {
      "inputs": [],
      "name": "communityPoolCount",
      "outputs": [
        {
          "internalType": "uint256",
          "name": "",
          "type": "uint256"
        }
      ],
      "stateMutability": "view",
      "type": "function"
    },
    {
      "inputs": [
        {
          "internalType": "uint256",
          "name": "",
          "type": "uint256"
        }
      ],
      "name": "communityPools",
      "outputs": [
        {
          "internalType": "string",
          "name": "name",
          "type": "string"
        },
        {
          "internalType": "address",
          "name": "creator",
          "type": "address"
        },
        {
          "internalType": "uint256",
          "name": "targetAmount",
          "type": "uint256"
        },
        {
          "internalType": "uint256",
          "name": "maxAmount",
          "type": "uint256"
        },
        {
          "internalType": "uint256",
          "name": "deadline",
          "type": "uint256"
        },
        {
          "internalType": "uint256",
          "name": "totalContributed",
          "type": "uint256"
        },
        {
          "internalType": "uint256",
          "name": "totalBuildingUnits",
          "type": "uint256"
        },
        {
          "internalType": "uint256",
          "name": "participantCount",
          "type": "uint256"
        },
        {
          "internalType": "uint256",
          "name": "accRewardPerWeight",
          "type": "uint256"
        },
        {
          "internalType": "uint256",
          "name": "totalRewardFunded",
          "type": "uint256"
        },
        {
          "internalType": "bool",
          "name": "rewardsByBuildingSize",
          "type": "bool"
        },
        {
          "internalType": "enum LendingPool.CommunityPoolState",
          "name": "state",
          "type": "uint8"
        }
      ],
      "stateMutability": "view",
      "type": "function"
    },
    {
      "inputs": [
        {
          "internalType": "uint256",
          "name": "",
          "type": "uint256"
        },
        {
          "internalType": "address",
          "name": "",
          "type": "address"
        }
      ],
      "name": "communityPositions",
      "outputs": [
        {
          "internalType": "uint256",
          "name": "contributed",
          "type": "uint256"
        },
        {
          "internalType": "uint256",
          "name": "buildingUnits",
          "type": "uint256"
        },
        {
          "internalType": "uint256",
          "name": "rewardDebt",
          "type": "uint256"
        },
        {
          "internalType": "uint256",
          "name": "pendingRewards",
          "type": "uint256"
        },
        {
          "internalType": "bool",
          "name": "joined",
          "type": "bool"
        }
      ],
      "stateMutability": "view",
      "type": "function"
    },
    {
      "inputs": [
        {
          "internalType": "uint256",
          "name": "poolId",
          "type": "uint256"
        },
        {
          "internalType": "uint256",
          "name": "amount",
          "type": "uint256"
        },
        {
          "internalType": "uint256",
          "name": "buildingUnits",
          "type": "uint256"
        }
      ],
      "name": "contributeToCommunityPool",
      "outputs": [],
      "stateMutability": "nonpayable",
      "type": "function"
    },
    {
      "inputs": [
        {
          "internalType": "string",
          "name": "name",
          "type": "string"
        },
        {
          "internalType": "uint256",
          "name": "targetAmount",
          "type": "uint256"
        },
        {
          "internalType": "uint256",
          "name": "maxAmount",
          "type": "uint256"
        },
        {
          "internalType": "uint256",
          "name": "deadline",
          "type": "uint256"
        },
        {
          "internalType": "bool",
          "name": "rewardsByBuildingSize",
          "type": "bool"
        }
      ],
      "name": "createCommunityPool",
      "outputs": [
        {
          "internalType": "uint256",
          "name": "poolId",
          "type": "uint256"
        }
      ],
      "stateMutability": "nonpayable",
      "type": "function"
    },
    {
      "inputs": [
        {
          "internalType": "uint256",
          "name": "amount",
          "type": "uint256"
        }
      ],
      "name": "deposit",
      "outputs": [],
      "stateMutability": "nonpayable",
      "type": "function"
    },
    {
      "inputs": [
        {
          "internalType": "address",
          "name": "",
          "type": "address"
        }
      ],
      "name": "deposits",
      "outputs": [
        {
          "internalType": "uint256",
          "name": "",
          "type": "uint256"
        }
      ],
      "stateMutability": "view",
      "type": "function"
    },
    {
      "inputs": [],
      "name": "executeQueuedLoanManager",
      "outputs": [],
      "stateMutability": "nonpayable",
      "type": "function"
    },
    {
      "inputs": [],
      "name": "executeQueuedRateModel",
      "outputs": [],
      "stateMutability": "nonpayable",
      "type": "function"
    },
    {
      "inputs": [],
      "name": "executeQueuedTreasuries",
      "outputs": [],
      "stateMutability": "nonpayable",
      "type": "function"
    },
    {
      "inputs": [
        {
          "internalType": "uint256",
          "name": "poolId",
          "type": "uint256"
        },
        {
          "internalType": "uint256",
          "name": "amount",
          "type": "uint256"
        }
      ],
      "name": "fundCommunityPoolRewards",
      "outputs": [],
      "stateMutability": "nonpayable",
      "type": "function"
    },
    {
      "inputs": [],
      "name": "getInterestRateBps",
      "outputs": [
        {
          "internalType": "uint256",
          "name": "",
          "type": "uint256"
        }
      ],
      "stateMutability": "view",
      "type": "function"
    },
    {
      "inputs": [],
      "name": "highUtilizationRateBps",
      "outputs": [
        {
          "internalType": "uint256",
          "name": "",
          "type": "uint256"
        }
      ],
      "stateMutability": "view",
      "type": "function"
    },
    {
      "inputs": [],
      "name": "highUtilizationThresholdBps",
      "outputs": [
        {
          "internalType": "uint256",
          "name": "",
          "type": "uint256"
        }
      ],
      "stateMutability": "view",
      "type": "function"
    },
    {
      "inputs": [],
      "name": "issuanceTreasury",
      "outputs": [
        {
          "internalType": "address",
          "name": "",
          "type": "address"
        }
      ],
      "stateMutability": "view",
      "type": "function"
    },
    {
      "inputs": [
        {
          "internalType": "address",
          "name": "to",
          "type": "address"
        },
        {
          "internalType": "uint256",
          "name": "amount",
          "type": "uint256"
        }
      ],
      "name": "lend",
      "outputs": [],
      "stateMutability": "nonpayable",
      "type": "function"
    },
    {
      "inputs": [],
      "name": "loanManager",
      "outputs": [
        {
          "internalType": "address",
          "name": "",
          "type": "address"
        }
      ],
      "stateMutability": "view",
      "type": "function"
    },
    {
      "inputs": [],
      "name": "lowUtilizationRateBps",
      "outputs": [
        {
          "internalType": "uint256",
          "name": "",
          "type": "uint256"
        }
      ],
      "stateMutability": "view",
      "type": "function"
    },
    {
      "inputs": [],
      "name": "lowUtilizationThresholdBps",
      "outputs": [
        {
          "internalType": "uint256",
          "name": "",
          "type": "uint256"
        }
      ],
      "stateMutability": "view",
      "type": "function"
    },
    {
      "inputs": [],
      "name": "midUtilizationRateBps",
      "outputs": [
        {
          "internalType": "uint256",
          "name": "",
          "type": "uint256"
        }
      ],
      "stateMutability": "view",
      "type": "function"
    },
    {
      "inputs": [],
      "name": "owner",
      "outputs": [
        {
          "internalType": "address",
          "name": "",
          "type": "address"
        }
      ],
      "stateMutability": "view",
      "type": "function"
    },
    {
      "inputs": [],
      "name": "pause",
      "outputs": [],
      "stateMutability": "nonpayable",
      "type": "function"
    },
    {
      "inputs": [],
      "name": "paused",
      "outputs": [
        {
          "internalType": "bool",
          "name": "",
          "type": "bool"
        }
      ],
      "stateMutability": "view",
      "type": "function"
    },
    {
      "inputs": [
        {
          "internalType": "uint256",
          "name": "poolId",
          "type": "uint256"
        },
        {
          "internalType": "address",
          "name": "user",
          "type": "address"
        }
      ],
      "name": "pendingCommunityPoolRewards",
      "outputs": [
        {
          "internalType": "uint256",
          "name": "",
          "type": "uint256"
        }
      ],
      "stateMutability": "view",
      "type": "function"
    },
    {
      "inputs": [],
      "name": "pendingLoanManager",
      "outputs": [
        {
          "internalType": "address",
          "name": "manager",
          "type": "address"
        },
        {
          "internalType": "uint256",
          "name": "executeAfter",
          "type": "uint256"
        },
        {
          "internalType": "bool",
          "name": "exists",
          "type": "bool"
        }
      ],
      "stateMutability": "view",
      "type": "function"
    },
    {
      "inputs": [],
      "name": "pendingRateModel",
      "outputs": [
        {
          "internalType": "uint256",
          "name": "lowThresholdBps",
          "type": "uint256"
        },
        {
          "internalType": "uint256",
          "name": "highThresholdBps",
          "type": "uint256"
        },
        {
          "internalType": "uint256",
          "name": "lowRateBps",
          "type": "uint256"
        },
        {
          "internalType": "uint256",
          "name": "midRateBps",
          "type": "uint256"
        },
        {
          "internalType": "uint256",
          "name": "highRateBps",
          "type": "uint256"
        },
        {
          "internalType": "uint256",
          "name": "executeAfter",
          "type": "uint256"
        },
        {
          "internalType": "bool",
          "name": "exists",
          "type": "bool"
        }
      ],
      "stateMutability": "view",
      "type": "function"
    },
    {
      "inputs": [],
      "name": "pendingTreasuryConfig",
      "outputs": [
        {
          "internalType": "address",
          "name": "issuanceTreasury",
          "type": "address"
        },
        {
          "internalType": "address",
          "name": "returnsTreasury",
          "type": "address"
        },
        {
          "internalType": "uint256",
          "name": "executeAfter",
          "type": "uint256"
        },
        {
          "internalType": "bool",
          "name": "exists",
          "type": "bool"
        }
      ],
      "stateMutability": "view",
      "type": "function"
    },
    {
      "inputs": [
        {
          "internalType": "address",
          "name": "manager",
          "type": "address"
        }
      ],
      "name": "queueLoanManager",
      "outputs": [],
      "stateMutability": "nonpayable",
      "type": "function"
    },
    {
      "inputs": [
        {
          "internalType": "uint256",
          "name": "lowThresholdBps",
          "type": "uint256"
        },
        {
          "internalType": "uint256",
          "name": "highThresholdBps",
          "type": "uint256"
        },
        {
          "internalType": "uint256",
          "name": "lowRateBps",
          "type": "uint256"
        },
        {
          "internalType": "uint256",
          "name": "midRateBps",
          "type": "uint256"
        },
        {
          "internalType": "uint256",
          "name": "highRateBps",
          "type": "uint256"
        }
      ],
      "name": "queueRateModel",
      "outputs": [],
      "stateMutability": "nonpayable",
      "type": "function"
    },
    {
      "inputs": [
        {
          "internalType": "address",
          "name": "issuance",
          "type": "address"
        },
        {
          "internalType": "address",
          "name": "returnsAddr",
          "type": "address"
        }
      ],
      "name": "queueTreasuries",
      "outputs": [],
      "stateMutability": "nonpayable",
      "type": "function"
    },
    {
      "inputs": [],
      "name": "renounceOwnership",
      "outputs": [],
      "stateMutability": "nonpayable",
      "type": "function"
    },
    {
      "inputs": [
        {
          "internalType": "uint256",
          "name": "amount",
          "type": "uint256"
        }
      ],
      "name": "repay",
      "outputs": [],
      "stateMutability": "nonpayable",
      "type": "function"
    },
    {
      "inputs": [],
      "name": "returnsTreasury",
      "outputs": [
        {
          "internalType": "address",
          "name": "",
          "type": "address"
        }
      ],
      "stateMutability": "view",
      "type": "function"
    },
    {
      "inputs": [
        {
          "internalType": "bool",
          "name": "enabled",
          "type": "bool"
        },
        {
          "internalType": "uint256",
          "name": "delaySeconds",
          "type": "uint256"
        }
      ],
      "name": "setAdminTimelockConfig",
      "outputs": [],
      "stateMutability": "nonpayable",
      "type": "function"
    },
    {
      "inputs": [
        {
          "internalType": "address",
          "name": "manager",
          "type": "address"
        }
      ],
      "name": "setLoanManager",
      "outputs": [],
      "stateMutability": "nonpayable",
      "type": "function"
    },
    {
      "inputs": [
        {
          "internalType": "uint256",
          "name": "lowThresholdBps",
          "type": "uint256"
        },
        {
          "internalType": "uint256",
          "name": "highThresholdBps",
          "type": "uint256"
        },
        {
          "internalType": "uint256",
          "name": "lowRateBps",
          "type": "uint256"
        },
        {
          "internalType": "uint256",
          "name": "midRateBps",
          "type": "uint256"
        },
        {
          "internalType": "uint256",
          "name": "highRateBps",
          "type": "uint256"
        }
      ],
      "name": "setRateModel",
      "outputs": [],
      "stateMutability": "nonpayable",
      "type": "function"
    },
    {
      "inputs": [
        {
          "internalType": "address",
          "name": "issuance",
          "type": "address"
        },
        {
          "internalType": "address",
          "name": "returnsAddr",
          "type": "address"
        }
      ],
      "name": "setTreasuries",
      "outputs": [],
      "stateMutability": "nonpayable",
      "type": "function"
    },
    {
      "inputs": [],
      "name": "totalBorrowed",
      "outputs": [
        {
          "internalType": "uint256",
          "name": "",
          "type": "uint256"
        }
      ],
      "stateMutability": "view",
      "type": "function"
    },
    {
      "inputs": [],
      "name": "totalDeposits",
      "outputs": [
        {
          "internalType": "uint256",
          "name": "",
          "type": "uint256"
        }
      ],
      "stateMutability": "view",
      "type": "function"
    },
    {
      "inputs": [
        {
          "internalType": "address",
          "name": "newOwner",
          "type": "address"
        }
      ],
      "name": "transferOwnership",
      "outputs": [],
      "stateMutability": "nonpayable",
      "type": "function"
    },
    {
      "inputs": [],
      "name": "unpause",
      "outputs": [],
      "stateMutability": "nonpayable",
      "type": "function"
    },
    {
      "inputs": [],
      "name": "usdc",
      "outputs": [
        {
          "internalType": "contract IERC20",
          "name": "",
          "type": "address"
        }
      ],
      "stateMutability": "view",
      "type": "function"
    },
    {
      "inputs": [],
      "name": "utilizationRateBps",
      "outputs": [
        {
          "internalType": "uint256",
          "name": "",
          "type": "uint256"
        }
      ],
      "stateMutability": "view",
      "type": "function"
    },
    {
      "inputs": [
        {
          "internalType": "uint256",
          "name": "amount",
          "type": "uint256"
        }
      ],
      "name": "withdraw",
      "outputs": [],
      "stateMutability": "nonpayable",
      "type": "function"
    }
  ],
  "transactionHash": "0xa5432e8d5ba9708185e25c9d3ae0042893ac758289b72ad1fc4dbe734cf02d1d",
  "args": [
    "0xc9c9083f4794165E9baA920fc9FcBc462864d992"
  ],
  "numDeployments": 3,
  "solcInputHash": "12071d6471f80fd9e8fb0810983849fd",
  "bytecode": "0x6080346200011157601f62002d5938819003918201601f19168301916001600160401b0383118484101762000116578084926020946040528339810103126200011157516001600160a01b039081811690819003620001115760016000553315620000f857600180546001600160a01b0319808216339081179093556040519490939291167f8be0079c531659141344cd1fd0a4f28419497f9722a3daafe3b4186f6b6457e0600080a3610fa0600955611d4c600a556104b0600b55610708600c55610a28600d5562015180600f558160025416176002553381600454161760045533906005541617600555612c2c90816200012d8239f35b604051631e4fbdf760e01b815260006004820152602490fd5b600080fd5b634e487b7160e01b600052604160045260246000fdfe608080604052600436101561001357600080fd5b60003560e01c90816302c83c24146120d95750806303d98c1f146120be57806307c506c9146120a05780630b1b656d14611f3b57806311a6f3da14611f1d5780631352f18714611ef4578063159e9afb14611e695780632065124f14611e225780632216fc7114611cc6578063228a30e914611ca85780632e1a7d4d14611bc357806332b2812014611b53578063371fd8e614611abf5780633d6aa5e114611a9c5780633e413bee14611a735780633f4ba83a14611a01578063423ae28d146119485780634c19386c1461192a5780634d158c64146118e957806354c37c4f146118c65780635772ae701461188e57806357be57a71461181e57806359090feb146117c85780635c975abb146117a25780636f9e41a1146116ed578063715018a61461169057806371c9aaa51461147857806374375359146114565780637c9f95aa146114385780637d8820971461141a5780638456cb59146113b8578063862c53be146111e057806389b8395f146110e35780638da5cb5b146110ba5780639baee8fc14610fdf578063a2fb342d14610f4a578063a59ffd3614610e8e578063ad02b40d14610d84578063af91842014610d5e578063b340367714610bbd578063b3ccbcfe14610b94578063b6a6eeb614610b76578063b6b55f2514610aec578063be5edb8214610ac3578063c1207bd714610a37578063ca068d1414610558578063cdc4ac821461051c578063d5fe04a1146104bf578063d6abd0121461048c578063e1a452181461046f578063ec7320eb146103f7578063f2fde38b1461036e578063f660d05814610307578063fa6e9c2f146102e9578063fc7e286d146102af5763ff3ac2641461028757600080fd5b346102aa5760003660031901126102aa5760206102a2612823565b604051908152f35b600080fd5b346102aa5760203660031901126102aa576001600160a01b036102d06120f4565b1660005260066020526020604060002054604051908152f35b346102aa5760003660031901126102aa576020601e54604051908152f35b346102aa5760003660031901126102aa576103206121f2565b61032e60ff601654166122dc565b6103476000601355600060145560006015556000601655565b7f0b1bd025678edba0e950e7e8f0c266baa82960a66328930d072cac4f40264708600080a1005b346102aa5760203660031901126102aa576103876120f4565b61038f6121f2565b6001600160a01b039081169081156103de57600154826001600160601b0360a01b821617600155167f8be0079c531659141344cd1fd0a4f28419497f9722a3daafe3b4186f6b6457e0600080a3005b604051631e4fbdf760e01b815260006004820152602490fd5b346102aa5760403660031901126102aa5761041061210a565b6004356000526020805260406000209060018060a01b031660005260205260a06040600020805490600181015490600281015460ff60046003840154930154169260405194855260208501526040840152606083015215156080820152f35b346102aa5760003660031901126102aa5760206040516127108152f35b346102aa576104bd61049d36612120565b936104a99391936121f2565b6104b860ff600e54161561221e565b612598565b005b346102aa5760003660031901126102aa576104d86121f2565b6104e660ff601254166122dc565b6000601055600060115560006012557f58f8d058d65c5fba672452718f4ce16cb9299d1bd63285d363dc5a6fcf18ed24600080a1005b346102aa5760003660031901126102aa57606060018060a01b036010541660115460ff6012541690604051928352602083015215156040820152f35b346102aa5760a03660031901126102aa5767ffffffffffffffff600435116102aa573660236004350112156102aa5767ffffffffffffffff60043560040135116102aa57366024600435600401356004350101116102aa5760843580151581036102aa576105c46126e8565b6004356004013515610a0257602435156109d257602435604435106109a05742606435111561096c57601e546001810180821161095657601e55604051918261018081011067ffffffffffffffff610180850111176109405761018083016040526106436020601f19601f6004356004013501160161018085016121d0565b6004356004013561018084015260006101a06004356004013560246004350182870137600435600401358501015261018083018352336020840152602435604084015260443560608401526064356080840152600060a0840152600060c0840152600060e084015260006101008401526000610120840152801515610140840152600061016084015281600052601f6020526040600020835180519067ffffffffffffffff8211610940576106f88354612142565b601f81116108fc575b50602090601f831160011461089157600a93929160009183610886575b50508160011b916000199060031b1c19161781555b6001810160018060a01b036020870151166001600160601b0360a01b82541617905560408501516002820155606085015160038201556080850151600482015560a0850151600582015560c0850151600682015560e085015160078201556101008501516008820155610120850151600982015501610140840151151561016082549501519460048610156108705760ff61ff0060209760081b1692169061ffff1916171790556040519060a082526004356004013560a08301526004356004013560246004350160c0840137600060c06004356004013584010152602435848301526044356040830152606435606083015215156080820152817fbc664034040964aad99a74f7a8c17408249c4e555e8b759524e9e36b14418002339260c081601f19601f6004356004013501168101030190a3604051908152f35b634e487b7160e01b600052602160045260246000fd5b01519050878061071e565b90601f198316918460005260206000209260005b8181106108e45750916001939185600a979694106108cb575b505050811b018155610733565b015160001960f88460031b161c191690558780806108be565b929360206001819287860151815501950193016108a5565b836000526020600020601f840160051c810160208510610939575b601f830160051c8201811061092d575050610701565b60008155600101610917565b5080610917565b634e487b7160e01b600052604160045260246000fd5b634e487b7160e01b600052601160045260246000fd5b60405162461bcd60e51b815260206004820152600c60248201526b62616420646561646c696e6560a01b6044820152606490fd5b60405162461bcd60e51b815260206004820152600a6024820152691b585e0f1d185c99d95d60b21b6044820152606490fd5b60405162461bcd60e51b815260206004820152600860248201526707461726765743d360c41b6044820152606490fd5b60405162461bcd60e51b815260206004820152600d60248201526c1b985b59481c995c5d5a5c9959609a1b6044820152606490fd5b346102aa5760203660031901126102aa57600435610a53612709565b610a5b6126e8565b610a68601e548210612851565b80600052601f602052604060002090610a818183612a04565b60ff600a83015460081c1691600483101561087057610aa3610abc9315612888565b610ab76005820154600283015411156128c6565b612a87565b6001600055005b346102aa5760003660031901126102aa576004546040516001600160a01b039091168152602090f35b346102aa5760203660031901126102aa57610b6c600435610b0b612709565b610b136126e8565b610b1e8115156125fe565b600454610b499082906001600160a01b0390811690610b3e82151561235a565b600254163390612635565b3360005260066020526040600020610b628282546122cf565b90556007546122cf565b6007556001600055005b346102aa5760003660031901126102aa576020600d54604051908152f35b346102aa5760003660031901126102aa576003546040516001600160a01b039091168152602090f35b346102aa5760203660031901126102aa57600435600052601f602052604060002060405190600081549083610bf183612142565b918282526001938481169081600014610d3f5750600114610cfb575b610c19925003846121d0565b60018060a01b039082015416600282015491600381015490600481015460058201546006830154600784015491600885015493600a600987015496015496604051996101808b528b51998a6101808d015260005b8b8110610ce557508b9c5060006101a08c60ff9d9e01015260208d015260408c015260608b015260808a015260a089015260c088015260e0870152610100860152610120850152818116151561014085015260081c16600481101561087057610160830152601f01601f191681018190036101a00190f35b6020818f018101516101a08f8401015201610c6d565b509083600052602060002090836000925b828410610d2557505050906020610c1992820101610c0d565b6020929450805483858a0101520191019091838693610d0c565b60209250610c1994915060ff191682840152151560051b820101610c0d565b346102aa5760403660031901126102aa5760206102a2610d7c61210a565b600435612975565b346102aa5760403660031901126102aa577f647072bbcdcd9f4418ac0a9877bfa49124711cdef9da497d4d1c9619934f24ac610dbe6120f4565b610dc661210a565b90610dcf6121f2565b610ddd60ff600e5416612257565b610e896001600160a01b0382811690610df782151561235a565b8416610e04811515612393565b610e10600f54426122cf565b9160016060604051610e218161217c565b83815284602082015285604082015201526001600160601b0360a01b90816013541617601355601454161760145580601555600160ff1960165416176016556040519384938460409194939294606082019560018060a01b0380921683521660208201520152565b0390a1005b346102aa5760403660031901126102aa576004358015158091036102aa57602435610eb76121f2565b603c81101580610f3d575b15610f0c577f687911c7f7b365a8368a45830a19c83a06fd492822054b1e7035e987f6ac50699160409160ff19600e541660ff831617600e5580600f5582519182526020820152a1005b60405162461bcd60e51b81526020600482015260096024820152686261642064656c617960b81b6044820152606490fd5b5062278d00811115610ec2565b346102aa5760403660031901126102aa57610abc610f666120f4565b60243590610f72612709565b6003546001600160a01b0390610f8b908216331461277e565b610f936126e8565b610f9e8315156125fe565b610fc283600754610fbd82610fb66008548094612771565b101561272c565b6122cf565b600855806004541690610fd682151561235a565b60025416612635565b346102aa577fc1e9621371d80b4b7121b562414767106563087ecc4487a1858ad3005c13a2a660c061101036612120565b916110196121f2565b61102760ff600e5416612257565b611034838383878961248b565b611040600f54426122cf565b93600187604051611050816121b4565b8881528360208201528460408201528560608201528660808201528760a0820152015285601755806018558160195582601a5583601b5584601c55600160ff19601d541617601d55604051958652602086015260408501526060840152608083015260a0820152a1005b346102aa5760003660031901126102aa576001546040516001600160a01b039091168152602090f35b346102aa5760203660031901126102aa576004356110ff6126e8565b61110c601e548210612851565b80600052601f60205260406000206111248282612a04565b600a81019081549060ff8260081c166004811015610870576001611148911461293c565b600154336001600160a01b03918216149182156111cf575b5050156111995761ff0019166103001790557fd266f99b11b50da9da18867f650c6dfb06e19d5081e83247799674db155d818e600080a2005b60405162461bcd60e51b815260206004820152600e60248201526d1b9bdd08185d5d1a1bdc9a5e995960921b6044820152606490fd5b600191925001541633148480611160565b346102aa576020806003193601126102aa576004356111fd612709565b6112056126e8565b611212601e548210612851565b80600052601f825260406000206112298282612a04565b60ff600a82015460081c1660048110156108705760020361138357816000528280526040600020336000528352604060002092835493841561134a5760058301611274868254612771565b9055600760068401938454946001840195865411156000146113415761129c86548254612771565b90555b0180549081151580611333575b61131a575b50508060007fab40950dcb0c1c5980175f904ffc0f9eaab42f7fc3fd517555b98a4a22d8bc5e9481600494555560006002820155600060038201550160ff19815416905561130a843360018060a01b0360025416612903565b6040519384523393a36001600055005b60001982019291831161095657919091558060006112b1565b5060ff6004840154166112ac565b6000905561129f565b60405162461bcd60e51b81526004810183905260116024820152701b9bdd1a1a5b99c81d1bc81c99599d5b99607a1b6044820152606490fd5b60405162461bcd60e51b815260048101849052600d60248201526c6e6f7420726566756e64696e6760981b6044820152606490fd5b346102aa5760003660031901126102aa576113d16121f2565b6113d96126e8565b6001805460ff60a01b1916600160a01b1790556040513381527f62e78cea01bee320cd4e420270b5ea74000d11b0c9f74754ebdbfc544b05a25890602090a1005b346102aa5760003660031901126102aa576020600754604051908152f35b346102aa5760003660031901126102aa576020600b54604051908152f35b346102aa5760003660031901126102aa5760206102a260075460085490612771565b346102aa5760603660031901126102aa5760443560043560243561149a612709565b6114a26126e8565b81600052602090601f82526040600020936114c0601e548510612851565b6114ca8486612a04565b600a8501549260ff8460081c166004811015610870576114ea9015612888565b6114f58315156125fe565b60058601936115058486546122cf565b60038801541061165c5760ff16611626575b84600052808052604060002033600052815260406000206115388188612b78565b60048101805460ff8116156115fe575b5050806115598561159093546122cf565b81556001810161156a8582546122cf565b90556115778587546122cf565b8655600688016115888582546122cf565b905587612bd5565b6002546115ab908490309033906001600160a01b0316612635565b604051928352820152827f516e0b1a47f60c52094a67b03256aec299389abccd049f85b6ec7089fd697f8460403393a354600283015411156115ee576001600055005b6115f791612a87565b8080610abc565b60019060ff191617905560078701908154600181018091116109565761159092559088611548565b81611517576064906040519062461bcd60e51b82526004820152600a60248201526906275696c64696e673d360b41b6044820152fd5b60405162461bcd60e51b815260048101839052600c60248201526b1b585e08195e18d95959195960a21b6044820152606490fd5b346102aa5760003660031901126102aa576116a96121f2565b600180546001600160a01b031981169091556000906001600160a01b03167f8be0079c531659141344cd1fd0a4f28419497f9722a3daafe3b4186f6b6457e08280a3005b346102aa5760003660031901126102aa576117066121f2565b6104bd604051611715816121b4565b6017548152601854906020810191825260195460408201908152601a549060608301918252601b549260808101938452611771601c5460a0830190815261176860ff601d541615158060c08601526122dc565b5142101561231b565b611793600080601755806018558060195580601a5580601b5580601c55601d55565b51935190519151925193612598565b346102aa5760003660031901126102aa57602060ff60015460a01c166040519015158152f35b346102aa5760003660031901126102aa5760e0601754601854601954601a54601b5490601c549260ff601d541694604051968752602087015260408601526060850152608084015260a0830152151560c0820152f35b346102aa5760003660031901126102aa576118376121f2565b6104bd60405161184681612198565b60018060a01b0390816010541681526118786011546020830190815261176860ff6012541615158060408601526122dc565b60006010556000601155600060125551166123cb565b346102aa5760203660031901126102aa576104bd6118aa6120f4565b6118b26121f2565b6118c160ff600e54161561221e565b6123cb565b346102aa5760003660031901126102aa57602060ff600e54166040519015158152f35b346102aa5760403660031901126102aa576104bd6119056120f4565b61190d61210a565b906119166121f2565b61192560ff600e54161561221e565b612418565b346102aa5760003660031901126102aa576020600854604051908152f35b346102aa5760203660031901126102aa576119616120f4565b6119696121f2565b61197760ff600e5416612257565b6001600160a01b031661198b811515612297565b7f4613d1ec45c5fb4e57c5e0fa3f672ab285fe109e70e3580957a76423e5f8476160206119ba600f54426122cf565b6001604080516119c981612198565b86815283858201520152836001600160601b0360a01b601054161760105580601155600160ff196012541617601255604051908152a2005b346102aa5760003660031901126102aa57611a1a6121f2565b60015460ff8160a01c1615611a615760ff60a01b19166001556040513381527f5db9ee0a495bf2e6ff9c91a7834c1ba4fdd244a5e8aa4e537bd38aeae4b073aa90602090a1005b604051638dfc202b60e01b8152600490fd5b346102aa5760003660031901126102aa576002546040516001600160a01b039091168152602090f35b346102aa5760003660031901126102aa576020604051670de0b6b3a76400008152f35b346102aa5760203660031901126102aa57600435611adb612709565b611af060018060a01b0360035416331461277e565b611af86126e8565b611b038115156125fe565b60085490808210611b2157611b1791612771565b6008556001600055005b60405162461bcd60e51b815260206004820152600a6024820152691c995c185e4f9919589d60b21b6044820152606490fd5b346102aa5760003660031901126102aa57611b6c6121f2565b611b7a60ff601d54166122dc565b611b9c600080601755806018558060195580601a5580601b5580601c55601d55565b7f3c3bb58a6ec21fde7b06fdffe6980a39034922699377f69f77d65e2ce88575d2600080a1005b346102aa5760203660031901126102aa57600435611bdf612709565b611be76126e8565b611bf28115156125fe565b3360005260066020528060406000205410611c6c5780611c1e610abc92610fb660075460085490612771565b3360005260066020526040600020611c37828254612771565b9055611c4581600754612771565b6007556004546001600160a01b03908116611c6181151561235a565b339160025416612635565b60405162461bcd60e51b81526020600482015260146024820152731a5b9cdd59999a58da595b9d0819195c1bdcda5d60621b6044820152606490fd5b346102aa5760003660031901126102aa576020600954604051908152f35b346102aa5760403660031901126102aa57602435600435611ce5612709565b611ced6126e8565b611cfa601e548210612851565b8115611d0681156125fe565b81600052601f6020526040600020611d1e8382612a04565b600a81015460ff8160081c1690600482101561087057611d42600160ff931461293c565b1615611e17576006810154915b8215611de657600254611d70908690309033906001600160a01b0316612635565b670de0b6b3a7640000908186029186830414171561095657600992611d94916127d0565b611da3600883019182546122cf565b905501611db18382546122cf565b90556040519182527f1bb1eb476732d037d653062e98fbdbb9e30d2bc8c526483e30fa241d6369843b60203393a36001600055005b60405162461bcd60e51b81526020600482015260096024820152681b9bc81dd95a59da1d60ba1b6044820152606490fd5b600581015491611d4f565b346102aa5760003660031901126102aa57608060018060a01b038060135416906014541660155460ff60165416916040519384526020840152604083015215156060820152f35b346102aa5760003660031901126102aa57611e826121f2565b6104bd604051611e918161217c565b60018060a01b03806013541682528080601454169260208101938452611ed06015546040830190815261176860ff6016541615158060608601526122dc565b611ee96000601355600060145560006015556000601655565b511691511690612418565b346102aa5760003660031901126102aa576005546040516001600160a01b039091168152602090f35b346102aa5760003660031901126102aa576020600f54604051908152f35b346102aa576020806003193601126102aa57600435611f58612709565b611f606126e8565b611f6d601e548210612851565b80600052601f8252604060002091611f858284612a04565b60ff600a84015460081c1660048110156108705760018114908115612095575b501561205b578160005280805260406000203360005281526040600020611fcc8185612b78565b60038101938454948515612023579161200a9160007f92ee7dc6833e54268f75eaaa7fd76858a95102ef65d5ae036305e65638586039959455612bd5565b60025461130a90859033906001600160a01b0316612903565b60405162461bcd60e51b815260048101859052601060248201526f6e6f7468696e6720746f20636c61696d60801b6044820152606490fd5b6064906040519062461bcd60e51b8252600482015260136024820152727265776172647320756e617661696c61626c6560681b6044820152fd5b600391501484611fa5565b346102aa5760003660031901126102aa576020600a54604051908152f35b346102aa5760003660031901126102aa5760206102a26127f0565b346102aa5760003660031901126102aa57602090600c548152f35b600435906001600160a01b03821682036102aa57565b602435906001600160a01b03821682036102aa57565b60a09060031901126102aa576004359060243590604435906064359060843590565b90600182811c92168015612172575b602083101461215c57565b634e487b7160e01b600052602260045260246000fd5b91607f1691612151565b6080810190811067ffffffffffffffff82111761094057604052565b6060810190811067ffffffffffffffff82111761094057604052565b60e0810190811067ffffffffffffffff82111761094057604052565b90601f8019910116810190811067ffffffffffffffff82111761094057604052565b6001546001600160a01b0316330361220657565b60405163118cdaa760e01b8152336004820152602490fd5b1561222557565b60405162461bcd60e51b815260206004820152600a6024820152691d1a5b595b1bd8dad95960b21b6044820152606490fd5b1561225e57565b60405162461bcd60e51b81526020600482015260116024820152701d1a5b595b1bd8dac8191a5cd8589b1959607a1b6044820152606490fd5b1561229e57565b60405162461bcd60e51b815260206004820152600960248201526806d616e616765723d360bc1b6044820152606490fd5b9190820180921161095657565b156122e357565b60405162461bcd60e51b815260206004820152601060248201526f6e6f2071756575656420636f6e66696760801b6044820152606490fd5b1561232257565b60405162461bcd60e51b815260206004820152601060248201526f74696d656c6f636b2070656e64696e6760801b6044820152606490fd5b1561236157565b60405162461bcd60e51b815260206004820152600a602482015269069737375616e63653d360b41b6044820152606490fd5b1561239a57565b60405162461bcd60e51b8152602060048201526009602482015268072657475726e733d360bc1b6044820152606490fd5b6001600160a01b03166123df811515612297565b600380546001600160a01b031916821790557f1dc4f84ee7313043091b27f406c2494a0c94127ded69968d246cb341249d5f16600080a2565b7f81a577879f5afba839dc12949fdfc537e7ab528414301ccc1d723e2abcbe7d1b916040916001600160a01b039081169161245483151561235a565b16612460811515612393565b806001600160601b0360a01b83816004541617600455600554161760055582519182526020820152a1565b8111156125625761271010612528578183911115918261251d575b5050156124ec57611388106124b757565b60405162461bcd60e51b815260206004820152600d60248201526c0e4c2e8ca40e8dede40d0d2ced609b1b6044820152606490fd5b60405162461bcd60e51b815260206004820152600960248201526862616420726174657360b81b6044820152606490fd5b1115905081386124a6565b60405162461bcd60e51b81526020600482015260126024820152710e8d0e4cae6d0ded8c840e8dede40d0d2ced60731b6044820152606490fd5b60405162461bcd60e51b815260206004820152600e60248201526d626164207468726573686f6c647360901b6044820152606490fd5b919260a0937f2a563719518ef25a5afb5aa238bf2c271eff54e0d1e0fd3b9b8b779c7919c35f95926125cd848484848961248b565b8460095580600a5581600b5582600c5583600d556040519485526020850152604084015260608301526080820152a1565b1561260557565b60405162461bcd60e51b81526020600482015260086024820152670616d6f756e743d360c41b6044820152606490fd5b6040516323b872dd60e01b60208201526001600160a01b03928316602482015292909116604483015260648083019390935291815261267e916126796084836121d0565b612680565b565b906000602091828151910182855af1156126dc576000513d6126d357506001600160a01b0381163b155b6126b15750565b604051635274afe760e01b81526001600160a01b039091166004820152602490fd5b600114156126aa565b6040513d6000823e3d90fd5b60ff60015460a01c166126f757565b60405163d93c066560e01b8152600490fd5b60026000541461271a576002600055565b604051633ee5aeb560e01b8152600490fd5b1561273357565b60405162461bcd60e51b8152602060048201526016602482015275696e73756666696369656e74206c697175696469747960501b6044820152606490fd5b9190820391821161095657565b1561278557565b60405162461bcd60e51b815260206004820152601060248201526f3737ba103637b0b71036b0b730b3b2b960811b6044820152606490fd5b8181029291811591840414171561095657565b81156127da570490565b634e487b7160e01b600052601260045260246000fd5b600754801561281d5760085490612710918281029281840414901517156109565761281a916127d0565b90565b50600090565b61282b6127f0565b60095481111561284a57600a54101561284457600d5490565b600c5490565b50600b5490565b1561285857565b60405162461bcd60e51b8152602060048201526008602482015267189859081c1bdbdb60c21b6044820152606490fd5b1561288f57565b60405162461bcd60e51b815260206004820152600f60248201526e6e6f742066756e6472616973696e6760881b6044820152606490fd5b156128cd57565b60405162461bcd60e51b815260206004820152600e60248201526d1d185c99d95d081b9bdd081b595d60921b6044820152606490fd5b60405163a9059cbb60e01b60208201526001600160a01b03909216602483015260448083019390935291815261267e916126798261217c565b1561294357565b60405162461bcd60e51b815260206004820152600a6024820152696e6f742061637469766560b01b6044820152606490fd5b90601e548210156129fd57600361281a926000908152601f602052604081209260208052604082209060018060a01b03168252602052670de0b6b3a76400006129d1604083209460086129c88783612b61565b910154906127bd565b046002840154908181116000146129f5576129ec9250612771565b915b01546122cf565b5050916129ee565b5050600090565b600a81019081549060ff8260081c16600481101561087057159081612a79575b81612a66575b50612a3457505050565b61ff0019166102001790557f31acae2083c1a37b8a7eb34e8667202cf6bb4209f8162929f0c02f44b75beb2f600080a2565b9050600260058201549101541138612a2a565b600481015442119150612a24565b600a810180549060ff8260081c16600481101561087057612b3057612b26602092612b118560057f441a482477fd291d40436600f2605cb0aeffdb58ef2c34a06ea4d65b93ada8d6970194612ae4600287549301548310156128c6565b6004546001600160a01b039461010091612b01908716151561235a565b61ff0019161790556007546122cf565b60075580600254169060045416835491612903565b54604051908152a2565b60405162461bcd60e51b815260206004820152600960248201526862616420737461746560b81b6044820152606490fd5b600a015460ff1615612b74576001015490565b5490565b612b828282612b61565b908115612bd057670de0b6b3a7640000916008612ba1920154906127bd565b046002820154808211612bb357505050565b612bc2600391612bcc93612771565b92019182546122cf565b9055565b505050565b670de0b6b3a7640000612bf060029260086129c88683612b61565b0491015556fea26469706673582212202e971d3b01af3314b388cc7edd41b737320847fcb8af93e2d82192f0e9b30fed64736f6c63430008140033",
  "devdoc": {
    "errors": {
      "EnforcedPause()": [
        {
          "details": "The operation failed because the contract is paused."
        }
      ],
      "ExpectedPause()": [
        {
          "details": "The operation failed because the contract is not paused."
        }
      ],
      "OwnableInvalidOwner(address)": [
        {
          "details": "The owner is not a valid owner account. (eg. `address(0)`)"
        }
      ],
      "OwnableUnauthorizedAccount(address)": [
        {
          "details": "The caller account is not authorized to perform an operation."
        }
      ],
      "ReentrancyGuardReentrantCall()": [
        {
          "details": "Unauthorized reentrant call."
        }
      ],
      "SafeERC20FailedOperation(address)": [
        {
          "details": "An operation with an ERC-20 token failed."
        }
      ]
    },
    "events": {
      "Paused(address)": {
        "details": "Emitted when the pause is triggered by `account`."
      },
      "Unpaused(address)": {
        "details": "Emitted when the pause is lifted by `account`."
      }
    },
    "kind": "dev",
    "methods": {
      "owner()": {
        "details": "Returns the address of the current owner."
      },
      "paused()": {
        "details": "Returns true if the contract is paused, and false otherwise."
      },
      "renounceOwnership()": {
        "details": "Leaves the contract without owner. It will not be possible to call `onlyOwner` functions. Can only be called by the current owner. NOTE: Renouncing ownership will leave the contract without an owner, thereby disabling any functionality that is only available to the owner."
      },
      "transferOwnership(address)": {
        "details": "Transfers ownership of the contract to a new account (`newOwner`). Can only be called by the current owner."
      }
    },
    "version": 1
  },
  "userdoc": {
    "kind": "user",
    "methods": {},
    "version": 1
  },
  "storageLayout": {
    "storage": [
      {
        "astId": 1070,
        "contract": "contracts/LendingPool.sol:LendingPool",
        "label": "_status",
        "offset": 0,
        "slot": "0",
        "type": "t_uint256"
      },
      {
        "astId": 54,
        "contract": "contracts/LendingPool.sol:LendingPool",
        "label": "_owner",
        "offset": 0,
        "slot": "1",
        "type": "t_address"
      },
      {
        "astId": 960,
        "contract": "contracts/LendingPool.sol:LendingPool",
        "label": "_paused",
        "offset": 20,
        "slot": "1",
        "type": "t_bool"
      },
      {
        "astId": 7473,
        "contract": "contracts/LendingPool.sol:LendingPool",
        "label": "usdc",
        "offset": 0,
        "slot": "2",
        "type": "t_contract(IERC20)361"
      },
      {
        "astId": 7475,
        "contract": "contracts/LendingPool.sol:LendingPool",
        "label": "loanManager",
        "offset": 0,
        "slot": "3",
        "type": "t_address"
      },
      {
        "astId": 7477,
        "contract": "contracts/LendingPool.sol:LendingPool",
        "label": "issuanceTreasury",
        "offset": 0,
        "slot": "4",
        "type": "t_address"
      },
      {
        "astId": 7479,
        "contract": "contracts/LendingPool.sol:LendingPool",
        "label": "returnsTreasury",
        "offset": 0,
        "slot": "5",
        "type": "t_address"
      },
      {
        "astId": 7483,
        "contract": "contracts/LendingPool.sol:LendingPool",
        "label": "deposits",
        "offset": 0,
        "slot": "6",
        "type": "t_mapping(t_address,t_uint256)"
      },
      {
        "astId": 7485,
        "contract": "contracts/LendingPool.sol:LendingPool",
        "label": "totalDeposits",
        "offset": 0,
        "slot": "7",
        "type": "t_uint256"
      },
      {
        "astId": 7487,
        "contract": "contracts/LendingPool.sol:LendingPool",
        "label": "totalBorrowed",
        "offset": 0,
        "slot": "8",
        "type": "t_uint256"
      },
      {
        "astId": 7496,
        "contract": "contracts/LendingPool.sol:LendingPool",
        "label": "lowUtilizationThresholdBps",
        "offset": 0,
        "slot": "9",
        "type": "t_uint256"
      },
      {
        "astId": 7499,
        "contract": "contracts/LendingPool.sol:LendingPool",
        "label": "highUtilizationThresholdBps",
        "offset": 0,
        "slot": "10",
        "type": "t_uint256"
      },
      {
        "astId": 7502,
        "contract": "contracts/LendingPool.sol:LendingPool",
        "label": "lowUtilizationRateBps",
        "offset": 0,
        "slot": "11",
        "type": "t_uint256"
      },
      {
        "astId": 7505,
        "contract": "contracts/LendingPool.sol:LendingPool",
        "label": "midUtilizationRateBps",
        "offset": 0,
        "slot": "12",
        "type": "t_uint256"
      },
      {
        "astId": 7508,
        "contract": "contracts/LendingPool.sol:LendingPool",
        "label": "highUtilizationRateBps",
        "offset": 0,
        "slot": "13",
        "type": "t_uint256"
      },
      {
        "astId": 7510,
        "contract": "contracts/LendingPool.sol:LendingPool",
        "label": "adminTimelockEnabled",
        "offset": 0,
        "slot": "14",
        "type": "t_bool"
      },
      {
        "astId": 7513,
        "contract": "contracts/LendingPool.sol:LendingPool",
        "label": "adminTimelockDelay",
        "offset": 0,
        "slot": "15",
        "type": "t_uint256"
      },
      {
        "astId": 7547,
        "contract": "contracts/LendingPool.sol:LendingPool",
        "label": "pendingLoanManager",
        "offset": 0,
        "slot": "16",
        "type": "t_struct(PendingLoanManager)7520_storage"
      },
      {
        "astId": 7550,
        "contract": "contracts/LendingPool.sol:LendingPool",
        "label": "pendingTreasuryConfig",
        "offset": 0,
        "slot": "19",
        "type": "t_struct(PendingTreasuryConfig)7529_storage"
      },
      {
        "astId": 7553,
        "contract": "contracts/LendingPool.sol:LendingPool",
        "label": "pendingRateModel",
        "offset": 0,
        "slot": "23",
        "type": "t_struct(PendingRateModel)7544_storage"
      },
      {
        "astId": 7555,
        "contract": "contracts/LendingPool.sol:LendingPool",
        "label": "communityPoolCount",
        "offset": 0,
        "slot": "30",
        "type": "t_uint256"
      },
      {
        "astId": 7602,
        "contract": "contracts/LendingPool.sol:LendingPool",
        "label": "communityPools",
        "offset": 0,
        "slot": "31",
        "type": "t_mapping(t_uint256,t_struct(CommunityPool)7586_storage)"
      },
      {
        "astId": 7609,
        "contract": "contracts/LendingPool.sol:LendingPool",
        "label": "communityPositions",
        "offset": 0,
        "slot": "32",
        "type": "t_mapping(t_uint256,t_mapping(t_address,t_struct(CommunityPosition)7597_storage))"
      }
    ],
    "types": {
      "t_address": {
        "encoding": "inplace",
        "label": "address",
        "numberOfBytes": "20"
      },
      "t_bool": {
        "encoding": "inplace",
        "label": "bool",
        "numberOfBytes": "1"
      },
      "t_contract(IERC20)361": {
        "encoding": "inplace",
        "label": "contract IERC20",
        "numberOfBytes": "20"
      },
      "t_enum(CommunityPoolState)7560": {
        "encoding": "inplace",
        "label": "enum LendingPool.CommunityPoolState",
        "numberOfBytes": "1"
      },
      "t_mapping(t_address,t_struct(CommunityPosition)7597_storage)": {
        "encoding": "mapping",
        "key": "t_address",
        "label": "mapping(address => struct LendingPool.CommunityPosition)",
        "numberOfBytes": "32",
        "value": "t_struct(CommunityPosition)7597_storage"
      },
      "t_mapping(t_address,t_uint256)": {
        "encoding": "mapping",
        "key": "t_address",
        "label": "mapping(address => uint256)",
        "numberOfBytes": "32",
        "value": "t_uint256"
      },
      "t_mapping(t_uint256,t_mapping(t_address,t_struct(CommunityPosition)7597_storage))": {
        "encoding": "mapping",
        "key": "t_uint256",
        "label": "mapping(uint256 => mapping(address => struct LendingPool.CommunityPosition))",
        "numberOfBytes": "32",
        "value": "t_mapping(t_address,t_struct(CommunityPosition)7597_storage)"
      },
      "t_mapping(t_uint256,t_struct(CommunityPool)7586_storage)": {
        "encoding": "mapping",
        "key": "t_uint256",
        "label": "mapping(uint256 => struct LendingPool.CommunityPool)",
        "numberOfBytes": "32",
        "value": "t_struct(CommunityPool)7586_storage"
      },
      "t_string_storage": {
        "encoding": "bytes",
        "label": "string",
        "numberOfBytes": "32"
      },
      "t_struct(CommunityPool)7586_storage": {
        "encoding": "inplace",
        "label": "struct LendingPool.CommunityPool",
        "members": [
          {
            "astId": 7562,
            "contract": "contracts/LendingPool.sol:LendingPool",
            "label": "name",
            "offset": 0,
            "slot": "0",
            "type": "t_string_storage"
          },
          {
            "astId": 7564,
            "contract": "contracts/LendingPool.sol:LendingPool",
            "label": "creator",
            "offset": 0,
            "slot": "1",
            "type": "t_address"
          },
          {
            "astId": 7566,
            "contract": "contracts/LendingPool.sol:LendingPool",
            "label": "targetAmount",
            "offset": 0,
            "slot": "2",
            "type": "t_uint256"
          },
          {
            "astId": 7568,
            "contract": "contracts/LendingPool.sol:LendingPool",
            "label": "maxAmount",
            "offset": 0,
            "slot": "3",
            "type": "t_uint256"
          },
          {
            "astId": 7570,
            "contract": "contracts/LendingPool.sol:LendingPool",
            "label": "deadline",
            "offset": 0,
            "slot": "4",
            "type": "t_uint256"
          },
          {
            "astId": 7572,
            "contract": "contracts/LendingPool.sol:LendingPool",
            "label": "totalContributed",
            "offset": 0,
            "slot": "5",
            "type": "t_uint256"
          },
          {
            "astId": 7574,
            "contract": "contracts/LendingPool.sol:LendingPool",
            "label": "totalBuildingUnits",
            "offset": 0,
            "slot": "6",
            "type": "t_uint256"
          },
          {
            "astId": 7576,
            "contract": "contracts/LendingPool.sol:LendingPool",
            "label": "participantCount",
            "offset": 0,
            "slot": "7",
            "type": "t_uint256"
          },
          {
            "astId": 7578,
            "contract": "contracts/LendingPool.sol:LendingPool",
            "label": "accRewardPerWeight",
            "offset": 0,
            "slot": "8",
            "type": "t_uint256"
          },
          {
            "astId": 7580,
            "contract": "contracts/LendingPool.sol:LendingPool",
            "label": "totalRewardFunded",
            "offset": 0,
            "slot": "9",
            "type": "t_uint256"
          },
          {
            "astId": 7582,
            "contract": "contracts/LendingPool.sol:LendingPool",
            "label": "rewardsByBuildingSize",
            "offset": 0,
            "slot": "10",
            "type": "t_bool"
          },
          {
            "astId": 7585,
            "contract": "contracts/LendingPool.sol:LendingPool",
            "label": "state",
            "offset": 1,
            "slot": "10",
            "type": "t_enum(CommunityPoolState)7560"
          }
        ],
        "numberOfBytes": "352"
      },
      "t_struct(CommunityPosition)7597_storage": {
        "encoding": "inplace",
        "label": "struct LendingPool.CommunityPosition",
        "members": [
          {
            "astId": 7588,
            "contract": "contracts/LendingPool.sol:LendingPool",
            "label": "contributed",
            "offset": 0,
            "slot": "0",
            "type": "t_uint256"
          },
          {
            "astId": 7590,
            "contract": "contracts/LendingPool.sol:LendingPool",
            "label": "buildingUnits",
            "offset": 0,
            "slot": "1",
            "type": "t_uint256"
          },
          {
            "astId": 7592,
            "contract": "contracts/LendingPool.sol:LendingPool",
            "label": "rewardDebt",
            "offset": 0,
            "slot": "2",
            "type": "t_uint256"
          },
          {
            "astId": 7594,
            "contract": "contracts/LendingPool.sol:LendingPool",
            "label": "pendingRewards",
            "offset": 0,
            "slot": "3",
            "type": "t_uint256"
          },
          {
            "astId": 7596,
            "contract": "contracts/LendingPool.sol:LendingPool",
            "label": "joined",
            "offset": 0,
            "slot": "4",
            "type": "t_bool"
          }
        ],
        "numberOfBytes": "160"
      },
      "t_struct(PendingLoanManager)7520_storage": {
        "encoding": "inplace",
        "label": "struct LendingPool.PendingLoanManager",
        "members": [
          {
            "astId": 7515,
            "contract": "contracts/LendingPool.sol:LendingPool",
            "label": "manager",
            "offset": 0,
            "slot": "0",
            "type": "t_address"
          },
          {
            "astId": 7517,
            "contract": "contracts/LendingPool.sol:LendingPool",
            "label": "executeAfter",
            "offset": 0,
            "slot": "1",
            "type": "t_uint256"
          },
          {
            "astId": 7519,
            "contract": "contracts/LendingPool.sol:LendingPool",
            "label": "exists",
            "offset": 0,
            "slot": "2",
            "type": "t_bool"
          }
        ],
        "numberOfBytes": "96"
      },
      "t_struct(PendingRateModel)7544_storage": {
        "encoding": "inplace",
        "label": "struct LendingPool.PendingRateModel",
        "members": [
          {
            "astId": 7531,
            "contract": "contracts/LendingPool.sol:LendingPool",
            "label": "lowThresholdBps",
            "offset": 0,
            "slot": "0",
            "type": "t_uint256"
          },
          {
            "astId": 7533,
            "contract": "contracts/LendingPool.sol:LendingPool",
            "label": "highThresholdBps",
            "offset": 0,
            "slot": "1",
            "type": "t_uint256"
          },
          {
            "astId": 7535,
            "contract": "contracts/LendingPool.sol:LendingPool",
            "label": "lowRateBps",
            "offset": 0,
            "slot": "2",
            "type": "t_uint256"
          },
          {
            "astId": 7537,
            "contract": "contracts/LendingPool.sol:LendingPool",
            "label": "midRateBps",
            "offset": 0,
            "slot": "3",
            "type": "t_uint256"
          },
          {
            "astId": 7539,
            "contract": "contracts/LendingPool.sol:LendingPool",
            "label": "highRateBps",
            "offset": 0,
            "slot": "4",
            "type": "t_uint256"
          },
          {
            "astId": 7541,
            "contract": "contracts/LendingPool.sol:LendingPool",
            "label": "executeAfter",
            "offset": 0,
            "slot": "5",
            "type": "t_uint256"
          },
          {
            "astId": 7543,
            "contract": "contracts/LendingPool.sol:LendingPool",
            "label": "exists",
            "offset": 0,
            "slot": "6",
            "type": "t_bool"
          }
        ],
        "numberOfBytes": "224"
      },
      "t_struct(PendingTreasuryConfig)7529_storage": {
        "encoding": "inplace",
        "label": "struct LendingPool.PendingTreasuryConfig",
        "members": [
          {
            "astId": 7522,
            "contract": "contracts/LendingPool.sol:LendingPool",
            "label": "issuanceTreasury",
            "offset": 0,
            "slot": "0",
            "type": "t_address"
          },
          {
            "astId": 7524,
            "contract": "contracts/LendingPool.sol:LendingPool",
            "label": "returnsTreasury",
            "offset": 0,
            "slot": "1",
            "type": "t_address"
          },
          {
            "astId": 7526,
            "contract": "contracts/LendingPool.sol:LendingPool",
            "label": "executeAfter",
            "offset": 0,
            "slot": "2",
            "type": "t_uint256"
          },
          {
            "astId": 7528,
            "contract": "contracts/LendingPool.sol:LendingPool",
            "label": "exists",
            "offset": 0,
            "slot": "3",
            "type": "t_bool"
          }
        ],
        "numberOfBytes": "128"
      },
      "t_uint256": {
        "encoding": "inplace",
        "label": "uint256",
        "numberOfBytes": "32"
      }
    }
  }
}