{
  "address": "0x8eD7Cc3cE764B7BA57d8DeD29A13F1fD2Fd02a2A",
  "abi": [
    {
      "inputs": [
        {
          "internalType": "address",
          "name": "_usdc",
          "type": "address"
        }
      ],
      "stateMutability": "nonpayable",
      "type": "constructor"
    },
    {
      "inputs": [],
      "name": "EnforcedPause",
      "type": "error"
    },
    {
      "inputs": [],
      "name": "ExpectedPause",
      "type": "error"
    },
    {
      "inputs": [
        {
          "internalType": "address",
          "name": "owner",
          "type": "address"
        }
      ],
      "name": "OwnableInvalidOwner",
      "type": "error"
    },
    {
      "inputs": [
        {
          "internalType": "address",
          "name": "account",
          "type": "address"
        }
      ],
      "name": "OwnableUnauthorizedAccount",
      "type": "error"
    },
    {
      "inputs": [],
      "name": "ReentrancyGuardReentrantCall",
      "type": "error"
    },
    {
      "anonymous": false,
      "inputs": [
        {
          "indexed": true,
          "internalType": "address",
          "name": "previousOwner",
          "type": "address"
        },
        {
          "indexed": true,
          "internalType": "address",
          "name": "newOwner",
          "type": "address"
        }
      ],
      "name": "OwnershipTransferred",
      "type": "event"
    },
    {
      "anonymous": false,
      "inputs": [
        {
          "indexed": false,
          "internalType": "address",
          "name": "account",
          "type": "address"
        }
      ],
      "name": "Paused",
      "type": "event"
    },
    {
      "anonymous": false,
      "inputs": [
        {
          "indexed": false,
          "internalType": "address",
          "name": "issuanceTreasury",
          "type": "address"
        },
        {
          "indexed": false,
          "internalType": "address",
          "name": "returnsTreasury",
          "type": "address"
        }
      ],
      "name": "TreasuryConfigUpdated",
      "type": "event"
    },
    {
      "anonymous": false,
      "inputs": [
        {
          "indexed": false,
          "internalType": "address",
          "name": "account",
          "type": "address"
        }
      ],
      "name": "Unpaused",
      "type": "event"
    },
    {
      "inputs": [],
      "name": "BPS_DENOMINATOR",
      "outputs": [
        {
          "internalType": "uint256",
          "name": "",
          "type": "uint256"
        }
      ],
      "stateMutability": "view",
      "type": "function"
    },
    {
      "inputs": [],
      "name": "availableLiquidity",
      "outputs": [
        {
          "internalType": "uint256",
          "name": "",
          "type": "uint256"
        }
      ],
      "stateMutability": "view",
      "type": "function"
    },
    {
      "inputs": [
        {
          "internalType": "uint256",
          "name": "amount",
          "type": "uint256"
        }
      ],
      "name": "deposit",
      "outputs": [],
      "stateMutability": "nonpayable",
      "type": "function"
    },
    {
      "inputs": [
        {
          "internalType": "address",
          "name": "",
          "type": "address"
        }
      ],
      "name": "deposits",
      "outputs": [
        {
          "internalType": "uint256",
          "name": "",
          "type": "uint256"
        }
      ],
      "stateMutability": "view",
      "type": "function"
    },
    {
      "inputs": [],
      "name": "getInterestRateBps",
      "outputs": [
        {
          "internalType": "uint256",
          "name": "",
          "type": "uint256"
        }
      ],
      "stateMutability": "view",
      "type": "function"
    },
    {
      "inputs": [],
      "name": "issuanceTreasury",
      "outputs": [
        {
          "internalType": "address",
          "name": "",
          "type": "address"
        }
      ],
      "stateMutability": "view",
      "type": "function"
    },
    {
      "inputs": [
        {
          "internalType": "address",
          "name": "to",
          "type": "address"
        },
        {
          "internalType": "uint256",
          "name": "amount",
          "type": "uint256"
        }
      ],
      "name": "lend",
      "outputs": [],
      "stateMutability": "nonpayable",
      "type": "function"
    },
    {
      "inputs": [],
      "name": "loanManager",
      "outputs": [
        {
          "internalType": "address",
          "name": "",
          "type": "address"
        }
      ],
      "stateMutability": "view",
      "type": "function"
    },
    {
      "inputs": [],
      "name": "owner",
      "outputs": [
        {
          "internalType": "address",
          "name": "",
          "type": "address"
        }
      ],
      "stateMutability": "view",
      "type": "function"
    },
    {
      "inputs": [],
      "name": "pause",
      "outputs": [],
      "stateMutability": "nonpayable",
      "type": "function"
    },
    {
      "inputs": [],
      "name": "paused",
      "outputs": [
        {
          "internalType": "bool",
          "name": "",
          "type": "bool"
        }
      ],
      "stateMutability": "view",
      "type": "function"
    },
    {
      "inputs": [],
      "name": "renounceOwnership",
      "outputs": [],
      "stateMutability": "nonpayable",
      "type": "function"
    },
    {
      "inputs": [
        {
          "internalType": "uint256",
          "name": "amount",
          "type": "uint256"
        }
      ],
      "name": "repay",
      "outputs": [],
      "stateMutability": "nonpayable",
      "type": "function"
    },
    {
      "inputs": [],
      "name": "returnsTreasury",
      "outputs": [
        {
          "internalType": "address",
          "name": "",
          "type": "address"
        }
      ],
      "stateMutability": "view",
      "type": "function"
    },
    {
      "inputs": [
        {
          "internalType": "address",
          "name": "manager",
          "type": "address"
        }
      ],
      "name": "setLoanManager",
      "outputs": [],
      "stateMutability": "nonpayable",
      "type": "function"
    },
    {
      "inputs": [
        {
          "internalType": "address",
          "name": "issuance",
          "type": "address"
        },
        {
          "internalType": "address",
          "name": "returnsAddr",
          "type": "address"
        }
      ],
      "name": "setTreasuries",
      "outputs": [],
      "stateMutability": "nonpayable",
      "type": "function"
    },
    {
      "inputs": [],
      "name": "totalBorrowed",
      "outputs": [
        {
          "internalType": "uint256",
          "name": "",
          "type": "uint256"
        }
      ],
      "stateMutability": "view",
      "type": "function"
    },
    {
      "inputs": [],
      "name": "totalDeposits",
      "outputs": [
        {
          "internalType": "uint256",
          "name": "",
          "type": "uint256"
        }
      ],
      "stateMutability": "view",
      "type": "function"
    },
    {
      "inputs": [
        {
          "internalType": "address",
          "name": "newOwner",
          "type": "address"
        }
      ],
      "name": "transferOwnership",
      "outputs": [],
      "stateMutability": "nonpayable",
      "type": "function"
    },
    {
      "inputs": [],
      "name": "unpause",
      "outputs": [],
      "stateMutability": "nonpayable",
      "type": "function"
    },
    {
      "inputs": [],
      "name": "usdc",
      "outputs": [
        {
          "internalType": "contract IERC20",
          "name": "",
          "type": "address"
        }
      ],
      "stateMutability": "view",
      "type": "function"
    },
    {
      "inputs": [],
      "name": "utilizationRateBps",
      "outputs": [
        {
          "internalType": "uint256",
          "name": "",
          "type": "uint256"
        }
      ],
      "stateMutability": "view",
      "type": "function"
    },
    {
      "inputs": [
        {
          "internalType": "uint256",
          "name": "amount",
          "type": "uint256"
        }
      ],
      "name": "withdraw",
      "outputs": [],
      "stateMutability": "nonpayable",
      "type": "function"
    }
  ],
  "transactionHash": "0x7aeaaf75c436fbc3e633fce3b6c6f9d1ff793a247066002364f151c5860a4140",
  "args": [
    "0xc9c9083f4794165E9baA920fc9FcBc462864d992"
  ],
  "numDeployments": 2,
  "solcInputHash": "398c760fb426ce41316dd0a58b0e58c2",
  "bytecode": "0x6080346100e557601f610ddb38819003918201601f19168301916001600160401b038311848410176100ea578084926020946040528339810103126100e557516001600160a01b0390818116908190036100e557600160005533156100cc57600180546001600160a01b0319808216339081179093556040519490939291167f8be0079c531659141344cd1fd0a4f28419497f9722a3daafe3b4186f6b6457e0600080a38160025416176002553381600454161760045533906005541617600555610cda90816101018239f35b604051631e4fbdf760e01b815260006004820152602490fd5b600080fd5b634e487b7160e01b600052604160045260246000fdfe6040608081526004908136101561001557600080fd5b600091823560e01c90816303d98c1f14610a205781631352f187146109f75781632e1a7d4d1461089c578163371fd8e6146108055781633e413bee146107dc5781633f4ba83a1461076c5781634c19386c1461074d5781634d158c64146106805781635772ae70146106065781635c975abb146105df578163715018a61461057f57816374375359146105545781637d882097146105355781638456cb59146104d45781638da5cb5b146104ab578163a2fb342d146103b1578163b3ccbcfe14610388578163b6b55f2514610270578163be5edb8214610248578163e1a452181461022b578163f2fde38b1461019c57508063fc7e286d146101655763ff3ac2641461012057600080fd5b3461016157816003193601126101615760209161138861013e610c7a565b111590506101555761ffff6103e8915b5191168152f35b61ffff6101f49161014e565b5080fd5b50346101615760203660031901126101615760209181906001600160a01b0361018c610a3d565b1681526006845220549051908152f35b905034610227576020366003190112610227576101b7610a3d565b906101c0610a58565b6001600160a01b03918216928315610211575050600154826001600160601b0360a01b821617600155167f8be0079c531659141344cd1fd0a4f28419497f9722a3daafe3b4186f6b6457e08380a380f35b51631e4fbdf760e01b8152908101849052602490fd5b8280fd5b505034610161578160031936011261016157602090516127108152f35b9050346102275782600319360112610227575490516001600160a01b03909116815260209150f35b90503461022757602036600319011261022757610303602082358093610294610bc6565b61029c610ba5565b6102a7821515610abd565b80546001600160a01b039081169088906102c2831515610a84565b60025489516323b872dd60e01b8152339581019586526001600160a01b03909416602086015260408501959095529195869492909216928492839160600190565b03925af190811561037b57610343939161032491869161034d575b50610b44565b33845260066020528320610339828254610b82565b9055600754610b82565b6007556001815580f35b61036e915060203d8111610374575b6103668183610af4565b810190610b2c565b3861031e565b503d61035c565b50505051903d90823e3d90fd5b50503461016157816003193601126101615760035490516001600160a01b039091168152602090f35b90503461022757816003193601126102275760206103cd610a3d565b602435926103d9610bc6565b6003546001600160a01b03906103f29082163314610c3b565b6103fa610ba5565b610405851515610abd565b610429856007546104248261041d6008548094610c2e565b1015610be9565b610b82565b60085586818354169161043d831515610a84565b60025488516323b872dd60e01b81526001600160a01b039485169581019586529390951660208501526040840196909652909485931691839190829060600103925af190811561049f576104989250839161034d5750610b44565b6001815580f35b505051903d90823e3d90fd5b50503461016157816003193601126101615760015490516001600160a01b039091168152602090f35b50503461016157816003193601126101615760207f62e78cea01bee320cd4e420270b5ea74000d11b0c9f74754ebdbfc544b05a25891610512610a58565b61051a610ba5565b6001805460ff60a01b1916600160a01b17905551338152a180f35b5050346101615781600319360112610161576020906007549051908152f35b50503461016157816003193601126101615760209061057860075460085490610c2e565b9051908152f35b83346105dc57806003193601126105dc57610598610a58565b600180546001600160a01b0319811690915581906001600160a01b03167f8be0079c531659141344cd1fd0a4f28419497f9722a3daafe3b4186f6b6457e08280a380f35b80fd5b50503461016157816003193601126101615760209060ff60015460a01c1690519015158152f35b90503461022757602036600319011261022757610621610a3d565b610629610a58565b6001600160a01b03169182156106515750506001600160601b0360a01b600354161760035580f35b906020606492519162461bcd60e51b8352820152600960248201526806d616e616765723d360bc1b6044820152fd5b83833461016157806003193601126101615761069a610a3d565b6001600160a01b036024358181169290839003610749576106b9610a58565b16906106c6821515610a84565b801561071a57807f81a577879f5afba839dc12949fdfc537e7ab528414301ccc1d723e2abcbe7d1b94956001600160601b0360a01b908482825416179055600554161760055582519182526020820152a180f35b825162461bcd60e51b81526020818701526009602482015268072657475726e733d360bc1b6044820152606490fd5b8480fd5b5050346101615781600319360112610161576020906008549051908152f35b905034610227578260031936011261022757610786610a58565b6001549060ff8260a01c16156107ce575060ff60a01b1916600155513381527f5db9ee0a495bf2e6ff9c91a7834c1ba4fdd244a5e8aa4e537bd38aeae4b073aa90602090a180f35b8251638dfc202b60e01b8152fd5b50503461016157816003193601126101615760025490516001600160a01b039091168152602090f35b8391503461016157602036600319011261016157803590610824610bc6565b61083960018060a01b03600354163314610c3b565b610841610ba5565b61084c821515610abd565b6008549082821061086c57509061086291610c2e565b6008556001815580f35b606490602086519162461bcd60e51b8352820152600a6024820152691c995c185e4f9919589d60b21b6044820152fd5b90503461022757602090816003193601126109f3578035906108bc610bc6565b6108c4610ba5565b6108cf821515610abd565b338552600683528184862054106109b9578183916108f961097e9461041d60075460085490610c2e565b3387526006835285872061090e838254610c2e565b905561091c82600754610c2e565b60075580546001600160a01b039081169190889061093b841515610a84565b60025489516323b872dd60e01b81526001600160a01b03909516938501938452336020850152604084019590955292958694939093169284928391606090910190565b03925af191821561037b576104989350849261099c575b5050610b44565b6109b29250803d10610374576103668183610af4565b3880610995565b835162461bcd60e51b815290810183905260146024820152731a5b9cdd59999a58da595b9d0819195c1bdcda5d60621b6044820152606490fd5b8380fd5b50503461016157816003193601126101615760055490516001600160a01b039091168152602090f35b505034610161578160031936011261016157602090610578610c7a565b600435906001600160a01b0382168203610a5357565b600080fd5b6001546001600160a01b03163303610a6c57565b60405163118cdaa760e01b8152336004820152602490fd5b15610a8b57565b60405162461bcd60e51b815260206004820152600a602482015269069737375616e63653d360b41b6044820152606490fd5b15610ac457565b60405162461bcd60e51b81526020600482015260086024820152670616d6f756e743d360c41b6044820152606490fd5b90601f8019910116810190811067ffffffffffffffff821117610b1657604052565b634e487b7160e01b600052604160045260246000fd5b90816020910312610a5357518015158103610a535790565b15610b4b57565b60405162461bcd60e51b815260206004820152600f60248201526e1d1c985b9cd9995c8819985a5b1959608a1b6044820152606490fd5b91908201809211610b8f57565b634e487b7160e01b600052601160045260246000fd5b60ff60015460a01c16610bb457565b60405163d93c066560e01b8152600490fd5b600260005414610bd7576002600055565b604051633ee5aeb560e01b8152600490fd5b15610bf057565b60405162461bcd60e51b8152602060048201526016602482015275696e73756666696369656e74206c697175696469747960501b6044820152606490fd5b91908203918211610b8f57565b15610c4257565b60405162461bcd60e51b815260206004820152601060248201526f3737ba103637b0b71036b0b730b3b2b960811b6044820152606490fd5b6007548015610c9e5760085461271090818102918183041490151715610b8f570490565b5060009056fea26469706673582212207d59840b17cf8738e28cbdaa380778d666077f98709e71bd354d138174cf21b564736f6c63430008140033",
  "devdoc": {
    "errors": {
      "EnforcedPause()": [
        {
          "details": "The operation failed because the contract is paused."
        }
      ],
      "ExpectedPause()": [
        {
          "details": "The operation failed because the contract is not paused."
        }
      ],
      "OwnableInvalidOwner(address)": [
        {
          "details": "The owner is not a valid owner account. (eg. `address(0)`)"
        }
      ],
      "OwnableUnauthorizedAccount(address)": [
        {
          "details": "The caller account is not authorized to perform an operation."
        }
      ],
      "ReentrancyGuardReentrantCall()": [
        {
          "details": "Unauthorized reentrant call."
        }
      ]
    },
    "events": {
      "Paused(address)": {
        "details": "Emitted when the pause is triggered by `account`."
      },
      "Unpaused(address)": {
        "details": "Emitted when the pause is lifted by `account`."
      }
    },
    "kind": "dev",
    "methods": {
      "owner()": {
        "details": "Returns the address of the current owner."
      },
      "paused()": {
        "details": "Returns true if the contract is paused, and false otherwise."
      },
      "renounceOwnership()": {
        "details": "Leaves the contract without owner. It will not be possible to call `onlyOwner` functions. Can only be called by the current owner. NOTE: Renouncing ownership will leave the contract without an owner, thereby disabling any functionality that is only available to the owner."
      },
      "transferOwnership(address)": {
        "details": "Transfers ownership of the contract to a new account (`newOwner`). Can only be called by the current owner."
      }
    },
    "version": 1
  },
  "userdoc": {
    "kind": "user",
    "methods": {},
    "version": 1
  },
  "storageLayout": {
    "storage": [
      {
        "astId": 1168,
        "contract": "contracts/LendingPool.sol:LendingPool",
        "label": "_status",
        "offset": 0,
        "slot": "0",
        "type": "t_uint256"
      },
      {
        "astId": 54,
        "contract": "contracts/LendingPool.sol:LendingPool",
        "label": "_owner",
        "offset": 0,
        "slot": "1",
        "type": "t_address"
      },
      {
        "astId": 1058,
        "contract": "contracts/LendingPool.sol:LendingPool",
        "label": "_paused",
        "offset": 20,
        "slot": "1",
        "type": "t_bool"
      },
      {
        "astId": 7554,
        "contract": "contracts/LendingPool.sol:LendingPool",
        "label": "usdc",
        "offset": 0,
        "slot": "2",
        "type": "t_contract(IERC20)923"
      },
      {
        "astId": 7556,
        "contract": "contracts/LendingPool.sol:LendingPool",
        "label": "loanManager",
        "offset": 0,
        "slot": "3",
        "type": "t_address"
      },
      {
        "astId": 7558,
        "contract": "contracts/LendingPool.sol:LendingPool",
        "label": "issuanceTreasury",
        "offset": 0,
        "slot": "4",
        "type": "t_address"
      },
      {
        "astId": 7560,
        "contract": "contracts/LendingPool.sol:LendingPool",
        "label": "returnsTreasury",
        "offset": 0,
        "slot": "5",
        "type": "t_address"
      },
      {
        "astId": 7564,
        "contract": "contracts/LendingPool.sol:LendingPool",
        "label": "deposits",
        "offset": 0,
        "slot": "6",
        "type": "t_mapping(t_address,t_uint256)"
      },
      {
        "astId": 7566,
        "contract": "contracts/LendingPool.sol:LendingPool",
        "label": "totalDeposits",
        "offset": 0,
        "slot": "7",
        "type": "t_uint256"
      },
      {
        "astId": 7568,
        "contract": "contracts/LendingPool.sol:LendingPool",
        "label": "totalBorrowed",
        "offset": 0,
        "slot": "8",
        "type": "t_uint256"
      }
    ],
    "types": {
      "t_address": {
        "encoding": "inplace",
        "label": "address",
        "numberOfBytes": "20"
      },
      "t_bool": {
        "encoding": "inplace",
        "label": "bool",
        "numberOfBytes": "1"
      },
      "t_contract(IERC20)923": {
        "encoding": "inplace",
        "label": "contract IERC20",
        "numberOfBytes": "20"
      },
      "t_mapping(t_address,t_uint256)": {
        "encoding": "mapping",
        "key": "t_address",
        "label": "mapping(address => uint256)",
        "numberOfBytes": "32",
        "value": "t_uint256"
      },
      "t_uint256": {
        "encoding": "inplace",
        "label": "uint256",
        "numberOfBytes": "32"
      }
    }
  }
}