{
  "address": "0xE747FC57F6B3F0EA9aDc1CdECe5DDe56d7C726ce",
  "abi": [
    {
      "inputs": [
        {
          "internalType": "address",
          "name": "_valuation",
          "type": "address"
        },
        {
          "internalType": "address",
          "name": "_adapter",
          "type": "address"
        },
        {
          "internalType": "address",
          "name": "_pool",
          "type": "address"
        },
        {
          "internalType": "address",
          "name": "_identityVerifier",
          "type": "address"
        },
        {
          "internalType": "uint256",
          "name": "_identityBoostBps",
          "type": "uint256"
        },
        {
          "internalType": "address",
          "name": "_uniswapRouter",
          "type": "address"
        },
        {
          "internalType": "uint24",
          "name": "_poolFee",
          "type": "uint24"
        },
        {
          "internalType": "uint256",
          "name": "_slippageBps",
          "type": "uint256"
        }
      ],
      "stateMutability": "nonpayable",
      "type": "constructor"
    },
    {
      "inputs": [],
      "name": "EnforcedPause",
      "type": "error"
    },
    {
      "inputs": [],
      "name": "ExpectedPause",
      "type": "error"
    },
    {
      "inputs": [
        {
          "internalType": "address",
          "name": "owner",
          "type": "address"
        }
      ],
      "name": "OwnableInvalidOwner",
      "type": "error"
    },
    {
      "inputs": [
        {
          "internalType": "address",
          "name": "account",
          "type": "address"
        }
      ],
      "name": "OwnableUnauthorizedAccount",
      "type": "error"
    },
    {
      "inputs": [],
      "name": "ReentrancyGuardReentrantCall",
      "type": "error"
    },
    {
      "anonymous": false,
      "inputs": [
        {
          "indexed": true,
          "internalType": "uint256",
          "name": "loanId",
          "type": "uint256"
        },
        {
          "indexed": true,
          "internalType": "address",
          "name": "token",
          "type": "address"
        },
        {
          "indexed": false,
          "internalType": "uint256",
          "name": "seizedAmount",
          "type": "uint256"
        },
        {
          "indexed": false,
          "internalType": "uint256",
          "name": "usdcReceived",
          "type": "uint256"
        }
      ],
      "name": "CollateralLiquidated",
      "type": "event"
    },
    {
      "anonymous": false,
      "inputs": [
        {
          "indexed": false,
          "internalType": "address",
          "name": "verifier",
          "type": "address"
        },
        {
          "indexed": false,
          "internalType": "uint256",
          "name": "boostBps",
          "type": "uint256"
        }
      ],
      "name": "IdentityConfigUpdated",
      "type": "event"
    },
    {
      "anonymous": false,
      "inputs": [
        {
          "indexed": true,
          "internalType": "address",
          "name": "borrower",
          "type": "address"
        },
        {
          "indexed": false,
          "internalType": "uint256",
          "name": "boostBps",
          "type": "uint256"
        }
      ],
      "name": "IdentityLinked",
      "type": "event"
    },
    {
      "anonymous": false,
      "inputs": [
        {
          "indexed": false,
          "internalType": "address",
          "name": "router",
          "type": "address"
        },
        {
          "indexed": false,
          "internalType": "uint24",
          "name": "poolFee",
          "type": "uint24"
        },
        {
          "indexed": false,
          "internalType": "uint256",
          "name": "slippageBps",
          "type": "uint256"
        }
      ],
      "name": "LiquidationConfigUpdated",
      "type": "event"
    },
    {
      "anonymous": false,
      "inputs": [
        {
          "indexed": true,
          "internalType": "uint256",
          "name": "loanId",
          "type": "uint256"
        },
        {
          "indexed": true,
          "internalType": "address",
          "name": "borrower",
          "type": "address"
        },
        {
          "indexed": false,
          "internalType": "uint256",
          "name": "amount",
          "type": "uint256"
        }
      ],
      "name": "LoanCreated",
      "type": "event"
    },
    {
      "anonymous": false,
      "inputs": [
        {
          "indexed": true,
          "internalType": "uint256",
          "name": "loanId",
          "type": "uint256"
        },
        {
          "indexed": false,
          "internalType": "uint256",
          "name": "amount",
          "type": "uint256"
        }
      ],
      "name": "LoanRepaid",
      "type": "event"
    },
    {
      "anonymous": false,
      "inputs": [
        {
          "indexed": true,
          "internalType": "uint256",
          "name": "loanId",
          "type": "uint256"
        },
        {
          "indexed": false,
          "internalType": "bool",
          "name": "defaulted",
          "type": "bool"
        }
      ],
      "name": "LoanSettled",
      "type": "event"
    },
    {
      "anonymous": false,
      "inputs": [
        {
          "indexed": true,
          "internalType": "address",
          "name": "previousOwner",
          "type": "address"
        },
        {
          "indexed": true,
          "internalType": "address",
          "name": "newOwner",
          "type": "address"
        }
      ],
      "name": "OwnershipTransferred",
      "type": "event"
    },
    {
      "anonymous": false,
      "inputs": [
        {
          "indexed": false,
          "internalType": "address",
          "name": "account",
          "type": "address"
        }
      ],
      "name": "Paused",
      "type": "event"
    },
    {
      "anonymous": false,
      "inputs": [
        {
          "indexed": false,
          "internalType": "address",
          "name": "issuanceTreasury",
          "type": "address"
        },
        {
          "indexed": false,
          "internalType": "address",
          "name": "returnsTreasury",
          "type": "address"
        }
      ],
      "name": "TreasuryConfigUpdated",
      "type": "event"
    },
    {
      "anonymous": false,
      "inputs": [
        {
          "indexed": false,
          "internalType": "address",
          "name": "account",
          "type": "address"
        }
      ],
      "name": "Unpaused",
      "type": "event"
    },
    {
      "inputs": [],
      "name": "BPS_DENOMINATOR",
      "outputs": [
        {
          "internalType": "uint256",
          "name": "",
          "type": "uint256"
        }
      ],
      "stateMutability": "view",
      "type": "function"
    },
    {
      "inputs": [],
      "name": "adapter",
      "outputs": [
        {
          "internalType": "contract VestingAdapter",
          "name": "",
          "type": "address"
        }
      ],
      "stateMutability": "view",
      "type": "function"
    },
    {
      "inputs": [
        {
          "internalType": "uint256",
          "name": "collateralId",
          "type": "uint256"
        },
        {
          "internalType": "address",
          "name": "vestingContract",
          "type": "address"
        },
        {
          "internalType": "uint256",
          "name": "borrowAmount",
          "type": "uint256"
        }
      ],
      "name": "createLoan",
      "outputs": [],
      "stateMutability": "nonpayable",
      "type": "function"
    },
    {
      "inputs": [],
      "name": "identityBoostBps",
      "outputs": [
        {
          "internalType": "uint256",
          "name": "",
          "type": "uint256"
        }
      ],
      "stateMutability": "view",
      "type": "function"
    },
    {
      "inputs": [
        {
          "internalType": "address",
          "name": "",
          "type": "address"
        }
      ],
      "name": "identityLinked",
      "outputs": [
        {
          "internalType": "bool",
          "name": "",
          "type": "bool"
        }
      ],
      "stateMutability": "view",
      "type": "function"
    },
    {
      "inputs": [],
      "name": "identityVerifier",
      "outputs": [
        {
          "internalType": "address",
          "name": "",
          "type": "address"
        }
      ],
      "stateMutability": "view",
      "type": "function"
    },
    {
      "inputs": [],
      "name": "issuanceTreasury",
      "outputs": [
        {
          "internalType": "address",
          "name": "",
          "type": "address"
        }
      ],
      "stateMutability": "view",
      "type": "function"
    },
    {
      "inputs": [
        {
          "internalType": "bytes",
          "name": "proof",
          "type": "bytes"
        }
      ],
      "name": "linkIdentity",
      "outputs": [
        {
          "internalType": "bool",
          "name": "",
          "type": "bool"
        }
      ],
      "stateMutability": "nonpayable",
      "type": "function"
    },
    {
      "inputs": [],
      "name": "liquidationSlippageBps",
      "outputs": [
        {
          "internalType": "uint256",
          "name": "",
          "type": "uint256"
        }
      ],
      "stateMutability": "view",
      "type": "function"
    },
    {
      "inputs": [],
      "name": "loanCount",
      "outputs": [
        {
          "internalType": "uint256",
          "name": "",
          "type": "uint256"
        }
      ],
      "stateMutability": "view",
      "type": "function"
    },
    {
      "inputs": [
        {
          "internalType": "uint256",
          "name": "",
          "type": "uint256"
        }
      ],
      "name": "loans",
      "outputs": [
        {
          "internalType": "address",
          "name": "borrower",
          "type": "address"
        },
        {
          "internalType": "uint256",
          "name": "principal",
          "type": "uint256"
        },
        {
          "internalType": "uint256",
          "name": "interest",
          "type": "uint256"
        },
        {
          "internalType": "uint256",
          "name": "collateralId",
          "type": "uint256"
        },
        {
          "internalType": "uint256",
          "name": "unlockTime",
          "type": "uint256"
        },
        {
          "internalType": "bool",
          "name": "active",
          "type": "bool"
        }
      ],
      "stateMutability": "view",
      "type": "function"
    },
    {
      "inputs": [],
      "name": "owner",
      "outputs": [
        {
          "internalType": "address",
          "name": "",
          "type": "address"
        }
      ],
      "stateMutability": "view",
      "type": "function"
    },
    {
      "inputs": [],
      "name": "pause",
      "outputs": [],
      "stateMutability": "nonpayable",
      "type": "function"
    },
    {
      "inputs": [],
      "name": "paused",
      "outputs": [
        {
          "internalType": "bool",
          "name": "",
          "type": "bool"
        }
      ],
      "stateMutability": "view",
      "type": "function"
    },
    {
      "inputs": [],
      "name": "pool",
      "outputs": [
        {
          "internalType": "contract LendingPool",
          "name": "",
          "type": "address"
        }
      ],
      "stateMutability": "view",
      "type": "function"
    },
    {
      "inputs": [],
      "name": "poolFee",
      "outputs": [
        {
          "internalType": "uint24",
          "name": "",
          "type": "uint24"
        }
      ],
      "stateMutability": "view",
      "type": "function"
    },
    {
      "inputs": [],
      "name": "renounceOwnership",
      "outputs": [],
      "stateMutability": "nonpayable",
      "type": "function"
    },
    {
      "inputs": [
        {
          "internalType": "uint256",
          "name": "loanId",
          "type": "uint256"
        },
        {
          "internalType": "uint256",
          "name": "amount",
          "type": "uint256"
        }
      ],
      "name": "repayLoan",
      "outputs": [],
      "stateMutability": "nonpayable",
      "type": "function"
    },
    {
      "inputs": [],
      "name": "returnsTreasury",
      "outputs": [
        {
          "internalType": "address",
          "name": "",
          "type": "address"
        }
      ],
      "stateMutability": "view",
      "type": "function"
    },
    {
      "inputs": [
        {
          "internalType": "address",
          "name": "verifier",
          "type": "address"
        },
        {
          "internalType": "uint256",
          "name": "boostBps",
          "type": "uint256"
        }
      ],
      "name": "setIdentityConfig",
      "outputs": [],
      "stateMutability": "nonpayable",
      "type": "function"
    },
    {
      "inputs": [
        {
          "internalType": "address",
          "name": "router",
          "type": "address"
        },
        {
          "internalType": "uint24",
          "name": "newPoolFee",
          "type": "uint24"
        },
        {
          "internalType": "uint256",
          "name": "slippageBps",
          "type": "uint256"
        }
      ],
      "name": "setLiquidationConfig",
      "outputs": [],
      "stateMutability": "nonpayable",
      "type": "function"
    },
    {
      "inputs": [
        {
          "internalType": "address",
          "name": "issuance",
          "type": "address"
        },
        {
          "internalType": "address",
          "name": "returnsAddr",
          "type": "address"
        }
      ],
      "name": "setTreasuries",
      "outputs": [],
      "stateMutability": "nonpayable",
      "type": "function"
    },
    {
      "inputs": [
        {
          "internalType": "uint256",
          "name": "loanId",
          "type": "uint256"
        }
      ],
      "name": "settleAtUnlock",
      "outputs": [],
      "stateMutability": "nonpayable",
      "type": "function"
    },
    {
      "inputs": [
        {
          "internalType": "address",
          "name": "newOwner",
          "type": "address"
        }
      ],
      "name": "transferOwnership",
      "outputs": [],
      "stateMutability": "nonpayable",
      "type": "function"
    },
    {
      "inputs": [],
      "name": "uniswapRouter",
      "outputs": [
        {
          "internalType": "contract ISwapRouter",
          "name": "",
          "type": "address"
        }
      ],
      "stateMutability": "view",
      "type": "function"
    },
    {
      "inputs": [],
      "name": "unpause",
      "outputs": [],
      "stateMutability": "nonpayable",
      "type": "function"
    },
    {
      "inputs": [],
      "name": "usdc",
      "outputs": [
        {
          "internalType": "contract IERC20",
          "name": "",
          "type": "address"
        }
      ],
      "stateMutability": "view",
      "type": "function"
    },
    {
      "inputs": [],
      "name": "valuation",
      "outputs": [
        {
          "internalType": "contract ValuationEngine",
          "name": "",
          "type": "address"
        }
      ],
      "stateMutability": "view",
      "type": "function"
    }
  ],
  "transactionHash": "0xc298e24acc44fa91a20c0431650b76e32cb21cf34e59140050c21972b99c2093",
  "args": [
    "0x99F15E90aB6EDe24afa5Da28a1f4E10cd620b351",
    "0xF366308b18156bAd74B1274EB1fFECCA2a1B7959",
    "0x8eD7Cc3cE764B7BA57d8DeD29A13F1fD2Fd02a2A",
    "0x7b0B2268bdd8D9D586CB58f6Cc65076D543EB115",
    500,
    "0x30b2Ba053D2D74780DdD100eC9a40D80Abaa098D",
    3000,
    9000
  ],
  "numDeployments": 3,
  "solcInputHash": "398c760fb426ce41316dd0a58b0e58c2",
  "bytecode": "0x60806040818152346200021857610100826200224780380380916200002582856200021d565b83398101031262000218576200003b8262000257565b916200004a6020820162000257565b926200005883830162000257565b93620000676060840162000257565b916080840151956200007c60a0860162000257565b9060c08601519562ffffff87168703620002185760e001519433156200020057976004602092899a600097889687549560018060a01b0319809e33828a16178b55519a8b98899760018060a01b039e8f97888095819582947f8be0079c531659141344cd1fd0a4f28419497f9722a3daafe3b4186f6b6457e0843393169180a3600180551686600254161760025516846003541617600355169586838a541617895516906005541617600555600655168b60075416176007556008549962ffffff60a01b9060a01b16988962ffffff60a01b198c1617600855600955631f209df760e11b82525afa918215620001f4578192620001a8575b5050169160018060b81b03191617176008553381600a541617600a553390600b541617600b5551611fda90816200026d8239f35b9091506020813d8211620001eb575b81620001c6602093836200021d565b81010312620001e75751908282168203620001e45750388062000174565b80fd5b5080fd5b3d9150620001b7565b508651903d90823e3d90fd5b8751631e4fbdf760e01b815260006004820152602490fd5b600080fd5b601f909101601f19168101906001600160401b038211908210176200024157604052565b634e487b7160e01b600052604160045260246000fd5b51906001600160a01b0382168203620002185756fe608080604052600436101561001357600080fd5b600090813560e01c90816303eadcfc146115cc57508063089fe6aa146115a65780630bf7187d146114015780631352f187146113d857806316f0115b146113af5780631b15cee614610fc957806321a7cfe414610fa05780633e413bee14610f775780633f4ba83a14610f065780634651e78914610e495780634d158c6414610d515780635bb4962614610d335780635c975abb14610d0e578063715018a614610cb4578063735de9f714610c8b5780638456cb5914610c2a5780638a700b53146109fb5780638da5cb5b146109d45780639ffb8606146109b6578063b123cb7414610455578063be5edb821461042c578063c8394b1d146102f4578063ce63094d146102d6578063dfd572a0146102ad578063e1a4521814610290578063e1ec3c6814610221578063e640b814146101e25763f2fde38b1461015557600080fd5b346101df5760203660031901126101df5761016e611607565b61017661161d565b6001600160a01b039081169081156101c657600054826001600160601b0360a01b821617600055167f8be0079c531659141344cd1fd0a4f28419497f9722a3daafe3b4186f6b6457e0600080a380f35b604051631e4fbdf760e01b815260048101849052602490fd5b80fd5b50346101df5760203660031901126101df5760209060ff906040906001600160a01b0361020d611607565b168152600e84522054166040519015158152f35b50346101df5760203660031901126101df57604060c0916004358152600c6020522060018060a01b0381541690600181015490600281015460038201549060ff6005600485015494015416936040519586526020860152604085015260608401526080830152151560a0820152f35b50346101df57806003193601126101df5760206040516127108152f35b50346101df57806003193601126101df576005546040516001600160a01b039091168152602090f35b50346101df57806003193601126101df576020600d54604051908152f35b50346101df5760603660031901126101df5761030e611607565b60243562ffffff811691828203610428576044359061032b61161d565b6001600160a01b03169081156103f857801515806103ec575b156103b8577f8b5c8d8f89d3a1faecb05d234f488196bd0a31cbd4f482bf686b2581b1e4dbe493606093836001600160601b0360a01b60075416176007556008549062ffffff60a01b9060a01b169062ffffff60a01b1916176008558160095560405192835260208301526040820152a180f35b60405162461bcd60e51b815260206004820152600c60248201526b62616420736c69707061676560a01b6044820152606490fd5b50612710811115610344565b60405162461bcd60e51b81526020600482015260086024820152670726f757465723d360c41b6044820152606490fd5b8380fd5b50346101df57806003193601126101df57600a546040516001600160a01b039091168152602090f35b50346101df5760203660031901126101df5761046f611697565b6104776116b8565b6004358152600c6020526040812061049560ff600583015416611776565b6004810154421061098257816104b46001830154600284015490611740565b600380549084015460405163b93a89f760e01b81526004810182905292949290916001600160a01b0316606082602481845afa80156109775785928691610942575b50600b546001600160a01b03168061093c57506004546001600160a01b0316935b876106005750505080610578575b50506002905b60ff196005820154166005820155826001820155015560405190151581527f2b8a84e623a466252d40df763a21d8d87755b1c874a96449b31b8ce3b5bbe7d7602060043592a26001805580f35b600380549084015491906001600160a01b0316803b156105fc57604051632a7d7bc560e01b815260048101939093526001600160a01b0393909316602483015260448201529083908290606490829084905af19081156105f157839115610525576105e290611649565b6105ed578138610525565b5080fd5b6040513d85823e3d90fd5b8580fd5b83610613575b505050505060029061052b565b61061d8883611dbe565b92848411610934575b836106c1575b50505080821161063e575b8080610606565b61065860018060a01b0360035416916003860154936117ad565b90803b156105fc57604051632a7d7bc560e01b815260048101939093526001600160a01b0393909316602483015260448201529083908290606490829084905af19081156105f15783916106ad575b80610637565b6106b690611649565b6105ed5781386106a7565b803b1561093057604051632a7d7bc560e01b815260048101929092523060248301526044820184905287908290606490829084905af18015610925578391889161090e575b5050610714916004356117ba565b80610721575b808061062c565b8095509460018060a01b03600454166040516313064e1b60e21b8152602081600481855afa908115610903578a916108cc575b508083116108c2575b50600b546107b79260209290916001600160a01b0316806108bb57505b60085460405163a9059cbb60e01b81526001600160a01b0392831660048201526024810193909352919384929091169082908c9082906044820190565b03925af19081156108b0578891610881575b5015610845578487951561071a576004546001600160a01b031690813b15610841578691602483926040519485938492631b8fec7360e11b845260048401525af190811561083657869161081e575b5061071a565b61082790611649565b610832578438610818565b8480fd5b6040513d88823e3d90fd5b8680fd5b60405162461bcd60e51b81526020600482015260146024820152731d5cd918c81d1c985b9cd9995c8819985a5b195960621b6044820152606490fd5b6108a3915060203d6020116108a9575b61089b818361165d565b81019061167f565b386107c9565b503d610891565b6040513d8a823e3d90fd5b905061077a565b96506107b761075d565b90506020813d6020116108fb575b816108e76020938361165d565b810103126108f6575138610754565b600080fd5b3d91506108da565b6040513d8c823e3d90fd5b610919919250611649565b6105fc57818638610706565b6040513d89823e3d90fd5b8780fd5b849350610626565b93610517565b905061096691925060603d8111610970575b61095e818361165d565b810190611712565b50919091386104f6565b503d610954565b6040513d87823e3d90fd5b60405162461bcd60e51b815260206004820152600c60248201526b1b9bdd081d5b9b1bd8dad95960a21b6044820152606490fd5b50346101df57806003193601126101df576020600654604051908152f35b50346101df57806003193601126101df57546040516001600160a01b039091168152602090f35b50346101df5760403660031901126101df57600435602435610a1b611697565b610a236116b8565b8183526020600c8152604084209160058301610a4260ff825416611776565b83546001600160a01b039081163303610bf657610a608315156116db565b600b54811680610bf1575080600454165b848260648160085416938b60405195869485936323b872dd60e01b85523360048601521660248401528960448401525af19081156108b0578891610bd4575b5015610b9d57869060045416803b156105ed57818091602460405180948193631b8fec7360e11b83528960048401525af18015610b9257610b7e575b508460027f040cee90ee4799897c30ca04e5feb6fa43dbba9b6d084b4b257cdafd84ba013e9601600181549201918254918682811015600014610b6e57509084610b379255866117ad565b90808210610b5957505055805460ff191690555b604051908152a26001805580f35b90919350610b6792506117ad565b9055610b4b565b935094509050610b6792506117ad565b610b888291611649565b6101df5738610aec565b6040513d84823e3d90fd5b60405162461bcd60e51b815260048101859052600f60248201526e1d1c985b9cd9995c8819985a5b1959608a1b6044820152606490fd5b610beb9150853d87116108a95761089b818361165d565b38610ab0565b610a71565b60405162461bcd60e51b815260048101859052600c60248201526b3737ba103137b93937bbb2b960a11b6044820152606490fd5b50346101df57806003193601126101df57610c4361161d565b610c4b611697565b805460ff60a01b1916600160a01b1781556040513381527f62e78cea01bee320cd4e420270b5ea74000d11b0c9f74754ebdbfc544b05a25890602090a180f35b50346101df57806003193601126101df576007546040516001600160a01b039091168152602090f35b50346101df57806003193601126101df57610ccd61161d565b600080546001600160a01b0319811682556001600160a01b03167f8be0079c531659141344cd1fd0a4f28419497f9722a3daafe3b4186f6b6457e08280a380f35b50346101df57806003193601126101df5760ff6020915460a01c166040519015158152f35b50346101df57806003193601126101df576020600954604051908152f35b50346101df5760403660031901126101df57610d6b611607565b610d736115f1565b90610d7c61161d565b6001600160a01b03908116918215610e1757168015610de6577f81a577879f5afba839dc12949fdfc537e7ab528414301ccc1d723e2abcbe7d1b91816040926001600160601b0360a01b8381600a541617600a55600b541617600b5582519182526020820152a180f35b60405162461bcd60e51b8152602060048201526009602482015268072657475726e733d360bc1b6044820152606490fd5b60405162461bcd60e51b815260206004820152600a602482015269069737375616e63653d360b41b6044820152606490fd5b50346101df5760403660031901126101df57610e63611607565b602435610e6e61161d565b6107d08111610ed057600580546001600160a01b0319166001600160a01b0393909316928317905560068190556040805192835260208301919091527f4e9c2c9d7ce2ff823cab7f6f0dedfb36ea1f4e5be270f6c13ae74c65fb6c63bf91a180f35b60405162461bcd60e51b815260206004820152600e60248201526d0c4dedee6e840e8dede40d0d2ced60931b6044820152606490fd5b50346101df57806003193601126101df57610f1f61161d565b805460ff8160a01c1615610f655760ff60a01b191681556040513381527f5db9ee0a495bf2e6ff9c91a7834c1ba4fdd244a5e8aa4e537bd38aeae4b073aa90602090a180f35b604051638dfc202b60e01b8152600490fd5b50346101df57806003193601126101df576008546040516001600160a01b039091168152602090f35b50346101df57806003193601126101df576002546040516001600160a01b039091168152602090f35b50346101df5760603660031901126101df57600435610fe66115f1565b9060443591610ff3611697565b610ffb6116b8565b6110068315156116db565b6003546001600160a01b0391908216908590823b156105ed576064849183604051958694859363795a170960e11b85528a60048601521660248401523360448401525af1801561097757611399575b5090816060602493600354166040519485809263b93a89f760e01b82528660048301525afa9182156109775785938690879461136d575b50600254604080516317fb08f560e31b815260048101979097526001600160a01b03909216602487015260448601859052939493849084168180606481015b03915afa9283156108365786908794611333575b508390338852602094600e865260ff60408a20541680611328575b611305575b5061110e612710928392611763565b0486116112d2576004848482541660405192838092633fceb09960e21b82525afa80156108b05788906112a3575b611147915087611763565b0490600d54946040519060c082019282841067ffffffffffffffff85111761128d576005936040523383528683019489865260408401908152606084019182526080840192835260a084019560018752898c52600c89528760408d209551166001600160601b0360a01b865416178555516001850155516002840155516003830155516004820155019051151560ff80198354169116179055600d546001810180911161127957600d55600454859116803b156105ed5760405163a2fb342d60e01b8152336004820152602481018690529082908290604490829084905af18015610b9257611265575b50507f8910ba13a55695f056e224bbbc6b65d866b12a8c2fbdf387fb853a1cca298cd7906040519384523393a36001805580f35b61126e90611649565b610428578338611231565b634e487b7160e01b86526011600452602486fd5b634e487b7160e01b600052604160045260246000fd5b508481813d83116112cb575b6112b9818361165d565b810103126108f657611147905161113c565b503d6112af565b60405162461bcd60e51b815260048101859052600b60248201526a32bc31b2b2b23990262a2b60a91b6044820152606490fd5b61131491925060065490611740565b90612710808311156110ff579150386110ff565b5060065415156110fa565b9350506040833d604011611365575b8161134f6040938361165d565b810103126105fc576020835193015192386110df565b3d9150611342565b604095506110cb945061138e915060603d81116109705761095e818361165d565b91959194509061108c565b936113a76024939295611649565b939091611055565b50346101df57806003193601126101df576004546040516001600160a01b039091168152602090f35b50346101df57806003193601126101df57600b546040516001600160a01b039091168152602090f35b50346101df57602090816003193601126101df5767ffffffffffffffff6004358181116115a257366023820112156115a25780600401359182116115a25736602483830101116115a257611453611697565b61145b6116b8565b6005546001600160a01b031690811561156f578491602485606486946040519788968795869363058b23cd60e41b855233600486015260408286015282604486015201848401378181018301849052601f01601f191681010301925af1908115610b92578291611552575b501561151d57604090338152600e835220600160ff198254161790556006546040519081527f60b66827d6b8dc4c21c455ee1239c41dffbc94e0604392a84cdea38f8f76fd59823392a26001805560405160018152f35b60405162461bcd60e51b815260048101839052600d60248201526c34b73b30b634b210383937b7b360991b6044820152606490fd5b6115699150833d85116108a95761089b818361165d565b386114c6565b60405162461bcd60e51b815260048101869052600b60248201526a3737903b32b934b334b2b960a91b6044820152606490fd5b8280fd5b50346101df57806003193601126101df57602062ffffff60085460a01c16604051908152f35b9050346105ed57816003193601126105ed576003546001600160a01b03168152602090f35b602435906001600160a01b03821682036108f657565b600435906001600160a01b03821682036108f657565b6000546001600160a01b0316330361163157565b60405163118cdaa760e01b8152336004820152602490fd5b67ffffffffffffffff811161128d57604052565b90601f8019910116810190811067ffffffffffffffff82111761128d57604052565b908160209103126108f6575180151581036108f65790565b60ff60005460a01c166116a657565b60405163d93c066560e01b8152600490fd5b6002600154146116c9576002600155565b604051633ee5aeb560e01b8152600490fd5b156116e257565b60405162461bcd60e51b81526020600482015260086024820152670616d6f756e743d360c41b6044820152606490fd5b908160609103126108f657805160208201519092906001600160a01b03811681036108f65760409092015190565b9190820180921161174d57565b634e487b7160e01b600052601160045260246000fd5b8181029291811591840414171561174d57565b1561177d57565b60405162461bcd60e51b8152602060048201526008602482015267696e61637469766560c01b6044820152606490fd5b9190820391821161174d57565b6007549293929091906001600160a01b03168015611c345760405163095ea7b360e01b81526001600160a01b03918216600482015260248101869052600095939291602090829060449082908a9087165af1801561083657611c15575b50600254604051633a0df78d60e11b815290602090829060049082906001600160a01b03165afa908115610836578691611be6575b50604051633fabe5a360e21b81526001600160a01b03919091169060a081600481855afa908115610925578791611bb3575b5061188a878213611ca8565b6040519160208360048163313ce56760e01b948582525afa9283156108b0578893611b92575b50604051818152906020826004816001600160a01b0389165afa918215611b87578992611b66575b50600854604051918252936020826004816001600160a01b0389165afa90811561090357612710946119459461193c948d94611b23575b5061192a6119369261192361193093611cf9565b908d611d0a565b93611cf9565b91611cf9565b91611d0a565b60095490611763565b0461012c420190814211611b0f5760405191610100830183811067ffffffffffffffff821117611afb5790602093929160405260018060a01b038616835260018060a01b0385168484015262ffffff809560a01c16604084015230606084015260808301528660a083015260c08201528760e082015261010460018060a01b03600754169389604051958694859363414bf38960e01b855260018060a01b03825116600486015260018060a01b0388830151166024860152604082015116604485015260018060a01b0360608201511660648501526080810151608485015260a081015160a485015260c081015160c485015260e060018060a01b039101511660e48401525af1958615611aef578096611a97575b505060407fde2f91861847a1451d81a38725e38c8a517405db456a0d947e7ac3cfa6c0aaf791868251958652602086015260018060a01b031693a3565b909195506020823d602011611ae7575b81611ab46020938361165d565b810103126101df5750519360407fde2f91861847a1451d81a38725e38c8a517405db456a0d947e7ac3cfa6c0aaf7611a5a565b3d9150611aa7565b604051903d90823e3d90fd5b634e487b7160e01b8a52604160045260248afd5b634e487b7160e01b88526011600452602488fd5b61193091945061193692611923611b5461192a9360203d602011611b5f575b611b4c818361165d565b810190611ce0565b96935050925061190f565b503d611b42565b611b8091925060203d602011611b5f57611b4c818361165d565b90386118d8565b6040513d8b823e3d90fd5b611bac91935060203d602011611b5f57611b4c818361165d565b91386118b0565b611bd4915060a03d8111611bdf575b611bcc818361165d565b810190611c73565b50505090503861187e565b503d611bc2565b611c08915060203d602011611c0e575b611c00818361165d565b810190611c3d565b3861184c565b503d611bf6565b611c2d9060203d6020116108a95761089b818361165d565b5038611817565b50600093505050565b908160209103126108f657516001600160a01b03811681036108f65790565b519069ffffffffffffffffffff821682036108f657565b908160a09103126108f657611c8781611c5c565b91602082015191604081015191611ca5608060608401519301611c5c565b90565b15611caf57565b60405162461bcd60e51b815260206004820152600960248201526862616420707269636560b81b6044820152606490fd5b908160209103126108f6575160ff811681036108f65790565b60ff16604d811161174d57600a0a90565b90916000198383099280830292838086109503948086039514611d9a5784831115611d81579082910981600003821680920460028082600302188083028203028083028203028083028203028083028203028083028203028092029003029360018380600003040190848311900302920304170290565b82634e487b71600052156003026011186020526024601cfd5b505080925015611da8570490565b634e487b7160e01b600052601260045260246000fd5b6008549192916001600160a01b03918216908216818114611f9f5782600254169260409081518095633a0df78d60e11b825281600460209889935afa908115611f7757600091611f82575b501691815194633fabe5a360e21b865260a086600481875afa958615611f7757600096611f52575b50611e3e60008713611ca8565b825193818560048163313ce56760e01b948582525afa948515611f4757600095611f23575b508184959660049551958680928582525afa938415611f1857600094611ef7575b508190600486518095819382525afa938415611eed57509261193092611ca5979892611ec095600093611ec6575b505061193061193691611cf9565b90611d0a565b6119369293506119309181611ee692903d10611b5f57611b4c818361165d565b9291611eb2565b513d6000823e3d90fd5b82919450611f1190823d8411611b5f57611b4c818361165d565b9390611e84565b85513d6000823e3d90fd5b6004949550611f3f8391823d8411611b5f57611b4c818361165d565b959450611e63565b84513d6000823e3d90fd5b611f6b91965060a03d8111611bdf57611bcc818361165d565b50505090509438611e31565b83513d6000823e3d90fd5b611f999150863d8811611c0e57611c00818361165d565b38611e09565b50505056fea2646970667358221220f21141588982621e13fa569ccf1efea3cf59df66e5fb9c4b94d38fcc31bea5a064736f6c63430008140033",
  "devdoc": {
    "errors": {
      "EnforcedPause()": [
        {
          "details": "The operation failed because the contract is paused."
        }
      ],
      "ExpectedPause()": [
        {
          "details": "The operation failed because the contract is not paused."
        }
      ],
      "OwnableInvalidOwner(address)": [
        {
          "details": "The owner is not a valid owner account. (eg. `address(0)`)"
        }
      ],
      "OwnableUnauthorizedAccount(address)": [
        {
          "details": "The caller account is not authorized to perform an operation."
        }
      ],
      "ReentrancyGuardReentrantCall()": [
        {
          "details": "Unauthorized reentrant call."
        }
      ]
    },
    "events": {
      "Paused(address)": {
        "details": "Emitted when the pause is triggered by `account`."
      },
      "Unpaused(address)": {
        "details": "Emitted when the pause is lifted by `account`."
      }
    },
    "kind": "dev",
    "methods": {
      "owner()": {
        "details": "Returns the address of the current owner."
      },
      "paused()": {
        "details": "Returns true if the contract is paused, and false otherwise."
      },
      "renounceOwnership()": {
        "details": "Leaves the contract without owner. It will not be possible to call `onlyOwner` functions. Can only be called by the current owner. NOTE: Renouncing ownership will leave the contract without an owner, thereby disabling any functionality that is only available to the owner."
      },
      "transferOwnership(address)": {
        "details": "Transfers ownership of the contract to a new account (`newOwner`). Can only be called by the current owner."
      }
    },
    "version": 1
  },
  "userdoc": {
    "kind": "user",
    "methods": {},
    "version": 1
  },
  "storageLayout": {
    "storage": [
      {
        "astId": 54,
        "contract": "contracts/LoanManager.sol:LoanManager",
        "label": "_owner",
        "offset": 0,
        "slot": "0",
        "type": "t_address"
      },
      {
        "astId": 1058,
        "contract": "contracts/LoanManager.sol:LoanManager",
        "label": "_paused",
        "offset": 20,
        "slot": "0",
        "type": "t_bool"
      },
      {
        "astId": 1168,
        "contract": "contracts/LoanManager.sol:LoanManager",
        "label": "_status",
        "offset": 0,
        "slot": "1",
        "type": "t_uint256"
      },
      {
        "astId": 7974,
        "contract": "contracts/LoanManager.sol:LoanManager",
        "label": "valuation",
        "offset": 0,
        "slot": "2",
        "type": "t_contract(ValuationEngine)9442"
      },
      {
        "astId": 7977,
        "contract": "contracts/LoanManager.sol:LoanManager",
        "label": "adapter",
        "offset": 0,
        "slot": "3",
        "type": "t_contract(VestingAdapter)9893"
      },
      {
        "astId": 7980,
        "contract": "contracts/LoanManager.sol:LoanManager",
        "label": "pool",
        "offset": 0,
        "slot": "4",
        "type": "t_contract(LendingPool)7942"
      },
      {
        "astId": 7982,
        "contract": "contracts/LoanManager.sol:LoanManager",
        "label": "identityVerifier",
        "offset": 0,
        "slot": "5",
        "type": "t_address"
      },
      {
        "astId": 7984,
        "contract": "contracts/LoanManager.sol:LoanManager",
        "label": "identityBoostBps",
        "offset": 0,
        "slot": "6",
        "type": "t_uint256"
      },
      {
        "astId": 7987,
        "contract": "contracts/LoanManager.sol:LoanManager",
        "label": "uniswapRouter",
        "offset": 0,
        "slot": "7",
        "type": "t_contract(ISwapRouter)4726"
      },
      {
        "astId": 7990,
        "contract": "contracts/LoanManager.sol:LoanManager",
        "label": "usdc",
        "offset": 0,
        "slot": "8",
        "type": "t_contract(IERC20)923"
      },
      {
        "astId": 7992,
        "contract": "contracts/LoanManager.sol:LoanManager",
        "label": "poolFee",
        "offset": 20,
        "slot": "8",
        "type": "t_uint24"
      },
      {
        "astId": 7994,
        "contract": "contracts/LoanManager.sol:LoanManager",
        "label": "liquidationSlippageBps",
        "offset": 0,
        "slot": "9",
        "type": "t_uint256"
      },
      {
        "astId": 7996,
        "contract": "contracts/LoanManager.sol:LoanManager",
        "label": "issuanceTreasury",
        "offset": 0,
        "slot": "10",
        "type": "t_address"
      },
      {
        "astId": 7998,
        "contract": "contracts/LoanManager.sol:LoanManager",
        "label": "returnsTreasury",
        "offset": 0,
        "slot": "11",
        "type": "t_address"
      },
      {
        "astId": 8019,
        "contract": "contracts/LoanManager.sol:LoanManager",
        "label": "loans",
        "offset": 0,
        "slot": "12",
        "type": "t_mapping(t_uint256,t_struct(Loan)8014_storage)"
      },
      {
        "astId": 8021,
        "contract": "contracts/LoanManager.sol:LoanManager",
        "label": "loanCount",
        "offset": 0,
        "slot": "13",
        "type": "t_uint256"
      },
      {
        "astId": 8025,
        "contract": "contracts/LoanManager.sol:LoanManager",
        "label": "identityLinked",
        "offset": 0,
        "slot": "14",
        "type": "t_mapping(t_address,t_bool)"
      }
    ],
    "types": {
      "t_address": {
        "encoding": "inplace",
        "label": "address",
        "numberOfBytes": "20"
      },
      "t_bool": {
        "encoding": "inplace",
        "label": "bool",
        "numberOfBytes": "1"
      },
      "t_contract(IERC20)923": {
        "encoding": "inplace",
        "label": "contract IERC20",
        "numberOfBytes": "20"
      },
      "t_contract(ISwapRouter)4726": {
        "encoding": "inplace",
        "label": "contract ISwapRouter",
        "numberOfBytes": "20"
      },
      "t_contract(LendingPool)7942": {
        "encoding": "inplace",
        "label": "contract LendingPool",
        "numberOfBytes": "20"
      },
      "t_contract(ValuationEngine)9442": {
        "encoding": "inplace",
        "label": "contract ValuationEngine",
        "numberOfBytes": "20"
      },
      "t_contract(VestingAdapter)9893": {
        "encoding": "inplace",
        "label": "contract VestingAdapter",
        "numberOfBytes": "20"
      },
      "t_mapping(t_address,t_bool)": {
        "encoding": "mapping",
        "key": "t_address",
        "label": "mapping(address => bool)",
        "numberOfBytes": "32",
        "value": "t_bool"
      },
      "t_mapping(t_uint256,t_struct(Loan)8014_storage)": {
        "encoding": "mapping",
        "key": "t_uint256",
        "label": "mapping(uint256 => struct LoanManager.Loan)",
        "numberOfBytes": "32",
        "value": "t_struct(Loan)8014_storage"
      },
      "t_struct(Loan)8014_storage": {
        "encoding": "inplace",
        "label": "struct LoanManager.Loan",
        "members": [
          {
            "astId": 8003,
            "contract": "contracts/LoanManager.sol:LoanManager",
            "label": "borrower",
            "offset": 0,
            "slot": "0",
            "type": "t_address"
          },
          {
            "astId": 8005,
            "contract": "contracts/LoanManager.sol:LoanManager",
            "label": "principal",
            "offset": 0,
            "slot": "1",
            "type": "t_uint256"
          },
          {
            "astId": 8007,
            "contract": "contracts/LoanManager.sol:LoanManager",
            "label": "interest",
            "offset": 0,
            "slot": "2",
            "type": "t_uint256"
          },
          {
            "astId": 8009,
            "contract": "contracts/LoanManager.sol:LoanManager",
            "label": "collateralId",
            "offset": 0,
            "slot": "3",
            "type": "t_uint256"
          },
          {
            "astId": 8011,
            "contract": "contracts/LoanManager.sol:LoanManager",
            "label": "unlockTime",
            "offset": 0,
            "slot": "4",
            "type": "t_uint256"
          },
          {
            "astId": 8013,
            "contract": "contracts/LoanManager.sol:LoanManager",
            "label": "active",
            "offset": 0,
            "slot": "5",
            "type": "t_bool"
          }
        ],
        "numberOfBytes": "192"
      },
      "t_uint24": {
        "encoding": "inplace",
        "label": "uint24",
        "numberOfBytes": "3"
      },
      "t_uint256": {
        "encoding": "inplace",
        "label": "uint256",
        "numberOfBytes": "32"
      }
    }
  }
}