{
  "address": "0x3E6ce9289c20EC7822296aaBf8A48A6a2a857B56",
  "abi": [
    {
      "inputs": [
        {
          "internalType": "address",
          "name": "_valuation",
          "type": "address"
        },
        {
          "internalType": "address",
          "name": "_adapter",
          "type": "address"
        },
        {
          "internalType": "address",
          "name": "_pool",
          "type": "address"
        },
        {
          "internalType": "address",
          "name": "_identityVerifier",
          "type": "address"
        },
        {
          "internalType": "uint256",
          "name": "_identityBoostBps",
          "type": "uint256"
        },
        {
          "internalType": "address",
          "name": "_auctionFactory",
          "type": "address"
        },
        {
          "internalType": "address",
          "name": "_uniswapRouter",
          "type": "address"
        },
        {
          "internalType": "uint24",
          "name": "_poolFee",
          "type": "uint24"
        },
        {
          "internalType": "uint256",
          "name": "_slippageBps",
          "type": "uint256"
        },
        {
          "internalType": "address",
          "name": "_initialGovernor",
          "type": "address"
        }
      ],
      "stateMutability": "nonpayable",
      "type": "constructor"
    },
    {
      "inputs": [],
      "name": "AccessControlBadConfirmation",
      "type": "error"
    },
    {
      "inputs": [
        {
          "internalType": "address",
          "name": "account",
          "type": "address"
        },
        {
          "internalType": "bytes32",
          "name": "neededRole",
          "type": "bytes32"
        }
      ],
      "name": "AccessControlUnauthorizedAccount",
      "type": "error"
    },
    {
      "inputs": [],
      "name": "AutoRepayDisabled",
      "type": "error"
    },
    {
      "inputs": [],
      "name": "BadSlippage",
      "type": "error"
    },
    {
      "inputs": [],
      "name": "CircuitBreakerTripped",
      "type": "error"
    },
    {
      "inputs": [],
      "name": "EnforcedPause",
      "type": "error"
    },
    {
      "inputs": [],
      "name": "ExceedsLTV",
      "type": "error"
    },
    {
      "inputs": [],
      "name": "ExpectedPause",
      "type": "error"
    },
    {
      "inputs": [],
      "name": "GlobalExposureCapExceeded",
      "type": "error"
    },
    {
      "inputs": [],
      "name": "InvalidProof",
      "type": "error"
    },
    {
      "inputs": [],
      "name": "InvalidToken",
      "type": "error"
    },
    {
      "inputs": [],
      "name": "LengthMismatch",
      "type": "error"
    },
    {
      "inputs": [],
      "name": "LoanAlreadyPaid",
      "type": "error"
    },
    {
      "inputs": [],
      "name": "LoanInactive",
      "type": "error"
    },
    {
      "inputs": [],
      "name": "LoanOutlastsVesting",
      "type": "error"
    },
    {
      "inputs": [],
      "name": "MissingRepayPermissions",
      "type": "error"
    },
    {
      "inputs": [],
      "name": "NoCollateralToBuy",
      "type": "error"
    },
    {
      "inputs": [],
      "name": "NoQueuedConfig",
      "type": "error"
    },
    {
      "inputs": [],
      "name": "NoVerifier",
      "type": "error"
    },
    {
      "inputs": [],
      "name": "OTCWindowClosed",
      "type": "error"
    },
    {
      "inputs": [],
      "name": "OTCWindowExpired",
      "type": "error"
    },
    {
      "inputs": [],
      "name": "PriorityOrder",
      "type": "error"
    },
    {
      "inputs": [],
      "name": "ReentrancyGuardReentrantCall",
      "type": "error"
    },
    {
      "inputs": [],
      "name": "TimelockDisabled",
      "type": "error"
    },
    {
      "inputs": [],
      "name": "TimelockPending",
      "type": "error"
    },
    {
      "inputs": [],
      "name": "TokenNotAllowed",
      "type": "error"
    },
    {
      "inputs": [],
      "name": "TooManyTokens",
      "type": "error"
    },
    {
      "inputs": [],
      "name": "Unauthorized",
      "type": "error"
    },
    {
      "inputs": [],
      "name": "UnauthorizedTreasury",
      "type": "error"
    },
    {
      "inputs": [],
      "name": "ZeroAmount",
      "type": "error"
    },
    {
      "anonymous": false,
      "inputs": [
        {
          "indexed": false,
          "internalType": "bool",
          "name": "enabled",
          "type": "bool"
        },
        {
          "indexed": false,
          "internalType": "uint256",
          "name": "delaySeconds",
          "type": "uint256"
        }
      ],
      "name": "AdminTimelockConfigUpdated",
      "type": "event"
    },
    {
      "anonymous": false,
      "inputs": [
        {
          "indexed": true,
          "internalType": "address",
          "name": "vault",
          "type": "address"
        },
        {
          "indexed": false,
          "internalType": "uint256",
          "name": "bps",
          "type": "uint256"
        }
      ],
      "name": "AutoHedgeConfigured",
      "type": "event"
    },
    {
      "anonymous": false,
      "inputs": [
        {
          "indexed": true,
          "internalType": "uint256",
          "name": "loanId",
          "type": "uint256"
        },
        {
          "indexed": false,
          "internalType": "uint256",
          "name": "amount",
          "type": "uint256"
        }
      ],
      "name": "AutoHedgeDiverted",
      "type": "event"
    },
    {
      "anonymous": false,
      "inputs": [
        {
          "indexed": false,
          "internalType": "uint256",
          "name": "ltvBoostBps",
          "type": "uint256"
        },
        {
          "indexed": false,
          "internalType": "uint256",
          "name": "interestDiscountBps",
          "type": "uint256"
        }
      ],
      "name": "AutoRepayConfigUpdated",
      "type": "event"
    },
    {
      "anonymous": false,
      "inputs": [
        {
          "indexed": true,
          "internalType": "address",
          "name": "borrower",
          "type": "address"
        },
        {
          "indexed": false,
          "internalType": "bool",
          "name": "enabled",
          "type": "bool"
        }
      ],
      "name": "AutoRepayOptInUpdated",
      "type": "event"
    },
    {
      "anonymous": false,
      "inputs": [
        {
          "indexed": false,
          "internalType": "address[]",
          "name": "tokens",
          "type": "address[]"
        }
      ],
      "name": "AutoRepayRequiredTokensUpdated",
      "type": "event"
    },
    {
      "anonymous": false,
      "inputs": [
        {
          "indexed": true,
          "internalType": "uint256",
          "name": "loanId",
          "type": "uint256"
        },
        {
          "indexed": true,
          "internalType": "address",
          "name": "token",
          "type": "address"
        },
        {
          "indexed": false,
          "internalType": "uint256",
          "name": "seizedAmount",
          "type": "uint256"
        },
        {
          "indexed": false,
          "internalType": "uint256",
          "name": "usdcReceived",
          "type": "uint256"
        }
      ],
      "name": "CollateralLiquidated",
      "type": "event"
    },
    {
      "anonymous": false,
      "inputs": [
        {
          "indexed": true,
          "internalType": "uint256",
          "name": "loanId",
          "type": "uint256"
        },
        {
          "indexed": true,
          "internalType": "address",
          "name": "token",
          "type": "address"
        },
        {
          "indexed": false,
          "internalType": "uint256",
          "name": "amountSeized",
          "type": "uint256"
        },
        {
          "indexed": false,
          "internalType": "uint256",
          "name": "usdcValue",
          "type": "uint256"
        }
      ],
      "name": "DeficitSwept",
      "type": "event"
    },
    {
      "anonymous": false,
      "inputs": [
        {
          "indexed": false,
          "internalType": "uint256",
          "name": "rateBps",
          "type": "uint256"
        }
      ],
      "name": "DynamicRateUpdated",
      "type": "event"
    },
    {
      "anonymous": false,
      "inputs": [
        {
          "indexed": false,
          "internalType": "address",
          "name": "governor",
          "type": "address"
        }
      ],
      "name": "GovernanceInitialised",
      "type": "event"
    },
    {
      "anonymous": false,
      "inputs": [
        {
          "indexed": false,
          "internalType": "address",
          "name": "verifier",
          "type": "address"
        },
        {
          "indexed": false,
          "internalType": "uint256",
          "name": "boostBps",
          "type": "uint256"
        }
      ],
      "name": "IdentityConfigUpdated",
      "type": "event"
    },
    {
      "anonymous": false,
      "inputs": [
        {
          "indexed": true,
          "internalType": "address",
          "name": "borrower",
          "type": "address"
        },
        {
          "indexed": false,
          "internalType": "uint256",
          "name": "boostBps",
          "type": "uint256"
        }
      ],
      "name": "IdentityLinked",
      "type": "event"
    },
    {
      "anonymous": false,
      "inputs": [],
      "name": "LiquidationConfigCancelled",
      "type": "event"
    },
    {
      "anonymous": false,
      "inputs": [
        {
          "indexed": false,
          "internalType": "address",
          "name": "router",
          "type": "address"
        },
        {
          "indexed": false,
          "internalType": "uint24",
          "name": "poolFee",
          "type": "uint24"
        },
        {
          "indexed": false,
          "internalType": "uint256",
          "name": "slippageBps",
          "type": "uint256"
        },
        {
          "indexed": false,
          "internalType": "uint256",
          "name": "executeAfter",
          "type": "uint256"
        }
      ],
      "name": "LiquidationConfigQueued",
      "type": "event"
    },
    {
      "anonymous": false,
      "inputs": [
        {
          "indexed": false,
          "internalType": "address",
          "name": "router",
          "type": "address"
        },
        {
          "indexed": false,
          "internalType": "uint24",
          "name": "poolFee",
          "type": "uint24"
        },
        {
          "indexed": false,
          "internalType": "uint256",
          "name": "slippageBps",
          "type": "uint256"
        }
      ],
      "name": "LiquidationConfigUpdated",
      "type": "event"
    },
    {
      "anonymous": false,
      "inputs": [
        {
          "indexed": true,
          "internalType": "uint256",
          "name": "loanId",
          "type": "uint256"
        },
        {
          "indexed": true,
          "internalType": "address",
          "name": "borrower",
          "type": "address"
        },
        {
          "indexed": false,
          "internalType": "uint256",
          "name": "amount",
          "type": "uint256"
        }
      ],
      "name": "LoanCreated",
      "type": "event"
    },
    {
      "anonymous": false,
      "inputs": [
        {
          "indexed": true,
          "internalType": "uint256",
          "name": "loanId",
          "type": "uint256"
        },
        {
          "indexed": false,
          "internalType": "uint256",
          "name": "amount",
          "type": "uint256"
        }
      ],
      "name": "LoanRepaid",
      "type": "event"
    },
    {
      "anonymous": false,
      "inputs": [
        {
          "indexed": true,
          "internalType": "uint256",
          "name": "loanId",
          "type": "uint256"
        },
        {
          "indexed": true,
          "internalType": "address",
          "name": "tokenIn",
          "type": "address"
        },
        {
          "indexed": false,
          "internalType": "uint256",
          "name": "amountIn",
          "type": "uint256"
        },
        {
          "indexed": false,
          "internalType": "uint256",
          "name": "usdcReceived",
          "type": "uint256"
        }
      ],
      "name": "LoanRepaidWithSwap",
      "type": "event"
    },
    {
      "anonymous": false,
      "inputs": [
        {
          "indexed": true,
          "internalType": "uint256",
          "name": "loanId",
          "type": "uint256"
        },
        {
          "indexed": false,
          "internalType": "bool",
          "name": "defaulted",
          "type": "bool"
        }
      ],
      "name": "LoanSettled",
      "type": "event"
    },
    {
      "anonymous": false,
      "inputs": [
        {
          "indexed": true,
          "internalType": "uint256",
          "name": "loanId",
          "type": "uint256"
        },
        {
          "indexed": true,
          "internalType": "address",
          "name": "treasury",
          "type": "address"
        },
        {
          "indexed": false,
          "internalType": "uint256",
          "name": "amountPaid",
          "type": "uint256"
        }
      ],
      "name": "OTCBuybackExecuted",
      "type": "event"
    },
    {
      "anonymous": false,
      "inputs": [
        {
          "indexed": true,
          "internalType": "uint256",
          "name": "loanId",
          "type": "uint256"
        },
        {
          "indexed": true,
          "internalType": "address",
          "name": "token",
          "type": "address"
        },
        {
          "indexed": false,
          "internalType": "uint256",
          "name": "deadline",
          "type": "uint256"
        }
      ],
      "name": "OTCBuybackInitiated",
      "type": "event"
    },
    {
      "anonymous": false,
      "inputs": [
        {
          "indexed": false,
          "internalType": "uint256",
          "name": "originationFeeBps",
          "type": "uint256"
        }
      ],
      "name": "OriginationFeeUpdated",
      "type": "event"
    },
    {
      "anonymous": false,
      "inputs": [
        {
          "indexed": false,
          "internalType": "address",
          "name": "account",
          "type": "address"
        }
      ],
      "name": "Paused",
      "type": "event"
    },
    {
      "anonymous": false,
      "inputs": [
        {
          "indexed": true,
          "internalType": "uint256",
          "name": "loanId",
          "type": "uint256"
        },
        {
          "indexed": true,
          "internalType": "address",
          "name": "vault",
          "type": "address"
        },
        {
          "indexed": false,
          "internalType": "uint256",
          "name": "amount",
          "type": "uint256"
        }
      ],
      "name": "PrivateLoanCreated",
      "type": "event"
    },
    {
      "anonymous": false,
      "inputs": [
        {
          "indexed": true,
          "internalType": "uint256",
          "name": "loanId",
          "type": "uint256"
        },
        {
          "indexed": false,
          "internalType": "uint256",
          "name": "amount",
          "type": "uint256"
        }
      ],
      "name": "PrivateLoanRepaid",
      "type": "event"
    },
    {
      "anonymous": false,
      "inputs": [
        {
          "indexed": true,
          "internalType": "uint256",
          "name": "loanId",
          "type": "uint256"
        },
        {
          "indexed": false,
          "internalType": "bool",
          "name": "defaulted",
          "type": "bool"
        }
      ],
      "name": "PrivateLoanSettled",
      "type": "event"
    },
    {
      "anonymous": false,
      "inputs": [
        {
          "indexed": false,
          "internalType": "address[]",
          "name": "tokens",
          "type": "address[]"
        }
      ],
      "name": "RepayTokenPriorityUpdated",
      "type": "event"
    },
    {
      "anonymous": false,
      "inputs": [
        {
          "indexed": true,
          "internalType": "bytes32",
          "name": "role",
          "type": "bytes32"
        },
        {
          "indexed": true,
          "internalType": "bytes32",
          "name": "previousAdminRole",
          "type": "bytes32"
        },
        {
          "indexed": true,
          "internalType": "bytes32",
          "name": "newAdminRole",
          "type": "bytes32"
        }
      ],
      "name": "RoleAdminChanged",
      "type": "event"
    },
    {
      "anonymous": false,
      "inputs": [
        {
          "indexed": true,
          "internalType": "bytes32",
          "name": "role",
          "type": "bytes32"
        },
        {
          "indexed": true,
          "internalType": "address",
          "name": "account",
          "type": "address"
        },
        {
          "indexed": true,
          "internalType": "address",
          "name": "sender",
          "type": "address"
        }
      ],
      "name": "RoleGranted",
      "type": "event"
    },
    {
      "anonymous": false,
      "inputs": [
        {
          "indexed": true,
          "internalType": "bytes32",
          "name": "role",
          "type": "bytes32"
        },
        {
          "indexed": true,
          "internalType": "address",
          "name": "account",
          "type": "address"
        },
        {
          "indexed": true,
          "internalType": "address",
          "name": "sender",
          "type": "address"
        }
      ],
      "name": "RoleRevoked",
      "type": "event"
    },
    {
      "anonymous": false,
      "inputs": [
        {
          "indexed": true,
          "internalType": "address",
          "name": "account",
          "type": "address"
        },
        {
          "indexed": false,
          "internalType": "bool",
          "name": "passed",
          "type": "bool"
        }
      ],
      "name": "SanctionsStatusUpdated",
      "type": "event"
    },
    {
      "anonymous": false,
      "inputs": [
        {
          "indexed": true,
          "internalType": "address",
          "name": "token",
          "type": "address"
        },
        {
          "indexed": true,
          "internalType": "address",
          "name": "treasury",
          "type": "address"
        }
      ],
      "name": "TokenTreasurySet",
      "type": "event"
    },
    {
      "anonymous": false,
      "inputs": [],
      "name": "TreasuryConfigCancelled",
      "type": "event"
    },
    {
      "anonymous": false,
      "inputs": [
        {
          "indexed": false,
          "internalType": "address",
          "name": "issuanceTreasury",
          "type": "address"
        },
        {
          "indexed": false,
          "internalType": "address",
          "name": "returnsTreasury",
          "type": "address"
        },
        {
          "indexed": false,
          "internalType": "uint256",
          "name": "executeAfter",
          "type": "uint256"
        }
      ],
      "name": "TreasuryConfigQueued",
      "type": "event"
    },
    {
      "anonymous": false,
      "inputs": [
        {
          "indexed": false,
          "internalType": "address",
          "name": "issuanceTreasury",
          "type": "address"
        },
        {
          "indexed": false,
          "internalType": "address",
          "name": "returnsTreasury",
          "type": "address"
        }
      ],
      "name": "TreasuryConfigUpdated",
      "type": "event"
    },
    {
      "anonymous": false,
      "inputs": [
        {
          "indexed": false,
          "internalType": "address",
          "name": "account",
          "type": "address"
        }
      ],
      "name": "Unpaused",
      "type": "event"
    },
    {
      "stateMutability": "payable",
      "type": "fallback"
    },
    {
      "inputs": [],
      "name": "BPS_DENOMINATOR",
      "outputs": [
        {
          "internalType": "uint256",
          "name": "",
          "type": "uint256"
        }
      ],
      "stateMutability": "view",
      "type": "function"
    },
    {
      "inputs": [],
      "name": "DEFAULT_ADMIN_ROLE",
      "outputs": [
        {
          "internalType": "bytes32",
          "name": "",
          "type": "bytes32"
        }
      ],
      "stateMutability": "view",
      "type": "function"
    },
    {
      "inputs": [],
      "name": "GOVERNOR_ROLE",
      "outputs": [
        {
          "internalType": "bytes32",
          "name": "",
          "type": "bytes32"
        }
      ],
      "stateMutability": "view",
      "type": "function"
    },
    {
      "inputs": [],
      "name": "GUARDIAN_ROLE",
      "outputs": [
        {
          "internalType": "bytes32",
          "name": "",
          "type": "bytes32"
        }
      ],
      "stateMutability": "view",
      "type": "function"
    },
    {
      "inputs": [],
      "name": "PAUSER_ROLE",
      "outputs": [
        {
          "internalType": "bytes32",
          "name": "",
          "type": "bytes32"
        }
      ],
      "stateMutability": "view",
      "type": "function"
    },
    {
      "inputs": [],
      "name": "adapter",
      "outputs": [
        {
          "internalType": "contract VestingAdapter",
          "name": "",
          "type": "address"
        }
      ],
      "stateMutability": "view",
      "type": "function"
    },
    {
      "inputs": [],
      "name": "adminTimelockDelay",
      "outputs": [
        {
          "internalType": "uint256",
          "name": "",
          "type": "uint256"
        }
      ],
      "stateMutability": "view",
      "type": "function"
    },
    {
      "inputs": [],
      "name": "adminTimelockEnabled",
      "outputs": [
        {
          "internalType": "bool",
          "name": "",
          "type": "bool"
        }
      ],
      "stateMutability": "view",
      "type": "function"
    },
    {
      "inputs": [],
      "name": "auctionFactory",
      "outputs": [
        {
          "internalType": "contract AuctionFactory",
          "name": "",
          "type": "address"
        }
      ],
      "stateMutability": "view",
      "type": "function"
    },
    {
      "inputs": [],
      "name": "autoHedgeBps",
      "outputs": [
        {
          "internalType": "uint256",
          "name": "",
          "type": "uint256"
        }
      ],
      "stateMutability": "view",
      "type": "function"
    },
    {
      "inputs": [],
      "name": "autoRepayInterestDiscountBps",
      "outputs": [
        {
          "internalType": "uint256",
          "name": "",
          "type": "uint256"
        }
      ],
      "stateMutability": "view",
      "type": "function"
    },
    {
      "inputs": [],
      "name": "autoRepayLtvBoostBps",
      "outputs": [
        {
          "internalType": "uint256",
          "name": "",
          "type": "uint256"
        }
      ],
      "stateMutability": "view",
      "type": "function"
    },
    {
      "inputs": [
        {
          "internalType": "address",
          "name": "",
          "type": "address"
        }
      ],
      "name": "autoRepayOptIn",
      "outputs": [
        {
          "internalType": "bool",
          "name": "",
          "type": "bool"
        }
      ],
      "stateMutability": "view",
      "type": "function"
    },
    {
      "inputs": [
        {
          "internalType": "uint256",
          "name": "",
          "type": "uint256"
        }
      ],
      "name": "autoRepayRequiredTokens",
      "outputs": [
        {
          "internalType": "address",
          "name": "",
          "type": "address"
        }
      ],
      "stateMutability": "view",
      "type": "function"
    },
    {
      "inputs": [],
      "name": "badDebtCeiling",
      "outputs": [
        {
          "internalType": "uint256",
          "name": "",
          "type": "uint256"
        }
      ],
      "stateMutability": "view",
      "type": "function"
    },
    {
      "inputs": [],
      "name": "cancelQueuedLiquidationConfig",
      "outputs": [],
      "stateMutability": "nonpayable",
      "type": "function"
    },
    {
      "inputs": [],
      "name": "cancelQueuedTreasuries",
      "outputs": [],
      "stateMutability": "nonpayable",
      "type": "function"
    },
    {
      "inputs": [
        {
          "internalType": "address",
          "name": "",
          "type": "address"
        }
      ],
      "name": "currentGlobalExposure",
      "outputs": [
        {
          "internalType": "uint256",
          "name": "",
          "type": "uint256"
        }
      ],
      "stateMutability": "view",
      "type": "function"
    },
    {
      "inputs": [],
      "name": "distressedDebtBond",
      "outputs": [
        {
          "internalType": "contract DistressedDebtBond",
          "name": "",
          "type": "address"
        }
      ],
      "stateMutability": "view",
      "type": "function"
    },
    {
      "inputs": [],
      "name": "dynamicBorrowRateBps",
      "outputs": [
        {
          "internalType": "uint256",
          "name": "",
          "type": "uint256"
        }
      ],
      "stateMutability": "view",
      "type": "function"
    },
    {
      "inputs": [],
      "name": "executeQueuedLiquidationConfig",
      "outputs": [],
      "stateMutability": "nonpayable",
      "type": "function"
    },
    {
      "inputs": [],
      "name": "executeQueuedTreasuries",
      "outputs": [],
      "stateMutability": "nonpayable",
      "type": "function"
    },
    {
      "inputs": [],
      "name": "getAutoRepayRequiredTokens",
      "outputs": [
        {
          "internalType": "address[]",
          "name": "",
          "type": "address[]"
        }
      ],
      "stateMutability": "view",
      "type": "function"
    },
    {
      "inputs": [
        {
          "internalType": "uint256",
          "name": "loanId",
          "type": "uint256"
        }
      ],
      "name": "getRemainingDebt",
      "outputs": [
        {
          "internalType": "uint256",
          "name": "",
          "type": "uint256"
        }
      ],
      "stateMutability": "view",
      "type": "function"
    },
    {
      "inputs": [
        {
          "internalType": "bytes32",
          "name": "role",
          "type": "bytes32"
        }
      ],
      "name": "getRoleAdmin",
      "outputs": [
        {
          "internalType": "bytes32",
          "name": "",
          "type": "bytes32"
        }
      ],
      "stateMutability": "view",
      "type": "function"
    },
    {
      "inputs": [
        {
          "internalType": "bytes32",
          "name": "role",
          "type": "bytes32"
        },
        {
          "internalType": "address",
          "name": "account",
          "type": "address"
        }
      ],
      "name": "grantRole",
      "outputs": [],
      "stateMutability": "nonpayable",
      "type": "function"
    },
    {
      "inputs": [
        {
          "internalType": "address",
          "name": "borrower",
          "type": "address"
        }
      ],
      "name": "hasAutoRepayPermissions",
      "outputs": [
        {
          "internalType": "bool",
          "name": "",
          "type": "bool"
        }
      ],
      "stateMutability": "view",
      "type": "function"
    },
    {
      "inputs": [
        {
          "internalType": "bytes32",
          "name": "role",
          "type": "bytes32"
        },
        {
          "internalType": "address",
          "name": "account",
          "type": "address"
        }
      ],
      "name": "hasRole",
      "outputs": [
        {
          "internalType": "bool",
          "name": "",
          "type": "bool"
        }
      ],
      "stateMutability": "view",
      "type": "function"
    },
    {
      "inputs": [],
      "name": "identityBoostBps",
      "outputs": [
        {
          "internalType": "uint256",
          "name": "",
          "type": "uint256"
        }
      ],
      "stateMutability": "view",
      "type": "function"
    },
    {
      "inputs": [
        {
          "internalType": "address",
          "name": "",
          "type": "address"
        }
      ],
      "name": "identityLinked",
      "outputs": [
        {
          "internalType": "bool",
          "name": "",
          "type": "bool"
        }
      ],
      "stateMutability": "view",
      "type": "function"
    },
    {
      "inputs": [],
      "name": "identityVerifier",
      "outputs": [
        {
          "internalType": "address",
          "name": "",
          "type": "address"
        }
      ],
      "stateMutability": "view",
      "type": "function"
    },
    {
      "inputs": [
        {
          "internalType": "uint256",
          "name": "",
          "type": "uint256"
        }
      ],
      "name": "inOTCBuyback",
      "outputs": [
        {
          "internalType": "bool",
          "name": "",
          "type": "bool"
        }
      ],
      "stateMutability": "view",
      "type": "function"
    },
    {
      "inputs": [],
      "name": "insuranceVault",
      "outputs": [
        {
          "internalType": "contract InsuranceVault",
          "name": "",
          "type": "address"
        }
      ],
      "stateMutability": "view",
      "type": "function"
    },
    {
      "inputs": [
        {
          "internalType": "uint8",
          "name": "",
          "type": "uint8"
        }
      ],
      "name": "isolatedPools",
      "outputs": [
        {
          "internalType": "contract IsolatedLendingPool",
          "name": "",
          "type": "address"
        }
      ],
      "stateMutability": "view",
      "type": "function"
    },
    {
      "inputs": [],
      "name": "issuanceTreasury",
      "outputs": [
        {
          "internalType": "address",
          "name": "",
          "type": "address"
        }
      ],
      "stateMutability": "view",
      "type": "function"
    },
    {
      "inputs": [
        {
          "internalType": "bytes",
          "name": "proof",
          "type": "bytes"
        }
      ],
      "name": "linkIdentity",
      "outputs": [
        {
          "internalType": "bool",
          "name": "",
          "type": "bool"
        }
      ],
      "stateMutability": "nonpayable",
      "type": "function"
    },
    {
      "inputs": [],
      "name": "liquidationSlippageBps",
      "outputs": [
        {
          "internalType": "uint256",
          "name": "",
          "type": "uint256"
        }
      ],
      "stateMutability": "view",
      "type": "function"
    },
    {
      "inputs": [],
      "name": "loanCount",
      "outputs": [
        {
          "internalType": "uint256",
          "name": "",
          "type": "uint256"
        }
      ],
      "stateMutability": "view",
      "type": "function"
    },
    {
      "inputs": [
        {
          "internalType": "uint256",
          "name": "",
          "type": "uint256"
        }
      ],
      "name": "loanDeficits",
      "outputs": [
        {
          "internalType": "uint256",
          "name": "",
          "type": "uint256"
        }
      ],
      "stateMutability": "view",
      "type": "function"
    },
    {
      "inputs": [],
      "name": "loanNFT",
      "outputs": [
        {
          "internalType": "contract LoanNFT",
          "name": "",
          "type": "address"
        }
      ],
      "stateMutability": "view",
      "type": "function"
    },
    {
      "inputs": [
        {
          "internalType": "uint256",
          "name": "",
          "type": "uint256"
        }
      ],
      "name": "loans",
      "outputs": [
        {
          "internalType": "address",
          "name": "borrower",
          "type": "address"
        },
        {
          "internalType": "uint256",
          "name": "principal",
          "type": "uint256"
        },
        {
          "internalType": "uint256",
          "name": "interest",
          "type": "uint256"
        },
        {
          "internalType": "uint256",
          "name": "collateralId",
          "type": "uint256"
        },
        {
          "internalType": "uint256",
          "name": "collateralAmount",
          "type": "uint256"
        },
        {
          "internalType": "uint256",
          "name": "loanDuration",
          "type": "uint256"
        },
        {
          "internalType": "uint256",
          "name": "unlockTime",
          "type": "uint256"
        },
        {
          "internalType": "uint256",
          "name": "hedgeAmount",
          "type": "uint256"
        },
        {
          "internalType": "bool",
          "name": "active",
          "type": "bool"
        }
      ],
      "stateMutability": "view",
      "type": "function"
    },
    {
      "inputs": [],
      "name": "originationFacet",
      "outputs": [
        {
          "internalType": "address",
          "name": "",
          "type": "address"
        }
      ],
      "stateMutability": "view",
      "type": "function"
    },
    {
      "inputs": [],
      "name": "originationFeeBps",
      "outputs": [
        {
          "internalType": "uint256",
          "name": "",
          "type": "uint256"
        }
      ],
      "stateMutability": "view",
      "type": "function"
    },
    {
      "inputs": [
        {
          "internalType": "uint256",
          "name": "",
          "type": "uint256"
        }
      ],
      "name": "otcBuybackDeadline",
      "outputs": [
        {
          "internalType": "uint256",
          "name": "",
          "type": "uint256"
        }
      ],
      "stateMutability": "view",
      "type": "function"
    },
    {
      "inputs": [],
      "name": "pause",
      "outputs": [],
      "stateMutability": "nonpayable",
      "type": "function"
    },
    {
      "inputs": [],
      "name": "paused",
      "outputs": [
        {
          "internalType": "bool",
          "name": "",
          "type": "bool"
        }
      ],
      "stateMutability": "view",
      "type": "function"
    },
    {
      "inputs": [],
      "name": "pendingLiquidationConfig",
      "outputs": [
        {
          "internalType": "address",
          "name": "router",
          "type": "address"
        },
        {
          "internalType": "uint24",
          "name": "poolFee",
          "type": "uint24"
        },
        {
          "internalType": "uint256",
          "name": "slippageBps",
          "type": "uint256"
        },
        {
          "internalType": "uint256",
          "name": "executeAfter",
          "type": "uint256"
        },
        {
          "internalType": "bool",
          "name": "exists",
          "type": "bool"
        }
      ],
      "stateMutability": "view",
      "type": "function"
    },
    {
      "inputs": [],
      "name": "pendingTreasuryConfig",
      "outputs": [
        {
          "internalType": "address",
          "name": "issuanceTreasury",
          "type": "address"
        },
        {
          "internalType": "address",
          "name": "returnsTreasury",
          "type": "address"
        },
        {
          "internalType": "uint256",
          "name": "executeAfter",
          "type": "uint256"
        },
        {
          "internalType": "bool",
          "name": "exists",
          "type": "bool"
        }
      ],
      "stateMutability": "view",
      "type": "function"
    },
    {
      "inputs": [],
      "name": "pool",
      "outputs": [
        {
          "internalType": "contract LendingPool",
          "name": "",
          "type": "address"
        }
      ],
      "stateMutability": "view",
      "type": "function"
    },
    {
      "inputs": [],
      "name": "poolFee",
      "outputs": [
        {
          "internalType": "uint24",
          "name": "",
          "type": "uint24"
        }
      ],
      "stateMutability": "view",
      "type": "function"
    },
    {
      "inputs": [
        {
          "internalType": "uint256",
          "name": "",
          "type": "uint256"
        }
      ],
      "name": "privateLoans",
      "outputs": [
        {
          "internalType": "address",
          "name": "vault",
          "type": "address"
        },
        {
          "internalType": "uint256",
          "name": "principal",
          "type": "uint256"
        },
        {
          "internalType": "uint256",
          "name": "interest",
          "type": "uint256"
        },
        {
          "internalType": "uint256",
          "name": "collateralId",
          "type": "uint256"
        },
        {
          "internalType": "uint256",
          "name": "collateralAmount",
          "type": "uint256"
        },
        {
          "internalType": "uint256",
          "name": "loanDuration",
          "type": "uint256"
        },
        {
          "internalType": "uint256",
          "name": "unlockTime",
          "type": "uint256"
        },
        {
          "internalType": "uint256",
          "name": "hedgeAmount",
          "type": "uint256"
        },
        {
          "internalType": "bool",
          "name": "active",
          "type": "bool"
        }
      ],
      "stateMutability": "view",
      "type": "function"
    },
    {
      "inputs": [
        {
          "internalType": "address",
          "name": "router",
          "type": "address"
        },
        {
          "internalType": "uint24",
          "name": "newPoolFee",
          "type": "uint24"
        },
        {
          "internalType": "uint256",
          "name": "slippageBps",
          "type": "uint256"
        }
      ],
      "name": "queueLiquidationConfig",
      "outputs": [],
      "stateMutability": "nonpayable",
      "type": "function"
    },
    {
      "inputs": [
        {
          "internalType": "address",
          "name": "issuance",
          "type": "address"
        },
        {
          "internalType": "address",
          "name": "returnsAddr",
          "type": "address"
        }
      ],
      "name": "queueTreasuries",
      "outputs": [],
      "stateMutability": "nonpayable",
      "type": "function"
    },
    {
      "inputs": [
        {
          "internalType": "address",
          "name": "tokenIn",
          "type": "address"
        },
        {
          "internalType": "uint256",
          "name": "amountIn",
          "type": "uint256"
        }
      ],
      "name": "quoteMinUsdcOut",
      "outputs": [
        {
          "internalType": "uint256",
          "name": "",
          "type": "uint256"
        }
      ],
      "stateMutability": "view",
      "type": "function"
    },
    {
      "inputs": [
        {
          "internalType": "bytes32",
          "name": "role",
          "type": "bytes32"
        },
        {
          "internalType": "address",
          "name": "callerConfirmation",
          "type": "address"
        }
      ],
      "name": "renounceRole",
      "outputs": [],
      "stateMutability": "nonpayable",
      "type": "function"
    },
    {
      "inputs": [
        {
          "internalType": "address",
          "name": "",
          "type": "address"
        }
      ],
      "name": "repayTokenPriority",
      "outputs": [
        {
          "internalType": "uint256",
          "name": "",
          "type": "uint256"
        }
      ],
      "stateMutability": "view",
      "type": "function"
    },
    {
      "inputs": [
        {
          "internalType": "uint256",
          "name": "",
          "type": "uint256"
        }
      ],
      "name": "repayTokens",
      "outputs": [
        {
          "internalType": "address",
          "name": "",
          "type": "address"
        }
      ],
      "stateMutability": "view",
      "type": "function"
    },
    {
      "inputs": [],
      "name": "repaymentFacet",
      "outputs": [
        {
          "internalType": "address",
          "name": "",
          "type": "address"
        }
      ],
      "stateMutability": "view",
      "type": "function"
    },
    {
      "inputs": [],
      "name": "returnsTreasury",
      "outputs": [
        {
          "internalType": "address",
          "name": "",
          "type": "address"
        }
      ],
      "stateMutability": "view",
      "type": "function"
    },
    {
      "inputs": [
        {
          "internalType": "bytes32",
          "name": "role",
          "type": "bytes32"
        },
        {
          "internalType": "address",
          "name": "account",
          "type": "address"
        }
      ],
      "name": "revokeRole",
      "outputs": [],
      "stateMutability": "nonpayable",
      "type": "function"
    },
    {
      "inputs": [],
      "name": "riskModule",
      "outputs": [
        {
          "internalType": "address",
          "name": "",
          "type": "address"
        }
      ],
      "stateMutability": "view",
      "type": "function"
    },
    {
      "inputs": [
        {
          "internalType": "address",
          "name": "",
          "type": "address"
        }
      ],
      "name": "sanctionsPass",
      "outputs": [
        {
          "internalType": "bool",
          "name": "",
          "type": "bool"
        }
      ],
      "stateMutability": "view",
      "type": "function"
    },
    {
      "inputs": [
        {
          "internalType": "bool",
          "name": "enabled",
          "type": "bool"
        },
        {
          "internalType": "uint256",
          "name": "delaySeconds",
          "type": "uint256"
        }
      ],
      "name": "setAdminTimelockConfig",
      "outputs": [],
      "stateMutability": "nonpayable",
      "type": "function"
    },
    {
      "inputs": [
        {
          "internalType": "uint256",
          "name": "ltvBoostBps",
          "type": "uint256"
        },
        {
          "internalType": "uint256",
          "name": "interestDiscountBps",
          "type": "uint256"
        }
      ],
      "name": "setAutoRepayConfig",
      "outputs": [],
      "stateMutability": "nonpayable",
      "type": "function"
    },
    {
      "inputs": [
        {
          "internalType": "bool",
          "name": "enabled",
          "type": "bool"
        }
      ],
      "name": "setAutoRepayOptIn",
      "outputs": [],
      "stateMutability": "nonpayable",
      "type": "function"
    },
    {
      "inputs": [
        {
          "internalType": "address[]",
          "name": "tokens",
          "type": "address[]"
        }
      ],
      "name": "setAutoRepayRequiredTokens",
      "outputs": [],
      "stateMutability": "nonpayable",
      "type": "function"
    },
    {
      "inputs": [
        {
          "internalType": "uint256",
          "name": "_ceiling",
          "type": "uint256"
        }
      ],
      "name": "setBadDebtCeiling",
      "outputs": [],
      "stateMutability": "nonpayable",
      "type": "function"
    },
    {
      "inputs": [
        {
          "internalType": "uint256",
          "name": "rateBps",
          "type": "uint256"
        }
      ],
      "name": "setDynamicBorrowRate",
      "outputs": [],
      "stateMutability": "nonpayable",
      "type": "function"
    },
    {
      "inputs": [
        {
          "internalType": "address",
          "name": "_origination",
          "type": "address"
        },
        {
          "internalType": "address",
          "name": "_repayment",
          "type": "address"
        }
      ],
      "name": "setFacets",
      "outputs": [],
      "stateMutability": "nonpayable",
      "type": "function"
    },
    {
      "inputs": [
        {
          "internalType": "address",
          "name": "verifier",
          "type": "address"
        },
        {
          "internalType": "uint256",
          "name": "boostBps",
          "type": "uint256"
        }
      ],
      "name": "setIdentityConfig",
      "outputs": [],
      "stateMutability": "nonpayable",
      "type": "function"
    },
    {
      "inputs": [
        {
          "internalType": "address",
          "name": "vault",
          "type": "address"
        },
        {
          "internalType": "uint256",
          "name": "bps",
          "type": "uint256"
        }
      ],
      "name": "setInsuranceVault",
      "outputs": [],
      "stateMutability": "nonpayable",
      "type": "function"
    },
    {
      "inputs": [
        {
          "internalType": "address",
          "name": "router",
          "type": "address"
        },
        {
          "internalType": "uint24",
          "name": "newPoolFee",
          "type": "uint24"
        },
        {
          "internalType": "uint256",
          "name": "slippageBps",
          "type": "uint256"
        }
      ],
      "name": "setLiquidationConfig",
      "outputs": [],
      "stateMutability": "nonpayable",
      "type": "function"
    },
    {
      "inputs": [
        {
          "internalType": "address",
          "name": "_loanNFT",
          "type": "address"
        }
      ],
      "name": "setLoanNFT",
      "outputs": [],
      "stateMutability": "nonpayable",
      "type": "function"
    },
    {
      "inputs": [
        {
          "internalType": "uint256",
          "name": "feeBps",
          "type": "uint256"
        }
      ],
      "name": "setOriginationFeeBps",
      "outputs": [],
      "stateMutability": "nonpayable",
      "type": "function"
    },
    {
      "inputs": [
        {
          "internalType": "address",
          "name": "_riskModule",
          "type": "address"
        }
      ],
      "name": "setRiskModule",
      "outputs": [],
      "stateMutability": "nonpayable",
      "type": "function"
    },
    {
      "inputs": [
        {
          "internalType": "address",
          "name": "account",
          "type": "address"
        },
        {
          "internalType": "bool",
          "name": "status",
          "type": "bool"
        }
      ],
      "name": "setSanctionsPass",
      "outputs": [],
      "stateMutability": "nonpayable",
      "type": "function"
    },
    {
      "inputs": [
        {
          "internalType": "address",
          "name": "token",
          "type": "address"
        },
        {
          "internalType": "address",
          "name": "treasury",
          "type": "address"
        }
      ],
      "name": "setTokenTreasury",
      "outputs": [],
      "stateMutability": "nonpayable",
      "type": "function"
    },
    {
      "inputs": [
        {
          "internalType": "address",
          "name": "issuance",
          "type": "address"
        },
        {
          "internalType": "address",
          "name": "returnsAddr",
          "type": "address"
        }
      ],
      "name": "setTreasuries",
      "outputs": [],
      "stateMutability": "nonpayable",
      "type": "function"
    },
    {
      "inputs": [
        {
          "internalType": "bytes4",
          "name": "interfaceId",
          "type": "bytes4"
        }
      ],
      "name": "supportsInterface",
      "outputs": [
        {
          "internalType": "bool",
          "name": "",
          "type": "bool"
        }
      ],
      "stateMutability": "view",
      "type": "function"
    },
    {
      "inputs": [
        {
          "internalType": "uint256",
          "name": "_totalBadDebt",
          "type": "uint256"
        }
      ],
      "name": "syncBadDebt",
      "outputs": [],
      "stateMutability": "nonpayable",
      "type": "function"
    },
    {
      "inputs": [
        {
          "internalType": "address",
          "name": "",
          "type": "address"
        }
      ],
      "name": "tokenTreasuries",
      "outputs": [
        {
          "internalType": "address",
          "name": "",
          "type": "address"
        }
      ],
      "stateMutability": "view",
      "type": "function"
    },
    {
      "inputs": [],
      "name": "totalBadDebt",
      "outputs": [
        {
          "internalType": "uint256",
          "name": "",
          "type": "uint256"
        }
      ],
      "stateMutability": "view",
      "type": "function"
    },
    {
      "inputs": [],
      "name": "uniswapRouter",
      "outputs": [
        {
          "internalType": "contract ISwapRouter",
          "name": "",
          "type": "address"
        }
      ],
      "stateMutability": "view",
      "type": "function"
    },
    {
      "inputs": [],
      "name": "unpause",
      "outputs": [],
      "stateMutability": "nonpayable",
      "type": "function"
    },
    {
      "inputs": [],
      "name": "usdc",
      "outputs": [
        {
          "internalType": "contract IERC20",
          "name": "",
          "type": "address"
        }
      ],
      "stateMutability": "view",
      "type": "function"
    },
    {
      "inputs": [],
      "name": "valuation",
      "outputs": [
        {
          "internalType": "contract ValuationEngine",
          "name": "",
          "type": "address"
        }
      ],
      "stateMutability": "view",
      "type": "function"
    },
    {
      "stateMutability": "payable",
      "type": "receive"
    }
  ],
  "transactionHash": "0xb8b8912fe9dff580ce70536943decfc52b84f729b9e4edbb567bc69a06d81230",
  "args": [
    "0xB45f5d411A03d113fd6dDB7ed3F6800138a52760",
    "0xA8743ABc6BCD80633171Af6AF7091Cf240e77910",
    "0x0914E18f160700d9ee70d0584F5E869e4CA2b6b6",
    "0xfB02eE04F82712A8470a24eB09a5e4410b6CEA5e",
    500,
    "0x10269d602DFCC9180927F54dE32657a572c0F432",
    "0x0628494BDafa454d56E89273bBbb01E5A64627fC",
    3000,
    9000,
    "0x39EcF94ed35451A67006dcCE4A467aecdfAB6940"
  ],
  "numDeployments": 5,
  "solcInputHash": "8fd99a41b4b52cdf9def9d140821a356",
  "bytecode": "0x6080604090808252346200034457610140816200351c803803809162000026828562000349565b83398101031262000344576200003c8162000383565b906200004b6020820162000383565b906200005984820162000383565b90620000686060820162000383565b60808201516200007b60a0840162000383565b6200008960c0850162000383565b9160e08501519562ffffff8716870362000344576101008601519561012001620000b39062000383565b97620000bf8962000398565b50620000cb8962000418565b507f55435dd261a4b9b3364963f7738a7a662ad9c84396d64be3365284bb7f0a50419960009a808c528b6020528b8d80822060010192835493600080516020620034fc83398151915294858092557fbd79b86ffe0ab8e8776151514217cd7cacd52c909f66475c3af44e129f0b00ff92838680a47f65d7a28e3265b37a6474929f336521b332c1681b933f6cb9f3376673440d862a91828452832060010192848454945580a48b516001600160a01b038b1681527f9789733827840833afc031fb2ef9ab6894271f77bad2085687cf4ae5c7bee4db90602090a16001600255620151806010556103206013556101f460155564e8d4a51000601955600380546001600160a01b03199081166001600160a01b03938416179091556004805482169383169390931790925560058054831693821693841790556006805483169782169790971790965560079290925560088054831693861693909317909255600980549091169290931691909117909155600a805462ffffff60a01b19811660a09590951b62ffffff60a01b16948517909155600b929092558551631f209df760e11b815291929190819081905a92600491602094fa9081156200033a578591620002ed575b506001600160b81b0319909216176001600160a01b0391821617600a55600c80546001600160a01b0319908116939092169283179055600d805490911690911790556096600e556011819055601255516130329081620004aa8239f35b90506020813d60201162000331575b816200030b6020938362000349565b810103126200032d57516001600160a01b03811681036200032d573862000290565b8480fd5b3d9150620002fc565b86513d87823e3d90fd5b600080fd5b601f909101601f19168101906001600160401b038211908210176200036d57604052565b634e487b7160e01b600052604160045260246000fd5b51906001600160a01b03821682036200034457565b6001600160a01b031660008181527fad3228b676f7d3cd4284a5443f17f1962b36e491b30a40b2405849e597ba5fb5602052604081205490919060ff166200041457818052816020526040822081835260205260408220600160ff198254161790553391600080516020620034dc8339815191528180a4600190565b5090565b6001600160a01b031660008181527f6f3b488caa0dc03e5f3d9fd6a25fa8755afcfd62ccffb6e436c696bfa6b866de6020526040812054909190600080516020620034fc8339815191529060ff16620004a457808352826020526040832082845260205260408320600160ff19825416179055600080516020620034dc833981519152339380a4600190565b50509056fe60806040526004361015610015575b36612e8557005b60003560e01c806301ffc9a71461057557806303eadcfc1461057057806304f6f5b21461056b578063089fe6aa146105665780630bf7187d146105615780630da7234c1461055c57806311a6f3da146105575780631352f18714610552578063138380201461054d5780631585def014610548578063159e9afb1461054357806315eaf29e1461053e57806316f0115b1461053957806319eabeb1146105345780631c6815e11461052f5780631dba554f1461052a578063202ae717146105255780632065124f1461052057806321a7cfe41461051b578063233c4cf114610516578063248a9ca31461051157806324ea54f41461050c57806324f5cc8e1461050757806327035859146105025780632c79ed65146104fd5780632d32ac78146104f85780632f2ff15d146104f357806331739bb7146104ee57806334a41177146104e957806336568abe146104e45780633a11e9c8146104df5780633a49cd87146104da5780633ddac07d146104d55780633e413bee146104d05780633f4ba83a146104cb5780634651e789146104c65780634986bd50146104c15780634d0c70ba146104bc5780634d158c64146104b75780634fbaa25e146104b25780634fc967d7146104ad57806354c37c4f146104a857806357cdf631146104a357806358a42d151461049e5780635bb49626146104995780635c975abb1461049457806369f6def71461048f5780636feb393b1461048a578063714ec77314610485578063735de9f71461048057806373bbc64d1461047b5780637460b6b2146104765780638456cb59146104715780638ab587cc1461046c57806391d148541461046757806393c0f7cb146104625780639c7ed1de1461045d5780639cbd8581146104585780639ed1a985146104535780639f4a71421461044e5780639ffb860614610449578063a05a348914610444578063a217fddf1461043f578063a59ffd361461043a578063a8fa651a14610435578063abf4fde414610430578063ad02b40d1461042b578063b4d88ca314610426578063be5edb8214610421578063c8394b1d1461041c578063c9d5d7b014610417578063ccc5749014610412578063ce63094d1461040d578063d547741f14610408578063dfd572a014610403578063e1a45218146103fe578063e1ec3c68146103f9578063e55ad1fe146103f4578063e63ab1e9146103ef578063e640b814146103ea578063e65e278d146103e5578063e6fa0ef7146103e0578063ecf4911f146103db578063ed86fc4c146103d6578063f660d058146103d15763f7e4af3e0361000e57612479565b612406565b61232e565b6122d3565b6122aa565b6121f7565b6121b5565b61218c565b61204c565b611fe2565b611fc5565b611f9c565b611f5a565b611f3c565b611f13565b611ef5565b611e9f565b611e76565b611e34565b611cc9565b611ca0565b611bf0565b611b38565b611b1c565b611af0565b611ad2565b611a5f565b611a36565b6119f7565b61196b565b611929565b6118e5565b6118b4565b61180c565b6117ee565b611742565b611719565b611674565b611524565b6114db565b611482565b611464565b6113d8565b6113af565b61138c565b6111e3565b61110a565b6110ab565b61106e565b611050565b610f88565b610efd565b610ed4565b610ea1565b610e62565b610db9565b610d6e565b610d45565b610d27565b610ce3565b610c70565b610c47565b610bd7565b610b62565b610b39565b610b0a565b610ad9565b610ab0565b610a69565b610a2c565b6109f7565b6109d9565b6109b0565b610987565b61095b565b610889565b610839565b61081b565b6107f2565b6107d4565b61076a565b6106b6565b610690565b610616565b6105dc565b346105cb5760203660031901126105cb5760043563ffffffff60e01b81168091036105cb57602090637965db0b60e01b81149081156105ba575b506040519015158152f35b6301ffc9a760e01b149050386105af565b600080fd5b6001600160a01b031690565b346105cb5760003660031901126105cb576004546040516001600160a01b039091168152602090f35b6001600160a01b038116036105cb57565b346105cb5760203660031901126105cb5760043561063381610605565b600080516020612f5d833981519152600090815260205261066e60ff61066733600080516020612f3d833981519152610a15565b5416612601565b603380546001600160a01b0319166001600160a01b0392909216919091179055005b346105cb5760003660031901126105cb57602062ffffff600a5460a01c16604051908152f35b346105cb5760203660031901126105cb576001600160401b036004358181116105cb57366023820112156105cb5780600401359182116105cb5736602483830101116105cb5761071e91602461070c9201612ce0565b60405190151581529081906020820190565b0390f35b979491926101009794919a9996936101208a019b60018060a01b03168a5260208a015260408901526060880152608087015260a086015260c085015260e08401521515910152565b346105cb5760203660031901126105cb576004356000526024602052604060002060018060a01b0381541661071e6001830154926002810154906003810154600482015460058301549060068401549260ff600860078701549601541695604051998a998a610722565b346105cb5760003660031901126105cb576020601054604051908152f35b346105cb5760003660031901126105cb57600d546040516001600160a01b039091168152602090f35b346105cb5760003660031901126105cb576020601554604051908152f35b346105cb5760003660031901126105cb5760a0601f5460205460215460ff602254169162ffffff60405194600180881b0381168652861c1660208501526040840152606083015215156080820152f35b346105cb5760008060031936011261095857600080516020612f5d8339815191528152806020526108c260ff6106673360408520610a15565b6040516108ce81612786565b601b546001600160a01b039081168252601c541660208201908152601d5460408301908152601e5460ff161580156060850152610946575142106109345761092b6109246109319361091e612b01565b516105d0565b91516105d0565b90612b17565b80f35b604051630644c30960e21b8152600490fd5b60405163061faf4960e41b8152600490fd5b80fd5b346105cb5760203660031901126105cb57600435600052602f6020526020604060002054604051908152f35b346105cb5760003660031901126105cb576005546040516001600160a01b039091168152602090f35b346105cb5760003660031901126105cb576031546040516001600160a01b039091168152602090f35b346105cb5760003660031901126105cb576020601954604051908152f35b346105cb5760003660031901126105cb576020601154604051908152f35b9060018060a01b0316600052602052604060002090565b346105cb5760203660031901126105cb57600435610a4981610605565b60018060a01b031660005260276020526020604060002054604051908152f35b346105cb5760003660031901126105cb57608060018060a01b0380601b541690601c5416601d5460ff601e5416916040519384526020840152604083015215156060820152f35b346105cb5760003660031901126105cb576003546040516001600160a01b039091168152602090f35b346105cb5760203660031901126105cb576020610b00600435610afb81610605565b612a28565b6040519015158152f35b346105cb5760203660031901126105cb5760043560005260006020526020600160406000200154604051908152f35b346105cb5760003660031901126105cb576020604051600080516020612fdd8339815191528152f35b346105cb5760203660031901126105cb57600080516020612f5d8339815191526000908152602052610ba760ff61066733600080516020612f3d833981519152610a15565b600435601955005b60409060031901126105cb57600435610bc781610605565b90602435610bd481610605565b90565b346105cb57610be536610baf565b600080516020612f5d8339815191526000908152602052610c1960ff61066733600080516020612f3d833981519152610a15565b603180546001600160a01b039384166001600160a01b03199182161790915560328054929093169116179055005b346105cb5760003660031901126105cb576032546040516001600160a01b039091168152602090f35b346105cb5760008060031936011261095857600080516020612f5d833981519152815280602052610ca960ff6106673360408520610a15565b60ff602254161561094657610cbc612aeb565b7f4a620d7f02f45fe2967e411e5b7d768e6d371579bde15e4e56a3ef3e909f52e38180a180f35b346105cb5760403660031901126105cb57610d25602435600435610d0682610605565b806000526000602052610d20600160406000200154612497565b6124d8565b005b346105cb5760003660031901126105cb576020600e54604051908152f35b346105cb5760003660031901126105cb576018546040516001600160a01b039091168152602090f35b346105cb5760403660031901126105cb57602435610d8b81610605565b336001600160a01b03821603610da757610d2590600435612551565b60405163334bd91960e11b8152600490fd5b346105cb57600080600319360112610958576040518091602a549081835260208093018092602a835284832090835b818110610e455750505084610dfe9103856127bc565b60405193838594850191818652518092526040850193925b828110610e2557505050500390f35b83516001600160a01b031685528695509381019392810192600101610e16565b82546001600160a01b031684529286019260019283019201610de8565b346105cb5760203660031901126105cb576020600435610e8181610605565b60018060a01b03809116600052602d825260406000205416604051908152f35b346105cb5760403660031901126105cb576020610ecc600435610ec381610605565b60243590612907565b604051908152f35b346105cb5760003660031901126105cb57600a546040516001600160a01b039091168152602090f35b346105cb5760008060031936011261095857600080516020612f5d833981519152815280602052610f3660ff6106673360408520610a15565b60015460ff811615610f765760ff19166001557f5db9ee0a495bf2e6ff9c91a7834c1ba4fdd244a5e8aa4e537bd38aeae4b073aa6020604051338152a180f35b604051638dfc202b60e01b8152600490fd5b346105cb5760403660031901126105cb57600435610fa581610605565b600080516020612f5d833981519152600090815260205260243590610fdd60ff61066733600080516020612f3d833981519152610a15565b6107d0821161103e57600680546001600160a01b0319166001600160a01b03909216918217905560078290556040805191825260208201929092527f4e9c2c9d7ce2ff823cab7f6f0dedfb36ea1f4e5be270f6c13ae74c65fb6c63bf9190a1005b6040516364271c5760e11b8152600490fd5b346105cb5760003660031901126105cb576020601a54604051908152f35b346105cb5760203660031901126105cb5760043561108b81610605565b60018060a01b031660005260306020526020604060002054604051908152f35b346105cb576110b936610baf565b600080516020612f5d83398151915260009081526020526110ed60ff61066733600080516020612f3d833981519152610a15565b60ff600f541661093457610d2591612b17565b801515036105cb57565b346105cb5760203660031901126105cb5760043561112781611100565b61112f6125c2565b806111386125e0565b611195575b3360005260296020526111608160406000209060ff801983541691151516179055565b60405190151581527f253de72f204a6749f6225963e42cc173fa9c82ce2826fea6b274c705cde50d5b60203392a26001600255005b61119e33612a28565b61113d576040516320c7027560e01b8152600490fd5b60609060031901126105cb576004356111cc81610605565b9060243562ffffff811681036105cb579060443590565b346105cb576111f1366111b4565b600080516020612f5d83398151915260009081526020526040929061122960ff61066733600080516020612f3d833981519152610a15565b61123c611238600f5460ff1690565b1590565b61137b576001600160a01b0382161561136a578015801561135f575b61134e577f97d1ac3b2c49afce5866f1d8ac9134b1bee3e4216c7a3e64056c49dfc9db924a936113499161128e6010544261282a565b9161131b61129a6127ee565b6112a487826127df565b62ffffff8816602082015283838201528460608201526112c76080820160019052565b60809060018060a01b03815116601f549062ffffff60a01b602084015160a01b169160018060b81b0319161717601f55604081015160205560608101516021550151151560ff801960225416911617602255565b51948594859094939262ffffff606093608084019760018060a01b0316845216602083015260408201520152565b0390a1005b8351630f4ec00b60e01b8152600490fd5b506127108111611258565b835163c1ab6dc160e01b8152600490fd5b835163410dc88360e11b8152600490fd5b346105cb5760003660031901126105cb57602060ff600f54166040519015158152f35b346105cb5760003660031901126105cb576016546040516001600160a01b039091168152602090f35b346105cb576113e636610baf565b600091600080516020612f5d83398151915283528260205261141060ff6106673360408720610a15565b6001600160a01b03908116808452602d6020526040842080546001600160a01b031916939092169283179091557f93c8882e284eaffe909acd4ace90bac610fd8fd155ce7c061691e9bb1104aa3b8380a380f35b346105cb5760003660031901126105cb576020600b54604051908152f35b346105cb5760003660031901126105cb57602060ff600154166040519015158152f35b634e487b7160e01b600052603260045260246000fd5b602a548110156114d657602a60005260206000200190600090565b6114a5565b346105cb5760203660031901126105cb57600435602a548110156105cb57602a600052600080516020612f7d83398151915201546040516001600160a01b039091168152602090f35b346105cb5760203660031901126105cb57600480356001600160401b038082116105cb57366023830112156105cb57818301359081116105cb576024820191602436918360051b0101116105cb57600091600080516020612f5d83398151915283528260205260409361159e60ff61066733888820610a15565b60088311611666576115ae612672565b835b8381106115ef5750506115e97f18673ec0024fcca08037b127576e9539689314c18d19d6ce2a4dcf625b6be18693945192839283612738565b0390a180f35b6116026115fd8286866126c7565b6126d7565b6001600160a01b03811615611656576001600160a01b03811660009081526027602052604090205415611646579061163c611641926126e1565b6126b3565b6115b0565b865163514e24c360e11b81528390fd5b865163c1ab6dc160e01b81528390fd5b8451633a4733d960e11b8152fd5b346105cb5760403660031901126105cb5760043561169181610605565b60243561169d81611100565b7f3ab90849f9a2dacdcbc3dc6f899f365f96a134438bc4477d82dfde6e231383d26020600093600080516020612f5d83398151915285528482526116e960ff6106673360408920610a15565b6001600160a01b0316808552602c825260408520805460ff191660ff86151516179055926040519015158152a280f35b346105cb5760003660031901126105cb576009546040516001600160a01b039091168152602090f35b346105cb576040806003193601126105cb576004359060243591600080516020612f5d833981519152600052600060205261178560ff6106673385600020610a15565b6107d08082116117dd5783116117cc577f1e64d5f14f768b4a50bd13bc22591b617cccb4ab12e2d0556710e0e2e44e1ee992816011558060125582519182526020820152a1005b81516364271c5760e11b8152600490fd5b82516364271c5760e11b8152600490fd5b346105cb5760203660031901126105cb576020610ecc600435612837565b346105cb5760008060031936011261095857600080516020612f9d83398151915281528060205260ff6118423360408420610a15565b541615611878576118516125c2565b600160ff1981541617600155600080516020612fbd8339815191526020604051338152a180f35b60405162461bcd60e51b815260206004820152601460248201527321b0b63632b91034b9903737ba103830bab9b2b960611b6044820152606490fd5b346105cb5760203660031901126105cb57600435600052602e602052602060ff604060002054166040519015158152f35b346105cb5760403660031901126105cb57602060ff61191d60243561190981610605565b600435600052600084526040600020610a15565b54166040519015158152f35b346105cb5760203660031901126105cb5760043561194681610605565b60018060a01b0316600052602c602052602060ff604060002054166040519015158152f35b346105cb5760203660031901126105cb57600080516020612f5d83398151915260009081526020526004356119b360ff61066733600080516020612f3d833981519152610a15565b60ff600f5416610934576107d0811161103e576020817f8e76fde0243d6229d8e39686f13195c4d6df7b7e906474fe41c9ceb84a066c3592600e55604051908152a1005b346105cb5760203660031901126105cb5760043560ff81168091036105cb576000526017602052602060018060a01b0360406000205416604051908152f35b346105cb5760003660031901126105cb576033546040516001600160a01b039091168152602090f35b346105cb5760203660031901126105cb57600435611a7c81610605565b600080516020612f5d8339815191526000908152602052611ab060ff61066733600080516020612f3d833981519152610a15565b601880546001600160a01b0319166001600160a01b0392909216919091179055005b346105cb5760003660031901126105cb576020600754604051908152f35b346105cb5760203660031901126105cb57600435600052602b6020526020604060002054604051908152f35b346105cb5760003660031901126105cb57602060405160008152f35b346105cb5760403660031901126105cb57600435611b5581611100565b600080516020612f5d833981519152600090815260205260243590611b8d60ff61066733600080516020612f3d833981519152610a15565b603c82108015611be4575b610934577f687911c7f7b365a8368a45830a19c83a06fd492822054b1e7035e987f6ac50699160409115159060ff19600f541660ff831617600f558060105582519182526020820152a1005b5062278d008211611b98565b346105cb5760403660031901126105cb57600435611c0d81610605565b600080516020612f5d833981519152600090815260205260243590611c4560ff61066733600080516020612f3d833981519152610a15565b6107d0821161103e57601480546001600160a01b0319166001600160a01b0390921691821790556015829055604051918252907f300e685101c00b0636bd3b2bed989c201190a8683a43d4d35fd8ea18b490162d90602090a2005b346105cb5760003660031901126105cb576008546040516001600160a01b039091168152602090f35b346105cb57611cd736610baf565b600080516020612f5d8339815191526000908152602052604091611d0e60ff61066733600080516020612f3d833981519152610a15565b611d1d611238600f5460ff1690565b611e23576001600160a01b038181161561136a57821615611e12576113497f647072bbcdcd9f4418ac0a9877bfa49124711cdef9da497d4d1c9619934f24ac93611d696010544261282a565b90611dea611d756127fd565b611d7f86826127df565b611d8c87602083016127df565b8383820152611d9e6060820160019052565b60609060018060a01b03808251169060018060a01b03199182601b541617601b5560208301511690601c541617601c556040810151601d550151151560ff8019601e5416911617601e55565b516001600160a01b039384168152939092166020840152604083019190915281906060820190565b825163c1ab6dc160e01b8152600490fd5b825163410dc88360e11b8152600490fd5b346105cb5760203660031901126105cb57600435611e5181610605565b60018060a01b03166000526029602052602060ff604060002054166040519015158152f35b346105cb5760003660031901126105cb57600c546040516001600160a01b039091168152602090f35b346105cb57611ead366111b4565b600080516020612f5d833981519152600090815260205290611ee260ff61066733600080516020612f3d833981519152610a15565b60ff600f541661093457610d2592612b83565b346105cb5760003660031901126105cb576020601254604051908152f35b346105cb5760003660031901126105cb576020604051600080516020612f5d8339815191528152f35b346105cb5760003660031901126105cb576020602554604051908152f35b346105cb5760403660031901126105cb57610d25602435600435611f7d82610605565b806000526000602052611f97600160406000200154612497565b612551565b346105cb5760003660031901126105cb576006546040516001600160a01b039091168152602090f35b346105cb5760003660031901126105cb5760206040516127108152f35b346105cb5760203660031901126105cb576004356000526023602052604060002060018060a01b0381541661071e6001830154926002810154906003810154600482015460058301549060068401549260ff600860078701549601541695604051998a998a610722565b346105cb5760203660031901126105cb57600435600460206120776120726003546105d0565b6105d0565b6040516339c1042560e11b815292839182905afa918215612187577fa3f0dddd628ba567d3fa78666133949bc3e3a310ec9c8cfe268e1c91a2eaa75d9261134992600091612159575b506001600160a01b031633148015612115575b6120dc90612c59565b606481101580612109575b6120f090612ca0565b6120f981601355565b6040519081529081906020820190565b506113888111156120e7565b50600080516020612f5d83398151915260009081526020526120dc61215261214b33600080516020612f3d833981519152610a15565b5460ff1690565b90506120d3565b61217a915060203d8111612180575b61217281836127bc565b810190612c44565b386120c0565b503d612168565b6128fb565b346105cb5760003660031901126105cb576020604051600080516020612f9d8339815191528152f35b346105cb5760203660031901126105cb576004356121d281610605565b60018060a01b03166000526026602052602060ff604060002054166040519015158152f35b346105cb5760008060031936011261095857600080516020612f5d83398151915281528060205261223060ff6106673360408520610a15565b60405161223c816127a1565b601f546001600160a01b038116825260a01c62ffffff16602080830191825254604083019081526021546060840190815260225460ff16158015608086015261094657514210610934576122a26122986109319461091e612aeb565b925162ffffff1690565b905191612b83565b346105cb5760003660031901126105cb576014546040516001600160a01b039091168152602090f35b346105cb5760203660031901126105cb576004356028548110156105cb5760286000527fe16da923a2d88192e5070f37b4571d58682c0d66212ec634d495f33de3f77ab501546040516001600160a01b039091168152602090f35b346105cb5760203660031901126105cb57600080516020612fdd833981519152600090815260205260043560ff612385337f8a40f0b47fdc2a0ce293b772acfc7508c8315a4d462786c1adc3a56f92ca2d05610a15565b5416156123c85780601a556019541061239a57005b6123a26125c2565b600160ff1981541617600155600080516020612fbd8339815191526020604051338152a1005b60405162461bcd60e51b815260206004820152601660248201527521b0b63632b91034b9903737ba1033bab0b93234b0b760511b6044820152606490fd5b346105cb5760008060031936011261095857600080516020612f5d83398151915281528060205261243f60ff6106673360408520610a15565b60ff601e54161561094657612452612b01565b7f0b1bd025678edba0e950e7e8f0c266baa82960a66328930d072cac4f402647088180a180f35b346105cb5760003660031901126105cb576020601354604051908152f35b80600052600060205260ff6124b0336040600020610a15565b5416156124ba5750565b6044906040519063e2517d3f60e01b82523360048301526024820152fd5b6000908082528160205260ff6124f18460408520610a15565b541661254b578082528160205261250b8360408420610a15565b805460ff1916600117905533926001600160a01b0316917f2f8788117e7eff1d82e926ec794901d17c78024a50270940304540a733656f0d9080a4600190565b50905090565b6000908082528160205260ff61256a8460408520610a15565b54161561254b57808252816020526125858360408420610a15565b805460ff1916905533926001600160a01b0316917ff6391f5c32d9c69d2a47ea670b442974b53935d1edc7fd64eb21e047a839171b9080a4600190565b60ff600154166125ce57565b60405163d93c066560e01b8152600490fd5b60028054146125ef5760028055565b604051633ee5aeb560e01b8152600490fd5b1561260857565b60405162461bcd60e51b815260206004820152601660248201527521b0b63632b91034b9903737ba1033b7bb32b93737b960511b6044820152606490fd5b634e487b7160e01b600052604160045260246000fd5b634e487b7160e01b600052601160045260246000fd5b602a54600080602a5581612684575050565b602a8152600080516020612f7d833981519152918201915b8281106126a857505050565b81815560010161269c565b60001981146126c25760010190565b61265c565b91908110156114d65760051b0190565b35610bd481610605565b602a54600160401b811015612733576001810180602a558110156114d657602a600052600080516020612f7d8339815191520180546001600160a01b0319166001600160a01b03909216919091179055565b612646565b90916040602092828482018583525201929160005b82811061275b575050505090565b909192938280600192873561276f81610605565b848060a01b0316815201950191019291909261274d565b608081019081106001600160401b0382111761273357604052565b60a081019081106001600160401b0382111761273357604052565b601f909101601f19168101906001600160401b0382119082101761273357604052565b6001600160a01b039091169052565b604051906127fb826127a1565b565b604051906127fb82612786565b6040519061012082016001600160401b0381118382101761273357604052565b919082018092116126c257565b6000526023602052604060002061284c61280a565b9061286061285a82546105d0565b836127df565b6128d4611238600183015493602081019485526128ce6101006128c56008600288015497604086019889526003810154606087015260048101546080870152600581015460a0870152600681015460c0870152600781015460e0870152015460ff1690565b15159201918252565b51151590565b6128e557610bd4915190519061282a565b5050600090565b908160209103126105cb575190565b6040513d6000823e3d90fd5b6001600160a01b039080821680156129fc5783156129ea5761292d612072600a546105d0565b928316146129e557602091926129926129476003546105d0565b600b54604051632afe486b60e11b81526001600160a01b03928316600482015294821660248601529516604484015260648301919091526084820193909352918290819060a4820190565b038173f37872Dc3fE3002EF28cE0251718a1Cf1B11486d5af4908115612187576000916129bd575090565b610bd4915060203d81116129de575b6129d681836127bc565b8101906128ec565b503d6129cc565b505090565b604051631f2a200560e01b8152600490fd5b60405163c1ab6dc160e01b8152600490fd5b6001600160a01b0391821681529116602082015260400190565b6001600160a01b03811615612ae557602a549060005b828110612a4d57505050600190565b612a74612072612072612a5f846114bb565b905460039190911b1c6001600160a01b031690565b604051636eb1769f60e11b8152602091829082908180612a98308a60048401612a0e565b03915afa91821561218757600092612ac8575b505015612ac057612abb906126b3565b612a3e565b505050600090565b612ade9250803d106129de576129d681836127bc565b3880612aab565b50600090565b6000601f55600060205560006021556000602255565b6000601b556000601c556000601d556000601e55565b6001600160a01b0380821692919083156129fc57821680156129fc577f81a577879f5afba839dc12949fdfc537e7ab528414301ccc1d723e2abcbe7d1b9360018060a01b03199081600c541617600c55600d541617600d55612b7e60405192839283612a0e565b0390a1565b6001600160a01b03811680156129fc5783158015612c39575b612c2757600980546001600160a01b031916919091179055600a805462ffffff60a01b191660a084901b62ffffff60a01b16179055600b839055604080516001600160a01b0392909216825262ffffff9092166020820152908101919091527f8b5c8d8f89d3a1faecb05d234f488196bd0a31cbd4f482bf686b2581b1e4dbe4908060608101612b7e565b604051630f4ec00b60e01b8152600490fd5b506127108411612b9c565b908160209103126105cb5751610bd481610605565b15612c6057565b60405162461bcd60e51b81526020600482015260186024820152773ab730baba3437b934bd32b21031b7b83937b1b2b9b9b7b960411b6044820152606490fd5b15612ca757565b60405162461bcd60e51b815260206004820152601160248201527072617465206f7574206f662072616e676560781b6044820152606490fd5b612ce86125c2565b612cf06125e0565b6006546001600160a01b0390612d05906105d0565b16918215612dec57612d3392602092600060405180968195829463058b23cd60e41b84523360048501612e13565b03925af190811561218757600091612dbe575b5015612dac57336000908152602660205260409020612d6c90805460ff19166001179055565b60075460405190815233907f60b66827d6b8dc4c21c455ee1239c41dffbc94e0604392a84cdea38f8f76fd5990602090a2612da76001600255565b600190565b6040516309bde33960e01b8152600490fd5b612ddf915060203d8111612de5575b612dd781836127bc565b810190612dfe565b38612d46565b503d612dcd565b6040516379e2e00360e01b8152600490fd5b908160209103126105cb5751610bd481611100565b9192606093819260018060a01b0316845260406020850152816040850152848401376000828201840152601f01601f1916010190565b15612e5057565b60405162461bcd60e51b815260206004820152600d60248201526c119858d95d081b9bdd081cd95d609a1b6044820152606490fd5b6001600160e01b03196000351662a0a73b60e61b8114908115612f2b575b8115612f1a575b8115612f09575b5015612ef657600080612ec56031546105d0565b612ed96001600160a01b0382161515612e49565b368280378136915af43d6000803e15612ef1573d6000f35b3d6000fd5b600080612f046032546105d0565b612ec5565b63861e06cf60e01b14905038612eb1565b63db88990d60e01b81149150612eaa565b634d5ad19560e11b81149150612ea356fe6f3b488caa0dc03e5f3d9fd6a25fa8755afcfd62ccffb6e436c696bfa6b866de7935bd0ae54bc31f548c14dba4d37c5c64b3f8ca900cb468fb8abd54d5894f55beced09521047d05b8960b7e7bcc1d1292cf3e4b2a6b63f48335cbde5f7545d265d7a28e3265b37a6474929f336521b332c1681b933f6cb9f3376673440d862a62e78cea01bee320cd4e420270b5ea74000d11b0c9f74754ebdbfc544b05a25855435dd261a4b9b3364963f7738a7a662ad9c84396d64be3365284bb7f0a5041a2646970667358221220cbb05c8ef851d34ee72212cbd72361c6a9cc5202df92312763dccb6815fa951264736f6c634300081400332f8788117e7eff1d82e926ec794901d17c78024a50270940304540a733656f0d7935bd0ae54bc31f548c14dba4d37c5c64b3f8ca900cb468fb8abd54d5894f55",
  "deployedBytecode": "0x60806040526004361015610015575b36612e8557005b60003560e01c806301ffc9a71461057557806303eadcfc1461057057806304f6f5b21461056b578063089fe6aa146105665780630bf7187d146105615780630da7234c1461055c57806311a6f3da146105575780631352f18714610552578063138380201461054d5780631585def014610548578063159e9afb1461054357806315eaf29e1461053e57806316f0115b1461053957806319eabeb1146105345780631c6815e11461052f5780631dba554f1461052a578063202ae717146105255780632065124f1461052057806321a7cfe41461051b578063233c4cf114610516578063248a9ca31461051157806324ea54f41461050c57806324f5cc8e1461050757806327035859146105025780632c79ed65146104fd5780632d32ac78146104f85780632f2ff15d146104f357806331739bb7146104ee57806334a41177146104e957806336568abe146104e45780633a11e9c8146104df5780633a49cd87146104da5780633ddac07d146104d55780633e413bee146104d05780633f4ba83a146104cb5780634651e789146104c65780634986bd50146104c15780634d0c70ba146104bc5780634d158c64146104b75780634fbaa25e146104b25780634fc967d7146104ad57806354c37c4f146104a857806357cdf631146104a357806358a42d151461049e5780635bb49626146104995780635c975abb1461049457806369f6def71461048f5780636feb393b1461048a578063714ec77314610485578063735de9f71461048057806373bbc64d1461047b5780637460b6b2146104765780638456cb59146104715780638ab587cc1461046c57806391d148541461046757806393c0f7cb146104625780639c7ed1de1461045d5780639cbd8581146104585780639ed1a985146104535780639f4a71421461044e5780639ffb860614610449578063a05a348914610444578063a217fddf1461043f578063a59ffd361461043a578063a8fa651a14610435578063abf4fde414610430578063ad02b40d1461042b578063b4d88ca314610426578063be5edb8214610421578063c8394b1d1461041c578063c9d5d7b014610417578063ccc5749014610412578063ce63094d1461040d578063d547741f14610408578063dfd572a014610403578063e1a45218146103fe578063e1ec3c68146103f9578063e55ad1fe146103f4578063e63ab1e9146103ef578063e640b814146103ea578063e65e278d146103e5578063e6fa0ef7146103e0578063ecf4911f146103db578063ed86fc4c146103d6578063f660d058146103d15763f7e4af3e0361000e57612479565b612406565b61232e565b6122d3565b6122aa565b6121f7565b6121b5565b61218c565b61204c565b611fe2565b611fc5565b611f9c565b611f5a565b611f3c565b611f13565b611ef5565b611e9f565b611e76565b611e34565b611cc9565b611ca0565b611bf0565b611b38565b611b1c565b611af0565b611ad2565b611a5f565b611a36565b6119f7565b61196b565b611929565b6118e5565b6118b4565b61180c565b6117ee565b611742565b611719565b611674565b611524565b6114db565b611482565b611464565b6113d8565b6113af565b61138c565b6111e3565b61110a565b6110ab565b61106e565b611050565b610f88565b610efd565b610ed4565b610ea1565b610e62565b610db9565b610d6e565b610d45565b610d27565b610ce3565b610c70565b610c47565b610bd7565b610b62565b610b39565b610b0a565b610ad9565b610ab0565b610a69565b610a2c565b6109f7565b6109d9565b6109b0565b610987565b61095b565b610889565b610839565b61081b565b6107f2565b6107d4565b61076a565b6106b6565b610690565b610616565b6105dc565b346105cb5760203660031901126105cb5760043563ffffffff60e01b81168091036105cb57602090637965db0b60e01b81149081156105ba575b506040519015158152f35b6301ffc9a760e01b149050386105af565b600080fd5b6001600160a01b031690565b346105cb5760003660031901126105cb576004546040516001600160a01b039091168152602090f35b6001600160a01b038116036105cb57565b346105cb5760203660031901126105cb5760043561063381610605565b600080516020612f5d833981519152600090815260205261066e60ff61066733600080516020612f3d833981519152610a15565b5416612601565b603380546001600160a01b0319166001600160a01b0392909216919091179055005b346105cb5760003660031901126105cb57602062ffffff600a5460a01c16604051908152f35b346105cb5760203660031901126105cb576001600160401b036004358181116105cb57366023820112156105cb5780600401359182116105cb5736602483830101116105cb5761071e91602461070c9201612ce0565b60405190151581529081906020820190565b0390f35b979491926101009794919a9996936101208a019b60018060a01b03168a5260208a015260408901526060880152608087015260a086015260c085015260e08401521515910152565b346105cb5760203660031901126105cb576004356000526024602052604060002060018060a01b0381541661071e6001830154926002810154906003810154600482015460058301549060068401549260ff600860078701549601541695604051998a998a610722565b346105cb5760003660031901126105cb576020601054604051908152f35b346105cb5760003660031901126105cb57600d546040516001600160a01b039091168152602090f35b346105cb5760003660031901126105cb576020601554604051908152f35b346105cb5760003660031901126105cb5760a0601f5460205460215460ff602254169162ffffff60405194600180881b0381168652861c1660208501526040840152606083015215156080820152f35b346105cb5760008060031936011261095857600080516020612f5d8339815191528152806020526108c260ff6106673360408520610a15565b6040516108ce81612786565b601b546001600160a01b039081168252601c541660208201908152601d5460408301908152601e5460ff161580156060850152610946575142106109345761092b6109246109319361091e612b01565b516105d0565b91516105d0565b90612b17565b80f35b604051630644c30960e21b8152600490fd5b60405163061faf4960e41b8152600490fd5b80fd5b346105cb5760203660031901126105cb57600435600052602f6020526020604060002054604051908152f35b346105cb5760003660031901126105cb576005546040516001600160a01b039091168152602090f35b346105cb5760003660031901126105cb576031546040516001600160a01b039091168152602090f35b346105cb5760003660031901126105cb576020601954604051908152f35b346105cb5760003660031901126105cb576020601154604051908152f35b9060018060a01b0316600052602052604060002090565b346105cb5760203660031901126105cb57600435610a4981610605565b60018060a01b031660005260276020526020604060002054604051908152f35b346105cb5760003660031901126105cb57608060018060a01b0380601b541690601c5416601d5460ff601e5416916040519384526020840152604083015215156060820152f35b346105cb5760003660031901126105cb576003546040516001600160a01b039091168152602090f35b346105cb5760203660031901126105cb576020610b00600435610afb81610605565b612a28565b6040519015158152f35b346105cb5760203660031901126105cb5760043560005260006020526020600160406000200154604051908152f35b346105cb5760003660031901126105cb576020604051600080516020612fdd8339815191528152f35b346105cb5760203660031901126105cb57600080516020612f5d8339815191526000908152602052610ba760ff61066733600080516020612f3d833981519152610a15565b600435601955005b60409060031901126105cb57600435610bc781610605565b90602435610bd481610605565b90565b346105cb57610be536610baf565b600080516020612f5d8339815191526000908152602052610c1960ff61066733600080516020612f3d833981519152610a15565b603180546001600160a01b039384166001600160a01b03199182161790915560328054929093169116179055005b346105cb5760003660031901126105cb576032546040516001600160a01b039091168152602090f35b346105cb5760008060031936011261095857600080516020612f5d833981519152815280602052610ca960ff6106673360408520610a15565b60ff602254161561094657610cbc612aeb565b7f4a620d7f02f45fe2967e411e5b7d768e6d371579bde15e4e56a3ef3e909f52e38180a180f35b346105cb5760403660031901126105cb57610d25602435600435610d0682610605565b806000526000602052610d20600160406000200154612497565b6124d8565b005b346105cb5760003660031901126105cb576020600e54604051908152f35b346105cb5760003660031901126105cb576018546040516001600160a01b039091168152602090f35b346105cb5760403660031901126105cb57602435610d8b81610605565b336001600160a01b03821603610da757610d2590600435612551565b60405163334bd91960e11b8152600490fd5b346105cb57600080600319360112610958576040518091602a549081835260208093018092602a835284832090835b818110610e455750505084610dfe9103856127bc565b60405193838594850191818652518092526040850193925b828110610e2557505050500390f35b83516001600160a01b031685528695509381019392810192600101610e16565b82546001600160a01b031684529286019260019283019201610de8565b346105cb5760203660031901126105cb576020600435610e8181610605565b60018060a01b03809116600052602d825260406000205416604051908152f35b346105cb5760403660031901126105cb576020610ecc600435610ec381610605565b60243590612907565b604051908152f35b346105cb5760003660031901126105cb57600a546040516001600160a01b039091168152602090f35b346105cb5760008060031936011261095857600080516020612f5d833981519152815280602052610f3660ff6106673360408520610a15565b60015460ff811615610f765760ff19166001557f5db9ee0a495bf2e6ff9c91a7834c1ba4fdd244a5e8aa4e537bd38aeae4b073aa6020604051338152a180f35b604051638dfc202b60e01b8152600490fd5b346105cb5760403660031901126105cb57600435610fa581610605565b600080516020612f5d833981519152600090815260205260243590610fdd60ff61066733600080516020612f3d833981519152610a15565b6107d0821161103e57600680546001600160a01b0319166001600160a01b03909216918217905560078290556040805191825260208201929092527f4e9c2c9d7ce2ff823cab7f6f0dedfb36ea1f4e5be270f6c13ae74c65fb6c63bf9190a1005b6040516364271c5760e11b8152600490fd5b346105cb5760003660031901126105cb576020601a54604051908152f35b346105cb5760203660031901126105cb5760043561108b81610605565b60018060a01b031660005260306020526020604060002054604051908152f35b346105cb576110b936610baf565b600080516020612f5d83398151915260009081526020526110ed60ff61066733600080516020612f3d833981519152610a15565b60ff600f541661093457610d2591612b17565b801515036105cb57565b346105cb5760203660031901126105cb5760043561112781611100565b61112f6125c2565b806111386125e0565b611195575b3360005260296020526111608160406000209060ff801983541691151516179055565b60405190151581527f253de72f204a6749f6225963e42cc173fa9c82ce2826fea6b274c705cde50d5b60203392a26001600255005b61119e33612a28565b61113d576040516320c7027560e01b8152600490fd5b60609060031901126105cb576004356111cc81610605565b9060243562ffffff811681036105cb579060443590565b346105cb576111f1366111b4565b600080516020612f5d83398151915260009081526020526040929061122960ff61066733600080516020612f3d833981519152610a15565b61123c611238600f5460ff1690565b1590565b61137b576001600160a01b0382161561136a578015801561135f575b61134e577f97d1ac3b2c49afce5866f1d8ac9134b1bee3e4216c7a3e64056c49dfc9db924a936113499161128e6010544261282a565b9161131b61129a6127ee565b6112a487826127df565b62ffffff8816602082015283838201528460608201526112c76080820160019052565b60809060018060a01b03815116601f549062ffffff60a01b602084015160a01b169160018060b81b0319161717601f55604081015160205560608101516021550151151560ff801960225416911617602255565b51948594859094939262ffffff606093608084019760018060a01b0316845216602083015260408201520152565b0390a1005b8351630f4ec00b60e01b8152600490fd5b506127108111611258565b835163c1ab6dc160e01b8152600490fd5b835163410dc88360e11b8152600490fd5b346105cb5760003660031901126105cb57602060ff600f54166040519015158152f35b346105cb5760003660031901126105cb576016546040516001600160a01b039091168152602090f35b346105cb576113e636610baf565b600091600080516020612f5d83398151915283528260205261141060ff6106673360408720610a15565b6001600160a01b03908116808452602d6020526040842080546001600160a01b031916939092169283179091557f93c8882e284eaffe909acd4ace90bac610fd8fd155ce7c061691e9bb1104aa3b8380a380f35b346105cb5760003660031901126105cb576020600b54604051908152f35b346105cb5760003660031901126105cb57602060ff600154166040519015158152f35b634e487b7160e01b600052603260045260246000fd5b602a548110156114d657602a60005260206000200190600090565b6114a5565b346105cb5760203660031901126105cb57600435602a548110156105cb57602a600052600080516020612f7d83398151915201546040516001600160a01b039091168152602090f35b346105cb5760203660031901126105cb57600480356001600160401b038082116105cb57366023830112156105cb57818301359081116105cb576024820191602436918360051b0101116105cb57600091600080516020612f5d83398151915283528260205260409361159e60ff61066733888820610a15565b60088311611666576115ae612672565b835b8381106115ef5750506115e97f18673ec0024fcca08037b127576e9539689314c18d19d6ce2a4dcf625b6be18693945192839283612738565b0390a180f35b6116026115fd8286866126c7565b6126d7565b6001600160a01b03811615611656576001600160a01b03811660009081526027602052604090205415611646579061163c611641926126e1565b6126b3565b6115b0565b865163514e24c360e11b81528390fd5b865163c1ab6dc160e01b81528390fd5b8451633a4733d960e11b8152fd5b346105cb5760403660031901126105cb5760043561169181610605565b60243561169d81611100565b7f3ab90849f9a2dacdcbc3dc6f899f365f96a134438bc4477d82dfde6e231383d26020600093600080516020612f5d83398151915285528482526116e960ff6106673360408920610a15565b6001600160a01b0316808552602c825260408520805460ff191660ff86151516179055926040519015158152a280f35b346105cb5760003660031901126105cb576009546040516001600160a01b039091168152602090f35b346105cb576040806003193601126105cb576004359060243591600080516020612f5d833981519152600052600060205261178560ff6106673385600020610a15565b6107d08082116117dd5783116117cc577f1e64d5f14f768b4a50bd13bc22591b617cccb4ab12e2d0556710e0e2e44e1ee992816011558060125582519182526020820152a1005b81516364271c5760e11b8152600490fd5b82516364271c5760e11b8152600490fd5b346105cb5760203660031901126105cb576020610ecc600435612837565b346105cb5760008060031936011261095857600080516020612f9d83398151915281528060205260ff6118423360408420610a15565b541615611878576118516125c2565b600160ff1981541617600155600080516020612fbd8339815191526020604051338152a180f35b60405162461bcd60e51b815260206004820152601460248201527321b0b63632b91034b9903737ba103830bab9b2b960611b6044820152606490fd5b346105cb5760203660031901126105cb57600435600052602e602052602060ff604060002054166040519015158152f35b346105cb5760403660031901126105cb57602060ff61191d60243561190981610605565b600435600052600084526040600020610a15565b54166040519015158152f35b346105cb5760203660031901126105cb5760043561194681610605565b60018060a01b0316600052602c602052602060ff604060002054166040519015158152f35b346105cb5760203660031901126105cb57600080516020612f5d83398151915260009081526020526004356119b360ff61066733600080516020612f3d833981519152610a15565b60ff600f5416610934576107d0811161103e576020817f8e76fde0243d6229d8e39686f13195c4d6df7b7e906474fe41c9ceb84a066c3592600e55604051908152a1005b346105cb5760203660031901126105cb5760043560ff81168091036105cb576000526017602052602060018060a01b0360406000205416604051908152f35b346105cb5760003660031901126105cb576033546040516001600160a01b039091168152602090f35b346105cb5760203660031901126105cb57600435611a7c81610605565b600080516020612f5d8339815191526000908152602052611ab060ff61066733600080516020612f3d833981519152610a15565b601880546001600160a01b0319166001600160a01b0392909216919091179055005b346105cb5760003660031901126105cb576020600754604051908152f35b346105cb5760203660031901126105cb57600435600052602b6020526020604060002054604051908152f35b346105cb5760003660031901126105cb57602060405160008152f35b346105cb5760403660031901126105cb57600435611b5581611100565b600080516020612f5d833981519152600090815260205260243590611b8d60ff61066733600080516020612f3d833981519152610a15565b603c82108015611be4575b610934577f687911c7f7b365a8368a45830a19c83a06fd492822054b1e7035e987f6ac50699160409115159060ff19600f541660ff831617600f558060105582519182526020820152a1005b5062278d008211611b98565b346105cb5760403660031901126105cb57600435611c0d81610605565b600080516020612f5d833981519152600090815260205260243590611c4560ff61066733600080516020612f3d833981519152610a15565b6107d0821161103e57601480546001600160a01b0319166001600160a01b0390921691821790556015829055604051918252907f300e685101c00b0636bd3b2bed989c201190a8683a43d4d35fd8ea18b490162d90602090a2005b346105cb5760003660031901126105cb576008546040516001600160a01b039091168152602090f35b346105cb57611cd736610baf565b600080516020612f5d8339815191526000908152602052604091611d0e60ff61066733600080516020612f3d833981519152610a15565b611d1d611238600f5460ff1690565b611e23576001600160a01b038181161561136a57821615611e12576113497f647072bbcdcd9f4418ac0a9877bfa49124711cdef9da497d4d1c9619934f24ac93611d696010544261282a565b90611dea611d756127fd565b611d7f86826127df565b611d8c87602083016127df565b8383820152611d9e6060820160019052565b60609060018060a01b03808251169060018060a01b03199182601b541617601b5560208301511690601c541617601c556040810151601d550151151560ff8019601e5416911617601e55565b516001600160a01b039384168152939092166020840152604083019190915281906060820190565b825163c1ab6dc160e01b8152600490fd5b825163410dc88360e11b8152600490fd5b346105cb5760203660031901126105cb57600435611e5181610605565b60018060a01b03166000526029602052602060ff604060002054166040519015158152f35b346105cb5760003660031901126105cb57600c546040516001600160a01b039091168152602090f35b346105cb57611ead366111b4565b600080516020612f5d833981519152600090815260205290611ee260ff61066733600080516020612f3d833981519152610a15565b60ff600f541661093457610d2592612b83565b346105cb5760003660031901126105cb576020601254604051908152f35b346105cb5760003660031901126105cb576020604051600080516020612f5d8339815191528152f35b346105cb5760003660031901126105cb576020602554604051908152f35b346105cb5760403660031901126105cb57610d25602435600435611f7d82610605565b806000526000602052611f97600160406000200154612497565b612551565b346105cb5760003660031901126105cb576006546040516001600160a01b039091168152602090f35b346105cb5760003660031901126105cb5760206040516127108152f35b346105cb5760203660031901126105cb576004356000526023602052604060002060018060a01b0381541661071e6001830154926002810154906003810154600482015460058301549060068401549260ff600860078701549601541695604051998a998a610722565b346105cb5760203660031901126105cb57600435600460206120776120726003546105d0565b6105d0565b6040516339c1042560e11b815292839182905afa918215612187577fa3f0dddd628ba567d3fa78666133949bc3e3a310ec9c8cfe268e1c91a2eaa75d9261134992600091612159575b506001600160a01b031633148015612115575b6120dc90612c59565b606481101580612109575b6120f090612ca0565b6120f981601355565b6040519081529081906020820190565b506113888111156120e7565b50600080516020612f5d83398151915260009081526020526120dc61215261214b33600080516020612f3d833981519152610a15565b5460ff1690565b90506120d3565b61217a915060203d8111612180575b61217281836127bc565b810190612c44565b386120c0565b503d612168565b6128fb565b346105cb5760003660031901126105cb576020604051600080516020612f9d8339815191528152f35b346105cb5760203660031901126105cb576004356121d281610605565b60018060a01b03166000526026602052602060ff604060002054166040519015158152f35b346105cb5760008060031936011261095857600080516020612f5d83398151915281528060205261223060ff6106673360408520610a15565b60405161223c816127a1565b601f546001600160a01b038116825260a01c62ffffff16602080830191825254604083019081526021546060840190815260225460ff16158015608086015261094657514210610934576122a26122986109319461091e612aeb565b925162ffffff1690565b905191612b83565b346105cb5760003660031901126105cb576014546040516001600160a01b039091168152602090f35b346105cb5760203660031901126105cb576004356028548110156105cb5760286000527fe16da923a2d88192e5070f37b4571d58682c0d66212ec634d495f33de3f77ab501546040516001600160a01b039091168152602090f35b346105cb5760203660031901126105cb57600080516020612fdd833981519152600090815260205260043560ff612385337f8a40f0b47fdc2a0ce293b772acfc7508c8315a4d462786c1adc3a56f92ca2d05610a15565b5416156123c85780601a556019541061239a57005b6123a26125c2565b600160ff1981541617600155600080516020612fbd8339815191526020604051338152a1005b60405162461bcd60e51b815260206004820152601660248201527521b0b63632b91034b9903737ba1033bab0b93234b0b760511b6044820152606490fd5b346105cb5760008060031936011261095857600080516020612f5d83398151915281528060205261243f60ff6106673360408520610a15565b60ff601e54161561094657612452612b01565b7f0b1bd025678edba0e950e7e8f0c266baa82960a66328930d072cac4f402647088180a180f35b346105cb5760003660031901126105cb576020601354604051908152f35b80600052600060205260ff6124b0336040600020610a15565b5416156124ba5750565b6044906040519063e2517d3f60e01b82523360048301526024820152fd5b6000908082528160205260ff6124f18460408520610a15565b541661254b578082528160205261250b8360408420610a15565b805460ff1916600117905533926001600160a01b0316917f2f8788117e7eff1d82e926ec794901d17c78024a50270940304540a733656f0d9080a4600190565b50905090565b6000908082528160205260ff61256a8460408520610a15565b54161561254b57808252816020526125858360408420610a15565b805460ff1916905533926001600160a01b0316917ff6391f5c32d9c69d2a47ea670b442974b53935d1edc7fd64eb21e047a839171b9080a4600190565b60ff600154166125ce57565b60405163d93c066560e01b8152600490fd5b60028054146125ef5760028055565b604051633ee5aeb560e01b8152600490fd5b1561260857565b60405162461bcd60e51b815260206004820152601660248201527521b0b63632b91034b9903737ba1033b7bb32b93737b960511b6044820152606490fd5b634e487b7160e01b600052604160045260246000fd5b634e487b7160e01b600052601160045260246000fd5b602a54600080602a5581612684575050565b602a8152600080516020612f7d833981519152918201915b8281106126a857505050565b81815560010161269c565b60001981146126c25760010190565b61265c565b91908110156114d65760051b0190565b35610bd481610605565b602a54600160401b811015612733576001810180602a558110156114d657602a600052600080516020612f7d8339815191520180546001600160a01b0319166001600160a01b03909216919091179055565b612646565b90916040602092828482018583525201929160005b82811061275b575050505090565b909192938280600192873561276f81610605565b848060a01b0316815201950191019291909261274d565b608081019081106001600160401b0382111761273357604052565b60a081019081106001600160401b0382111761273357604052565b601f909101601f19168101906001600160401b0382119082101761273357604052565b6001600160a01b039091169052565b604051906127fb826127a1565b565b604051906127fb82612786565b6040519061012082016001600160401b0381118382101761273357604052565b919082018092116126c257565b6000526023602052604060002061284c61280a565b9061286061285a82546105d0565b836127df565b6128d4611238600183015493602081019485526128ce6101006128c56008600288015497604086019889526003810154606087015260048101546080870152600581015460a0870152600681015460c0870152600781015460e0870152015460ff1690565b15159201918252565b51151590565b6128e557610bd4915190519061282a565b5050600090565b908160209103126105cb575190565b6040513d6000823e3d90fd5b6001600160a01b039080821680156129fc5783156129ea5761292d612072600a546105d0565b928316146129e557602091926129926129476003546105d0565b600b54604051632afe486b60e11b81526001600160a01b03928316600482015294821660248601529516604484015260648301919091526084820193909352918290819060a4820190565b038173__$20aeabecc55107f74e060689ffda366ed8$__5af4908115612187576000916129bd575090565b610bd4915060203d81116129de575b6129d681836127bc565b8101906128ec565b503d6129cc565b505090565b604051631f2a200560e01b8152600490fd5b60405163c1ab6dc160e01b8152600490fd5b6001600160a01b0391821681529116602082015260400190565b6001600160a01b03811615612ae557602a549060005b828110612a4d57505050600190565b612a74612072612072612a5f846114bb565b905460039190911b1c6001600160a01b031690565b604051636eb1769f60e11b8152602091829082908180612a98308a60048401612a0e565b03915afa91821561218757600092612ac8575b505015612ac057612abb906126b3565b612a3e565b505050600090565b612ade9250803d106129de576129d681836127bc565b3880612aab565b50600090565b6000601f55600060205560006021556000602255565b6000601b556000601c556000601d556000601e55565b6001600160a01b0380821692919083156129fc57821680156129fc577f81a577879f5afba839dc12949fdfc537e7ab528414301ccc1d723e2abcbe7d1b9360018060a01b03199081600c541617600c55600d541617600d55612b7e60405192839283612a0e565b0390a1565b6001600160a01b03811680156129fc5783158015612c39575b612c2757600980546001600160a01b031916919091179055600a805462ffffff60a01b191660a084901b62ffffff60a01b16179055600b839055604080516001600160a01b0392909216825262ffffff9092166020820152908101919091527f8b5c8d8f89d3a1faecb05d234f488196bd0a31cbd4f482bf686b2581b1e4dbe4908060608101612b7e565b604051630f4ec00b60e01b8152600490fd5b506127108411612b9c565b908160209103126105cb5751610bd481610605565b15612c6057565b60405162461bcd60e51b81526020600482015260186024820152773ab730baba3437b934bd32b21031b7b83937b1b2b9b9b7b960411b6044820152606490fd5b15612ca757565b60405162461bcd60e51b815260206004820152601160248201527072617465206f7574206f662072616e676560781b6044820152606490fd5b612ce86125c2565b612cf06125e0565b6006546001600160a01b0390612d05906105d0565b16918215612dec57612d3392602092600060405180968195829463058b23cd60e41b84523360048501612e13565b03925af190811561218757600091612dbe575b5015612dac57336000908152602660205260409020612d6c90805460ff19166001179055565b60075460405190815233907f60b66827d6b8dc4c21c455ee1239c41dffbc94e0604392a84cdea38f8f76fd5990602090a2612da76001600255565b600190565b6040516309bde33960e01b8152600490fd5b612ddf915060203d8111612de5575b612dd781836127bc565b810190612dfe565b38612d46565b503d612dcd565b6040516379e2e00360e01b8152600490fd5b908160209103126105cb5751610bd481611100565b9192606093819260018060a01b0316845260406020850152816040850152848401376000828201840152601f01601f1916010190565b15612e5057565b60405162461bcd60e51b815260206004820152600d60248201526c119858d95d081b9bdd081cd95d609a1b6044820152606490fd5b6001600160e01b03196000351662a0a73b60e61b8114908115612f2b575b8115612f1a575b8115612f09575b5015612ef657600080612ec56031546105d0565b612ed96001600160a01b0382161515612e49565b368280378136915af43d6000803e15612ef1573d6000f35b3d6000fd5b600080612f046032546105d0565b612ec5565b63861e06cf60e01b14905038612eb1565b63db88990d60e01b81149150612eaa565b634d5ad19560e11b81149150612ea356fe6f3b488caa0dc03e5f3d9fd6a25fa8755afcfd62ccffb6e436c696bfa6b866de7935bd0ae54bc31f548c14dba4d37c5c64b3f8ca900cb468fb8abd54d5894f55beced09521047d05b8960b7e7bcc1d1292cf3e4b2a6b63f48335cbde5f7545d265d7a28e3265b37a6474929f336521b332c1681b933f6cb9f3376673440d862a62e78cea01bee320cd4e420270b5ea74000d11b0c9f74754ebdbfc544b05a25855435dd261a4b9b3364963f7738a7a662ad9c84396d64be3365284bb7f0a5041a2646970667358221220cbb05c8ef851d34ee72212cbd72361c6a9cc5202df92312763dccb6815fa951264736f6c63430008140033",
  "libraries": {
    "LoanLogicLib": "0xf37872Dc3fE3002EF28cE0251718a1Cf1B11486d"
  },
  "devdoc": {
    "errors": {
      "AccessControlBadConfirmation()": [
        {
          "details": "The caller of a function is not the expected one. NOTE: Don't confuse with {AccessControlUnauthorizedAccount}."
        }
      ],
      "AccessControlUnauthorizedAccount(address,bytes32)": [
        {
          "details": "The `account` is missing a role."
        }
      ],
      "EnforcedPause()": [
        {
          "details": "The operation failed because the contract is paused."
        }
      ],
      "ExpectedPause()": [
        {
          "details": "The operation failed because the contract is not paused."
        }
      ],
      "ReentrancyGuardReentrantCall()": [
        {
          "details": "Unauthorized reentrant call."
        }
      ]
    },
    "events": {
      "Paused(address)": {
        "details": "Emitted when the pause is triggered by `account`."
      },
      "RoleAdminChanged(bytes32,bytes32,bytes32)": {
        "details": "Emitted when `newAdminRole` is set as ``role``'s admin role, replacing `previousAdminRole` `DEFAULT_ADMIN_ROLE` is the starting admin for all roles, despite {RoleAdminChanged} not being emitted to signal this."
      },
      "RoleGranted(bytes32,address,address)": {
        "details": "Emitted when `account` is granted `role`. `sender` is the account that originated the contract call. This account bears the admin role (for the granted role). Expected in cases where the role was granted using the internal {AccessControl-_grantRole}."
      },
      "RoleRevoked(bytes32,address,address)": {
        "details": "Emitted when `account` is revoked `role`. `sender` is the account that originated the contract call:   - if using `revokeRole`, it is the admin role bearer   - if using `renounceRole`, it is the role bearer (i.e. `account`)"
      },
      "Unpaused(address)": {
        "details": "Emitted when the pause is lifted by `account`."
      }
    },
    "kind": "dev",
    "methods": {
      "getRoleAdmin(bytes32)": {
        "details": "Returns the admin role that controls `role`. See {grantRole} and {revokeRole}. To change a role's admin, use {_setRoleAdmin}."
      },
      "grantRole(bytes32,address)": {
        "details": "Grants `role` to `account`. If `account` had not been already granted `role`, emits a {RoleGranted} event. Requirements: - the caller must have ``role``'s admin role. May emit a {RoleGranted} event."
      },
      "hasRole(bytes32,address)": {
        "details": "Returns `true` if `account` has been granted `role`."
      },
      "paused()": {
        "details": "Returns true if the contract is paused, and false otherwise."
      },
      "renounceRole(bytes32,address)": {
        "details": "Revokes `role` from the calling account. Roles are often managed via {grantRole} and {revokeRole}: this function's purpose is to provide a mechanism for accounts to lose their privileges if they are compromised (such as when a trusted device is misplaced). If the calling account had been revoked `role`, emits a {RoleRevoked} event. Requirements: - the caller must be `callerConfirmation`. May emit a {RoleRevoked} event."
      },
      "revokeRole(bytes32,address)": {
        "details": "Revokes `role` from `account`. If `account` had been granted `role`, emits a {RoleRevoked} event. Requirements: - the caller must have ``role``'s admin role. May emit a {RoleRevoked} event."
      },
      "setSanctionsPass(address,bool)": {
        "params": {
          "account": "The address of the borrower or vault.",
          "status": "True to pass, false to block."
        }
      },
      "supportsInterface(bytes4)": {
        "details": "Returns true if this contract implements the interface defined by `interfaceId`. See the corresponding https://eips.ethereum.org/EIPS/eip-165#how-interfaces-are-identified[ERC section] to learn more about how these ids are created. This function call must use less than 30 000 gas."
      }
    },
    "version": 1
  },
  "userdoc": {
    "kind": "user",
    "methods": {
      "setDynamicBorrowRate(uint256)": {
        "notice": "V8.0 MeTTa - Set the systemic borrow rate. Authorized for Coprocessor."
      },
      "setOriginationFeeBps(uint256)": {
        "notice": "Update the origination fee. Protected by the admin timelock when enabled to prevent fee changes from being sandwiched between tx submission and mining."
      },
      "setSanctionsPass(address,bool)": {
        "notice": "Explicitly authorize or revoke an account's compliance status."
      },
      "setTokenTreasury(address,address)": {
        "notice": "V6.0 Citadel - Set the designated Treasury address for a token to enable exclusive OTC buybacks"
      }
    },
    "version": 1
  },
  "storageLayout": {
    "storage": [
      {
        "astId": 73,
        "contract": "contracts/LoanManager.sol:LoanManager",
        "label": "_roles",
        "offset": 0,
        "slot": "0",
        "type": "t_mapping(t_bytes32,t_struct(RoleData)68_storage)"
      },
      {
        "astId": 4191,
        "contract": "contracts/LoanManager.sol:LoanManager",
        "label": "_paused",
        "offset": 0,
        "slot": "1",
        "type": "t_bool"
      },
      {
        "astId": 4301,
        "contract": "contracts/LoanManager.sol:LoanManager",
        "label": "_status",
        "offset": 0,
        "slot": "2",
        "type": "t_uint256"
      },
      {
        "astId": 16941,
        "contract": "contracts/LoanManager.sol:LoanManager",
        "label": "valuation",
        "offset": 0,
        "slot": "3",
        "type": "t_contract(ValuationEngine)22401"
      },
      {
        "astId": 16944,
        "contract": "contracts/LoanManager.sol:LoanManager",
        "label": "adapter",
        "offset": 0,
        "slot": "4",
        "type": "t_contract(VestingAdapter)23410"
      },
      {
        "astId": 16947,
        "contract": "contracts/LoanManager.sol:LoanManager",
        "label": "pool",
        "offset": 0,
        "slot": "5",
        "type": "t_contract(LendingPool)15672"
      },
      {
        "astId": 16949,
        "contract": "contracts/LoanManager.sol:LoanManager",
        "label": "identityVerifier",
        "offset": 0,
        "slot": "6",
        "type": "t_address"
      },
      {
        "astId": 16951,
        "contract": "contracts/LoanManager.sol:LoanManager",
        "label": "identityBoostBps",
        "offset": 0,
        "slot": "7",
        "type": "t_uint256"
      },
      {
        "astId": 16954,
        "contract": "contracts/LoanManager.sol:LoanManager",
        "label": "auctionFactory",
        "offset": 0,
        "slot": "8",
        "type": "t_contract(AuctionFactory)12383"
      },
      {
        "astId": 16957,
        "contract": "contracts/LoanManager.sol:LoanManager",
        "label": "uniswapRouter",
        "offset": 0,
        "slot": "9",
        "type": "t_contract(ISwapRouter)9441"
      },
      {
        "astId": 16960,
        "contract": "contracts/LoanManager.sol:LoanManager",
        "label": "usdc",
        "offset": 0,
        "slot": "10",
        "type": "t_contract(IERC20)1591"
      },
      {
        "astId": 16962,
        "contract": "contracts/LoanManager.sol:LoanManager",
        "label": "poolFee",
        "offset": 20,
        "slot": "10",
        "type": "t_uint24"
      },
      {
        "astId": 16964,
        "contract": "contracts/LoanManager.sol:LoanManager",
        "label": "liquidationSlippageBps",
        "offset": 0,
        "slot": "11",
        "type": "t_uint256"
      },
      {
        "astId": 16966,
        "contract": "contracts/LoanManager.sol:LoanManager",
        "label": "issuanceTreasury",
        "offset": 0,
        "slot": "12",
        "type": "t_address"
      },
      {
        "astId": 16968,
        "contract": "contracts/LoanManager.sol:LoanManager",
        "label": "returnsTreasury",
        "offset": 0,
        "slot": "13",
        "type": "t_address"
      },
      {
        "astId": 16970,
        "contract": "contracts/LoanManager.sol:LoanManager",
        "label": "originationFeeBps",
        "offset": 0,
        "slot": "14",
        "type": "t_uint256"
      },
      {
        "astId": 16972,
        "contract": "contracts/LoanManager.sol:LoanManager",
        "label": "adminTimelockEnabled",
        "offset": 0,
        "slot": "15",
        "type": "t_bool"
      },
      {
        "astId": 16975,
        "contract": "contracts/LoanManager.sol:LoanManager",
        "label": "adminTimelockDelay",
        "offset": 0,
        "slot": "16",
        "type": "t_uint256"
      },
      {
        "astId": 16977,
        "contract": "contracts/LoanManager.sol:LoanManager",
        "label": "autoRepayLtvBoostBps",
        "offset": 0,
        "slot": "17",
        "type": "t_uint256"
      },
      {
        "astId": 16979,
        "contract": "contracts/LoanManager.sol:LoanManager",
        "label": "autoRepayInterestDiscountBps",
        "offset": 0,
        "slot": "18",
        "type": "t_uint256"
      },
      {
        "astId": 16982,
        "contract": "contracts/LoanManager.sol:LoanManager",
        "label": "dynamicBorrowRateBps",
        "offset": 0,
        "slot": "19",
        "type": "t_uint256"
      },
      {
        "astId": 16985,
        "contract": "contracts/LoanManager.sol:LoanManager",
        "label": "insuranceVault",
        "offset": 0,
        "slot": "20",
        "type": "t_contract(InsuranceVault)12786"
      },
      {
        "astId": 16988,
        "contract": "contracts/LoanManager.sol:LoanManager",
        "label": "autoHedgeBps",
        "offset": 0,
        "slot": "21",
        "type": "t_uint256"
      },
      {
        "astId": 16991,
        "contract": "contracts/LoanManager.sol:LoanManager",
        "label": "distressedDebtBond",
        "offset": 0,
        "slot": "22",
        "type": "t_contract(DistressedDebtBond)12504"
      },
      {
        "astId": 16996,
        "contract": "contracts/LoanManager.sol:LoanManager",
        "label": "isolatedPools",
        "offset": 0,
        "slot": "23",
        "type": "t_mapping(t_uint8,t_contract(IsolatedLendingPool)13144)"
      },
      {
        "astId": 16999,
        "contract": "contracts/LoanManager.sol:LoanManager",
        "label": "loanNFT",
        "offset": 0,
        "slot": "24",
        "type": "t_contract(LoanNFT)17491"
      },
      {
        "astId": 17004,
        "contract": "contracts/LoanManager.sol:LoanManager",
        "label": "badDebtCeiling",
        "offset": 0,
        "slot": "25",
        "type": "t_uint256"
      },
      {
        "astId": 17006,
        "contract": "contracts/LoanManager.sol:LoanManager",
        "label": "totalBadDebt",
        "offset": 0,
        "slot": "26",
        "type": "t_uint256"
      },
      {
        "astId": 17029,
        "contract": "contracts/LoanManager.sol:LoanManager",
        "label": "pendingTreasuryConfig",
        "offset": 0,
        "slot": "27",
        "type": "t_struct(PendingTreasuryConfig)17015_storage"
      },
      {
        "astId": 17032,
        "contract": "contracts/LoanManager.sol:LoanManager",
        "label": "pendingLiquidationConfig",
        "offset": 0,
        "slot": "31",
        "type": "t_struct(PendingLiquidationConfig)17026_storage"
      },
      {
        "astId": 17078,
        "contract": "contracts/LoanManager.sol:LoanManager",
        "label": "loans",
        "offset": 0,
        "slot": "35",
        "type": "t_mapping(t_uint256,t_struct(Loan)17054_storage)"
      },
      {
        "astId": 17083,
        "contract": "contracts/LoanManager.sol:LoanManager",
        "label": "privateLoans",
        "offset": 0,
        "slot": "36",
        "type": "t_mapping(t_uint256,t_struct(PrivateLoan)17073_storage)"
      },
      {
        "astId": 17085,
        "contract": "contracts/LoanManager.sol:LoanManager",
        "label": "loanCount",
        "offset": 0,
        "slot": "37",
        "type": "t_uint256"
      },
      {
        "astId": 17089,
        "contract": "contracts/LoanManager.sol:LoanManager",
        "label": "identityLinked",
        "offset": 0,
        "slot": "38",
        "type": "t_mapping(t_address,t_bool)"
      },
      {
        "astId": 17093,
        "contract": "contracts/LoanManager.sol:LoanManager",
        "label": "repayTokenPriority",
        "offset": 0,
        "slot": "39",
        "type": "t_mapping(t_address,t_uint256)"
      },
      {
        "astId": 17096,
        "contract": "contracts/LoanManager.sol:LoanManager",
        "label": "repayTokens",
        "offset": 0,
        "slot": "40",
        "type": "t_array(t_address)dyn_storage"
      },
      {
        "astId": 17100,
        "contract": "contracts/LoanManager.sol:LoanManager",
        "label": "autoRepayOptIn",
        "offset": 0,
        "slot": "41",
        "type": "t_mapping(t_address,t_bool)"
      },
      {
        "astId": 17103,
        "contract": "contracts/LoanManager.sol:LoanManager",
        "label": "autoRepayRequiredTokens",
        "offset": 0,
        "slot": "42",
        "type": "t_array(t_address)dyn_storage"
      },
      {
        "astId": 17107,
        "contract": "contracts/LoanManager.sol:LoanManager",
        "label": "loanDeficits",
        "offset": 0,
        "slot": "43",
        "type": "t_mapping(t_uint256,t_uint256)"
      },
      {
        "astId": 17111,
        "contract": "contracts/LoanManager.sol:LoanManager",
        "label": "sanctionsPass",
        "offset": 0,
        "slot": "44",
        "type": "t_mapping(t_address,t_bool)"
      },
      {
        "astId": 17115,
        "contract": "contracts/LoanManager.sol:LoanManager",
        "label": "tokenTreasuries",
        "offset": 0,
        "slot": "45",
        "type": "t_mapping(t_address,t_address)"
      },
      {
        "astId": 17119,
        "contract": "contracts/LoanManager.sol:LoanManager",
        "label": "inOTCBuyback",
        "offset": 0,
        "slot": "46",
        "type": "t_mapping(t_uint256,t_bool)"
      },
      {
        "astId": 17123,
        "contract": "contracts/LoanManager.sol:LoanManager",
        "label": "otcBuybackDeadline",
        "offset": 0,
        "slot": "47",
        "type": "t_mapping(t_uint256,t_uint256)"
      },
      {
        "astId": 17127,
        "contract": "contracts/LoanManager.sol:LoanManager",
        "label": "currentGlobalExposure",
        "offset": 0,
        "slot": "48",
        "type": "t_mapping(t_address,t_uint256)"
      },
      {
        "astId": 17129,
        "contract": "contracts/LoanManager.sol:LoanManager",
        "label": "originationFacet",
        "offset": 0,
        "slot": "49",
        "type": "t_address"
      },
      {
        "astId": 17131,
        "contract": "contracts/LoanManager.sol:LoanManager",
        "label": "repaymentFacet",
        "offset": 0,
        "slot": "50",
        "type": "t_address"
      },
      {
        "astId": 16818,
        "contract": "contracts/LoanManager.sol:LoanManager",
        "label": "riskModule",
        "offset": 0,
        "slot": "51",
        "type": "t_address"
      }
    ],
    "types": {
      "t_address": {
        "encoding": "inplace",
        "label": "address",
        "numberOfBytes": "20"
      },
      "t_array(t_address)dyn_storage": {
        "base": "t_address",
        "encoding": "dynamic_array",
        "label": "address[]",
        "numberOfBytes": "32"
      },
      "t_bool": {
        "encoding": "inplace",
        "label": "bool",
        "numberOfBytes": "1"
      },
      "t_bytes32": {
        "encoding": "inplace",
        "label": "bytes32",
        "numberOfBytes": "32"
      },
      "t_contract(AuctionFactory)12383": {
        "encoding": "inplace",
        "label": "contract AuctionFactory",
        "numberOfBytes": "20"
      },
      "t_contract(DistressedDebtBond)12504": {
        "encoding": "inplace",
        "label": "contract DistressedDebtBond",
        "numberOfBytes": "20"
      },
      "t_contract(IERC20)1591": {
        "encoding": "inplace",
        "label": "contract IERC20",
        "numberOfBytes": "20"
      },
      "t_contract(ISwapRouter)9441": {
        "encoding": "inplace",
        "label": "contract ISwapRouter",
        "numberOfBytes": "20"
      },
      "t_contract(InsuranceVault)12786": {
        "encoding": "inplace",
        "label": "contract InsuranceVault",
        "numberOfBytes": "20"
      },
      "t_contract(IsolatedLendingPool)13144": {
        "encoding": "inplace",
        "label": "contract IsolatedLendingPool",
        "numberOfBytes": "20"
      },
      "t_contract(LendingPool)15672": {
        "encoding": "inplace",
        "label": "contract LendingPool",
        "numberOfBytes": "20"
      },
      "t_contract(LoanNFT)17491": {
        "encoding": "inplace",
        "label": "contract LoanNFT",
        "numberOfBytes": "20"
      },
      "t_contract(ValuationEngine)22401": {
        "encoding": "inplace",
        "label": "contract ValuationEngine",
        "numberOfBytes": "20"
      },
      "t_contract(VestingAdapter)23410": {
        "encoding": "inplace",
        "label": "contract VestingAdapter",
        "numberOfBytes": "20"
      },
      "t_mapping(t_address,t_address)": {
        "encoding": "mapping",
        "key": "t_address",
        "label": "mapping(address => address)",
        "numberOfBytes": "32",
        "value": "t_address"
      },
      "t_mapping(t_address,t_bool)": {
        "encoding": "mapping",
        "key": "t_address",
        "label": "mapping(address => bool)",
        "numberOfBytes": "32",
        "value": "t_bool"
      },
      "t_mapping(t_address,t_uint256)": {
        "encoding": "mapping",
        "key": "t_address",
        "label": "mapping(address => uint256)",
        "numberOfBytes": "32",
        "value": "t_uint256"
      },
      "t_mapping(t_bytes32,t_struct(RoleData)68_storage)": {
        "encoding": "mapping",
        "key": "t_bytes32",
        "label": "mapping(bytes32 => struct AccessControl.RoleData)",
        "numberOfBytes": "32",
        "value": "t_struct(RoleData)68_storage"
      },
      "t_mapping(t_uint256,t_bool)": {
        "encoding": "mapping",
        "key": "t_uint256",
        "label": "mapping(uint256 => bool)",
        "numberOfBytes": "32",
        "value": "t_bool"
      },
      "t_mapping(t_uint256,t_struct(Loan)17054_storage)": {
        "encoding": "mapping",
        "key": "t_uint256",
        "label": "mapping(uint256 => struct LoanManagerStorage.Loan)",
        "numberOfBytes": "32",
        "value": "t_struct(Loan)17054_storage"
      },
      "t_mapping(t_uint256,t_struct(PrivateLoan)17073_storage)": {
        "encoding": "mapping",
        "key": "t_uint256",
        "label": "mapping(uint256 => struct LoanManagerStorage.PrivateLoan)",
        "numberOfBytes": "32",
        "value": "t_struct(PrivateLoan)17073_storage"
      },
      "t_mapping(t_uint256,t_uint256)": {
        "encoding": "mapping",
        "key": "t_uint256",
        "label": "mapping(uint256 => uint256)",
        "numberOfBytes": "32",
        "value": "t_uint256"
      },
      "t_mapping(t_uint8,t_contract(IsolatedLendingPool)13144)": {
        "encoding": "mapping",
        "key": "t_uint8",
        "label": "mapping(uint8 => contract IsolatedLendingPool)",
        "numberOfBytes": "32",
        "value": "t_contract(IsolatedLendingPool)13144"
      },
      "t_struct(Loan)17054_storage": {
        "encoding": "inplace",
        "label": "struct LoanManagerStorage.Loan",
        "members": [
          {
            "astId": 17037,
            "contract": "contracts/LoanManager.sol:LoanManager",
            "label": "borrower",
            "offset": 0,
            "slot": "0",
            "type": "t_address"
          },
          {
            "astId": 17039,
            "contract": "contracts/LoanManager.sol:LoanManager",
            "label": "principal",
            "offset": 0,
            "slot": "1",
            "type": "t_uint256"
          },
          {
            "astId": 17041,
            "contract": "contracts/LoanManager.sol:LoanManager",
            "label": "interest",
            "offset": 0,
            "slot": "2",
            "type": "t_uint256"
          },
          {
            "astId": 17043,
            "contract": "contracts/LoanManager.sol:LoanManager",
            "label": "collateralId",
            "offset": 0,
            "slot": "3",
            "type": "t_uint256"
          },
          {
            "astId": 17045,
            "contract": "contracts/LoanManager.sol:LoanManager",
            "label": "collateralAmount",
            "offset": 0,
            "slot": "4",
            "type": "t_uint256"
          },
          {
            "astId": 17047,
            "contract": "contracts/LoanManager.sol:LoanManager",
            "label": "loanDuration",
            "offset": 0,
            "slot": "5",
            "type": "t_uint256"
          },
          {
            "astId": 17049,
            "contract": "contracts/LoanManager.sol:LoanManager",
            "label": "unlockTime",
            "offset": 0,
            "slot": "6",
            "type": "t_uint256"
          },
          {
            "astId": 17051,
            "contract": "contracts/LoanManager.sol:LoanManager",
            "label": "hedgeAmount",
            "offset": 0,
            "slot": "7",
            "type": "t_uint256"
          },
          {
            "astId": 17053,
            "contract": "contracts/LoanManager.sol:LoanManager",
            "label": "active",
            "offset": 0,
            "slot": "8",
            "type": "t_bool"
          }
        ],
        "numberOfBytes": "288"
      },
      "t_struct(PendingLiquidationConfig)17026_storage": {
        "encoding": "inplace",
        "label": "struct LoanManagerStorage.PendingLiquidationConfig",
        "members": [
          {
            "astId": 17017,
            "contract": "contracts/LoanManager.sol:LoanManager",
            "label": "router",
            "offset": 0,
            "slot": "0",
            "type": "t_address"
          },
          {
            "astId": 17019,
            "contract": "contracts/LoanManager.sol:LoanManager",
            "label": "poolFee",
            "offset": 20,
            "slot": "0",
            "type": "t_uint24"
          },
          {
            "astId": 17021,
            "contract": "contracts/LoanManager.sol:LoanManager",
            "label": "slippageBps",
            "offset": 0,
            "slot": "1",
            "type": "t_uint256"
          },
          {
            "astId": 17023,
            "contract": "contracts/LoanManager.sol:LoanManager",
            "label": "executeAfter",
            "offset": 0,
            "slot": "2",
            "type": "t_uint256"
          },
          {
            "astId": 17025,
            "contract": "contracts/LoanManager.sol:LoanManager",
            "label": "exists",
            "offset": 0,
            "slot": "3",
            "type": "t_bool"
          }
        ],
        "numberOfBytes": "128"
      },
      "t_struct(PendingTreasuryConfig)17015_storage": {
        "encoding": "inplace",
        "label": "struct LoanManagerStorage.PendingTreasuryConfig",
        "members": [
          {
            "astId": 17008,
            "contract": "contracts/LoanManager.sol:LoanManager",
            "label": "issuanceTreasury",
            "offset": 0,
            "slot": "0",
            "type": "t_address"
          },
          {
            "astId": 17010,
            "contract": "contracts/LoanManager.sol:LoanManager",
            "label": "returnsTreasury",
            "offset": 0,
            "slot": "1",
            "type": "t_address"
          },
          {
            "astId": 17012,
            "contract": "contracts/LoanManager.sol:LoanManager",
            "label": "executeAfter",
            "offset": 0,
            "slot": "2",
            "type": "t_uint256"
          },
          {
            "astId": 17014,
            "contract": "contracts/LoanManager.sol:LoanManager",
            "label": "exists",
            "offset": 0,
            "slot": "3",
            "type": "t_bool"
          }
        ],
        "numberOfBytes": "128"
      },
      "t_struct(PrivateLoan)17073_storage": {
        "encoding": "inplace",
        "label": "struct LoanManagerStorage.PrivateLoan",
        "members": [
          {
            "astId": 17056,
            "contract": "contracts/LoanManager.sol:LoanManager",
            "label": "vault",
            "offset": 0,
            "slot": "0",
            "type": "t_address"
          },
          {
            "astId": 17058,
            "contract": "contracts/LoanManager.sol:LoanManager",
            "label": "principal",
            "offset": 0,
            "slot": "1",
            "type": "t_uint256"
          },
          {
            "astId": 17060,
            "contract": "contracts/LoanManager.sol:LoanManager",
            "label": "interest",
            "offset": 0,
            "slot": "2",
            "type": "t_uint256"
          },
          {
            "astId": 17062,
            "contract": "contracts/LoanManager.sol:LoanManager",
            "label": "collateralId",
            "offset": 0,
            "slot": "3",
            "type": "t_uint256"
          },
          {
            "astId": 17064,
            "contract": "contracts/LoanManager.sol:LoanManager",
            "label": "collateralAmount",
            "offset": 0,
            "slot": "4",
            "type": "t_uint256"
          },
          {
            "astId": 17066,
            "contract": "contracts/LoanManager.sol:LoanManager",
            "label": "loanDuration",
            "offset": 0,
            "slot": "5",
            "type": "t_uint256"
          },
          {
            "astId": 17068,
            "contract": "contracts/LoanManager.sol:LoanManager",
            "label": "unlockTime",
            "offset": 0,
            "slot": "6",
            "type": "t_uint256"
          },
          {
            "astId": 17070,
            "contract": "contracts/LoanManager.sol:LoanManager",
            "label": "hedgeAmount",
            "offset": 0,
            "slot": "7",
            "type": "t_uint256"
          },
          {
            "astId": 17072,
            "contract": "contracts/LoanManager.sol:LoanManager",
            "label": "active",
            "offset": 0,
            "slot": "8",
            "type": "t_bool"
          }
        ],
        "numberOfBytes": "288"
      },
      "t_struct(RoleData)68_storage": {
        "encoding": "inplace",
        "label": "struct AccessControl.RoleData",
        "members": [
          {
            "astId": 65,
            "contract": "contracts/LoanManager.sol:LoanManager",
            "label": "hasRole",
            "offset": 0,
            "slot": "0",
            "type": "t_mapping(t_address,t_bool)"
          },
          {
            "astId": 67,
            "contract": "contracts/LoanManager.sol:LoanManager",
            "label": "adminRole",
            "offset": 0,
            "slot": "1",
            "type": "t_bytes32"
          }
        ],
        "numberOfBytes": "64"
      },
      "t_uint24": {
        "encoding": "inplace",
        "label": "uint24",
        "numberOfBytes": "3"
      },
      "t_uint256": {
        "encoding": "inplace",
        "label": "uint256",
        "numberOfBytes": "32"
      },
      "t_uint8": {
        "encoding": "inplace",
        "label": "uint8",
        "numberOfBytes": "1"
      }
    }
  }
}