{
  "address": "0x0B9EBB5bad8D79a92D6403dD69d5d597Efa4D802",
  "abi": [
    {
      "inputs": [
        {
          "internalType": "address",
          "name": "_valuation",
          "type": "address"
        },
        {
          "internalType": "address",
          "name": "_adapter",
          "type": "address"
        },
        {
          "internalType": "address",
          "name": "_pool",
          "type": "address"
        },
        {
          "internalType": "address",
          "name": "_identityVerifier",
          "type": "address"
        },
        {
          "internalType": "uint256",
          "name": "_identityBoostBps",
          "type": "uint256"
        },
        {
          "internalType": "address",
          "name": "_uniswapRouter",
          "type": "address"
        },
        {
          "internalType": "uint24",
          "name": "_poolFee",
          "type": "uint24"
        },
        {
          "internalType": "uint256",
          "name": "_slippageBps",
          "type": "uint256"
        }
      ],
      "stateMutability": "nonpayable",
      "type": "constructor"
    },
    {
      "inputs": [],
      "name": "EnforcedPause",
      "type": "error"
    },
    {
      "inputs": [],
      "name": "ExpectedPause",
      "type": "error"
    },
    {
      "inputs": [
        {
          "internalType": "address",
          "name": "owner",
          "type": "address"
        }
      ],
      "name": "OwnableInvalidOwner",
      "type": "error"
    },
    {
      "inputs": [
        {
          "internalType": "address",
          "name": "account",
          "type": "address"
        }
      ],
      "name": "OwnableUnauthorizedAccount",
      "type": "error"
    },
    {
      "inputs": [],
      "name": "ReentrancyGuardReentrantCall",
      "type": "error"
    },
    {
      "inputs": [
        {
          "internalType": "address",
          "name": "token",
          "type": "address"
        }
      ],
      "name": "SafeERC20FailedOperation",
      "type": "error"
    },
    {
      "anonymous": false,
      "inputs": [
        {
          "indexed": false,
          "internalType": "bool",
          "name": "enabled",
          "type": "bool"
        },
        {
          "indexed": false,
          "internalType": "uint256",
          "name": "delaySeconds",
          "type": "uint256"
        }
      ],
      "name": "AdminTimelockConfigUpdated",
      "type": "event"
    },
    {
      "anonymous": false,
      "inputs": [
        {
          "indexed": false,
          "internalType": "uint256",
          "name": "ltvBoostBps",
          "type": "uint256"
        },
        {
          "indexed": false,
          "internalType": "uint256",
          "name": "interestDiscountBps",
          "type": "uint256"
        }
      ],
      "name": "AutoRepayConfigUpdated",
      "type": "event"
    },
    {
      "anonymous": false,
      "inputs": [
        {
          "indexed": true,
          "internalType": "address",
          "name": "borrower",
          "type": "address"
        },
        {
          "indexed": false,
          "internalType": "bool",
          "name": "enabled",
          "type": "bool"
        }
      ],
      "name": "AutoRepayOptInUpdated",
      "type": "event"
    },
    {
      "anonymous": false,
      "inputs": [
        {
          "indexed": false,
          "internalType": "address[]",
          "name": "tokens",
          "type": "address[]"
        }
      ],
      "name": "AutoRepayRequiredTokensUpdated",
      "type": "event"
    },
    {
      "anonymous": false,
      "inputs": [
        {
          "indexed": true,
          "internalType": "uint256",
          "name": "loanId",
          "type": "uint256"
        },
        {
          "indexed": true,
          "internalType": "address",
          "name": "token",
          "type": "address"
        },
        {
          "indexed": false,
          "internalType": "uint256",
          "name": "seizedAmount",
          "type": "uint256"
        },
        {
          "indexed": false,
          "internalType": "uint256",
          "name": "usdcReceived",
          "type": "uint256"
        }
      ],
      "name": "CollateralLiquidated",
      "type": "event"
    },
    {
      "anonymous": false,
      "inputs": [
        {
          "indexed": false,
          "internalType": "address",
          "name": "verifier",
          "type": "address"
        },
        {
          "indexed": false,
          "internalType": "uint256",
          "name": "boostBps",
          "type": "uint256"
        }
      ],
      "name": "IdentityConfigUpdated",
      "type": "event"
    },
    {
      "anonymous": false,
      "inputs": [
        {
          "indexed": true,
          "internalType": "address",
          "name": "borrower",
          "type": "address"
        },
        {
          "indexed": false,
          "internalType": "uint256",
          "name": "boostBps",
          "type": "uint256"
        }
      ],
      "name": "IdentityLinked",
      "type": "event"
    },
    {
      "anonymous": false,
      "inputs": [],
      "name": "LiquidationConfigCancelled",
      "type": "event"
    },
    {
      "anonymous": false,
      "inputs": [
        {
          "indexed": false,
          "internalType": "address",
          "name": "router",
          "type": "address"
        },
        {
          "indexed": false,
          "internalType": "uint24",
          "name": "poolFee",
          "type": "uint24"
        },
        {
          "indexed": false,
          "internalType": "uint256",
          "name": "slippageBps",
          "type": "uint256"
        },
        {
          "indexed": false,
          "internalType": "uint256",
          "name": "executeAfter",
          "type": "uint256"
        }
      ],
      "name": "LiquidationConfigQueued",
      "type": "event"
    },
    {
      "anonymous": false,
      "inputs": [
        {
          "indexed": false,
          "internalType": "address",
          "name": "router",
          "type": "address"
        },
        {
          "indexed": false,
          "internalType": "uint24",
          "name": "poolFee",
          "type": "uint24"
        },
        {
          "indexed": false,
          "internalType": "uint256",
          "name": "slippageBps",
          "type": "uint256"
        }
      ],
      "name": "LiquidationConfigUpdated",
      "type": "event"
    },
    {
      "anonymous": false,
      "inputs": [
        {
          "indexed": true,
          "internalType": "uint256",
          "name": "loanId",
          "type": "uint256"
        },
        {
          "indexed": true,
          "internalType": "address",
          "name": "borrower",
          "type": "address"
        },
        {
          "indexed": false,
          "internalType": "uint256",
          "name": "amount",
          "type": "uint256"
        }
      ],
      "name": "LoanCreated",
      "type": "event"
    },
    {
      "anonymous": false,
      "inputs": [
        {
          "indexed": true,
          "internalType": "uint256",
          "name": "loanId",
          "type": "uint256"
        },
        {
          "indexed": false,
          "internalType": "uint256",
          "name": "amount",
          "type": "uint256"
        }
      ],
      "name": "LoanRepaid",
      "type": "event"
    },
    {
      "anonymous": false,
      "inputs": [
        {
          "indexed": true,
          "internalType": "uint256",
          "name": "loanId",
          "type": "uint256"
        },
        {
          "indexed": true,
          "internalType": "address",
          "name": "tokenIn",
          "type": "address"
        },
        {
          "indexed": false,
          "internalType": "uint256",
          "name": "amountIn",
          "type": "uint256"
        },
        {
          "indexed": false,
          "internalType": "uint256",
          "name": "usdcReceived",
          "type": "uint256"
        }
      ],
      "name": "LoanRepaidWithSwap",
      "type": "event"
    },
    {
      "anonymous": false,
      "inputs": [
        {
          "indexed": true,
          "internalType": "uint256",
          "name": "loanId",
          "type": "uint256"
        },
        {
          "indexed": false,
          "internalType": "bool",
          "name": "defaulted",
          "type": "bool"
        }
      ],
      "name": "LoanSettled",
      "type": "event"
    },
    {
      "anonymous": false,
      "inputs": [
        {
          "indexed": false,
          "internalType": "uint256",
          "name": "originationFeeBps",
          "type": "uint256"
        }
      ],
      "name": "OriginationFeeUpdated",
      "type": "event"
    },
    {
      "anonymous": false,
      "inputs": [
        {
          "indexed": true,
          "internalType": "address",
          "name": "previousOwner",
          "type": "address"
        },
        {
          "indexed": true,
          "internalType": "address",
          "name": "newOwner",
          "type": "address"
        }
      ],
      "name": "OwnershipTransferred",
      "type": "event"
    },
    {
      "anonymous": false,
      "inputs": [
        {
          "indexed": false,
          "internalType": "address",
          "name": "account",
          "type": "address"
        }
      ],
      "name": "Paused",
      "type": "event"
    },
    {
      "anonymous": false,
      "inputs": [
        {
          "indexed": true,
          "internalType": "uint256",
          "name": "loanId",
          "type": "uint256"
        },
        {
          "indexed": true,
          "internalType": "address",
          "name": "vault",
          "type": "address"
        },
        {
          "indexed": false,
          "internalType": "uint256",
          "name": "amount",
          "type": "uint256"
        }
      ],
      "name": "PrivateLoanCreated",
      "type": "event"
    },
    {
      "anonymous": false,
      "inputs": [
        {
          "indexed": true,
          "internalType": "uint256",
          "name": "loanId",
          "type": "uint256"
        },
        {
          "indexed": false,
          "internalType": "uint256",
          "name": "amount",
          "type": "uint256"
        }
      ],
      "name": "PrivateLoanRepaid",
      "type": "event"
    },
    {
      "anonymous": false,
      "inputs": [
        {
          "indexed": true,
          "internalType": "uint256",
          "name": "loanId",
          "type": "uint256"
        },
        {
          "indexed": false,
          "internalType": "bool",
          "name": "defaulted",
          "type": "bool"
        }
      ],
      "name": "PrivateLoanSettled",
      "type": "event"
    },
    {
      "anonymous": false,
      "inputs": [
        {
          "indexed": false,
          "internalType": "address[]",
          "name": "tokens",
          "type": "address[]"
        }
      ],
      "name": "RepayTokenPriorityUpdated",
      "type": "event"
    },
    {
      "anonymous": false,
      "inputs": [],
      "name": "TreasuryConfigCancelled",
      "type": "event"
    },
    {
      "anonymous": false,
      "inputs": [
        {
          "indexed": false,
          "internalType": "address",
          "name": "issuanceTreasury",
          "type": "address"
        },
        {
          "indexed": false,
          "internalType": "address",
          "name": "returnsTreasury",
          "type": "address"
        },
        {
          "indexed": false,
          "internalType": "uint256",
          "name": "executeAfter",
          "type": "uint256"
        }
      ],
      "name": "TreasuryConfigQueued",
      "type": "event"
    },
    {
      "anonymous": false,
      "inputs": [
        {
          "indexed": false,
          "internalType": "address",
          "name": "issuanceTreasury",
          "type": "address"
        },
        {
          "indexed": false,
          "internalType": "address",
          "name": "returnsTreasury",
          "type": "address"
        }
      ],
      "name": "TreasuryConfigUpdated",
      "type": "event"
    },
    {
      "anonymous": false,
      "inputs": [
        {
          "indexed": false,
          "internalType": "address",
          "name": "account",
          "type": "address"
        }
      ],
      "name": "Unpaused",
      "type": "event"
    },
    {
      "inputs": [],
      "name": "BPS_DENOMINATOR",
      "outputs": [
        {
          "internalType": "uint256",
          "name": "",
          "type": "uint256"
        }
      ],
      "stateMutability": "view",
      "type": "function"
    },
    {
      "inputs": [],
      "name": "adapter",
      "outputs": [
        {
          "internalType": "contract VestingAdapter",
          "name": "",
          "type": "address"
        }
      ],
      "stateMutability": "view",
      "type": "function"
    },
    {
      "inputs": [],
      "name": "adminTimelockDelay",
      "outputs": [
        {
          "internalType": "uint256",
          "name": "",
          "type": "uint256"
        }
      ],
      "stateMutability": "view",
      "type": "function"
    },
    {
      "inputs": [],
      "name": "adminTimelockEnabled",
      "outputs": [
        {
          "internalType": "bool",
          "name": "",
          "type": "bool"
        }
      ],
      "stateMutability": "view",
      "type": "function"
    },
    {
      "inputs": [],
      "name": "autoRepayInterestDiscountBps",
      "outputs": [
        {
          "internalType": "uint256",
          "name": "",
          "type": "uint256"
        }
      ],
      "stateMutability": "view",
      "type": "function"
    },
    {
      "inputs": [],
      "name": "autoRepayLtvBoostBps",
      "outputs": [
        {
          "internalType": "uint256",
          "name": "",
          "type": "uint256"
        }
      ],
      "stateMutability": "view",
      "type": "function"
    },
    {
      "inputs": [
        {
          "internalType": "address",
          "name": "",
          "type": "address"
        }
      ],
      "name": "autoRepayOptIn",
      "outputs": [
        {
          "internalType": "bool",
          "name": "",
          "type": "bool"
        }
      ],
      "stateMutability": "view",
      "type": "function"
    },
    {
      "inputs": [
        {
          "internalType": "uint256",
          "name": "",
          "type": "uint256"
        }
      ],
      "name": "autoRepayRequiredTokens",
      "outputs": [
        {
          "internalType": "address",
          "name": "",
          "type": "address"
        }
      ],
      "stateMutability": "view",
      "type": "function"
    },
    {
      "inputs": [],
      "name": "cancelQueuedLiquidationConfig",
      "outputs": [],
      "stateMutability": "nonpayable",
      "type": "function"
    },
    {
      "inputs": [],
      "name": "cancelQueuedTreasuries",
      "outputs": [],
      "stateMutability": "nonpayable",
      "type": "function"
    },
    {
      "inputs": [
        {
          "internalType": "uint256",
          "name": "collateralId",
          "type": "uint256"
        },
        {
          "internalType": "address",
          "name": "vestingContract",
          "type": "address"
        },
        {
          "internalType": "uint256",
          "name": "borrowAmount",
          "type": "uint256"
        }
      ],
      "name": "createLoan",
      "outputs": [],
      "stateMutability": "nonpayable",
      "type": "function"
    },
    {
      "inputs": [
        {
          "internalType": "uint256",
          "name": "collateralId",
          "type": "uint256"
        },
        {
          "internalType": "address",
          "name": "vestingContract",
          "type": "address"
        },
        {
          "internalType": "uint256",
          "name": "borrowAmount",
          "type": "uint256"
        },
        {
          "internalType": "uint256",
          "name": "collateralAmount",
          "type": "uint256"
        }
      ],
      "name": "createLoanWithCollateralAmount",
      "outputs": [],
      "stateMutability": "nonpayable",
      "type": "function"
    },
    {
      "inputs": [
        {
          "internalType": "uint256",
          "name": "collateralId",
          "type": "uint256"
        },
        {
          "internalType": "address",
          "name": "vestingContract",
          "type": "address"
        },
        {
          "internalType": "uint256",
          "name": "borrowAmount",
          "type": "uint256"
        }
      ],
      "name": "createPrivateLoan",
      "outputs": [],
      "stateMutability": "nonpayable",
      "type": "function"
    },
    {
      "inputs": [
        {
          "internalType": "uint256",
          "name": "collateralId",
          "type": "uint256"
        },
        {
          "internalType": "address",
          "name": "vestingContract",
          "type": "address"
        },
        {
          "internalType": "uint256",
          "name": "borrowAmount",
          "type": "uint256"
        },
        {
          "internalType": "uint256",
          "name": "collateralAmount",
          "type": "uint256"
        }
      ],
      "name": "createPrivateLoanWithCollateralAmount",
      "outputs": [],
      "stateMutability": "nonpayable",
      "type": "function"
    },
    {
      "inputs": [],
      "name": "executeQueuedLiquidationConfig",
      "outputs": [],
      "stateMutability": "nonpayable",
      "type": "function"
    },
    {
      "inputs": [],
      "name": "executeQueuedTreasuries",
      "outputs": [],
      "stateMutability": "nonpayable",
      "type": "function"
    },
    {
      "inputs": [],
      "name": "getAutoRepayRequiredTokens",
      "outputs": [
        {
          "internalType": "address[]",
          "name": "",
          "type": "address[]"
        }
      ],
      "stateMutability": "view",
      "type": "function"
    },
    {
      "inputs": [
        {
          "internalType": "uint256",
          "name": "loanId",
          "type": "uint256"
        }
      ],
      "name": "getRemainingDebt",
      "outputs": [
        {
          "internalType": "uint256",
          "name": "",
          "type": "uint256"
        }
      ],
      "stateMutability": "view",
      "type": "function"
    },
    {
      "inputs": [],
      "name": "getRepayTokenPriority",
      "outputs": [
        {
          "internalType": "address[]",
          "name": "",
          "type": "address[]"
        }
      ],
      "stateMutability": "view",
      "type": "function"
    },
    {
      "inputs": [
        {
          "internalType": "address",
          "name": "borrower",
          "type": "address"
        }
      ],
      "name": "hasAutoRepayPermissions",
      "outputs": [
        {
          "internalType": "bool",
          "name": "",
          "type": "bool"
        }
      ],
      "stateMutability": "view",
      "type": "function"
    },
    {
      "inputs": [],
      "name": "identityBoostBps",
      "outputs": [
        {
          "internalType": "uint256",
          "name": "",
          "type": "uint256"
        }
      ],
      "stateMutability": "view",
      "type": "function"
    },
    {
      "inputs": [
        {
          "internalType": "address",
          "name": "",
          "type": "address"
        }
      ],
      "name": "identityLinked",
      "outputs": [
        {
          "internalType": "bool",
          "name": "",
          "type": "bool"
        }
      ],
      "stateMutability": "view",
      "type": "function"
    },
    {
      "inputs": [],
      "name": "identityVerifier",
      "outputs": [
        {
          "internalType": "address",
          "name": "",
          "type": "address"
        }
      ],
      "stateMutability": "view",
      "type": "function"
    },
    {
      "inputs": [
        {
          "internalType": "uint256",
          "name": "loanId",
          "type": "uint256"
        }
      ],
      "name": "isPrivateLoan",
      "outputs": [
        {
          "internalType": "bool",
          "name": "",
          "type": "bool"
        }
      ],
      "stateMutability": "view",
      "type": "function"
    },
    {
      "inputs": [],
      "name": "issuanceTreasury",
      "outputs": [
        {
          "internalType": "address",
          "name": "",
          "type": "address"
        }
      ],
      "stateMutability": "view",
      "type": "function"
    },
    {
      "inputs": [
        {
          "internalType": "bytes",
          "name": "proof",
          "type": "bytes"
        }
      ],
      "name": "linkIdentity",
      "outputs": [
        {
          "internalType": "bool",
          "name": "",
          "type": "bool"
        }
      ],
      "stateMutability": "nonpayable",
      "type": "function"
    },
    {
      "inputs": [],
      "name": "liquidationSlippageBps",
      "outputs": [
        {
          "internalType": "uint256",
          "name": "",
          "type": "uint256"
        }
      ],
      "stateMutability": "view",
      "type": "function"
    },
    {
      "inputs": [],
      "name": "loanCount",
      "outputs": [
        {
          "internalType": "uint256",
          "name": "",
          "type": "uint256"
        }
      ],
      "stateMutability": "view",
      "type": "function"
    },
    {
      "inputs": [
        {
          "internalType": "uint256",
          "name": "",
          "type": "uint256"
        }
      ],
      "name": "loans",
      "outputs": [
        {
          "internalType": "address",
          "name": "borrower",
          "type": "address"
        },
        {
          "internalType": "uint256",
          "name": "principal",
          "type": "uint256"
        },
        {
          "internalType": "uint256",
          "name": "interest",
          "type": "uint256"
        },
        {
          "internalType": "uint256",
          "name": "collateralId",
          "type": "uint256"
        },
        {
          "internalType": "uint256",
          "name": "collateralAmount",
          "type": "uint256"
        },
        {
          "internalType": "uint256",
          "name": "unlockTime",
          "type": "uint256"
        },
        {
          "internalType": "bool",
          "name": "active",
          "type": "bool"
        }
      ],
      "stateMutability": "view",
      "type": "function"
    },
    {
      "inputs": [],
      "name": "originationFeeBps",
      "outputs": [
        {
          "internalType": "uint256",
          "name": "",
          "type": "uint256"
        }
      ],
      "stateMutability": "view",
      "type": "function"
    },
    {
      "inputs": [],
      "name": "owner",
      "outputs": [
        {
          "internalType": "address",
          "name": "",
          "type": "address"
        }
      ],
      "stateMutability": "view",
      "type": "function"
    },
    {
      "inputs": [],
      "name": "pause",
      "outputs": [],
      "stateMutability": "nonpayable",
      "type": "function"
    },
    {
      "inputs": [],
      "name": "paused",
      "outputs": [
        {
          "internalType": "bool",
          "name": "",
          "type": "bool"
        }
      ],
      "stateMutability": "view",
      "type": "function"
    },
    {
      "inputs": [],
      "name": "pendingLiquidationConfig",
      "outputs": [
        {
          "internalType": "address",
          "name": "router",
          "type": "address"
        },
        {
          "internalType": "uint24",
          "name": "poolFee",
          "type": "uint24"
        },
        {
          "internalType": "uint256",
          "name": "slippageBps",
          "type": "uint256"
        },
        {
          "internalType": "uint256",
          "name": "executeAfter",
          "type": "uint256"
        },
        {
          "internalType": "bool",
          "name": "exists",
          "type": "bool"
        }
      ],
      "stateMutability": "view",
      "type": "function"
    },
    {
      "inputs": [],
      "name": "pendingTreasuryConfig",
      "outputs": [
        {
          "internalType": "address",
          "name": "issuanceTreasury",
          "type": "address"
        },
        {
          "internalType": "address",
          "name": "returnsTreasury",
          "type": "address"
        },
        {
          "internalType": "uint256",
          "name": "executeAfter",
          "type": "uint256"
        },
        {
          "internalType": "bool",
          "name": "exists",
          "type": "bool"
        }
      ],
      "stateMutability": "view",
      "type": "function"
    },
    {
      "inputs": [],
      "name": "pool",
      "outputs": [
        {
          "internalType": "contract LendingPool",
          "name": "",
          "type": "address"
        }
      ],
      "stateMutability": "view",
      "type": "function"
    },
    {
      "inputs": [],
      "name": "poolFee",
      "outputs": [
        {
          "internalType": "uint24",
          "name": "",
          "type": "uint24"
        }
      ],
      "stateMutability": "view",
      "type": "function"
    },
    {
      "inputs": [
        {
          "internalType": "uint256",
          "name": "",
          "type": "uint256"
        }
      ],
      "name": "privateLoans",
      "outputs": [
        {
          "internalType": "address",
          "name": "vault",
          "type": "address"
        },
        {
          "internalType": "uint256",
          "name": "principal",
          "type": "uint256"
        },
        {
          "internalType": "uint256",
          "name": "interest",
          "type": "uint256"
        },
        {
          "internalType": "uint256",
          "name": "collateralId",
          "type": "uint256"
        },
        {
          "internalType": "uint256",
          "name": "collateralAmount",
          "type": "uint256"
        },
        {
          "internalType": "uint256",
          "name": "unlockTime",
          "type": "uint256"
        },
        {
          "internalType": "bool",
          "name": "active",
          "type": "bool"
        }
      ],
      "stateMutability": "view",
      "type": "function"
    },
    {
      "inputs": [
        {
          "internalType": "address",
          "name": "router",
          "type": "address"
        },
        {
          "internalType": "uint24",
          "name": "newPoolFee",
          "type": "uint24"
        },
        {
          "internalType": "uint256",
          "name": "slippageBps",
          "type": "uint256"
        }
      ],
      "name": "queueLiquidationConfig",
      "outputs": [],
      "stateMutability": "nonpayable",
      "type": "function"
    },
    {
      "inputs": [
        {
          "internalType": "address",
          "name": "issuance",
          "type": "address"
        },
        {
          "internalType": "address",
          "name": "returnsAddr",
          "type": "address"
        }
      ],
      "name": "queueTreasuries",
      "outputs": [],
      "stateMutability": "nonpayable",
      "type": "function"
    },
    {
      "inputs": [
        {
          "internalType": "address",
          "name": "tokenIn",
          "type": "address"
        },
        {
          "internalType": "uint256",
          "name": "amountIn",
          "type": "uint256"
        }
      ],
      "name": "quoteMinUsdcOut",
      "outputs": [
        {
          "internalType": "uint256",
          "name": "",
          "type": "uint256"
        }
      ],
      "stateMutability": "view",
      "type": "function"
    },
    {
      "inputs": [],
      "name": "renounceOwnership",
      "outputs": [],
      "stateMutability": "nonpayable",
      "type": "function"
    },
    {
      "inputs": [
        {
          "internalType": "uint256",
          "name": "loanId",
          "type": "uint256"
        },
        {
          "internalType": "uint256",
          "name": "amount",
          "type": "uint256"
        }
      ],
      "name": "repayLoan",
      "outputs": [],
      "stateMutability": "nonpayable",
      "type": "function"
    },
    {
      "inputs": [
        {
          "internalType": "uint256",
          "name": "loanId",
          "type": "uint256"
        },
        {
          "internalType": "uint256",
          "name": "amount",
          "type": "uint256"
        }
      ],
      "name": "repayLoanFor",
      "outputs": [],
      "stateMutability": "nonpayable",
      "type": "function"
    },
    {
      "inputs": [
        {
          "internalType": "uint256",
          "name": "loanId",
          "type": "uint256"
        },
        {
          "internalType": "uint256",
          "name": "amount",
          "type": "uint256"
        }
      ],
      "name": "repayPrivateLoan",
      "outputs": [],
      "stateMutability": "nonpayable",
      "type": "function"
    },
    {
      "inputs": [
        {
          "internalType": "address",
          "name": "",
          "type": "address"
        }
      ],
      "name": "repayTokenPriority",
      "outputs": [
        {
          "internalType": "uint256",
          "name": "",
          "type": "uint256"
        }
      ],
      "stateMutability": "view",
      "type": "function"
    },
    {
      "inputs": [
        {
          "internalType": "uint256",
          "name": "",
          "type": "uint256"
        }
      ],
      "name": "repayTokens",
      "outputs": [
        {
          "internalType": "address",
          "name": "",
          "type": "address"
        }
      ],
      "stateMutability": "view",
      "type": "function"
    },
    {
      "inputs": [
        {
          "internalType": "uint256",
          "name": "loanId",
          "type": "uint256"
        },
        {
          "internalType": "address",
          "name": "tokenIn",
          "type": "address"
        },
        {
          "internalType": "uint256",
          "name": "amountIn",
          "type": "uint256"
        },
        {
          "internalType": "uint256",
          "name": "minUsdcOut",
          "type": "uint256"
        }
      ],
      "name": "repayWithSwap",
      "outputs": [],
      "stateMutability": "nonpayable",
      "type": "function"
    },
    {
      "inputs": [
        {
          "internalType": "uint256",
          "name": "loanId",
          "type": "uint256"
        },
        {
          "internalType": "address[]",
          "name": "tokens",
          "type": "address[]"
        },
        {
          "internalType": "uint256[]",
          "name": "amounts",
          "type": "uint256[]"
        },
        {
          "internalType": "uint256[]",
          "name": "minUsdcOut",
          "type": "uint256[]"
        }
      ],
      "name": "repayWithSwapBatch",
      "outputs": [],
      "stateMutability": "nonpayable",
      "type": "function"
    },
    {
      "inputs": [
        {
          "internalType": "uint256",
          "name": "loanId",
          "type": "uint256"
        },
        {
          "internalType": "address[]",
          "name": "tokens",
          "type": "address[]"
        },
        {
          "internalType": "uint256[]",
          "name": "amounts",
          "type": "uint256[]"
        },
        {
          "internalType": "uint256[]",
          "name": "minUsdcOut",
          "type": "uint256[]"
        }
      ],
      "name": "repayWithSwapBatchFor",
      "outputs": [],
      "stateMutability": "nonpayable",
      "type": "function"
    },
    {
      "inputs": [
        {
          "internalType": "uint256",
          "name": "loanId",
          "type": "uint256"
        },
        {
          "internalType": "address",
          "name": "tokenIn",
          "type": "address"
        },
        {
          "internalType": "uint256",
          "name": "amountIn",
          "type": "uint256"
        },
        {
          "internalType": "uint256",
          "name": "minUsdcOut",
          "type": "uint256"
        }
      ],
      "name": "repayWithSwapFor",
      "outputs": [],
      "stateMutability": "nonpayable",
      "type": "function"
    },
    {
      "inputs": [],
      "name": "returnsTreasury",
      "outputs": [
        {
          "internalType": "address",
          "name": "",
          "type": "address"
        }
      ],
      "stateMutability": "view",
      "type": "function"
    },
    {
      "inputs": [
        {
          "internalType": "bool",
          "name": "enabled",
          "type": "bool"
        },
        {
          "internalType": "uint256",
          "name": "delaySeconds",
          "type": "uint256"
        }
      ],
      "name": "setAdminTimelockConfig",
      "outputs": [],
      "stateMutability": "nonpayable",
      "type": "function"
    },
    {
      "inputs": [
        {
          "internalType": "uint256",
          "name": "ltvBoostBps",
          "type": "uint256"
        },
        {
          "internalType": "uint256",
          "name": "interestDiscountBps",
          "type": "uint256"
        }
      ],
      "name": "setAutoRepayConfig",
      "outputs": [],
      "stateMutability": "nonpayable",
      "type": "function"
    },
    {
      "inputs": [
        {
          "internalType": "bool",
          "name": "enabled",
          "type": "bool"
        }
      ],
      "name": "setAutoRepayOptIn",
      "outputs": [],
      "stateMutability": "nonpayable",
      "type": "function"
    },
    {
      "inputs": [
        {
          "internalType": "address[]",
          "name": "tokens",
          "type": "address[]"
        }
      ],
      "name": "setAutoRepayRequiredTokens",
      "outputs": [],
      "stateMutability": "nonpayable",
      "type": "function"
    },
    {
      "inputs": [
        {
          "internalType": "address",
          "name": "verifier",
          "type": "address"
        },
        {
          "internalType": "uint256",
          "name": "boostBps",
          "type": "uint256"
        }
      ],
      "name": "setIdentityConfig",
      "outputs": [],
      "stateMutability": "nonpayable",
      "type": "function"
    },
    {
      "inputs": [
        {
          "internalType": "address",
          "name": "router",
          "type": "address"
        },
        {
          "internalType": "uint24",
          "name": "newPoolFee",
          "type": "uint24"
        },
        {
          "internalType": "uint256",
          "name": "slippageBps",
          "type": "uint256"
        }
      ],
      "name": "setLiquidationConfig",
      "outputs": [],
      "stateMutability": "nonpayable",
      "type": "function"
    },
    {
      "inputs": [
        {
          "internalType": "uint256",
          "name": "feeBps",
          "type": "uint256"
        }
      ],
      "name": "setOriginationFeeBps",
      "outputs": [],
      "stateMutability": "nonpayable",
      "type": "function"
    },
    {
      "inputs": [
        {
          "internalType": "address[]",
          "name": "tokens",
          "type": "address[]"
        }
      ],
      "name": "setRepayTokenPriority",
      "outputs": [],
      "stateMutability": "nonpayable",
      "type": "function"
    },
    {
      "inputs": [
        {
          "internalType": "address",
          "name": "issuance",
          "type": "address"
        },
        {
          "internalType": "address",
          "name": "returnsAddr",
          "type": "address"
        }
      ],
      "name": "setTreasuries",
      "outputs": [],
      "stateMutability": "nonpayable",
      "type": "function"
    },
    {
      "inputs": [
        {
          "internalType": "uint256",
          "name": "loanId",
          "type": "uint256"
        }
      ],
      "name": "settleAtUnlock",
      "outputs": [],
      "stateMutability": "nonpayable",
      "type": "function"
    },
    {
      "inputs": [
        {
          "internalType": "uint256",
          "name": "loanId",
          "type": "uint256"
        }
      ],
      "name": "settlePrivateAtUnlock",
      "outputs": [],
      "stateMutability": "nonpayable",
      "type": "function"
    },
    {
      "inputs": [
        {
          "internalType": "address",
          "name": "newOwner",
          "type": "address"
        }
      ],
      "name": "transferOwnership",
      "outputs": [],
      "stateMutability": "nonpayable",
      "type": "function"
    },
    {
      "inputs": [],
      "name": "uniswapRouter",
      "outputs": [
        {
          "internalType": "contract ISwapRouter",
          "name": "",
          "type": "address"
        }
      ],
      "stateMutability": "view",
      "type": "function"
    },
    {
      "inputs": [],
      "name": "unpause",
      "outputs": [],
      "stateMutability": "nonpayable",
      "type": "function"
    },
    {
      "inputs": [],
      "name": "usdc",
      "outputs": [
        {
          "internalType": "contract IERC20",
          "name": "",
          "type": "address"
        }
      ],
      "stateMutability": "view",
      "type": "function"
    },
    {
      "inputs": [],
      "name": "valuation",
      "outputs": [
        {
          "internalType": "contract ValuationEngine",
          "name": "",
          "type": "address"
        }
      ],
      "stateMutability": "view",
      "type": "function"
    }
  ],
  "transactionHash": "0xd9af8b564c399d40d410d0da9ee7b19301205204f46a56ac31e8f746e693720d",
  "args": [
    "0x3d99E7Bf55d332610F4b05FFDAAa846Bd761827e",
    "0xe6AF878E6bE906Fc9682516C84934B4E359D0949",
    "0x65cDA56b1884E02C061EE27ffae02bD2aB2423ff",
    "0x7b0B2268bdd8D9D586CB58f6Cc65076D543EB115",
    500,
    "0x30b2Ba053D2D74780DdD100eC9a40D80Abaa098D",
    3000,
    9000
  ],
  "numDeployments": 4,
  "solcInputHash": "f550c6f946a35c12b3f2f16194124b5d",
  "bytecode": "0x6080604090808252346200021e5761010081620055f4803803809162000026828562000223565b8339810103126200021e576200003c816200025d565b906200004b602082016200025d565b90620000598482016200025d565b62000067606083016200025d565b926080830151936200007c60a085016200025d565b60c08501519462ffffff861686036200021e5760e0015193331562000206579060046020928a60009a8b9485549b60018060a01b03199c8d943386831617895551998a98899760018060a01b03809e818099819782967f8be0079c531659141344cd1fd0a4f28419497f9722a3daafe3b4186f6b6457e0843393169180a36001805562015180600e55168a600254161760025516886003541617600355168096895416178855168d6005541617600555600655168a60075416176007556008549862ffffff60a01b9060a01b16978862ffffff60a01b198b1617600855600955631f209df760e11b82525afa908115620001fc578691620001b7575b50169160018060b81b03191617176008553381600a541617600a553390600b541617600b556096600c5580600f55601055516153819081620002738239f35b90506020813d8211620001f3575b81620001d46020938362000223565b81010312620001ef57518181168103620001ef573862000178565b8580fd5b3d9150620001c5565b87513d88823e3d90fd5b8851631e4fbdf760e01b815260006004820152602490fd5b600080fd5b601f909101601f19168101906001600160401b038211908210176200024757604052565b634e487b7160e01b600052604160045260246000fd5b51906001600160a01b03821682036200021e5756fe608080604052600436101561001357600080fd5b600090813560e01c90816303eadcfc146138595750806307d1b1d714613510578063089fe6aa146134ea5780630bf7187d146133305780630da7234c1461329d5780630f161dce14612fa957806311a6f3da14612f8b5780631352f18714612f625780631585def014612f12578063159e9afb14612e8757806316f0115b14612e5e5780631b15cee614612d795780631c90307c14612d005780631dba554f14612ce2578063202ae71714612ca95780632065124f14612c6257806321a7cfe414612c3957806321e0e557146128f2578063233c4cf1146128c45780632d32ac781461285d578063306f69cf146123a557806331739bb7146123875780633a11e9c81461230b5780633b9e0f381461228e5780633ddac07d146122665780633e413bee1461223d5780633f4ba83a146121cc5780634651e7891461210a5780634d158c64146120c85780634fbaa25e14611ff05780634fc967d714611ee657806354c37c4f14611ec35780635bb4962614611ea55780635c975abb14611e8057806369f6def714611e555780636feb393b14611cd5578063715018a614611c7b578063735de9f714611c5257806373bbc64d14611b7d5780637460b6b214611b565780637dce411514611a4e57806382b69d34146118035780638456cb59146117a25780638a700b53146117305780638da5cb5b146117095780639c7ed1de1461167d5780639ffb86061461165f578063a59ffd36146115a2578063ac1d9263146113d9578063ad02b40d146112cd578063af048b6f146110b4578063b123cb7414610c31578063b4d88ca314610bf2578063be5edb8214610bc9578063c7017c9214610b94578063c8394b1d14610b65578063c9d5d7b014610b47578063ce63094d14610b29578063dfd572a014610b00578063e1a4521814610ae3578063e1ddb96414610a58578063e1ec3c68146109c1578063e640b81414610982578063e65e278d146108d8578063e85e815b14610445578063ecf4911f14610401578063f2fde38b146103765763f660d0581461030d57600080fd5b34610373578060031936011261037357610325613abf565b61033360ff60145416613fb9565b61034c6000601155600060125560006013556000601455565b7f0b1bd025678edba0e950e7e8f0c266baa82960a66328930d072cac4f402647088180a180f35b80fd5b503461037357602036600319011261037357610390613918565b610398613abf565b6001600160a01b039081169081156103e857600054826001600160601b0360a01b821617600055167f8be0079c531659141344cd1fd0a4f28419497f9722a3daafe3b4186f6b6457e0600080a380f35b604051631e4fbdf760e01b815260048101849052602490fd5b50346103735760203660031901126103735760043590601e5482101561037357602061042c83613a88565b905460405160039290921b1c6001600160a01b03168152f35b50346103735761045436613984565b6104619493919294613aeb565b610469613b0c565b6000948591610479851515613d87565b6003546001600160a01b039290831690813b156108d45760405163795a170960e11b8152600481018790526001600160a01b0391909116602482015233604482015297849189916064918391905af19687156108b6576024976108c1575b50606082600354166040519889809263b93a89f760e01b82528860048301525afa80156108b6576105739495969784928591869361087d575b506040918391610521861515614209565b806108735750610534855b861115614242565b60025483516317fb08f560e31b8152600481018790526001600160a01b0390921660248301526044820192909252968791861690829081906064820190565b03915afa9485156108685784908596610831575b5090600492918690338752602097601c895260ff60408920541680610826575b610803575b50338752601f885260ff60408820541690816107f2575b81806107e7575b6107bd575b6105ea906105e1612710948592613b2f565b048b111561429b565b878686541660405196878092633fceb09960e21b82525afa9485156107b257879561077c575b509080856106489361068d979080610771575b610747575b61063391508c613b2f565b0490610641600c548c613b2f565b0490613cf7565b91601b54976040519361065a85613cb9565b3385528a8986015260408501526060840152608083015260a0820152600160c0820152858452601a8552604084206142e2565b601b546001810180911161073357601b5560045416803b1561072f5760405163a2fb342d60e01b8152336004820152602481018690529082908290604490829084905af1801561072457610710575b50507f7392a98f7f0b94651293606f510651959a21426db5d1811325cf1264f1e62dc4906040519384523393a36001805580f35b61071a8291613c89565b61037357806106dc565b6040513d84823e3d90fd5b5080fd5b634e487b7160e01b83526011600452602483fd5b6010548092116000146107665761063391610761916142d5565b610628565b505061063388610628565b506010541515610623565b9450908785813d83116107ab575b6107948183613cd5565b810103126107a6579351939081610610565b600080fd5b503d61078a565b6040513d89823e3d90fd5b916107cb90600f5490613cf7565b916127108084116107dd575b506105cf565b92506105ea6107d7565b50600f5415156105ca565b90506107fd33613df7565b906105c3565b61081291925060065490613cf7565b90612710808311156105ac579150386105ac565b5060065415156105a7565b600493929650610859915060403d604011610861575b6108518183613cd5565b810190614285565b959192610587565b503d610847565b6040513d86823e3d90fd5b610534909561052c565b909350604092506108a5915060603d81116108af575b61089d8183613cd5565b8101906141e7565b9291939091610510565b503d610893565b6040513d85823e3d90fd5b6108cd90939193613c89565b91386104d7565b8480fd5b50346103735780600319360112610373576108f1613abf565b61097f60405161090081613c9d565b6015549060018060a01b03918281168252602082019262ffffff809260a01c16845260165492604081019384526109596017546060830190815261095060ff601854161515806080860152613fb9565b51421015613ff8565b6109726000601555600060165560006017556000601855565b51169251169051916140a8565b80f35b50346103735760203660031901126103735760209060ff906040906001600160a01b036109ad613918565b168152601c84522054166040519015158152f35b503461037357602036600319011261037357604090600435815260196020522060018060a01b03815416610a54600183015492600281015490600381015460048201549060ff60066005850154940154169360405197889788959260c09592989794919860e088019960018060a01b03168852602088015260408701526060860152608085015260a08401521515910152565b0390f35b5034610373578060031936011261037357604051601e80548083529083526020808301937f50bb669a95c7b50b7e8a6f09454034b2b14cf2b85c730dca9a539ca82cb6e35092915b828210610ac357610a5485610ab781890382613cd5565b604051918291826139b2565b83546001600160a01b031686529485019460019384019390910190610aa0565b503461037357806003193601126103735760206040516127108152f35b50346103735780600319360112610373576005546040516001600160a01b039091168152602090f35b50346103735780600319360112610373576020601b54604051908152f35b50346103735780600319360112610373576020601054604051908152f35b50346103735761097f610b7736613a05565b91610b80613abf565b610b8f60ff600d541615613ece565b6140a8565b5034610373576020366003190112610373576020906004358152601a8252604060018060a01b03912054161515604051908152f35b5034610373578060031936011261037357600a546040516001600160a01b039091168152602090f35b50346103735760203660031901126103735760209060ff906040906001600160a01b03610c1d613918565b168152601f84522054166040519015158152f35b503461037357602036600319011261037357600435610c4e613aeb565b610c56613b0c565b808252601960205260408220610c7260ff600683015416614350565b610c826005820154421015614bae565b600181019083610c988354600284015490613cf7565b600380549084015460405163b93a89f760e01b81526004810182905292949290916001600160a01b0316606082602481845afa80156110a95785928691611084575b50600485015480841161107c575b50600b546001600160a01b03168061107657506004546001600160a01b0316935b87610de45750505080610d63575b505090600260209392827f2b8a84e623a466252d40df763a21d8d87755b1c874a96449b31b8ce3b5bbe7d7965b60068301805460ff191690555501556040519015158152a26001805580f35b600380549084015491906001600160a01b0316803b15610de057604051632a7d7bc560e01b815260048101939093526001600160a01b0393909316602483015260448201529083908290606490829084905af180156108b657610dc7575b80610d17565b91610dd481929493613c89565b61037357909138610dc1565b8580fd5b83610e1e575b505050505090600260209392827f2b8a84e623a466252d40df763a21d8d87755b1c874a96449b31b8ce3b5bbe7d796610d44565b610e288883614f29565b9284841161106e575b83610ecf575b505050808211610e49575b8080610dea565b610e6360018060a01b0360035416916003860154936142d5565b90803b15610de057604051632a7d7bc560e01b815260048101939093526001600160a01b0393909316602483015260448201529083908290606490829084905af180156108b657610eb6575b8080610e42565b91610ec381929493613c89565b61037357909138610eaf565b803b1561106a57604051632a7d7bc560e01b815260048101929092523060248301526044820184905287908290606490829084905af180156107b25783918891611053575b5050610f20918a614be9565b80610f2d575b8080610e37565b8060018060a01b0360045416916040516313064e1b60e21b8152602081600481875afa908115611048578991611013575b50808211611009575b50600b549192610f92926001600160a01b03168061100257505b6008546001600160a01b03166147f3565b8015610f26576004546001600160a01b031690813b15610ffe578691602483926040519485938492631b8fec7360e11b845260048401525af1908115610ff3578691610fdf575b50610f26565b610fe890613c89565b6108d4578438610fd9565b6040513d88823e3d90fd5b8680fd5b9050610f81565b9150610f92610f67565b9850506020883d602011611040575b8161102f60209383613cd5565b810103126107a6578b975138610f5e565b3d9150611022565b6040513d8b823e3d90fd5b61105e919250613c89565b610de057818638610f14565b8780fd5b849350610e31565b93610d09565b925038610ce8565b905061109f91925060603d81116108af5761089d8183613cd5565b5091909138610cda565b6040513d87823e3d90fd5b5034610373576110c336613984565b9291906110ce613aeb565b6110d6613b0c565b8285526111266020926019845260408720906110f860ff600684015416614350565b81546001600160a01b0393849361112d926111169086163314614387565b6002600182015491015490613cf7565b15156143c2565b611138841515613d87565b1694611145861515613b8b565b858752601d845261115b60408820541515613bc1565b600854821686036111aa57509060008051602061532c8339815191529261118c82604094600854163090339061445b565b81905b61119a823388614735565b8351928352820152a36001805580f35b906111ba81600754161515613f47565b6111c68330338961445b565b6111d5838260075416886144ac565b6008549161012c42018042116112b95792859261124f928a9562ffffff604051946111ff86613c50565b8c86528481168887015260a01c16604085015230606085015260808401528660a084015260c08301528460e0830152600754169060405194858094819363414bf38960e01b8352600483016143f4565b03925af1908115610ff357869161127c575b509060008051602061532c833981519152926040929061118f565b9190508282813d83116112b2575b6112948183613cd5565b810103126107a657905160008051602061532c833981519152611261565b503d61128a565b634e487b7160e01b89526011600452602489fd5b5034610373576040366003190112610373577f647072bbcdcd9f4418ac0a9877bfa49124711cdef9da497d4d1c9619934f24ac611308613918565b61131061392e565b90611319613abf565b61132760ff600d5416613f07565b6113d36001600160a01b0382811690611341821515614037565b841661134e811515614070565b61135a600e5442613cf7565b916001606060405161136b81613c6d565b83815284602082015285604082015201526001600160601b0360a01b90816011541617601155601254161760125580601355600160ff1960145416176014556040519384938460409194939294606082019560018060a01b0380921683521660208201520152565b0390a180f35b50346103735760208060031936011261072f5760043567ffffffffffffffff811161159e5761140c90369060040161387e565b611417929192613abf565b835b601e54811015611459578061143061145492613a88565b905460039190911b1c6001600160a01b03168652601d845260408620869055613b58565b611419565b509091601e8054600082558061155b575b50845b8381106114a85750507f958e5a764e61c98b372056000d351e2fc534fa9b6dec706da2cf0aec85ba6e6f92506113d360405192839283613c01565b6001600160a01b03806114c46114bf848888613b67565b613b77565b16906114d1821515613b8b565b818852601d908188526040892054156114f6575b5050506114f190613b58565b61146d565b845490600160401b821015611545576115156001928381018855613a88565b819291549060031b9186831b921b19161790558301918284116112b9578852865260408720556114f138806114e5565b634e487b7160e01b600052604160045260246000fd5b816000527f50bb669a95c7b50b7e8a6f09454034b2b14cf2b85c730dca9a539ca82cb6e350908101905b818110611592575061146a565b60008155600101611585565b8280fd5b5034610373576040366003190112610373576115bc6139f6565b602435906115c8613abf565b603c82101580611652575b15611621577f687911c7f7b365a8368a45830a19c83a06fd492822054b1e7035e987f6ac50699160409115159060ff19600d541660ff831617600d5580600e5582519182526020820152a180f35b60405162461bcd60e51b81526020600482015260096024820152686261642064656c617960b81b6044820152606490fd5b5062278d008211156115d3565b50346103735780600319360112610373576020600654604051908152f35b50346103735760203660031901126103735760043561169a613abf565b6107d081116116d5576020817f8e76fde0243d6229d8e39686f13195c4d6df7b7e906474fe41c9ceb84a066c3592600c55604051908152a180f35b60405162461bcd60e51b815260206004820152600c60248201526b0cccaca40e8dede40d0d2ced60a31b6044820152606490fd5b5034610373578060031936011261037357546040516001600160a01b039091168152602090f35b50346103735761179b6117423661396e565b9061174b613aeb565b611753613b0c565b80845260196020526117896111266040862061177560ff600683015416614350565b61111660018060a01b038254163314614387565b611794821515613d87565b339061470a565b6001805580f35b50346103735780600319360112610373576117bb613abf565b6117c3613aeb565b805460ff60a01b1916600160a01b1781556040513381527f62e78cea01bee320cd4e420270b5ea74000d11b0c9f74754ebdbfc544b05a25890602090a180f35b50346103735761181236613984565b61181d939293613aeb565b611825613b0c565b8285526020601981526040862061184260ff600683015416614350565b60018060a01b039283825416808952601f845261186560ff60408b205416614655565b61187b6111266001850154600286015490613cf7565b611886861515613d87565b84881697611895891515613b8b565b888a52601d85526118ab60408b20541515613bc1565b8686600854168a14918215611a32575b5050156118fd57505091839161119a6040946118f060008051602061532c83398151915297856008541686845416309161445b565b849384915b541688614735565b856119199161191187600754161515613f47565b30908a61445b565b611928858560075416896144ac565b6008549061012c4201804211611a1e578493928a979695926119a69262ffffff6040519361195585613c50565b8d85528981168786015260a01c16604084015230606084015260808301528760a083015260c08201528760e082015285600754169060405198898094819363414bf38960e01b8352600483016143f4565b03925af1948515611a135788956119da575b509061119a604094939260008051602061532c833981519152969384916118f5565b94509291908085813d8311611a0c575b6119f48183613cd5565b810103126107a657935193919290919061119a6119b8565b503d6119ea565b6040513d8a823e3d90fd5b634e487b7160e01b8a52601160045260248afd5b611a4791611a3f91614d6b565b841015614697565b86386118bb565b503461037357611a5d36613944565b9190611a67613aeb565b611a6f613b0c565b6000611a7c841515613d87565b6003546001600160a01b039290831690813b1561159e5760405163795a170960e11b8152600481018690526001600160a01b039190911660248201523360448201529082908290606490829084905af1801561072457611b47575b50906024606082600354166040519283809263b93a89f760e01b82528860048301525afa80156108b657610573939291839182918291611b22575b5081604091610534851515614209565b905060409250611b40915060603d81116108af5761089d8183613cd5565b9192611b12565b611b5090613c89565b38611ad7565b5034610373576020366003190112610373576020611b75600435613d04565b604051908152f35b503461037357611b8c3661396e565b611b94613abf565b6107d0808311611c18578111611bdf57816040917f1e64d5f14f768b4a50bd13bc22591b617cccb4ab12e2d0556710e0e2e44e1ee993600f558060105582519182526020820152a180f35b60405162461bcd60e51b81526020600482015260116024820152700c8d2e6c6deeadce840e8dede40d0d2ced607b1b6044820152606490fd5b60405162461bcd60e51b81526020600482015260126024820152710d8e8ec40c4dedee6e840e8dede40d0d2ced60731b6044820152606490fd5b50346103735780600319360112610373576007546040516001600160a01b039091168152602090f35b5034610373578060031936011261037357611c94613abf565b600080546001600160a01b0319811682556001600160a01b03167f8be0079c531659141344cd1fd0a4f28419497f9722a3daafe3b4186f6b6457e08280a380f35b503461037357602090816003193601126103735760043567ffffffffffffffff811161072f57611d0990369060040161387e565b90611d12613abf565b60088211611e1e5783546000855580611ddb575b50825b828110611d635750907f18673ec0024fcca08037b127576e9539689314c18d19d6ce2a4dcf625b6be186916113d360405192839283613c01565b6001600160a01b039081611d7b6114bf838787613b67565b1691611d88831515613b8b565b828652601d8752611d9e60408720541515613bc1565b865492600160401b84101561154557611dbf846001611dd696018a55613a3b565b909283549160031b92831b921b1916179055613b58565b611d29565b846000527fc97bfaf2f8ee708c303a06d134f5ecd8389ae0432af62dc132a24118292866bb908101905b818110611e125750611d26565b60008155600101611e05565b60405162461bcd60e51b815260048101859052600f60248201526e746f6f206d616e7920746f6b656e7360881b6044820152606490fd5b5034610373576020366003190112610373576004359060205482101561037357602061042c83613a3b565b503461037357806003193601126103735760ff6020915460a01c166040519015158152f35b50346103735780600319360112610373576020600954604051908152f35b5034610373578060031936011261037357602060ff600d54166040519015158152f35b5034610373577f97d1ac3b2c49afce5866f1d8ac9134b1bee3e4216c7a3e64056c49dfc9db924a6080611f1836613a05565b91611f21613abf565b611f2f60ff600d5416613f07565b6001600160a01b031691611f44831515613f47565b80151580611fe4575b611f5690613f7e565b611f62600e5442613cf7565b9160405190611f7082613c9d565b84825260018662ffffff8316938460208201528560408201528660608201520152846015549162ffffff60a01b9060a01b169168ffffffffffffffffff60b81b1617176015558160165582601755600160ff196018541617601855604051938452602084015260408301526060820152a180f35b50612710811115611f4d565b50346103735760203660031901126103735761200a6139f6565b612012613aeb565b8061201b613b0c565b612076575b338252601f60205261204181604084209060ff801983541691151516179055565b60405190151581527f253de72f204a6749f6225963e42cc173fa9c82ce2826fea6b274c705cde50d5b60203392a26001805580f35b61207f33613df7565b6120205760405162461bcd60e51b815260206004820152601960248201527f6d697373696e67207265706179207065726d697373696f6e73000000000000006044820152606490fd5b50346103735760403660031901126103735761097f6120e5613918565b6120ed61392e565b906120f6613abf565b61210560ff600d541615613ece565b61414a565b503461037357604036600319011261037357612124613918565b60243561212f613abf565b6107d0811161219657600580546001600160a01b0319166001600160a01b03909316928317905560068190556040805192835260208301919091527f4e9c2c9d7ce2ff823cab7f6f0dedfb36ea1f4e5be270f6c13ae74c65fb6c63bf9190819081016113d3565b60405162461bcd60e51b815260206004820152600e60248201526d0c4dedee6e840e8dede40d0d2ced60931b6044820152606490fd5b50346103735780600319360112610373576121e5613abf565b805460ff8160a01c161561222b5760ff60a01b191681556040513381527f5db9ee0a495bf2e6ff9c91a7834c1ba4fdd244a5e8aa4e537bd38aeae4b073aa90602090a180f35b604051638dfc202b60e01b8152600490fd5b50346103735780600319360112610373576008546040516001600160a01b039091168152602090f35b5034610373576040366003190112610373576020611b75612285613918565b60243590613dbe565b50346103735761179b6122a03661396e565b906122a9613aeb565b6122b1613b0c565b808452601a6020526122d36111266040862061111660ff600683015416614350565b6122de821515613d87565b6122e93315156146d4565b600854612304908390309033906001600160a01b031661445b565b33906149c3565b503461037357806003193601126103735760405160208054808352818452818301937fc97bfaf2f8ee708c303a06d134f5ecd8389ae0432af62dc132a24118292866bb925b82821061236757610a5485610ab781890382613cd5565b83546001600160a01b031686529485019460019384019390910190612350565b50346103735780600319360112610373576020600c54604051908152f35b5034610373576020366003190112610373576123bf613aeb565b6123c7613b0c565b6004358152601a6020526040812090600682016123e760ff825416614350565b82546001600160a01b031690811561282e576124096005850154421015614bae565b600184018054916124206002870193845490613cf7565b60038054908801805460405163b93a89f760e01b8152600481018290529199939793926001600160a01b0316606083602481845afa9283156127eb578a908b9461280a575b50600481950154809111612802575b508861255457505050908697828897989594936124d1575b5050505b60ff198154169055555560405190151581527fca66ee6abcccbc92f81fb50e2c8f67112a9eba05075fd33a319b061ad6908ace602060043592a26001805580f35b6003549154929550906001600160a01b0316803b1561106a57604051632a7d7bc560e01b815260048101939093526001600160a01b0395909516602483015260448201529285908490606490829084905af19283156110a9578593612538575b808061248c565b61254490939193613c89565b61255057839138612531565b8380fd5b839a929a61256f575b50505050508495509084939491612490565b612579898c614f29565b918483116127fa575b82612637575b5050889950908183928a999a97969594116125aa575b8495965098979861255d565b60035491549396506001600160a01b03909116916125c891906142d5565b90803b1561106a57604051632a7d7bc560e01b815260048101939093526001600160a01b0395909516602483015260448201529285908490606490829084905af19283156110a957859361261f575b80808061259e565b61262b90939193613c89565b61255057839138612617565b8198979695949392983b156127f657604051632a7d7bc560e01b8152600481019190915230602482015260448101899052908a908290606490829084905af180156127eb576127cf575b50612694878a9b60049b999a9b35614be9565b97886126aa575b90919293949596989780612588565b8860018060a01b0360045416906040516313064e1b60e21b8152602081600481865afa9081156127c4578b9161278b575b509a8b8b9c829c9b9c11612781575b50600b549192612714926001600160a01b03168061100257506008546001600160a01b03166147f3565b80612723575b5096959661269b565b6004546001600160a01b03169750873b1561277d578997602489926040519a8b938492631b8fec7360e11b845260048401525af19687156110485789971561271a5761277190979197613c89565b61106a5787953861271a565b8980fd5b91506127146126ea565b999a50506020893d6020116127bc575b816127a860209383613cd5565b810103126107a65797518c9998908a6126db565b3d915061279b565b6040513d8d823e3d90fd5b879a9798996127e061269492613c89565b999850999699612681565b6040513d8c823e3d90fd5b8a80fd5b849250612582565b935038612474565b905061282591935060603d81116108af5761089d8183613cd5565b50929038612465565b60405162461bcd60e51b815260206004820152600760248201526607661756c743d360cc1b6044820152606490fd5b5034610373578060031936011261037357612876613abf565b61288460ff60185416613fb9565b61289d6000601555600060165560006017556000601855565b7f4a620d7f02f45fe2967e411e5b7d768e6d371579bde15e4e56a3ef3e909f52e38180a180f35b50346103735760203660031901126103735760206128e86128e3613918565b613df7565b6040519015158152f35b5034610373578061290236613984565b90929161290d613aeb565b612915613b0c565b8491612922851515613d87565b6003546001600160a01b039290831690813b1561106a5760405163795a170960e11b8152600481018790526001600160a01b0391909116602482015233604482015297879189916064918391905af1968715610ff357602497612c26575b50606082600354166040519889809263b93a89f760e01b82528860048301525afa80156108b6576129c99495969784928591869361087d57506040918391610521861515614209565b03915afa9485156108685784908596612bff575b5090600492918690338752602097601c895260ff60408920541680612bf4575b612bd1575b50338752601f885260ff6040882054169081612bc0575b8180612bb5575b612b8b575b612a37906105e1612710948592613b2f565b878686541660405196878092633fceb09960e21b82525afa9485156107b2578795612b5a575b50908085612a7e93612ac3979080610771576107475761063391508c613b2f565b91601b549760405193612a9085613cb9565b3385528a8986015260408501526060840152608083015260a0820152600160c082015285845260198552604084206142e2565b601b546001810180911161073357601b5560045416803b1561072f5760405163a2fb342d60e01b8152336004820152602481018690529082908290604490829084905af1801561072457612b46575b50507f8910ba13a55695f056e224bbbc6b65d866b12a8c2fbdf387fb853a1cca298cd7906040519384523393a36001805580f35b612b508291613c89565b6103735780612b12565b9450908785813d8311612b84575b612b728183613cd5565b810103126127f6579351939081612a5d565b503d612b68565b91612b9990600f5490613cf7565b91612710808411612bab575b50612a25565b9250612a37612ba5565b50600f541515612a20565b9050612bcb33613df7565b90612a19565b612be091925060065490613cf7565b9061271080831115612a0257915038612a02565b5060065415156129fd565b600493929650612c1e915060403d604011610861576108518183613cd5565b9591926129dd565b612c31919350613c89565b849138612980565b50346103735780600319360112610373576002546040516001600160a01b039091168152602090f35b5034610373578060031936011261037357608060018060a01b038060115416906012541660135460ff60145416916040519384526020840152604083015215156060820152f35b5034610373576020366003190112610373576020906040906001600160a01b03612cd1613918565b168152601d83522054604051908152f35b50346103735780600319360112610373576020600f54604051908152f35b50346103735761179b612d123661396e565b90612d1b613aeb565b612d23613b0c565b80845260196020526040842090612d4060ff600684015416614350565b612d6961112660018060a01b0384541693848852601f60205261111660ff60408a205416614655565b612d74831515613d87565b61470a565b503461037357612d8836613944565b9190612d92613aeb565b612d9a613b0c565b8390612da7841515613d87565b6003546001600160a01b03918691831690813b1561159e5760405163795a170960e11b8152600481018790526001600160a01b0391909116602482015233604482015291908290606490829084905af18015610ff357612e4b575b506024606082600354166040519283809263b93a89f760e01b82528860048301525afa80156108b6576129c9939291839182918291611b22575081604091610534851515614209565b612e56919250613c89565b839038612e02565b50346103735780600319360112610373576004546040516001600160a01b039091168152602090f35b5034610373578060031936011261037357612ea0613abf565b61097f604051612eaf81613c6d565b60018060a01b03806011541682528080601254169260208101938452612eee6013546040830190815261095060ff601454161515806060860152613fb9565b612f076000601155600060125560006013556000601455565b51169151169061414a565b503461037357806003193601126103735760a060155460165460175460ff601854169162ffffff60405194600180881b0381168652861c1660208501526040840152606083015215156080820152f35b5034610373578060031936011261037357600b546040516001600160a01b039091168152602090f35b50346103735780600319360112610373576020600e54604051908152f35b503461037357612fb8366138af565b90612fc896929695949395613aeb565b612fd0613b0c565b612fdb8785146145da565b612fe68285146145da565b8288526019602052604088209461300360ff600688015416614350565b61301760018060a01b038754163314614387565b61302d6111266001880154600289015490613cf7565b8894895b818110613041575b8a6001805580f35b61304f6114bf828486613b67565b9661305b828c8c613b67565b35908c8215613290576001600160a01b038a168152601d602052604090205488916130939061308b831515613bc1565b821015614618565b60088054919a918491906001600160a01b0380851691160361311e575460008051602061532c8339815191529260409290916130dc9190309033906001600160a01b031661445b565b845b6130e9813387614735565b825195865260208601526001600160a01b031693a360ff600689015416156131195761311490613b58565b613031565b613039565b6007549293509161313a91506001600160a01b03161515613f47565b61314f8330336001600160a01b03861661445b565b60075461316b9084906001600160a01b039081169085166144ac565b5461012c4201421161327c57908d6020613207829461318b888d8d613b67565b35876040519261319a84613c50565b60018060a01b038816845260018060a01b0381168685015262ffffff60a091821c16604085015230606085015261012c4201608085015283015260c08201528360e082015260018060a01b03600754169060405194858094819363414bf38960e01b8352600483016143f4565b03925af19081156108b6578a9391613233575b5060008051602061532c833981519152916040916130de565b9250506020823d602011613274575b8161324f60209383613cd5565b8101031261327057905188919060008051602061532c83398151915261321a565b8d80fd5b3d9150613242565b634e487b7160e01b8e52601160045260248efd5b5097505061311490613b58565b5034610373576020366003190112610373576040906004358152601a6020522060018060a01b03815416610a54600183015492600281015490600381015460048201549060ff60066005850154940154169360405197889788959260c09592989794919860e088019960018060a01b03168852602088015260408701526060860152608085015260a08401521515910152565b503461037357602090816003193601126103735767ffffffffffffffff60043581811161159e573660238201121561159e57806004013591821161159e57366024838301011161159e57613382613aeb565b61338a613b0c565b6005546001600160a01b03169081156134b7578491602485606486946040519788968795869363058b23cd60e41b855233600486015260408286015282604486015201848401378181018301849052601f01601f191681010301925af1908115610724578291613481575b501561344c57604090338152601c835220600160ff198254161790556006546040519081527f60b66827d6b8dc4c21c455ee1239c41dffbc94e0604392a84cdea38f8f76fd59823392a26001805560405160018152f35b60405162461bcd60e51b815260048101839052600d60248201526c34b73b30b634b210383937b7b360991b6044820152606490fd5b90508281813d83116134b0575b6134988183613cd5565b8101031261072f5751801515810361072f57386133f5565b503d61348e565b60405162461bcd60e51b815260048101869052600b60248201526a3737903b32b934b334b2b960a91b6044820152606490fd5b5034610373578060031936011261037357602062ffffff60085460a01c16604051908152f35b50346103735780613520366138af565b9091969394613530969396613aeb565b613538613b0c565b6135438887146145da565b61354e8287146145da565b8385526019602052604085209561356b60ff600689015416614350565b86546001600160a01b03168652601f602052604086205461358e9060ff16614655565b6135a4611126600189015460028a015490613cf7565b85805b8282106135b7575b876001805580f35b89896135d2848e6135cc6114bf838a8c613b67565b94613b67565b3592831561384b576001600160a01b0383168b52601d60205260408b20548a939285929091906136079061308b831515613bc1565b600854909c6001600160a01b0385811692169190911490878c8c8415613823575b505050506000146136b557600854905460008051602061532c8339815191529360409390926136659230916001600160a01b03918216911661445b565b8461367c818f5b546001600160a01b031687614735565b825195865260208601526001600160a01b031693a360ff600689015416156136ae576136a790613b58565b8a966135a7565b8a966135af565b50506007549091506136d1906001600160a01b03161515613f47565b89546136ee90839030906001600160a01b0390811690851661445b565b60075461370a9083906001600160a01b039081169084166144ac565b60085461012c4201421161327c57908d60206137a8829461372c888c8e613b67565b35876040519261373b84613c50565b60018060a01b038816845260018060a01b0381168685015262ffffff60a091821c16604085015230606085015261012c4201608085015283015260c08201528360e082015260018060a01b03600754169060405196878094819363414bf38960e01b8352600483016143f4565b03925af18015613816578a938d92916137db575b509160409161367c60008051602061532c83398151915294809261366c565b935050506020823d60201161380e575b816137f860209383613cd5565b810103126132705790518891908b9060406137bc565b3d91506137eb565b50604051903d90823e3d90fd5b6138439261383b91613835898b614d6b565b93613b67565b351015614697565b878c8c613628565b99505050506136a790613b58565b90503461072f578160031936011261072f576003546001600160a01b03168152602090f35b9181601f840112156107a65782359167ffffffffffffffff83116107a6576020808501948460051b0101116107a657565b60806003198201126107a6576004359167ffffffffffffffff6024358181116107a657836138df9160040161387e565b939093926044358381116107a657826138fa9160040161387e565b939093926064359182116107a6576139149160040161387e565b9091565b600435906001600160a01b03821682036107a657565b602435906001600160a01b03821682036107a657565b60609060031901126107a657600435906024356001600160a01b03811681036107a6579060443590565b60409060031901126107a6576004359060243590565b60809060031901126107a657600435906024356001600160a01b03811681036107a657906044359060643590565b6020908160408183019282815285518094520193019160005b8281106139d9575050505090565b83516001600160a01b0316855293810193928101926001016139cb565b6004359081151582036107a657565b60609060031901126107a6576004356001600160a01b03811681036107a6579060243562ffffff811681036107a6579060443590565b602054811015613a725760206000527fc97bfaf2f8ee708c303a06d134f5ecd8389ae0432af62dc132a24118292866bb0190600090565b634e487b7160e01b600052603260045260246000fd5b601e54811015613a7257601e6000527f50bb669a95c7b50b7e8a6f09454034b2b14cf2b85c730dca9a539ca82cb6e3500190600090565b6000546001600160a01b03163303613ad357565b60405163118cdaa760e01b8152336004820152602490fd5b60ff60005460a01c16613afa57565b60405163d93c066560e01b8152600490fd5b600260015414613b1d576002600155565b604051633ee5aeb560e01b8152600490fd5b81810292918115918404141715613b4257565b634e487b7160e01b600052601160045260246000fd5b6000198114613b425760010190565b9190811015613a725760051b0190565b356001600160a01b03811681036107a65790565b15613b9257565b60405162461bcd60e51b81526020600482015260076024820152660746f6b656e3d360cc1b6044820152606490fd5b15613bc857565b60405162461bcd60e51b81526020600482015260116024820152701d1bdad95b881b9bdd08185b1b1bddd959607a1b6044820152606490fd5b9091604060209282848201858352520192916000805b838210613c2657505050505090565b9091929394853560018060a01b03811680910361159e578152830194830193929160010190613c17565b610100810190811067ffffffffffffffff82111761154557604052565b6080810190811067ffffffffffffffff82111761154557604052565b67ffffffffffffffff811161154557604052565b60a0810190811067ffffffffffffffff82111761154557604052565b60e0810190811067ffffffffffffffff82111761154557604052565b90601f8019910116810190811067ffffffffffffffff82111761154557604052565b91908201809211613b4257565b6000526019602052604060002060405190613d1e82613cb9565b60018060a01b03815416825260018101549182602082015260ff60066002840154938460408501526003810154606085015260048101546080850152600581015460a0850152015416159060c08215910152613d8057613d7d91613cf7565b90565b5050600090565b15613d8e57565b60405162461bcd60e51b81526020600482015260086024820152670616d6f756e743d360c41b6044820152606490fd5b6001600160a01b0381811690613dd5821515613b8b565b613de0841515613d87565b6008541614613df35790613d7d91614d6b565b5090565b6001600160a01b039080821615613d805760009160208054935b848110613e22575050505050600190565b8183613e2d83613a3b565b905460408051636eb1769f60e11b81526001600160a01b038a1660048201523060248201529094909390928492604492849260031b9190911c165afa918215613ec45750600091613e97575b5015613e8d57613e8890613b58565b613e11565b5050505050600090565b908382813d8311613ebd575b613ead8183613cd5565b8101031261037357505138613e79565b503d613ea3565b513d6000823e3d90fd5b15613ed557565b60405162461bcd60e51b815260206004820152600a6024820152691d1a5b595b1bd8dad95960b21b6044820152606490fd5b15613f0e57565b60405162461bcd60e51b81526020600482015260116024820152701d1a5b595b1bd8dac8191a5cd8589b1959607a1b6044820152606490fd5b15613f4e57565b60405162461bcd60e51b81526020600482015260086024820152670726f757465723d360c41b6044820152606490fd5b15613f8557565b60405162461bcd60e51b815260206004820152600c60248201526b62616420736c69707061676560a01b6044820152606490fd5b15613fc057565b60405162461bcd60e51b815260206004820152601060248201526f6e6f2071756575656420636f6e66696760801b6044820152606490fd5b15613fff57565b60405162461bcd60e51b815260206004820152601060248201526f74696d656c6f636b2070656e64696e6760801b6044820152606490fd5b1561403e57565b60405162461bcd60e51b815260206004820152600a602482015269069737375616e63653d360b41b6044820152606490fd5b1561407757565b60405162461bcd60e51b8152602060048201526009602482015268072657475726e733d360bc1b6044820152606490fd5b7f8b5c8d8f89d3a1faecb05d234f488196bd0a31cbd4f482bf686b2581b1e4dbe4926060926001600160a01b039092169162ffffff906140e9841515613f47565b8215158061413e575b6140fb90613f7e565b836001600160601b0360a01b60075416176007556008548260a01b8260a01b16908360a01b191617600855826009556040519384521660208301526040820152a1565b506127108311156140f2565b7f81a577879f5afba839dc12949fdfc537e7ab528414301ccc1d723e2abcbe7d1b91906001600160a01b0380821690614184821515614037565b831690614192821515614070565b600a80546001600160a01b0319908116929092179055600b8054909116919091179055604080516001600160a01b03928316815292909116602083015290a1565b51906001600160a01b03821682036107a657565b908160609103126107a6578051916040614203602084016141d3565b92015190565b1561421057565b60405162461bcd60e51b815260206004820152600a60248201526907175616e746974793d360b41b6044820152606490fd5b1561424957565b60405162461bcd60e51b8152602060048201526014602482015273636f6c6c61746572616c3e617661696c61626c6560601b6044820152606490fd5b91908260409103126107a6576020825192015190565b156142a257565b60405162461bcd60e51b815260206004820152600b60248201526a32bc31b2b2b23990262a2b60a91b6044820152606490fd5b91908203918211613b4257565b600660c061434e9360018060a01b038151166001600160601b0360a01b8554161784556020810151600185015560408101516002850155606081015160038501556080810151600485015560a081015160058501550151151591019060ff801983541691151516179055565b565b1561435757565b60405162461bcd60e51b8152602060048201526008602482015267696e61637469766560c01b6044820152606490fd5b1561438e57565b60405162461bcd60e51b815260206004820152600c60248201526b3737ba103137b93937bbb2b960a11b6044820152606490fd5b156143c957565b606460405162461bcd60e51b81526020600482015260046024820152631c185a5960e21b6044820152fd5b91909160e06101008201938160018060a01b039182815116855282602082015116602086015262ffffff60408201511660408601528260608201511660608601526080810151608086015260a081015160a086015260c081015160c0860152015116910152565b6040516323b872dd60e01b60208201526001600160a01b039283166024820152929091166044830152606482019290925261434e916144a782608481015b03601f198101845283613cd5565b614572565b60405163095ea7b360e01b60208083018281526001600160a01b038616602485015260448085019790975295835290949193916000906144ed606487613cd5565b85519082865af16000513d8261454d575b50501561450c575b50505050565b614544936144a79160405191602083015260018060a01b03166024820152600060448201526044815261453e81613c6d565b82614572565b38808080614506565b90915061456a57506001600160a01b0382163b15155b38806144fe565b600114614563565b906000602091828151910182855af1156145ce576000513d6145c557506001600160a01b0381163b155b6145a35750565b604051635274afe760e01b81526001600160a01b039091166004820152602490fd5b6001141561459c565b6040513d6000823e3d90fd5b156145e157565b60405162461bcd60e51b815260206004820152600f60248201526e0d8cadccee8d040dad2e6dac2e8c6d608b1b6044820152606490fd5b1561461f57565b60405162461bcd60e51b815260206004820152600e60248201526d383934b7b934ba3c9037b93232b960911b6044820152606490fd5b1561465c57565b60405162461bcd60e51b8152602060048201526013602482015272185d5d1bc81c995c185e48191a5cd8589b1959606a1b6044820152606490fd5b1561469e57565b60405162461bcd60e51b815260206004820152600e60248201526d6d696e4f757420746f6f206c6f7760901b6044820152606490fd5b156146db57565b60405162461bcd60e51b8152602060048201526007602482015266070617965723d360cc1b6044820152606490fd5b61434e929190614735836001600160a01b0361472981861615156146d4565b6008541684309161445b565b919081156147ee57600092808452601960205261475f6040852061111660ff600683015416614350565b808411156147e757925b83808211156147de5761477b916142d5565b925b600b546001600160a01b0395508516806147d857508460045416915b816147b9575b505050816147ac57505050565b61434e92600854166147f3565b6147cb826147d09488600854166147f3565b61482c565b38808061479f565b91614799565b5050839261477d565b5082614769565b505050565b60405163a9059cbb60e01b60208201526001600160a01b039092166024830152604482019290925261434e916144a78260648101614499565b919091600083156149bd5760018060a01b03600454169360408051926313064e1b60e21b845260209384816004818b5afa9081156149b3578291614986575b508084111561497f575b80614906575b50847f040cee90ee4799897c30ca04e5feb6fa43dbba9b6d084b4b257cdafd84ba013e95969750815260198452818120600281016001815492019182549186828110156000146148f8575090846148d39255866142d5565b908082106148e6575050555b51908152a2565b6148f19293506142d5565b90556148df565b925093506148f192506142d5565b8782983b1561159e576024839285519a8b938492631b8fec7360e11b845260048401525af1968715614973577f040cee90ee4799897c30ca04e5feb6fa43dbba9b6d084b4b257cdafd84ba013e959697614964575b8796955061487b565b61496d90613c89565b3861495b565b509051903d90823e3d90fd5b5082614875565b90508481813d83116149ac575b61499d8183613cd5565b8101031261072f57513861486b565b503d614993565b83513d84823e3d90fd5b50509050565b919081156147ee57600092808452601a6020526149ed6040852061111660ff600683015416614350565b80841115614a5f57925b8380821115614a5657614a09916142d5565b925b600b546001600160a01b039550851680614a5057508460045416915b81614a3957505050816147ac57505050565b614a4b826147d09488600854166147f3565b614a66565b91614a27565b50508392614a0b565b50826149f7565b919091600083156149bd5760018060a01b03600454169360408051926313064e1b60e21b845260209384816004818b5afa9081156149b3578291614b81575b5080841115614b7a575b80614b0d575b50847f2ecf45e1d35fcd2140131879a7d08fd775b26f7f0235e8e68120af4f5594789a959697508152601a8452818120600281016001815492019182549186828110156000146148f8575090846148d39255866142d5565b8782983b1561159e576024839285519a8b938492631b8fec7360e11b845260048401525af1968715614973577f2ecf45e1d35fcd2140131879a7d08fd775b26f7f0235e8e68120af4f5594789a959697614b6b575b87969550614ab5565b614b7490613c89565b38614b62565b5082614aaf565b90508481813d8311614ba7575b614b988183613cd5565b8101031261072f575138614aa5565b503d614b8e565b15614bb557565b60405162461bcd60e51b815260206004820152600c60248201526b1b9bdd081d5b9b1bd8dad95960a21b6044820152606490fd5b6007546001600160a01b039493908516928315614d37578181614c138289614c18951697886144ac565b614d6b565b906008549561012c420190814211613b4257604093845192614c3984613c50565b87845262ffffff60209a8481168c87015260a01c168685015230606085015260808401528360a084015260c083015287614c9760009384938460e08301526007541690875194858094819363414bf38960e01b8352600483016143f4565b03925af1918215614d2c578092614cdc575b505090817fde2f91861847a1451d81a38725e38c8a517405db456a0d947e7ac3cfa6c0aaf79392978351928352820152a3565b9091508782813d8311614d25575b614cf48183613cd5565b810103126103735750517fde2f91861847a1451d81a38725e38c8a517405db456a0d947e7ac3cfa6c0aaf738614ca9565b503d614cea565b8451903d90823e3d90fd5b5060009450505050565b908160209103126107a6575160ff811681036107a65790565b60ff16604d8111613b4257600a0a90565b90614d758261501c565b92906040519363313ce56760e01b93848652602093848760048160018060a01b038095165afa9687156145ce57600097614e54575b508490600854169560046040518098819382525afa9283156145ce5761271096614e0b96614e0296600096614e0f575b5050614df092614dfc92614df0614df693614d5a565b91614e75565b93614d5a565b91614d5a565b60095490613b2f565b0490565b614df692965092614df0614e40614df0969386614dfc97903d10614e4d575b614e388183613cd5565b810190614d41565b9793505092819450614dda565b503d614e2e565b85919750614e6e90823d8411614e4d57614e388183613cd5565b9690614daa565b90916000198383099280830292838086109503948086039514614f055784831115614eec579082910981600003821680920460028082600302188083028203028083028203028083028203028083028203028083028203028092029003029360018380600003040190848311900302920304170290565b82634e487b71600052156003026011186020526024601cfd5b505080925015614f13570490565b634e487b7160e01b600052601260045260246000fd5b6008546001600160a01b0382811692911690828214614fff57614f4b9061501c565b91909260405194859163313ce56760e01b9081845283600460209586935afa9687156145ce57600097614fde575b50829060046040518096819382525afa80156145ce57613d7d96614fb194614dfc94600093614fb7575b5050614dfc614df091614d5a565b90614e75565b614df0929350614dfc9181614fd792903d10614e4d57614e388183613cd5565b9291614fa3565b83919750614ff890823d8411614e4d57614e388183613cd5565b9690614f79565b50505090565b519069ffffffffffffffffffff821682036107a657565b600254604080516312984b0b60e01b81526001600160a01b03938416600480830191909152919493928316926020916024919083818481895afa9081156152c1576000916152f6575b50169081156152cc578651633fabe5a360e21b81529460a0868681865afa9586156152c157600096878092819261526c575b50600089131561523e5769ffffffffffffffffffff80911691161061520e5780156151dc578042106151ab5790846150d08793426142d5565b918a5193848092630ac2208560e11b82525afa9182156151a057600092615171575b50116151425750819086519384809263313ce56760e01b82525afa948515613ec45750600094615123575b50509190565b61513a929450803d10614e4d57614e388183613cd5565b91388061511d565b83600b606492858a519362461bcd60e51b85528401528201526a7374616c6520707269636560a81b6044820152fd5b90918582813d8311615199575b6151888183613cd5565b8101031261037357505190386150f2565b503d61517e565b89513d6000823e3d90fd5b885162461bcd60e51b8152808701869052600c818501526b199d5d1d5c99481c9bdd5b9960a21b6044820152606490fd5b885162461bcd60e51b8152808701869052600d818501526c06261642074696d657374616d7609c1b6044820152606490fd5b885162461bcd60e51b8152808701869052600b818501526a1cdd185b19481c9bdd5b9960aa1b6044820152606490fd5b8a5162461bcd60e51b81528089018890526009818701526862616420707269636560b81b6044820152606490fd5b985091505060a0873d82116152b9575b8161528960a09383613cd5565b81010312610373575061529b86615005565b848701516152b0608060608a01519901615005565b90979138615097565b3d915061527c565b88513d6000823e3d90fd5b836006606492858a519362461bcd60e51b8552840152820152650666565643d360d41b6044820152fd5b908482813d8311615324575b61530c8183613cd5565b81010312610373575061531e906141d3565b38615065565b503d61530256fe6fc7d8a2bd2a82416c4a47d922756ad5d86230f1046784d16fcdfc3d0a332716a264697066735822122013269e7d56fe2e5eaa62e460fcefc511bcd64fff7b67eb1d36d480af61e776ff64736f6c63430008140033",
  "devdoc": {
    "errors": {
      "EnforcedPause()": [
        {
          "details": "The operation failed because the contract is paused."
        }
      ],
      "ExpectedPause()": [
        {
          "details": "The operation failed because the contract is not paused."
        }
      ],
      "OwnableInvalidOwner(address)": [
        {
          "details": "The owner is not a valid owner account. (eg. `address(0)`)"
        }
      ],
      "OwnableUnauthorizedAccount(address)": [
        {
          "details": "The caller account is not authorized to perform an operation."
        }
      ],
      "ReentrancyGuardReentrantCall()": [
        {
          "details": "Unauthorized reentrant call."
        }
      ],
      "SafeERC20FailedOperation(address)": [
        {
          "details": "An operation with an ERC-20 token failed."
        }
      ]
    },
    "events": {
      "Paused(address)": {
        "details": "Emitted when the pause is triggered by `account`."
      },
      "Unpaused(address)": {
        "details": "Emitted when the pause is lifted by `account`."
      }
    },
    "kind": "dev",
    "methods": {
      "owner()": {
        "details": "Returns the address of the current owner."
      },
      "paused()": {
        "details": "Returns true if the contract is paused, and false otherwise."
      },
      "renounceOwnership()": {
        "details": "Leaves the contract without owner. It will not be possible to call `onlyOwner` functions. Can only be called by the current owner. NOTE: Renouncing ownership will leave the contract without an owner, thereby disabling any functionality that is only available to the owner."
      },
      "transferOwnership(address)": {
        "details": "Transfers ownership of the contract to a new account (`newOwner`). Can only be called by the current owner."
      }
    },
    "version": 1
  },
  "userdoc": {
    "kind": "user",
    "methods": {},
    "version": 1
  },
  "storageLayout": {
    "storage": [
      {
        "astId": 54,
        "contract": "contracts/LoanManager.sol:LoanManager",
        "label": "_owner",
        "offset": 0,
        "slot": "0",
        "type": "t_address"
      },
      {
        "astId": 960,
        "contract": "contracts/LoanManager.sol:LoanManager",
        "label": "_paused",
        "offset": 20,
        "slot": "0",
        "type": "t_bool"
      },
      {
        "astId": 1070,
        "contract": "contracts/LoanManager.sol:LoanManager",
        "label": "_status",
        "offset": 0,
        "slot": "1",
        "type": "t_uint256"
      },
      {
        "astId": 9659,
        "contract": "contracts/LoanManager.sol:LoanManager",
        "label": "valuation",
        "offset": 0,
        "slot": "2",
        "type": "t_contract(ValuationEngine)15088"
      },
      {
        "astId": 9662,
        "contract": "contracts/LoanManager.sol:LoanManager",
        "label": "adapter",
        "offset": 0,
        "slot": "3",
        "type": "t_contract(VestingAdapter)16224"
      },
      {
        "astId": 9665,
        "contract": "contracts/LoanManager.sol:LoanManager",
        "label": "pool",
        "offset": 0,
        "slot": "4",
        "type": "t_contract(LendingPool)9622"
      },
      {
        "astId": 9667,
        "contract": "contracts/LoanManager.sol:LoanManager",
        "label": "identityVerifier",
        "offset": 0,
        "slot": "5",
        "type": "t_address"
      },
      {
        "astId": 9669,
        "contract": "contracts/LoanManager.sol:LoanManager",
        "label": "identityBoostBps",
        "offset": 0,
        "slot": "6",
        "type": "t_uint256"
      },
      {
        "astId": 9672,
        "contract": "contracts/LoanManager.sol:LoanManager",
        "label": "uniswapRouter",
        "offset": 0,
        "slot": "7",
        "type": "t_contract(ISwapRouter)4640"
      },
      {
        "astId": 9675,
        "contract": "contracts/LoanManager.sol:LoanManager",
        "label": "usdc",
        "offset": 0,
        "slot": "8",
        "type": "t_contract(IERC20)361"
      },
      {
        "astId": 9677,
        "contract": "contracts/LoanManager.sol:LoanManager",
        "label": "poolFee",
        "offset": 20,
        "slot": "8",
        "type": "t_uint24"
      },
      {
        "astId": 9679,
        "contract": "contracts/LoanManager.sol:LoanManager",
        "label": "liquidationSlippageBps",
        "offset": 0,
        "slot": "9",
        "type": "t_uint256"
      },
      {
        "astId": 9681,
        "contract": "contracts/LoanManager.sol:LoanManager",
        "label": "issuanceTreasury",
        "offset": 0,
        "slot": "10",
        "type": "t_address"
      },
      {
        "astId": 9683,
        "contract": "contracts/LoanManager.sol:LoanManager",
        "label": "returnsTreasury",
        "offset": 0,
        "slot": "11",
        "type": "t_address"
      },
      {
        "astId": 9685,
        "contract": "contracts/LoanManager.sol:LoanManager",
        "label": "originationFeeBps",
        "offset": 0,
        "slot": "12",
        "type": "t_uint256"
      },
      {
        "astId": 9687,
        "contract": "contracts/LoanManager.sol:LoanManager",
        "label": "adminTimelockEnabled",
        "offset": 0,
        "slot": "13",
        "type": "t_bool"
      },
      {
        "astId": 9690,
        "contract": "contracts/LoanManager.sol:LoanManager",
        "label": "adminTimelockDelay",
        "offset": 0,
        "slot": "14",
        "type": "t_uint256"
      },
      {
        "astId": 9692,
        "contract": "contracts/LoanManager.sol:LoanManager",
        "label": "autoRepayLtvBoostBps",
        "offset": 0,
        "slot": "15",
        "type": "t_uint256"
      },
      {
        "astId": 9694,
        "contract": "contracts/LoanManager.sol:LoanManager",
        "label": "autoRepayInterestDiscountBps",
        "offset": 0,
        "slot": "16",
        "type": "t_uint256"
      },
      {
        "astId": 9717,
        "contract": "contracts/LoanManager.sol:LoanManager",
        "label": "pendingTreasuryConfig",
        "offset": 0,
        "slot": "17",
        "type": "t_struct(PendingTreasuryConfig)9703_storage"
      },
      {
        "astId": 9720,
        "contract": "contracts/LoanManager.sol:LoanManager",
        "label": "pendingLiquidationConfig",
        "offset": 0,
        "slot": "21",
        "type": "t_struct(PendingLiquidationConfig)9714_storage"
      },
      {
        "astId": 9759,
        "contract": "contracts/LoanManager.sol:LoanManager",
        "label": "loans",
        "offset": 0,
        "slot": "25",
        "type": "t_mapping(t_uint256,t_struct(Loan)9738_storage)"
      },
      {
        "astId": 9764,
        "contract": "contracts/LoanManager.sol:LoanManager",
        "label": "privateLoans",
        "offset": 0,
        "slot": "26",
        "type": "t_mapping(t_uint256,t_struct(PrivateLoan)9754_storage)"
      },
      {
        "astId": 9766,
        "contract": "contracts/LoanManager.sol:LoanManager",
        "label": "loanCount",
        "offset": 0,
        "slot": "27",
        "type": "t_uint256"
      },
      {
        "astId": 9770,
        "contract": "contracts/LoanManager.sol:LoanManager",
        "label": "identityLinked",
        "offset": 0,
        "slot": "28",
        "type": "t_mapping(t_address,t_bool)"
      },
      {
        "astId": 9774,
        "contract": "contracts/LoanManager.sol:LoanManager",
        "label": "repayTokenPriority",
        "offset": 0,
        "slot": "29",
        "type": "t_mapping(t_address,t_uint256)"
      },
      {
        "astId": 9777,
        "contract": "contracts/LoanManager.sol:LoanManager",
        "label": "repayTokens",
        "offset": 0,
        "slot": "30",
        "type": "t_array(t_address)dyn_storage"
      },
      {
        "astId": 9781,
        "contract": "contracts/LoanManager.sol:LoanManager",
        "label": "autoRepayOptIn",
        "offset": 0,
        "slot": "31",
        "type": "t_mapping(t_address,t_bool)"
      },
      {
        "astId": 9784,
        "contract": "contracts/LoanManager.sol:LoanManager",
        "label": "autoRepayRequiredTokens",
        "offset": 0,
        "slot": "32",
        "type": "t_array(t_address)dyn_storage"
      }
    ],
    "types": {
      "t_address": {
        "encoding": "inplace",
        "label": "address",
        "numberOfBytes": "20"
      },
      "t_array(t_address)dyn_storage": {
        "base": "t_address",
        "encoding": "dynamic_array",
        "label": "address[]",
        "numberOfBytes": "32"
      },
      "t_bool": {
        "encoding": "inplace",
        "label": "bool",
        "numberOfBytes": "1"
      },
      "t_contract(IERC20)361": {
        "encoding": "inplace",
        "label": "contract IERC20",
        "numberOfBytes": "20"
      },
      "t_contract(ISwapRouter)4640": {
        "encoding": "inplace",
        "label": "contract ISwapRouter",
        "numberOfBytes": "20"
      },
      "t_contract(LendingPool)9622": {
        "encoding": "inplace",
        "label": "contract LendingPool",
        "numberOfBytes": "20"
      },
      "t_contract(ValuationEngine)15088": {
        "encoding": "inplace",
        "label": "contract ValuationEngine",
        "numberOfBytes": "20"
      },
      "t_contract(VestingAdapter)16224": {
        "encoding": "inplace",
        "label": "contract VestingAdapter",
        "numberOfBytes": "20"
      },
      "t_mapping(t_address,t_bool)": {
        "encoding": "mapping",
        "key": "t_address",
        "label": "mapping(address => bool)",
        "numberOfBytes": "32",
        "value": "t_bool"
      },
      "t_mapping(t_address,t_uint256)": {
        "encoding": "mapping",
        "key": "t_address",
        "label": "mapping(address => uint256)",
        "numberOfBytes": "32",
        "value": "t_uint256"
      },
      "t_mapping(t_uint256,t_struct(Loan)9738_storage)": {
        "encoding": "mapping",
        "key": "t_uint256",
        "label": "mapping(uint256 => struct LoanManager.Loan)",
        "numberOfBytes": "32",
        "value": "t_struct(Loan)9738_storage"
      },
      "t_mapping(t_uint256,t_struct(PrivateLoan)9754_storage)": {
        "encoding": "mapping",
        "key": "t_uint256",
        "label": "mapping(uint256 => struct LoanManager.PrivateLoan)",
        "numberOfBytes": "32",
        "value": "t_struct(PrivateLoan)9754_storage"
      },
      "t_struct(Loan)9738_storage": {
        "encoding": "inplace",
        "label": "struct LoanManager.Loan",
        "members": [
          {
            "astId": 9725,
            "contract": "contracts/LoanManager.sol:LoanManager",
            "label": "borrower",
            "offset": 0,
            "slot": "0",
            "type": "t_address"
          },
          {
            "astId": 9727,
            "contract": "contracts/LoanManager.sol:LoanManager",
            "label": "principal",
            "offset": 0,
            "slot": "1",
            "type": "t_uint256"
          },
          {
            "astId": 9729,
            "contract": "contracts/LoanManager.sol:LoanManager",
            "label": "interest",
            "offset": 0,
            "slot": "2",
            "type": "t_uint256"
          },
          {
            "astId": 9731,
            "contract": "contracts/LoanManager.sol:LoanManager",
            "label": "collateralId",
            "offset": 0,
            "slot": "3",
            "type": "t_uint256"
          },
          {
            "astId": 9733,
            "contract": "contracts/LoanManager.sol:LoanManager",
            "label": "collateralAmount",
            "offset": 0,
            "slot": "4",
            "type": "t_uint256"
          },
          {
            "astId": 9735,
            "contract": "contracts/LoanManager.sol:LoanManager",
            "label": "unlockTime",
            "offset": 0,
            "slot": "5",
            "type": "t_uint256"
          },
          {
            "astId": 9737,
            "contract": "contracts/LoanManager.sol:LoanManager",
            "label": "active",
            "offset": 0,
            "slot": "6",
            "type": "t_bool"
          }
        ],
        "numberOfBytes": "224"
      },
      "t_struct(PendingLiquidationConfig)9714_storage": {
        "encoding": "inplace",
        "label": "struct LoanManager.PendingLiquidationConfig",
        "members": [
          {
            "astId": 9705,
            "contract": "contracts/LoanManager.sol:LoanManager",
            "label": "router",
            "offset": 0,
            "slot": "0",
            "type": "t_address"
          },
          {
            "astId": 9707,
            "contract": "contracts/LoanManager.sol:LoanManager",
            "label": "poolFee",
            "offset": 20,
            "slot": "0",
            "type": "t_uint24"
          },
          {
            "astId": 9709,
            "contract": "contracts/LoanManager.sol:LoanManager",
            "label": "slippageBps",
            "offset": 0,
            "slot": "1",
            "type": "t_uint256"
          },
          {
            "astId": 9711,
            "contract": "contracts/LoanManager.sol:LoanManager",
            "label": "executeAfter",
            "offset": 0,
            "slot": "2",
            "type": "t_uint256"
          },
          {
            "astId": 9713,
            "contract": "contracts/LoanManager.sol:LoanManager",
            "label": "exists",
            "offset": 0,
            "slot": "3",
            "type": "t_bool"
          }
        ],
        "numberOfBytes": "128"
      },
      "t_struct(PendingTreasuryConfig)9703_storage": {
        "encoding": "inplace",
        "label": "struct LoanManager.PendingTreasuryConfig",
        "members": [
          {
            "astId": 9696,
            "contract": "contracts/LoanManager.sol:LoanManager",
            "label": "issuanceTreasury",
            "offset": 0,
            "slot": "0",
            "type": "t_address"
          },
          {
            "astId": 9698,
            "contract": "contracts/LoanManager.sol:LoanManager",
            "label": "returnsTreasury",
            "offset": 0,
            "slot": "1",
            "type": "t_address"
          },
          {
            "astId": 9700,
            "contract": "contracts/LoanManager.sol:LoanManager",
            "label": "executeAfter",
            "offset": 0,
            "slot": "2",
            "type": "t_uint256"
          },
          {
            "astId": 9702,
            "contract": "contracts/LoanManager.sol:LoanManager",
            "label": "exists",
            "offset": 0,
            "slot": "3",
            "type": "t_bool"
          }
        ],
        "numberOfBytes": "128"
      },
      "t_struct(PrivateLoan)9754_storage": {
        "encoding": "inplace",
        "label": "struct LoanManager.PrivateLoan",
        "members": [
          {
            "astId": 9741,
            "contract": "contracts/LoanManager.sol:LoanManager",
            "label": "vault",
            "offset": 0,
            "slot": "0",
            "type": "t_address"
          },
          {
            "astId": 9743,
            "contract": "contracts/LoanManager.sol:LoanManager",
            "label": "principal",
            "offset": 0,
            "slot": "1",
            "type": "t_uint256"
          },
          {
            "astId": 9745,
            "contract": "contracts/LoanManager.sol:LoanManager",
            "label": "interest",
            "offset": 0,
            "slot": "2",
            "type": "t_uint256"
          },
          {
            "astId": 9747,
            "contract": "contracts/LoanManager.sol:LoanManager",
            "label": "collateralId",
            "offset": 0,
            "slot": "3",
            "type": "t_uint256"
          },
          {
            "astId": 9749,
            "contract": "contracts/LoanManager.sol:LoanManager",
            "label": "collateralAmount",
            "offset": 0,
            "slot": "4",
            "type": "t_uint256"
          },
          {
            "astId": 9751,
            "contract": "contracts/LoanManager.sol:LoanManager",
            "label": "unlockTime",
            "offset": 0,
            "slot": "5",
            "type": "t_uint256"
          },
          {
            "astId": 9753,
            "contract": "contracts/LoanManager.sol:LoanManager",
            "label": "active",
            "offset": 0,
            "slot": "6",
            "type": "t_bool"
          }
        ],
        "numberOfBytes": "224"
      },
      "t_uint24": {
        "encoding": "inplace",
        "label": "uint24",
        "numberOfBytes": "3"
      },
      "t_uint256": {
        "encoding": "inplace",
        "label": "uint256",
        "numberOfBytes": "32"
      }
    }
  }
}