{
  "address": "0x96e09de2bF0Eb5Cc26Fc332d2350FBE9c8c5A57F",
  "abi": [
    {
      "inputs": [],
      "stateMutability": "nonpayable",
      "type": "constructor"
    },
    {
      "inputs": [
        {
          "internalType": "int256",
          "name": "historicalPrice",
          "type": "int256"
        },
        {
          "internalType": "uint256",
          "name": "timeAgo",
          "type": "uint256"
        }
      ],
      "name": "addHistoricalRound",
      "outputs": [],
      "stateMutability": "nonpayable",
      "type": "function"
    },
    {
      "inputs": [],
      "name": "decimals",
      "outputs": [
        {
          "internalType": "uint8",
          "name": "",
          "type": "uint8"
        }
      ],
      "stateMutability": "view",
      "type": "function"
    },
    {
      "inputs": [
        {
          "internalType": "uint80",
          "name": "_roundId",
          "type": "uint80"
        }
      ],
      "name": "getRoundData",
      "outputs": [
        {
          "internalType": "uint80",
          "name": "",
          "type": "uint80"
        },
        {
          "internalType": "int256",
          "name": "",
          "type": "int256"
        },
        {
          "internalType": "uint256",
          "name": "",
          "type": "uint256"
        },
        {
          "internalType": "uint256",
          "name": "",
          "type": "uint256"
        },
        {
          "internalType": "uint80",
          "name": "",
          "type": "uint80"
        }
      ],
      "stateMutability": "view",
      "type": "function"
    },
    {
      "inputs": [],
      "name": "latestRoundData",
      "outputs": [
        {
          "internalType": "uint80",
          "name": "",
          "type": "uint80"
        },
        {
          "internalType": "int256",
          "name": "",
          "type": "int256"
        },
        {
          "internalType": "uint256",
          "name": "",
          "type": "uint256"
        },
        {
          "internalType": "uint256",
          "name": "",
          "type": "uint256"
        },
        {
          "internalType": "uint80",
          "name": "",
          "type": "uint80"
        }
      ],
      "stateMutability": "view",
      "type": "function"
    },
    {
      "inputs": [
        {
          "internalType": "uint80",
          "name": "",
          "type": "uint80"
        }
      ],
      "name": "rounds",
      "outputs": [
        {
          "internalType": "int256",
          "name": "price",
          "type": "int256"
        },
        {
          "internalType": "uint256",
          "name": "updatedAt",
          "type": "uint256"
        }
      ],
      "stateMutability": "view",
      "type": "function"
    },
    {
      "inputs": [
        {
          "internalType": "int256",
          "name": "newPrice",
          "type": "int256"
        }
      ],
      "name": "setPrice",
      "outputs": [],
      "stateMutability": "nonpayable",
      "type": "function"
    },
    {
      "inputs": [
        {
          "internalType": "int256",
          "name": "newPrice",
          "type": "int256"
        },
        {
          "internalType": "uint256",
          "name": "staleUpdatedAt",
          "type": "uint256"
        }
      ],
      "name": "setStalePrice",
      "outputs": [],
      "stateMutability": "nonpayable",
      "type": "function"
    }
  ],
  "transactionHash": "0xe442ebe9bd2358dd0731d68a07093856ece230a1fd25a537adb72419606db6ef",
  "args": [],
  "numDeployments": 3,
  "solcInputHash": "2bb24ead4130730aca41f7e1d49cfcec",
  "bytecode": "0x60803461009757642e90edd0006000819055600180546001600160581b03191661010817908190554260025560408301916001600160401b038311848410176100815760019260405283526020830190428252828060501b039060081c16600052600360205260406000209251835551910155604051610430908161009d8239f35b634e487b7160e01b600052604160045260246000fd5b600080fdfe60406080815260048036101561001457600080fd5b600090813560e01c908163079ee3f5146102c95781632ede662f14610284578163313ce567146102625781639a6fc8f5146101ae578163eacda91414610133578163f7a30806146100aa575063feaf968c1461006f57600080fd5b346100a757806003193601126100a7576100a360018060501b0360015460081c169154916002548094519485948386610364565b0390f35b80fd5b8391503461012f57602036600319011261012f573580835560018054919290916001600160501b039190610100600160581b036100ec600883901c8516610397565b60081b16906101008560581b03191617918284554260025561010c6103c5565b948552602085019242845260081c16855260036020528420925183555191015580f35b8280fd5b8284346101aa57600161014536610349565b90928385558254838060501b03906101008560581b03610169838360081c16610397565b60081b16906101008660581b03191617808555836002556101886103c5565b9586526020860193845260081c16855260036020528420925183555191015580f35b5080fd5b919050346100a75760203660031901126100a7578135916001600160501b03808416919082850361025e57821515908161024c575b501561021f576020856100a38682878781526003865220926102036103c5565b9060018554958684520154809681930152519485948386610364565b606490602086519162461bcd60e51b835282015260076024820152664e6f206461746160c81b6044820152fd5b905060015460081c16821115386101e3565b8380fd5b8284346101aa57816003193601126101aa5760209060ff600154169051908152f35b8391503461012f57602036600319011261012f57356001600160501b0381169081900361012f5791819281526003602052206001815491015482519182526020820152f35b8284346101aa576102d936610349565b600154919290916001600160501b0390610100600160581b03610301600883901c8416610397565b60081b1690610100600160581b03191617928360015542039242841161033657859650846001959655836002556101886103c5565b634e487b7160e01b865260118752602486fd5b604090600319011261035f576004359060243590565b600080fd5b6001600160501b039182168152602081019290925260408201929092526060810192909252909116608082015260a00190565b6001600160501b03908116600101919082116103af57565b634e487b7160e01b600052601160045260246000fd5b60408051919082016001600160401b038111838210176103e457604052565b634e487b7160e01b600052604160045260246000fdfea264697066735822122044a2656e1ebe7201bd9382ca3b12684b37b7a5ad51e67fd797aa6eec7700a27e64736f6c63430008140033",
  "devdoc": {
    "kind": "dev",
    "methods": {},
    "version": 1
  },
  "userdoc": {
    "kind": "user",
    "methods": {},
    "version": 1
  },
  "storageLayout": {
    "storage": [
      {
        "astId": 26298,
        "contract": "contracts/mocks/MockPriceFeed.sol:MockPriceFeed",
        "label": "price",
        "offset": 0,
        "slot": "0",
        "type": "t_int256"
      },
      {
        "astId": 26300,
        "contract": "contracts/mocks/MockPriceFeed.sol:MockPriceFeed",
        "label": "decimalsValue",
        "offset": 0,
        "slot": "1",
        "type": "t_uint8"
      },
      {
        "astId": 26302,
        "contract": "contracts/mocks/MockPriceFeed.sol:MockPriceFeed",
        "label": "roundId",
        "offset": 1,
        "slot": "1",
        "type": "t_uint80"
      },
      {
        "astId": 26304,
        "contract": "contracts/mocks/MockPriceFeed.sol:MockPriceFeed",
        "label": "updatedAt",
        "offset": 0,
        "slot": "2",
        "type": "t_uint256"
      },
      {
        "astId": 26314,
        "contract": "contracts/mocks/MockPriceFeed.sol:MockPriceFeed",
        "label": "rounds",
        "offset": 0,
        "slot": "3",
        "type": "t_mapping(t_uint80,t_struct(Round)26309_storage)"
      }
    ],
    "types": {
      "t_int256": {
        "encoding": "inplace",
        "label": "int256",
        "numberOfBytes": "32"
      },
      "t_mapping(t_uint80,t_struct(Round)26309_storage)": {
        "encoding": "mapping",
        "key": "t_uint80",
        "label": "mapping(uint80 => struct MockPriceFeed.Round)",
        "numberOfBytes": "32",
        "value": "t_struct(Round)26309_storage"
      },
      "t_struct(Round)26309_storage": {
        "encoding": "inplace",
        "label": "struct MockPriceFeed.Round",
        "members": [
          {
            "astId": 26306,
            "contract": "contracts/mocks/MockPriceFeed.sol:MockPriceFeed",
            "label": "price",
            "offset": 0,
            "slot": "0",
            "type": "t_int256"
          },
          {
            "astId": 26308,
            "contract": "contracts/mocks/MockPriceFeed.sol:MockPriceFeed",
            "label": "updatedAt",
            "offset": 0,
            "slot": "1",
            "type": "t_uint256"
          }
        ],
        "numberOfBytes": "64"
      },
      "t_uint256": {
        "encoding": "inplace",
        "label": "uint256",
        "numberOfBytes": "32"
      },
      "t_uint8": {
        "encoding": "inplace",
        "label": "uint8",
        "numberOfBytes": "1"
      },
      "t_uint80": {
        "encoding": "inplace",
        "label": "uint80",
        "numberOfBytes": "10"
      }
    }
  }
}