{
  "address": "0x2d02B0026f89aDBAC20c8d65EC69141a02F1a582",
  "abi": [
    {
      "inputs": [],
      "stateMutability": "nonpayable",
      "type": "constructor"
    },
    {
      "inputs": [],
      "name": "decimals",
      "outputs": [
        {
          "internalType": "uint8",
          "name": "",
          "type": "uint8"
        }
      ],
      "stateMutability": "view",
      "type": "function"
    },
    {
      "inputs": [],
      "name": "latestRoundData",
      "outputs": [
        {
          "internalType": "uint80",
          "name": "",
          "type": "uint80"
        },
        {
          "internalType": "int256",
          "name": "",
          "type": "int256"
        },
        {
          "internalType": "uint256",
          "name": "",
          "type": "uint256"
        },
        {
          "internalType": "uint256",
          "name": "",
          "type": "uint256"
        },
        {
          "internalType": "uint80",
          "name": "",
          "type": "uint80"
        }
      ],
      "stateMutability": "view",
      "type": "function"
    },
    {
      "inputs": [
        {
          "internalType": "int256",
          "name": "newPrice",
          "type": "int256"
        }
      ],
      "name": "setPrice",
      "outputs": [],
      "stateMutability": "nonpayable",
      "type": "function"
    },
    {
      "inputs": [
        {
          "internalType": "int256",
          "name": "newPrice",
          "type": "int256"
        },
        {
          "internalType": "uint256",
          "name": "staleUpdatedAt",
          "type": "uint256"
        }
      ],
      "name": "setStalePrice",
      "outputs": [],
      "stateMutability": "nonpayable",
      "type": "function"
    }
  ],
  "transactionHash": "0xb5142e6e8feb09cbdcc3eecb02afbf0be3d6f9af50138bcde2c579aa22747894",
  "args": [],
  "numDeployments": 2,
  "solcInputHash": "06ed55c210f5261d3a1b3b81955a71e5",
  "bytecode": "0x6080806040523461003757642e90edd000600055600180546001600160581b031916610108179055426002556101dd908161003d8239f35b600080fdfe608080604052600436101561001357600080fd5b600090813560e01c908163313ce5671461015357508063eacda914146100f5578063f7a30806146100995763feaf968c1461004d57600080fd5b3461009657806003193601126100965760a09069ffffffffffffffffffff60015460081c1690549060025460405192828452602084015280604084015260608301526080820152f35b80fd5b50346100965760203660031901126100965760043581556001546affffffffffffffffffff006100d769ffffffffffffffffffff8360081c16610176565b60081b16906affffffffffffffffffff001916176001554260025580f35b50346100965760403660031901126100965760043581556001546affffffffffffffffffff0061013369ffffffffffffffffffff8360081c16610176565b60081b16906affffffffffffffffffff0019161760015560243560025580f35b90503461017257816003193601126101725760209060ff600154168152f35b5080fd5b90600169ffffffffffffffffffff8093160191821161019157565b634e487b7160e01b600052601160045260246000fdfea264697066735822122065f0a429e3bc8e4c35bb40d2f311333152020eca47cf180f7b2913f83c9832b764736f6c63430008140033",
  "devdoc": {
    "kind": "dev",
    "methods": {},
    "version": 1
  },
  "userdoc": {
    "kind": "user",
    "methods": {},
    "version": 1
  },
  "storageLayout": {
    "storage": [
      {
        "astId": 13355,
        "contract": "contracts/mocks/MockPriceFeed.sol:MockPriceFeed",
        "label": "price",
        "offset": 0,
        "slot": "0",
        "type": "t_int256"
      },
      {
        "astId": 13357,
        "contract": "contracts/mocks/MockPriceFeed.sol:MockPriceFeed",
        "label": "decimalsValue",
        "offset": 0,
        "slot": "1",
        "type": "t_uint8"
      },
      {
        "astId": 13359,
        "contract": "contracts/mocks/MockPriceFeed.sol:MockPriceFeed",
        "label": "roundId",
        "offset": 1,
        "slot": "1",
        "type": "t_uint80"
      },
      {
        "astId": 13361,
        "contract": "contracts/mocks/MockPriceFeed.sol:MockPriceFeed",
        "label": "updatedAt",
        "offset": 0,
        "slot": "2",
        "type": "t_uint256"
      }
    ],
    "types": {
      "t_int256": {
        "encoding": "inplace",
        "label": "int256",
        "numberOfBytes": "32"
      },
      "t_uint256": {
        "encoding": "inplace",
        "label": "uint256",
        "numberOfBytes": "32"
      },
      "t_uint8": {
        "encoding": "inplace",
        "label": "uint8",
        "numberOfBytes": "1"
      },
      "t_uint80": {
        "encoding": "inplace",
        "label": "uint80",
        "numberOfBytes": "10"
      }
    }
  }
}