{
  "address": "0x0628494BDafa454d56E89273bBbb01E5A64627fC",
  "abi": [
    {
      "inputs": [
        {
          "components": [
            {
              "internalType": "bytes",
              "name": "path",
              "type": "bytes"
            },
            {
              "internalType": "address",
              "name": "recipient",
              "type": "address"
            },
            {
              "internalType": "uint256",
              "name": "deadline",
              "type": "uint256"
            },
            {
              "internalType": "uint256",
              "name": "amountIn",
              "type": "uint256"
            },
            {
              "internalType": "uint256",
              "name": "amountOutMinimum",
              "type": "uint256"
            }
          ],
          "internalType": "struct ISwapRouter.ExactInputParams",
          "name": "",
          "type": "tuple"
        }
      ],
      "name": "exactInput",
      "outputs": [
        {
          "internalType": "uint256",
          "name": "",
          "type": "uint256"
        }
      ],
      "stateMutability": "payable",
      "type": "function"
    },
    {
      "inputs": [
        {
          "components": [
            {
              "internalType": "address",
              "name": "tokenIn",
              "type": "address"
            },
            {
              "internalType": "address",
              "name": "tokenOut",
              "type": "address"
            },
            {
              "internalType": "uint24",
              "name": "fee",
              "type": "uint24"
            },
            {
              "internalType": "address",
              "name": "recipient",
              "type": "address"
            },
            {
              "internalType": "uint256",
              "name": "deadline",
              "type": "uint256"
            },
            {
              "internalType": "uint256",
              "name": "amountIn",
              "type": "uint256"
            },
            {
              "internalType": "uint256",
              "name": "amountOutMinimum",
              "type": "uint256"
            },
            {
              "internalType": "uint160",
              "name": "sqrtPriceLimitX96",
              "type": "uint160"
            }
          ],
          "internalType": "struct ISwapRouter.ExactInputSingleParams",
          "name": "params",
          "type": "tuple"
        }
      ],
      "name": "exactInputSingle",
      "outputs": [
        {
          "internalType": "uint256",
          "name": "amountOut",
          "type": "uint256"
        }
      ],
      "stateMutability": "payable",
      "type": "function"
    },
    {
      "inputs": [
        {
          "components": [
            {
              "internalType": "bytes",
              "name": "path",
              "type": "bytes"
            },
            {
              "internalType": "address",
              "name": "recipient",
              "type": "address"
            },
            {
              "internalType": "uint256",
              "name": "deadline",
              "type": "uint256"
            },
            {
              "internalType": "uint256",
              "name": "amountOut",
              "type": "uint256"
            },
            {
              "internalType": "uint256",
              "name": "amountInMaximum",
              "type": "uint256"
            }
          ],
          "internalType": "struct ISwapRouter.ExactOutputParams",
          "name": "",
          "type": "tuple"
        }
      ],
      "name": "exactOutput",
      "outputs": [
        {
          "internalType": "uint256",
          "name": "",
          "type": "uint256"
        }
      ],
      "stateMutability": "payable",
      "type": "function"
    },
    {
      "inputs": [
        {
          "components": [
            {
              "internalType": "address",
              "name": "tokenIn",
              "type": "address"
            },
            {
              "internalType": "address",
              "name": "tokenOut",
              "type": "address"
            },
            {
              "internalType": "uint24",
              "name": "fee",
              "type": "uint24"
            },
            {
              "internalType": "address",
              "name": "recipient",
              "type": "address"
            },
            {
              "internalType": "uint256",
              "name": "deadline",
              "type": "uint256"
            },
            {
              "internalType": "uint256",
              "name": "amountOut",
              "type": "uint256"
            },
            {
              "internalType": "uint256",
              "name": "amountInMaximum",
              "type": "uint256"
            },
            {
              "internalType": "uint160",
              "name": "sqrtPriceLimitX96",
              "type": "uint160"
            }
          ],
          "internalType": "struct ISwapRouter.ExactOutputSingleParams",
          "name": "",
          "type": "tuple"
        }
      ],
      "name": "exactOutputSingle",
      "outputs": [
        {
          "internalType": "uint256",
          "name": "",
          "type": "uint256"
        }
      ],
      "stateMutability": "payable",
      "type": "function"
    },
    {
      "inputs": [
        {
          "internalType": "int256",
          "name": "",
          "type": "int256"
        },
        {
          "internalType": "int256",
          "name": "",
          "type": "int256"
        },
        {
          "internalType": "bytes",
          "name": "",
          "type": "bytes"
        }
      ],
      "name": "uniswapV3SwapCallback",
      "outputs": [],
      "stateMutability": "pure",
      "type": "function"
    }
  ],
  "transactionHash": "0x38d5aa1de9eb6e3dc81f8d7e224dd153e4bb21f0cfd6ad10e8d38e22df89da25",
  "args": [],
  "numDeployments": 2,
  "solcInputHash": "2bb24ead4130730aca41f7e1d49cfcec",
  "bytecode": "0x608080604052346100165761042f908161001c8239f35b600080fdfe60406080815260048036101561001457600080fd5b6000803560e01c8063414bf38914610154578063c04b8d59146100d2578063db3e219814610111578063f28c0498146100d25763fa461e331461005657600080fd5b346100cb5760603660031901126100cb576044356001600160401b038082116100ce57366023830112156100ce57818401359081116100ce57369101602401116100cb57506020606492519162461bcd60e51b8352820152600b60248201526a1d5b9cdd5c1c1bdc9d195960aa1b6044820152fd5b80fd5b8280fd5b6064836020866100e136610179565b505162461bcd60e51b815291820152600f60248201526e1b9bdd081a5b5c1b195b595b9d1959608a1b6044820152fd5b506101003660031901126100cb57506020606492519162461bcd60e51b8352820152600f60248201526e1b9bdd081a5b5c1b195b595b9d1959608a1b6044820152fd5b50826101003660031901126101755760209061016e610260565b9051908152f35b5080fd5b600319906020818301126101aa57600435916001600160401b0383116101aa578260a0920301126101aa5760040190565b600080fd5b601f909101601f19168101906001600160401b038211908210176101d257604052565b634e487b7160e01b600052604160045260246000fd5b908160209103126101aa575180151581036101aa5790565b6001600160a01b03918216815291166020820152604081019190915260600190565b1561022957565b60405162461bcd60e51b815260206004820152600f60248201526e1d1c985b9cd9995c8819985a5b1959608a1b6044820152606490fd5b6001600160a01b0390600435828116908190036101aa576024358381168091036101aa578082146103805760a43591604051946323b872dd60e01b8652602092868481806102b389303360048501610200565b0360009a8b80985af18015610375576102d3918591610358575b50610222565b6064359182168092036100ce5760448492604051948593849263a9059cbb60e01b845260048401528860248401525af191821561034d5761031d93949592610320575b5050610222565b90565b61033f9250803d10610346575b61033781836101af565b8101906101e8565b3880610316565b503d61032d565b6040513d87823e3d90fd5b61036f9150863d88116103465761033781836101af565b386102cd565b6040513d86823e3d90fd5b50909160643590811681036101aa5760206103ba9160a43593849160006040518096819582946323b872dd60e01b84523360048501610200565b03925af180156103ed5761031d916000916103d55750610222565b61036f915060203d81116103465761033781836101af565b6040513d6000823e3d90fdfea2646970667358221220c64a326cb3f7b61dcc78a6392c8a22fcb41cb87c16a8b3e22504d7f76cf661d964736f6c63430008140033",
  "devdoc": {
    "kind": "dev",
    "methods": {
      "exactInputSingle((address,address,uint24,address,uint256,uint256,uint256,uint160))": {
        "params": {
          "params": "The parameters necessary for the swap, encoded as `ExactInputSingleParams` in calldata"
        },
        "returns": {
          "amountOut": "The amount of the received token"
        }
      }
    },
    "version": 1
  },
  "userdoc": {
    "kind": "user",
    "methods": {
      "exactInputSingle((address,address,uint24,address,uint256,uint256,uint256,uint160))": {
        "notice": "Swaps `amountIn` of one token for as much as possible of another token"
      }
    },
    "version": 1
  },
  "storageLayout": {
    "storage": [],
    "types": null
  }
}