{
  "address": "0xd77FC2abbAa127eFd00E6b775C437a54f0756762",
  "abi": [
    {
      "inputs": [],
      "stateMutability": "nonpayable",
      "type": "constructor"
    },
    {
      "inputs": [],
      "name": "decimals",
      "outputs": [
        {
          "internalType": "uint8",
          "name": "",
          "type": "uint8"
        }
      ],
      "stateMutability": "view",
      "type": "function"
    },
    {
      "inputs": [],
      "name": "latestRoundData",
      "outputs": [
        {
          "internalType": "uint80",
          "name": "",
          "type": "uint80"
        },
        {
          "internalType": "int256",
          "name": "",
          "type": "int256"
        },
        {
          "internalType": "uint256",
          "name": "",
          "type": "uint256"
        },
        {
          "internalType": "uint256",
          "name": "",
          "type": "uint256"
        },
        {
          "internalType": "uint80",
          "name": "",
          "type": "uint80"
        }
      ],
      "stateMutability": "view",
      "type": "function"
    },
    {
      "inputs": [
        {
          "internalType": "int256",
          "name": "newPrice",
          "type": "int256"
        }
      ],
      "name": "setPrice",
      "outputs": [],
      "stateMutability": "nonpayable",
      "type": "function"
    }
  ],
  "transactionHash": "0x28c5e2aa1cd43d0c824b206ee22309f8a6445c713cbea9c37feb9c94910aee62",
  "args": [],
  "numDeployments": 1,
  "solcInputHash": "59243d003e81bfe1b4537c0ad03dbf63",
  "bytecode": "0x6080806040523461002b57642e90edd000600055600860ff19600154161760015560e390816100318239f35b600080fdfe6080806040526004361015601257600080fd5b600090813560e01c908163313ce56714608c57508063f7a308061460745763feaf968c14603e57600080fd5b34607157806003193601126071578060a09154906040519181835260208301528060408301528060608301526080820152f35b80fd5b50346071576020366003190112607157600435815580f35b90503460a9578160031936011260a95760209060ff600154168152f35b5080fdfea2646970667358221220092c748ac8c25639c051cb68c3bb56a454217afc8d4a60ea310a4e501ceb86bd64736f6c63430008140033",
  "devdoc": {
    "kind": "dev",
    "methods": {},
    "version": 1
  },
  "userdoc": {
    "kind": "user",
    "methods": {},
    "version": 1
  },
  "storageLayout": {
    "storage": [
      {
        "astId": 5118,
        "contract": "contracts/mocks/MockPriceFeed.sol:MockPriceFeed",
        "label": "price",
        "offset": 0,
        "slot": "0",
        "type": "t_int256"
      },
      {
        "astId": 5120,
        "contract": "contracts/mocks/MockPriceFeed.sol:MockPriceFeed",
        "label": "decimalsValue",
        "offset": 0,
        "slot": "1",
        "type": "t_uint8"
      }
    ],
    "types": {
      "t_int256": {
        "encoding": "inplace",
        "label": "int256",
        "numberOfBytes": "32"
      },
      "t_uint8": {
        "encoding": "inplace",
        "label": "uint8",
        "numberOfBytes": "1"
      }
    }
  }
}