{
  "address": "0x30b2Ba053D2D74780DdD100eC9a40D80Abaa098D",
  "abi": [
    {
      "inputs": [
        {
          "components": [
            {
              "internalType": "bytes",
              "name": "path",
              "type": "bytes"
            },
            {
              "internalType": "address",
              "name": "recipient",
              "type": "address"
            },
            {
              "internalType": "uint256",
              "name": "deadline",
              "type": "uint256"
            },
            {
              "internalType": "uint256",
              "name": "amountIn",
              "type": "uint256"
            },
            {
              "internalType": "uint256",
              "name": "amountOutMinimum",
              "type": "uint256"
            }
          ],
          "internalType": "struct ISwapRouter.ExactInputParams",
          "name": "",
          "type": "tuple"
        }
      ],
      "name": "exactInput",
      "outputs": [
        {
          "internalType": "uint256",
          "name": "",
          "type": "uint256"
        }
      ],
      "stateMutability": "payable",
      "type": "function"
    },
    {
      "inputs": [
        {
          "components": [
            {
              "internalType": "address",
              "name": "tokenIn",
              "type": "address"
            },
            {
              "internalType": "address",
              "name": "tokenOut",
              "type": "address"
            },
            {
              "internalType": "uint24",
              "name": "fee",
              "type": "uint24"
            },
            {
              "internalType": "address",
              "name": "recipient",
              "type": "address"
            },
            {
              "internalType": "uint256",
              "name": "deadline",
              "type": "uint256"
            },
            {
              "internalType": "uint256",
              "name": "amountIn",
              "type": "uint256"
            },
            {
              "internalType": "uint256",
              "name": "amountOutMinimum",
              "type": "uint256"
            },
            {
              "internalType": "uint160",
              "name": "sqrtPriceLimitX96",
              "type": "uint160"
            }
          ],
          "internalType": "struct ISwapRouter.ExactInputSingleParams",
          "name": "params",
          "type": "tuple"
        }
      ],
      "name": "exactInputSingle",
      "outputs": [
        {
          "internalType": "uint256",
          "name": "amountOut",
          "type": "uint256"
        }
      ],
      "stateMutability": "payable",
      "type": "function"
    },
    {
      "inputs": [
        {
          "components": [
            {
              "internalType": "bytes",
              "name": "path",
              "type": "bytes"
            },
            {
              "internalType": "address",
              "name": "recipient",
              "type": "address"
            },
            {
              "internalType": "uint256",
              "name": "deadline",
              "type": "uint256"
            },
            {
              "internalType": "uint256",
              "name": "amountOut",
              "type": "uint256"
            },
            {
              "internalType": "uint256",
              "name": "amountInMaximum",
              "type": "uint256"
            }
          ],
          "internalType": "struct ISwapRouter.ExactOutputParams",
          "name": "",
          "type": "tuple"
        }
      ],
      "name": "exactOutput",
      "outputs": [
        {
          "internalType": "uint256",
          "name": "",
          "type": "uint256"
        }
      ],
      "stateMutability": "payable",
      "type": "function"
    },
    {
      "inputs": [
        {
          "components": [
            {
              "internalType": "address",
              "name": "tokenIn",
              "type": "address"
            },
            {
              "internalType": "address",
              "name": "tokenOut",
              "type": "address"
            },
            {
              "internalType": "uint24",
              "name": "fee",
              "type": "uint24"
            },
            {
              "internalType": "address",
              "name": "recipient",
              "type": "address"
            },
            {
              "internalType": "uint256",
              "name": "deadline",
              "type": "uint256"
            },
            {
              "internalType": "uint256",
              "name": "amountOut",
              "type": "uint256"
            },
            {
              "internalType": "uint256",
              "name": "amountInMaximum",
              "type": "uint256"
            },
            {
              "internalType": "uint160",
              "name": "sqrtPriceLimitX96",
              "type": "uint160"
            }
          ],
          "internalType": "struct ISwapRouter.ExactOutputSingleParams",
          "name": "",
          "type": "tuple"
        }
      ],
      "name": "exactOutputSingle",
      "outputs": [
        {
          "internalType": "uint256",
          "name": "",
          "type": "uint256"
        }
      ],
      "stateMutability": "payable",
      "type": "function"
    },
    {
      "inputs": [
        {
          "internalType": "int256",
          "name": "",
          "type": "int256"
        },
        {
          "internalType": "int256",
          "name": "",
          "type": "int256"
        },
        {
          "internalType": "bytes",
          "name": "",
          "type": "bytes"
        }
      ],
      "name": "uniswapV3SwapCallback",
      "outputs": [],
      "stateMutability": "pure",
      "type": "function"
    }
  ],
  "transactionHash": "0x471b6b2abbf72da522ddc2e5d9ca15c4b1ec97c31fd97b60b2d8e711f9ecc2cd",
  "args": [],
  "numDeployments": 1,
  "solcInputHash": "ad2d00673498c6bd78abd43517227e0c",
  "bytecode": "0x6080806040523461001657610428908161001c8239f35b600080fdfe60406080815260048036101561001457600080fd5b6000803560e01c8063414bf38914610155578063c04b8d59146100d3578063db3e219814610112578063f28c0498146100d35763fa461e331461005657600080fd5b346100cc5760603660031901126100cc5760443567ffffffffffffffff8082116100cf57366023830112156100cf57818401359081116100cf57369101602401116100cc57506020606492519162461bcd60e51b8352820152600b60248201526a1d5b9cdd5c1c1bdc9d195960aa1b6044820152fd5b80fd5b8280fd5b6064836020866100e23661017a565b505162461bcd60e51b815291820152600f60248201526e1b9bdd081a5b5c1b195b595b9d1959608a1b6044820152fd5b506101003660031901126100cc57506020606492519162461bcd60e51b8352820152600f60248201526e1b9bdd081a5b5c1b195b595b9d1959608a1b6044820152fd5b50826101003660031901126101765760209061016f61023f565b9051908152f35b5080fd5b600319906020818301126101ac576004359167ffffffffffffffff83116101ac578260a0920301126101ac5760040190565b600080fd5b90601f8019910116810190811067ffffffffffffffff8211176101d357604052565b634e487b7160e01b600052604160045260246000fd5b908160209103126101ac575180151581036101ac5790565b1561020857565b60405162461bcd60e51b815260206004820152600f60248201526e1d1c985b9cd9995c8819985a5b1959608a1b6044820152606490fd5b6001600160a01b0390600435828116908190036101ac576024358381168091036101ac5780821461036a576040516323b872dd60e01b815233600482015230602482015260a4356044820181905260009590936020938793909185908290606490829088905af1801561035f576102bd918591610342575b50610201565b6064359182168092036100cf5760448492604051948593849263a9059cbb60e01b845260048401528860248401525af1918215610337576103079394959261030a575b5050610201565b90565b6103299250803d10610330575b61032181836101b1565b8101906101e9565b3880610300565b503d610317565b6040513d87823e3d90fd5b6103599150863d88116103305761032181836101b1565b386102b7565b6040513d86823e3d90fd5b50909160643590811681036101ac576040516323b872dd60e01b81523360048201526001600160a01b0391909116602482015260a4356044820181905291602090829060649082906000905af180156103e657610307916000916103ce5750610201565b610359915060203d81116103305761032181836101b1565b6040513d6000823e3d90fdfea2646970667358221220ae03ea931b58bb506e147cf57a6c45905459e085069f3ef35e326a7912dbb39764736f6c63430008140033",
  "devdoc": {
    "kind": "dev",
    "methods": {
      "exactInputSingle((address,address,uint24,address,uint256,uint256,uint256,uint160))": {
        "params": {
          "params": "The parameters necessary for the swap, encoded as `ExactInputSingleParams` in calldata"
        },
        "returns": {
          "amountOut": "The amount of the received token"
        }
      }
    },
    "version": 1
  },
  "userdoc": {
    "kind": "user",
    "methods": {
      "exactInputSingle((address,address,uint24,address,uint256,uint256,uint256,uint160))": {
        "notice": "Swaps `amountIn` of one token for as much as possible of another token"
      }
    },
    "version": 1
  },
  "storageLayout": {
    "storage": [],
    "types": null
  }
}