{
  "address": "0x3d99E7Bf55d332610F4b05FFDAAa846Bd761827e",
  "abi": [
    {
      "inputs": [
        {
          "internalType": "address",
          "name": "_priceFeed",
          "type": "address"
        }
      ],
      "stateMutability": "nonpayable",
      "type": "constructor"
    },
    {
      "inputs": [
        {
          "internalType": "address",
          "name": "owner",
          "type": "address"
        }
      ],
      "name": "OwnableInvalidOwner",
      "type": "error"
    },
    {
      "inputs": [
        {
          "internalType": "address",
          "name": "account",
          "type": "address"
        }
      ],
      "name": "OwnableUnauthorizedAccount",
      "type": "error"
    },
    {
      "anonymous": false,
      "inputs": [
        {
          "indexed": false,
          "internalType": "bool",
          "name": "enabled",
          "type": "bool"
        },
        {
          "indexed": false,
          "internalType": "uint256",
          "name": "delaySeconds",
          "type": "uint256"
        }
      ],
      "name": "AdminTimelockConfigUpdated",
      "type": "event"
    },
    {
      "anonymous": false,
      "inputs": [],
      "name": "DefaultPriceFeedCancelled",
      "type": "event"
    },
    {
      "anonymous": false,
      "inputs": [
        {
          "indexed": true,
          "internalType": "address",
          "name": "feed",
          "type": "address"
        },
        {
          "indexed": false,
          "internalType": "uint256",
          "name": "executeAfter",
          "type": "uint256"
        }
      ],
      "name": "DefaultPriceFeedQueued",
      "type": "event"
    },
    {
      "anonymous": false,
      "inputs": [
        {
          "indexed": false,
          "internalType": "uint256",
          "name": "penaltyPerBps",
          "type": "uint256"
        },
        {
          "indexed": false,
          "internalType": "uint256",
          "name": "maxPenaltyBps",
          "type": "uint256"
        }
      ],
      "name": "DrawdownParamsUpdated",
      "type": "event"
    },
    {
      "anonymous": false,
      "inputs": [
        {
          "indexed": true,
          "internalType": "address",
          "name": "previousOwner",
          "type": "address"
        },
        {
          "indexed": true,
          "internalType": "address",
          "name": "newOwner",
          "type": "address"
        }
      ],
      "name": "OwnershipTransferred",
      "type": "event"
    },
    {
      "anonymous": false,
      "inputs": [
        {
          "indexed": false,
          "internalType": "uint256",
          "name": "rangeVolWeightBps",
          "type": "uint256"
        }
      ],
      "name": "RangeVolWeightUpdated",
      "type": "event"
    },
    {
      "anonymous": false,
      "inputs": [
        {
          "indexed": true,
          "internalType": "address",
          "name": "token",
          "type": "address"
        },
        {
          "indexed": false,
          "internalType": "uint256",
          "name": "ath",
          "type": "uint256"
        },
        {
          "indexed": false,
          "internalType": "uint256",
          "name": "atl",
          "type": "uint256"
        },
        {
          "indexed": false,
          "internalType": "uint8",
          "name": "decimals",
          "type": "uint8"
        }
      ],
      "name": "TokenPriceBoundsUpdated",
      "type": "event"
    },
    {
      "anonymous": false,
      "inputs": [
        {
          "indexed": true,
          "internalType": "address",
          "name": "token",
          "type": "address"
        }
      ],
      "name": "TokenPriceFeedCancelled",
      "type": "event"
    },
    {
      "anonymous": false,
      "inputs": [
        {
          "indexed": true,
          "internalType": "address",
          "name": "token",
          "type": "address"
        },
        {
          "indexed": true,
          "internalType": "address",
          "name": "feed",
          "type": "address"
        },
        {
          "indexed": false,
          "internalType": "uint256",
          "name": "executeAfter",
          "type": "uint256"
        }
      ],
      "name": "TokenPriceFeedQueued",
      "type": "event"
    },
    {
      "inputs": [],
      "name": "BASE_LTV_BPS",
      "outputs": [
        {
          "internalType": "uint256",
          "name": "",
          "type": "uint256"
        }
      ],
      "stateMutability": "view",
      "type": "function"
    },
    {
      "inputs": [],
      "name": "BPS_DENOMINATOR",
      "outputs": [
        {
          "internalType": "uint256",
          "name": "",
          "type": "uint256"
        }
      ],
      "stateMutability": "view",
      "type": "function"
    },
    {
      "inputs": [],
      "name": "adminTimelockDelay",
      "outputs": [
        {
          "internalType": "uint256",
          "name": "",
          "type": "uint256"
        }
      ],
      "stateMutability": "view",
      "type": "function"
    },
    {
      "inputs": [],
      "name": "adminTimelockEnabled",
      "outputs": [
        {
          "internalType": "bool",
          "name": "",
          "type": "bool"
        }
      ],
      "stateMutability": "view",
      "type": "function"
    },
    {
      "inputs": [],
      "name": "cancelQueuedPriceFeed",
      "outputs": [],
      "stateMutability": "nonpayable",
      "type": "function"
    },
    {
      "inputs": [
        {
          "internalType": "address",
          "name": "token",
          "type": "address"
        }
      ],
      "name": "cancelQueuedTokenPriceFeed",
      "outputs": [],
      "stateMutability": "nonpayable",
      "type": "function"
    },
    {
      "inputs": [
        {
          "internalType": "address",
          "name": "token",
          "type": "address"
        }
      ],
      "name": "clearTokenPriceBounds",
      "outputs": [],
      "stateMutability": "nonpayable",
      "type": "function"
    },
    {
      "inputs": [
        {
          "internalType": "uint256",
          "name": "quantity",
          "type": "uint256"
        },
        {
          "internalType": "address",
          "name": "token",
          "type": "address"
        },
        {
          "internalType": "uint256",
          "name": "unlockTime",
          "type": "uint256"
        }
      ],
      "name": "computeDPV",
      "outputs": [
        {
          "internalType": "uint256",
          "name": "pv",
          "type": "uint256"
        },
        {
          "internalType": "uint256",
          "name": "ltvBps",
          "type": "uint256"
        }
      ],
      "stateMutability": "view",
      "type": "function"
    },
    {
      "inputs": [],
      "name": "drawdownPenaltyPerBps",
      "outputs": [
        {
          "internalType": "uint256",
          "name": "",
          "type": "uint256"
        }
      ],
      "stateMutability": "view",
      "type": "function"
    },
    {
      "inputs": [],
      "name": "executeQueuedPriceFeed",
      "outputs": [],
      "stateMutability": "nonpayable",
      "type": "function"
    },
    {
      "inputs": [
        {
          "internalType": "address",
          "name": "token",
          "type": "address"
        }
      ],
      "name": "executeQueuedTokenPriceFeed",
      "outputs": [],
      "stateMutability": "nonpayable",
      "type": "function"
    },
    {
      "inputs": [
        {
          "internalType": "address",
          "name": "token",
          "type": "address"
        }
      ],
      "name": "getPriceFeedForToken",
      "outputs": [
        {
          "internalType": "address",
          "name": "",
          "type": "address"
        }
      ],
      "stateMutability": "view",
      "type": "function"
    },
    {
      "inputs": [],
      "name": "maxDrawdownPenaltyBps",
      "outputs": [
        {
          "internalType": "uint256",
          "name": "",
          "type": "uint256"
        }
      ],
      "stateMutability": "view",
      "type": "function"
    },
    {
      "inputs": [],
      "name": "maxPriceAge",
      "outputs": [
        {
          "internalType": "uint256",
          "name": "",
          "type": "uint256"
        }
      ],
      "stateMutability": "view",
      "type": "function"
    },
    {
      "inputs": [],
      "name": "owner",
      "outputs": [
        {
          "internalType": "address",
          "name": "",
          "type": "address"
        }
      ],
      "stateMutability": "view",
      "type": "function"
    },
    {
      "inputs": [],
      "name": "pendingDefaultFeed",
      "outputs": [
        {
          "internalType": "address",
          "name": "feed",
          "type": "address"
        },
        {
          "internalType": "uint256",
          "name": "executeAfter",
          "type": "uint256"
        },
        {
          "internalType": "bool",
          "name": "exists",
          "type": "bool"
        }
      ],
      "stateMutability": "view",
      "type": "function"
    },
    {
      "inputs": [
        {
          "internalType": "address",
          "name": "",
          "type": "address"
        }
      ],
      "name": "pendingTokenFeeds",
      "outputs": [
        {
          "internalType": "address",
          "name": "feed",
          "type": "address"
        },
        {
          "internalType": "uint256",
          "name": "executeAfter",
          "type": "uint256"
        },
        {
          "internalType": "bool",
          "name": "exists",
          "type": "bool"
        }
      ],
      "stateMutability": "view",
      "type": "function"
    },
    {
      "inputs": [],
      "name": "priceFeed",
      "outputs": [
        {
          "internalType": "contract AggregatorV3Interface",
          "name": "",
          "type": "address"
        }
      ],
      "stateMutability": "view",
      "type": "function"
    },
    {
      "inputs": [
        {
          "internalType": "address",
          "name": "newPriceFeed",
          "type": "address"
        }
      ],
      "name": "queuePriceFeed",
      "outputs": [],
      "stateMutability": "nonpayable",
      "type": "function"
    },
    {
      "inputs": [
        {
          "internalType": "address",
          "name": "token",
          "type": "address"
        },
        {
          "internalType": "address",
          "name": "feed",
          "type": "address"
        }
      ],
      "name": "queueTokenPriceFeed",
      "outputs": [],
      "stateMutability": "nonpayable",
      "type": "function"
    },
    {
      "inputs": [],
      "name": "rangeVolWeightBps",
      "outputs": [
        {
          "internalType": "uint256",
          "name": "",
          "type": "uint256"
        }
      ],
      "stateMutability": "view",
      "type": "function"
    },
    {
      "inputs": [],
      "name": "renounceOwnership",
      "outputs": [],
      "stateMutability": "nonpayable",
      "type": "function"
    },
    {
      "inputs": [],
      "name": "riskFreeRate",
      "outputs": [
        {
          "internalType": "uint256",
          "name": "",
          "type": "uint256"
        }
      ],
      "stateMutability": "view",
      "type": "function"
    },
    {
      "inputs": [
        {
          "internalType": "bool",
          "name": "enabled",
          "type": "bool"
        },
        {
          "internalType": "uint256",
          "name": "delaySeconds",
          "type": "uint256"
        }
      ],
      "name": "setAdminTimelockConfig",
      "outputs": [],
      "stateMutability": "nonpayable",
      "type": "function"
    },
    {
      "inputs": [
        {
          "internalType": "uint256",
          "name": "penaltyPerBps",
          "type": "uint256"
        },
        {
          "internalType": "uint256",
          "name": "maxPenaltyBps",
          "type": "uint256"
        }
      ],
      "name": "setDrawdownParams",
      "outputs": [],
      "stateMutability": "nonpayable",
      "type": "function"
    },
    {
      "inputs": [
        {
          "internalType": "uint256",
          "name": "newMaxPriceAge",
          "type": "uint256"
        }
      ],
      "name": "setMaxPriceAge",
      "outputs": [],
      "stateMutability": "nonpayable",
      "type": "function"
    },
    {
      "inputs": [
        {
          "internalType": "address",
          "name": "newPriceFeed",
          "type": "address"
        }
      ],
      "name": "setPriceFeed",
      "outputs": [],
      "stateMutability": "nonpayable",
      "type": "function"
    },
    {
      "inputs": [
        {
          "internalType": "uint256",
          "name": "weightBps",
          "type": "uint256"
        }
      ],
      "name": "setRangeVolWeight",
      "outputs": [],
      "stateMutability": "nonpayable",
      "type": "function"
    },
    {
      "inputs": [
        {
          "internalType": "uint256",
          "name": "newRate",
          "type": "uint256"
        }
      ],
      "name": "setRiskFreeRate",
      "outputs": [],
      "stateMutability": "nonpayable",
      "type": "function"
    },
    {
      "inputs": [
        {
          "internalType": "address",
          "name": "token",
          "type": "address"
        },
        {
          "internalType": "uint256",
          "name": "ath",
          "type": "uint256"
        },
        {
          "internalType": "uint256",
          "name": "atl",
          "type": "uint256"
        },
        {
          "internalType": "uint8",
          "name": "boundsDecimals",
          "type": "uint8"
        }
      ],
      "name": "setTokenPriceBounds",
      "outputs": [],
      "stateMutability": "nonpayable",
      "type": "function"
    },
    {
      "inputs": [
        {
          "internalType": "address",
          "name": "token",
          "type": "address"
        },
        {
          "internalType": "address",
          "name": "feed",
          "type": "address"
        }
      ],
      "name": "setTokenPriceFeed",
      "outputs": [],
      "stateMutability": "nonpayable",
      "type": "function"
    },
    {
      "inputs": [
        {
          "internalType": "uint256",
          "name": "newVol",
          "type": "uint256"
        }
      ],
      "name": "setVolatility",
      "outputs": [],
      "stateMutability": "nonpayable",
      "type": "function"
    },
    {
      "inputs": [
        {
          "internalType": "address",
          "name": "",
          "type": "address"
        }
      ],
      "name": "tokenPriceBounds",
      "outputs": [
        {
          "internalType": "uint256",
          "name": "ath",
          "type": "uint256"
        },
        {
          "internalType": "uint256",
          "name": "atl",
          "type": "uint256"
        },
        {
          "internalType": "uint8",
          "name": "decimals",
          "type": "uint8"
        },
        {
          "internalType": "bool",
          "name": "set",
          "type": "bool"
        }
      ],
      "stateMutability": "view",
      "type": "function"
    },
    {
      "inputs": [
        {
          "internalType": "address",
          "name": "",
          "type": "address"
        }
      ],
      "name": "tokenPriceFeeds",
      "outputs": [
        {
          "internalType": "address",
          "name": "",
          "type": "address"
        }
      ],
      "stateMutability": "view",
      "type": "function"
    },
    {
      "inputs": [
        {
          "internalType": "address",
          "name": "newOwner",
          "type": "address"
        }
      ],
      "name": "transferOwnership",
      "outputs": [],
      "stateMutability": "nonpayable",
      "type": "function"
    },
    {
      "inputs": [],
      "name": "volatility",
      "outputs": [
        {
          "internalType": "uint256",
          "name": "",
          "type": "uint256"
        }
      ],
      "stateMutability": "view",
      "type": "function"
    }
  ],
  "transactionHash": "0x6bc64998bb2ab138bbbc375a8e935f1ef40b280d68a6099f6bfa5aafe097be21",
  "args": [
    "0x2d02B0026f89aDBAC20c8d65EC69141a02F1a582"
  ],
  "numDeployments": 2,
  "solcInputHash": "bd154e2888165faf80200a9bb0086015",
  "bytecode": "0x6080346100ef57601f62002b2a38819003918201601f19168301916001600160401b038311848410176100f4578084926020946040528339810103126100ef57516001600160a01b0390818116908190036100ef5733156100d65760005460018060a01b0319903382821617600055604051933391167f8be0079c531659141344cd1fd0a4f28419497f9722a3daafe3b4186f6b6457e0600080a360056003556032600455610e10600555620151806007556032600d556107d0600e55600a600f556001541617600155612a1f90816200010b8239f35b604051631e4fbdf760e01b815260006004820152602490fd5b600080fd5b634e487b7160e01b600052604160045260246000fdfe608060408181526004918236101561001657600080fd5b60009260e08435811c92836311a6f3da146118bc5750826312984b0b146118845782631584410a146118645782631fb3b9711461184457826322e9d5bf146118265782632dd2ebb4146118065782633da50fc3146117c55782633daf46c7146117645782633eba752b146116db578263440301b3146115af57826354c37c4f1461158a57826356447ce81461151757826359f270881461147e578263674417ae1461143c5782636ee545ca146113c4578263715018a61461136a578263724e78da1461132e5782637402ba2c146112bc578263741bef1a146112925782638da5cb5b1461126957826397cab63c14611249578263984e9f50146111bb5782639fdcadc41461115d578263a53566f414611080578263a59ffd3614610fc4578263a90b49f714610f3b578263b1354a8814610e7f578263bd9c47e314610e43578263bfd847a81461043757508163cce9923014610419578163d6560124146103bc578163e1a452181461039f578163e1ea1cf51461033e578163f2fde38b146102b357508063f3cc6993146102955763fd7187ba146101b357600080fd5b346102915780600319360112610291576101cb6118d8565b907f6ab4d325309c5a4afd1953f37e097db8f6cd0fe10ba23eb26306bfd349eb13d660206101f76118f3565b93610200611909565b61020e60ff6006541661196e565b6001600160a01b0390811693610225851515611af4565b610231600754426119e3565b916002818351986102418a611a38565b16978881528581018581528482019360018552898c52600b8852858c209251166001600160601b0360a01b835416178255516001820155019051151560ff8019835416911617905551908152a380f35b5080fd5b50346102915781600319360112610291576020906003549051908152f35b90503461033a57602036600319011261033a576102ce6118d8565b906102d7611909565b6001600160a01b0391821692831561032457505082546001600160a01b0319811683178455167f8be0079c531659141344cd1fd0a4f28419497f9722a3daafe3b4186f6b6457e08380a380f35b51631e4fbdf760e01b8152908101849052602490fd5b8280fd5b90503461033a57602036600319011261033a5780359161035c611909565b6014831161036c57505060035580f35b906020606492519162461bcd60e51b8352820152600d60248201526c0e4c2e8ca40e8dede40d0d2ced609b1b6044820152fd5b505034610291578160031936011261029157602090516127108152f35b83346104165780600319360112610416576103d5611909565b6103e360ff600a5416611a76565b806008558060095580600a557fcf6ca636a85ed166a90765c2f68f7fe7a0df16d7d8c99662e6540a13b406d47c8180a180f35b80fd5b90503461033a578260031936011261033a5760209250549051908152f35b83828634610416576060366003190112610416578135936104566118f3565b6044928335948715610e145742861115610ddf576001600160a01b03958661047d85611b8b565b169561048a8715156119ae565b8851633fabe5a360e21b81529060a08285818b5afa918215610c8f578592869387928892610d8a575b5087851315610d5c5769ffffffffffffffffffff809116911610610d2c578015610cfa57804210610cc9576104e89042611bfd565b60055410610c9957508851998a9763313ce56760e01b8952888560209a8b935afa9a8b15610c8f57859b610c54575b506105376105288361053f93611bb9565b6105318d611bcc565b90611bdd565b924290611bfd565b6001600160c01b039890898111610b62576301e13380908b1b04905b6001600160801b0391828111610b5e5782169760016001607f1b039a8b8a116108b2576003548d828211610a7557906064911b045b848111610a715784168c8111610a71576105b190600f9b8c0b908c0b611c80565b9d60016001607f1b03199e8f818d0b14610a6d57908c8f928d6105d7918d03900b611ddd565b978a54968c9d168c52600c8252838c20928451946105f486611a06565b8454808752600260018701549588019686885201549460ff8087169389019684885260081c161515918260608a015282610a61575b5081610a57575b506108f9575b50505050505082111560001461080e575060c8908b1b045b81811161080a571688811161079e57860b68010000000000000000038a81121580610800575b1561079e57860b918483126107f8575b677fffffffffffffff811161079e5767e666666666666666916106aa918b1b880b611c80565b860b02881d89811215806107ee575b156107ea57816106cd6106d292880b611c39565b611c80565b9884151595866107ad575b6106f59798999a67ffffffffffffffff988991611c1e565b1699710a8bfffffffffffffb5000000000000000008c1d9283121590816107a2575b501561079e5761072c92916106cd910b611c39565b9361075e575b50505061073e90611c1e565b1690612710808311610756575b508351928352820152f35b91508461074b565b61271092830392831161078b57505061073e9161077d61078392611ca8565b90611c80565b908680610732565b634e487b7160e01b825260119052602490fd5b8480fd5b90508213158c610717565b6127108681039081116107d7576106f598999a9b61077d6107cd92611ca8565b9a999897506106dd565b634e487b7160e01b865260118552602486fd5b8380fd5b50878113156106b9565b849250610684565b5088811315610674565b8580fd5b61087160c083811c80936401000000008210156108ec575b50806201000060029210156108e0575b6101008110156108d4575b8960108210156108c9575b8110156108be575b10156108b6575b83600160c760be1984011c019160ff031b611bdd565b918383116108b2578c1b9060c8830290808284106108a6575b5061089c5760c8910304905b0161064e565b5050600190610896565b6000190190508f61088a565b8780fd5b60010161085b565b91810191811c610854565b928301921c8961084c565b6008928301921c610841565b6010928301921c610836565b91505083811c6002610826565b829060ff831681811115610a255750505061091f6105319160ff61092495511690611c0a565b611bcc565b825180151580610a1b575b6109c6575b505061094382518251906119e3565b9182610952575b808080610636565b51905192949261096191611bfd565b9061271091828102908082048414901517156109b35761098961099894939261099192611bdd565b8d5490611bb9565b04906119e3565b91606483116109aa575b8e808061094a565b606492506109a2565b634e487b7160e01b8b5260118a5260248bfd5b6109d1929c50611bfd565b61271090818102908082048314901517156109b3576109f56109fe91845190611bdd565b600d5490611bb9565b04600e54808211610a13575b50993880610934565b905038610a0a565b508082111561092f565b8192955010610a37575b505050610924565b610a4f9350610a499161091f91611c0a565b90611bb9565b388080610a2f565b9050151538610630565b81925010159038610629565b8980fd5b8880fd5b5060c081811c8091640100000000821015610b53575b60028262010000610ad8941015610b47575b610100811015610b3b575b8c6010821015610b30575b811015610b25575b1015610b1d575b836001606360be1984011c019160ff031b611bdd565b91868311610b19578f1b90606483029080828410610b0d575b50610b03576064910304905b01610590565b5050600190610afd565b60001901905038610af1565b8a80fd5b600101610ac2565b91810191811c610abb565b928301921c8c610ab3565b6008928301921c610aa8565b6010928301921c610a9d565b505081841c84610a8b565b8680fd5b60c081811c8091640100000000821015610c49575b60028262010000610bc7941015610c3d575b610100811015610c31575b896010821015610c26575b811015610c1b575b1015610c13575b8360016301e1337f60be1984011c019160ff031b611bdd565b916001600160801b0383116108b2576301e1338091838302918e1b9080838310610c07575b50610bfc570304905b019061055b565b505050600190610bf5565b60001901905038610bec565b600101610bae565b91810191811c610ba7565b928301921c89610b9f565b6008928301921c610b94565b6010928301921c610b89565b505081891c89610b77565b909a508781813d8311610c88575b610c6c8183611a54565b8101031261079e575160ff8116810361079e5799610537610517565b503d610c62565b8a513d87823e3d90fd5b836a7374616c6520707269636560a81b60649260208d519362461bcd60e51b8552840152600b6024840152820152fd5b8a5162461bcd60e51b8152602081870152600c60248201526b199d5d1d5c99481c9bdd5b9960a21b81840152606490fd5b8a5162461bcd60e51b8152602081870152600d60248201526c06261642074696d657374616d7609c1b81840152606490fd5b8a5162461bcd60e51b8152602081870152600b60248201526a1cdd185b19481c9bdd5b9960aa1b81840152606490fd5b8c5162461bcd60e51b8152602081890152600960248201526862616420707269636560b81b81860152606490fd5b945050505060a0823d8211610dd7575b81610da760a09383611a54565b8101031261079e57610db8826129d2565b6020830151610dce6080606086015195016129d2565b9093918e6104b3565b3d9150610d9a565b6064906f185b1c9958591e481d5b9b1bd8dad95960821b8660208a519362461bcd60e51b855284015260106024840152820152fd5b6064906907175616e746974793d360b41b8660208a519362461bcd60e51b8552840152600a6024840152820152fd5b50505034610291576020366003190112610291576020916001600160a01b0390829082610e6e6118d8565b168152600285522054169051908152f35b50505034610291576020366003190112610291577f06680552bbe25e0330f66618556e223f34cb097e1f7947645e5b4da802e5f5466020610ebe6118d8565b610ec6611909565b610ed460ff6006541661196e565b6001600160a01b031692610ee98415156119ae565b610ef5600754426119e3565b906001818051610f0481611a38565b87815284868201520152846001600160601b0360a01b600854161760085581600955600160ff19600a541617600a5551908152a280f35b5050503461029157602036600319011261029157816002610f5a6118d8565b610f62611909565b6001600160a01b0316808352600b602052838320820154909390610f889060ff16611a76565b838352600b602052822082815582600182015501557fc98cc94d5d53360028a4bef23e8045798f30d41035ec762bd48579d33c3d52ef8280a280f35b50838334610291578060031936011261029157823580151580910361033a5760243593610fef611909565b603c85101580611073575b1561104457507f687911c7f7b365a8368a45830a19c83a06fd492822054b1e7035e987f6ac5069929360ff196006541660ff8316176006558060075582519182526020820152a180f35b606490602084519162461bcd60e51b835282015260096024820152686261642064656c617960b81b6044820152fd5b5062278d00851115610ffa565b508383346102915780600319360112610291578235602435936110a1611909565b6103e882116111275761138885116110ed57507f75a9c32f678cc19b5784380435b4a0d91575945745dd2e434a904944c8e012c2929381600d5580600e5582519182526020820152a180f35b606490602084519162461bcd60e51b835282015260146024820152730dac2f040e0cadcc2d8e8f240e8dede40d0d2ced60631b6044820152fd5b606490602084519162461bcd60e51b8352820152601060248201526f0e0cadcc2d8e8f240e8dede40d0d2ced60831b6044820152fd5b5090503461033a57602036600319011261033a5780359161117c611909565b6064831161118957505580f35b906020606492519162461bcd60e51b8352820152600c60248201526b0ecded840e8dede40d0d2ced60a31b6044820152fd5b8482853461033a57602036600319011261033a578135916111da611909565b6103e883116112155750816020917ffa207c11e031100d60764683bc02845d73fbc0ff01eb725498fe2415157a7f3d93600f5551908152a180f35b6020606492519162461bcd60e51b8352820152600f60248201526e0eecad2ced0e840e8dede40d0d2ced608b1b6044820152fd5b50505034610291578160031936011261029157602090600f549051908152f35b50505034610291578160031936011261029157905490516001600160a01b039091168152602090f35b5050503461029157816003193601126102915760015490516001600160a01b039091168152602090f35b50505034610291576020366003190112610291576001600160a01b039161132a908290846112e86118d8565b168152600b602090815291902080546001820154600290920154945195166001600160a01b031685529084015260ff9091161515604083015281906060820190565b0390f35b84346104165760203660031901126104165761136761134b6118d8565b611353611909565b61136260ff6006541615611935565b611b2a565b80f35b8434610416578060031936011261041657611383611909565b80546001600160a01b03198116825581906001600160a01b03167f8be0079c531659141344cd1fd0a4f28419497f9722a3daafe3b4186f6b6457e08280a380f35b50505034610291578160031936011261029157611367906113e3611909565b80516113ee81611a38565b61142960018060a01b039283600854168352611420600954916020850192835260ff600a541615158091860152611a76565b51421015611ab5565b836008558360095583600a555116611b2a565b5050503461029157366003190112610416576113676114596118d8565b6114616118f3565b9061146a611909565b61147960ff6006541615611935565b611b53565b50505034610291576020366003190112610291576113679061149e6118d8565b906114a7611909565b6001600160a01b03828116808652600b6020528286208351929387926002926114fb906114d387611a38565b87815416875261142060ff8660018401549360208b01948552015416151580868a0152611a76565b8352600b60205282208281558260018201550155511690611b53565b5090503461033a57602036600319011261033a57803591611536611909565b8215158061157d575b1561154c57505060055580f35b906020606492519162461bcd60e51b8352820152600b60248201526a626164206d61782061676560a81b6044820152fd5b5062093a8083111561153f565b5050503461029157816003193601126102915760209060ff6006541690519015158152f35b8482853461033a57608036600319011261033a576115cb6118d8565b602435916044356064359260ff8416809403610b5e576115e9611909565b6001600160a01b0316946115fe861515611af4565b811515806116d1575b1561169d57509181606093878760ff60027f1bd846b49ea2dab5c657abf37a6c691fb4341d87a08f749d9c9ac9352c1219f399975161164581611a06565b8881526020810186815287808301968a88528c840196600188528152600c60205220915182555160018201550192511661ff0083549251151560081b169161ffff19161717905581519384526020840152820152a280f35b606490602084519162461bcd60e51b8352820152600e60248201526d696e76616c696420626f756e647360901b6044820152fd5b5081851015611607565b50505034610291576020366003190112610291577f1bd846b49ea2dab5c657abf37a6c691fb4341d87a08f749d9c9ac9352c1219f3606061171a6118d8565b611722611909565b6001600160a01b031692611737841515611af4565b838552600c602052846002828220828155826001820155015584815191818352816020840152820152a280f35b505050346102915760203660031901126102915760809160ff9082906001600160a01b036117906118d8565b168152600c602052208054926002600183015492015491815194855260208501528282169084015260081c1615156060820152f35b83853461041657806003193601126104165750600854600954600a5492516001600160a01b039092168252602082015260ff90911615156040820152606090f35b50505034610291578160031936011261029157602090600e549051908152f35b5050503461029157816003193601126102915760209051610bb88152f35b50505034610291578160031936011261029157602090600d549051908152f35b505050346102915781600319360112610291576020906005549051908152f35b50505034610291576020366003190112610291576020906118ab6118a66118d8565b611b8b565b90516001600160a01b039091168152f35b8590346102915781600319360112610291576020906007548152f35b600435906001600160a01b03821682036118ee57565b600080fd5b602435906001600160a01b03821682036118ee57565b6000546001600160a01b0316330361191d57565b60405163118cdaa760e01b8152336004820152602490fd5b1561193c57565b60405162461bcd60e51b815260206004820152600a6024820152691d1a5b595b1bd8dad95960b21b6044820152606490fd5b1561197557565b60405162461bcd60e51b81526020600482015260116024820152701d1a5b595b1bd8dac8191a5cd8589b1959607a1b6044820152606490fd5b156119b557565b60405162461bcd60e51b81526020600482015260066024820152650666565643d360d41b6044820152606490fd5b919082018092116119f057565b634e487b7160e01b600052601160045260246000fd5b6080810190811067ffffffffffffffff821117611a2257604052565b634e487b7160e01b600052604160045260246000fd5b6060810190811067ffffffffffffffff821117611a2257604052565b90601f8019910116810190811067ffffffffffffffff821117611a2257604052565b15611a7d57565b60405162461bcd60e51b815260206004820152601060248201526f6e6f2071756575656420636f6e66696760801b6044820152606490fd5b15611abc57565b60405162461bcd60e51b815260206004820152601060248201526f74696d656c6f636b2070656e64696e6760801b6044820152606490fd5b15611afb57565b60405162461bcd60e51b81526020600482015260076024820152660746f6b656e3d360cc1b6044820152606490fd5b6001600160a01b0316611b3e8115156119ae565b6001600160601b0360a01b6001541617600155565b6001600160a01b03908116611b69811515611af4565b6000526002602052604060002091166001600160601b0360a01b825416179055565b6001600160a01b03908116600090815260026020526040902054811680611bb457506001541690565b905090565b818102929181159184041417156119f057565b60ff16604d81116119f057600a0a90565b8115611be7570490565b634e487b7160e01b600052601260045260246000fd5b919082039182116119f057565b9060ff8091169116039060ff82116119f057565b600f0b600081126118ee5760401d67ffffffffffffffff1690565b600f0b67f3333333333333330260401d6f7fffffffffffffffffffffffffffffff1981121580611c6f575b156118ee57600f0b90565b5060016001607f1b03811315611c64565b90600f0b90600f0b0260401d60016001607f1b031981121580611c6f57156118ee57600f0b90565b6000906001600160c01b038111611ce857612710915060401b045b6001600160801b03908181116118ee571660016001607f1b0381116118ee57600f0b90565b60c09181831c8093640100000000821015611dd0575b60028262010000611d4d941015611dc4575b610100811015611db8575b6010811015611dac575b6004811015611da1575b1015611d99575b83600161270f60be1984011c019160ff031b611bdd565b926001600160801b038411610291576127109283850292829160401b92848410611d8d575b5050611d82570304905b01611cc3565b505050600190611d7c565b60001901915038611d72565b600101611d36565b91810191811c611d2f565b6004928301921c611d25565b6008928301921c611d1b565b6010928301921c611d10565b505060e082811c90611cfe565b600f0b600160461b8112156118ee57683fffffffffffffffff198112611e2257700171547652b82fe1777d0ffda0d23a7d12611e1f910260801d600f0b611e28565b90565b50600090565b600f81810b600160461b8112156118ee57683fffffffffffffffff1981126129ca576001607f1b90600093846780000000000000008216850b136129b2575b846740000000000000008216850b13612995575b846720000000000000008216850b13612978575b846710000000000000008216850b1361295b575b846708000000000000008216850b1361293e575b846704000000000000008216850b13612921575b846702000000000000008216850b13612904575b846701000000000000008216850b136128e7575b8466800000000000008216850b136128ca575b8466400000000000008216850b136128ad575b8466200000000000008216850b13612890575b8466100000000000008216850b13612873575b8466080000000000008216850b13612856575b8466040000000000008216850b13612839575b8466020000000000008216850b1361281c575b8466010000000000008216850b136127ff575b84658000000000008216850b136127e2575b84654000000000008216850b136127c5575b84652000000000008216850b136127a8575b84651000000000008216850b1361278b575b84650800000000008216850b1361276e575b84650400000000008216850b13612751575b84650200000000008216850b13612734575b84650100000000008216850b13612717575b846480000000008216850b136126fa575b846440000000008216850b136126dd575b846420000000008216850b136126c0575b846410000000008216850b136126a3575b846408000000008216850b13612686575b846404000000008216850b13612669575b846402000000008216850b1361264c575b846401000000008216850b1361262f575b8463800000008216850b13612612575b8463400000008216850b136125f5575b8463200000008216850b136125d8575b8463100000008216850b136125bb575b8463080000008216850b1361259e575b8463040000008216850b13612581575b8463020000008216850b13612564575b8463010000008216850b13612547575b84628000008216850b1361252a575b84624000008216850b1361250d575b84622000008216850b136124f0575b84621000008216850b136124d3575b84620800008216850b136124b6575b84620400008216850b13612499575b84620200008216850b1361247c575b84620100008216850b1361245f575b846180008216850b13612442575b846140008216850b13612425575b846120008216850b13612408575b846110008216850b136123eb575b846108008216850b136123ce575b846104008216850b136123b1575b846102008216850b13612394575b846101008216850b13612377575b8460809181838216870b1361235b575b8160408216870b1361233f575b8160208216870b13612323575b8160108216870b13612307575b8160088216870b136122eb575b8160048216870b136122cf575b8160028216870b136122b2575b600116850b13612294575b5060401d820b603f03820b1c9160016001607f1b03831161041657500b90565b909170010000000000000000b17217f7d1cf79ab02901c9038612274565b7001000000000000000162e42fefa39ef358909402821c93612269565b9370010000000000000002c5c85fdf473de6b202821c9361225c565b93700100000000000000058b90bfbe8e7bcd6d02821c9361224f565b937001000000000000000b17217f7d1cf79afa02821c93612242565b93700100000000000000162e42fefa39ef366f02821c93612235565b937001000000000000002c5c85fdf473de6eca02821c93612228565b9370010000000000000058b90bfbe8e7bce54402821c9361221b565b91700100000000000000b17217f7d1cf79e9490260801c9161220b565b9170010000000000000162e42fefa39ef44d910260801c916121fd565b91700100000000000002c5c85fdf473dea871f0260801c916121ef565b917001000000000000058b90bfbe8e7bdcbe2e0260801c916121e1565b9170010000000000000b17217f7d1cf7d83c1a0260801c916121d3565b917001000000000000162e42fefa39f02b772c0260801c916121c5565b9170010000000000002c5c85fdf473e242ea380260801c916121b7565b91700100000000000058b90bfbe8e7cc35c3f00260801c916121a9565b917001000000000000b17217f7d1cfb72b45e10260801c9161219b565b91700100000000000162e42fefa39fe95583c20260801c9161218c565b917001000000000002c5c85fdf4741bea6e77e0260801c9161217d565b9170010000000000058b90bfbe8e8b2d3d4ede0260801c9161216e565b91700100000000000b17217f7d1d351a389d400260801c9161215f565b9170010000000000162e42fefa3ae53369388c0260801c91612150565b91700100000000002c5c85fdf477b662b269450260801c91612141565b917001000000000058b90bfbe8f71cb4e4b33d0260801c91612132565b9170010000000000b17217f7d20cf927c8e94c0260801c91612123565b917001000000000162e42fefa494f1478fde050260801c91612113565b9170010000000002c5c85fdf4b15de6f17eb0d0260801c91612103565b91700100000000058b90bfbe9ddbac5e109cce0260801c916120f3565b917001000000000b17217f7d5a7716bba4a9ae0260801c916120e3565b91700100000000162e42fefb2fed257559bdaa0260801c916120d3565b917001000000002c5c85fdf84bd62ae30a74cc0260801c916120c3565b9170010000000058b90bfbf8479bd5a81b51ad0260801c916120b3565b91700100000000b17217f80f4ef5aadda455540260801c916120a3565b9170010000000162e42ff0999ce3541b9fffcf0260801c91612092565b91700100000002c5c85fe31f35a6a30da1be500260801c91612081565b917001000000058b90bfcdee5acd3c1cedc8230260801c91612070565b9170010000000b17217fba9c739aa5819f44f90260801c9161205f565b917001000000162e42fff037df38aa2b219f060260801c9161204e565b9170010000002c5c8601cc6b9e94213c72737a0260801c9161203d565b91700100000058b90c0b48c6be5df846c5b2ef0260801c9161202c565b917001000000b1721835514b86e6d96efd1bfe0260801c9161201b565b91700100000162e430e5a18f6119e3c02282a50260801c91612009565b917001000002c5c863b73f016468f6bac5ca2b0260801c91611ff7565b9170010000058b90cf1e6d97f9ca14dbcc16280260801c91611fe5565b91700100000b1721bcfc99d9f890ea069117630260801c91611fd3565b9170010000162e43f4f831060e02d839a9d16d0260801c91611fc1565b91700100002c5c89d5ec6ca4d7c8acc017b7c90260801c91611faf565b917001000058b91b5bc9ae2eed81e9b7d4cfab0260801c91611f9d565b9170010000b17255775c040618bf4a4ade83fc0260801c91611f8b565b917001000162e525ee054754457d59952920260260801c91611f78565b9170010002c5cc37da9491d0985c348c68e7b30260801c91611f65565b91700100058ba01fb9f96d6cacd4b180917c3d0260801c91611f52565b917001000b175effdc76ba38e31671ca9397250260801c91611f3f565b91700100162f3904051fa128bca9c55c31e5df0260801c91611f2c565b917001002c605e2e8cec506d21bfc89a23a00f0260801c91611f19565b9170010058c86da1c09ea1ff19d294cf2f679b0260801c91611f06565b91700100b1afa5abcbed6129ab13ec11dc95430260801c91611ef3565b9170010163da9fb33356d84a66ae336dcdfa3f0260801c91611edf565b91700102c9a3e778060ee6f7caca4f7a29bde80260801c91611ecb565b917001059b0d31585743ae7c548eb68ca417fd0260801c91611eb7565b9170010b5586cf9890f6298b92b71842a983630260801c91611ea3565b917001172b83c7d517adcdf7c8c50eb14a791f0260801c91611e8f565b917001306fe0a31b7152de8d5a46305c85edec0260801c91611e7b565b6fb504f333f9de6484597d89b3754abe9f9250611e67565b505050600090565b519069ffffffffffffffffffff821682036118ee5756fea26469706673582212202b8db14fae54338e89212cd78e005dc7255eb969a235c9f6532bed04453e2c5a64736f6c63430008140033",
  "devdoc": {
    "errors": {
      "OwnableInvalidOwner(address)": [
        {
          "details": "The owner is not a valid owner account. (eg. `address(0)`)"
        }
      ],
      "OwnableUnauthorizedAccount(address)": [
        {
          "details": "The caller account is not authorized to perform an operation."
        }
      ]
    },
    "kind": "dev",
    "methods": {
      "owner()": {
        "details": "Returns the address of the current owner."
      },
      "renounceOwnership()": {
        "details": "Leaves the contract without owner. It will not be possible to call `onlyOwner` functions. Can only be called by the current owner. NOTE: Renouncing ownership will leave the contract without an owner, thereby disabling any functionality that is only available to the owner."
      },
      "transferOwnership(address)": {
        "details": "Transfers ownership of the contract to a new account (`newOwner`). Can only be called by the current owner."
      }
    },
    "version": 1
  },
  "userdoc": {
    "kind": "user",
    "methods": {
      "drawdownPenaltyPerBps()": {
        "notice": "Extra discount per 1% drawdown from ATH (bps of discount per 100 bps drawdown); e.g. 50 = 0.5% extra per 1%"
      },
      "maxDrawdownPenaltyBps()": {
        "notice": "Cap on total drawdown-based extra discount (bps); e.g. 2000 = 20%"
      },
      "rangeVolWeightBps()": {
        "notice": "How much range (ATH-ATL)/mid adds to volatility (bps of vol per 100 bps range ratio); e.g. 10"
      },
      "setTokenPriceBounds(address,uint256,uint256,uint8)": {
        "notice": "Set all-time high and all-time low for a token (same decimals as the token's price feed)."
      }
    },
    "version": 1
  },
  "storageLayout": {
    "storage": [
      {
        "astId": 54,
        "contract": "contracts/ValuationEngine.sol:ValuationEngine",
        "label": "_owner",
        "offset": 0,
        "slot": "0",
        "type": "t_address"
      },
      {
        "astId": 12023,
        "contract": "contracts/ValuationEngine.sol:ValuationEngine",
        "label": "priceFeed",
        "offset": 0,
        "slot": "1",
        "type": "t_contract(AggregatorV3Interface)45"
      },
      {
        "astId": 12027,
        "contract": "contracts/ValuationEngine.sol:ValuationEngine",
        "label": "tokenPriceFeeds",
        "offset": 0,
        "slot": "2",
        "type": "t_mapping(t_address,t_address)"
      },
      {
        "astId": 12030,
        "contract": "contracts/ValuationEngine.sol:ValuationEngine",
        "label": "riskFreeRate",
        "offset": 0,
        "slot": "3",
        "type": "t_uint256"
      },
      {
        "astId": 12033,
        "contract": "contracts/ValuationEngine.sol:ValuationEngine",
        "label": "volatility",
        "offset": 0,
        "slot": "4",
        "type": "t_uint256"
      },
      {
        "astId": 12036,
        "contract": "contracts/ValuationEngine.sol:ValuationEngine",
        "label": "maxPriceAge",
        "offset": 0,
        "slot": "5",
        "type": "t_uint256"
      },
      {
        "astId": 12038,
        "contract": "contracts/ValuationEngine.sol:ValuationEngine",
        "label": "adminTimelockEnabled",
        "offset": 0,
        "slot": "6",
        "type": "t_bool"
      },
      {
        "astId": 12041,
        "contract": "contracts/ValuationEngine.sol:ValuationEngine",
        "label": "adminTimelockDelay",
        "offset": 0,
        "slot": "7",
        "type": "t_uint256"
      },
      {
        "astId": 12058,
        "contract": "contracts/ValuationEngine.sol:ValuationEngine",
        "label": "pendingDefaultFeed",
        "offset": 0,
        "slot": "8",
        "type": "t_struct(PendingDefaultFeed)12048_storage"
      },
      {
        "astId": 12063,
        "contract": "contracts/ValuationEngine.sol:ValuationEngine",
        "label": "pendingTokenFeeds",
        "offset": 0,
        "slot": "11",
        "type": "t_mapping(t_address,t_struct(PendingTokenFeed)12055_storage)"
      },
      {
        "astId": 12078,
        "contract": "contracts/ValuationEngine.sol:ValuationEngine",
        "label": "tokenPriceBounds",
        "offset": 0,
        "slot": "12",
        "type": "t_mapping(t_address,t_struct(TokenPriceBounds)12073_storage)"
      },
      {
        "astId": 12082,
        "contract": "contracts/ValuationEngine.sol:ValuationEngine",
        "label": "drawdownPenaltyPerBps",
        "offset": 0,
        "slot": "13",
        "type": "t_uint256"
      },
      {
        "astId": 12086,
        "contract": "contracts/ValuationEngine.sol:ValuationEngine",
        "label": "maxDrawdownPenaltyBps",
        "offset": 0,
        "slot": "14",
        "type": "t_uint256"
      },
      {
        "astId": 12090,
        "contract": "contracts/ValuationEngine.sol:ValuationEngine",
        "label": "rangeVolWeightBps",
        "offset": 0,
        "slot": "15",
        "type": "t_uint256"
      }
    ],
    "types": {
      "t_address": {
        "encoding": "inplace",
        "label": "address",
        "numberOfBytes": "20"
      },
      "t_bool": {
        "encoding": "inplace",
        "label": "bool",
        "numberOfBytes": "1"
      },
      "t_contract(AggregatorV3Interface)45": {
        "encoding": "inplace",
        "label": "contract AggregatorV3Interface",
        "numberOfBytes": "20"
      },
      "t_mapping(t_address,t_address)": {
        "encoding": "mapping",
        "key": "t_address",
        "label": "mapping(address => address)",
        "numberOfBytes": "32",
        "value": "t_address"
      },
      "t_mapping(t_address,t_struct(PendingTokenFeed)12055_storage)": {
        "encoding": "mapping",
        "key": "t_address",
        "label": "mapping(address => struct ValuationEngine.PendingTokenFeed)",
        "numberOfBytes": "32",
        "value": "t_struct(PendingTokenFeed)12055_storage"
      },
      "t_mapping(t_address,t_struct(TokenPriceBounds)12073_storage)": {
        "encoding": "mapping",
        "key": "t_address",
        "label": "mapping(address => struct ValuationEngine.TokenPriceBounds)",
        "numberOfBytes": "32",
        "value": "t_struct(TokenPriceBounds)12073_storage"
      },
      "t_struct(PendingDefaultFeed)12048_storage": {
        "encoding": "inplace",
        "label": "struct ValuationEngine.PendingDefaultFeed",
        "members": [
          {
            "astId": 12043,
            "contract": "contracts/ValuationEngine.sol:ValuationEngine",
            "label": "feed",
            "offset": 0,
            "slot": "0",
            "type": "t_address"
          },
          {
            "astId": 12045,
            "contract": "contracts/ValuationEngine.sol:ValuationEngine",
            "label": "executeAfter",
            "offset": 0,
            "slot": "1",
            "type": "t_uint256"
          },
          {
            "astId": 12047,
            "contract": "contracts/ValuationEngine.sol:ValuationEngine",
            "label": "exists",
            "offset": 0,
            "slot": "2",
            "type": "t_bool"
          }
        ],
        "numberOfBytes": "96"
      },
      "t_struct(PendingTokenFeed)12055_storage": {
        "encoding": "inplace",
        "label": "struct ValuationEngine.PendingTokenFeed",
        "members": [
          {
            "astId": 12050,
            "contract": "contracts/ValuationEngine.sol:ValuationEngine",
            "label": "feed",
            "offset": 0,
            "slot": "0",
            "type": "t_address"
          },
          {
            "astId": 12052,
            "contract": "contracts/ValuationEngine.sol:ValuationEngine",
            "label": "executeAfter",
            "offset": 0,
            "slot": "1",
            "type": "t_uint256"
          },
          {
            "astId": 12054,
            "contract": "contracts/ValuationEngine.sol:ValuationEngine",
            "label": "exists",
            "offset": 0,
            "slot": "2",
            "type": "t_bool"
          }
        ],
        "numberOfBytes": "96"
      },
      "t_struct(TokenPriceBounds)12073_storage": {
        "encoding": "inplace",
        "label": "struct ValuationEngine.TokenPriceBounds",
        "members": [
          {
            "astId": 12066,
            "contract": "contracts/ValuationEngine.sol:ValuationEngine",
            "label": "ath",
            "offset": 0,
            "slot": "0",
            "type": "t_uint256"
          },
          {
            "astId": 12068,
            "contract": "contracts/ValuationEngine.sol:ValuationEngine",
            "label": "atl",
            "offset": 0,
            "slot": "1",
            "type": "t_uint256"
          },
          {
            "astId": 12070,
            "contract": "contracts/ValuationEngine.sol:ValuationEngine",
            "label": "decimals",
            "offset": 0,
            "slot": "2",
            "type": "t_uint8"
          },
          {
            "astId": 12072,
            "contract": "contracts/ValuationEngine.sol:ValuationEngine",
            "label": "set",
            "offset": 1,
            "slot": "2",
            "type": "t_bool"
          }
        ],
        "numberOfBytes": "96"
      },
      "t_uint256": {
        "encoding": "inplace",
        "label": "uint256",
        "numberOfBytes": "32"
      },
      "t_uint8": {
        "encoding": "inplace",
        "label": "uint8",
        "numberOfBytes": "1"
      }
    }
  }
}