{
  "address": "0xB45f5d411A03d113fd6dDB7ed3F6800138a52760",
  "abi": [
    {
      "inputs": [
        {
          "internalType": "address",
          "name": "_registry",
          "type": "address"
        },
        {
          "internalType": "address",
          "name": "_initialGovernor",
          "type": "address"
        }
      ],
      "stateMutability": "nonpayable",
      "type": "constructor"
    },
    {
      "inputs": [],
      "name": "AccessControlBadConfirmation",
      "type": "error"
    },
    {
      "inputs": [
        {
          "internalType": "address",
          "name": "account",
          "type": "address"
        },
        {
          "internalType": "bytes32",
          "name": "neededRole",
          "type": "bytes32"
        }
      ],
      "name": "AccessControlUnauthorizedAccount",
      "type": "error"
    },
    {
      "anonymous": false,
      "inputs": [
        {
          "indexed": false,
          "internalType": "bool",
          "name": "enabled",
          "type": "bool"
        },
        {
          "indexed": false,
          "internalType": "uint256",
          "name": "delaySeconds",
          "type": "uint256"
        }
      ],
      "name": "AdminTimelockConfigUpdated",
      "type": "event"
    },
    {
      "anonymous": false,
      "inputs": [
        {
          "indexed": true,
          "internalType": "address",
          "name": "coprocessor",
          "type": "address"
        }
      ],
      "name": "CoprocessorUpdated",
      "type": "event"
    },
    {
      "anonymous": false,
      "inputs": [
        {
          "indexed": false,
          "internalType": "uint256",
          "name": "penaltyPerBps",
          "type": "uint256"
        },
        {
          "indexed": false,
          "internalType": "uint256",
          "name": "maxPenaltyBps",
          "type": "uint256"
        }
      ],
      "name": "DrawdownParamsUpdated",
      "type": "event"
    },
    {
      "anonymous": false,
      "inputs": [
        {
          "indexed": true,
          "internalType": "address",
          "name": "token",
          "type": "address"
        }
      ],
      "name": "FlashPumpCooldownCleared",
      "type": "event"
    },
    {
      "anonymous": false,
      "inputs": [
        {
          "indexed": true,
          "internalType": "address",
          "name": "token",
          "type": "address"
        },
        {
          "indexed": false,
          "internalType": "uint256",
          "name": "cooldownUntil",
          "type": "uint256"
        }
      ],
      "name": "FlashPumpCooldownSet",
      "type": "event"
    },
    {
      "anonymous": false,
      "inputs": [
        {
          "indexed": false,
          "internalType": "uint256",
          "name": "capBps",
          "type": "uint256"
        }
      ],
      "name": "GlobalMaxOmegaUpdated",
      "type": "event"
    },
    {
      "anonymous": false,
      "inputs": [
        {
          "indexed": false,
          "internalType": "address",
          "name": "governor",
          "type": "address"
        }
      ],
      "name": "GovernanceInitialised",
      "type": "event"
    },
    {
      "anonymous": false,
      "inputs": [
        {
          "indexed": false,
          "internalType": "uint256",
          "name": "timeSeconds",
          "type": "uint256"
        }
      ],
      "name": "GracePeriodTimeUpdated",
      "type": "event"
    },
    {
      "anonymous": false,
      "inputs": [
        {
          "indexed": true,
          "internalType": "address",
          "name": "token",
          "type": "address"
        },
        {
          "indexed": false,
          "internalType": "uint256",
          "name": "capBps",
          "type": "uint256"
        }
      ],
      "name": "HardLTVCapUpdated",
      "type": "event"
    },
    {
      "anonymous": false,
      "inputs": [
        {
          "indexed": true,
          "internalType": "address",
          "name": "token",
          "type": "address"
        },
        {
          "indexed": false,
          "internalType": "uint256",
          "name": "omegaBps",
          "type": "uint256"
        }
      ],
      "name": "OmegaUpdated",
      "type": "event"
    },
    {
      "anonymous": false,
      "inputs": [
        {
          "indexed": true,
          "internalType": "address",
          "name": "token",
          "type": "address"
        },
        {
          "indexed": false,
          "internalType": "uint256",
          "name": "maxProtocolExposure",
          "type": "uint256"
        }
      ],
      "name": "PreTGECapUpdated",
      "type": "event"
    },
    {
      "anonymous": false,
      "inputs": [
        {
          "indexed": false,
          "internalType": "uint256",
          "name": "rangeVolWeightBps",
          "type": "uint256"
        }
      ],
      "name": "RangeVolWeightUpdated",
      "type": "event"
    },
    {
      "anonymous": false,
      "inputs": [
        {
          "indexed": true,
          "internalType": "address",
          "name": "registry",
          "type": "address"
        }
      ],
      "name": "RegistryUpdated",
      "type": "event"
    },
    {
      "anonymous": false,
      "inputs": [
        {
          "indexed": true,
          "internalType": "bytes32",
          "name": "role",
          "type": "bytes32"
        },
        {
          "indexed": true,
          "internalType": "bytes32",
          "name": "previousAdminRole",
          "type": "bytes32"
        },
        {
          "indexed": true,
          "internalType": "bytes32",
          "name": "newAdminRole",
          "type": "bytes32"
        }
      ],
      "name": "RoleAdminChanged",
      "type": "event"
    },
    {
      "anonymous": false,
      "inputs": [
        {
          "indexed": true,
          "internalType": "bytes32",
          "name": "role",
          "type": "bytes32"
        },
        {
          "indexed": true,
          "internalType": "address",
          "name": "account",
          "type": "address"
        },
        {
          "indexed": true,
          "internalType": "address",
          "name": "sender",
          "type": "address"
        }
      ],
      "name": "RoleGranted",
      "type": "event"
    },
    {
      "anonymous": false,
      "inputs": [
        {
          "indexed": true,
          "internalType": "bytes32",
          "name": "role",
          "type": "bytes32"
        },
        {
          "indexed": true,
          "internalType": "address",
          "name": "account",
          "type": "address"
        },
        {
          "indexed": true,
          "internalType": "address",
          "name": "sender",
          "type": "address"
        }
      ],
      "name": "RoleRevoked",
      "type": "event"
    },
    {
      "anonymous": false,
      "inputs": [
        {
          "indexed": true,
          "internalType": "address",
          "name": "feed",
          "type": "address"
        }
      ],
      "name": "SequencerUptimeFeedUpdated",
      "type": "event"
    },
    {
      "anonymous": false,
      "inputs": [
        {
          "indexed": true,
          "internalType": "address",
          "name": "token",
          "type": "address"
        },
        {
          "indexed": false,
          "internalType": "uint256",
          "name": "maxBorrowUsd",
          "type": "uint256"
        }
      ],
      "name": "TokenMaxLiquidityBorrowUpdated",
      "type": "event"
    },
    {
      "anonymous": false,
      "inputs": [
        {
          "indexed": true,
          "internalType": "address",
          "name": "token",
          "type": "address"
        },
        {
          "indexed": false,
          "internalType": "uint256",
          "name": "ath",
          "type": "uint256"
        },
        {
          "indexed": false,
          "internalType": "uint256",
          "name": "atl",
          "type": "uint256"
        },
        {
          "indexed": false,
          "internalType": "uint8",
          "name": "decimals",
          "type": "uint8"
        }
      ],
      "name": "TokenPriceBoundsUpdated",
      "type": "event"
    },
    {
      "anonymous": false,
      "inputs": [
        {
          "indexed": true,
          "internalType": "address",
          "name": "token",
          "type": "address"
        }
      ],
      "name": "TokenPriceFeedCancelled",
      "type": "event"
    },
    {
      "anonymous": false,
      "inputs": [
        {
          "indexed": true,
          "internalType": "address",
          "name": "token",
          "type": "address"
        },
        {
          "indexed": true,
          "internalType": "address",
          "name": "feed",
          "type": "address"
        },
        {
          "indexed": false,
          "internalType": "uint256",
          "name": "executeAfter",
          "type": "uint256"
        }
      ],
      "name": "TokenPriceFeedQueued",
      "type": "event"
    },
    {
      "anonymous": false,
      "inputs": [
        {
          "indexed": true,
          "internalType": "address",
          "name": "token",
          "type": "address"
        },
        {
          "indexed": false,
          "internalType": "string",
          "name": "reason",
          "type": "string"
        }
      ],
      "name": "TokenQuarantined",
      "type": "event"
    },
    {
      "inputs": [],
      "name": "BASE_LTV_BPS",
      "outputs": [
        {
          "internalType": "uint256",
          "name": "",
          "type": "uint256"
        }
      ],
      "stateMutability": "view",
      "type": "function"
    },
    {
      "inputs": [],
      "name": "BPS_DENOMINATOR",
      "outputs": [
        {
          "internalType": "uint256",
          "name": "",
          "type": "uint256"
        }
      ],
      "stateMutability": "view",
      "type": "function"
    },
    {
      "inputs": [],
      "name": "DEFAULT_ADMIN_ROLE",
      "outputs": [
        {
          "internalType": "bytes32",
          "name": "",
          "type": "bytes32"
        }
      ],
      "stateMutability": "view",
      "type": "function"
    },
    {
      "inputs": [],
      "name": "GOVERNOR_ROLE",
      "outputs": [
        {
          "internalType": "bytes32",
          "name": "",
          "type": "bytes32"
        }
      ],
      "stateMutability": "view",
      "type": "function"
    },
    {
      "inputs": [],
      "name": "GUARDIAN_ROLE",
      "outputs": [
        {
          "internalType": "bytes32",
          "name": "",
          "type": "bytes32"
        }
      ],
      "stateMutability": "view",
      "type": "function"
    },
    {
      "inputs": [],
      "name": "PAUSER_ROLE",
      "outputs": [
        {
          "internalType": "bytes32",
          "name": "",
          "type": "bytes32"
        }
      ],
      "stateMutability": "view",
      "type": "function"
    },
    {
      "inputs": [],
      "name": "adminTimelockDelay",
      "outputs": [
        {
          "internalType": "uint256",
          "name": "",
          "type": "uint256"
        }
      ],
      "stateMutability": "view",
      "type": "function"
    },
    {
      "inputs": [],
      "name": "adminTimelockEnabled",
      "outputs": [
        {
          "internalType": "bool",
          "name": "",
          "type": "bool"
        }
      ],
      "stateMutability": "view",
      "type": "function"
    },
    {
      "inputs": [],
      "name": "checkSequencerActive",
      "outputs": [],
      "stateMutability": "view",
      "type": "function"
    },
    {
      "inputs": [
        {
          "internalType": "address",
          "name": "token",
          "type": "address"
        }
      ],
      "name": "clearFlashPumpCooldown",
      "outputs": [],
      "stateMutability": "nonpayable",
      "type": "function"
    },
    {
      "inputs": [
        {
          "internalType": "address",
          "name": "token",
          "type": "address"
        }
      ],
      "name": "clearTokenPriceBounds",
      "outputs": [],
      "stateMutability": "nonpayable",
      "type": "function"
    },
    {
      "inputs": [
        {
          "internalType": "uint256",
          "name": "quantity",
          "type": "uint256"
        },
        {
          "internalType": "address",
          "name": "token",
          "type": "address"
        },
        {
          "internalType": "uint256",
          "name": "unlockTime",
          "type": "uint256"
        },
        {
          "internalType": "address",
          "name": "vestingContract",
          "type": "address"
        }
      ],
      "name": "computeDPV",
      "outputs": [
        {
          "internalType": "uint256",
          "name": "pv",
          "type": "uint256"
        },
        {
          "internalType": "uint256",
          "name": "ltvBps",
          "type": "uint256"
        }
      ],
      "stateMutability": "view",
      "type": "function"
    },
    {
      "inputs": [],
      "name": "coprocessor",
      "outputs": [
        {
          "internalType": "address",
          "name": "",
          "type": "address"
        }
      ],
      "stateMutability": "view",
      "type": "function"
    },
    {
      "inputs": [],
      "name": "drawdownPenaltyPerBps",
      "outputs": [
        {
          "internalType": "uint256",
          "name": "",
          "type": "uint256"
        }
      ],
      "stateMutability": "view",
      "type": "function"
    },
    {
      "inputs": [],
      "name": "ewmaAlpha",
      "outputs": [
        {
          "internalType": "uint256",
          "name": "",
          "type": "uint256"
        }
      ],
      "stateMutability": "view",
      "type": "function"
    },
    {
      "inputs": [
        {
          "internalType": "address",
          "name": "token",
          "type": "address"
        }
      ],
      "name": "executeQueuedTokenPriceFeed",
      "outputs": [],
      "stateMutability": "nonpayable",
      "type": "function"
    },
    {
      "inputs": [
        {
          "internalType": "address",
          "name": "",
          "type": "address"
        }
      ],
      "name": "flashPumpCooldownUntil",
      "outputs": [
        {
          "internalType": "uint256",
          "name": "",
          "type": "uint256"
        }
      ],
      "stateMutability": "view",
      "type": "function"
    },
    {
      "inputs": [
        {
          "internalType": "address",
          "name": "token",
          "type": "address"
        }
      ],
      "name": "getPriceFeedForToken",
      "outputs": [
        {
          "internalType": "address",
          "name": "",
          "type": "address"
        }
      ],
      "stateMutability": "view",
      "type": "function"
    },
    {
      "inputs": [
        {
          "internalType": "bytes32",
          "name": "role",
          "type": "bytes32"
        }
      ],
      "name": "getRoleAdmin",
      "outputs": [
        {
          "internalType": "bytes32",
          "name": "",
          "type": "bytes32"
        }
      ],
      "stateMutability": "view",
      "type": "function"
    },
    {
      "inputs": [],
      "name": "globalMaxOmegaBps",
      "outputs": [
        {
          "internalType": "uint256",
          "name": "",
          "type": "uint256"
        }
      ],
      "stateMutability": "view",
      "type": "function"
    },
    {
      "inputs": [],
      "name": "gracePeriodTime",
      "outputs": [
        {
          "internalType": "uint256",
          "name": "",
          "type": "uint256"
        }
      ],
      "stateMutability": "view",
      "type": "function"
    },
    {
      "inputs": [
        {
          "internalType": "bytes32",
          "name": "role",
          "type": "bytes32"
        },
        {
          "internalType": "address",
          "name": "account",
          "type": "address"
        }
      ],
      "name": "grantRole",
      "outputs": [],
      "stateMutability": "nonpayable",
      "type": "function"
    },
    {
      "inputs": [
        {
          "internalType": "address",
          "name": "",
          "type": "address"
        }
      ],
      "name": "hardLTVCapBps",
      "outputs": [
        {
          "internalType": "uint256",
          "name": "",
          "type": "uint256"
        }
      ],
      "stateMutability": "view",
      "type": "function"
    },
    {
      "inputs": [
        {
          "internalType": "bytes32",
          "name": "role",
          "type": "bytes32"
        },
        {
          "internalType": "address",
          "name": "account",
          "type": "address"
        }
      ],
      "name": "hasRole",
      "outputs": [
        {
          "internalType": "bool",
          "name": "",
          "type": "bool"
        }
      ],
      "stateMutability": "view",
      "type": "function"
    },
    {
      "inputs": [
        {
          "internalType": "address",
          "name": "token",
          "type": "address"
        }
      ],
      "name": "isFlashPumpFrozen",
      "outputs": [
        {
          "internalType": "bool",
          "name": "",
          "type": "bool"
        }
      ],
      "stateMutability": "view",
      "type": "function"
    },
    {
      "inputs": [
        {
          "internalType": "address",
          "name": "",
          "type": "address"
        }
      ],
      "name": "isQuarantined",
      "outputs": [
        {
          "internalType": "bool",
          "name": "",
          "type": "bool"
        }
      ],
      "stateMutability": "view",
      "type": "function"
    },
    {
      "inputs": [
        {
          "internalType": "address",
          "name": "",
          "type": "address"
        }
      ],
      "name": "lastEWMATimestamp",
      "outputs": [
        {
          "internalType": "uint256",
          "name": "",
          "type": "uint256"
        }
      ],
      "stateMutability": "view",
      "type": "function"
    },
    {
      "inputs": [],
      "name": "maxDrawdownPenaltyBps",
      "outputs": [
        {
          "internalType": "uint256",
          "name": "",
          "type": "uint256"
        }
      ],
      "stateMutability": "view",
      "type": "function"
    },
    {
      "inputs": [],
      "name": "maxPriceAge",
      "outputs": [
        {
          "internalType": "uint256",
          "name": "",
          "type": "uint256"
        }
      ],
      "stateMutability": "view",
      "type": "function"
    },
    {
      "inputs": [],
      "name": "maxTwapLookback",
      "outputs": [
        {
          "internalType": "uint256",
          "name": "",
          "type": "uint256"
        }
      ],
      "stateMutability": "view",
      "type": "function"
    },
    {
      "inputs": [],
      "name": "openClawLighthouse",
      "outputs": [
        {
          "internalType": "address",
          "name": "",
          "type": "address"
        }
      ],
      "stateMutability": "view",
      "type": "function"
    },
    {
      "inputs": [
        {
          "internalType": "address",
          "name": "",
          "type": "address"
        }
      ],
      "name": "pendingTokenFeeds",
      "outputs": [
        {
          "internalType": "address",
          "name": "feed",
          "type": "address"
        },
        {
          "internalType": "uint256",
          "name": "executeAfter",
          "type": "uint256"
        },
        {
          "internalType": "bool",
          "name": "exists",
          "type": "bool"
        }
      ],
      "stateMutability": "view",
      "type": "function"
    },
    {
      "inputs": [
        {
          "internalType": "address",
          "name": "",
          "type": "address"
        }
      ],
      "name": "preTGECaps",
      "outputs": [
        {
          "internalType": "uint256",
          "name": "",
          "type": "uint256"
        }
      ],
      "stateMutability": "view",
      "type": "function"
    },
    {
      "inputs": [],
      "name": "preTGEOracle",
      "outputs": [
        {
          "internalType": "address",
          "name": "",
          "type": "address"
        }
      ],
      "stateMutability": "view",
      "type": "function"
    },
    {
      "inputs": [
        {
          "internalType": "address",
          "name": "token",
          "type": "address"
        },
        {
          "internalType": "bool",
          "name": "status",
          "type": "bool"
        },
        {
          "internalType": "string",
          "name": "reason",
          "type": "string"
        }
      ],
      "name": "quarantineToken",
      "outputs": [],
      "stateMutability": "nonpayable",
      "type": "function"
    },
    {
      "inputs": [
        {
          "internalType": "address",
          "name": "token",
          "type": "address"
        },
        {
          "internalType": "address",
          "name": "feed",
          "type": "address"
        }
      ],
      "name": "queueTokenPriceFeed",
      "outputs": [],
      "stateMutability": "nonpayable",
      "type": "function"
    },
    {
      "inputs": [],
      "name": "rangeVolWeightBps",
      "outputs": [
        {
          "internalType": "uint256",
          "name": "",
          "type": "uint256"
        }
      ],
      "stateMutability": "view",
      "type": "function"
    },
    {
      "inputs": [],
      "name": "registry",
      "outputs": [
        {
          "internalType": "contract VestingRegistry",
          "name": "",
          "type": "address"
        }
      ],
      "stateMutability": "view",
      "type": "function"
    },
    {
      "inputs": [
        {
          "internalType": "bytes32",
          "name": "role",
          "type": "bytes32"
        },
        {
          "internalType": "address",
          "name": "callerConfirmation",
          "type": "address"
        }
      ],
      "name": "renounceRole",
      "outputs": [],
      "stateMutability": "nonpayable",
      "type": "function"
    },
    {
      "inputs": [
        {
          "internalType": "address",
          "name": "token",
          "type": "address"
        },
        {
          "internalType": "uint256",
          "name": "cooldownDuration",
          "type": "uint256"
        }
      ],
      "name": "reportFlashPump",
      "outputs": [],
      "stateMutability": "nonpayable",
      "type": "function"
    },
    {
      "inputs": [
        {
          "internalType": "bytes32",
          "name": "role",
          "type": "bytes32"
        },
        {
          "internalType": "address",
          "name": "account",
          "type": "address"
        }
      ],
      "name": "revokeRole",
      "outputs": [],
      "stateMutability": "nonpayable",
      "type": "function"
    },
    {
      "inputs": [],
      "name": "riskFreeRate",
      "outputs": [
        {
          "internalType": "uint256",
          "name": "",
          "type": "uint256"
        }
      ],
      "stateMutability": "view",
      "type": "function"
    },
    {
      "inputs": [],
      "name": "sequencerUptimeFeed",
      "outputs": [
        {
          "internalType": "address",
          "name": "",
          "type": "address"
        }
      ],
      "stateMutability": "view",
      "type": "function"
    },
    {
      "inputs": [
        {
          "internalType": "bool",
          "name": "enabled",
          "type": "bool"
        },
        {
          "internalType": "uint256",
          "name": "delaySeconds",
          "type": "uint256"
        }
      ],
      "name": "setAdminTimelockConfig",
      "outputs": [],
      "stateMutability": "nonpayable",
      "type": "function"
    },
    {
      "inputs": [
        {
          "internalType": "address",
          "name": "_coprocessor",
          "type": "address"
        }
      ],
      "name": "setCoprocessor",
      "outputs": [],
      "stateMutability": "nonpayable",
      "type": "function"
    },
    {
      "inputs": [
        {
          "internalType": "uint256",
          "name": "penaltyPerBps",
          "type": "uint256"
        },
        {
          "internalType": "uint256",
          "name": "maxPenaltyBps",
          "type": "uint256"
        }
      ],
      "name": "setDrawdownParams",
      "outputs": [],
      "stateMutability": "nonpayable",
      "type": "function"
    },
    {
      "inputs": [
        {
          "internalType": "uint256",
          "name": "newAlphaBps",
          "type": "uint256"
        }
      ],
      "name": "setEWMAAlpha",
      "outputs": [],
      "stateMutability": "nonpayable",
      "type": "function"
    },
    {
      "inputs": [
        {
          "internalType": "uint256",
          "name": "capBps",
          "type": "uint256"
        }
      ],
      "name": "setGlobalMaxOmega",
      "outputs": [],
      "stateMutability": "nonpayable",
      "type": "function"
    },
    {
      "inputs": [
        {
          "internalType": "uint256",
          "name": "timeSeconds",
          "type": "uint256"
        }
      ],
      "name": "setGracePeriodTime",
      "outputs": [],
      "stateMutability": "nonpayable",
      "type": "function"
    },
    {
      "inputs": [
        {
          "internalType": "address",
          "name": "token",
          "type": "address"
        },
        {
          "internalType": "uint256",
          "name": "capBps",
          "type": "uint256"
        }
      ],
      "name": "setHardLTVCap",
      "outputs": [],
      "stateMutability": "nonpayable",
      "type": "function"
    },
    {
      "inputs": [
        {
          "internalType": "uint256",
          "name": "newMaxPriceAge",
          "type": "uint256"
        }
      ],
      "name": "setMaxPriceAge",
      "outputs": [],
      "stateMutability": "nonpayable",
      "type": "function"
    },
    {
      "inputs": [
        {
          "internalType": "uint256",
          "name": "newMax",
          "type": "uint256"
        }
      ],
      "name": "setMaxTwapLookback",
      "outputs": [],
      "stateMutability": "nonpayable",
      "type": "function"
    },
    {
      "inputs": [
        {
          "internalType": "address",
          "name": "_lighthouse",
          "type": "address"
        }
      ],
      "name": "setOpenClawLighthouse",
      "outputs": [],
      "stateMutability": "nonpayable",
      "type": "function"
    },
    {
      "inputs": [
        {
          "internalType": "address",
          "name": "token",
          "type": "address"
        },
        {
          "internalType": "uint256",
          "name": "maxExposureUsd",
          "type": "uint256"
        }
      ],
      "name": "setPreTGECap",
      "outputs": [],
      "stateMutability": "nonpayable",
      "type": "function"
    },
    {
      "inputs": [
        {
          "internalType": "address",
          "name": "_oracle",
          "type": "address"
        }
      ],
      "name": "setPreTGEOracle",
      "outputs": [],
      "stateMutability": "nonpayable",
      "type": "function"
    },
    {
      "inputs": [
        {
          "internalType": "uint256",
          "name": "weightBps",
          "type": "uint256"
        }
      ],
      "name": "setRangeVolWeight",
      "outputs": [],
      "stateMutability": "nonpayable",
      "type": "function"
    },
    {
      "inputs": [
        {
          "internalType": "address",
          "name": "_registry",
          "type": "address"
        }
      ],
      "name": "setRegistry",
      "outputs": [],
      "stateMutability": "nonpayable",
      "type": "function"
    },
    {
      "inputs": [
        {
          "internalType": "uint256",
          "name": "newRate",
          "type": "uint256"
        }
      ],
      "name": "setRiskFreeRate",
      "outputs": [],
      "stateMutability": "nonpayable",
      "type": "function"
    },
    {
      "inputs": [
        {
          "internalType": "address",
          "name": "feed",
          "type": "address"
        }
      ],
      "name": "setSequencerUptimeFeed",
      "outputs": [],
      "stateMutability": "nonpayable",
      "type": "function"
    },
    {
      "inputs": [
        {
          "internalType": "address",
          "name": "token",
          "type": "address"
        },
        {
          "internalType": "uint256",
          "name": "maxBorrowUsd",
          "type": "uint256"
        }
      ],
      "name": "setTokenMaxLiquidityBorrow",
      "outputs": [],
      "stateMutability": "nonpayable",
      "type": "function"
    },
    {
      "inputs": [
        {
          "internalType": "address",
          "name": "token",
          "type": "address"
        },
        {
          "internalType": "uint256",
          "name": "ath",
          "type": "uint256"
        },
        {
          "internalType": "uint256",
          "name": "atl",
          "type": "uint256"
        },
        {
          "internalType": "uint8",
          "name": "boundsDecimals",
          "type": "uint8"
        }
      ],
      "name": "setTokenPriceBounds",
      "outputs": [],
      "stateMutability": "nonpayable",
      "type": "function"
    },
    {
      "inputs": [
        {
          "internalType": "address",
          "name": "token",
          "type": "address"
        },
        {
          "internalType": "address",
          "name": "feed",
          "type": "address"
        }
      ],
      "name": "setTokenPriceFeed",
      "outputs": [],
      "stateMutability": "nonpayable",
      "type": "function"
    },
    {
      "inputs": [
        {
          "internalType": "uint256",
          "name": "newInterval",
          "type": "uint256"
        }
      ],
      "name": "setTwapInterval",
      "outputs": [],
      "stateMutability": "nonpayable",
      "type": "function"
    },
    {
      "inputs": [
        {
          "internalType": "uint256",
          "name": "newVol",
          "type": "uint256"
        }
      ],
      "name": "setVolatility",
      "outputs": [],
      "stateMutability": "nonpayable",
      "type": "function"
    },
    {
      "inputs": [
        {
          "internalType": "bytes4",
          "name": "interfaceId",
          "type": "bytes4"
        }
      ],
      "name": "supportsInterface",
      "outputs": [
        {
          "internalType": "bool",
          "name": "",
          "type": "bool"
        }
      ],
      "stateMutability": "view",
      "type": "function"
    },
    {
      "inputs": [
        {
          "internalType": "address",
          "name": "",
          "type": "address"
        }
      ],
      "name": "tokenEWMA",
      "outputs": [
        {
          "internalType": "uint256",
          "name": "",
          "type": "uint256"
        }
      ],
      "stateMutability": "view",
      "type": "function"
    },
    {
      "inputs": [
        {
          "internalType": "address",
          "name": "",
          "type": "address"
        }
      ],
      "name": "tokenMaxLiquidityBorrow",
      "outputs": [
        {
          "internalType": "uint256",
          "name": "",
          "type": "uint256"
        }
      ],
      "stateMutability": "view",
      "type": "function"
    },
    {
      "inputs": [
        {
          "internalType": "address",
          "name": "",
          "type": "address"
        }
      ],
      "name": "tokenOmegaBps",
      "outputs": [
        {
          "internalType": "uint256",
          "name": "",
          "type": "uint256"
        }
      ],
      "stateMutability": "view",
      "type": "function"
    },
    {
      "inputs": [
        {
          "internalType": "address",
          "name": "",
          "type": "address"
        }
      ],
      "name": "tokenPriceBounds",
      "outputs": [
        {
          "internalType": "uint256",
          "name": "ath",
          "type": "uint256"
        },
        {
          "internalType": "uint256",
          "name": "atl",
          "type": "uint256"
        },
        {
          "internalType": "uint8",
          "name": "decimals",
          "type": "uint8"
        },
        {
          "internalType": "bool",
          "name": "set",
          "type": "bool"
        }
      ],
      "stateMutability": "view",
      "type": "function"
    },
    {
      "inputs": [
        {
          "internalType": "address",
          "name": "",
          "type": "address"
        }
      ],
      "name": "tokenPriceFeeds",
      "outputs": [
        {
          "internalType": "address",
          "name": "",
          "type": "address"
        }
      ],
      "stateMutability": "view",
      "type": "function"
    },
    {
      "inputs": [],
      "name": "twapInterval",
      "outputs": [
        {
          "internalType": "uint256",
          "name": "",
          "type": "uint256"
        }
      ],
      "stateMutability": "view",
      "type": "function"
    },
    {
      "inputs": [
        {
          "internalType": "address",
          "name": "token",
          "type": "address"
        }
      ],
      "name": "updateEWMA",
      "outputs": [
        {
          "internalType": "uint256",
          "name": "",
          "type": "uint256"
        }
      ],
      "stateMutability": "nonpayable",
      "type": "function"
    },
    {
      "inputs": [
        {
          "internalType": "address",
          "name": "token",
          "type": "address"
        },
        {
          "internalType": "uint256",
          "name": "omegaBps",
          "type": "uint256"
        }
      ],
      "name": "updateOmega",
      "outputs": [],
      "stateMutability": "nonpayable",
      "type": "function"
    },
    {
      "inputs": [],
      "name": "volatility",
      "outputs": [
        {
          "internalType": "uint256",
          "name": "",
          "type": "uint256"
        }
      ],
      "stateMutability": "view",
      "type": "function"
    }
  ],
  "transactionHash": "0xa11bbe13cda34187e466b18801365901de18b10a621d9e75d8560e8a504c0e7d",
  "args": [
    "0x0090123bfa5dc5885c6b940D1ada3e908fF6c962",
    "0x39EcF94ed35451A67006dcCE4A467aecdfAB6940"
  ],
  "numDeployments": 4,
  "solcInputHash": "0cefcebe6dee394ed91d0562f09bde67",
  "bytecode": "0x608034620001e75762004a1190601f38839003908101601f19168201906001600160401b03821183831017620001ec5780839160409586948552833981010312620001e7576200005d6020620000558362000202565b920162000202565b90620000698262000217565b50620000758262000297565b507f55435dd261a4b9b3364963f7738a7a662ad9c84396d64be3365284bb7f0a504160008181528060205260018582200191825492600080516020620049f183398151915293848092557fbd79b86ffe0ab8e8776151514217cd7cacd52c909f66475c3af44e129f0b00ff92838580a47f65d7a28e3265b37a6474929f336521b332c1681b933f6cb9f3376673440d862a9081835260018784200192848454945580a482516001600160a01b0392831681527f9789733827840833afc031fb2ef9ab6894271f77bad2085687cf4ae5c7bee4db90602090a160056003556032600455610e10806005558060065560146007556107d0908160085562015180600c556014556032601855601955600a601a55612710601d55168015620001b657600180546001600160a01b031916919091179055516146a89081620003298239f35b815162461bcd60e51b815260206004820152600a602482015269072656769737472793d360b41b6044820152606490fd5b600080fd5b634e487b7160e01b600052604160045260246000fd5b51906001600160a01b0382168203620001e757565b6001600160a01b031660008181527fad3228b676f7d3cd4284a5443f17f1962b36e491b30a40b2405849e597ba5fb5602052604081205490919060ff166200029357818052816020526040822081835260205260408220600160ff198254161790553391600080516020620049d18339815191528180a4600190565b5090565b6001600160a01b031660008181527f6f3b488caa0dc03e5f3d9fd6a25fa8755afcfd62ccffb6e436c696bfa6b866de6020526040812054909190600080516020620049f18339815191529060ff166200032357808352826020526040832082845260205260408320600160ff19825416179055600080516020620049d1833981519152339380a4600190565b50509056fe608080604052600436101561001357600080fd5b60003560e01c90816301ffc9a714612bb5575080630b481d5114612b1e57806311a6f3da14612b0057806312984b0b14612a885780631380c44a14612a4e5780631457db011461299a578063153d2913146129605780631584410a146129425780631fb3b9711461292457806322e9d5bf14612907578063248a9ca3146128d857806324ea54f4146128af5780632dd2ebb4146128915780632f2ff15d1461285257806336568abe1461280b5780633a460ae5146127955780633c1d5df0146127775780633daf46c7146127165780633eba752b1461267b578063440301b31461253b578063449a7efa14612437578063454802e91461240e578063485d6ef8146123cf578063517e36891461236b57806354c37c4f1461234857806356447ce8146122b6578063595476511461227c57806359f27088146121475780635ea679ef146120a95780636480b5b81461206f57806364a2e66114612051578063674417ae14611fc2578063685b464a14611f9757806370c3bd6714611f135780637382084a14611eea5780637402ba2c14611e915780637b10399914611e685780637c48929c14611d59578063906f788814611d1f57806391d1485414611cd257806393fabc3314611ca957806396c7280414611c9057806397cab63c14611c72578063984e9f5014611bc35780639fdcadc414611b44578063a217fddf14611b28578063a3258d7c14611a8b578063a4636bed14611a51578063a4bbe2bf146119bf578063a53566f4146118bd578063a59ffd36146117df578063a7264705146117b6578063a8a4a2f01461177c578063a91ee0dc146116c0578063b8f4496314611638578063bcb5458a146115a0578063bd9c47e314611565578063c133a12f1461145f578063ccc5749014611436578063cce9923014611418578063cf37a89214611335578063d0c156e714611317578063d547741f146112d6578063d5bd765c146112b8578063de75423214611254578063e1a4521814611237578063e1ea1cf5146111a0578063e294209214611182578063e63ab1e914611147578063f26224e6146110ac578063f3cc69931461108e578063fbe7f47114611061578063fd7187ba14610f205763ff4752241461034d57600080fd5b3461071957608036600319011261071957610366612c1e565b6064356001600160a01b038116908190036107195760043515610eee57426044351115610eb65761039682612f3c565b610e675760015460405163152303bd60e21b81526004810192909252602090829060249082906001600160a01b03165afa90811561094d57600091610e2d575b5060ff8116151580610e1f575b15610de4576103f182614078565b61040f610400836004356130f4565b6104098361326a565b90613107565b9060ff8416600103610dc757611388935b60ff8116600103610daf575060025b61043b42604435612fa2565b6001600160c01b038111610cb8576301e133809060401b04905b6001600160801b0382116107195760016001607f1b036001600160801b03831611610719576001600160c01b0360ff821611610c4357606460409190911b60ff60401b1604905b6001600160801b0382116107195760016001607f1b036001600160801b03831611610719576001600160801b038116600f0b610bf45750600160401b9190505b60045460009460018060a01b03881660005260176020526040600020906040519361050685612e58565b825492838652600260018201549182602089015201549360ff85169160ff604089019684885260081c161515918260608a015282610be8575b5081610bde575b50610a8f575b50929350506001600160c01b038311915061099f90505760c89060401b045b6001600160801b038111610719576001600160801b031660016001607f1b0381116107195760016001607f1b0319600f82900b600160401b03121580610984575b1561071957600f0b600160401b03600f0b916000831261097b575b6001600160a01b0386166000908152600e602052604090205483908015610972575b601d5480821161096a575b50601c60205260406000205480151580610961575b610959575b50601b546001600160a01b0316806108a7575b509261064661064b9261064661063961064197613374565b96879461328f565b6132cd565b6132f9565b908461087d575b61065b91613320565b9360016001603f1b0361ffff8216116107195761068e926106469182906106419060401b61ffff60401b16600f0b61328f565b908061071e575b50600f0b916000831261071957604092831d6001600160401b031690612710808311610711575b506001600160a01b0316600090815260106020528390205480151580610708575b6106ef575b5082519182526020820152f35b916106fd83610702936130f4565b613107565b386106e2565b508083116106dd565b9150386106bc565b600080fd5b612710908103818111610867576001600160c01b0381116107775760401b045b6001600160801b038111610719576001600160801b03169060016001607f1b0382116107195761077191600f0b906132f9565b38610695565b60c081811c9291908390600160201b82101561085a575b600282620100006107dd94101561084e575b610100811015610842575b6010811015610836575b600481101561082b575b1015610823575b82600161270f60be1984011c019160ff031b613107565b926001600160801b038411610719578383029160401b9080838310610817575b5061080c570304905b0161073e565b505050600190610806565b600019019050386107fd565b6001016107c6565b91810191811c6107bf565b6004928301921c6107b5565b6008928301921c6107ab565b6010928301921c6107a0565b505060e081811c9061078e565b634e487b7160e01b600052601160045260246000fd5b6127108581039081116108675761065b9261089a6108a092613374565b906132f9565b9150610652565b6040516319be4a7560e11b81526001600160a01b038a1660048201529250602090839060249082905afa801561094d578592600091610912575b5061064b926106466106398484610646956106419a971161090a575b5094975050509250610621565b9050386108fd565b925050926020823d602011610945575b8161092f60209383612ea4565b810103126107195790519092849161064b6108e1565b3d9150610922565b6040513d6000823e3d90fd5b90503861060e565b50808211610609565b9050386105f4565b506127106105e9565b600092506105c7565b5060016001607f1b03600f82900b600160401b0313156105ac565b60c081811c908190600160201b821015610a82575b60028262010000610a02941015610a76575b610100811015610a6a575b6010811015610a5e575b6004811015610a53575b1015610a4b575b83600160c760be1984011c019160ff031b613107565b916001600160801b0383116107195760401b9060c883029080828410610a3f575b50610a355760c8910304905b0161056b565b5050600190610a2f565b60001901905038610a23565b6001016109ec565b91810191811c6109e5565b6004928301921c6109db565b6008928301921c6109d1565b6010928301921c6109c6565b505060e082811c906109b4565b829060ff831681811115610bac57505050610ab56104099160ff610aba9551169061327b565b61326a565b825180151580610ba2575b610b4b575b5050610adc8251602084015190612e4b565b9182610aeb575b80808061054c565b806020610afc925191015190612fa2565b91612710838181020481148415171561086757610b23606492610b2c92610b339602613107565b601a54906130f4565b0490612e4b565b60648111610b43575b8038610ae3565b506064610b3c565b610b56929650612fa2565b61271090808281020482148115171561086757610b7c610b859160649385519102613107565b601854906130f4565b04601954808211610b9a575b50933880610aca565b905038610b91565b5080821115610ac5565b8192955010610bbe575b505050610aba565b610bd69350610bd091610ab59161327b565b906130f4565b388080610bb6565b9050151538610546565b8192501015903861053f565b6001600160801b038216600f0b60016001607f1b03191461071957610c3d91610c38916001600160801b03908116600f90810b9291909116810b600003900b6132f9565b6134a9565b906104dc565b6001600160801b036032603f83901b60ff603f1b160411610719576032603f82901b60ff603f1b1604606402604082901b60ff60401b166000828210610caf575b610ca3576032916064910304915b603f1b60ff603f1b1604019061049c565b50506032600191610c92565b50600019610c84565b60c081811c908190600160201b821015610da2575b60028262010000610d1e941015610d96575b610100811015610d8a575b6010811015610d7e575b6004811015610d73575b1015610d6b575b8360016301e1337f60be1984011c019160ff031b613107565b916001600160801b038311610719576301e13380918383029160401b9080838310610d5f575b50610d54570304905b0190610455565b505050600190610d4d565b60001901905038610d44565b600101610d05565b91810191811c610cfe565b6004928301921c610cf4565b6008928301921c610cea565b6010928301921c610cdf565b505060e082811c90610ccd565b60ff16600203610dc057600561042f565b600a61042f565b60ff8416600203610ddc57610dac5b93610420565b6107d0610dd6565b60405162461bcd60e51b81526020600482015260136024820152721d5b9d995c9a599a59590818dbdb9d1c9858dd606a1b6044820152606490fd5b50600360ff821611156103e3565b90506020813d602011610e5f575b81610e4860209383612ea4565b8101031261071957610e599061325c565b386103d6565b3d9150610e3b565b60405162461bcd60e51b815260206004820152602160248201527f746f6b656e2066726f7a656e3a20666c6173682070756d7020646574656374656044820152601960fa1b6064820152608490fd5b60405162461bcd60e51b815260206004820152601060248201526f185b1c9958591e481d5b9b1bd8dad95960821b6044820152606490fd5b60405162461bcd60e51b815260206004820152600a60248201526907175616e746974793d360b41b6044820152606490fd5b3461071957604036600319011261071957610f39612c08565b610f41612c1e565b3360009081526000805160206145f38339815191526020908152604090912054610f6d9060ff16612dd0565b60ff600b541615611029576001600160a01b03928316917f6ab4d325309c5a4afd1953f37e097db8f6cd0fe10ba23eb26306bfd349eb13d69190610fb2841515612e15565b611020610fc1600c5442612e4b565b9160028760405192610fd284612e89565b16978883528583018581526040840191600183528960005260168852604060002094511660018060a01b031985541617845551600184015551151591019060ff801983541691151516179055565b604051908152a3005b6064906040519062461bcd60e51b8252600482015260116024820152701d1a5b595b1bd8dac8191a5cd8589b1959607a1b6044820152fd5b3461071957602036600319011261071957602061108461107f612c08565b612f3c565b6040519015158152f35b34610719576000366003190112610719576020600354604051908152f35b34610719576020366003190112610719573360009081526000805160206145f38339815191526020526040902054600435906110ea9060ff16612dd0565b60058110158061113c575b156110ff57600755005b60405162461bcd60e51b81526020600482015260156024820152746c6f6f6b6261636b206f7574206f662072616e676560581b6044820152606490fd5b5060648111156110f5565b346107195760003660031901126107195760206040517f65d7a28e3265b37a6474929f336521b332c1681b933f6cb9f3376673440d862a8152f35b34610719576000366003190112610719576020600854604051908152f35b34610719576020366003190112610719573360009081526000805160206145f38339815191526020526040902054600435906111de9060ff16612dd0565b60018110158061122c575b156111f357600355005b60405162461bcd60e51b815260206004820152601160248201527072617465206f7574206f662072616e676560781b6044820152606490fd5b5060148111156111e9565b346107195760003660031901126107195760206040516127108152f35b346107195760203660031901126107195761126d612c08565b3360009081526000805160206145f383398151915260205260409020546112969060ff16612dd0565b601b80546001600160a01b0319166001600160a01b0392909216919091179055005b34610719576000366003190112610719576020601454604051908152f35b34610719576040366003190112610719576113156004356112f5612c1e565b90806000526000602052611310600160406000200154612c34565b612d5b565b005b34610719576000366003190112610719576020600754604051908152f35b346107195760403660031901126107195761134e612c08565b3360009081526000805160206145f38339815191526020526040902054602435919060ff168015611404575b156113c45760207f32a6f6ec8df08a7385e74eac859273662fb8645e637b092f394814e021c4e4469160018060a01b031692836000526012825280604060002055604051908152a2005b60405162461bcd60e51b81526020600482015260186024820152773737ba1037bbb732b91037b91031b7b83937b1b2b9b9b7b960411b6044820152606490fd5b50600d546001600160a01b0316331461137a565b34610719576000366003190112610719576020600454604051908152f35b346107195760003660031901126107195760206040516000805160206146138339815191528152f35b3461071957606036600319011261071957611478612c08565b602435908115158203610719576001600160401b0390604435908282116107195736602383011215610719578160040135928311610719573660248484010111610719573360009081526000805160206145f383398151915260205260409020546114e59060ff16612dd0565b6001600160a01b03166000818152601560205260409020805460ff191660ff861515161790559261151257005b6040602491837fb5bf3a5d2f0fddac0fe694e6ae235d116299ce3b293ba4efdce653a9eb2e9a0c9483519485936020855282602086015201848401376000828201840152601f01601f19168101030190a2005b346107195760203660031901126107195760206001600160a01b0380611589612c08565b166000526002825260406000205416604051908152f35b34610719576020366003190112610719576115b9612c08565b600d546001600160a01b039190821633148015611612575b6115da90612f01565b16806000526011602052600060408120557ff54b86da8253d4649287c659ebfeaad8fd150c4692f222685eb509f1bae73fc8600080a2005b503360009081526000805160206145f3833981519152602052604090205460ff166115d1565b3461071957602036600319011261071957611651612c08565b3360009081526000805160206145f3833981519152602052604090205461167a9060ff16612dd0565b601380546001600160a01b0319166001600160a01b039290921691821790557f32db38c7b3e5c8341ceb63fa1ae4ce0ba937b716427686f76033425ef435341a600080a2005b34610719576020366003190112610719576116d9612c08565b3360009081526000805160206145f383398151915260205260409020546117029060ff16612dd0565b6001600160a01b0316801561174a57600180546001600160a01b031916821790557fd6ceddf6d2a22f21c7c81675c518004eff43bc5c8a6fc32a0b748e69d58671cd600080a2005b60405162461bcd60e51b815260206004820152600a602482015269072656769737472793d360b41b6044820152606490fd5b34610719576020366003190112610719576001600160a01b0361179d612c08565b1660005260106020526020604060002054604051908152f35b34610719576000366003190112610719576013546040516001600160a01b039091168152602090f35b3461071957604036600319011261071957600435801515809103610719573360009081526000805160206145f383398151915260205260409020546024359061182a9060ff16612dd0565b603c811015806118b0575b1561187f577f687911c7f7b365a8368a45830a19c83a06fd492822054b1e7035e987f6ac50699160409160ff19600b541660ff831617600b5580600c5582519182526020820152a1005b60405162461bcd60e51b81526020600482015260096024820152686261642064656c617960b81b6044820152606490fd5b5062278d00811115611835565b34610719576040366003190112610719573360009081526000805160206145f3833981519152602052604090205460043590602435906118ff9060ff16612dd0565b6103e8821161198757611388811161194b57816040917f75a9c32f678cc19b5784380435b4a0d91575945745dd2e434a904944c8e012c2936018558060195582519182526020820152a1005b60405162461bcd60e51b81526020600482015260146024820152730dac2f040e0cadcc2d8e8f240e8dede40d0d2ced60631b6044820152606490fd5b60405162461bcd60e51b815260206004820152601060248201526f0e0cadcc2d8e8f240e8dede40d0d2ced60831b6044820152606490fd5b34610719576020366003190112610719576119d8612c08565b3360009081526000805160206145f38339815191526020526040902054611a019060ff16612dd0565b600d80546001600160a01b0319166001600160a01b03831690811790915590611a2990612c78565b507fa1d165f64fc8038b3ec091282071a15d4a762afdc20908e52066958a80289d03600080a2005b34610719576020366003190112610719576001600160a01b03611a72612c08565b1660005260126020526020604060002054604051908152f35b3461071957604036600319011261071957611aa4612c08565b3360009081526000805160206145f38339815191526020908152604090912054602435927fc4d5bf409918958dfc8b5f72ba6c0a48e36f2fc4dfdd7af9f16b474d2eb39a739291611af79060ff16612dd0565b611b05612710851115612ec7565b6001600160a01b03166000818152601c83526040908190208590555193845292a2005b3461071957600036600319011261071957602060405160008152f35b34610719576020366003190112610719573360009081526000805160206145f3833981519152602052604090205460043590611b829060ff16612dd0565b60648111611b8f57600455005b60405162461bcd60e51b815260206004820152600c60248201526b0ecded840e8dede40d0d2ced60a31b6044820152606490fd5b34610719576020366003190112610719573360009081526000805160206145f3833981519152602052604090205460043590611c019060ff16612dd0565b6103e88111611c3b576020817ffa207c11e031100d60764683bc02845d73fbc0ff01eb725498fe2415157a7f3d92601a55604051908152a1005b60405162461bcd60e51b815260206004820152600f60248201526e0eecad2ced0e840e8dede40d0d2ced608b1b6044820152606490fd5b34610719576000366003190112610719576020601a54604051908152f35b3461071957600036600319011261071957611315612faf565b3461071957600036600319011261071957601b546040516001600160a01b039091168152602090f35b3461071957604036600319011261071957611ceb612c1e565b600435600052600060205260406000209060018060a01b0316600052602052602060ff604060002054166040519015158152f35b34610719576020366003190112610719576001600160a01b03611d40612c08565b1660005260096020526020604060002054604051908152f35b3461071957604036600319011261071957611d72612c08565b3360009081526000805160206145d383398151915260209081526040909120546024359060ff1615611e2a57601d547f358399cc01220edec7636194502bd80a4dc910eb40d9a1281409387bee851c50929181811115611e225750925b6001600160a01b03166000818152601c83526040902054909390801515818382611e18575b5050611e10575b50600e825280604060002055604051908152a2005b905084611dfb565b1190508187611df4565b905092611dcf565b60405162461bcd60e51b815260048101839052601660248201527521b0b63632b91034b9903737ba1033bab0b93234b0b760511b6044820152606490fd5b34610719576000366003190112610719576001546040516001600160a01b039091168152602090f35b346107195760203660031901126107195760606001600160a01b0380611eb5612c08565b1660005260166020526040600020908154169060ff600260018301549201541690604051928352602083015215156040820152f35b3461071957600036600319011261071957600d546040516001600160a01b039091168152602090f35b34610719576020366003190112610719577fbf8898c401e74d1046d23cba1a6380d3f09730b239b8148215650fbcfdcde8586020600435600080516020614613833981519152600052600082526040600020336000528252611f7c60ff60406000205416612dd0565b611f8a612710821115612ec7565b80601d55604051908152a1005b34610719576020366003190112610719576020611fba611fb5612c08565b613127565b604051908152f35b3461071957604036600319011261071957611fdb612c08565b611fe3612c1e565b3360009081526000805160206145f3833981519152602052604090205461200c9060ff16612dd0565b60ff600b541661201f57611315916130bb565b60405162461bcd60e51b815260206004820152600a6024820152691d1a5b595b1bd8dad95960b21b6044820152606490fd5b34610719576000366003190112610719576020601d54604051908152f35b34610719576020366003190112610719576001600160a01b03612090612c08565b1660005260116020526020604060002054604051908152f35b34610719576020366003190112610719573360009081526000805160206145f38339815191526020526040902054600435906120e79060ff16612dd0565b610e108110158061213a575b156120fd57600655005b60405162461bcd60e51b8152602060048201526015602482015274696e74657276616c206f7574206f662072616e676560581b6044820152606490fd5b5062093a808111156120f3565b346107195760208060031936011261071957612161612c08565b60008051602061461383398151915260005260008252604060002033600052825261219360ff60406000205416612dd0565b6001600160a01b03818116600081815260168552604090819020905191906121ba83612e89565b83815416835260ff600260018301549288860193845201541615801560408501526122445751421061220c576113159460169160005252600060026040822082815582600182015501555116906130bb565b60405162461bcd60e51b815260048101869052601060248201526f74696d656c6f636b2070656e64696e6760801b6044820152606490fd5b60405162461bcd60e51b815260048101879052601060248201526f6e6f2071756575656420636f6e66696760801b6044820152606490fd5b34610719576020366003190112610719576001600160a01b0361229d612c08565b16600052600e6020526020604060002054604051908152f35b34610719576020366003190112610719573360009081526000805160206145f38339815191526020526040902054600435906122f49060ff16612dd0565b8015158061233a575b1561230757600555005b60405162461bcd60e51b815260206004820152600b60248201526a626164206d61782061676560a81b6044820152606490fd5b506301e133808111156122fd565b3461071957600036600319011261071957602060ff600b54166040519015158152f35b3461071957602036600319011261071957612384612c08565b3360009081526000805160206145f383398151915260205260409020546123ad9060ff16612dd0565b600f80546001600160a01b0319166001600160a01b0392909216919091179055005b34610719576020366003190112610719576001600160a01b036123f0612c08565b166000526015602052602060ff604060002054166040519015158152f35b3461071957600036600319011261071957600f546040516001600160a01b039091168152602090f35b3461071957604036600319011261071957612450612c08565b600d54602435916001600160a01b0391821633148015612515575b61247490612f01565b1690612481821515612e15565b80151580612508575b156124d45760206124bc7f590a9390629a95932b7f7842b638d679149b13bba001ff50e89aebaca627996d9242612e4b565b836000526011825280604060002055604051908152a2005b60405162461bcd60e51b815260206004820152600c60248201526b3130b210323ab930ba34b7b760a11b6044820152606490fd5b5062093a8081111561248a565b503360009081526000805160206145f3833981519152602052604090205460ff1661246b565b3461071957608036600319011261071957612554612c08565b6024356044356064359060ff8216809203610719573360009081526000805160206145f383398151915260209081526040909120549094906125989060ff16612dd0565b6001600160a01b0316936125ad851515612e15565b81151580612671575b1561263c579160008051602061463383398151915293916060936040516125dc81612e58565b84815281810183815260ff6002604084019387855289810193600185528c600052601787526040600020915182555160018201550192511661ff0083549251151560081b169161ffff1916171790556040519384528301526040820152a2005b6064906040519062461bcd60e51b82526004820152600e60248201526d696e76616c696420626f756e647360901b6044820152fd5b50818410156125b6565b3461071957602036600319011261071957612694612c08565b3360009081526000805160206145f383398151915260205260409020546126bd9060ff16612dd0565b6001600160a01b03166126d1811515612e15565b806000526017602052600060026040822082815582600182015501556000805160206146338339815191526060604051600081526000602082015260006040820152a2005b34610719576020366003190112610719576001600160a01b03612737612c08565b1660005260176020526080604060002060ff81549160026001820154910154906040519384526020840152818116604084015260081c1615156060820152f35b34610719576000366003190112610719576020600654604051908152f35b34610719576020366003190112610719577fd9702fe054bf54417f1c18cd26e9ee6d11dab232b39c5431ef684c62de1edafe60206004356000805160206146138339815191526000526000825260406000203360005282526127fe60ff60406000205416612dd0565b80601455604051908152a1005b3461071957604036600319011261071957612824612c1e565b336001600160a01b038216036128405761131590600435612d5b565b60405163334bd91960e11b8152600490fd5b3461071957604036600319011261071957611315600435612871612c1e565b9080600052600060205261288c600160406000200154612c34565b612cf4565b34610719576000366003190112610719576020601954604051908152f35b346107195760003660031901126107195760206040516000805160206146538339815191528152f35b346107195760203660031901126107195760043560005260006020526020600160406000200154604051908152f35b34610719576000366003190112610719576020604051610bb88152f35b34610719576000366003190112610719576020601854604051908152f35b34610719576000366003190112610719576020600554604051908152f35b34610719576020366003190112610719576001600160a01b03612981612c08565b16600052601c6020526020604060002054604051908152f35b34610719576040366003190112610719576129b3612c08565b600d54602435917fd846b7f99275493ab48b87da527437a131376e865195a541265e721a5e202326916020916001600160a01b0391821633148015612a21575b6129fc90612f01565b1692612a09841515612e15565b836000526010825280604060002055604051908152a2005b5060008051602061461383398151915260009081528084526040808220338352855290205460ff166129f3565b34610719576020366003190112610719576001600160a01b03612a6f612c08565b16600052600a6020526020604060002054604051908152f35b34610719576020366003190112610719576001600160a01b0380612aaa612c08565b166000526002602052604060002054168015612acb57602090604051908152f35b60405162461bcd60e51b815260206004820152600d60248201526c1b9bc81c1c9a58d94819995959609a1b6044820152606490fd5b34610719576000366003190112610719576020600c54604051908152f35b34610719576020366003190112610719573360009081526000805160206145f3833981519152602052604090205460043590612b5c9060ff16612dd0565b80151580612ba9575b15612b6f57600855005b60405162461bcd60e51b8152602060048201526012602482015271616c706861206f7574206f662072616e676560701b6044820152606490fd5b50612710811115612b65565b34610719576020366003190112610719576004359063ffffffff60e01b821680920361071957602091637965db0b60e01b8114908115612bf7575b5015158152f35b6301ffc9a760e01b14905083612bf0565b600435906001600160a01b038216820361071957565b602435906001600160a01b038216820361071957565b80600052600060205260406000203360005260205260ff6040600020541615612c5a5750565b6044906040519063e2517d3f60e01b82523360048301526024820152fd5b6001600160a01b031660008181526000805160206145d383398151915260205260408120549091906000805160206146538339815191529060ff16612cef57808352826020526040832082845260205260408320600160ff198254161790556000805160206145b3833981519152339380a4600190565b505090565b9060009180835282602052604083209160018060a01b03169182845260205260ff60408420541615600014612cef57808352826020526040832082845260205260408320600160ff198254161790556000805160206145b3833981519152339380a4600190565b9060009180835282602052604083209160018060a01b03169182845260205260ff604084205416600014612cef5780835282602052604083208284526020526040832060ff1981541690557ff6391f5c32d9c69d2a47ea670b442974b53935d1edc7fd64eb21e047a839171b339380a4600190565b15612dd757565b60405162461bcd60e51b815260206004820152601660248201527521b0b63632b91034b9903737ba1033b7bb32b93737b960511b6044820152606490fd5b15612e1c57565b60405162461bcd60e51b81526020600482015260076024820152660746f6b656e3d360cc1b6044820152606490fd5b9190820180921161086757565b608081019081106001600160401b03821117612e7357604052565b634e487b7160e01b600052604160045260246000fd5b606081019081106001600160401b03821117612e7357604052565b601f909101601f19168101906001600160401b03821190821017612e7357604052565b15612ece57565b60405162461bcd60e51b815260206004820152600b60248201526a0696e76616c6964206361760ac1b6044820152606490fd5b15612f0857565b60405162461bcd60e51b815260206004820152600c60248201526b1d5b985d5d1a1bdc9a5e995960a21b6044820152606490fd5b6001600160a01b0316600090815260116020526040902054421090565b51906001600160501b038216820361071957565b908160a091031261071957612f8181612f59565b91602082015191604081015191612f9f608060608401519301612f59565b90565b9190820391821161086757565b6013546001600160a01b031680612fc35750565b60a060049160405192838092633fabe5a360e21b82525afa90811561094d576000908192613087575b5061304b57612ffb9042612fa2565b601454101561300657565b60405162461bcd60e51b815260206004820152601d60248201527f53657175656e63657220677261636520706572696f64206163746976650000006044820152606490fd5b60405162461bcd60e51b815260206004820152601460248201527326191029b2b8bab2b731b2b91034b9903237bbb760611b6044820152606490fd5b90506130aa915060a03d81116130b4575b6130a28183612ea4565b810190612f6d565b5092505038612fec565b503d613098565b6001600160a01b039081166130d1811515612e15565b600090815260026020526040902080546001600160a01b03191691909216179055565b8181029291811591840414171561086757565b8115613111570490565b634e487b7160e01b600052601260045260246000fd5b6001600160a01b0390811660008181526002602090815260408083205490941693919084156132545760a060049495845195868092633fabe5a360e21b82525afa93841561324a5782908395613224575b50828113801590613210575b613207578583526009825283832080549081156131f757506131a960085480936130f4565b90612710928303908382116131e357916131ca6131d092600a9695946130f4565b90612e4b565b0495835260098152858484205552205590565b634e487b7160e01b86526011600452602486fd5b829750600a939291505552205590565b50509250505090565b508583526015825260ff8484205416613184565b905061323f91945060a03d81116130b4576130a28183612ea4565b509592505038613178565b83513d84823e3d90fd5b509250505090565b519060ff8216820361071957565b60ff16604d811161086757600a0a90565b9060ff8091169116039060ff821161086757565b600f0b67e6666666666666660260401d60016001607f1b0319811215806132bc575b1561071957600f0b90565b5060016001607f1b038113156132b1565b600f0b67f3333333333333330260401d60016001607f1b0319811215806132bc571561071957600f0b90565b600f91820b910b0260401d60016001607f1b0319811215806132bc571561071957600f0b90565b811561336d57600f0b600090818112613369576001600160801b038316810260401c9260801c026001600160c01b0381116133695760401b908219821161336657500190565b80fd5b5080fd5b5050600090565b6000906001600160c01b0381116133b457612710915060401b045b6001600160801b0390818111610719571660016001607f1b03811161071957600f0b90565b60c081811c92908390600160201b82101561349c575b60028262010000613419941015613490575b610100811015613484575b6010811015613478575b600481101561346d575b1015613465575b83600161270f60be1984011c019160ff031b613107565b926001600160801b038411613369576127109283850292829160401b92848410613459575b505061344e570304905b0161338f565b505050600190613448565b6000190191503861343e565b600101613402565b91810191811c6133fb565b6004928301921c6133f1565b6008928301921c6133e7565b6010928301921c6133dc565b505060e082811c906133ca565b600f0b600160461b811215610719576001600160461b031981126134e957700171547652b82fe1777d0ffda0d23a7d12612f9f910260801d600f0b6134ef565b50600090565b600f81810b600160461b811215610719576001600160461b03198112614035576000926001607f1b91906001603f1b8116840b851261401d575b6001603e1b8116840b8512614000575b6001603d1b8116840b8512613fe3575b6001603c1b8116840b8512613fc6575b6001603b1b8116840b8512613fa9575b6001603a1b8116840b8512613f8c575b600160391b8116840b8512613f6f575b600160381b8116840b8512613f52575b600160371b8116840b8512613f35575b600160361b8116840b8512613f18575b600160351b8116840b8512613efb575b600160341b8116840b8512613ede575b600160331b8116840b8512613ec1575b600160321b8116840b8512613ea4575b600160311b8116840b8512613e87575b600160301b8116840b8512613e6a575b6001602f1b8116840b8512613e4d575b6001602e1b8116840b8512613e30575b6001602d1b8116840b8512613e13575b6001602c1b8116840b8512613df6575b6001602b1b8116840b8512613dd9575b6001602a1b8116840b8512613dbc575b600160291b8116840b8512613d9f575b600160281b8116840b8512613d82575b600160271b8116840b8512613d65575b600160261b8116840b8512613d48575b600160251b8116840b8512613d2b575b600160241b8116840b8512613d0e575b600160231b8116840b8512613cf1575b600160221b8116840b8512613cd4575b600160211b8116840b8512613cb7575b600160201b8116840b8512613c9a575b8463800000008216850b13613c7d575b8463400000008216850b13613c60575b8463200000008216850b13613c43575b8463100000008216850b13613c26575b8463080000008216850b13613c09575b8463040000008216850b13613bec575b8463020000008216850b13613bcf575b8463010000008216850b13613bb2575b84628000008216850b13613b95575b84624000008216850b13613b78575b84622000008216850b13613b5b575b84621000008216850b13613b3e575b84620800008216850b13613b21575b84620400008216850b13613b04575b84620200008216850b13613ae7575b84620100008216850b13613aca575b846180008216850b13613aad575b846140008216850b13613a90575b846120008216850b13613a73575b846110008216850b13613a56575b846108008216850b13613a39575b846104008216850b13613a1c575b846102008216850b136139ff575b846101008216850b136139e3575b8460809181838216870b136139c8575b8160408216870b136139ad575b8160208216870b13613992575b8160108216870b13613977575b8160088216870b1361395c575b8160048216870b13613941575b8160028216870b13613926575b600116850b1361390a575b5060401d820b603f03820b1c9160016001607f1b03831161336657500b90565b67b17217f7d1cf79ab600160801b0190920290911c90386138ea565b680162e42fefa39ef358600160801b01909402821c936138df565b6802c5c85fdf473de6b2600160801b01909402821c936138d2565b68058b90bfbe8e7bcd6d600160801b01909402821c936138c5565b680b17217f7d1cf79afa600160801b01909402821c936138b8565b68162e42fefa39ef366f600160801b01909402821c936138ab565b682c5c85fdf473de6eca600160801b01909402821c9361389e565b6858b90bfbe8e7bce544600160801b01909402821c93613891565b68b17217f7d1cf79e949600160801b0190920260801c91613881565b690162e42fefa39ef44d91600160801b0190920260801c91613873565b6902c5c85fdf473dea871f600160801b0190920260801c91613865565b69058b90bfbe8e7bdcbe2e600160801b0190920260801c91613857565b690b17217f7d1cf7d83c1a600160801b0190920260801c91613849565b69162e42fefa39f02b772c600160801b0190920260801c9161383b565b692c5c85fdf473e242ea38600160801b0190920260801c9161382d565b6958b90bfbe8e7cc35c3f0600160801b0190920260801c9161381f565b69b17217f7d1cfb72b45e1600160801b0190920260801c91613811565b91700100000000000162e42fefa39fe95583c20260801c91613802565b917001000000000002c5c85fdf4741bea6e77e0260801c916137f3565b9170010000000000058b90bfbe8e8b2d3d4ede0260801c916137e4565b91700100000000000b17217f7d1d351a389d400260801c916137d5565b9170010000000000162e42fefa3ae53369388c0260801c916137c6565b91700100000000002c5c85fdf477b662b269450260801c916137b7565b917001000000000058b90bfbe8f71cb4e4b33d0260801c916137a8565b9170010000000000b17217f7d20cf927c8e94c0260801c91613799565b917001000000000162e42fefa494f1478fde050260801c91613789565b9170010000000002c5c85fdf4b15de6f17eb0d0260801c91613779565b91700100000000058b90bfbe9ddbac5e109cce0260801c91613769565b917001000000000b17217f7d5a7716bba4a9ae0260801c91613759565b91700100000000162e42fefb2fed257559bdaa0260801c91613749565b917001000000002c5c85fdf84bd62ae30a74cc0260801c91613739565b9170010000000058b90bfbf8479bd5a81b51ad0260801c91613729565b91700100000000b17217f80f4ef5aadda455540260801c91613719565b9170010000000162e42ff0999ce3541b9fffcf0260801c91613709565b91700100000002c5c85fe31f35a6a30da1be500260801c916136f9565b917001000000058b90bfcdee5acd3c1cedc8230260801c916136e9565b9170010000000b17217fba9c739aa5819f44f90260801c916136d9565b917001000000162e42fff037df38aa2b219f060260801c916136c9565b9170010000002c5c8601cc6b9e94213c72737a0260801c916136b9565b91700100000058b90c0b48c6be5df846c5b2ef0260801c916136a9565b917001000000b1721835514b86e6d96efd1bfe0260801c91613699565b91700100000162e430e5a18f6119e3c02282a50260801c91613689565b917001000002c5c863b73f016468f6bac5ca2b0260801c91613679565b9170010000058b90cf1e6d97f9ca14dbcc16280260801c91613669565b91700100000b1721bcfc99d9f890ea069117630260801c91613659565b9170010000162e43f4f831060e02d839a9d16d0260801c91613649565b91700100002c5c89d5ec6ca4d7c8acc017b7c90260801c91613639565b917001000058b91b5bc9ae2eed81e9b7d4cfab0260801c91613629565b9170010000b17255775c040618bf4a4ade83fc0260801c91613619565b917001000162e525ee054754457d59952920260260801c91613609565b9170010002c5cc37da9491d0985c348c68e7b30260801c916135f9565b91700100058ba01fb9f96d6cacd4b180917c3d0260801c916135e9565b917001000b175effdc76ba38e31671ca9397250260801c916135d9565b91700100162f3904051fa128bca9c55c31e5df0260801c916135c9565b917001002c605e2e8cec506d21bfc89a23a00f0260801c916135b9565b9170010058c86da1c09ea1ff19d294cf2f679b0260801c916135a9565b91700100b1afa5abcbed6129ab13ec11dc95430260801c91613599565b9170010163da9fb33356d84a66ae336dcdfa3f0260801c91613589565b91700102c9a3e778060ee6f7caca4f7a29bde80260801c91613579565b917001059b0d31585743ae7c548eb68ca417fd0260801c91613569565b9170010b5586cf9890f6298b92b71842a983630260801c91613559565b917001172b83c7d517adcdf7c8c50eb14a791f0260801c91613549565b917001306fe0a31b7152de8d5a46305c85edec0260801c91613539565b6fb504f333f9de6484597d89b3754abe9f9250613529565b505050600090565b1561404457565b60405162461bcd60e51b815260206004820152600c60248201526b199d5d1d5c99481c9bdd5b9960a21b6044820152606490fd5b90614081612faf565b6001600160a01b038281166000908152600260205260409020548116929083156144c957604051633fabe5a360e21b81529060a082600481885afa94851561094d576000809360009761449e575b5060405163313ce56760e01b815296602088600481865afa97881561094d57600098614462575b508760008613801590614448575b61443a575080156144055761411b8142101561403d565b6141258142612fa2565b600554106143d2576000926000928692600654938442116000146143c85761414d8542612fa2565b93919290935b6007546000955b828611806143b6575b806143ad575b1561439f576000199680881461086757600101966001600160501b03908582168101821061086757604051639a6fc8f560e01b81529582160116600485015260a084602481885afa9060009682600096600094614371575b506142e05750505050505050506001905b1061429e5760011c81111561425f576141ea91613107565b92166000908152600960205260409020548015614251576008549061420f82846130f4565b612710928303918383116108675761422a926131ca916130f4565b04918082101561424a57505b8082101561424457505b9190565b90509190565b9050614236565b508082101561424457509190565b60405162461bcd60e51b81526020600482015260176024820152760d2dce6eaccccd2c6d2cadce840a8ae82a040c8cae0e8d604b1b6044820152606490fd5b60405162461bcd60e51b815260206004820152601a602482015279696e73756666696369656e74206f7261636c6520726f756e647360301b6044820152606490fd5b84839495969799989b9c9293108015614369575b801561435e575b6143315761432192916131ca6143148661431b94612fa2565b80946130f4565b9a612e4b565b979093919092919593949561415a565b614358979a5060019850614314929650614352959194506131ca9350612fa2565b95612e4b565b926141d2565b5060008713156142fb565b5083156142f4565b919850925061439091955060a03d60a0116130b4576130a28183612ea4565b509692905097909592386141c1565b5050505050506001906141d2565b50818710614169565b506001600160501b0384161515614163565b9290916000614153565b60405162461bcd60e51b815260206004820152600b60248201526a7374616c6520707269636560a81b6044820152606490fd5b60405162461bcd60e51b815260206004820152600d60248201526c06261642074696d657374616d7609c1b6044820152606490fd5b975050505050505060009190565b50848716600052601560205260ff60406000205416614104565b9097506020813d602011614496575b8161447e60209383612ea4565b810103126107195761448f9061325c565b96386140f6565b3d9150614471565b919650506144bc91925060a03d60a0116130b4576130a28183612ea4565b50969193929050386140cf565b600f5481169350831561456257602460609260405195869384926302c68be360e31b84521660048301525afa801561094d57600090600093600091614516575b506142409042101561403d565b935050506060823d821161455a575b8161453260609383612ea4565b8101031261071957815191614240604061454e6020840161325c565b92015193919390614509565b3d9150614525565b60405162461bcd60e51b815260206004820152602260248201527f6e6f207072696365206665656420616e64206e6f20707265544745206f7261636044820152616c6560f01b6064820152608490fdfe2f8788117e7eff1d82e926ec794901d17c78024a50270940304540a733656f0d8a40f0b47fdc2a0ce293b772acfc7508c8315a4d462786c1adc3a56f92ca2d056f3b488caa0dc03e5f3d9fd6a25fa8755afcfd62ccffb6e436c696bfa6b866de7935bd0ae54bc31f548c14dba4d37c5c64b3f8ca900cb468fb8abd54d5894f551bd846b49ea2dab5c657abf37a6c691fb4341d87a08f749d9c9ac9352c1219f355435dd261a4b9b3364963f7738a7a662ad9c84396d64be3365284bb7f0a5041a26469706673582212200901bb8d72729bb685adfda322df65329b3f65686dc9a9747c57792cb407210d64736f6c634300081400332f8788117e7eff1d82e926ec794901d17c78024a50270940304540a733656f0d7935bd0ae54bc31f548c14dba4d37c5c64b3f8ca900cb468fb8abd54d5894f55",
  "devdoc": {
    "errors": {
      "AccessControlBadConfirmation()": [
        {
          "details": "The caller of a function is not the expected one. NOTE: Don't confuse with {AccessControlUnauthorizedAccount}."
        }
      ],
      "AccessControlUnauthorizedAccount(address,bytes32)": [
        {
          "details": "The `account` is missing a role."
        }
      ]
    },
    "events": {
      "RoleAdminChanged(bytes32,bytes32,bytes32)": {
        "details": "Emitted when `newAdminRole` is set as ``role``'s admin role, replacing `previousAdminRole` `DEFAULT_ADMIN_ROLE` is the starting admin for all roles, despite {RoleAdminChanged} not being emitted to signal this."
      },
      "RoleGranted(bytes32,address,address)": {
        "details": "Emitted when `account` is granted `role`. `sender` is the account that originated the contract call. This account bears the admin role (for the granted role). Expected in cases where the role was granted using the internal {AccessControl-_grantRole}."
      },
      "RoleRevoked(bytes32,address,address)": {
        "details": "Emitted when `account` is revoked `role`. `sender` is the account that originated the contract call:   - if using `revokeRole`, it is the admin role bearer   - if using `renounceRole`, it is the role bearer (i.e. `account`)"
      }
    },
    "kind": "dev",
    "methods": {
      "getRoleAdmin(bytes32)": {
        "details": "Returns the admin role that controls `role`. See {grantRole} and {revokeRole}. To change a role's admin, use {_setRoleAdmin}."
      },
      "grantRole(bytes32,address)": {
        "details": "Grants `role` to `account`. If `account` had not been already granted `role`, emits a {RoleGranted} event. Requirements: - the caller must have ``role``'s admin role. May emit a {RoleGranted} event."
      },
      "hasRole(bytes32,address)": {
        "details": "Returns `true` if `account` has been granted `role`."
      },
      "renounceRole(bytes32,address)": {
        "details": "Revokes `role` from the calling account. Roles are often managed via {grantRole} and {revokeRole}: this function's purpose is to provide a mechanism for accounts to lose their privileges if they are compromised (such as when a trusted device is misplaced). If the calling account had been revoked `role`, emits a {RoleRevoked} event. Requirements: - the caller must be `callerConfirmation`. May emit a {RoleRevoked} event."
      },
      "reportFlashPump(address,uint256)": {
        "params": {
          "cooldownDuration": "Duration in seconds to freeze new loans (e.g. 48 hours).",
          "token": "The affected collateral token."
        }
      },
      "revokeRole(bytes32,address)": {
        "details": "Revokes `role` from `account`. If `account` had been granted `role`, emits a {RoleRevoked} event. Requirements: - the caller must have ``role``'s admin role. May emit a {RoleRevoked} event."
      },
      "supportsInterface(bytes4)": {
        "details": "Returns true if this contract implements the interface defined by `interfaceId`. See the corresponding https://eips.ethereum.org/EIPS/eip-165#how-interfaces-are-identified[ERC section] to learn more about how these ids are created. This function call must use less than 30 000 gas."
      }
    },
    "version": 1
  },
  "userdoc": {
    "kind": "user",
    "methods": {
      "checkSequencerActive()": {
        "notice": "Checks if the sequencer is up and the grace period has passed. Reverts if sequencer is down or grace period is active to halt liquidations."
      },
      "clearFlashPumpCooldown(address)": {
        "notice": "Clear a flash pump cooldown (e.g. after manual review confirms price is legitimate)."
      },
      "drawdownPenaltyPerBps()": {
        "notice": "Extra discount per 1% drawdown from ATH (bps of discount per 100 bps drawdown); e.g. 50 = 0.5% extra per 1%"
      },
      "maxDrawdownPenaltyBps()": {
        "notice": "Cap on total drawdown-based extra discount (bps); e.g. 2000 = 20%"
      },
      "maxTwapLookback()": {
        "notice": "Max number of Chainlink rounds to walk back when calculating TWAP. Configurable so operators can tune for chains with high-frequency oracles."
      },
      "rangeVolWeightBps()": {
        "notice": "How much range (ATH-ATL)/mid adds to volatility (bps of vol per 100 bps range ratio); e.g. 10"
      },
      "reportFlashPump(address,uint256)": {
        "notice": "Called by the Omega AI coprocessor when it detects a suspicious price spike. Blocks new loan origination against the token until the cooldown expires."
      },
      "setEWMAAlpha(uint256)": {
        "notice": "Set the smoothing factor (alpha) for the EWMA explicitly."
      },
      "setMaxTwapLookback(uint256)": {
        "notice": "Set the maximum number of Chainlink rounds to walk back for TWAP. Increase on chains with high oracle cadence; decrease to save gas on slower chains."
      },
      "setPreTGECap(address,uint256)": {
        "notice": "View function: returns true if a token is currently flash-pump frozen."
      },
      "setTokenMaxLiquidityBorrow(address,uint256)": {
        "notice": "Set the maximum USD notional (18 decimals) that can be originated against a token. This value should reflect the realistic slippage-adjusted exit value of the DEX pool depth. Set to 0 to remove the cap (not recommended for illiquid assets)."
      },
      "setTokenPriceBounds(address,uint256,uint256,uint8)": {
        "notice": "Set all-time high and all-time low for a token (same decimals as the token's price feed)."
      },
      "updateEWMA(address)": {
        "notice": "State-mutating function to update EWMA for a token. Usually called by a keeper or implicitly."
      }
    },
    "version": 1
  },
  "storageLayout": {
    "storage": [
      {
        "astId": 73,
        "contract": "contracts/ValuationEngine.sol:ValuationEngine",
        "label": "_roles",
        "offset": 0,
        "slot": "0",
        "type": "t_mapping(t_bytes32,t_struct(RoleData)68_storage)"
      },
      {
        "astId": 23539,
        "contract": "contracts/ValuationEngine.sol:ValuationEngine",
        "label": "registry",
        "offset": 0,
        "slot": "1",
        "type": "t_contract(VestingRegistry)26969"
      },
      {
        "astId": 23543,
        "contract": "contracts/ValuationEngine.sol:ValuationEngine",
        "label": "tokenPriceFeeds",
        "offset": 0,
        "slot": "2",
        "type": "t_mapping(t_address,t_address)"
      },
      {
        "astId": 23546,
        "contract": "contracts/ValuationEngine.sol:ValuationEngine",
        "label": "riskFreeRate",
        "offset": 0,
        "slot": "3",
        "type": "t_uint256"
      },
      {
        "astId": 23549,
        "contract": "contracts/ValuationEngine.sol:ValuationEngine",
        "label": "volatility",
        "offset": 0,
        "slot": "4",
        "type": "t_uint256"
      },
      {
        "astId": 23552,
        "contract": "contracts/ValuationEngine.sol:ValuationEngine",
        "label": "maxPriceAge",
        "offset": 0,
        "slot": "5",
        "type": "t_uint256"
      },
      {
        "astId": 23555,
        "contract": "contracts/ValuationEngine.sol:ValuationEngine",
        "label": "twapInterval",
        "offset": 0,
        "slot": "6",
        "type": "t_uint256"
      },
      {
        "astId": 23559,
        "contract": "contracts/ValuationEngine.sol:ValuationEngine",
        "label": "maxTwapLookback",
        "offset": 0,
        "slot": "7",
        "type": "t_uint256"
      },
      {
        "astId": 23562,
        "contract": "contracts/ValuationEngine.sol:ValuationEngine",
        "label": "ewmaAlpha",
        "offset": 0,
        "slot": "8",
        "type": "t_uint256"
      },
      {
        "astId": 23566,
        "contract": "contracts/ValuationEngine.sol:ValuationEngine",
        "label": "tokenEWMA",
        "offset": 0,
        "slot": "9",
        "type": "t_mapping(t_address,t_uint256)"
      },
      {
        "astId": 23570,
        "contract": "contracts/ValuationEngine.sol:ValuationEngine",
        "label": "lastEWMATimestamp",
        "offset": 0,
        "slot": "10",
        "type": "t_mapping(t_address,t_uint256)"
      },
      {
        "astId": 23572,
        "contract": "contracts/ValuationEngine.sol:ValuationEngine",
        "label": "adminTimelockEnabled",
        "offset": 0,
        "slot": "11",
        "type": "t_bool"
      },
      {
        "astId": 23575,
        "contract": "contracts/ValuationEngine.sol:ValuationEngine",
        "label": "adminTimelockDelay",
        "offset": 0,
        "slot": "12",
        "type": "t_uint256"
      },
      {
        "astId": 23577,
        "contract": "contracts/ValuationEngine.sol:ValuationEngine",
        "label": "coprocessor",
        "offset": 0,
        "slot": "13",
        "type": "t_address"
      },
      {
        "astId": 23581,
        "contract": "contracts/ValuationEngine.sol:ValuationEngine",
        "label": "tokenOmegaBps",
        "offset": 0,
        "slot": "14",
        "type": "t_mapping(t_address,t_uint256)"
      },
      {
        "astId": 23583,
        "contract": "contracts/ValuationEngine.sol:ValuationEngine",
        "label": "preTGEOracle",
        "offset": 0,
        "slot": "15",
        "type": "t_address"
      },
      {
        "astId": 23587,
        "contract": "contracts/ValuationEngine.sol:ValuationEngine",
        "label": "tokenMaxLiquidityBorrow",
        "offset": 0,
        "slot": "16",
        "type": "t_mapping(t_address,t_uint256)"
      },
      {
        "astId": 23591,
        "contract": "contracts/ValuationEngine.sol:ValuationEngine",
        "label": "flashPumpCooldownUntil",
        "offset": 0,
        "slot": "17",
        "type": "t_mapping(t_address,t_uint256)"
      },
      {
        "astId": 23595,
        "contract": "contracts/ValuationEngine.sol:ValuationEngine",
        "label": "preTGECaps",
        "offset": 0,
        "slot": "18",
        "type": "t_mapping(t_address,t_uint256)"
      },
      {
        "astId": 23597,
        "contract": "contracts/ValuationEngine.sol:ValuationEngine",
        "label": "sequencerUptimeFeed",
        "offset": 0,
        "slot": "19",
        "type": "t_address"
      },
      {
        "astId": 23600,
        "contract": "contracts/ValuationEngine.sol:ValuationEngine",
        "label": "gracePeriodTime",
        "offset": 0,
        "slot": "20",
        "type": "t_uint256"
      },
      {
        "astId": 23604,
        "contract": "contracts/ValuationEngine.sol:ValuationEngine",
        "label": "isQuarantined",
        "offset": 0,
        "slot": "21",
        "type": "t_mapping(t_address,t_bool)"
      },
      {
        "astId": 23616,
        "contract": "contracts/ValuationEngine.sol:ValuationEngine",
        "label": "pendingTokenFeeds",
        "offset": 0,
        "slot": "22",
        "type": "t_mapping(t_address,t_struct(PendingTokenFeed)23611_storage)"
      },
      {
        "astId": 23631,
        "contract": "contracts/ValuationEngine.sol:ValuationEngine",
        "label": "tokenPriceBounds",
        "offset": 0,
        "slot": "23",
        "type": "t_mapping(t_address,t_struct(TokenPriceBounds)23626_storage)"
      },
      {
        "astId": 23635,
        "contract": "contracts/ValuationEngine.sol:ValuationEngine",
        "label": "drawdownPenaltyPerBps",
        "offset": 0,
        "slot": "24",
        "type": "t_uint256"
      },
      {
        "astId": 23639,
        "contract": "contracts/ValuationEngine.sol:ValuationEngine",
        "label": "maxDrawdownPenaltyBps",
        "offset": 0,
        "slot": "25",
        "type": "t_uint256"
      },
      {
        "astId": 23643,
        "contract": "contracts/ValuationEngine.sol:ValuationEngine",
        "label": "rangeVolWeightBps",
        "offset": 0,
        "slot": "26",
        "type": "t_uint256"
      },
      {
        "astId": 23904,
        "contract": "contracts/ValuationEngine.sol:ValuationEngine",
        "label": "openClawLighthouse",
        "offset": 0,
        "slot": "27",
        "type": "t_address"
      },
      {
        "astId": 23941,
        "contract": "contracts/ValuationEngine.sol:ValuationEngine",
        "label": "hardLTVCapBps",
        "offset": 0,
        "slot": "28",
        "type": "t_mapping(t_address,t_uint256)"
      },
      {
        "astId": 23944,
        "contract": "contracts/ValuationEngine.sol:ValuationEngine",
        "label": "globalMaxOmegaBps",
        "offset": 0,
        "slot": "29",
        "type": "t_uint256"
      }
    ],
    "types": {
      "t_address": {
        "encoding": "inplace",
        "label": "address",
        "numberOfBytes": "20"
      },
      "t_bool": {
        "encoding": "inplace",
        "label": "bool",
        "numberOfBytes": "1"
      },
      "t_bytes32": {
        "encoding": "inplace",
        "label": "bytes32",
        "numberOfBytes": "32"
      },
      "t_contract(VestingRegistry)26969": {
        "encoding": "inplace",
        "label": "contract VestingRegistry",
        "numberOfBytes": "20"
      },
      "t_mapping(t_address,t_address)": {
        "encoding": "mapping",
        "key": "t_address",
        "label": "mapping(address => address)",
        "numberOfBytes": "32",
        "value": "t_address"
      },
      "t_mapping(t_address,t_bool)": {
        "encoding": "mapping",
        "key": "t_address",
        "label": "mapping(address => bool)",
        "numberOfBytes": "32",
        "value": "t_bool"
      },
      "t_mapping(t_address,t_struct(PendingTokenFeed)23611_storage)": {
        "encoding": "mapping",
        "key": "t_address",
        "label": "mapping(address => struct ValuationEngine.PendingTokenFeed)",
        "numberOfBytes": "32",
        "value": "t_struct(PendingTokenFeed)23611_storage"
      },
      "t_mapping(t_address,t_struct(TokenPriceBounds)23626_storage)": {
        "encoding": "mapping",
        "key": "t_address",
        "label": "mapping(address => struct ValuationEngine.TokenPriceBounds)",
        "numberOfBytes": "32",
        "value": "t_struct(TokenPriceBounds)23626_storage"
      },
      "t_mapping(t_address,t_uint256)": {
        "encoding": "mapping",
        "key": "t_address",
        "label": "mapping(address => uint256)",
        "numberOfBytes": "32",
        "value": "t_uint256"
      },
      "t_mapping(t_bytes32,t_struct(RoleData)68_storage)": {
        "encoding": "mapping",
        "key": "t_bytes32",
        "label": "mapping(bytes32 => struct AccessControl.RoleData)",
        "numberOfBytes": "32",
        "value": "t_struct(RoleData)68_storage"
      },
      "t_struct(PendingTokenFeed)23611_storage": {
        "encoding": "inplace",
        "label": "struct ValuationEngine.PendingTokenFeed",
        "members": [
          {
            "astId": 23606,
            "contract": "contracts/ValuationEngine.sol:ValuationEngine",
            "label": "feed",
            "offset": 0,
            "slot": "0",
            "type": "t_address"
          },
          {
            "astId": 23608,
            "contract": "contracts/ValuationEngine.sol:ValuationEngine",
            "label": "executeAfter",
            "offset": 0,
            "slot": "1",
            "type": "t_uint256"
          },
          {
            "astId": 23610,
            "contract": "contracts/ValuationEngine.sol:ValuationEngine",
            "label": "exists",
            "offset": 0,
            "slot": "2",
            "type": "t_bool"
          }
        ],
        "numberOfBytes": "96"
      },
      "t_struct(RoleData)68_storage": {
        "encoding": "inplace",
        "label": "struct AccessControl.RoleData",
        "members": [
          {
            "astId": 65,
            "contract": "contracts/ValuationEngine.sol:ValuationEngine",
            "label": "hasRole",
            "offset": 0,
            "slot": "0",
            "type": "t_mapping(t_address,t_bool)"
          },
          {
            "astId": 67,
            "contract": "contracts/ValuationEngine.sol:ValuationEngine",
            "label": "adminRole",
            "offset": 0,
            "slot": "1",
            "type": "t_bytes32"
          }
        ],
        "numberOfBytes": "64"
      },
      "t_struct(TokenPriceBounds)23626_storage": {
        "encoding": "inplace",
        "label": "struct ValuationEngine.TokenPriceBounds",
        "members": [
          {
            "astId": 23619,
            "contract": "contracts/ValuationEngine.sol:ValuationEngine",
            "label": "ath",
            "offset": 0,
            "slot": "0",
            "type": "t_uint256"
          },
          {
            "astId": 23621,
            "contract": "contracts/ValuationEngine.sol:ValuationEngine",
            "label": "atl",
            "offset": 0,
            "slot": "1",
            "type": "t_uint256"
          },
          {
            "astId": 23623,
            "contract": "contracts/ValuationEngine.sol:ValuationEngine",
            "label": "decimals",
            "offset": 0,
            "slot": "2",
            "type": "t_uint8"
          },
          {
            "astId": 23625,
            "contract": "contracts/ValuationEngine.sol:ValuationEngine",
            "label": "set",
            "offset": 1,
            "slot": "2",
            "type": "t_bool"
          }
        ],
        "numberOfBytes": "96"
      },
      "t_uint256": {
        "encoding": "inplace",
        "label": "uint256",
        "numberOfBytes": "32"
      },
      "t_uint8": {
        "encoding": "inplace",
        "label": "uint8",
        "numberOfBytes": "1"
      }
    }
  }
}