{
  "address": "0x96966cA06C6AD57aa45A8D25a322849ec975B282",
  "abi": [
    {
      "inputs": [],
      "stateMutability": "nonpayable",
      "type": "constructor"
    },
    {
      "inputs": [
        {
          "internalType": "address",
          "name": "owner",
          "type": "address"
        }
      ],
      "name": "OwnableInvalidOwner",
      "type": "error"
    },
    {
      "inputs": [
        {
          "internalType": "address",
          "name": "account",
          "type": "address"
        }
      ],
      "name": "OwnableUnauthorizedAccount",
      "type": "error"
    },
    {
      "anonymous": false,
      "inputs": [
        {
          "indexed": true,
          "internalType": "address",
          "name": "previousOwner",
          "type": "address"
        },
        {
          "indexed": true,
          "internalType": "address",
          "name": "newOwner",
          "type": "address"
        }
      ],
      "name": "OwnershipTransferred",
      "type": "event"
    },
    {
      "inputs": [
        {
          "internalType": "uint256",
          "name": "",
          "type": "uint256"
        }
      ],
      "name": "collaterals",
      "outputs": [
        {
          "internalType": "address",
          "name": "vestingContract",
          "type": "address"
        },
        {
          "internalType": "address",
          "name": "token",
          "type": "address"
        },
        {
          "internalType": "uint256",
          "name": "totalAmount",
          "type": "uint256"
        },
        {
          "internalType": "uint256",
          "name": "unlockTime",
          "type": "uint256"
        }
      ],
      "stateMutability": "view",
      "type": "function"
    },
    {
      "inputs": [
        {
          "internalType": "uint256",
          "name": "collateralId",
          "type": "uint256"
        },
        {
          "internalType": "address",
          "name": "vestingContract",
          "type": "address"
        },
        {
          "internalType": "address",
          "name": "borrower",
          "type": "address"
        }
      ],
      "name": "escrow",
      "outputs": [],
      "stateMutability": "nonpayable",
      "type": "function"
    },
    {
      "inputs": [
        {
          "internalType": "uint256",
          "name": "collateralId",
          "type": "uint256"
        }
      ],
      "name": "getDetails",
      "outputs": [
        {
          "internalType": "uint256",
          "name": "quantity",
          "type": "uint256"
        },
        {
          "internalType": "address",
          "name": "token",
          "type": "address"
        },
        {
          "internalType": "uint256",
          "name": "unlockTime",
          "type": "uint256"
        }
      ],
      "stateMutability": "view",
      "type": "function"
    },
    {
      "inputs": [],
      "name": "loanManager",
      "outputs": [
        {
          "internalType": "address",
          "name": "",
          "type": "address"
        }
      ],
      "stateMutability": "view",
      "type": "function"
    },
    {
      "inputs": [
        {
          "internalType": "address",
          "name": "",
          "type": "address"
        },
        {
          "internalType": "address",
          "name": "",
          "type": "address"
        },
        {
          "internalType": "uint256",
          "name": "",
          "type": "uint256"
        },
        {
          "internalType": "bytes",
          "name": "",
          "type": "bytes"
        }
      ],
      "name": "onERC721Received",
      "outputs": [
        {
          "internalType": "bytes4",
          "name": "",
          "type": "bytes4"
        }
      ],
      "stateMutability": "pure",
      "type": "function"
    },
    {
      "inputs": [],
      "name": "owner",
      "outputs": [
        {
          "internalType": "address",
          "name": "",
          "type": "address"
        }
      ],
      "stateMutability": "view",
      "type": "function"
    },
    {
      "inputs": [
        {
          "internalType": "uint256",
          "name": "collateralId",
          "type": "uint256"
        },
        {
          "internalType": "address",
          "name": "to",
          "type": "address"
        },
        {
          "internalType": "uint256",
          "name": "amount",
          "type": "uint256"
        }
      ],
      "name": "releaseTo",
      "outputs": [],
      "stateMutability": "nonpayable",
      "type": "function"
    },
    {
      "inputs": [],
      "name": "renounceOwnership",
      "outputs": [],
      "stateMutability": "nonpayable",
      "type": "function"
    },
    {
      "inputs": [
        {
          "internalType": "address",
          "name": "manager",
          "type": "address"
        }
      ],
      "name": "setLoanManager",
      "outputs": [],
      "stateMutability": "nonpayable",
      "type": "function"
    },
    {
      "inputs": [
        {
          "internalType": "address",
          "name": "newOwner",
          "type": "address"
        }
      ],
      "name": "transferOwnership",
      "outputs": [],
      "stateMutability": "nonpayable",
      "type": "function"
    },
    {
      "inputs": [
        {
          "internalType": "uint256",
          "name": "",
          "type": "uint256"
        }
      ],
      "name": "vestingContracts",
      "outputs": [
        {
          "internalType": "address",
          "name": "",
          "type": "address"
        }
      ],
      "stateMutability": "view",
      "type": "function"
    }
  ],
  "transactionHash": "0xf1e4b6849c152c44ca61bafff88eb8bf6effe3d70a339db835207ca440b0b534",
  "args": [],
  "numDeployments": 2,
  "solcInputHash": "ad2d00673498c6bd78abd43517227e0c",
  "bytecode": "0x6080806040523461007a5733156100645760008054336001600160a01b03198216811783556040519290916001600160a01b0316907f8be0079c531659141344cd1fd0a4f28419497f9722a3daafe3b4186f6b6457e09080a3610c1a90816100808239f35b631e4fbdf760e01b815260006004820152602490fd5b600080fdfe6080604081815260048036101561001557600080fd5b600092833560e01c908163150b7a0214610a6a5750806324c1173b14610a165780632a7d7bc51461084f5780635772ae70146107d657806358281bf3146107a4578063715018a6146107475780638da5cb5b1461071f578063b3ccbcfe146106f6578063b93a89f7146105aa578063f2b42e121461012a5763f2fde38b1461009c57600080fd5b34610126576020366003190112610126576100b5610ad8565b906100be610b04565b6001600160a01b03918216928315610110575050600054826001600160601b0360a01b821617600055167f8be0079c531659141344cd1fd0a4f28419497f9722a3daafe3b4186f6b6457e0600080a380f35b51631e4fbdf760e01b8152908101849052602490fd5b8280fd5b503461012657606036600319011261012657803591610147610aee565b6001600160a01b03936044803586811695919086900361033857851561057b57853314801561056e575b1561053b57833b15610508578288526020936002855287868a2054166104dc5787169585516338af3eed60e01b8152858185818b5afa9081156103a7579089918b916104bf575b50160361048b57845163be9a655560e01b815291848382818a5afa928315610481578993610452575b5085516303ed69ad60e21b8152858183818b5afa9081156103a7578a91610425575b5080156103f75783018093116103e457428311156103b1578551637e062a3560e11b8152858183818b5afa9081156103a7579089918b9161037a575b501690811561034e578651631e480f7160e21b815292868483818c5afa938415610344578b94610310575b5083156102e457505091600394939291859287519461028886610b30565b898652868601918252888601928352606086019384528b526002865289888c20955116996001600160601b0360a01b9a8b875416178655600186019151168a825416179055516002840155519101555283209182541617905580f35b875162461bcd60e51b815291820187905260076024830152660746f74616c3d360cc1b90820152606490fd5b9093508681813d831161033d575b6103288183610b62565b810103126103385751923861026a565b600080fd5b503d61031e565b88513d8d823e3d90fd5b865162461bcd60e51b815290810186905260076024820152660746f6b656e3d360cc1b81840152606490fd5b61039a9150873d89116103a0575b6103928183610b62565b810190610b84565b3861023f565b503d610388565b87513d8c823e3d90fd5b6f185b1c9958591e481d5b9b1bd8dad95960821b6064928688519362461bcd60e51b855284015260106024840152820152fd5b634e487b7160e01b895260119052602488fd5b506906475726174696f6e3d360b41b6064928688519362461bcd60e51b8552840152600a6024840152820152fd5b90508581813d831161044b575b61043c8183610b62565b81010312610338575138610203565b503d610432565b9092508481813d831161047a575b61046a8183610b62565b81010312610338575191386101e1565b503d610460565b86513d8b823e3d90fd5b845162461bcd60e51b8152918201849052600f60248301526e6e6f742062656e656669636961727960881b90820152606490fd5b6104d69150873d89116103a0576103928183610b62565b386101b8565b855162461bcd60e51b815280840186905260076024820152661a59081d5cd95960ca1b81840152606490fd5b906d1b9bdd08184818dbdb9d1c9858dd60921b606492602087519362461bcd60e51b8552840152600e6024840152820152fd5b906d1b9bdd08185d5d1a1bdc9a5e995960921b606492602087519362461bcd60e51b8552840152600e6024840152820152fd5b5086600154163314610171565b90690626f72726f7765723d360b41b606492602087519362461bcd60e51b8552840152600a6024840152820152fd5b509190346106f257602090816003193601126101265783358352600282528083209281516105d781610b30565b60018060a01b03908186541692838252828060018901541692878101938452610618600360028b01549a8984019b8c52015496606083019788521515610ba3565b511696868484511660248b89519b8c938492632614965760e21b84528301525afa9788156106e85782986106b9575b5087815110610685575196870396871161067257506060965051169051928251948552840152820152f35b634e487b7160e01b815260118852602490fd5b855162461bcd60e51b8152808a01889052600e60248201526d1c995b19585cd9590f9d1bdd185b60921b6044820152606490fd5b9097508681813d83116106e1575b6106d18183610b62565b8101031261033857519638610647565b503d6106c7565b86513d84823e3d90fd5b5080fd5b5050346106f257816003193601126106f25760015490516001600160a01b039091168152602090f35b5050346106f257816003193601126106f257905490516001600160a01b039091168152602090f35b83346107a157806003193601126107a157610760610b04565b600080546001600160a01b0319811682556001600160a01b03167f8be0079c531659141344cd1fd0a4f28419497f9722a3daafe3b4186f6b6457e08280a380f35b80fd5b50346101265760203660031901126101265735825260036020908152918190205490516001600160a01b039091168152f35b5034610126576020366003190112610126576107f0610ad8565b6107f8610b04565b6001600160a01b03169182156108205750506001600160601b0360a01b600154161760015580f35b906020606492519162461bcd60e51b8352820152600960248201526806d616e616765723d360bc1b6044820152fd5b5090346101265760603660031901126101265761086a610aee565b6001546001600160a01b0393916044803592909190861633036109e15785169485156109b8578335875260026020528487208551906108a882610b30565b6108db6003848354169283855285600182015416602086015260028101548a860152015491606084019283521515610ba3565b51421061098757831561095a5751169486929190863b15610956578386519788948593634e06bad160e01b85528885015260248401525af1801561094c57610921578380f35b67ffffffffffffffff83116109395750523880808380f35b634e487b7160e01b845260419052602483fd5b82513d86823e3d90fd5b8380fd5b855162461bcd60e51b815260208187015260086024820152670616d6f756e743d360c41b81850152606490fd5b855162461bcd60e51b8152602081870152600c60248201526b1b9bdd081d5b9b1bd8dad95960a21b81850152606490fd5b845162461bcd60e51b815260208186015260248101859052630746f3d360e41b81840152606490fd5b845162461bcd60e51b8152602081860152601060248201526f3737ba103637b0b71036b0b730b3b2b960811b81840152606490fd5b50346101265760203660031901126101265760809282913581526002602052209060018060a01b03918281541692600182015416916003600283015492015492815194855260208501528301526060820152f35b9250503461012657608036600319011261012657610a86610ad8565b50610a8f610aee565b506064359067ffffffffffffffff90818311610ad45736602384011215610ad45782013590811161095657369101602401116106f257630a85bd0160e11b8152602090f35b8480fd5b600435906001600160a01b038216820361033857565b602435906001600160a01b038216820361033857565b6000546001600160a01b03163303610b1857565b60405163118cdaa760e01b8152336004820152602490fd5b6080810190811067ffffffffffffffff821117610b4c57604052565b634e487b7160e01b600052604160045260246000fd5b90601f8019910116810190811067ffffffffffffffff821117610b4c57604052565b9081602091031261033857516001600160a01b03811681036103385790565b15610baa57565b60405162461bcd60e51b81526020600482015260126024820152711d5b9adb9bdddb8818dbdb1b185d195c985b60721b6044820152606490fdfea264697066735822122060d2adee3ce6ffaa059e9fb745d15b93175f9fed74f7478dbcd006b7ff25a31064736f6c63430008140033",
  "devdoc": {
    "errors": {
      "OwnableInvalidOwner(address)": [
        {
          "details": "The owner is not a valid owner account. (eg. `address(0)`)"
        }
      ],
      "OwnableUnauthorizedAccount(address)": [
        {
          "details": "The caller account is not authorized to perform an operation."
        }
      ]
    },
    "kind": "dev",
    "methods": {
      "owner()": {
        "details": "Returns the address of the current owner."
      },
      "renounceOwnership()": {
        "details": "Leaves the contract without owner. It will not be possible to call `onlyOwner` functions. Can only be called by the current owner. NOTE: Renouncing ownership will leave the contract without an owner, thereby disabling any functionality that is only available to the owner."
      },
      "transferOwnership(address)": {
        "details": "Transfers ownership of the contract to a new account (`newOwner`). Can only be called by the current owner."
      }
    },
    "version": 1
  },
  "userdoc": {
    "kind": "user",
    "methods": {},
    "version": 1
  },
  "storageLayout": {
    "storage": [
      {
        "astId": 54,
        "contract": "contracts/VestingAdapter.sol:VestingAdapter",
        "label": "_owner",
        "offset": 0,
        "slot": "0",
        "type": "t_address"
      },
      {
        "astId": 8463,
        "contract": "contracts/VestingAdapter.sol:VestingAdapter",
        "label": "loanManager",
        "offset": 0,
        "slot": "1",
        "type": "t_address"
      },
      {
        "astId": 8468,
        "contract": "contracts/VestingAdapter.sol:VestingAdapter",
        "label": "collaterals",
        "offset": 0,
        "slot": "2",
        "type": "t_mapping(t_uint256,t_struct(Collateral)8461_storage)"
      },
      {
        "astId": 8472,
        "contract": "contracts/VestingAdapter.sol:VestingAdapter",
        "label": "vestingContracts",
        "offset": 0,
        "slot": "3",
        "type": "t_mapping(t_uint256,t_address)"
      }
    ],
    "types": {
      "t_address": {
        "encoding": "inplace",
        "label": "address",
        "numberOfBytes": "20"
      },
      "t_mapping(t_uint256,t_address)": {
        "encoding": "mapping",
        "key": "t_uint256",
        "label": "mapping(uint256 => address)",
        "numberOfBytes": "32",
        "value": "t_address"
      },
      "t_mapping(t_uint256,t_struct(Collateral)8461_storage)": {
        "encoding": "mapping",
        "key": "t_uint256",
        "label": "mapping(uint256 => struct VestingAdapter.Collateral)",
        "numberOfBytes": "32",
        "value": "t_struct(Collateral)8461_storage"
      },
      "t_struct(Collateral)8461_storage": {
        "encoding": "inplace",
        "label": "struct VestingAdapter.Collateral",
        "members": [
          {
            "astId": 8454,
            "contract": "contracts/VestingAdapter.sol:VestingAdapter",
            "label": "vestingContract",
            "offset": 0,
            "slot": "0",
            "type": "t_address"
          },
          {
            "astId": 8456,
            "contract": "contracts/VestingAdapter.sol:VestingAdapter",
            "label": "token",
            "offset": 0,
            "slot": "1",
            "type": "t_address"
          },
          {
            "astId": 8458,
            "contract": "contracts/VestingAdapter.sol:VestingAdapter",
            "label": "totalAmount",
            "offset": 0,
            "slot": "2",
            "type": "t_uint256"
          },
          {
            "astId": 8460,
            "contract": "contracts/VestingAdapter.sol:VestingAdapter",
            "label": "unlockTime",
            "offset": 0,
            "slot": "3",
            "type": "t_uint256"
          }
        ],
        "numberOfBytes": "128"
      },
      "t_uint256": {
        "encoding": "inplace",
        "label": "uint256",
        "numberOfBytes": "32"
      }
    }
  }
}