{
  "address": "0xA8743ABc6BCD80633171Af6AF7091Cf240e77910",
  "abi": [
    {
      "inputs": [
        {
          "internalType": "address",
          "name": "_registry",
          "type": "address"
        },
        {
          "internalType": "address",
          "name": "_initialGovernor",
          "type": "address"
        }
      ],
      "stateMutability": "nonpayable",
      "type": "constructor"
    },
    {
      "inputs": [],
      "name": "AccessControlBadConfirmation",
      "type": "error"
    },
    {
      "inputs": [
        {
          "internalType": "address",
          "name": "account",
          "type": "address"
        },
        {
          "internalType": "bytes32",
          "name": "neededRole",
          "type": "bytes32"
        }
      ],
      "name": "AccessControlUnauthorizedAccount",
      "type": "error"
    },
    {
      "anonymous": false,
      "inputs": [
        {
          "indexed": false,
          "internalType": "bool",
          "name": "enabled",
          "type": "bool"
        },
        {
          "indexed": false,
          "internalType": "uint256",
          "name": "delaySeconds",
          "type": "uint256"
        }
      ],
      "name": "AdminTimelockConfigUpdated",
      "type": "event"
    },
    {
      "anonymous": false,
      "inputs": [
        {
          "indexed": true,
          "internalType": "address",
          "name": "vestingContract",
          "type": "address"
        }
      ],
      "name": "AllowedVestingContractQueueCancelled",
      "type": "event"
    },
    {
      "anonymous": false,
      "inputs": [
        {
          "indexed": true,
          "internalType": "address",
          "name": "vestingContract",
          "type": "address"
        },
        {
          "indexed": false,
          "internalType": "bool",
          "name": "allowed",
          "type": "bool"
        },
        {
          "indexed": false,
          "internalType": "uint256",
          "name": "executeAfter",
          "type": "uint256"
        }
      ],
      "name": "AllowedVestingContractQueued",
      "type": "event"
    },
    {
      "anonymous": false,
      "inputs": [
        {
          "indexed": true,
          "internalType": "address",
          "name": "vestingContract",
          "type": "address"
        },
        {
          "indexed": false,
          "internalType": "bool",
          "name": "allowed",
          "type": "bool"
        }
      ],
      "name": "AllowedVestingContractUpdated",
      "type": "event"
    },
    {
      "anonymous": false,
      "inputs": [
        {
          "indexed": true,
          "internalType": "address",
          "name": "caller",
          "type": "address"
        }
      ],
      "name": "AuthorizedCallerQueueCancelled",
      "type": "event"
    },
    {
      "anonymous": false,
      "inputs": [
        {
          "indexed": true,
          "internalType": "address",
          "name": "caller",
          "type": "address"
        },
        {
          "indexed": false,
          "internalType": "bool",
          "name": "allowed",
          "type": "bool"
        },
        {
          "indexed": false,
          "internalType": "uint256",
          "name": "executeAfter",
          "type": "uint256"
        }
      ],
      "name": "AuthorizedCallerQueued",
      "type": "event"
    },
    {
      "anonymous": false,
      "inputs": [
        {
          "indexed": true,
          "internalType": "address",
          "name": "caller",
          "type": "address"
        },
        {
          "indexed": false,
          "internalType": "bool",
          "name": "allowed",
          "type": "bool"
        }
      ],
      "name": "AuthorizedCallerUpdated",
      "type": "event"
    },
    {
      "anonymous": false,
      "inputs": [
        {
          "indexed": true,
          "internalType": "uint256",
          "name": "collateralId",
          "type": "uint256"
        },
        {
          "indexed": true,
          "internalType": "address",
          "name": "oldOwner",
          "type": "address"
        },
        {
          "indexed": true,
          "internalType": "address",
          "name": "newOwner",
          "type": "address"
        }
      ],
      "name": "CollateralTransferred",
      "type": "event"
    },
    {
      "anonymous": false,
      "inputs": [
        {
          "indexed": false,
          "internalType": "address",
          "name": "governor",
          "type": "address"
        }
      ],
      "name": "GovernanceInitialised",
      "type": "event"
    },
    {
      "anonymous": false,
      "inputs": [],
      "name": "LoanManagerQueueCancelled",
      "type": "event"
    },
    {
      "anonymous": false,
      "inputs": [
        {
          "indexed": true,
          "internalType": "address",
          "name": "manager",
          "type": "address"
        },
        {
          "indexed": false,
          "internalType": "uint256",
          "name": "executeAfter",
          "type": "uint256"
        }
      ],
      "name": "LoanManagerQueued",
      "type": "event"
    },
    {
      "anonymous": false,
      "inputs": [
        {
          "indexed": true,
          "internalType": "address",
          "name": "loanManager",
          "type": "address"
        }
      ],
      "name": "LoanManagerUpdated",
      "type": "event"
    },
    {
      "anonymous": false,
      "inputs": [
        {
          "indexed": true,
          "internalType": "address",
          "name": "registry",
          "type": "address"
        }
      ],
      "name": "RegistryUpdated",
      "type": "event"
    },
    {
      "anonymous": false,
      "inputs": [
        {
          "indexed": true,
          "internalType": "bytes32",
          "name": "role",
          "type": "bytes32"
        },
        {
          "indexed": true,
          "internalType": "bytes32",
          "name": "previousAdminRole",
          "type": "bytes32"
        },
        {
          "indexed": true,
          "internalType": "bytes32",
          "name": "newAdminRole",
          "type": "bytes32"
        }
      ],
      "name": "RoleAdminChanged",
      "type": "event"
    },
    {
      "anonymous": false,
      "inputs": [
        {
          "indexed": true,
          "internalType": "bytes32",
          "name": "role",
          "type": "bytes32"
        },
        {
          "indexed": true,
          "internalType": "address",
          "name": "account",
          "type": "address"
        },
        {
          "indexed": true,
          "internalType": "address",
          "name": "sender",
          "type": "address"
        }
      ],
      "name": "RoleGranted",
      "type": "event"
    },
    {
      "anonymous": false,
      "inputs": [
        {
          "indexed": true,
          "internalType": "bytes32",
          "name": "role",
          "type": "bytes32"
        },
        {
          "indexed": true,
          "internalType": "address",
          "name": "account",
          "type": "address"
        },
        {
          "indexed": true,
          "internalType": "address",
          "name": "sender",
          "type": "address"
        }
      ],
      "name": "RoleRevoked",
      "type": "event"
    },
    {
      "anonymous": false,
      "inputs": [],
      "name": "UseWhitelistQueueCancelled",
      "type": "event"
    },
    {
      "anonymous": false,
      "inputs": [
        {
          "indexed": false,
          "internalType": "bool",
          "name": "enabled",
          "type": "bool"
        },
        {
          "indexed": false,
          "internalType": "uint256",
          "name": "executeAfter",
          "type": "uint256"
        }
      ],
      "name": "UseWhitelistQueued",
      "type": "event"
    },
    {
      "anonymous": false,
      "inputs": [
        {
          "indexed": false,
          "internalType": "bool",
          "name": "enabled",
          "type": "bool"
        }
      ],
      "name": "UseWhitelistUpdated",
      "type": "event"
    },
    {
      "inputs": [],
      "name": "DEFAULT_ADMIN_ROLE",
      "outputs": [
        {
          "internalType": "bytes32",
          "name": "",
          "type": "bytes32"
        }
      ],
      "stateMutability": "view",
      "type": "function"
    },
    {
      "inputs": [],
      "name": "GOVERNOR_ROLE",
      "outputs": [
        {
          "internalType": "bytes32",
          "name": "",
          "type": "bytes32"
        }
      ],
      "stateMutability": "view",
      "type": "function"
    },
    {
      "inputs": [],
      "name": "GUARDIAN_ROLE",
      "outputs": [
        {
          "internalType": "bytes32",
          "name": "",
          "type": "bytes32"
        }
      ],
      "stateMutability": "view",
      "type": "function"
    },
    {
      "inputs": [],
      "name": "PAUSER_ROLE",
      "outputs": [
        {
          "internalType": "bytes32",
          "name": "",
          "type": "bytes32"
        }
      ],
      "stateMutability": "view",
      "type": "function"
    },
    {
      "inputs": [],
      "name": "adminTimelockDelay",
      "outputs": [
        {
          "internalType": "uint256",
          "name": "",
          "type": "uint256"
        }
      ],
      "stateMutability": "view",
      "type": "function"
    },
    {
      "inputs": [],
      "name": "adminTimelockEnabled",
      "outputs": [
        {
          "internalType": "bool",
          "name": "",
          "type": "bool"
        }
      ],
      "stateMutability": "view",
      "type": "function"
    },
    {
      "inputs": [
        {
          "internalType": "address",
          "name": "auction",
          "type": "address"
        }
      ],
      "name": "authorizeAuction",
      "outputs": [],
      "stateMutability": "nonpayable",
      "type": "function"
    },
    {
      "inputs": [
        {
          "internalType": "address",
          "name": "",
          "type": "address"
        }
      ],
      "name": "authorizedCallers",
      "outputs": [
        {
          "internalType": "bool",
          "name": "",
          "type": "bool"
        }
      ],
      "stateMutability": "view",
      "type": "function"
    },
    {
      "inputs": [
        {
          "internalType": "address",
          "name": "caller",
          "type": "address"
        }
      ],
      "name": "cancelQueuedAuthorizedCaller",
      "outputs": [],
      "stateMutability": "nonpayable",
      "type": "function"
    },
    {
      "inputs": [],
      "name": "cancelQueuedLoanManager",
      "outputs": [],
      "stateMutability": "nonpayable",
      "type": "function"
    },
    {
      "inputs": [
        {
          "internalType": "uint256",
          "name": "",
          "type": "uint256"
        }
      ],
      "name": "collaterals",
      "outputs": [
        {
          "internalType": "address",
          "name": "vestingContract",
          "type": "address"
        },
        {
          "internalType": "address",
          "name": "token",
          "type": "address"
        },
        {
          "internalType": "uint256",
          "name": "totalAmount",
          "type": "uint256"
        },
        {
          "internalType": "uint256",
          "name": "unlockTime",
          "type": "uint256"
        }
      ],
      "stateMutability": "view",
      "type": "function"
    },
    {
      "inputs": [
        {
          "internalType": "uint256",
          "name": "collateralId",
          "type": "uint256"
        },
        {
          "internalType": "address",
          "name": "vestingContract",
          "type": "address"
        },
        {
          "internalType": "address",
          "name": "borrower",
          "type": "address"
        }
      ],
      "name": "escrow",
      "outputs": [],
      "stateMutability": "nonpayable",
      "type": "function"
    },
    {
      "inputs": [
        {
          "internalType": "address",
          "name": "caller",
          "type": "address"
        }
      ],
      "name": "executeQueuedAuthorizedCaller",
      "outputs": [],
      "stateMutability": "nonpayable",
      "type": "function"
    },
    {
      "inputs": [],
      "name": "executeQueuedLoanManager",
      "outputs": [],
      "stateMutability": "nonpayable",
      "type": "function"
    },
    {
      "inputs": [
        {
          "internalType": "uint256",
          "name": "collateralId",
          "type": "uint256"
        }
      ],
      "name": "getDetails",
      "outputs": [
        {
          "internalType": "uint256",
          "name": "quantity",
          "type": "uint256"
        },
        {
          "internalType": "address",
          "name": "token",
          "type": "address"
        },
        {
          "internalType": "uint256",
          "name": "unlockTime",
          "type": "uint256"
        }
      ],
      "stateMutability": "view",
      "type": "function"
    },
    {
      "inputs": [
        {
          "internalType": "bytes32",
          "name": "role",
          "type": "bytes32"
        }
      ],
      "name": "getRoleAdmin",
      "outputs": [
        {
          "internalType": "bytes32",
          "name": "",
          "type": "bytes32"
        }
      ],
      "stateMutability": "view",
      "type": "function"
    },
    {
      "inputs": [
        {
          "internalType": "bytes32",
          "name": "role",
          "type": "bytes32"
        },
        {
          "internalType": "address",
          "name": "account",
          "type": "address"
        }
      ],
      "name": "grantRole",
      "outputs": [],
      "stateMutability": "nonpayable",
      "type": "function"
    },
    {
      "inputs": [
        {
          "internalType": "bytes32",
          "name": "role",
          "type": "bytes32"
        },
        {
          "internalType": "address",
          "name": "account",
          "type": "address"
        }
      ],
      "name": "hasRole",
      "outputs": [
        {
          "internalType": "bool",
          "name": "",
          "type": "bool"
        }
      ],
      "stateMutability": "view",
      "type": "function"
    },
    {
      "inputs": [],
      "name": "loanManager",
      "outputs": [
        {
          "internalType": "address",
          "name": "",
          "type": "address"
        }
      ],
      "stateMutability": "view",
      "type": "function"
    },
    {
      "inputs": [
        {
          "internalType": "address",
          "name": "",
          "type": "address"
        },
        {
          "internalType": "address",
          "name": "",
          "type": "address"
        },
        {
          "internalType": "uint256",
          "name": "",
          "type": "uint256"
        },
        {
          "internalType": "bytes",
          "name": "",
          "type": "bytes"
        }
      ],
      "name": "onERC721Received",
      "outputs": [
        {
          "internalType": "bytes4",
          "name": "",
          "type": "bytes4"
        }
      ],
      "stateMutability": "pure",
      "type": "function"
    },
    {
      "inputs": [
        {
          "internalType": "address",
          "name": "",
          "type": "address"
        }
      ],
      "name": "pendingAllowedVestingContracts",
      "outputs": [
        {
          "internalType": "bool",
          "name": "value",
          "type": "bool"
        },
        {
          "internalType": "uint256",
          "name": "executeAfter",
          "type": "uint256"
        },
        {
          "internalType": "bool",
          "name": "exists",
          "type": "bool"
        }
      ],
      "stateMutability": "view",
      "type": "function"
    },
    {
      "inputs": [
        {
          "internalType": "address",
          "name": "",
          "type": "address"
        }
      ],
      "name": "pendingAuthorizedCallers",
      "outputs": [
        {
          "internalType": "bool",
          "name": "value",
          "type": "bool"
        },
        {
          "internalType": "uint256",
          "name": "executeAfter",
          "type": "uint256"
        },
        {
          "internalType": "bool",
          "name": "exists",
          "type": "bool"
        }
      ],
      "stateMutability": "view",
      "type": "function"
    },
    {
      "inputs": [],
      "name": "pendingLoanManager",
      "outputs": [
        {
          "internalType": "address",
          "name": "manager",
          "type": "address"
        },
        {
          "internalType": "uint256",
          "name": "executeAfter",
          "type": "uint256"
        },
        {
          "internalType": "bool",
          "name": "exists",
          "type": "bool"
        }
      ],
      "stateMutability": "view",
      "type": "function"
    },
    {
      "inputs": [],
      "name": "pendingUseWhitelist",
      "outputs": [
        {
          "internalType": "bool",
          "name": "value",
          "type": "bool"
        },
        {
          "internalType": "uint256",
          "name": "executeAfter",
          "type": "uint256"
        },
        {
          "internalType": "bool",
          "name": "exists",
          "type": "bool"
        }
      ],
      "stateMutability": "view",
      "type": "function"
    },
    {
      "inputs": [
        {
          "internalType": "address",
          "name": "caller",
          "type": "address"
        },
        {
          "internalType": "bool",
          "name": "allowed",
          "type": "bool"
        }
      ],
      "name": "queueAuthorizedCaller",
      "outputs": [],
      "stateMutability": "nonpayable",
      "type": "function"
    },
    {
      "inputs": [
        {
          "internalType": "address",
          "name": "manager",
          "type": "address"
        }
      ],
      "name": "queueLoanManager",
      "outputs": [],
      "stateMutability": "nonpayable",
      "type": "function"
    },
    {
      "inputs": [],
      "name": "registry",
      "outputs": [
        {
          "internalType": "contract IVestingRegistry",
          "name": "",
          "type": "address"
        }
      ],
      "stateMutability": "view",
      "type": "function"
    },
    {
      "inputs": [
        {
          "internalType": "uint256",
          "name": "collateralId",
          "type": "uint256"
        },
        {
          "internalType": "address",
          "name": "to",
          "type": "address"
        },
        {
          "internalType": "uint256",
          "name": "amount",
          "type": "uint256"
        }
      ],
      "name": "releaseTo",
      "outputs": [],
      "stateMutability": "nonpayable",
      "type": "function"
    },
    {
      "inputs": [
        {
          "internalType": "bytes32",
          "name": "role",
          "type": "bytes32"
        },
        {
          "internalType": "address",
          "name": "callerConfirmation",
          "type": "address"
        }
      ],
      "name": "renounceRole",
      "outputs": [],
      "stateMutability": "nonpayable",
      "type": "function"
    },
    {
      "inputs": [
        {
          "internalType": "bytes32",
          "name": "role",
          "type": "bytes32"
        },
        {
          "internalType": "address",
          "name": "account",
          "type": "address"
        }
      ],
      "name": "revokeRole",
      "outputs": [],
      "stateMutability": "nonpayable",
      "type": "function"
    },
    {
      "inputs": [
        {
          "internalType": "bool",
          "name": "enabled",
          "type": "bool"
        },
        {
          "internalType": "uint256",
          "name": "delaySeconds",
          "type": "uint256"
        }
      ],
      "name": "setAdminTimelockConfig",
      "outputs": [],
      "stateMutability": "nonpayable",
      "type": "function"
    },
    {
      "inputs": [
        {
          "internalType": "address",
          "name": "caller",
          "type": "address"
        },
        {
          "internalType": "bool",
          "name": "allowed",
          "type": "bool"
        }
      ],
      "name": "setAuthorizedCaller",
      "outputs": [],
      "stateMutability": "nonpayable",
      "type": "function"
    },
    {
      "inputs": [
        {
          "internalType": "address",
          "name": "manager",
          "type": "address"
        }
      ],
      "name": "setLoanManager",
      "outputs": [],
      "stateMutability": "nonpayable",
      "type": "function"
    },
    {
      "inputs": [
        {
          "internalType": "address",
          "name": "_registry",
          "type": "address"
        }
      ],
      "name": "setRegistry",
      "outputs": [],
      "stateMutability": "nonpayable",
      "type": "function"
    },
    {
      "inputs": [
        {
          "internalType": "bytes4",
          "name": "interfaceId",
          "type": "bytes4"
        }
      ],
      "name": "supportsInterface",
      "outputs": [
        {
          "internalType": "bool",
          "name": "",
          "type": "bool"
        }
      ],
      "stateMutability": "view",
      "type": "function"
    },
    {
      "inputs": [
        {
          "internalType": "uint256",
          "name": "collateralId",
          "type": "uint256"
        },
        {
          "internalType": "address",
          "name": "newOwner",
          "type": "address"
        }
      ],
      "name": "transferCollateral",
      "outputs": [],
      "stateMutability": "nonpayable",
      "type": "function"
    },
    {
      "inputs": [
        {
          "internalType": "uint256",
          "name": "",
          "type": "uint256"
        }
      ],
      "name": "vestingContracts",
      "outputs": [
        {
          "internalType": "address",
          "name": "",
          "type": "address"
        }
      ],
      "stateMutability": "view",
      "type": "function"
    }
  ],
  "transactionHash": "0xc72e34cfd3f003dc9a5c270a3e751b63efe3411f681ea189c8649e0a074e308d",
  "args": [
    "0x0090123bfa5dc5885c6b940D1ada3e908fF6c962",
    "0x39EcF94ed35451A67006dcCE4A467aecdfAB6940"
  ],
  "numDeployments": 6,
  "solcInputHash": "1db5c0d76624c8fe76721fc2ccdaf437",
  "bytecode": "0x608034620001af576200201590601f38839003908101601f19168201906001600160401b03821183831017620001b45780839160409586948552833981010312620001af576200005d60206200005583620001ca565b9201620001ca565b906200006982620001df565b5062000075826200025f565b507f55435dd261a4b9b3364963f7738a7a662ad9c84396d64be3365284bb7f0a50416000818152806020526001858220019182549260008051602062001ff583398151915293848092557fbd79b86ffe0ab8e8776151514217cd7cacd52c909f66475c3af44e129f0b00ff92838580a47f65d7a28e3265b37a6474929f336521b332c1681b933f6cb9f3376673440d862a9081835260018784200192848454945580a482516001600160a01b0392831681527f9789733827840833afc031fb2ef9ab6894271f77bad2085687cf4ae5c7bee4db90602090a1620151806007551680156200017e57600280546001600160a01b03191691909117905551611ce49081620002f18239f35b815162461bcd60e51b815260206004820152600a602482015269072656769737472793d360b41b6044820152606490fd5b600080fd5b634e487b7160e01b600052604160045260246000fd5b51906001600160a01b0382168203620001af57565b6001600160a01b031660008181527fad3228b676f7d3cd4284a5443f17f1962b36e491b30a40b2405849e597ba5fb5602052604081205490919060ff166200025b57818052816020526040822081835260205260408220600160ff19825416179055339160008051602062001fd58339815191528180a4600190565b5090565b6001600160a01b031660008181527f6f3b488caa0dc03e5f3d9fd6a25fa8755afcfd62ccffb6e436c696bfa6b866de602052604081205490919060008051602062001ff58339815191529060ff16620002eb57808352826020526040832082845260205260408320600160ff1982541617905560008051602062001fd5833981519152339380a4600190565b50509056fe608060408181526004908136101561001657600080fd5b600092833560e01c90816301ffc9a71461171a57508063022f4823146116c957806304fe35ed146115ce57806311a6f3da146115af578063150b7a021461153e578063248a9ca31461151457806324c1173b146114c057806324ea54f4146114855780632a7d7bc5146112da5780632f2ff15d146112b257806336568abe1461126b578063423ae28d1461118b578063454bbd29146111225780635075fa0114611011578063536fff6c14610fd35780635379e81f14610f2557806354c37c4f14610f015780635772ae7014610e9f57806357be57a714610e0757806358281bf314610dd457806375f69f8b14610d5a5780637b10399914610d3157806391d1485414610cec578063a217fddf14610cd1578063a59ffd3614610bda578063a91ee0dc14610b15578063b3ccbcfe14610aec578063b901209814610a9b578063b93a89f714610954578063c004cd731461088c578063ccc5749014610863578063cdc4ac8214610826578063d547741f146107e9578063d5fe04a114610764578063e63ab1e914610725578063ee6088ac146106ed5763f2b42e12146101bb57600080fd5b346106e95760603660031901126106e9578135906101d7611784565b6001600160a01b039360448035868116959391908690036104195785156106ba5785331480156106ad575b8015610698575b61021290611bf1565b813b1561066557600254855163152303bd60e21b81529288168385018190529660209594936024939287908290869082908e165afa8015610487578b90610629575b60ff1680151591508161061d575b50156105d157848a5283865288878b2054166105a65786516338af3eed60e01b8152868186818c5afa90811561048757908a918c91610589575b50160361055757855163be9a655560e01b8152858185818b5afa90811561054d578a91610520575b5086516303ed69ad60e21b815290868286818c5afa918215610487578b926104f1575b5081156104c357906102f891611a02565b9242841115610491578651637e062a3560e11b8152868183818c5afa90811561048757908a918c9161045a575b501691821561042f578751631e480f7160e21b815293878584818d5afa948515610425578c956103f1575b5084156103c65750509160059594939160039388519561036f87611a25565b8a8752878701928352898701938452606087019485528c52865289888c209551169960018060a01b03199a8b875416178655600186019151168a825416179055516002840155519101555283209182541617905580f35b885162461bcd60e51b8152928301889052600790830152660746f74616c3d360cc1b90820152606490fd5b9094508781813d831161041e575b6104098183611a71565b8101031261041957519338610350565b600080fd5b503d6103ff565b89513d8e823e3d90fd5b875162461bcd60e51b8152918201879052600782850152660746f6b656e3d360cc1b90820152606490fd5b61047a9150883d8a11610480575b6104728183611a71565b810190611c2e565b38610325565b503d610468565b88513d8d823e3d90fd5b6f185b1c9958591e481d5b9b1bd8dad95960821b606492601085898b519562461bcd60e51b8752860152840152820152fd5b875162461bcd60e51b8152808601889052600a818601526906475726174696f6e3d360b41b81850152606490fd5b9091508681813d8311610519575b6105098183611a71565b81010312610419575190386102e7565b503d6104ff565b90508581813d8311610546575b6105378183611a71565b810103126104195751386102c4565b503d61052d565b87513d8c823e3d90fd5b60649350600f6e6e6f742062656e656669636961727960881b928688519562461bcd60e51b8752860152840152820152fd5b6105a09150883d8a11610480576104728183611a71565b3861029c565b865162461bcd60e51b8152808501879052600781850152661a59081d5cd95960ca1b81840152606490fd5b865162461bcd60e51b81528085018790526022818501527f756e7665726966696564206f7220626c61636b6c697374656420636f6e747261818401526118dd60f21b6064820152608490fd5b60039150111538610262565b508681813d831161065e575b61063f8183611a71565b8101031261065a575160ff8116810361065a5760ff90610254565b8a80fd5b503d610635565b826d1b9bdd08184818dbdb9d1c9858dd60921b606492602088519362461bcd60e51b8552840152600e6024840152820152fd5b5033885260036020528488205460ff16610209565b5086600154163314610202565b82690626f72726f7765723d360b41b606492602088519362461bcd60e51b8552840152600a6024840152820152fd5b8280fd5b5082346107225780600319360112610722575060ff600b541661071e600c549260ff600d541690519384938461179a565b0390f35b80fd5b838234610760578160031936011261076057602090517f65d7a28e3265b37a6474929f336521b332c1681b933f6cb9f3376673440d862a8152f35b5080fd5b83823461076057816003193601126107605760ff6107a591600080516020611c8f83398151915284528360205280842033600052602052600020541661190c565b6107b360ff600a5416611a94565b600060085560006009556000600a557f58f8d058d65c5fba672452718f4ce16cb9299d1bd63285d363dc5a6fcf18ed248180a180f35b50346106e957806003193601126106e957610822913561081d600161080c611784565b9383875286602052862001546117c4565b611897565b5080f35b83823461076057816003193601126107605760609060018060a01b03600854169060095460ff600a54169082519384526020840152151590820152f35b83823461076057816003193601126107605760209051600080516020611c8f8339815191528152f35b83823461076057602090816003193601126106e95761095191600060026108b161176e565b93600080516020611c8f833981519152875286845280872033845284526108dd60ff828520541661190c565b6001600160a01b038516808852600e8086528289208351969192906109389061090589611a56565b60ff8154161515895261092f60ff88600184015493878d01948552015416151580888c0152611a94565b51421015611ad3565b8952528620828155826001820155015551151590611b96565b80f35b5082903461076057602090816003193601126106e9578335835283825280832092815161098081611a25565b60018060a01b039081865416928382528280600189015416928781019384526109c1600360028b01549a8984019b8c52015496606083019788521515611c4d565b511696868484511660248b89519b8c938492632614965760e21b84528301525afa978815610a91578298610a62575b5087815110610a2e5751968703968711610a1b57506060965051169051928251948552840152820152f35b634e487b7160e01b815260118852602490fd5b855162461bcd60e51b8152808a01889052600e60248201526d1c995b19585cd9590f9d1bdd185b60921b6044820152606490fd5b9097508681813d8311610a8a575b610a7a8183611a71565b81010312610419575196896109f0565b503d610a70565b86513d84823e3d90fd5b838234610760576020366003190112610760579081906001600160a01b03610ac161176e565b168152600e602052209061071e60ff8354169160ff600260018601549501541690519384938461179a565b83823461076057816003193601126107605760015490516001600160a01b039091168152602090f35b5090346106e95760203660031901126106e957610b3061176e565b600080516020611c8f83398151915284528360205282842033600052602052610b5f60ff84600020541661190c565b6001600160a01b0316918215610baa575050600280546001600160a01b031916821790557fd6ceddf6d2a22f21c7c81675c518004eff43bc5c8a6fc32a0b748e69d58671cd8280a280f35b906020606492519162461bcd60e51b8352820152600a602482015269072656769737472793d360b41b6044820152fd5b5091903461076057826003193601126107605780358015158082036104195760243592600080516020611c8f83398151915285528460205285852033600052602052610c2c60ff87600020541661190c565b603c84101580610cc4575b15610c9557507f687911c7f7b365a8368a45830a19c83a06fd492822054b1e7035e987f6ac50699394610c8f9160ff801960065416911617600655836007555192839283602090939291936040810194151581520152565b0390a180f35b606490602087519162461bcd60e51b835282015260096024820152686261642064656c617960b81b6044820152fd5b5062278d00841115610c37565b83823461076057816003193601126107605751908152602090f35b5090346106e957816003193601126106e95781602093610d0a611784565b92358152808552209060018060a01b0316600052825260ff81600020541690519015158152f35b83823461076057816003193601126107605760025490516001600160a01b039091168152602090f35b5090346106e95760203660031901126106e957610d7561176e565b6001546001600160a01b03929083163303610da3575016825260036020528120805460ff1916600117905580f35b606490602085519162461bcd60e51b8352820152600b60248201526a3737ba1036b0b730b3b2b960a91b6044820152fd5b5090346106e95760203660031901126106e95735825260056020908152918190205490516001600160a01b039091168152f35b83823461076057816003193601126107605761095190600080516020611c8f83398151915283528260205280832033600052602052610e4c60ff82600020541661190c565b8051610e5781611a56565b610e8960018060a01b03928360085416835261092f600954916020850192835260ff600a541615158091860152611a94565b600060085560006009556000600a555116611b49565b8382346107605760203660031901126107605761095190610eed60ff610ec361176e565b92600080516020611c8f83398151915286528560205280862033600052602052600020541661190c565b610efc60ff6006541615611951565b611b49565b83823461076057816003193601126107605760209060ff6006541690519015158152f35b8382346107605760203660031901126107605760006002610f4461176e565b600080516020611c8f833981519152855284602052838520338452602052610f7160ff858520541661190c565b6001600160a01b0316808552600e602052838520820154909390610f979060ff16611a94565b838552600e602052842082815582600182015501557f28342101a0599361a903407173367d85feed5f6e283086ae0db4f09c01f11fce8280a280f35b8382346107605760203660031901126107605760209160ff9082906001600160a01b03610ffe61176e565b1681526003855220541690519015158152f35b8382346107605780600319360112610760577f2afb9d651a86c3b2855b7aba1b36a0d15c0087a8e4d3d764e808e8d3bf1c6c6761104c61176e565b916110556117b5565b92600080516020611c8f8339815191528552846020528185203360005260205261108560ff83600020541661190c565b61109360ff6006541661198a565b6001600160a01b0316926110a8841515611b12565b61111c6110b760075442611a02565b9261110481516110c681611a56565b841515815260026020820187815284830190600182528a8c52600e6020526110f4868d209451151585611808565b5160018401555115159101611808565b51911515825260208201929092529081906040820190565b0390a280f35b8382346107605780600319360112610760576109519061114061176e565b61117760ff61114d6117b5565b93600080516020611c8f83398151915287528660205280872033600052602052600020541661190c565b61118660ff6006541615611951565b611b96565b838234610760576020366003190112610760577f4613d1ec45c5fb4e57c5e0fa3f672ab285fe109e70e3580957a76423e5f8476160206111c961176e565b600080516020611c8f83398151915285528482528385203360005282526111f660ff85600020541661190c565b61120460ff6006541661198a565b6001600160a01b0316926112198415156119ca565b61122560075442611a02565b90600181805161123481611a56565b8781528581018590520152600880546001600160a01b031916861790556009829055600a805460ff1916600117905551908152a280f35b50829034610760578060031936011261076057611286611784565b90336001600160a01b038316036112a35750610822919235611897565b5163334bd91960e11b81528390fd5b50346106e957806003193601126106e95761082291356112d5600161080c611784565b611819565b50346106e95760603660031901126106e9576112f4611784565b9160443560018060a01b038094816001541633148015611470575b61131890611bf1565b1693841561144657823586528260205283862084519061133782611a25565b61136a60038483541692838552856001820154166020860152600281015489860152015491606084019283521515611c4d565b5142106114145782156113e657511693859190853b156106e9576044908386519788948593634e06bad160e01b85528885015260248401525af180156113dc576113b2578380f35b6001600160401b0383116113c95750523880808380f35b634e487b7160e01b845260419052602483fd5b82513d86823e3d90fd5b845162461bcd60e51b815260208186015260086024820152670616d6f756e743d360c41b6044820152606490fd5b845162461bcd60e51b8152602081860152600c60248201526b1b9bdd081d5b9b1bd8dad95960a21b6044820152606490fd5b835162461bcd60e51b815260208185015260248101849052630746f3d360e41b6044820152606490fd5b5033875260036020528487205460ff1661130f565b838234610760578160031936011261076057602090517f55435dd261a4b9b3364963f7738a7a662ad9c84396d64be3365284bb7f0a50418152f35b5090346106e95760203660031901126106e957608092818392358252602052209060018060a01b03918281541692600182015416916003600283015492015492815194855260208501528301526060820152f35b5090346106e95760203660031901126106e957816020936001923581528085522001549051908152f35b5090346106e95760803660031901126106e95761155961176e565b50611562611784565b50606435906001600160401b03908183116115ab57366023840112156115ab578201359081116115a757369101602401116107605751630a85bd0160e11b8152602090f35b8380fd5b8480fd5b8382346107605781600319360112610760576020906007549051908152f35b50346106e957806003193601126106e9578135906115ea611784565b6001546001600160a01b03929183918216331480156116b4575b61160d90611bf1565b16938415611685579061165c92918487526020526060600382882083519361163485611a25565b8582541695868652600183015416602086015260028201549085015201549101521515611c4d565b30907f4defbfeab4e23ca4550ec99de5207f9ce13f0fa3bc01b133d135941a9d3a3a6f8480a480f35b6020606492519162461bcd60e51b8352820152600a60248201526906e65774f776e65723d360b41b6044820152fd5b5033875260036020528287205460ff16611604565b838234610760576020366003190112610760579081906001600160a01b036116ef61176e565b168152600f602052209061071e60ff8354169160ff600260018601549501541690519384938461179a565b849084346106e95760203660031901126106e9573563ffffffff60e01b81168091036106e95760209250637965db0b60e01b811490811561175d575b5015158152f35b6301ffc9a760e01b14905083611756565b600435906001600160a01b038216820361041957565b602435906001600160a01b038216820361041957565b90151581526020810191909152901515604082015260600190565b60243590811515820361041957565b80600052600060205260406000203360005260205260ff60406000205416156117ea5750565b6044906040519063e2517d3f60e01b82523360048301526024820152fd5b9060ff801983541691151516179055565b9060009180835282602052604083209160018060a01b03169182845260205260ff6040842054161560001461189257808352826020526040832082845260205260408320600160ff198254161790557f2f8788117e7eff1d82e926ec794901d17c78024a50270940304540a733656f0d339380a4600190565b505090565b9060009180835282602052604083209160018060a01b03169182845260205260ff6040842054166000146118925780835282602052604083208284526020526040832060ff1981541690557ff6391f5c32d9c69d2a47ea670b442974b53935d1edc7fd64eb21e047a839171b339380a4600190565b1561191357565b60405162461bcd60e51b815260206004820152601660248201527521b0b63632b91034b9903737ba1033b7bb32b93737b960511b6044820152606490fd5b1561195857565b60405162461bcd60e51b815260206004820152600a6024820152691d1a5b595b1bd8dad95960b21b6044820152606490fd5b1561199157565b60405162461bcd60e51b81526020600482015260116024820152701d1a5b595b1bd8dac8191a5cd8589b1959607a1b6044820152606490fd5b156119d157565b60405162461bcd60e51b815260206004820152600960248201526806d616e616765723d360bc1b6044820152606490fd5b91908201809211611a0f57565b634e487b7160e01b600052601160045260246000fd5b608081019081106001600160401b03821117611a4057604052565b634e487b7160e01b600052604160045260246000fd5b606081019081106001600160401b03821117611a4057604052565b601f909101601f19168101906001600160401b03821190821017611a4057604052565b15611a9b57565b60405162461bcd60e51b815260206004820152601060248201526f6e6f2071756575656420636f6e66696760801b6044820152606490fd5b15611ada57565b60405162461bcd60e51b815260206004820152601060248201526f74696d656c6f636b2070656e64696e6760801b6044820152606490fd5b15611b1957565b60405162461bcd60e51b8152602060048201526008602482015267063616c6c65723d360c41b6044820152606490fd5b6001600160a01b0316611b5d8115156119ca565b600180546001600160a01b031916821790557f1dc4f84ee7313043091b27f406c2494a0c94127ded69968d246cb341249d5f16600080a2565b6001600160a01b0316907fad857fa38c9319cb80848f1ef2f924383b90297eb5d71755738ff037d100faa190602090611bd0841515611b12565b8360005260038252611be6816040600020611808565b6040519015158152a2565b15611bf857565b60405162461bcd60e51b815260206004820152600e60248201526d1b9bdd08185d5d1a1bdc9a5e995960921b6044820152606490fd5b9081602091031261041957516001600160a01b03811681036104195790565b15611c5457565b60405162461bcd60e51b81526020600482015260126024820152711d5b9adb9bdddb8818dbdb1b185d195c985b60721b6044820152606490fdfe7935bd0ae54bc31f548c14dba4d37c5c64b3f8ca900cb468fb8abd54d5894f55a26469706673582212206d9a6cad2ec5a529986b01a468dc3d8a856e30c3ef84b3e4066ae64ad35f928e64736f6c634300081400332f8788117e7eff1d82e926ec794901d17c78024a50270940304540a733656f0d7935bd0ae54bc31f548c14dba4d37c5c64b3f8ca900cb468fb8abd54d5894f55",
  "devdoc": {
    "errors": {
      "AccessControlBadConfirmation()": [
        {
          "details": "The caller of a function is not the expected one. NOTE: Don't confuse with {AccessControlUnauthorizedAccount}."
        }
      ],
      "AccessControlUnauthorizedAccount(address,bytes32)": [
        {
          "details": "The `account` is missing a role."
        }
      ]
    },
    "events": {
      "RoleAdminChanged(bytes32,bytes32,bytes32)": {
        "details": "Emitted when `newAdminRole` is set as ``role``'s admin role, replacing `previousAdminRole` `DEFAULT_ADMIN_ROLE` is the starting admin for all roles, despite {RoleAdminChanged} not being emitted to signal this."
      },
      "RoleGranted(bytes32,address,address)": {
        "details": "Emitted when `account` is granted `role`. `sender` is the account that originated the contract call. This account bears the admin role (for the granted role). Expected in cases where the role was granted using the internal {AccessControl-_grantRole}."
      },
      "RoleRevoked(bytes32,address,address)": {
        "details": "Emitted when `account` is revoked `role`. `sender` is the account that originated the contract call:   - if using `revokeRole`, it is the admin role bearer   - if using `renounceRole`, it is the role bearer (i.e. `account`)"
      }
    },
    "kind": "dev",
    "methods": {
      "getRoleAdmin(bytes32)": {
        "details": "Returns the admin role that controls `role`. See {grantRole} and {revokeRole}. To change a role's admin, use {_setRoleAdmin}."
      },
      "grantRole(bytes32,address)": {
        "details": "Grants `role` to `account`. If `account` had not been already granted `role`, emits a {RoleGranted} event. Requirements: - the caller must have ``role``'s admin role. May emit a {RoleGranted} event."
      },
      "hasRole(bytes32,address)": {
        "details": "Returns `true` if `account` has been granted `role`."
      },
      "renounceRole(bytes32,address)": {
        "details": "Revokes `role` from the calling account. Roles are often managed via {grantRole} and {revokeRole}: this function's purpose is to provide a mechanism for accounts to lose their privileges if they are compromised (such as when a trusted device is misplaced). If the calling account had been revoked `role`, emits a {RoleRevoked} event. Requirements: - the caller must be `callerConfirmation`. May emit a {RoleRevoked} event."
      },
      "revokeRole(bytes32,address)": {
        "details": "Revokes `role` from `account`. If `account` had been granted `role`, emits a {RoleRevoked} event. Requirements: - the caller must have ``role``'s admin role. May emit a {RoleRevoked} event."
      },
      "supportsInterface(bytes4)": {
        "details": "Returns true if this contract implements the interface defined by `interfaceId`. See the corresponding https://eips.ethereum.org/EIPS/eip-165#how-interfaces-are-identified[ERC section] to learn more about how these ids are created. This function call must use less than 30 000 gas."
      }
    },
    "version": 1
  },
  "userdoc": {
    "kind": "user",
    "methods": {},
    "version": 1
  },
  "storageLayout": {
    "storage": [
      {
        "astId": 73,
        "contract": "contracts/VestingAdapter.sol:VestingAdapter",
        "label": "_roles",
        "offset": 0,
        "slot": "0",
        "type": "t_mapping(t_bytes32,t_struct(RoleData)68_storage)"
      },
      {
        "astId": 25322,
        "contract": "contracts/VestingAdapter.sol:VestingAdapter",
        "label": "loanManager",
        "offset": 0,
        "slot": "1",
        "type": "t_address"
      },
      {
        "astId": 25325,
        "contract": "contracts/VestingAdapter.sol:VestingAdapter",
        "label": "registry",
        "offset": 0,
        "slot": "2",
        "type": "t_contract(IVestingRegistry)25307"
      },
      {
        "astId": 25329,
        "contract": "contracts/VestingAdapter.sol:VestingAdapter",
        "label": "authorizedCallers",
        "offset": 0,
        "slot": "3",
        "type": "t_mapping(t_address,t_bool)"
      },
      {
        "astId": 25334,
        "contract": "contracts/VestingAdapter.sol:VestingAdapter",
        "label": "collaterals",
        "offset": 0,
        "slot": "4",
        "type": "t_mapping(t_uint256,t_struct(Collateral)25320_storage)"
      },
      {
        "astId": 25338,
        "contract": "contracts/VestingAdapter.sol:VestingAdapter",
        "label": "vestingContracts",
        "offset": 0,
        "slot": "5",
        "type": "t_mapping(t_uint256,t_address)"
      },
      {
        "astId": 25340,
        "contract": "contracts/VestingAdapter.sol:VestingAdapter",
        "label": "adminTimelockEnabled",
        "offset": 0,
        "slot": "6",
        "type": "t_bool"
      },
      {
        "astId": 25343,
        "contract": "contracts/VestingAdapter.sol:VestingAdapter",
        "label": "adminTimelockDelay",
        "offset": 0,
        "slot": "7",
        "type": "t_uint256"
      },
      {
        "astId": 25360,
        "contract": "contracts/VestingAdapter.sol:VestingAdapter",
        "label": "pendingLoanManager",
        "offset": 0,
        "slot": "8",
        "type": "t_struct(PendingLoanManager)25350_storage"
      },
      {
        "astId": 25363,
        "contract": "contracts/VestingAdapter.sol:VestingAdapter",
        "label": "pendingUseWhitelist",
        "offset": 0,
        "slot": "11",
        "type": "t_struct(PendingBoolValue)25357_storage"
      },
      {
        "astId": 25368,
        "contract": "contracts/VestingAdapter.sol:VestingAdapter",
        "label": "pendingAuthorizedCallers",
        "offset": 0,
        "slot": "14",
        "type": "t_mapping(t_address,t_struct(PendingBoolValue)25357_storage)"
      },
      {
        "astId": 25373,
        "contract": "contracts/VestingAdapter.sol:VestingAdapter",
        "label": "pendingAllowedVestingContracts",
        "offset": 0,
        "slot": "15",
        "type": "t_mapping(t_address,t_struct(PendingBoolValue)25357_storage)"
      }
    ],
    "types": {
      "t_address": {
        "encoding": "inplace",
        "label": "address",
        "numberOfBytes": "20"
      },
      "t_bool": {
        "encoding": "inplace",
        "label": "bool",
        "numberOfBytes": "1"
      },
      "t_bytes32": {
        "encoding": "inplace",
        "label": "bytes32",
        "numberOfBytes": "32"
      },
      "t_contract(IVestingRegistry)25307": {
        "encoding": "inplace",
        "label": "contract IVestingRegistry",
        "numberOfBytes": "20"
      },
      "t_mapping(t_address,t_bool)": {
        "encoding": "mapping",
        "key": "t_address",
        "label": "mapping(address => bool)",
        "numberOfBytes": "32",
        "value": "t_bool"
      },
      "t_mapping(t_address,t_struct(PendingBoolValue)25357_storage)": {
        "encoding": "mapping",
        "key": "t_address",
        "label": "mapping(address => struct VestingAdapter.PendingBoolValue)",
        "numberOfBytes": "32",
        "value": "t_struct(PendingBoolValue)25357_storage"
      },
      "t_mapping(t_bytes32,t_struct(RoleData)68_storage)": {
        "encoding": "mapping",
        "key": "t_bytes32",
        "label": "mapping(bytes32 => struct AccessControl.RoleData)",
        "numberOfBytes": "32",
        "value": "t_struct(RoleData)68_storage"
      },
      "t_mapping(t_uint256,t_address)": {
        "encoding": "mapping",
        "key": "t_uint256",
        "label": "mapping(uint256 => address)",
        "numberOfBytes": "32",
        "value": "t_address"
      },
      "t_mapping(t_uint256,t_struct(Collateral)25320_storage)": {
        "encoding": "mapping",
        "key": "t_uint256",
        "label": "mapping(uint256 => struct VestingAdapter.Collateral)",
        "numberOfBytes": "32",
        "value": "t_struct(Collateral)25320_storage"
      },
      "t_struct(Collateral)25320_storage": {
        "encoding": "inplace",
        "label": "struct VestingAdapter.Collateral",
        "members": [
          {
            "astId": 25313,
            "contract": "contracts/VestingAdapter.sol:VestingAdapter",
            "label": "vestingContract",
            "offset": 0,
            "slot": "0",
            "type": "t_address"
          },
          {
            "astId": 25315,
            "contract": "contracts/VestingAdapter.sol:VestingAdapter",
            "label": "token",
            "offset": 0,
            "slot": "1",
            "type": "t_address"
          },
          {
            "astId": 25317,
            "contract": "contracts/VestingAdapter.sol:VestingAdapter",
            "label": "totalAmount",
            "offset": 0,
            "slot": "2",
            "type": "t_uint256"
          },
          {
            "astId": 25319,
            "contract": "contracts/VestingAdapter.sol:VestingAdapter",
            "label": "unlockTime",
            "offset": 0,
            "slot": "3",
            "type": "t_uint256"
          }
        ],
        "numberOfBytes": "128"
      },
      "t_struct(PendingBoolValue)25357_storage": {
        "encoding": "inplace",
        "label": "struct VestingAdapter.PendingBoolValue",
        "members": [
          {
            "astId": 25352,
            "contract": "contracts/VestingAdapter.sol:VestingAdapter",
            "label": "value",
            "offset": 0,
            "slot": "0",
            "type": "t_bool"
          },
          {
            "astId": 25354,
            "contract": "contracts/VestingAdapter.sol:VestingAdapter",
            "label": "executeAfter",
            "offset": 0,
            "slot": "1",
            "type": "t_uint256"
          },
          {
            "astId": 25356,
            "contract": "contracts/VestingAdapter.sol:VestingAdapter",
            "label": "exists",
            "offset": 0,
            "slot": "2",
            "type": "t_bool"
          }
        ],
        "numberOfBytes": "96"
      },
      "t_struct(PendingLoanManager)25350_storage": {
        "encoding": "inplace",
        "label": "struct VestingAdapter.PendingLoanManager",
        "members": [
          {
            "astId": 25345,
            "contract": "contracts/VestingAdapter.sol:VestingAdapter",
            "label": "manager",
            "offset": 0,
            "slot": "0",
            "type": "t_address"
          },
          {
            "astId": 25347,
            "contract": "contracts/VestingAdapter.sol:VestingAdapter",
            "label": "executeAfter",
            "offset": 0,
            "slot": "1",
            "type": "t_uint256"
          },
          {
            "astId": 25349,
            "contract": "contracts/VestingAdapter.sol:VestingAdapter",
            "label": "exists",
            "offset": 0,
            "slot": "2",
            "type": "t_bool"
          }
        ],
        "numberOfBytes": "96"
      },
      "t_struct(RoleData)68_storage": {
        "encoding": "inplace",
        "label": "struct AccessControl.RoleData",
        "members": [
          {
            "astId": 65,
            "contract": "contracts/VestingAdapter.sol:VestingAdapter",
            "label": "hasRole",
            "offset": 0,
            "slot": "0",
            "type": "t_mapping(t_address,t_bool)"
          },
          {
            "astId": 67,
            "contract": "contracts/VestingAdapter.sol:VestingAdapter",
            "label": "adminRole",
            "offset": 0,
            "slot": "1",
            "type": "t_bytes32"
          }
        ],
        "numberOfBytes": "64"
      },
      "t_uint256": {
        "encoding": "inplace",
        "label": "uint256",
        "numberOfBytes": "32"
      }
    }
  }
}