{
  "address": "0xe6AF878E6bE906Fc9682516C84934B4E359D0949",
  "abi": [
    {
      "inputs": [],
      "stateMutability": "nonpayable",
      "type": "constructor"
    },
    {
      "inputs": [
        {
          "internalType": "address",
          "name": "owner",
          "type": "address"
        }
      ],
      "name": "OwnableInvalidOwner",
      "type": "error"
    },
    {
      "inputs": [
        {
          "internalType": "address",
          "name": "account",
          "type": "address"
        }
      ],
      "name": "OwnableUnauthorizedAccount",
      "type": "error"
    },
    {
      "anonymous": false,
      "inputs": [
        {
          "indexed": false,
          "internalType": "bool",
          "name": "enabled",
          "type": "bool"
        },
        {
          "indexed": false,
          "internalType": "uint256",
          "name": "delaySeconds",
          "type": "uint256"
        }
      ],
      "name": "AdminTimelockConfigUpdated",
      "type": "event"
    },
    {
      "anonymous": false,
      "inputs": [
        {
          "indexed": true,
          "internalType": "address",
          "name": "vestingContract",
          "type": "address"
        }
      ],
      "name": "AllowedVestingContractQueueCancelled",
      "type": "event"
    },
    {
      "anonymous": false,
      "inputs": [
        {
          "indexed": true,
          "internalType": "address",
          "name": "vestingContract",
          "type": "address"
        },
        {
          "indexed": false,
          "internalType": "bool",
          "name": "allowed",
          "type": "bool"
        },
        {
          "indexed": false,
          "internalType": "uint256",
          "name": "executeAfter",
          "type": "uint256"
        }
      ],
      "name": "AllowedVestingContractQueued",
      "type": "event"
    },
    {
      "anonymous": false,
      "inputs": [
        {
          "indexed": true,
          "internalType": "address",
          "name": "vestingContract",
          "type": "address"
        },
        {
          "indexed": false,
          "internalType": "bool",
          "name": "allowed",
          "type": "bool"
        }
      ],
      "name": "AllowedVestingContractUpdated",
      "type": "event"
    },
    {
      "anonymous": false,
      "inputs": [
        {
          "indexed": true,
          "internalType": "address",
          "name": "caller",
          "type": "address"
        }
      ],
      "name": "AuthorizedCallerQueueCancelled",
      "type": "event"
    },
    {
      "anonymous": false,
      "inputs": [
        {
          "indexed": true,
          "internalType": "address",
          "name": "caller",
          "type": "address"
        },
        {
          "indexed": false,
          "internalType": "bool",
          "name": "allowed",
          "type": "bool"
        },
        {
          "indexed": false,
          "internalType": "uint256",
          "name": "executeAfter",
          "type": "uint256"
        }
      ],
      "name": "AuthorizedCallerQueued",
      "type": "event"
    },
    {
      "anonymous": false,
      "inputs": [
        {
          "indexed": true,
          "internalType": "address",
          "name": "caller",
          "type": "address"
        },
        {
          "indexed": false,
          "internalType": "bool",
          "name": "allowed",
          "type": "bool"
        }
      ],
      "name": "AuthorizedCallerUpdated",
      "type": "event"
    },
    {
      "anonymous": false,
      "inputs": [],
      "name": "LoanManagerQueueCancelled",
      "type": "event"
    },
    {
      "anonymous": false,
      "inputs": [
        {
          "indexed": true,
          "internalType": "address",
          "name": "manager",
          "type": "address"
        },
        {
          "indexed": false,
          "internalType": "uint256",
          "name": "executeAfter",
          "type": "uint256"
        }
      ],
      "name": "LoanManagerQueued",
      "type": "event"
    },
    {
      "anonymous": false,
      "inputs": [
        {
          "indexed": true,
          "internalType": "address",
          "name": "loanManager",
          "type": "address"
        }
      ],
      "name": "LoanManagerUpdated",
      "type": "event"
    },
    {
      "anonymous": false,
      "inputs": [
        {
          "indexed": true,
          "internalType": "address",
          "name": "previousOwner",
          "type": "address"
        },
        {
          "indexed": true,
          "internalType": "address",
          "name": "newOwner",
          "type": "address"
        }
      ],
      "name": "OwnershipTransferred",
      "type": "event"
    },
    {
      "anonymous": false,
      "inputs": [],
      "name": "UseWhitelistQueueCancelled",
      "type": "event"
    },
    {
      "anonymous": false,
      "inputs": [
        {
          "indexed": false,
          "internalType": "bool",
          "name": "enabled",
          "type": "bool"
        },
        {
          "indexed": false,
          "internalType": "uint256",
          "name": "executeAfter",
          "type": "uint256"
        }
      ],
      "name": "UseWhitelistQueued",
      "type": "event"
    },
    {
      "anonymous": false,
      "inputs": [
        {
          "indexed": false,
          "internalType": "bool",
          "name": "enabled",
          "type": "bool"
        }
      ],
      "name": "UseWhitelistUpdated",
      "type": "event"
    },
    {
      "inputs": [],
      "name": "adminTimelockDelay",
      "outputs": [
        {
          "internalType": "uint256",
          "name": "",
          "type": "uint256"
        }
      ],
      "stateMutability": "view",
      "type": "function"
    },
    {
      "inputs": [],
      "name": "adminTimelockEnabled",
      "outputs": [
        {
          "internalType": "bool",
          "name": "",
          "type": "bool"
        }
      ],
      "stateMutability": "view",
      "type": "function"
    },
    {
      "inputs": [
        {
          "internalType": "address",
          "name": "",
          "type": "address"
        }
      ],
      "name": "allowedVestingContracts",
      "outputs": [
        {
          "internalType": "bool",
          "name": "",
          "type": "bool"
        }
      ],
      "stateMutability": "view",
      "type": "function"
    },
    {
      "inputs": [
        {
          "internalType": "address",
          "name": "",
          "type": "address"
        }
      ],
      "name": "authorizedCallers",
      "outputs": [
        {
          "internalType": "bool",
          "name": "",
          "type": "bool"
        }
      ],
      "stateMutability": "view",
      "type": "function"
    },
    {
      "inputs": [
        {
          "internalType": "address",
          "name": "vestingContract",
          "type": "address"
        }
      ],
      "name": "cancelQueuedAllowedVestingContract",
      "outputs": [],
      "stateMutability": "nonpayable",
      "type": "function"
    },
    {
      "inputs": [
        {
          "internalType": "address",
          "name": "caller",
          "type": "address"
        }
      ],
      "name": "cancelQueuedAuthorizedCaller",
      "outputs": [],
      "stateMutability": "nonpayable",
      "type": "function"
    },
    {
      "inputs": [],
      "name": "cancelQueuedLoanManager",
      "outputs": [],
      "stateMutability": "nonpayable",
      "type": "function"
    },
    {
      "inputs": [],
      "name": "cancelQueuedUseWhitelist",
      "outputs": [],
      "stateMutability": "nonpayable",
      "type": "function"
    },
    {
      "inputs": [
        {
          "internalType": "uint256",
          "name": "",
          "type": "uint256"
        }
      ],
      "name": "collaterals",
      "outputs": [
        {
          "internalType": "address",
          "name": "vestingContract",
          "type": "address"
        },
        {
          "internalType": "address",
          "name": "token",
          "type": "address"
        },
        {
          "internalType": "uint256",
          "name": "totalAmount",
          "type": "uint256"
        },
        {
          "internalType": "uint256",
          "name": "unlockTime",
          "type": "uint256"
        }
      ],
      "stateMutability": "view",
      "type": "function"
    },
    {
      "inputs": [
        {
          "internalType": "uint256",
          "name": "collateralId",
          "type": "uint256"
        },
        {
          "internalType": "address",
          "name": "vestingContract",
          "type": "address"
        },
        {
          "internalType": "address",
          "name": "borrower",
          "type": "address"
        }
      ],
      "name": "escrow",
      "outputs": [],
      "stateMutability": "nonpayable",
      "type": "function"
    },
    {
      "inputs": [
        {
          "internalType": "address",
          "name": "vestingContract",
          "type": "address"
        }
      ],
      "name": "executeQueuedAllowedVestingContract",
      "outputs": [],
      "stateMutability": "nonpayable",
      "type": "function"
    },
    {
      "inputs": [
        {
          "internalType": "address",
          "name": "caller",
          "type": "address"
        }
      ],
      "name": "executeQueuedAuthorizedCaller",
      "outputs": [],
      "stateMutability": "nonpayable",
      "type": "function"
    },
    {
      "inputs": [],
      "name": "executeQueuedLoanManager",
      "outputs": [],
      "stateMutability": "nonpayable",
      "type": "function"
    },
    {
      "inputs": [],
      "name": "executeQueuedUseWhitelist",
      "outputs": [],
      "stateMutability": "nonpayable",
      "type": "function"
    },
    {
      "inputs": [
        {
          "internalType": "uint256",
          "name": "collateralId",
          "type": "uint256"
        }
      ],
      "name": "getDetails",
      "outputs": [
        {
          "internalType": "uint256",
          "name": "quantity",
          "type": "uint256"
        },
        {
          "internalType": "address",
          "name": "token",
          "type": "address"
        },
        {
          "internalType": "uint256",
          "name": "unlockTime",
          "type": "uint256"
        }
      ],
      "stateMutability": "view",
      "type": "function"
    },
    {
      "inputs": [],
      "name": "loanManager",
      "outputs": [
        {
          "internalType": "address",
          "name": "",
          "type": "address"
        }
      ],
      "stateMutability": "view",
      "type": "function"
    },
    {
      "inputs": [
        {
          "internalType": "address",
          "name": "",
          "type": "address"
        },
        {
          "internalType": "address",
          "name": "",
          "type": "address"
        },
        {
          "internalType": "uint256",
          "name": "",
          "type": "uint256"
        },
        {
          "internalType": "bytes",
          "name": "",
          "type": "bytes"
        }
      ],
      "name": "onERC721Received",
      "outputs": [
        {
          "internalType": "bytes4",
          "name": "",
          "type": "bytes4"
        }
      ],
      "stateMutability": "pure",
      "type": "function"
    },
    {
      "inputs": [],
      "name": "owner",
      "outputs": [
        {
          "internalType": "address",
          "name": "",
          "type": "address"
        }
      ],
      "stateMutability": "view",
      "type": "function"
    },
    {
      "inputs": [
        {
          "internalType": "address",
          "name": "",
          "type": "address"
        }
      ],
      "name": "pendingAllowedVestingContracts",
      "outputs": [
        {
          "internalType": "bool",
          "name": "value",
          "type": "bool"
        },
        {
          "internalType": "uint256",
          "name": "executeAfter",
          "type": "uint256"
        },
        {
          "internalType": "bool",
          "name": "exists",
          "type": "bool"
        }
      ],
      "stateMutability": "view",
      "type": "function"
    },
    {
      "inputs": [
        {
          "internalType": "address",
          "name": "",
          "type": "address"
        }
      ],
      "name": "pendingAuthorizedCallers",
      "outputs": [
        {
          "internalType": "bool",
          "name": "value",
          "type": "bool"
        },
        {
          "internalType": "uint256",
          "name": "executeAfter",
          "type": "uint256"
        },
        {
          "internalType": "bool",
          "name": "exists",
          "type": "bool"
        }
      ],
      "stateMutability": "view",
      "type": "function"
    },
    {
      "inputs": [],
      "name": "pendingLoanManager",
      "outputs": [
        {
          "internalType": "address",
          "name": "manager",
          "type": "address"
        },
        {
          "internalType": "uint256",
          "name": "executeAfter",
          "type": "uint256"
        },
        {
          "internalType": "bool",
          "name": "exists",
          "type": "bool"
        }
      ],
      "stateMutability": "view",
      "type": "function"
    },
    {
      "inputs": [],
      "name": "pendingUseWhitelist",
      "outputs": [
        {
          "internalType": "bool",
          "name": "value",
          "type": "bool"
        },
        {
          "internalType": "uint256",
          "name": "executeAfter",
          "type": "uint256"
        },
        {
          "internalType": "bool",
          "name": "exists",
          "type": "bool"
        }
      ],
      "stateMutability": "view",
      "type": "function"
    },
    {
      "inputs": [
        {
          "internalType": "address",
          "name": "vestingContract",
          "type": "address"
        },
        {
          "internalType": "bool",
          "name": "allowed",
          "type": "bool"
        }
      ],
      "name": "queueAllowedVestingContract",
      "outputs": [],
      "stateMutability": "nonpayable",
      "type": "function"
    },
    {
      "inputs": [
        {
          "internalType": "address",
          "name": "caller",
          "type": "address"
        },
        {
          "internalType": "bool",
          "name": "allowed",
          "type": "bool"
        }
      ],
      "name": "queueAuthorizedCaller",
      "outputs": [],
      "stateMutability": "nonpayable",
      "type": "function"
    },
    {
      "inputs": [
        {
          "internalType": "address",
          "name": "manager",
          "type": "address"
        }
      ],
      "name": "queueLoanManager",
      "outputs": [],
      "stateMutability": "nonpayable",
      "type": "function"
    },
    {
      "inputs": [
        {
          "internalType": "bool",
          "name": "use",
          "type": "bool"
        }
      ],
      "name": "queueUseWhitelist",
      "outputs": [],
      "stateMutability": "nonpayable",
      "type": "function"
    },
    {
      "inputs": [
        {
          "internalType": "uint256",
          "name": "collateralId",
          "type": "uint256"
        },
        {
          "internalType": "address",
          "name": "to",
          "type": "address"
        },
        {
          "internalType": "uint256",
          "name": "amount",
          "type": "uint256"
        }
      ],
      "name": "releaseTo",
      "outputs": [],
      "stateMutability": "nonpayable",
      "type": "function"
    },
    {
      "inputs": [],
      "name": "renounceOwnership",
      "outputs": [],
      "stateMutability": "nonpayable",
      "type": "function"
    },
    {
      "inputs": [
        {
          "internalType": "bool",
          "name": "enabled",
          "type": "bool"
        },
        {
          "internalType": "uint256",
          "name": "delaySeconds",
          "type": "uint256"
        }
      ],
      "name": "setAdminTimelockConfig",
      "outputs": [],
      "stateMutability": "nonpayable",
      "type": "function"
    },
    {
      "inputs": [
        {
          "internalType": "address",
          "name": "vestingContract",
          "type": "address"
        },
        {
          "internalType": "bool",
          "name": "allowed",
          "type": "bool"
        }
      ],
      "name": "setAllowedVestingContract",
      "outputs": [],
      "stateMutability": "nonpayable",
      "type": "function"
    },
    {
      "inputs": [
        {
          "internalType": "address",
          "name": "caller",
          "type": "address"
        },
        {
          "internalType": "bool",
          "name": "allowed",
          "type": "bool"
        }
      ],
      "name": "setAuthorizedCaller",
      "outputs": [],
      "stateMutability": "nonpayable",
      "type": "function"
    },
    {
      "inputs": [
        {
          "internalType": "address",
          "name": "manager",
          "type": "address"
        }
      ],
      "name": "setLoanManager",
      "outputs": [],
      "stateMutability": "nonpayable",
      "type": "function"
    },
    {
      "inputs": [
        {
          "internalType": "bool",
          "name": "use",
          "type": "bool"
        }
      ],
      "name": "setUseWhitelist",
      "outputs": [],
      "stateMutability": "nonpayable",
      "type": "function"
    },
    {
      "inputs": [
        {
          "internalType": "address",
          "name": "newOwner",
          "type": "address"
        }
      ],
      "name": "transferOwnership",
      "outputs": [],
      "stateMutability": "nonpayable",
      "type": "function"
    },
    {
      "inputs": [],
      "name": "useWhitelist",
      "outputs": [
        {
          "internalType": "bool",
          "name": "",
          "type": "bool"
        }
      ],
      "stateMutability": "view",
      "type": "function"
    },
    {
      "inputs": [
        {
          "internalType": "uint256",
          "name": "",
          "type": "uint256"
        }
      ],
      "name": "vestingContracts",
      "outputs": [
        {
          "internalType": "address",
          "name": "",
          "type": "address"
        }
      ],
      "stateMutability": "view",
      "type": "function"
    }
  ],
  "transactionHash": "0x94caffe9561ba394b792aad1ccda83a477cac55488ab128c1e0c25c94c25c51f",
  "args": [],
  "numDeployments": 5,
  "solcInputHash": "c43404e21958c3614c6b5ae8c15120b3",
  "bytecode": "0x6080806040523461008157331561006b5760008054336001600160a01b03198216811783556040519290916001600160a01b0316907f8be0079c531659141344cd1fd0a4f28419497f9722a3daafe3b4186f6b6457e09080a362015180600855611b8290816100878239f35b631e4fbdf760e01b815260006004820152602490fd5b600080fdfe608060408181526004918236101561001657600080fd5b600092833560e01c918263022f4823146116235750816311a6f3da146116045781631233dff71461157c578163150b7a021461150a57816324c1173b146114b55781632a7d7bc5146113065781632b205dc9146112cd57816335688c1914611216578163423ae28d1461115b578163454bbd291461111a5781635075fa0114611052578163536fff6c146110145781635379e81f14610f8b57816354c37c4f14610f675781635772ae7014610f2e57816357be57a714610ebd57816357d05ef914610e3857816358281bf314610e06578163715018a614610dac57816384dff74014610d4f5781638da5cb5b14610d275781639550c22614610ce9578163a59ffd3614610c1b578163b3ccbcfe14610bf2578163b901209814610b8a578163b93a89f714610a43578163c004cd73146109be578163cdc4ac8214610981578163d5fe04a114610924578163e00f7208146108e3578163e630025a146108bf578163e76ecb9d146107bd578163ee6088ac14610779578163f2b42e12146102bd578163f2fde38b1461022d575063fb766e5e146101b157600080fd5b34610229578160031936011261022957610226906101cd6116d3565b61020f8151916101dc83611805565b60ff600c541615158352610206600d54916020850192835260ff600e541615158091860152611843565b51421015611882565b6000600c556000600d556000600e55511515611a15565b80f35b5080fd5b9050346102b95760203660031901126102b957610248611689565b906102516116d3565b6001600160a01b039182169283156102a3575050600054826001600160601b0360a01b821617600055167f8be0079c531659141344cd1fd0a4f28419497f9722a3daafe3b4186f6b6457e0600080a380f35b51631e4fbdf760e01b8152908101849052602490fd5b8280fd5b919050346102b95760603660031901126102b9578135906102dc61169f565b6001600160a01b0393604480358681169592939291908690036104e857851561074a57853314801561073d575b8015610728575b61031990611aaf565b823b156106f55760ff600554161580156106de575b156106a6578188526020926003845287868a20541661067a5787169585516338af3eed60e01b8152848187818b5afa908115610557579089918b9161065d575b50160361062a57845163be9a655560e01b8152838186818a5afa9081156106205789916105f3575b5085516303ed69ad60e21b815290848287818b5afa918215610557578a926105c4575b50811561059557906103ca916117b0565b9042821115610561578551637e062a3560e11b8152848187818b5afa908115610557579089918b9161052a575b501680156104fe578651631e480f7160e21b815291858388818c5afa9283156104f4578b936104c0575b5082156104955750906003929187519461043a866117d3565b898652868601918252888601928352606086019384528b5283865289888c20955116996001600160601b0360a01b9a8b875416178655600186019151168a825416179055516002840155519101555283209182541617905580f35b86660746f74616c3d360cc1b606492888b519362461bcd60e51b855284015260076024840152820152fd5b9092508581813d83116104ed575b6104d88183611821565b810103126104e857519138610421565b600080fd5b503d6104ce565b88513d8d823e3d90fd5b865162461bcd60e51b815280870186905260076024820152660746f6b656e3d360cc1b81840152606490fd5b61054a9150863d8811610550575b6105428183611821565b810190611aec565b386103f7565b503d610538565b87513d8c823e3d90fd5b846f185b1c9958591e481d5b9b1bd8dad95960821b6064928689519362461bcd60e51b855284015260106024840152820152fd5b865162461bcd60e51b8152808701869052600a60248201526906475726174696f6e3d360b41b81850152606490fd5b9091508481813d83116105ec575b6105dc8183611821565b810103126104e8575190386103b9565b503d6105d2565b90508381813d8311610619575b61060a8183611821565b810103126104e8575138610396565b503d610600565b86513d8b823e3d90fd5b90506e6e6f742062656e656669636961727960881b91606494519362461bcd60e51b8552840152600f6024840152820152fd5b6106749150863d8811610550576105428183611821565b3861036e565b855162461bcd60e51b815280860185905260076024820152661a59081d5cd95960ca1b81840152606490fd5b83721d995cdd1a5b99c81b9bdd08185b1b1bddd959606a1b606492602088519362461bcd60e51b855284015260136024840152820152fd5b508683168852600660205260ff858920541661032e565b836d1b9bdd08184818dbdb9d1c9858dd60921b606492602088519362461bcd60e51b8552840152600e6024840152820152fd5b5033885260026020528488205460ff16610310565b5086600154163314610309565b83690626f72726f7765723d360b41b606492602088519362461bcd60e51b8552840152600a6024840152820152fd5b8284346107ba57806003193601126107ba5750600c54600d54600e54925160ff928316151581526020810191909152911615156040820152606090f35b0390f35b80fd5b5050346102295780600319360112610229577fd21cd53d75545adef2d6068a9280738d6cb194542839467f04de74a8113fb0e36107f8611689565b916108016116c4565b9261080a6116d3565b61081860ff60075416611738565b6001600160a01b03169261082d841515611929565b6108b961083c600854426117b0565b926108a1815161084b81611805565b841515815260026020820187815284830190600182528a8c526010602052610885868d2094511515859060ff801983541691151516179055565b51600184015551151591019060ff801983541691151516179055565b51911515825260208201929092529081906040820190565b0390a280f35b50503461022957816003193601126102295760209060ff6005541690519015158152f35b505034610229573660031901126107ba576102266108ff611689565b6109076116c4565b906109106116d3565b61091f60ff60075416156116ff565b611a53565b83346107ba57806003193601126107ba5761093d6116d3565b61094b60ff600b5416611843565b60006009556000600a556000600b557f58f8d058d65c5fba672452718f4ce16cb9299d1bd63285d363dc5a6fcf18ed248180a180f35b50503461022957816003193601126102295760609060018060a01b036009541690600a5460ff600b54169082519384526020840152151590820152f35b50503461022957602036600319011261022957610226906109dd611689565b906109e66116d3565b6000600260018060a01b03841692838752600f602052610a078188206118f8565b93610a16828601511515611843565b610a266020860151421015611882565b8752600f60205286208281558260018201550155511515906119ae565b83833461022957602090816003193601126102b9578335835260038252808320928151610a6f816117d3565b60018060a01b03908186541692838252828060018901541692878101938452610ab0600360028b01549a8984019b8c52015496606083019788521515611b0b565b511696868484511660248b89519b8c938492632614965760e21b84528301525afa978815610b80578298610b51575b5087815110610b1d5751968703968711610b0a57506060965051169051928251948552840152820152f35b634e487b7160e01b815260118852602490fd5b855162461bcd60e51b8152808a01889052600e60248201526d1c995b19585cd9590f9d1bdd185b60921b6044820152606490fd5b9097508681813d8311610b79575b610b698183611821565b810103126104e857519689610adf565b503d610b5f565b86513d84823e3d90fd5b505034610229576020366003190112610229579081906001600160a01b03610bb0611689565b168152600f60205220906107b660ff8354169160ff60026001860154950154169051938493849192604091949360608401951515845260208401521515910152565b50503461022957816003193601126102295760015490516001600160a01b039091168152602090f35b83915034610229578260031936011261022957610c366116b5565b60243591610c426116d3565b603c83101580610cdc575b15610cad5750610ca77f687911c7f7b365a8368a45830a19c83a06fd492822054b1e7035e987f6ac5069939460ff196007541660ff8415151617600755836008555192839283602090939291936040810194151581520152565b0390a180f35b606490602086519162461bcd60e51b835282015260096024820152686261642064656c617960b81b6044820152fd5b5062278d00831115610c4d565b5050346102295760203660031901126102295760209160ff9082906001600160a01b03610d14611689565b1681526006855220541690519015158152f35b505034610229578160031936011261022957905490516001600160a01b039091168152602090f35b83346107ba57806003193601126107ba57610d686116d3565b610d7660ff600e5416611843565b6000600c556000600d556000600e557fcb4d488c11b90d7df9b6016c0dd76b6764bb02085d890af226f66178e3447da08180a180f35b83346107ba57806003193601126107ba57610dc56116d3565b600080546001600160a01b0319811682556001600160a01b03167f8be0079c531659141344cd1fd0a4f28419497f9722a3daafe3b4186f6b6457e08280a380f35b9050346102b95760203660031901126102b957803583526020908152918190205490516001600160a01b039091168152f35b5050346102295760203660031901126102295761022690610e57611689565b90610e606116d3565b6000600260018060a01b038416928387526010602052610e818188206118f8565b93610e90828601511515611843565b610ea06020860151421015611882565b875260106020528620828155826001820155015551151590611a53565b50503461022957816003193601126102295761022690610edb6116d3565b8051610ee681611805565b610f1860018060a01b039283600954168352610206600a54916020850192835260ff600b541615158091860152611843565b60006009556000600a556000600b555116611961565b83346107ba5760203660031901126107ba57610226610f4b611689565b610f536116d3565b610f6260ff60075416156116ff565b611961565b50503461022957816003193601126102295760209060ff6007541690519015158152f35b5050346102295760203660031901126102295760006002610faa611689565b610fb26116d3565b6001600160a01b0316808552600f602052838520820154909390610fd89060ff16611843565b838552600f602052842082815582600182015501557f28342101a0599361a903407173367d85feed5f6e283086ae0db4f09c01f11fce8280a280f35b5050346102295760203660031901126102295760209160ff9082906001600160a01b0361103f611689565b1681526002855220541690519015158152f35b5050346102295780600319360112610229577f2afb9d651a86c3b2855b7aba1b36a0d15c0087a8e4d3d764e808e8d3bf1c6c6761108d611689565b916110966116c4565b9261109f6116d3565b6110ad60ff60075416611738565b6001600160a01b0316926110c28415156118c1565b6108b96110d1600854426117b0565b926108a181516110e081611805565b841515815260026020820187815284830190600182528a8c52600f602052610885868d2094511515859060ff801983541691151516179055565b505034610229573660031901126107ba57610226611136611689565b61113e6116c4565b906111476116d3565b61115660ff60075416156116ff565b6119ae565b505034610229576020366003190112610229577f4613d1ec45c5fb4e57c5e0fa3f672ab285fe109e70e3580957a76423e5f847616020611199611689565b6111a16116d3565b6111af60ff60075416611738565b6001600160a01b0316926111c4841515611778565b6111d0600854426117b0565b9060018180516111df81611805565b87815284868201520152846001600160601b0360a01b600954161760095581600a55600160ff19600b541617600b5551908152a280f35b505034610229576020366003190112610229577f533749f63cf7ac7879ccaeea389ce854e6bab7d46e08fb220c8498e982758fad906112536116b5565b61125b6116d3565b61126960ff60075416611738565b610ca7611278600854426117b0565b926001815161128681611805565b818386151592838152886020820152015260ff199060ff82600c5416911617600c5585600d55600e541617600e555192839283602090939291936040810194151581520152565b83346107ba5760203660031901126107ba576102266112ea6116b5565b6112f26116d3565b61130160ff60075416156116ff565b611a15565b919050346102b95760603660031901126102b95761132261169f565b9160443560018060a01b0380948160015416331480156114a0575b61134690611aaf565b1693841561147657823586526003602052838620845190611366826117d3565b61139960038483541692838552856001820154166020860152600281015489860152015491606084019283521515611b0b565b51421061144457821561141657511693859190853b156102b9576044908386519788948593634e06bad160e01b85528885015260248401525af1801561140c576113e1578380f35b67ffffffffffffffff83116113f95750523880808380f35b634e487b7160e01b845260419052602483fd5b82513d86823e3d90fd5b845162461bcd60e51b815260208186015260086024820152670616d6f756e743d360c41b6044820152606490fd5b845162461bcd60e51b8152602081860152600c60248201526b1b9bdd081d5b9b1bd8dad95960a21b6044820152606490fd5b835162461bcd60e51b815260208185015260248101849052630746f3d360e41b6044820152606490fd5b5033875260026020528487205460ff1661133d565b9050346102b95760203660031901126102b95760809282913581526003602052209060018060a01b03918281541692600182015416916003600283015492015492815194855260208501528301526060820152f35b9050346102b95760803660031901126102b957611525611689565b5061152e61169f565b506064359067ffffffffffffffff9081831161157857366023840112156115785782013590811161157457369101602401116102295751630a85bd0160e11b8152602090f35b8380fd5b8480fd5b5050346102295760203660031901126102295781600261159a611689565b6115a26116d3565b6001600160a01b031680835260106020528383208201549093906115c89060ff16611843565b8383526010602052822082815582600182015501557f0523b30d8814eb5571de0c145a6aa99e9d59839a03bf591a7fbbfa2bab8f4b368280a280f35b5050346102295781600319360112610229576020906008549051908152f35b849084346102b95760203660031901126102b957909182916107b6916001600160a01b0361164f611689565b16815260106020522060ff8154169060ff600260018301549201541691849192604091949360608401951515845260208401521515910152565b600435906001600160a01b03821682036104e857565b602435906001600160a01b03821682036104e857565b6004359081151582036104e857565b6024359081151582036104e857565b6000546001600160a01b031633036116e757565b60405163118cdaa760e01b8152336004820152602490fd5b1561170657565b60405162461bcd60e51b815260206004820152600a6024820152691d1a5b595b1bd8dad95960b21b6044820152606490fd5b1561173f57565b60405162461bcd60e51b81526020600482015260116024820152701d1a5b595b1bd8dac8191a5cd8589b1959607a1b6044820152606490fd5b1561177f57565b60405162461bcd60e51b815260206004820152600960248201526806d616e616765723d360bc1b6044820152606490fd5b919082018092116117bd57565b634e487b7160e01b600052601160045260246000fd5b6080810190811067ffffffffffffffff8211176117ef57604052565b634e487b7160e01b600052604160045260246000fd5b6060810190811067ffffffffffffffff8211176117ef57604052565b90601f8019910116810190811067ffffffffffffffff8211176117ef57604052565b1561184a57565b60405162461bcd60e51b815260206004820152601060248201526f6e6f2071756575656420636f6e66696760801b6044820152606490fd5b1561188957565b60405162461bcd60e51b815260206004820152601060248201526f74696d656c6f636b2070656e64696e6760801b6044820152606490fd5b156118c857565b60405162461bcd60e51b8152602060048201526008602482015267063616c6c65723d360c41b6044820152606490fd5b9060405161190581611805565b604060ff600283958281541615158552600181015460208601520154161515910152565b1561193057565b60405162461bcd60e51b8152602060048201526009602482015268076657374696e673d360bc1b6044820152606490fd5b6001600160a01b0316611975811515611778565b600180546001600160a01b031916821790557f1dc4f84ee7313043091b27f406c2494a0c94127ded69968d246cb341249d5f16600080a2565b6001600160a01b0316907fad857fa38c9319cb80848f1ef2f924383b90297eb5d71755738ff037d100faa1906020906119e88415156118c1565b8360005260028252611a0a8160406000209060ff801983541691151516179055565b6040519015158152a2565b60207fe969df90ee672668f026bed9499e48b61650d542cacdaab90a98177a27f15ed491151560ff196005541660ff821617600555604051908152a1565b6001600160a01b0316907f9c3dbe01d9ae24b1a1b2b3559058b1d13c1c93f7fc3f2c8d2cf0f4eda8895fbb90602090611a8d841515611929565b8360005260068252611a0a8160406000209060ff801983541691151516179055565b15611ab657565b60405162461bcd60e51b815260206004820152600e60248201526d1b9bdd08185d5d1a1bdc9a5e995960921b6044820152606490fd5b908160209103126104e857516001600160a01b03811681036104e85790565b15611b1257565b60405162461bcd60e51b81526020600482015260126024820152711d5b9adb9bdddb8818dbdb1b185d195c985b60721b6044820152606490fdfea264697066735822122001842ac178f8f7d69480f441f908bf1754f2755ee7d7eede055885fb0913062764736f6c63430008140033",
  "devdoc": {
    "errors": {
      "OwnableInvalidOwner(address)": [
        {
          "details": "The owner is not a valid owner account. (eg. `address(0)`)"
        }
      ],
      "OwnableUnauthorizedAccount(address)": [
        {
          "details": "The caller account is not authorized to perform an operation."
        }
      ]
    },
    "kind": "dev",
    "methods": {
      "owner()": {
        "details": "Returns the address of the current owner."
      },
      "renounceOwnership()": {
        "details": "Leaves the contract without owner. It will not be possible to call `onlyOwner` functions. Can only be called by the current owner. NOTE: Renouncing ownership will leave the contract without an owner, thereby disabling any functionality that is only available to the owner."
      },
      "transferOwnership(address)": {
        "details": "Transfers ownership of the contract to a new account (`newOwner`). Can only be called by the current owner."
      }
    },
    "version": 1
  },
  "userdoc": {
    "kind": "user",
    "methods": {},
    "version": 1
  },
  "storageLayout": {
    "storage": [
      {
        "astId": 54,
        "contract": "contracts/VestingAdapter.sol:VestingAdapter",
        "label": "_owner",
        "offset": 0,
        "slot": "0",
        "type": "t_address"
      },
      {
        "astId": 13283,
        "contract": "contracts/VestingAdapter.sol:VestingAdapter",
        "label": "loanManager",
        "offset": 0,
        "slot": "1",
        "type": "t_address"
      },
      {
        "astId": 13287,
        "contract": "contracts/VestingAdapter.sol:VestingAdapter",
        "label": "authorizedCallers",
        "offset": 0,
        "slot": "2",
        "type": "t_mapping(t_address,t_bool)"
      },
      {
        "astId": 13292,
        "contract": "contracts/VestingAdapter.sol:VestingAdapter",
        "label": "collaterals",
        "offset": 0,
        "slot": "3",
        "type": "t_mapping(t_uint256,t_struct(Collateral)13281_storage)"
      },
      {
        "astId": 13296,
        "contract": "contracts/VestingAdapter.sol:VestingAdapter",
        "label": "vestingContracts",
        "offset": 0,
        "slot": "4",
        "type": "t_mapping(t_uint256,t_address)"
      },
      {
        "astId": 13298,
        "contract": "contracts/VestingAdapter.sol:VestingAdapter",
        "label": "useWhitelist",
        "offset": 0,
        "slot": "5",
        "type": "t_bool"
      },
      {
        "astId": 13302,
        "contract": "contracts/VestingAdapter.sol:VestingAdapter",
        "label": "allowedVestingContracts",
        "offset": 0,
        "slot": "6",
        "type": "t_mapping(t_address,t_bool)"
      },
      {
        "astId": 13304,
        "contract": "contracts/VestingAdapter.sol:VestingAdapter",
        "label": "adminTimelockEnabled",
        "offset": 0,
        "slot": "7",
        "type": "t_bool"
      },
      {
        "astId": 13307,
        "contract": "contracts/VestingAdapter.sol:VestingAdapter",
        "label": "adminTimelockDelay",
        "offset": 0,
        "slot": "8",
        "type": "t_uint256"
      },
      {
        "astId": 13324,
        "contract": "contracts/VestingAdapter.sol:VestingAdapter",
        "label": "pendingLoanManager",
        "offset": 0,
        "slot": "9",
        "type": "t_struct(PendingLoanManager)13314_storage"
      },
      {
        "astId": 13327,
        "contract": "contracts/VestingAdapter.sol:VestingAdapter",
        "label": "pendingUseWhitelist",
        "offset": 0,
        "slot": "12",
        "type": "t_struct(PendingBoolValue)13321_storage"
      },
      {
        "astId": 13332,
        "contract": "contracts/VestingAdapter.sol:VestingAdapter",
        "label": "pendingAuthorizedCallers",
        "offset": 0,
        "slot": "15",
        "type": "t_mapping(t_address,t_struct(PendingBoolValue)13321_storage)"
      },
      {
        "astId": 13337,
        "contract": "contracts/VestingAdapter.sol:VestingAdapter",
        "label": "pendingAllowedVestingContracts",
        "offset": 0,
        "slot": "16",
        "type": "t_mapping(t_address,t_struct(PendingBoolValue)13321_storage)"
      }
    ],
    "types": {
      "t_address": {
        "encoding": "inplace",
        "label": "address",
        "numberOfBytes": "20"
      },
      "t_bool": {
        "encoding": "inplace",
        "label": "bool",
        "numberOfBytes": "1"
      },
      "t_mapping(t_address,t_bool)": {
        "encoding": "mapping",
        "key": "t_address",
        "label": "mapping(address => bool)",
        "numberOfBytes": "32",
        "value": "t_bool"
      },
      "t_mapping(t_address,t_struct(PendingBoolValue)13321_storage)": {
        "encoding": "mapping",
        "key": "t_address",
        "label": "mapping(address => struct VestingAdapter.PendingBoolValue)",
        "numberOfBytes": "32",
        "value": "t_struct(PendingBoolValue)13321_storage"
      },
      "t_mapping(t_uint256,t_address)": {
        "encoding": "mapping",
        "key": "t_uint256",
        "label": "mapping(uint256 => address)",
        "numberOfBytes": "32",
        "value": "t_address"
      },
      "t_mapping(t_uint256,t_struct(Collateral)13281_storage)": {
        "encoding": "mapping",
        "key": "t_uint256",
        "label": "mapping(uint256 => struct VestingAdapter.Collateral)",
        "numberOfBytes": "32",
        "value": "t_struct(Collateral)13281_storage"
      },
      "t_struct(Collateral)13281_storage": {
        "encoding": "inplace",
        "label": "struct VestingAdapter.Collateral",
        "members": [
          {
            "astId": 13274,
            "contract": "contracts/VestingAdapter.sol:VestingAdapter",
            "label": "vestingContract",
            "offset": 0,
            "slot": "0",
            "type": "t_address"
          },
          {
            "astId": 13276,
            "contract": "contracts/VestingAdapter.sol:VestingAdapter",
            "label": "token",
            "offset": 0,
            "slot": "1",
            "type": "t_address"
          },
          {
            "astId": 13278,
            "contract": "contracts/VestingAdapter.sol:VestingAdapter",
            "label": "totalAmount",
            "offset": 0,
            "slot": "2",
            "type": "t_uint256"
          },
          {
            "astId": 13280,
            "contract": "contracts/VestingAdapter.sol:VestingAdapter",
            "label": "unlockTime",
            "offset": 0,
            "slot": "3",
            "type": "t_uint256"
          }
        ],
        "numberOfBytes": "128"
      },
      "t_struct(PendingBoolValue)13321_storage": {
        "encoding": "inplace",
        "label": "struct VestingAdapter.PendingBoolValue",
        "members": [
          {
            "astId": 13316,
            "contract": "contracts/VestingAdapter.sol:VestingAdapter",
            "label": "value",
            "offset": 0,
            "slot": "0",
            "type": "t_bool"
          },
          {
            "astId": 13318,
            "contract": "contracts/VestingAdapter.sol:VestingAdapter",
            "label": "executeAfter",
            "offset": 0,
            "slot": "1",
            "type": "t_uint256"
          },
          {
            "astId": 13320,
            "contract": "contracts/VestingAdapter.sol:VestingAdapter",
            "label": "exists",
            "offset": 0,
            "slot": "2",
            "type": "t_bool"
          }
        ],
        "numberOfBytes": "96"
      },
      "t_struct(PendingLoanManager)13314_storage": {
        "encoding": "inplace",
        "label": "struct VestingAdapter.PendingLoanManager",
        "members": [
          {
            "astId": 13309,
            "contract": "contracts/VestingAdapter.sol:VestingAdapter",
            "label": "manager",
            "offset": 0,
            "slot": "0",
            "type": "t_address"
          },
          {
            "astId": 13311,
            "contract": "contracts/VestingAdapter.sol:VestingAdapter",
            "label": "executeAfter",
            "offset": 0,
            "slot": "1",
            "type": "t_uint256"
          },
          {
            "astId": 13313,
            "contract": "contracts/VestingAdapter.sol:VestingAdapter",
            "label": "exists",
            "offset": 0,
            "slot": "2",
            "type": "t_bool"
          }
        ],
        "numberOfBytes": "96"
      },
      "t_uint256": {
        "encoding": "inplace",
        "label": "uint256",
        "numberOfBytes": "32"
      }
    }
  }
}