{
  "address": "0xC427260f5E2526C81DfD50E2743380994D7a76Ab",
  "abi": [
    {
      "inputs": [],
      "stateMutability": "nonpayable",
      "type": "constructor"
    },
    {
      "inputs": [
        {
          "internalType": "address",
          "name": "owner",
          "type": "address"
        }
      ],
      "name": "OwnableInvalidOwner",
      "type": "error"
    },
    {
      "inputs": [
        {
          "internalType": "address",
          "name": "account",
          "type": "address"
        }
      ],
      "name": "OwnableUnauthorizedAccount",
      "type": "error"
    },
    {
      "anonymous": false,
      "inputs": [
        {
          "indexed": true,
          "internalType": "address",
          "name": "previousOwner",
          "type": "address"
        },
        {
          "indexed": true,
          "internalType": "address",
          "name": "newOwner",
          "type": "address"
        }
      ],
      "name": "OwnershipTransferred",
      "type": "event"
    },
    {
      "inputs": [
        {
          "internalType": "address",
          "name": "",
          "type": "address"
        }
      ],
      "name": "allowedVestingContracts",
      "outputs": [
        {
          "internalType": "bool",
          "name": "",
          "type": "bool"
        }
      ],
      "stateMutability": "view",
      "type": "function"
    },
    {
      "inputs": [
        {
          "internalType": "address",
          "name": "",
          "type": "address"
        }
      ],
      "name": "authorizedCallers",
      "outputs": [
        {
          "internalType": "bool",
          "name": "",
          "type": "bool"
        }
      ],
      "stateMutability": "view",
      "type": "function"
    },
    {
      "inputs": [
        {
          "internalType": "uint256",
          "name": "",
          "type": "uint256"
        }
      ],
      "name": "collaterals",
      "outputs": [
        {
          "internalType": "address",
          "name": "vestingContract",
          "type": "address"
        },
        {
          "internalType": "address",
          "name": "token",
          "type": "address"
        },
        {
          "internalType": "uint256",
          "name": "totalAmount",
          "type": "uint256"
        },
        {
          "internalType": "uint256",
          "name": "unlockTime",
          "type": "uint256"
        }
      ],
      "stateMutability": "view",
      "type": "function"
    },
    {
      "inputs": [
        {
          "internalType": "uint256",
          "name": "collateralId",
          "type": "uint256"
        },
        {
          "internalType": "address",
          "name": "vestingContract",
          "type": "address"
        },
        {
          "internalType": "address",
          "name": "borrower",
          "type": "address"
        }
      ],
      "name": "escrow",
      "outputs": [],
      "stateMutability": "nonpayable",
      "type": "function"
    },
    {
      "inputs": [
        {
          "internalType": "uint256",
          "name": "collateralId",
          "type": "uint256"
        }
      ],
      "name": "getDetails",
      "outputs": [
        {
          "internalType": "uint256",
          "name": "quantity",
          "type": "uint256"
        },
        {
          "internalType": "address",
          "name": "token",
          "type": "address"
        },
        {
          "internalType": "uint256",
          "name": "unlockTime",
          "type": "uint256"
        }
      ],
      "stateMutability": "view",
      "type": "function"
    },
    {
      "inputs": [],
      "name": "loanManager",
      "outputs": [
        {
          "internalType": "address",
          "name": "",
          "type": "address"
        }
      ],
      "stateMutability": "view",
      "type": "function"
    },
    {
      "inputs": [
        {
          "internalType": "address",
          "name": "",
          "type": "address"
        },
        {
          "internalType": "address",
          "name": "",
          "type": "address"
        },
        {
          "internalType": "uint256",
          "name": "",
          "type": "uint256"
        },
        {
          "internalType": "bytes",
          "name": "",
          "type": "bytes"
        }
      ],
      "name": "onERC721Received",
      "outputs": [
        {
          "internalType": "bytes4",
          "name": "",
          "type": "bytes4"
        }
      ],
      "stateMutability": "pure",
      "type": "function"
    },
    {
      "inputs": [],
      "name": "owner",
      "outputs": [
        {
          "internalType": "address",
          "name": "",
          "type": "address"
        }
      ],
      "stateMutability": "view",
      "type": "function"
    },
    {
      "inputs": [
        {
          "internalType": "uint256",
          "name": "collateralId",
          "type": "uint256"
        },
        {
          "internalType": "address",
          "name": "to",
          "type": "address"
        },
        {
          "internalType": "uint256",
          "name": "amount",
          "type": "uint256"
        }
      ],
      "name": "releaseTo",
      "outputs": [],
      "stateMutability": "nonpayable",
      "type": "function"
    },
    {
      "inputs": [],
      "name": "renounceOwnership",
      "outputs": [],
      "stateMutability": "nonpayable",
      "type": "function"
    },
    {
      "inputs": [
        {
          "internalType": "address",
          "name": "vestingContract",
          "type": "address"
        },
        {
          "internalType": "bool",
          "name": "allowed",
          "type": "bool"
        }
      ],
      "name": "setAllowedVestingContract",
      "outputs": [],
      "stateMutability": "nonpayable",
      "type": "function"
    },
    {
      "inputs": [
        {
          "internalType": "address",
          "name": "caller",
          "type": "address"
        },
        {
          "internalType": "bool",
          "name": "allowed",
          "type": "bool"
        }
      ],
      "name": "setAuthorizedCaller",
      "outputs": [],
      "stateMutability": "nonpayable",
      "type": "function"
    },
    {
      "inputs": [
        {
          "internalType": "address",
          "name": "manager",
          "type": "address"
        }
      ],
      "name": "setLoanManager",
      "outputs": [],
      "stateMutability": "nonpayable",
      "type": "function"
    },
    {
      "inputs": [
        {
          "internalType": "bool",
          "name": "use",
          "type": "bool"
        }
      ],
      "name": "setUseWhitelist",
      "outputs": [],
      "stateMutability": "nonpayable",
      "type": "function"
    },
    {
      "inputs": [
        {
          "internalType": "address",
          "name": "newOwner",
          "type": "address"
        }
      ],
      "name": "transferOwnership",
      "outputs": [],
      "stateMutability": "nonpayable",
      "type": "function"
    },
    {
      "inputs": [],
      "name": "useWhitelist",
      "outputs": [
        {
          "internalType": "bool",
          "name": "",
          "type": "bool"
        }
      ],
      "stateMutability": "view",
      "type": "function"
    },
    {
      "inputs": [
        {
          "internalType": "uint256",
          "name": "",
          "type": "uint256"
        }
      ],
      "name": "vestingContracts",
      "outputs": [
        {
          "internalType": "address",
          "name": "",
          "type": "address"
        }
      ],
      "stateMutability": "view",
      "type": "function"
    }
  ],
  "transactionHash": "0xebd8dd0aaac1c802368e4e93e29beb7e628ab28042bb63f90fdf700f061ca2e9",
  "args": [],
  "numDeployments": 4,
  "solcInputHash": "5ad6544d02842e9430e69295831b0693",
  "bytecode": "0x6080806040523461007a5733156100645760008054336001600160a01b03198216811783556040519290916001600160a01b0316907f8be0079c531659141344cd1fd0a4f28419497f9722a3daafe3b4186f6b6457e09080a3610ed190816100808239f35b631e4fbdf760e01b815260006004820152602490fd5b600080fdfe6080604081815260048036101561001557600080fd5b600092833560e01c908163150b7a0214610cd15750806324c1173b14610c7d5780632a7d7bc514610acf5780632b205dc914610a98578063454bbd2914610a0c578063536fff6c146109ce5780635772ae701461095557806358281bf314610924578063715018a6146108c75780638da5cb5b1461089f5780639550c22614610861578063b3ccbcfe14610838578063b93a89f7146106f0578063e00f720814610660578063e630025a14610638578063f2b42e121461016c5763f2fde38b146100de57600080fd5b34610168576020366003190112610168576100f7610d43565b90610100610d7e565b6001600160a01b03918216928315610152575050600054826001600160601b0360a01b821617600055167f8be0079c531659141344cd1fd0a4f28419497f9722a3daafe3b4186f6b6457e0600080a380f35b51631e4fbdf760e01b8152908101849052602490fd5b8280fd5b5090346101685760603660031901126101685781359061018a610d59565b6001600160a01b0393604480358681169592939291908690036103945785156106095785331480156105fc575b80156105e7575b6101c790610daa565b823b156105b45760ff6005541615801561059d575b15610565578188526020926003845287868a2054166105395787169585516338af3eed60e01b8152848187818b5afa908115610403579089918b9161051c575b5016036104e957845163be9a655560e01b815290838286818a5afa9182156104df5789926104b0575b5085516303ed69ad60e21b8152848187818b5afa908115610403578a91610483575b508015610454578201809211610441574282111561040d578551637e062a3560e11b8152848187818b5afa908115610403579089918b916103d6575b501680156103aa578651631e480f7160e21b815291858388818c5afa9283156103a0578b9361036c575b508215610341575090600392918751946102e686610de7565b898652868601918252888601928352606086019384528b5283865289888c20955116996001600160601b0360a01b9a8b875416178655600186019151168a825416179055516002840155519101555283209182541617905580f35b86660746f74616c3d360cc1b606492888b519362461bcd60e51b855284015260076024840152820152fd5b9092508581813d8311610399575b6103848183610e19565b81010312610394575191386102cd565b600080fd5b503d61037a565b88513d8d823e3d90fd5b865162461bcd60e51b815280870186905260076024820152660746f6b656e3d360cc1b81840152606490fd5b6103f69150863d88116103fc575b6103ee8183610e19565b810190610e3b565b386102a3565b503d6103e4565b87513d8c823e3d90fd5b846f185b1c9958591e481d5b9b1bd8dad95960821b6064928689519362461bcd60e51b855284015260106024840152820152fd5b634e487b7160e01b895260118552602489fd5b865162461bcd60e51b8152808701869052600a60248201526906475726174696f6e3d360b41b81840152606490fd5b90508481813d83116104a9575b61049a8183610e19565b81010312610394575138610267565b503d610490565b9091508381813d83116104d8575b6104c88183610e19565b8101031261039457519038610245565b503d6104be565b86513d8b823e3d90fd5b90506e6e6f742062656e656669636961727960881b91606494519362461bcd60e51b8552840152600f6024840152820152fd5b6105339150863d88116103fc576103ee8183610e19565b3861021c565b855162461bcd60e51b815280860185905260076024820152661a59081d5cd95960ca1b81840152606490fd5b83721d995cdd1a5b99c81b9bdd08185b1b1bddd959606a1b606492602088519362461bcd60e51b855284015260136024840152820152fd5b508683168852600660205260ff85892054166101dc565b836d1b9bdd08184818dbdb9d1c9858dd60921b606492602088519362461bcd60e51b8552840152600e6024840152820152fd5b5033885260026020528488205460ff166101be565b50866001541633146101b7565b83690626f72726f7765723d360b41b606492602088519362461bcd60e51b8552840152600a6024840152820152fd5b50503461065c578160031936011261065c5760209060ff6005541690519015158152f35b5080fd5b5082903461065c578260031936011261065c5761067b610d43565b90610684610d6f565b9161068d610d7e565b6001600160a01b03169081156106c157509282936106be9352600660205283209060ff801983541691151516179055565b80f35b606490602086519162461bcd60e51b83528201526009602482015268076657374696e673d360bc1b6044820152fd5b5091903461065c576020908160031936011261016857833583526003825280832092815161071d81610de7565b60018060a01b0390818654169283825282806001890154169287810193845261075e600360028b01549a8984019b8c52015496606083019788521515610e5a565b511696868484511660248b89519b8c938492632614965760e21b84528301525afa97881561082e5782986107ff575b50878151106107cb57519687039687116107b857506060965051169051928251948552840152820152f35b634e487b7160e01b815260118852602490fd5b855162461bcd60e51b8152808a01889052600e60248201526d1c995b19585cd9590f9d1bdd185b60921b6044820152606490fd5b9097508681813d8311610827575b6108178183610e19565b810103126103945751963861078d565b503d61080d565b86513d84823e3d90fd5b50503461065c578160031936011261065c5760015490516001600160a01b039091168152602090f35b50503461065c57602036600319011261065c5760209160ff9082906001600160a01b0361088c610d43565b1681526006855220541690519015158152f35b50503461065c578160031936011261065c57905490516001600160a01b039091168152602090f35b83346109215780600319360112610921576108e0610d7e565b600080546001600160a01b0319811682556001600160a01b03167f8be0079c531659141344cd1fd0a4f28419497f9722a3daafe3b4186f6b6457e08280a380f35b80fd5b503461016857602036600319011261016857803583526020908152918190205490516001600160a01b039091168152f35b50346101685760203660031901126101685761096f610d43565b610977610d7e565b6001600160a01b031691821561099f5750506001600160601b0360a01b600154161760015580f35b906020606492519162461bcd60e51b8352820152600960248201526806d616e616765723d360bc1b6044820152fd5b50503461065c57602036600319011261065c5760209160ff9082906001600160a01b036109f9610d43565b1681526002855220541690519015158152f35b5082903461065c578260031936011261065c57610a27610d43565b90610a30610d6f565b91610a39610d7e565b6001600160a01b0316908115610a6a57509282936106be9352600260205283209060ff801983541691151516179055565b606490602086519162461bcd60e51b83528201526008602482015267063616c6c65723d360c41b6044820152fd5b83823461065c57602036600319011261065c573580151580910361039457610abe610d7e565b60ff80196005541691161760055580f35b50903461016857606036600319011261016857610aea610d59565b9160443560018060a01b038094816001541633148015610c68575b610b0e90610daa565b16938415610c3e57823586526003602052838620845190610b2e82610de7565b610b6160038483541692838552856001820154166020860152600281015489860152015491606084019283521515610e5a565b514210610c0c578215610bde57511693859190853b15610168576044908386519788948593634e06bad160e01b85528885015260248401525af18015610bd457610ba9578380f35b67ffffffffffffffff8311610bc15750523880808380f35b634e487b7160e01b845260419052602483fd5b82513d86823e3d90fd5b845162461bcd60e51b815260208186015260086024820152670616d6f756e743d360c41b6044820152606490fd5b845162461bcd60e51b8152602081860152600c60248201526b1b9bdd081d5b9b1bd8dad95960a21b6044820152606490fd5b835162461bcd60e51b815260208185015260248101849052630746f3d360e41b6044820152606490fd5b5033875260026020528487205460ff16610b05565b50346101685760203660031901126101685760809282913581526003602052209060018060a01b03918281541692600182015416916003600283015492015492815194855260208501528301526060820152f35b9250503461016857608036600319011261016857610ced610d43565b50610cf6610d59565b506064359067ffffffffffffffff90818311610d3f5736602384011215610d3f57820135908111610d3b573691016024011161065c57630a85bd0160e11b8152602090f35b8380fd5b8480fd5b600435906001600160a01b038216820361039457565b602435906001600160a01b038216820361039457565b60243590811515820361039457565b6000546001600160a01b03163303610d9257565b60405163118cdaa760e01b8152336004820152602490fd5b15610db157565b60405162461bcd60e51b815260206004820152600e60248201526d1b9bdd08185d5d1a1bdc9a5e995960921b6044820152606490fd5b6080810190811067ffffffffffffffff821117610e0357604052565b634e487b7160e01b600052604160045260246000fd5b90601f8019910116810190811067ffffffffffffffff821117610e0357604052565b9081602091031261039457516001600160a01b03811681036103945790565b15610e6157565b60405162461bcd60e51b81526020600482015260126024820152711d5b9adb9bdddb8818dbdb1b185d195c985b60721b6044820152606490fdfea26469706673582212200740910feb2131da23dd276297b050a8ff52fdc4df085f589aa63cdf180e3bca64736f6c63430008140033",
  "devdoc": {
    "errors": {
      "OwnableInvalidOwner(address)": [
        {
          "details": "The owner is not a valid owner account. (eg. `address(0)`)"
        }
      ],
      "OwnableUnauthorizedAccount(address)": [
        {
          "details": "The caller account is not authorized to perform an operation."
        }
      ]
    },
    "kind": "dev",
    "methods": {
      "owner()": {
        "details": "Returns the address of the current owner."
      },
      "renounceOwnership()": {
        "details": "Leaves the contract without owner. It will not be possible to call `onlyOwner` functions. Can only be called by the current owner. NOTE: Renouncing ownership will leave the contract without an owner, thereby disabling any functionality that is only available to the owner."
      },
      "transferOwnership(address)": {
        "details": "Transfers ownership of the contract to a new account (`newOwner`). Can only be called by the current owner."
      }
    },
    "version": 1
  },
  "userdoc": {
    "kind": "user",
    "methods": {},
    "version": 1
  },
  "storageLayout": {
    "storage": [
      {
        "astId": 54,
        "contract": "contracts/VestingAdapter.sol:VestingAdapter",
        "label": "_owner",
        "offset": 0,
        "slot": "0",
        "type": "t_address"
      },
      {
        "astId": 12283,
        "contract": "contracts/VestingAdapter.sol:VestingAdapter",
        "label": "loanManager",
        "offset": 0,
        "slot": "1",
        "type": "t_address"
      },
      {
        "astId": 12287,
        "contract": "contracts/VestingAdapter.sol:VestingAdapter",
        "label": "authorizedCallers",
        "offset": 0,
        "slot": "2",
        "type": "t_mapping(t_address,t_bool)"
      },
      {
        "astId": 12292,
        "contract": "contracts/VestingAdapter.sol:VestingAdapter",
        "label": "collaterals",
        "offset": 0,
        "slot": "3",
        "type": "t_mapping(t_uint256,t_struct(Collateral)12281_storage)"
      },
      {
        "astId": 12296,
        "contract": "contracts/VestingAdapter.sol:VestingAdapter",
        "label": "vestingContracts",
        "offset": 0,
        "slot": "4",
        "type": "t_mapping(t_uint256,t_address)"
      },
      {
        "astId": 12298,
        "contract": "contracts/VestingAdapter.sol:VestingAdapter",
        "label": "useWhitelist",
        "offset": 0,
        "slot": "5",
        "type": "t_bool"
      },
      {
        "astId": 12302,
        "contract": "contracts/VestingAdapter.sol:VestingAdapter",
        "label": "allowedVestingContracts",
        "offset": 0,
        "slot": "6",
        "type": "t_mapping(t_address,t_bool)"
      }
    ],
    "types": {
      "t_address": {
        "encoding": "inplace",
        "label": "address",
        "numberOfBytes": "20"
      },
      "t_bool": {
        "encoding": "inplace",
        "label": "bool",
        "numberOfBytes": "1"
      },
      "t_mapping(t_address,t_bool)": {
        "encoding": "mapping",
        "key": "t_address",
        "label": "mapping(address => bool)",
        "numberOfBytes": "32",
        "value": "t_bool"
      },
      "t_mapping(t_uint256,t_address)": {
        "encoding": "mapping",
        "key": "t_uint256",
        "label": "mapping(uint256 => address)",
        "numberOfBytes": "32",
        "value": "t_address"
      },
      "t_mapping(t_uint256,t_struct(Collateral)12281_storage)": {
        "encoding": "mapping",
        "key": "t_uint256",
        "label": "mapping(uint256 => struct VestingAdapter.Collateral)",
        "numberOfBytes": "32",
        "value": "t_struct(Collateral)12281_storage"
      },
      "t_struct(Collateral)12281_storage": {
        "encoding": "inplace",
        "label": "struct VestingAdapter.Collateral",
        "members": [
          {
            "astId": 12274,
            "contract": "contracts/VestingAdapter.sol:VestingAdapter",
            "label": "vestingContract",
            "offset": 0,
            "slot": "0",
            "type": "t_address"
          },
          {
            "astId": 12276,
            "contract": "contracts/VestingAdapter.sol:VestingAdapter",
            "label": "token",
            "offset": 0,
            "slot": "1",
            "type": "t_address"
          },
          {
            "astId": 12278,
            "contract": "contracts/VestingAdapter.sol:VestingAdapter",
            "label": "totalAmount",
            "offset": 0,
            "slot": "2",
            "type": "t_uint256"
          },
          {
            "astId": 12280,
            "contract": "contracts/VestingAdapter.sol:VestingAdapter",
            "label": "unlockTime",
            "offset": 0,
            "slot": "3",
            "type": "t_uint256"
          }
        ],
        "numberOfBytes": "128"
      },
      "t_uint256": {
        "encoding": "inplace",
        "label": "uint256",
        "numberOfBytes": "32"
      }
    }
  }
}