{
  "_format": "hh-sol-artifact-1",
  "contractName": "MockVestingWallet",
  "sourceName": "contracts/mocks/MockVestingWallet.sol",
  "abi": [
    {
      "inputs": [
        {
          "internalType": "address",
          "name": "_beneficiary",
          "type": "address"
        },
        {
          "internalType": "uint256",
          "name": "_start",
          "type": "uint256"
        },
        {
          "internalType": "uint256",
          "name": "_duration",
          "type": "uint256"
        },
        {
          "internalType": "address",
          "name": "_token",
          "type": "address"
        },
        {
          "internalType": "uint256",
          "name": "_totalAllocation",
          "type": "uint256"
        }
      ],
      "stateMutability": "nonpayable",
      "type": "constructor"
    },
    {
      "inputs": [],
      "name": "beneficiary",
      "outputs": [
        {
          "internalType": "address",
          "name": "",
          "type": "address"
        }
      ],
      "stateMutability": "view",
      "type": "function"
    },
    {
      "inputs": [],
      "name": "duration",
      "outputs": [
        {
          "internalType": "uint256",
          "name": "",
          "type": "uint256"
        }
      ],
      "stateMutability": "view",
      "type": "function"
    },
    {
      "inputs": [
        {
          "internalType": "uint256",
          "name": "amount",
          "type": "uint256"
        }
      ],
      "name": "release",
      "outputs": [],
      "stateMutability": "nonpayable",
      "type": "function"
    },
    {
      "inputs": [
        {
          "internalType": "address",
          "name": "to",
          "type": "address"
        },
        {
          "internalType": "uint256",
          "name": "amount",
          "type": "uint256"
        }
      ],
      "name": "releaseTo",
      "outputs": [],
      "stateMutability": "nonpayable",
      "type": "function"
    },
    {
      "inputs": [
        {
          "internalType": "address",
          "name": "",
          "type": "address"
        }
      ],
      "name": "released",
      "outputs": [
        {
          "internalType": "uint256",
          "name": "",
          "type": "uint256"
        }
      ],
      "stateMutability": "view",
      "type": "function"
    },
    {
      "inputs": [
        {
          "internalType": "uint256",
          "name": "amount",
          "type": "uint256"
        }
      ],
      "name": "setReleased",
      "outputs": [],
      "stateMutability": "nonpayable",
      "type": "function"
    },
    {
      "inputs": [],
      "name": "start",
      "outputs": [
        {
          "internalType": "uint256",
          "name": "",
          "type": "uint256"
        }
      ],
      "stateMutability": "view",
      "type": "function"
    },
    {
      "inputs": [],
      "name": "token",
      "outputs": [
        {
          "internalType": "address",
          "name": "",
          "type": "address"
        }
      ],
      "stateMutability": "view",
      "type": "function"
    },
    {
      "inputs": [],
      "name": "totalAllocation",
      "outputs": [
        {
          "internalType": "uint256",
          "name": "",
          "type": "uint256"
        }
      ],
      "stateMutability": "view",
      "type": "function"
    }
  ],
  "bytecode": "0x6080346100a257601f61047438819003918201601f19168301916001600160401b038311848410176100a75780849260a0946040528339810103126100a257610047816100bd565b60208201516040830151926080610060606083016100bd565b9101519360018060a01b03928360018060a01b03199516856000541617600055600155600255169060035416176003556004556040516103a290816100d28239f35b600080fd5b634e487b7160e01b600052604160045260246000fd5b51906001600160a01b03821682036100a25756fe60806040818152600436101561001457600080fd5b600091823560e01c9081630fb5a6b4146101cd5750806337bdc99b146101a357806338af3eed1461017c578063474d896c1461014d5780634e06bad11461012357806379203dc4146101055780639852595c146100ce578063be9a6555146100b05763fc0c546a1461008557600080fd5b346100ac57816003193601126100ac5760035490516001600160a01b039091168152602090f35b5080fd5b50346100ac57816003193601126100ac576020906001549051908152f35b50346100ac5760203660031901126100ac5760209181906001600160a01b036100f56101e9565b1681526005845220549051908152f35b50346100ac57816003193601126100ac576020906004549051908152f35b50346100ac5736600319011261014a5761014761013e6101e9565b60243590610227565b80f35b80fd5b50346100ac5760203660031901126100ac576003546001600160a01b0316825260056020528120600435905580f35b50346100ac57816003193601126100ac57905490516001600160a01b039091168152602090f35b823461014a57602036600319011261014a57805461014790600435906001600160a01b0316610227565b8390346100ac57816003193601126100ac576020906002548152f35b600435906001600160a01b03821682036101ff57565b600080fd5b9190820180921161021157565b634e487b7160e01b600052601160045260246000fd5b6001600160a01b03919082169081156103415761024960015460025490610204565b421061030f57602090604484600354169460009586526005845260408620610272848254610204565b9055600354169385604051958694859363a9059cbb60e01b8552600485015260248401525af18015610304576102a6575050565b60203d81116102fd575b601f8101601f1916820167ffffffffffffffff8111838210176102e9576020918391604052810103126100ac57518015150361014a5750565b634e487b7160e01b84526041600452602484fd5b503d6102b0565b6040513d84823e3d90fd5b60405162461bcd60e51b815260206004820152600a6024820152691b9bdd081d995cdd195960b21b6044820152606490fd5b606460405162461bcd60e51b81526020600482015260046024820152630746f3d360e41b6044820152fdfea2646970667358221220c22f5e460a5a2b8dfc58c8ef90d2b86a735daf4e83bf92b25a9e3d744a99d53b64736f6c63430008140033",
  "linkReferences": {},
  "deployedLinkReferences": {}
}