{"abi":[{"type":"constructor","inputs":[{"name":"_initialGovernor","type":"address","internalType":"address"}],"stateMutability":"nonpayable"},{"type":"function","name":"DEFAULT_ADMIN_ROLE","inputs":[],"outputs":[{"name":"","type":"bytes32","internalType":"bytes32"}],"stateMutability":"view"},{"type":"function","name":"GOVERNOR_ROLE","inputs":[],"outputs":[{"name":"","type":"bytes32","internalType":"bytes32"}],"stateMutability":"view"},{"type":"function","name":"GUARDIAN_ROLE","inputs":[],"outputs":[{"name":"","type":"bytes32","internalType":"bytes32"}],"stateMutability":"view"},{"type":"function","name":"PAUSER_ROLE","inputs":[],"outputs":[{"name":"","type":"bytes32","internalType":"bytes32"}],"stateMutability":"view"},{"type":"function","name":"getRank","inputs":[{"name":"wrapper","type":"address","internalType":"address"}],"outputs":[{"name":"","type":"uint8","internalType":"uint8"}],"stateMutability":"view"},{"type":"function","name":"getRoleAdmin","inputs":[{"name":"role","type":"bytes32","internalType":"bytes32"}],"outputs":[{"name":"","type":"bytes32","internalType":"bytes32"}],"stateMutability":"view"},{"type":"function","name":"grantRole","inputs":[{"name":"role","type":"bytes32","internalType":"bytes32"},{"name":"account","type":"address","internalType":"address"}],"outputs":[],"stateMutability":"nonpayable"},{"type":"function","name":"hasRole","inputs":[{"name":"role","type":"bytes32","internalType":"bytes32"},{"name":"account","type":"address","internalType":"address"}],"outputs":[{"name":"","type":"bool","internalType":"bool"}],"stateMutability":"view"},{"type":"function","name":"isSubmitted","inputs":[{"name":"","type":"address","internalType":"address"}],"outputs":[{"name":"","type":"bool","internalType":"bool"}],"stateMutability":"view"},{"type":"function","name":"ranks","inputs":[{"name":"","type":"address","internalType":"address"}],"outputs":[{"name":"","type":"uint8","internalType":"uint8"}],"stateMutability":"view"},{"type":"function","name":"renounceRole","inputs":[{"name":"role","type":"bytes32","internalType":"bytes32"},{"name":"callerConfirmation","type":"address","internalType":"address"}],"outputs":[],"stateMutability":"nonpayable"},{"type":"function","name":"revokeRole","inputs":[{"name":"role","type":"bytes32","internalType":"bytes32"},{"name":"account","type":"address","internalType":"address"}],"outputs":[],"stateMutability":"nonpayable"},{"type":"function","name":"setVerifiedBytecode","inputs":[{"name":"bytecodeHash","type":"bytes32","internalType":"bytes32"},{"name":"status","type":"bool","internalType":"bool"}],"outputs":[],"stateMutability":"nonpayable"},{"type":"function","name":"submitContract","inputs":[{"name":"wrapper","type":"address","internalType":"address"}],"outputs":[],"stateMutability":"nonpayable"},{"type":"function","name":"supportsInterface","inputs":[{"name":"interfaceId","type":"bytes4","internalType":"bytes4"}],"outputs":[{"name":"","type":"bool","internalType":"bool"}],"stateMutability":"view"},{"type":"function","name":"verifiedBytecodeHashes","inputs":[{"name":"","type":"bytes32","internalType":"bytes32"}],"outputs":[{"name":"","type":"bool","internalType":"bool"}],"stateMutability":"view"},{"type":"function","name":"vetContract","inputs":[{"name":"wrapper","type":"address","internalType":"address"},{"name":"rank","type":"uint8","internalType":"uint8"}],"outputs":[],"stateMutability":"nonpayable"},{"type":"event","name":"BytecodeHashVerified","inputs":[{"name":"bytecodeHash","type":"bytes32","indexed":true,"internalType":"bytes32"},{"name":"status","type":"bool","indexed":false,"internalType":"bool"}],"anonymous":false},{"type":"event","name":"ContractRanked","inputs":[{"name":"wrapper","type":"address","indexed":true,"internalType":"address"},{"name":"rank","type":"uint8","indexed":false,"internalType":"uint8"}],"anonymous":false},{"type":"event","name":"ContractSubmitted","inputs":[{"name":"wrapper","type":"address","indexed":true,"internalType":"address"},{"name":"submitter","type":"address","indexed":true,"internalType":"address"}],"anonymous":false},{"type":"event","name":"GovernanceInitialised","inputs":[{"name":"governor","type":"address","indexed":false,"internalType":"address"}],"anonymous":false},{"type":"event","name":"RoleAdminChanged","inputs":[{"name":"role","type":"bytes32","indexed":true,"internalType":"bytes32"},{"name":"previousAdminRole","type":"bytes32","indexed":true,"internalType":"bytes32"},{"name":"newAdminRole","type":"bytes32","indexed":true,"internalType":"bytes32"}],"anonymous":false},{"type":"event","name":"RoleGranted","inputs":[{"name":"role","type":"bytes32","indexed":true,"internalType":"bytes32"},{"name":"account","type":"address","indexed":true,"internalType":"address"},{"name":"sender","type":"address","indexed":true,"internalType":"address"}],"anonymous":false},{"type":"event","name":"RoleRevoked","inputs":[{"name":"role","type":"bytes32","indexed":true,"internalType":"bytes32"},{"name":"account","type":"address","indexed":true,"internalType":"address"},{"name":"sender","type":"address","indexed":true,"internalType":"address"}],"anonymous":false},{"type":"error","name":"AccessControlBadConfirmation","inputs":[]},{"type":"error","name":"AccessControlUnauthorizedAccount","inputs":[{"name":"account","type":"address","internalType":"address"},{"name":"neededRole","type":"bytes32","internalType":"bytes32"}]}],"bytecode":{"object":"0x60803461016757601f610c3a38819003918201601f19168301916001600160401b0383118484101761016b5780849260209460405283398101031261016757516001600160a01b03811690818103610167577f9789733827840833afc031fb2ef9ab6894271f77bad2085687cf4ae5c7bee4db916100888261008260209461017f565b506101f5565b505f516020610c1a5f395f51905f525f525f82525f516020610bba5f395f51905f52600160405f2001545f516020610c1a5f395f51905f525f525f845281600160405f2001555f516020610c1a5f395f51905f525f516020610b7a5f395f51905f525f80a45f516020610bda5f395f51905f525f525f82525f516020610bba5f395f51905f52600160405f2001545f516020610bda5f395f51905f525f525f845281600160405f2001555f516020610bda5f395f51905f525f516020610b7a5f395f51905f525f80a4604051908152a16040516108e490816102768239f35b5f80fd5b634e487b7160e01b5f52604160045260245ffd5b6001600160a01b0381165f9081525f516020610bfa5f395f51905f52602052604090205460ff166101f0576001600160a01b03165f8181525f516020610bfa5f395f51905f5260205260408120805460ff191660011790553391905f516020610b5a5f395f51905f528180a4600190565b505f90565b6001600160a01b0381165f9081525f516020610b9a5f395f51905f52602052604090205460ff166101f0576001600160a01b03165f8181525f516020610b9a5f395f51905f5260205260408120805460ff191660011790553391905f516020610bba5f395f51905f52905f516020610b5a5f395f51905f529080a460019056fe6080806040526004361015610012575f80fd5b5f3560e01c90816301ffc9a71461067257508063248a9ca31461064057806324ea54f41461060657806325691de4146104a85780632f2ff15d146105c957806330a1d5b81461052757806336568abe146104e3578063548c0ef4146104a857806358e2916d1461046b57806379ef25c11461037657806391d148541461032e578063a217fddf14610314578063c5a42fee146101c2578063ccc5749014610188578063d547741f14610144578063e63ab1e91461010a5763e7fc312d146100d7575f80fd5b34610106576020366003190112610106576004355f526003602052602060ff60405f2054166040519015158152f35b5f80fd5b34610106575f3660031901126101065760206040517f65d7a28e3265b37a6474929f336521b332c1681b933f6cb9f3376673440d862a8152f35b34610106576040366003190112610106576101866004356101636106db565b9061018161017c825f525f602052600160405f20015490565b61076e565b61082e565b005b34610106575f3660031901126101065760206040517f7935bd0ae54bc31f548c14dba4d37c5c64b3f8ca900cb468fb8abd54d5894f558152f35b34610106576020366003190112610106576101db6106c5565b6001600160a01b038116906101f1821515610736565b803b156102de57815f52600260205260ff60405f2054166102a5573f5f52600360205260ff60405f2054161561026057805f52600260205260405f20600160ff1982541617905533907f3b20347235f7bd8157ef2264455b5fd091c310bd03bc60b4352b09d2f58b34685f80a3005b60405162461bcd60e51b815260206004820152601860248201527f756e76657269666965642062797465636f6465206861736800000000000000006044820152606490fd5b60405162461bcd60e51b8152602060048201526011602482015270185b1c9958591e481cdd589b5a5d1d1959607a1b6044820152606490fd5b60405162461bcd60e51b815260206004820152600e60248201526d1b9bdd08184818dbdb9d1c9858dd60921b6044820152606490fd5b34610106575f3660031901126101065760206040515f8152f35b34610106576040366003190112610106576103476106db565b6004355f525f60205260405f209060018060a01b03165f52602052602060ff60405f2054166040519015158152f35b346101065760403660031901126101065761038f6106c5565b6024359060ff821680920361010657335f9081527f6f3b488caa0dc03e5f3d9fd6a25fa8755afcfd62ccffb6e436c696bfa6b866de60205260409020546103d89060ff166106f1565b6001600160a01b0316906103ed821515610736565b600381116104375760207f20b78909e8906aed82617537f1ed9ef1d3e64c2e2fc6836be59272af687ffdc591835f526001825260405f208160ff19825416179055604051908152a2005b60405162461bcd60e51b815260206004820152600c60248201526b696e76616c69642072616e6b60a01b6044820152606490fd5b34610106576020366003190112610106576001600160a01b0361048c6106c5565b165f526002602052602060ff60405f2054166040519015158152f35b34610106576020366003190112610106576001600160a01b036104c96106c5565b165f526001602052602060ff60405f205416604051908152f35b34610106576040366003190112610106576104fc6106db565b336001600160a01b03821603610518576101869060043561082e565b63334bd91960e11b5f5260045ffd5b346101065760403660031901126101065760043560243580151580910361010657335f9081527f6f3b488caa0dc03e5f3d9fd6a25fa8755afcfd62ccffb6e436c696bfa6b866de60209081526040909120547f5342f54afb81e11e4928da6710030ddc31de31bfe7f4f36f07749e796213234292906105a89060ff166106f1565b835f526003825260405f2060ff1981541660ff8316179055604051908152a2005b34610106576040366003190112610106576101866004356105e86106db565b9061060161017c825f525f602052600160405f20015490565b6107a6565b34610106575f3660031901126101065760206040517f55435dd261a4b9b3364963f7738a7a662ad9c84396d64be3365284bb7f0a50418152f35b3461010657602036600319011261010657602061066a6004355f525f602052600160405f20015490565b604051908152f35b34610106576020366003190112610106576004359063ffffffff60e01b821680920361010657602091637965db0b60e01b81149081156106b4575b5015158152f35b6301ffc9a760e01b149050836106ad565b600435906001600160a01b038216820361010657565b602435906001600160a01b038216820361010657565b156106f857565b60405162461bcd60e51b815260206004820152601660248201527521b0b63632b91034b9903737ba1033b7bb32b93737b960511b6044820152606490fd5b1561073d57565b60405162461bcd60e51b81526020600482015260096024820152680777261707065723d360bc1b6044820152606490fd5b5f8181526020818152604080832033845290915290205460ff16156107905750565b63e2517d3f60e01b5f523360045260245260445ffd5b5f818152602081815260408083206001600160a01b038616845290915290205460ff16610828575f818152602081815260408083206001600160a01b0395909516808452949091528120805460ff19166001179055339291907f2f8788117e7eff1d82e926ec794901d17c78024a50270940304540a733656f0d9080a4600190565b50505f90565b5f818152602081815260408083206001600160a01b038616845290915290205460ff1615610828575f818152602081815260408083206001600160a01b0395909516808452949091528120805460ff19169055339291907ff6391f5c32d9c69d2a47ea670b442974b53935d1edc7fd64eb21e047a839171b9080a460019056fea2646970667358221220d960f9287a421a75004eed7abd12c010a1af5d99beb8a90389d7616f249e700e64736f6c634300082100332f8788117e7eff1d82e926ec794901d17c78024a50270940304540a733656f0dbd79b86ffe0ab8e8776151514217cd7cacd52c909f66475c3af44e129f0b00ff6f3b488caa0dc03e5f3d9fd6a25fa8755afcfd62ccffb6e436c696bfa6b866de7935bd0ae54bc31f548c14dba4d37c5c64b3f8ca900cb468fb8abd54d5894f5565d7a28e3265b37a6474929f336521b332c1681b933f6cb9f3376673440d862aad3228b676f7d3cd4284a5443f17f1962b36e491b30a40b2405849e597ba5fb555435dd261a4b9b3364963f7738a7a662ad9c84396d64be3365284bb7f0a5041","linkReferences":{}},"methodIdentifiers":{"DEFAULT_ADMIN_ROLE()":"a217fddf","GOVERNOR_ROLE()":"ccc57490","GUARDIAN_ROLE()":"24ea54f4","PAUSER_ROLE()":"e63ab1e9","getRank(address)":"548c0ef4","getRoleAdmin(bytes32)":"248a9ca3","grantRole(bytes32,address)":"2f2ff15d","hasRole(bytes32,address)":"91d14854","isSubmitted(address)":"58e2916d","ranks(address)":"25691de4","renounceRole(bytes32,address)":"36568abe","revokeRole(bytes32,address)":"d547741f","setVerifiedBytecode(bytes32,bool)":"30a1d5b8","submitContract(address)":"c5a42fee","supportsInterface(bytes4)":"01ffc9a7","verifiedBytecodeHashes(bytes32)":"e7fc312d","vetContract(address,uint8)":"79ef25c1"},"id":53}