{"abi":[{"type":"constructor","inputs":[{"name":"initialGovernor","type":"address","internalType":"address"}],"stateMutability":"nonpayable"},{"type":"function","name":"DEFAULT_ADMIN_ROLE","inputs":[],"outputs":[{"name":"","type":"bytes32","internalType":"bytes32"}],"stateMutability":"view"},{"type":"function","name":"GOVERNOR_ROLE","inputs":[],"outputs":[{"name":"","type":"bytes32","internalType":"bytes32"}],"stateMutability":"view"},{"type":"function","name":"GUARDIAN_ROLE","inputs":[],"outputs":[{"name":"","type":"bytes32","internalType":"bytes32"}],"stateMutability":"view"},{"type":"function","name":"PAUSER_ROLE","inputs":[],"outputs":[{"name":"","type":"bytes32","internalType":"bytes32"}],"stateMutability":"view"},{"type":"function","name":"getRoleAdmin","inputs":[{"name":"role","type":"bytes32","internalType":"bytes32"}],"outputs":[{"name":"","type":"bytes32","internalType":"bytes32"}],"stateMutability":"view"},{"type":"function","name":"grantRole","inputs":[{"name":"role","type":"bytes32","internalType":"bytes32"},{"name":"account","type":"address","internalType":"address"}],"outputs":[],"stateMutability":"nonpayable"},{"type":"function","name":"hasRole","inputs":[{"name":"role","type":"bytes32","internalType":"bytes32"},{"name":"account","type":"address","internalType":"address"}],"outputs":[{"name":"","type":"bool","internalType":"bool"}],"stateMutability":"view"},{"type":"function","name":"renounceRole","inputs":[{"name":"role","type":"bytes32","internalType":"bytes32"},{"name":"callerConfirmation","type":"address","internalType":"address"}],"outputs":[],"stateMutability":"nonpayable"},{"type":"function","name":"revokeRole","inputs":[{"name":"role","type":"bytes32","internalType":"bytes32"},{"name":"account","type":"address","internalType":"address"}],"outputs":[],"stateMutability":"nonpayable"},{"type":"function","name":"supportsInterface","inputs":[{"name":"interfaceId","type":"bytes4","internalType":"bytes4"}],"outputs":[{"name":"","type":"bool","internalType":"bool"}],"stateMutability":"view"},{"type":"event","name":"GovernanceInitialised","inputs":[{"name":"governor","type":"address","indexed":false,"internalType":"address"}],"anonymous":false},{"type":"event","name":"RoleAdminChanged","inputs":[{"name":"role","type":"bytes32","indexed":true,"internalType":"bytes32"},{"name":"previousAdminRole","type":"bytes32","indexed":true,"internalType":"bytes32"},{"name":"newAdminRole","type":"bytes32","indexed":true,"internalType":"bytes32"}],"anonymous":false},{"type":"event","name":"RoleGranted","inputs":[{"name":"role","type":"bytes32","indexed":true,"internalType":"bytes32"},{"name":"account","type":"address","indexed":true,"internalType":"address"},{"name":"sender","type":"address","indexed":true,"internalType":"address"}],"anonymous":false},{"type":"event","name":"RoleRevoked","inputs":[{"name":"role","type":"bytes32","indexed":true,"internalType":"bytes32"},{"name":"account","type":"address","indexed":true,"internalType":"address"},{"name":"sender","type":"address","indexed":true,"internalType":"address"}],"anonymous":false},{"type":"error","name":"AccessControlBadConfirmation","inputs":[]},{"type":"error","name":"AccessControlUnauthorizedAccount","inputs":[{"name":"account","type":"address","internalType":"address"},{"name":"neededRole","type":"bytes32","internalType":"bytes32"}]}],"bytecode":{"object":"0x60803461016757601f6107a338819003918201601f19168301916001600160401b0383118484101761016b5780849260209460405283398101031261016757516001600160a01b03811690818103610167577f9789733827840833afc031fb2ef9ab6894271f77bad2085687cf4ae5c7bee4db916100888261008260209461017f565b506101f5565b505f5160206107835f395f51905f525f525f82525f5160206107235f395f51905f52600160405f2001545f5160206107835f395f51905f525f525f845281600160405f2001555f5160206107835f395f51905f525f5160206106e35f395f51905f525f80a45f5160206107435f395f51905f525f525f82525f5160206107235f395f51905f52600160405f2001545f5160206107435f395f51905f525f525f845281600160405f2001555f5160206107435f395f51905f525f5160206106e35f395f51905f525f80a4604051908152a160405161044d90816102768239f35b5f80fd5b634e487b7160e01b5f52604160045260245ffd5b6001600160a01b0381165f9081525f5160206107635f395f51905f52602052604090205460ff166101f0576001600160a01b03165f8181525f5160206107635f395f51905f5260205260408120805460ff191660011790553391905f5160206106c35f395f51905f528180a4600190565b505f90565b6001600160a01b0381165f9081525f5160206107035f395f51905f52602052604090205460ff166101f0576001600160a01b03165f8181525f5160206107035f395f51905f5260205260408120805460ff191660011790553391905f5160206107235f395f51905f52905f5160206106c35f395f51905f529080a460019056fe6080806040526004361015610012575f80fd5b5f3560e01c90816301ffc9a71461025e57508063248a9ca31461022c57806324ea54f4146101f25780632f2ff15d146101c357806336568abe1461018d57806391d1485414610152578063a217fddf14610138578063ccc57490146100fe578063d547741f146100c85763e63ab1e91461008a575f80fd5b346100c4575f3660031901126100c45760206040517f65d7a28e3265b37a6474929f336521b332c1681b933f6cb9f3376673440d862a8152f35b5f80fd5b346100c4576100fc6100d9366102b1565b906100f76100f2825f525f602052600160405f20015490565b6102d7565b610397565b005b346100c4575f3660031901126100c45760206040517f7935bd0ae54bc31f548c14dba4d37c5c64b3f8ca900cb468fb8abd54d5894f558152f35b346100c4575f3660031901126100c45760206040515f8152f35b346100c457610160366102b1565b905f525f60205260405f209060018060a01b03165f52602052602060ff60405f2054166040519015158152f35b346100c45761019b366102b1565b336001600160a01b038216036101b4576100fc91610397565b63334bd91960e11b5f5260045ffd5b346100c4576100fc6101d4366102b1565b906101ed6100f2825f525f602052600160405f20015490565b61030f565b346100c4575f3660031901126100c45760206040517f55435dd261a4b9b3364963f7738a7a662ad9c84396d64be3365284bb7f0a50418152f35b346100c45760203660031901126100c45760206102566004355f525f602052600160405f20015490565b604051908152f35b346100c45760203660031901126100c4576004359063ffffffff60e01b82168092036100c457602091637965db0b60e01b81149081156102a0575b5015158152f35b6301ffc9a760e01b14905083610299565b60409060031901126100c457600435906024356001600160a01b03811681036100c45790565b5f8181526020818152604080832033845290915290205460ff16156102f95750565b63e2517d3f60e01b5f523360045260245260445ffd5b5f818152602081815260408083206001600160a01b038616845290915290205460ff16610391575f818152602081815260408083206001600160a01b0395909516808452949091528120805460ff19166001179055339291907f2f8788117e7eff1d82e926ec794901d17c78024a50270940304540a733656f0d9080a4600190565b50505f90565b5f818152602081815260408083206001600160a01b038616845290915290205460ff1615610391575f818152602081815260408083206001600160a01b0395909516808452949091528120805460ff19169055339291907ff6391f5c32d9c69d2a47ea670b442974b53935d1edc7fd64eb21e047a839171b9080a460019056fea26469706673582212206c124741b5cc611374e99bd406d3ff4d6d647363b0a4d132c682cebd51a3c22a64736f6c634300082100332f8788117e7eff1d82e926ec794901d17c78024a50270940304540a733656f0dbd79b86ffe0ab8e8776151514217cd7cacd52c909f66475c3af44e129f0b00ff6f3b488caa0dc03e5f3d9fd6a25fa8755afcfd62ccffb6e436c696bfa6b866de7935bd0ae54bc31f548c14dba4d37c5c64b3f8ca900cb468fb8abd54d5894f5565d7a28e3265b37a6474929f336521b332c1681b933f6cb9f3376673440d862aad3228b676f7d3cd4284a5443f17f1962b36e491b30a40b2405849e597ba5fb555435dd261a4b9b3364963f7738a7a662ad9c84396d64be3365284bb7f0a5041","linkReferences":{}},"methodIdentifiers":{"DEFAULT_ADMIN_ROLE()":"a217fddf","GOVERNOR_ROLE()":"ccc57490","GUARDIAN_ROLE()":"24ea54f4","PAUSER_ROLE()":"e63ab1e9","getRoleAdmin(bytes32)":"248a9ca3","grantRole(bytes32,address)":"2f2ff15d","hasRole(bytes32,address)":"91d14854","renounceRole(bytes32,address)":"36568abe","revokeRole(bytes32,address)":"d547741f","supportsInterface(bytes4)":"01ffc9a7"},"id":55}