{"abi":[{"type":"constructor","inputs":[],"stateMutability":"nonpayable"},{"type":"function","name":"DEFAULT_ADMIN_ROLE","inputs":[],"outputs":[{"name":"","type":"bytes32","internalType":"bytes32"}],"stateMutability":"view"},{"type":"function","name":"LOAN_MANAGER_ROLE","inputs":[],"outputs":[{"name":"","type":"bytes32","internalType":"bytes32"}],"stateMutability":"view"},{"type":"function","name":"approve","inputs":[{"name":"to","type":"address","internalType":"address"},{"name":"tokenId","type":"uint256","internalType":"uint256"}],"outputs":[],"stateMutability":"nonpayable"},{"type":"function","name":"balanceOf","inputs":[{"name":"owner","type":"address","internalType":"address"}],"outputs":[{"name":"","type":"uint256","internalType":"uint256"}],"stateMutability":"view"},{"type":"function","name":"burn","inputs":[{"name":"tokenId","type":"uint256","internalType":"uint256"},{"name":"repaid","type":"bool","internalType":"bool"}],"outputs":[],"stateMutability":"nonpayable"},{"type":"function","name":"getApproved","inputs":[{"name":"tokenId","type":"uint256","internalType":"uint256"}],"outputs":[{"name":"","type":"address","internalType":"address"}],"stateMutability":"view"},{"type":"function","name":"getRoleAdmin","inputs":[{"name":"role","type":"bytes32","internalType":"bytes32"}],"outputs":[{"name":"","type":"bytes32","internalType":"bytes32"}],"stateMutability":"view"},{"type":"function","name":"grantLoanManager","inputs":[{"name":"lm","type":"address","internalType":"address"}],"outputs":[],"stateMutability":"nonpayable"},{"type":"function","name":"grantRole","inputs":[{"name":"role","type":"bytes32","internalType":"bytes32"},{"name":"account","type":"address","internalType":"address"}],"outputs":[],"stateMutability":"nonpayable"},{"type":"function","name":"hasRole","inputs":[{"name":"role","type":"bytes32","internalType":"bytes32"},{"name":"account","type":"address","internalType":"address"}],"outputs":[{"name":"","type":"bool","internalType":"bool"}],"stateMutability":"view"},{"type":"function","name":"isApprovedForAll","inputs":[{"name":"owner","type":"address","internalType":"address"},{"name":"operator","type":"address","internalType":"address"}],"outputs":[{"name":"","type":"bool","internalType":"bool"}],"stateMutability":"view"},{"type":"function","name":"loanData","inputs":[{"name":"","type":"uint256","internalType":"uint256"}],"outputs":[{"name":"collateralToken","type":"address","internalType":"address"},{"name":"streamId","type":"uint256","internalType":"uint256"},{"name":"borrowedUsdc","type":"uint256","internalType":"uint256"},{"name":"dpvAtOrigination","type":"uint256","internalType":"uint256"},{"name":"interestRateBps","type":"uint256","internalType":"uint256"},{"name":"originatedAt","type":"uint256","internalType":"uint256"},{"name":"dueAt","type":"uint256","internalType":"uint256"},{"name":"vcsTier","type":"uint256","internalType":"uint256"},{"name":"settled","type":"bool","internalType":"bool"}],"stateMutability":"view"},{"type":"function","name":"mint","inputs":[{"name":"to","type":"address","internalType":"address"},{"name":"metadata","type":"tuple","internalType":"struct VestraWrapperNFT.LoanMetadata","components":[{"name":"collateralToken","type":"address","internalType":"address"},{"name":"streamId","type":"uint256","internalType":"uint256"},{"name":"borrowedUsdc","type":"uint256","internalType":"uint256"},{"name":"dpvAtOrigination","type":"uint256","internalType":"uint256"},{"name":"interestRateBps","type":"uint256","internalType":"uint256"},{"name":"originatedAt","type":"uint256","internalType":"uint256"},{"name":"dueAt","type":"uint256","internalType":"uint256"},{"name":"vcsTier","type":"uint256","internalType":"uint256"},{"name":"settled","type":"bool","internalType":"bool"}]}],"outputs":[{"name":"tokenId","type":"uint256","internalType":"uint256"}],"stateMutability":"nonpayable"},{"type":"function","name":"name","inputs":[],"outputs":[{"name":"","type":"string","internalType":"string"}],"stateMutability":"view"},{"type":"function","name":"ownerOf","inputs":[{"name":"tokenId","type":"uint256","internalType":"uint256"}],"outputs":[{"name":"","type":"address","internalType":"address"}],"stateMutability":"view"},{"type":"function","name":"renounceRole","inputs":[{"name":"role","type":"bytes32","internalType":"bytes32"},{"name":"callerConfirmation","type":"address","internalType":"address"}],"outputs":[],"stateMutability":"nonpayable"},{"type":"function","name":"revokeRole","inputs":[{"name":"role","type":"bytes32","internalType":"bytes32"},{"name":"account","type":"address","internalType":"address"}],"outputs":[],"stateMutability":"nonpayable"},{"type":"function","name":"safeTransferFrom","inputs":[{"name":"from","type":"address","internalType":"address"},{"name":"to","type":"address","internalType":"address"},{"name":"tokenId","type":"uint256","internalType":"uint256"}],"outputs":[],"stateMutability":"nonpayable"},{"type":"function","name":"safeTransferFrom","inputs":[{"name":"from","type":"address","internalType":"address"},{"name":"to","type":"address","internalType":"address"},{"name":"tokenId","type":"uint256","internalType":"uint256"},{"name":"data","type":"bytes","internalType":"bytes"}],"outputs":[],"stateMutability":"nonpayable"},{"type":"function","name":"setApprovalForAll","inputs":[{"name":"operator","type":"address","internalType":"address"},{"name":"approved","type":"bool","internalType":"bool"}],"outputs":[],"stateMutability":"nonpayable"},{"type":"function","name":"supportsInterface","inputs":[{"name":"id","type":"bytes4","internalType":"bytes4"}],"outputs":[{"name":"","type":"bool","internalType":"bool"}],"stateMutability":"view"},{"type":"function","name":"symbol","inputs":[],"outputs":[{"name":"","type":"string","internalType":"string"}],"stateMutability":"view"},{"type":"function","name":"tokenURI","inputs":[{"name":"tokenId","type":"uint256","internalType":"uint256"}],"outputs":[{"name":"","type":"string","internalType":"string"}],"stateMutability":"view"},{"type":"function","name":"totalMinted","inputs":[],"outputs":[{"name":"","type":"uint256","internalType":"uint256"}],"stateMutability":"view"},{"type":"function","name":"transferFrom","inputs":[{"name":"from","type":"address","internalType":"address"},{"name":"to","type":"address","internalType":"address"},{"name":"tokenId","type":"uint256","internalType":"uint256"}],"outputs":[],"stateMutability":"nonpayable"},{"type":"event","name":"Approval","inputs":[{"name":"owner","type":"address","indexed":true,"internalType":"address"},{"name":"approved","type":"address","indexed":true,"internalType":"address"},{"name":"tokenId","type":"uint256","indexed":true,"internalType":"uint256"}],"anonymous":false},{"type":"event","name":"ApprovalForAll","inputs":[{"name":"owner","type":"address","indexed":true,"internalType":"address"},{"name":"operator","type":"address","indexed":true,"internalType":"address"},{"name":"approved","type":"bool","indexed":false,"internalType":"bool"}],"anonymous":false},{"type":"event","name":"LoanNFTBurned","inputs":[{"name":"tokenId","type":"uint256","indexed":true,"internalType":"uint256"},{"name":"repaid","type":"bool","indexed":false,"internalType":"bool"}],"anonymous":false},{"type":"event","name":"LoanNFTMinted","inputs":[{"name":"tokenId","type":"uint256","indexed":true,"internalType":"uint256"},{"name":"borrower","type":"address","indexed":true,"internalType":"address"},{"name":"streamId","type":"uint256","indexed":false,"internalType":"uint256"},{"name":"borrowedUsdc","type":"uint256","indexed":false,"internalType":"uint256"}],"anonymous":false},{"type":"event","name":"RoleAdminChanged","inputs":[{"name":"role","type":"bytes32","indexed":true,"internalType":"bytes32"},{"name":"previousAdminRole","type":"bytes32","indexed":true,"internalType":"bytes32"},{"name":"newAdminRole","type":"bytes32","indexed":true,"internalType":"bytes32"}],"anonymous":false},{"type":"event","name":"RoleGranted","inputs":[{"name":"role","type":"bytes32","indexed":true,"internalType":"bytes32"},{"name":"account","type":"address","indexed":true,"internalType":"address"},{"name":"sender","type":"address","indexed":true,"internalType":"address"}],"anonymous":false},{"type":"event","name":"RoleRevoked","inputs":[{"name":"role","type":"bytes32","indexed":true,"internalType":"bytes32"},{"name":"account","type":"address","indexed":true,"internalType":"address"},{"name":"sender","type":"address","indexed":true,"internalType":"address"}],"anonymous":false},{"type":"event","name":"Transfer","inputs":[{"name":"from","type":"address","indexed":true,"internalType":"address"},{"name":"to","type":"address","indexed":true,"internalType":"address"},{"name":"tokenId","type":"uint256","indexed":true,"internalType":"uint256"}],"anonymous":false},{"type":"error","name":"AccessControlBadConfirmation","inputs":[]},{"type":"error","name":"AccessControlUnauthorizedAccount","inputs":[{"name":"account","type":"address","internalType":"address"},{"name":"neededRole","type":"bytes32","internalType":"bytes32"}]},{"type":"error","name":"ERC721IncorrectOwner","inputs":[{"name":"sender","type":"address","internalType":"address"},{"name":"tokenId","type":"uint256","internalType":"uint256"},{"name":"owner","type":"address","internalType":"address"}]},{"type":"error","name":"ERC721InsufficientApproval","inputs":[{"name":"operator","type":"address","internalType":"address"},{"name":"tokenId","type":"uint256","internalType":"uint256"}]},{"type":"error","name":"ERC721InvalidApprover","inputs":[{"name":"approver","type":"address","internalType":"address"}]},{"type":"error","name":"ERC721InvalidOperator","inputs":[{"name":"operator","type":"address","internalType":"address"}]},{"type":"error","name":"ERC721InvalidOwner","inputs":[{"name":"owner","type":"address","internalType":"address"}]},{"type":"error","name":"ERC721InvalidReceiver","inputs":[{"name":"receiver","type":"address","internalType":"address"}]},{"type":"error","name":"ERC721InvalidSender","inputs":[{"name":"sender","type":"address","internalType":"address"}]},{"type":"error","name":"ERC721NonexistentToken","inputs":[{"name":"tokenId","type":"uint256","internalType":"uint256"}]}],"bytecode":{"object":"0x60806040523461034357604080519081016001600160401b0381118282101761024e576040908152601482527f566573747261204c6f616e20506f736974696f6e000000000000000000000000602083015280519081016001600160401b0381118282101761024e5760405260058152643b2627a0a760d91b602082015281516001600160401b03811161024e575f54600181811c91168015610339575b602082101461023057601f81116102cc575b50602092601f821160011461026d57928192935f92610262575b50508160011b915f199060031b1c1916175f555b80516001600160401b03811161024e57600154600181811c91168015610244575b602082101461023057601f81116101c2575b50602091601f8211600114610162579181925f92610157575b50508160011b915f199060031b1c1916176001555b61014733610347565b506040516119c090816103d18239f35b015190505f80610129565b601f1982169260015f52805f20915f5b8581106101aa57508360019510610192575b505050811b0160015561013e565b01515f1960f88460031b161c191690555f8080610184565b91926020600181928685015181550194019201610172565b818111156101105760015f52601f820160051c7fb10e2d527612073b26eecdfd717e6a320cf44b4afac2b0732d9fcbe2b7fa0cf660208410610228575b81601f9101920160051c03905f5b82811061021b575050610110565b5f8282015560010161020d565b5f91506101ff565b634e487b7160e01b5f52602260045260245ffd5b90607f16906100fe565b634e487b7160e01b5f52604160045260245ffd5b015190505f806100c9565b601f198216935f8052805f20915f5b8681106102b4575083600195961061029c575b505050811b015f556100dd565b01515f1960f88460031b161c191690555f808061028f565b9192602060018192868501518155019401920161027c565b818111156100af575f8052601f820160051c7f290decd9548b62a8d60345a988386fc84ba6bc95484008f6362f93160ef3e56360208410610331575b81601f9101920160051c03905f5b8281106103245750506100af565b5f82820155600101610316565b5f9150610308565b90607f169061009d565b5f80fd5b6001600160a01b0381165f9081525f516020611d915f395f51905f52602052604090205460ff166103cb576001600160a01b03165f8181525f516020611d915f395f51905f5260205260408120805460ff191660011790553391907f2f8788117e7eff1d82e926ec794901d17c78024a50270940304540a733656f0d8180a4600190565b505f9056fe6080806040526004361015610012575f80fd5b5f3560e01c90816301ffc9a71461113f5750806306fdde0314611087578063081812fc1461104b578063095ea7b314610f61578063224bb0b914610ed257806323b872dd14610ebb578063248a9ca314610e885780632f2ff15d14610e4a57806336568abe14610e0657806338e6026d14610d9757806342842e0e14610d68578063525b9fde14610d2e5780636352211e14610cfe57806370a0823114610cad57806375b0afe61461096c57806391d148541461092357806395d89b411461081b5780639fac68cb14610703578063a217fddf146106e9578063a22cb46514610648578063a2309ff81461062b578063b88d4fde14610598578063c87b56dd146101cf578063d547741f1461018a5763e985e9c51461012f575f80fd5b34610186576040366003190112610186576101486111e8565b6101506111fe565b9060018060a01b03165f52600560205260405f209060018060a01b03165f52602052602060ff60405f2054166040519015158152f35b5f80fd5b34610186576040366003190112610186576101cd6004356101a96111fe565b906101c86101c3825f526006602052600160405f20015490565b6114df565b611676565b005b34610186576020366003190112610186576004355f818152600260205260409020546001600160a01b03161561055357805f52600860205261021460405f209161181d565b90610227620f424060028301540461181d565b610234600183015461181d565b91610242600482015461181d565b9060ff6008610254600684015461181d565b920154161561052d5760405161026b60408261125d565b60048152637472756560e01b6020820152915b6040519485946020860197757b226e616d65223a22566573747261204c6f616e202360501b895280516020819201603689015e7f222c226465736372697074696f6e223a224163746976652056657374726120506036918801918201527f726f746f636f6c206c6f616e20706f736974696f6e2e222c000000000000000060568201526d2261747472696275746573223a5b60901b606e8201527f7b2274726169745f74797065223a22426f72726f7765642055534443222c2276607c8201526630b63ab2911d1160c91b609c820152815191829060200160a383015e0160360162089f4b60ea1b606d820152607081017f7b2274726169745f74797065223a2253747265616d204944222c2276616c7565905262111d1160e91b609082015281516020819301609383015e01606d0162089f4b60ea1b6026820152602981017f7b2274726169745f74797065223a22496e74657265737420526174652042505390526a1116113b30b63ab2911d1160a91b604982015281516020819301605483015e0160260162089f4b60ea1b602e820152603181017f7b2274726169745f74797065223a22447565204174222c2276616c7565223a22905281516020819301605183015e01602e0162089f4b60ea1b6023820152602681017f7b2274726169745f74797065223a22536574746c6564222c2276616c7565223a9052601160f91b604682015281516020819301604783015e61227d60f01b91016047810191909152615d7d60f01b604982015203602b810182526104c090604b018261125d565b604051918291602083017f646174613a6170706c69636174696f6e2f6a736f6e3b757466382c00000000009052518091603b84015e8101603b81015f905203603b01601f1981018252610513908261125d565b60405180916020825260208201610529916111c4565b0390f35b60405161053b60408261125d565b600581526466616c736560d81b60208201529161027e565b60405162461bcd60e51b815260206004820152601960248201527f5665737472613a206e6f6e6578697374656e7420746f6b656e000000000000006044820152606490fd5b34610186576080366003190112610186576105b16111e8565b6105b96111fe565b906044356064359267ffffffffffffffff84116101865736602385011215610186578360040135926105ea84611293565b936105f8604051958661125d565b8085523660248288010111610186576020815f9260246101cd990183890137860101526106268383836112af565b6116fa565b34610186575f366003190112610186576020600754604051908152f35b34610186576040366003190112610186576106616111e8565b61066961124e565b6001600160a01b039091169081156106d657335f52600560205260405f20825f526020526106a68160405f209060ff801983541691151516179055565b60405190151581527f17307eab39ab6107e8899845ad3d59bd9653f200f220920489ca2b5937696c3160203392a3005b50630b61174360e31b5f5260045260245ffd5b34610186575f3660031901126101865760206040515f8152f35b346101865760403660031901126101865760043561071f61124e565b610727611470565b5f828152600860208181526040808420909201805460ff19166001179055600290529020546001600160a01b031680159081156107e8575b5f84815260026020526040812080546001600160a01b03191690558490827fddf252ad1be2c89b69c2b068fc378daa952ba7f163c4a11628f55a4df523b3ef8280a4506107d55760207fc73775b95c26d2862f46831319c668687ad56510d321f2e7df4705ac08bac485916040519015158152a2005b50637e27328960e01b5f5260045260245ffd5b5f84815260046020526040902080546001600160a01b0319169055805f52600360205260405f205f19815401905561075f565b34610186575f366003190112610186576040515f6001548060011c90600181168015610919575b602083108114610905578285529081156108e15750600114610883575b6105298361086f8185038261125d565b6040519182916020835260208301906111c4565b91905060015f527fb10e2d527612073b26eecdfd717e6a320cf44b4afac2b0732d9fcbe2b7fa0cf6915f905b8082106108c75750909150810160200161086f61085f565b9192600181602092548385880101520191019092916108af565b60ff191660208086019190915291151560051b8401909101915061086f905061085f565b634e487b7160e01b5f52602260045260245ffd5b91607f1691610842565b346101865760403660031901126101865761093c6111fe565b6004355f52600660205260405f209060018060a01b03165f52602052602060ff60405f2054166040519015158152f35b3461018657610140366003190112610186576109866111e8565b6101203660231901126101865761099b611470565b6007545f198114610c9957600101806007556020906040516109bd838261125d565b5f81526001600160a01b038416938415610c86575f8381526002855260409020546001600160a01b03168015159081610c55575b865f526003865260405f2060018154019055845f526002865260405f20876bffffffffffffffffffffffff60a01b8254161790558487827fddf252ad1be2c89b69c2b068fc378daa952ba7f163c4a11628f55a4df523b3ef5f80a450610c42573b610b33575b505f8181526008835260409020919290916024356001600160a01b03811681036101865781546001600160a01b0319166001600160a01b03919091161781556044356001820181905560643560028301819055608435600384015560a435600484015560c435600584015560e4356006840155610104356007840155919061012435908115158203610186578593610b2160409360087f142390c039b8e2ac5c91426a39c738dad2a108a93adb0955cf18690676a3f34a96019060ff801983541691151516179055565b825191825287820152a3604051908152f35b82610b6c9160405180938192630a85bd0160e11b83523360048401525f60248401528660448401526080606484015260848301906111c4565b03815f885af15f9181610c02575b50610bcd5750503d15610bc6573d610b9181611293565b90610b9f604051928361125d565b81523d5f8383013e5b80519182610bc35783633250574960e11b5f5260045260245ffd5b01fd5b6060610ba8565b919290916001600160e01b03191663757a42ff60e11b01610bf057919083610a57565b633250574960e11b5f5260045260245ffd5b9091508381813d8311610c3b575b610c1a818361125d565b8101031261018657516001600160e01b031981168103610186579085610b7a565b503d610c10565b6339e3563760e11b5f525f60045260245ffd5b5f8581526004602052604080822080546001600160a01b031916905582825260038852902080545f190190556109f1565b633250574960e11b5f525f60045260245ffd5b634e487b7160e01b5f52601160045260245ffd5b34610186576020366003190112610186576001600160a01b03610cce6111e8565b168015610ceb575f526003602052602060405f2054604051908152f35b6322718ad960e21b5f525f60045260245ffd5b34610186576020366003190112610186576020610d1c60043561143c565b6040516001600160a01b039091168152f35b34610186575f3660031901126101865760206040517fa03a3445a42c88c4c71fab3b69391367d1386136663ed015f42f4322182d45478152f35b34610186576101cd610d7936611214565b9060405192610d8960208561125d565b5f84526106268383836112af565b3461018657602036600319011261018657610db06111e8565b335f9081527f54cdd369e4e8a8515e52ca72ec816c2101831ad1f18bf44102ed171459c9b4f8602052604090205460ff1615610def576101cd90611519565b63e2517d3f60e01b5f52336004525f60245260445ffd5b3461018657604036600319011261018657610e1f6111fe565b336001600160a01b03821603610e3b576101cd90600435611676565b63334bd91960e11b5f5260045ffd5b34610186576040366003190112610186576101cd600435610e696111fe565b90610e836101c3825f526006602052600160405f20015490565b6115ea565b34610186576020366003190112610186576020610eb36004355f526006602052600160405f20015490565b604051908152f35b34610186576101cd610ecc36611214565b916112af565b34610186576020366003190112610186576004355f52600860205261012060405f2060018060a01b038154169060018101549060028101546003820154600483015460058401549160068501549360ff600860078801549701541696604051988952602089015260408801526060870152608086015260a085015260c084015260e08301521515610100820152f35b3461018657604036600319011261018657610f7a6111e8565b602435610f868161143c565b33151580611038575b8061100b575b610ff85781906001600160a01b0384811691167f8c5be1e5ebec7d5bd14f71427d1e84f3dd0314c0f7b2291e5b200ac8c7c3b9255f80a45f90815260046020526040902080546001600160a01b0319166001600160a01b03909216919091179055005b63a9fbf51f60e01b5f523360045260245ffd5b506001600160a01b0381165f90815260056020908152604080832033845290915290205460ff1615610f95565b506001600160a01b038116331415610f8f565b34610186576020366003190112610186576004356110688161143c565b505f526004602052602060018060a01b0360405f205416604051908152f35b34610186575f366003190112610186576040515f5f548060011c90600181168015611135575b602083108114610905578285529081156108e157506001146110d9576105298361086f8185038261125d565b5f8080527f290decd9548b62a8d60345a988386fc84ba6bc95484008f6362f93160ef3e563939250905b80821061111b5750909150810160200161086f61085f565b919260018160209254838588010152019101909291611103565b91607f16916110ad565b34610186576020366003190112610186576004359063ffffffff60e01b821680920361018657602091637965db0b60e01b8114908115611181575b5015158152f35b6380ac58cd60e01b8114915081156111b3575b81156111a2575b508361117a565b6301ffc9a760e01b1490508361119b565b635b5e139f60e01b81149150611194565b805180835260209291819084018484015e5f828201840152601f01601f1916010190565b600435906001600160a01b038216820361018657565b602435906001600160a01b038216820361018657565b6060906003190112610186576004356001600160a01b038116810361018657906024356001600160a01b0381168103610186579060443590565b60243590811515820361018657565b90601f8019910116810190811067ffffffffffffffff82111761127f57604052565b634e487b7160e01b5f52604160045260245ffd5b67ffffffffffffffff811161127f57601f01601f191660200190565b6001600160a01b0390911691908215610c86575f828152600260205260409020546001600160a01b0316928290331515806113a7575b5084611374575b805f52600360205260405f2060018154019055815f52600260205260405f20816bffffffffffffffffffffffff60a01b825416179055847fddf252ad1be2c89b69c2b068fc378daa952ba7f163c4a11628f55a4df523b3ef5f80a46001600160a01b031680830361135c57505050565b6364283d7b60e01b5f5260045260245260445260645ffd5b5f82815260046020526040902080546001600160a01b0319169055845f52600360205260405f205f1981540190556112ec565b909150806113eb575b156113bd5782905f6112e5565b82846113d557637e27328960e01b5f5260045260245ffd5b63177e802f60e01b5f523360045260245260445ffd5b50338414801561141a575b806113b057505f838152600460205260409020546001600160a01b031633146113b0565b505f84815260056020908152604080832033845290915290205460ff166113f6565b5f818152600260205260409020546001600160a01b031690811561145e575090565b637e27328960e01b5f5260045260245ffd5b335f9081527f6f8db0ca46fbf927d6e76f7e643ebd06f7f57c87d8ad31502792672ac64b8f44602052604090205460ff16156114a857565b63e2517d3f60e01b5f52336004527fa03a3445a42c88c4c71fab3b69391367d1386136663ed015f42f4322182d454760245260445ffd5b5f81815260066020908152604080832033845290915290205460ff16156115035750565b63e2517d3f60e01b5f523360045260245260445ffd5b6001600160a01b0381165f9081527f6f8db0ca46fbf927d6e76f7e643ebd06f7f57c87d8ad31502792672ac64b8f44602052604090205460ff166115e5576001600160a01b03165f8181527f6f8db0ca46fbf927d6e76f7e643ebd06f7f57c87d8ad31502792672ac64b8f4460205260408120805460ff191660011790553391907fa03a3445a42c88c4c71fab3b69391367d1386136663ed015f42f4322182d4547907f2f8788117e7eff1d82e926ec794901d17c78024a50270940304540a733656f0d9080a4600190565b505f90565b5f8181526006602090815260408083206001600160a01b038616845290915290205460ff16611670575f8181526006602090815260408083206001600160a01b0395909516808452949091528120805460ff19166001179055339291907f2f8788117e7eff1d82e926ec794901d17c78024a50270940304540a733656f0d9080a4600190565b50505f90565b5f8181526006602090815260408083206001600160a01b038616845290915290205460ff1615611670575f8181526006602090815260408083206001600160a01b0395909516808452949091528120805460ff19169055339291907ff6391f5c32d9c69d2a47ea670b442974b53935d1edc7fd64eb21e047a839171b9080a4600190565b9291813b611709575b50505050565b604051630a85bd0160e11b81523360048201526001600160a01b03948516602482015260448101919091526080606482015292169190602090829081906117549060848301906111c4565b03815f865af15f91816117d8575b506117b757503d156117b0573d61177881611293565b90611786604051928361125d565b81523d5f602083013e5b805190816117ab5782633250574960e11b5f5260045260245ffd5b602001fd5b6060611790565b6001600160e01b03191663757a42ff60e11b01610bf057505f808080611703565b9091506020813d602011611815575b816117f46020938361125d565b8101031261018657516001600160e01b03198116810361018657905f611762565b3d91506117e7565b805f9172184f03e93ff9f4daa797ed6e38ed64bf6a1f0160401b821015611967575b806d04ee2d6d415b85acef8100000000600a92101561194c575b662386f26fc10000811015611938575b6305f5e100811015611927575b612710811015611918575b606481101561190a575b10156118ff575b600a602160018401936118a485611293565b946118b2604051968761125d565b8086526118c1601f1991611293565b013660208701378401015b5f1901916f181899199a1a9b1b9c1cb0b131b232b360811b8282061a83530480156118fa57600a90916118cc565b505090565b600190910190611892565b60646002910493019261188b565b61271060049104930192611881565b6305f5e10060089104930192611876565b662386f26fc1000060109104930192611869565b6d04ee2d6d415b85acef810000000060209104930192611859565b506040915072184f03e93ff9f4daa797ed6e38ed64bf6a1f0160401b810461183f56fea2646970667358221220ece6a3068e4d32d8f56583271147ab257e3506c559dedcca09c4b1b49e9bac2b64736f6c6343000821003354cdd369e4e8a8515e52ca72ec816c2101831ad1f18bf44102ed171459c9b4f8","linkReferences":{}},"methodIdentifiers":{"DEFAULT_ADMIN_ROLE()":"a217fddf","LOAN_MANAGER_ROLE()":"525b9fde","approve(address,uint256)":"095ea7b3","balanceOf(address)":"70a08231","burn(uint256,bool)":"9fac68cb","getApproved(uint256)":"081812fc","getRoleAdmin(bytes32)":"248a9ca3","grantLoanManager(address)":"38e6026d","grantRole(bytes32,address)":"2f2ff15d","hasRole(bytes32,address)":"91d14854","isApprovedForAll(address,address)":"e985e9c5","loanData(uint256)":"224bb0b9","mint(address,(address,uint256,uint256,uint256,uint256,uint256,uint256,uint256,bool))":"75b0afe6","name()":"06fdde03","ownerOf(uint256)":"6352211e","renounceRole(bytes32,address)":"36568abe","revokeRole(bytes32,address)":"d547741f","safeTransferFrom(address,address,uint256)":"42842e0e","safeTransferFrom(address,address,uint256,bytes)":"b88d4fde","setApprovalForAll(address,bool)":"a22cb465","supportsInterface(bytes4)":"01ffc9a7","symbol()":"95d89b41","tokenURI(uint256)":"c87b56dd","totalMinted()":"a2309ff8","transferFrom(address,address,uint256)":"23b872dd"},"id":54}