{"abi":[{"type":"constructor","inputs":[],"stateMutability":"nonpayable"},{"type":"function","name":"DEFAULT_ADMIN_ROLE","inputs":[],"outputs":[{"name":"","type":"bytes32","internalType":"bytes32"}],"stateMutability":"view"},{"type":"function","name":"STREAM_CREATOR_ROLE","inputs":[],"outputs":[{"name":"","type":"bytes32","internalType":"bytes32"}],"stateMutability":"view"},{"type":"function","name":"cancel","inputs":[{"name":"streamId","type":"uint256","internalType":"uint256"}],"outputs":[],"stateMutability":"nonpayable"},{"type":"function","name":"createStream","inputs":[{"name":"recipient","type":"address","internalType":"address"},{"name":"token","type":"address","internalType":"address"},{"name":"totalAmount","type":"uint256","internalType":"uint256"},{"name":"startTime","type":"uint256","internalType":"uint256"},{"name":"endTime","type":"uint256","internalType":"uint256"}],"outputs":[{"name":"streamId","type":"uint256","internalType":"uint256"}],"stateMutability":"nonpayable"},{"type":"function","name":"getRoleAdmin","inputs":[{"name":"role","type":"bytes32","internalType":"bytes32"}],"outputs":[{"name":"","type":"bytes32","internalType":"bytes32"}],"stateMutability":"view"},{"type":"function","name":"getStream","inputs":[{"name":"streamId","type":"uint256","internalType":"uint256"}],"outputs":[{"name":"sender","type":"address","internalType":"address"},{"name":"recipient","type":"address","internalType":"address"},{"name":"token","type":"address","internalType":"address"},{"name":"totalAmount","type":"uint256","internalType":"uint256"},{"name":"startTime","type":"uint256","internalType":"uint256"},{"name":"endTime","type":"uint256","internalType":"uint256"},{"name":"withdrawnAmount","type":"uint256","internalType":"uint256"},{"name":"cancelled","type":"bool","internalType":"bool"}],"stateMutability":"view"},{"type":"function","name":"grantRole","inputs":[{"name":"role","type":"bytes32","internalType":"bytes32"},{"name":"account","type":"address","internalType":"address"}],"outputs":[],"stateMutability":"nonpayable"},{"type":"function","name":"hasRole","inputs":[{"name":"role","type":"bytes32","internalType":"bytes32"},{"name":"account","type":"address","internalType":"address"}],"outputs":[{"name":"","type":"bool","internalType":"bool"}],"stateMutability":"view"},{"type":"function","name":"nextStreamId","inputs":[],"outputs":[{"name":"","type":"uint256","internalType":"uint256"}],"stateMutability":"view"},{"type":"function","name":"operators","inputs":[{"name":"","type":"uint256","internalType":"uint256"},{"name":"","type":"address","internalType":"address"}],"outputs":[{"name":"","type":"bool","internalType":"bool"}],"stateMutability":"view"},{"type":"function","name":"renounceRole","inputs":[{"name":"role","type":"bytes32","internalType":"bytes32"},{"name":"callerConfirmation","type":"address","internalType":"address"}],"outputs":[],"stateMutability":"nonpayable"},{"type":"function","name":"revokeRole","inputs":[{"name":"role","type":"bytes32","internalType":"bytes32"},{"name":"account","type":"address","internalType":"address"}],"outputs":[],"stateMutability":"nonpayable"},{"type":"function","name":"setOperator","inputs":[{"name":"streamId","type":"uint256","internalType":"uint256"},{"name":"operator","type":"address","internalType":"address"},{"name":"approved","type":"bool","internalType":"bool"}],"outputs":[],"stateMutability":"nonpayable"},{"type":"function","name":"streams","inputs":[{"name":"","type":"uint256","internalType":"uint256"}],"outputs":[{"name":"sender","type":"address","internalType":"address"},{"name":"recipient","type":"address","internalType":"address"},{"name":"token","type":"address","internalType":"address"},{"name":"totalAmount","type":"uint256","internalType":"uint256"},{"name":"startTime","type":"uint256","internalType":"uint256"},{"name":"endTime","type":"uint256","internalType":"uint256"},{"name":"withdrawnAmount","type":"uint256","internalType":"uint256"},{"name":"cancelled","type":"bool","internalType":"bool"}],"stateMutability":"view"},{"type":"function","name":"supportsInterface","inputs":[{"name":"interfaceId","type":"bytes4","internalType":"bytes4"}],"outputs":[{"name":"","type":"bool","internalType":"bool"}],"stateMutability":"view"},{"type":"function","name":"unvestedAmountOf","inputs":[{"name":"streamId","type":"uint256","internalType":"uint256"}],"outputs":[{"name":"unvested","type":"uint256","internalType":"uint256"}],"stateMutability":"view"},{"type":"function","name":"vestedAmountOf","inputs":[{"name":"streamId","type":"uint256","internalType":"uint256"}],"outputs":[{"name":"vestedAmount","type":"uint256","internalType":"uint256"}],"stateMutability":"view"},{"type":"function","name":"withdraw","inputs":[{"name":"streamId","type":"uint256","internalType":"uint256"}],"outputs":[],"stateMutability":"nonpayable"},{"type":"event","name":"Cancelled","inputs":[{"name":"streamId","type":"uint256","indexed":true,"internalType":"uint256"},{"name":"returnedToSender","type":"uint256","indexed":false,"internalType":"uint256"}],"anonymous":false},{"type":"event","name":"OperatorApproved","inputs":[{"name":"streamId","type":"uint256","indexed":true,"internalType":"uint256"},{"name":"operator","type":"address","indexed":true,"internalType":"address"},{"name":"approved","type":"bool","indexed":false,"internalType":"bool"}],"anonymous":false},{"type":"event","name":"RoleAdminChanged","inputs":[{"name":"role","type":"bytes32","indexed":true,"internalType":"bytes32"},{"name":"previousAdminRole","type":"bytes32","indexed":true,"internalType":"bytes32"},{"name":"newAdminRole","type":"bytes32","indexed":true,"internalType":"bytes32"}],"anonymous":false},{"type":"event","name":"RoleGranted","inputs":[{"name":"role","type":"bytes32","indexed":true,"internalType":"bytes32"},{"name":"account","type":"address","indexed":true,"internalType":"address"},{"name":"sender","type":"address","indexed":true,"internalType":"address"}],"anonymous":false},{"type":"event","name":"RoleRevoked","inputs":[{"name":"role","type":"bytes32","indexed":true,"internalType":"bytes32"},{"name":"account","type":"address","indexed":true,"internalType":"address"},{"name":"sender","type":"address","indexed":true,"internalType":"address"}],"anonymous":false},{"type":"event","name":"StreamCreated","inputs":[{"name":"streamId","type":"uint256","indexed":true,"internalType":"uint256"},{"name":"sender","type":"address","indexed":true,"internalType":"address"},{"name":"recipient","type":"address","indexed":true,"internalType":"address"},{"name":"token","type":"address","indexed":false,"internalType":"address"},{"name":"totalAmount","type":"uint256","indexed":false,"internalType":"uint256"},{"name":"startTime","type":"uint256","indexed":false,"internalType":"uint256"},{"name":"endTime","type":"uint256","indexed":false,"internalType":"uint256"}],"anonymous":false},{"type":"event","name":"Withdrawn","inputs":[{"name":"streamId","type":"uint256","indexed":true,"internalType":"uint256"},{"name":"recipient","type":"address","indexed":true,"internalType":"address"},{"name":"amount","type":"uint256","indexed":false,"internalType":"uint256"}],"anonymous":false},{"type":"error","name":"AccessControlBadConfirmation","inputs":[]},{"type":"error","name":"AccessControlUnauthorizedAccount","inputs":[{"name":"account","type":"address","internalType":"address"},{"name":"neededRole","type":"bytes32","internalType":"bytes32"}]},{"type":"error","name":"AddressEmptyCode","inputs":[{"name":"target","type":"address","internalType":"address"}]},{"type":"error","name":"AddressInsufficientBalance","inputs":[{"name":"account","type":"address","internalType":"address"}]},{"type":"error","name":"FailedInnerCall","inputs":[]},{"type":"error","name":"ReentrancyGuardReentrantCall","inputs":[]},{"type":"error","name":"SafeERC20FailedOperation","inputs":[{"name":"token","type":"address","internalType":"address"}]}],"bytecode":{"object":"0x6080604052346100355760018055600160025561001b33610039565b50610025336100af565b5060405161100390816101438239f35b5f80fd5b6001600160a01b0381165f9081525f5160206111865f395f51905f52602052604090205460ff166100aa576001600160a01b03165f8181525f5160206111865f395f51905f5260205260408120805460ff191660011790553391905f5160206111465f395f51905f528180a4600190565b505f90565b6001600160a01b0381165f9081525f5160206111665f395f51905f52602052604090205460ff166100aa576001600160a01b03165f8181525f5160206111665f395f51905f5260205260408120805460ff191660011790553391907f7c13860890c2f722c5c465c3f2c35bdf3dd04b3770c0f78b25afd464692e8a41905f5160206111465f395f51905f529080a460019056fe6080806040526004361015610012575f80fd5b5f3560e01c90816301ffc9a714610b285750806306eb2dd3146107b157806316d4b2ed146106c05780631e99d569146106a3578063248a9ca3146106795780632c8b9e5a1461063f5780632e1a7d4d146104735780632f2ff15d1461043657806336568abe146103f25780633b0e4d34146103a957806340e58ee51461026d5780634744a6e71461024f57806364d60d91146101b2578063894e9a0d146101b257806391d148541461016a578063a217fddf14610150578063d547741f1461010c5763d793fb2a146100e2575f80fd5b34610108576020366003190112610108576020610100600435610c9e565b604051908152f35b5f80fd5b346101085760403660031901126101085761014e60043561012b610b7b565b90610149610144825f525f602052600160405f20015490565b610d20565b610e3c565b005b34610108575f3660031901126101085760206040515f8152f35b3461010857604036600319011261010857610183610b7b565b6004355f525f60205260405f209060018060a01b03165f52602052602060ff60405f2054166040519015158152f35b3461010857602036600319011261010857600480355f9081526003602081815260409283902080546001820154600283015494830154968301546005840154600685015460079095015488516001600160a01b0395861681529385169684019690965292909516958101959095526060850195909552608084019290925260a083019390935260c082015260ff909116151560e082015261010090f35b34610108576020366003190112610108576020610100600435610bf1565b3461010857602036600319011261010857600435610289610d58565b5f81815260036020526040902080546001600160a01b03163381900361036f576007820180549260ff841661032a577fa761582a460180d55522f9f5fdc076390a1f48a7a62a8afbd45c1bb797948edb936020936001936102e988610c9e565b94859360ff191617905581610309575b505050604051908152a260018055005b60029092015461032292906001600160a01b0316610d78565b8481816102f9565b60405162461bcd60e51b815260206004820152601960248201527f5665737472613a20616c72656164792063616e63656c6c6564000000000000006044820152606490fd5b60405162461bcd60e51b81526020600482015260126024820152712b32b9ba39309d103737ba1039b2b73232b960711b6044820152606490fd5b34610108576040366003190112610108576103c2610b7b565b6004355f52600460205260405f209060018060a01b03165f52602052602060ff60405f2054166040519015158152f35b346101085760403660031901126101085761040b610b7b565b336001600160a01b038216036104275761014e90600435610e3c565b63334bd91960e11b5f5260045ffd5b346101085760403660031901126101085761014e600435610455610b7b565b9061046e610144825f525f602052600160405f20015490565b610dba565b346101085760203660031901126101085760043561048f610d58565b805f52600360205260405f2090600182019160018060a01b0383541690813314801561061d575b156105df5760ff60078201541661059a576104d083610bf1565b938415610555576006820180549086820180921161054157556002909101547fcf7d23a3cbe4e8b36ff82fd1b05b1b17373dc7804b4ebbd6e2356716ef20237292602092916105299187916001600160a01b0316610d78565b546040519485526001600160a01b031693a360018055005b634e487b7160e01b5f52601160045260245ffd5b60405162461bcd60e51b815260206004820152601b60248201527f5665737472613a206e6f7468696e6720746f20776974686472617700000000006044820152606490fd5b60405162461bcd60e51b815260206004820152601860248201527f5665737472613a2073747265616d2063616e63656c6c656400000000000000006044820152606490fd5b60405162461bcd60e51b815260206004820152601660248201527515995cdd1c984e881b9bdd08185d5d1a1bdc9a5cd95960521b6044820152606490fd5b505f83815260046020908152604080832033845290915290205460ff166104b6565b34610108575f3660031901126101085760206040517f7c13860890c2f722c5c465c3f2c35bdf3dd04b3770c0f78b25afd464692e8a418152f35b346101085760203660031901126101085760206101006004355f525f602052600160405f20015490565b34610108575f366003190112610108576020600254604051908152f35b34610108576060366003190112610108576004356106dc610b7b565b906044359182151592838103610108575f838152600360205260409020600101546001600160a01b03163303610774577fc6781b1a6a4632f560084983248b487381decef7bffb8b0705a6109281c3fffd91610761602092855f526004845260405f2060018060a01b0384165f52845260405f209060ff801983541691151516179055565b6040519485526001600160a01b031693a3005b60405162461bcd60e51b815260206004820152601560248201527415995cdd1c984e881b9bdd081c9958da5c1a595b9d605a1b6044820152606490fd5b346101085760a0366003190112610108576004356001600160a01b03811690819003610108576107df610b7b565b335f9081527ff9415b57342eb794f224f46b32e56547cd8fcb82734d1457f49aa276571fa100602052604090205460443592606435929091608435919060ff1615610af1578215610ab3576001600160a01b0316908115610a79578415610a3e57838111156109f957600254935f198514610541576001850160025560405195610100870187811067ffffffffffffffff8211176109e55760209761096a916040523381526007888a83018981526040840189815260608501878152608086019089825260a08701928b845260c08801945f865260e08901965f88525f5260206003905260405f209860018060a01b039060018060a01b03905116166001600160601b0360a01b8a541617895560018060a01b03905116600189019060018060a01b03166001600160601b0360a01b82541617905560018060a01b03905116600288019060018060a01b03166001600160601b0360a01b82541617905551600387015551600486015551600585015551600684015551151591019060ff801983541691151516179055565b6109a36040516323b872dd60e01b898201523360248201523060448201528260648201526064815261099d608482610b91565b85610ebc565b6040519384528684015260408301526060820152827ea9034955474f85362d002c0f44ae19ded8500f3bcd141d665ffd0dd8cac2e260803393a4604051908152f35b634e487b7160e01b5f52604160045260245ffd5b60405162461bcd60e51b815260206004820152601860248201527f5665737472613a20696e76616c6964206475726174696f6e00000000000000006044820152606490fd5b60405162461bcd60e51b815260206004820152601360248201527215995cdd1c984e881e995c9bc8185b5bdd5b9d606a1b6044820152606490fd5b60405162461bcd60e51b81526020600482015260126024820152712b32b9ba39309d103d32b937903a37b5b2b760711b6044820152606490fd5b60405162461bcd60e51b815260206004820152601660248201527515995cdd1c984e881e995c9bc81c9958da5c1a595b9d60521b6044820152606490fd5b63e2517d3f60e01b5f52336004527f7c13860890c2f722c5c465c3f2c35bdf3dd04b3770c0f78b25afd464692e8a4160245260445ffd5b34610108576020366003190112610108576004359063ffffffff60e01b821680920361010857602091637965db0b60e01b8114908115610b6a575b5015158152f35b6301ffc9a760e01b14905083610b63565b602435906001600160a01b038216820361010857565b90601f8019910116810190811067ffffffffffffffff8211176109e557604052565b9190820391821161054157565b8181029291811591840414171561054157565b8115610bdd570490565b634e487b7160e01b5f52601260045260245ffd5b5f52600360205260405f2060ff6007820154168015610c90575b610c8b576006610c546005830154804210155f14610c7157610c4f610c44610c37600487015484610bb3565b925b600487015490610bb3565b916003860154610bc0565b610bd3565b91015480821115610c6b57610c6891610bb3565b90565b50505f90565b610c4f610c44610c85600487015442610bb3565b92610c39565b505f90565b506004810154421115610c0b565b5f52600360205260405f2060ff600782015416610c8b57600581015490610cf390428311610d0457610c4f6003610ce9610cdc600485015487610bb3565b955b600485015490610bb3565b9201549384610bc0565b80821115610c6b57610c6891610bb3565b610c4f6003610ce9610d1a600485015442610bb3565b95610cde565b5f8181526020818152604080832033845290915290205460ff1615610d425750565b63e2517d3f60e01b5f523360045260245260445ffd5b600260015414610d69576002600155565b633ee5aeb560e01b5f5260045ffd5b60405163a9059cbb60e01b60208201526001600160a01b039092166024830152604480830193909352918152610db891610db3606483610b91565b610ebc565b565b5f818152602081815260408083206001600160a01b038616845290915290205460ff16610c6b575f818152602081815260408083206001600160a01b0395909516808452949091528120805460ff19166001179055339291907f2f8788117e7eff1d82e926ec794901d17c78024a50270940304540a733656f0d9080a4600190565b5f818152602081815260408083206001600160a01b038616845290915290205460ff1615610c6b575f818152602081815260408083206001600160a01b0395909516808452949091528120805460ff19169055339291907ff6391f5c32d9c69d2a47ea670b442974b53935d1edc7fd64eb21e047a839171b9080a4600190565b81516001600160a01b03909116915f91829160200182855af13d15610f63573d67ffffffffffffffff81116109e557610f179160405191610f076020601f19601f8401160184610b91565b82523d5f602084013e5b83610f6f565b8051908115159182610f3f575b5050610f2d5750565b635274afe760e01b5f5260045260245ffd5b81925090602091810103126101085760200151801590811503610108575f80610f24565b610f1790606090610f11565b90610f935750805115610f8457805190602001fd5b630a12f52160e11b5f5260045ffd5b81511580610fc4575b610fa4575090565b639996b31560e01b5f9081526001600160a01b0391909116600452602490fd5b50803b15610f9c56fea26469706673582212206486da7a7c79c98da8321e5588472e9167ba572c8149050d4e515ce1f1f6b71564736f6c634300082100332f8788117e7eff1d82e926ec794901d17c78024a50270940304540a733656f0df9415b57342eb794f224f46b32e56547cd8fcb82734d1457f49aa276571fa100ad3228b676f7d3cd4284a5443f17f1962b36e491b30a40b2405849e597ba5fb5","linkReferences":{}},"methodIdentifiers":{"DEFAULT_ADMIN_ROLE()":"a217fddf","STREAM_CREATOR_ROLE()":"2c8b9e5a","cancel(uint256)":"40e58ee5","createStream(address,address,uint256,uint256,uint256)":"06eb2dd3","getRoleAdmin(bytes32)":"248a9ca3","getStream(uint256)":"894e9a0d","grantRole(bytes32,address)":"2f2ff15d","hasRole(bytes32,address)":"91d14854","nextStreamId()":"1e99d569","operators(uint256,address)":"3b0e4d34","renounceRole(bytes32,address)":"36568abe","revokeRole(bytes32,address)":"d547741f","setOperator(uint256,address,bool)":"16d4b2ed","streams(uint256)":"64d60d91","supportsInterface(bytes4)":"01ffc9a7","unvestedAmountOf(uint256)":"d793fb2a","vestedAmountOf(uint256)":"4744a6e7","withdraw(uint256)":"2e1a7d4d"},"id":44}