{"abi":[{"type":"constructor","inputs":[{"name":"initialPrice","type":"int256","internalType":"int256"},{"name":"decimals_","type":"uint8","internalType":"uint8"}],"stateMutability":"nonpayable"},{"type":"function","name":"decimals","inputs":[],"outputs":[{"name":"","type":"uint8","internalType":"uint8"}],"stateMutability":"view"},{"type":"function","name":"description","inputs":[],"outputs":[{"name":"","type":"string","internalType":"string"}],"stateMutability":"pure"},{"type":"function","name":"getRoundData","inputs":[{"name":"_roundId","type":"uint80","internalType":"uint80"}],"outputs":[{"name":"roundId","type":"uint80","internalType":"uint80"},{"name":"answer","type":"int256","internalType":"int256"},{"name":"startedAt","type":"uint256","internalType":"uint256"},{"name":"updatedAt","type":"uint256","internalType":"uint256"},{"name":"answeredInRound","type":"uint80","internalType":"uint80"}],"stateMutability":"view"},{"type":"function","name":"latestRoundData","inputs":[],"outputs":[{"name":"roundId","type":"uint80","internalType":"uint80"},{"name":"answer","type":"int256","internalType":"int256"},{"name":"startedAt","type":"uint256","internalType":"uint256"},{"name":"updatedAt","type":"uint256","internalType":"uint256"},{"name":"answeredInRound","type":"uint80","internalType":"uint80"}],"stateMutability":"view"},{"type":"function","name":"setPrice","inputs":[{"name":"newPrice","type":"int256","internalType":"int256"}],"outputs":[],"stateMutability":"nonpayable"},{"type":"function","name":"version","inputs":[],"outputs":[{"name":"","type":"uint256","internalType":"uint256"}],"stateMutability":"pure"}],"bytecode":{"object":"0x608034606857601f61028638819003918201601f19168301916001600160401b03831184841017606c578084926040948552833981010312606857602081519101519060ff82168092036068575f5560ff19600154161760015560405161020590816100818239f35b5f80fd5b634e487b7160e01b5f52604160045260245ffdfe6080806040526004361015610012575f80fd5b5f3560e01c908163313ce567146101b25750806354fd4d50146101975780637284e416146100fd5780639a6fc8f5146100b0578063f7a30806146100985763feaf968c1461005e575f80fd5b34610094575f3660031901126100945760a05f546040519060018252602082015242604082015242606082015260016080820152f35b5f80fd5b34610094576020366003190112610094576004355f55005b346100945760203660031901126100945760043569ffffffffffffffffffff81168091036100945760a0905f54906040519181835260208301524260408301524260608301526080820152f35b34610094575f366003190112610094576040516040810181811067ffffffffffffffff8211176101835760405260198152604060208201917f4d6f636b20436861696e6c696e6b2041676772656761746f720000000000000083528151928391602083525180918160208501528484015e5f828201840152601f01601f19168101030190f35b634e487b7160e01b5f52604160045260245ffd5b34610094575f36600319011261009457602060405160018152f35b34610094575f3660031901126100945760209060ff600154168152f3fea26469706673582212203c0a33b0ce635da2761eb437a12ff47d653fa10951d4152ddf6dcd37d0ed4ce464736f6c63430008210033","linkReferences":{}},"methodIdentifiers":{"decimals()":"313ce567","description()":"7284e416","getRoundData(uint80)":"9a6fc8f5","latestRoundData()":"feaf968c","setPrice(int256)":"f7a30806","version()":"54fd4d50"},"id":0}