{
  "_format": "hh-sol-artifact-1",
  "contractName": "MockUSDC",
  "sourceName": "contracts/mocks/MockUSDC.sol",
  "abi": [
    {
      "inputs": [],
      "stateMutability": "nonpayable",
      "type": "constructor"
    },
    {
      "inputs": [
        {
          "internalType": "address",
          "name": "spender",
          "type": "address"
        },
        {
          "internalType": "uint256",
          "name": "allowance",
          "type": "uint256"
        },
        {
          "internalType": "uint256",
          "name": "needed",
          "type": "uint256"
        }
      ],
      "name": "ERC20InsufficientAllowance",
      "type": "error"
    },
    {
      "inputs": [
        {
          "internalType": "address",
          "name": "sender",
          "type": "address"
        },
        {
          "internalType": "uint256",
          "name": "balance",
          "type": "uint256"
        },
        {
          "internalType": "uint256",
          "name": "needed",
          "type": "uint256"
        }
      ],
      "name": "ERC20InsufficientBalance",
      "type": "error"
    },
    {
      "inputs": [
        {
          "internalType": "address",
          "name": "approver",
          "type": "address"
        }
      ],
      "name": "ERC20InvalidApprover",
      "type": "error"
    },
    {
      "inputs": [
        {
          "internalType": "address",
          "name": "receiver",
          "type": "address"
        }
      ],
      "name": "ERC20InvalidReceiver",
      "type": "error"
    },
    {
      "inputs": [
        {
          "internalType": "address",
          "name": "sender",
          "type": "address"
        }
      ],
      "name": "ERC20InvalidSender",
      "type": "error"
    },
    {
      "inputs": [
        {
          "internalType": "address",
          "name": "spender",
          "type": "address"
        }
      ],
      "name": "ERC20InvalidSpender",
      "type": "error"
    },
    {
      "inputs": [
        {
          "internalType": "address",
          "name": "owner",
          "type": "address"
        }
      ],
      "name": "OwnableInvalidOwner",
      "type": "error"
    },
    {
      "inputs": [
        {
          "internalType": "address",
          "name": "account",
          "type": "address"
        }
      ],
      "name": "OwnableUnauthorizedAccount",
      "type": "error"
    },
    {
      "anonymous": false,
      "inputs": [
        {
          "indexed": true,
          "internalType": "address",
          "name": "owner",
          "type": "address"
        },
        {
          "indexed": true,
          "internalType": "address",
          "name": "spender",
          "type": "address"
        },
        {
          "indexed": false,
          "internalType": "uint256",
          "name": "value",
          "type": "uint256"
        }
      ],
      "name": "Approval",
      "type": "event"
    },
    {
      "anonymous": false,
      "inputs": [
        {
          "indexed": true,
          "internalType": "address",
          "name": "previousOwner",
          "type": "address"
        },
        {
          "indexed": true,
          "internalType": "address",
          "name": "newOwner",
          "type": "address"
        }
      ],
      "name": "OwnershipTransferred",
      "type": "event"
    },
    {
      "anonymous": false,
      "inputs": [
        {
          "indexed": true,
          "internalType": "address",
          "name": "from",
          "type": "address"
        },
        {
          "indexed": true,
          "internalType": "address",
          "name": "to",
          "type": "address"
        },
        {
          "indexed": false,
          "internalType": "uint256",
          "name": "value",
          "type": "uint256"
        }
      ],
      "name": "Transfer",
      "type": "event"
    },
    {
      "inputs": [
        {
          "internalType": "address",
          "name": "owner",
          "type": "address"
        },
        {
          "internalType": "address",
          "name": "spender",
          "type": "address"
        }
      ],
      "name": "allowance",
      "outputs": [
        {
          "internalType": "uint256",
          "name": "",
          "type": "uint256"
        }
      ],
      "stateMutability": "view",
      "type": "function"
    },
    {
      "inputs": [
        {
          "internalType": "address",
          "name": "spender",
          "type": "address"
        },
        {
          "internalType": "uint256",
          "name": "value",
          "type": "uint256"
        }
      ],
      "name": "approve",
      "outputs": [
        {
          "internalType": "bool",
          "name": "",
          "type": "bool"
        }
      ],
      "stateMutability": "nonpayable",
      "type": "function"
    },
    {
      "inputs": [
        {
          "internalType": "address",
          "name": "account",
          "type": "address"
        }
      ],
      "name": "balanceOf",
      "outputs": [
        {
          "internalType": "uint256",
          "name": "",
          "type": "uint256"
        }
      ],
      "stateMutability": "view",
      "type": "function"
    },
    {
      "inputs": [],
      "name": "decimals",
      "outputs": [
        {
          "internalType": "uint8",
          "name": "",
          "type": "uint8"
        }
      ],
      "stateMutability": "pure",
      "type": "function"
    },
    {
      "inputs": [],
      "name": "disableFaucet",
      "outputs": [],
      "stateMutability": "nonpayable",
      "type": "function"
    },
    {
      "inputs": [
        {
          "internalType": "uint256",
          "name": "amount",
          "type": "uint256"
        }
      ],
      "name": "faucet",
      "outputs": [],
      "stateMutability": "nonpayable",
      "type": "function"
    },
    {
      "inputs": [],
      "name": "faucetEnabled",
      "outputs": [
        {
          "internalType": "bool",
          "name": "",
          "type": "bool"
        }
      ],
      "stateMutability": "view",
      "type": "function"
    },
    {
      "inputs": [
        {
          "internalType": "address",
          "name": "to",
          "type": "address"
        },
        {
          "internalType": "uint256",
          "name": "amount",
          "type": "uint256"
        }
      ],
      "name": "mint",
      "outputs": [],
      "stateMutability": "nonpayable",
      "type": "function"
    },
    {
      "inputs": [],
      "name": "name",
      "outputs": [
        {
          "internalType": "string",
          "name": "",
          "type": "string"
        }
      ],
      "stateMutability": "view",
      "type": "function"
    },
    {
      "inputs": [],
      "name": "owner",
      "outputs": [
        {
          "internalType": "address",
          "name": "",
          "type": "address"
        }
      ],
      "stateMutability": "view",
      "type": "function"
    },
    {
      "inputs": [],
      "name": "renounceOwnership",
      "outputs": [],
      "stateMutability": "nonpayable",
      "type": "function"
    },
    {
      "inputs": [],
      "name": "symbol",
      "outputs": [
        {
          "internalType": "string",
          "name": "",
          "type": "string"
        }
      ],
      "stateMutability": "view",
      "type": "function"
    },
    {
      "inputs": [],
      "name": "totalSupply",
      "outputs": [
        {
          "internalType": "uint256",
          "name": "",
          "type": "uint256"
        }
      ],
      "stateMutability": "view",
      "type": "function"
    },
    {
      "inputs": [
        {
          "internalType": "address",
          "name": "to",
          "type": "address"
        },
        {
          "internalType": "uint256",
          "name": "value",
          "type": "uint256"
        }
      ],
      "name": "transfer",
      "outputs": [
        {
          "internalType": "bool",
          "name": "",
          "type": "bool"
        }
      ],
      "stateMutability": "nonpayable",
      "type": "function"
    },
    {
      "inputs": [
        {
          "internalType": "address",
          "name": "from",
          "type": "address"
        },
        {
          "internalType": "address",
          "name": "to",
          "type": "address"
        },
        {
          "internalType": "uint256",
          "name": "value",
          "type": "uint256"
        }
      ],
      "name": "transferFrom",
      "outputs": [
        {
          "internalType": "bool",
          "name": "",
          "type": "bool"
        }
      ],
      "stateMutability": "nonpayable",
      "type": "function"
    },
    {
      "inputs": [
        {
          "internalType": "address",
          "name": "newOwner",
          "type": "address"
        }
      ],
      "name": "transferOwnership",
      "outputs": [],
      "stateMutability": "nonpayable",
      "type": "function"
    }
  ],
  "bytecode": "0x608034620003e1576040906001600160401b0381830181811183821017620002e357835260098252602090684d6f636b205553444360b81b8284015283519284840184811083821117620002e3578552600591828552646d5553444360d81b848601528151818111620002e3576003908154906001948583811c93168015620003d6575b88841014620003c0578190601f938481116200036c575b5088908483116001146200030557600092620002f9575b505060001982851b1c191690851b1782555b8651928311620002e35760049687548581811c91168015620002d8575b88821014620002c3578281116200027a575b50869184116001146200020f5793839491849260009562000203575b50501b92600019911b1c19161783555b3315620001ec578054336001600160a01b0382167f8be0079c531659141344cd1fd0a4f28419497f9722a3daafe3b4186f6b6457e0600080a36001600160a81b0319163360ff60a01b191617600160a01b17905560025466038d7ea4c6800092838201918210620001d757506000917fddf252ad1be2c89b69c2b068fc378daa952ba7f163c4a11628f55a4df523b3ef9160025533835282815284832084815401905584519384523393a35161099b9081620003e78239f35b601190634e487b7160e01b6000525260246000fd5b8351631e4fbdf760e01b8152600081850152602490fd5b0151935038806200010e565b9190601f198416928860005284886000209460005b8a8983831062000262575050501062000247575b50505050811b0183556200011e565b01519060f884600019921b161c191690553880808062000238565b86860151895590970196948501948893500162000224565b886000528760002083808701891c8201928a8810620002b9575b01881c019086905b828110620002ac575050620000f2565b600081550186906200029c565b9250819262000294565b602289634e487b7160e01b6000525260246000fd5b90607f1690620000e0565b634e487b7160e01b600052604160045260246000fd5b015190503880620000b1565b90879350601f19831691866000528a6000209260005b8c8282106200035557505084116200033c575b505050811b018255620000c3565b015160001983871b60f8161c191690553880806200032e565b8385015186558b979095019493840193016200031b565b9091508460005288600020848085018a1c8201928b8610620003b6575b91899186959493018b1c01915b828110620003a65750506200009a565b6000815585945089910162000396565b9250819262000389565b634e487b7160e01b600052602260045260246000fd5b92607f169262000083565b600080fdfe6080604081815260048036101561001557600080fd5b600092833560e01c90816306fdde031461063057508063095ea7b31461058757806318160ddd1461056857806323b872dd14610475578063313ce5671461045957806340c10f191461043457806357915897146104135780635d1c3f04146103ec57806370a08231146103b5578063715018a6146103585780638da5cb5b1461032f578063944d3c2a1461030357806395d89b41146101e3578063a9059cbb146101b2578063dd62ed3e146101655763f2fde38b146100d357600080fd5b34610161576020366003190112610161576100ec61076e565b906100f561079f565b6001600160a01b0391821692831561014b575050600554826bffffffffffffffffffffffff60a01b821617600555167f8be0079c531659141344cd1fd0a4f28419497f9722a3daafe3b4186f6b6457e08380a380f35b51631e4fbdf760e01b8152908101849052602490fd5b8280fd5b5050346101ae57806003193601126101ae578060209261018361076e565b61018b610789565b6001600160a01b0391821683526001865283832091168252845220549051908152f35b5080fd5b5050346101ae57806003193601126101ae576020906101dc6101d261076e565b60243590336107cb565b5160018152f35b509190346101ae57816003193601126101ae57805190828454600181811c908083169283156102f9575b60209384841081146102e6578388529081156102ca5750600114610275575b505050829003601f01601f191682019267ffffffffffffffff841183851017610262575082918261025e925282610725565b0390f35b634e487b7160e01b815260418552602490fd5b8787529192508591837f8a35acfbc15ff81a39ae7d344fd709f28e8600b4aa8c65c6b64bfe7fe36bd19b5b8385106102b6575050505083010138808061022c565b8054888601830152930192849082016102a0565b60ff1916878501525050151560051b840101905038808061022c565b634e487b7160e01b895260228a52602489fd5b91607f169161020d565b833461032c578060031936011261032c5761031c61079f565b6005805460ff60a01b1916905580f35b80fd5b5050346101ae57816003193601126101ae5760055490516001600160a01b039091168152602090f35b833461032c578060031936011261032c5761037161079f565b600580546001600160a01b0319811690915581906001600160a01b03167f8be0079c531659141344cd1fd0a4f28419497f9722a3daafe3b4186f6b6457e08280a380f35b5050346101ae5760203660031901126101ae5760209181906001600160a01b036103dd61076e565b16815280845220549051908152f35b5050346101ae57816003193601126101ae5760209060ff60055460a01c1690519015158152f35b8382346101ae5760203660031901126101ae576104319035336108a9565b80f35b5050346101ae5736600319011261032c5761043161045061076e565b602435906108a9565b5050346101ae57816003193601126101ae576020905160068152f35b50823461032c57606036600319011261032c5761049061076e565b610498610789565b916044359360018060a01b0383168083526001602052868320338452602052868320549160001983106104d4575b6020886101dc8989896107cb565b86831061053c57811561052557331561050e575082526001602090815286832033845281529186902090859003905582906101dc876104c6565b8751634a1406b160e11b8152908101849052602490fd5b875163e602df0560e01b8152908101849052602490fd5b8751637dc7a0d960e11b8152339181019182526020820193909352604081018790528291506060010390fd5b5050346101ae57816003193601126101ae576020906002549051908152f35b50346101615781600319360112610161576105a061076e565b602435903315610619576001600160a01b031691821561060257508083602095338152600187528181208582528752205582519081527f8c5be1e5ebec7d5bd14f71427d1e84f3dd0314c0f7b2291e5b200ac8c7c3b925843392a35160018152f35b8351634a1406b160e11b8152908101859052602490fd5b835163e602df0560e01b8152808401869052602490fd5b849150833461016157826003193601126101615782600354600181811c9080831692831561071b575b60209384841081146102e6578388529081156106ff57506001146106a957505050829003601f01601f191682019267ffffffffffffffff841183851017610262575082918261025e925282610725565b600387529192508591837fc2575a0e9e593c00f959f8c92f12db2869c3395a3b0502d05e2516446f71f85b5b8385106106eb575050505083010185808061022c565b8054888601830152930192849082016106d5565b60ff1916878501525050151560051b840101905085808061022c565b91607f1691610659565b6020808252825181830181905290939260005b82811061075a57505060409293506000838284010152601f8019910116010190565b818101860151848201604001528501610738565b600435906001600160a01b038216820361078457565b600080fd5b602435906001600160a01b038216820361078457565b6005546001600160a01b031633036107b357565b60405163118cdaa760e01b8152336004820152602490fd5b916001600160a01b0380841692831561089057169283156108775760009083825281602052604082205490838210610845575091604082827fddf252ad1be2c89b69c2b068fc378daa952ba7f163c4a11628f55a4df523b3ef958760209652828652038282205586815220818154019055604051908152a3565b60405163391434e360e21b81526001600160a01b03919091166004820152602481019190915260448101839052606490fd5b60405163ec442f0560e01b815260006004820152602490fd5b604051634b637e8f60e11b815260006004820152602490fd5b60ff60055460a01c161561092e576001600160a01b031690811561087757600254908082018092116109185760207fddf252ad1be2c89b69c2b068fc378daa952ba7f163c4a11628f55a4df523b3ef9160009360025584845283825260408420818154019055604051908152a3565b634e487b7160e01b600052601160045260246000fd5b60405162461bcd60e51b815260206004820152600f60248201526e19985d58d95d08191a5cd8589b1959608a1b6044820152606490fdfea264697066735822122056ef8a2685e476711dc56eb285fad63019694deb97830a97e6cd081098597b7864736f6c63430008140033",
  "linkReferences": {},
  "deployedLinkReferences": {}
}