{"abi":[{"type":"constructor","inputs":[{"name":"usdc_","type":"address","internalType":"address"},{"name":"insuranceFund_","type":"address","internalType":"address"}],"stateMutability":"nonpayable"},{"type":"function","name":"BASE_RATE_BPS","inputs":[],"outputs":[{"name":"","type":"uint256","internalType":"uint256"}],"stateMutability":"view"},{"type":"function","name":"BPS_DENOM","inputs":[],"outputs":[{"name":"","type":"uint256","internalType":"uint256"}],"stateMutability":"view"},{"type":"function","name":"DEFAULT_ADMIN_ROLE","inputs":[],"outputs":[{"name":"","type":"bytes32","internalType":"bytes32"}],"stateMutability":"view"},{"type":"function","name":"DURATION_30D","inputs":[],"outputs":[{"name":"","type":"uint256","internalType":"uint256"}],"stateMutability":"view"},{"type":"function","name":"DURATION_365D","inputs":[],"outputs":[{"name":"","type":"uint256","internalType":"uint256"}],"stateMutability":"view"},{"type":"function","name":"DURATION_3YR","inputs":[],"outputs":[{"name":"","type":"uint256","internalType":"uint256"}],"stateMutability":"view"},{"type":"function","name":"DURATION_90D","inputs":[],"outputs":[{"name":"","type":"uint256","internalType":"uint256"}],"stateMutability":"view"},{"type":"function","name":"GOVERNOR_ROLE","inputs":[],"outputs":[{"name":"","type":"bytes32","internalType":"bytes32"}],"stateMutability":"view"},{"type":"function","name":"GUARDIAN_ROLE","inputs":[],"outputs":[{"name":"","type":"bytes32","internalType":"bytes32"}],"stateMutability":"view"},{"type":"function","name":"KINK_RATE_BPS","inputs":[],"outputs":[{"name":"","type":"uint256","internalType":"uint256"}],"stateMutability":"view"},{"type":"function","name":"KINK_UTILIZATION","inputs":[],"outputs":[{"name":"","type":"uint256","internalType":"uint256"}],"stateMutability":"view"},{"type":"function","name":"LOAN_MANAGER_ROLE","inputs":[],"outputs":[{"name":"","type":"bytes32","internalType":"bytes32"}],"stateMutability":"view"},{"type":"function","name":"MAX_RATE_BPS","inputs":[],"outputs":[{"name":"","type":"uint256","internalType":"uint256"}],"stateMutability":"view"},{"type":"function","name":"MULT_30D","inputs":[],"outputs":[{"name":"","type":"uint256","internalType":"uint256"}],"stateMutability":"view"},{"type":"function","name":"MULT_365D","inputs":[],"outputs":[{"name":"","type":"uint256","internalType":"uint256"}],"stateMutability":"view"},{"type":"function","name":"MULT_3YR","inputs":[],"outputs":[{"name":"","type":"uint256","internalType":"uint256"}],"stateMutability":"view"},{"type":"function","name":"MULT_90D","inputs":[],"outputs":[{"name":"","type":"uint256","internalType":"uint256"}],"stateMutability":"view"},{"type":"function","name":"PENALTY_30D","inputs":[],"outputs":[{"name":"","type":"uint256","internalType":"uint256"}],"stateMutability":"view"},{"type":"function","name":"PENALTY_365D","inputs":[],"outputs":[{"name":"","type":"uint256","internalType":"uint256"}],"stateMutability":"view"},{"type":"function","name":"PENALTY_3YR","inputs":[],"outputs":[{"name":"","type":"uint256","internalType":"uint256"}],"stateMutability":"view"},{"type":"function","name":"PENALTY_90D","inputs":[],"outputs":[{"name":"","type":"uint256","internalType":"uint256"}],"stateMutability":"view"},{"type":"function","name":"availableLiquidity","inputs":[],"outputs":[{"name":"","type":"uint256","internalType":"uint256"}],"stateMutability":"view"},{"type":"function","name":"currentApyBps","inputs":[],"outputs":[{"name":"apyBps","type":"uint256","internalType":"uint256"}],"stateMutability":"view"},{"type":"function","name":"deposit","inputs":[{"name":"amount","type":"uint256","internalType":"uint256"},{"name":"lockDuration","type":"uint256","internalType":"uint256"}],"outputs":[{"name":"depositIndex","type":"uint256","internalType":"uint256"}],"stateMutability":"nonpayable"},{"type":"function","name":"depositCount","inputs":[{"name":"","type":"address","internalType":"address"}],"outputs":[{"name":"","type":"uint256","internalType":"uint256"}],"stateMutability":"view"},{"type":"function","name":"deposits","inputs":[{"name":"","type":"address","internalType":"address"},{"name":"","type":"uint256","internalType":"uint256"}],"outputs":[{"name":"principal","type":"uint256","internalType":"uint256"},{"name":"depositedAt","type":"uint256","internalType":"uint256"},{"name":"lockDuration","type":"uint256","internalType":"uint256"},{"name":"multiplierBps","type":"uint256","internalType":"uint256"},{"name":"lastAccrualAt","type":"uint256","internalType":"uint256"},{"name":"accruedYield","type":"uint256","internalType":"uint256"},{"name":"withdrawn","type":"bool","internalType":"bool"}],"stateMutability":"view"},{"type":"function","name":"drawLoan","inputs":[{"name":"amount","type":"uint256","internalType":"uint256"},{"name":"to","type":"address","internalType":"address"}],"outputs":[],"stateMutability":"nonpayable"},{"type":"function","name":"effectiveApyBps","inputs":[{"name":"lockDuration","type":"uint256","internalType":"uint256"}],"outputs":[{"name":"effectiveApyBps_","type":"uint256","internalType":"uint256"}],"stateMutability":"view"},{"type":"function","name":"getDeposits","inputs":[{"name":"lender","type":"address","internalType":"address"}],"outputs":[{"name":"","type":"tuple[]","internalType":"struct LendingPool.Deposit[]","components":[{"name":"principal","type":"uint256","internalType":"uint256"},{"name":"depositedAt","type":"uint256","internalType":"uint256"},{"name":"lockDuration","type":"uint256","internalType":"uint256"},{"name":"multiplierBps","type":"uint256","internalType":"uint256"},{"name":"lastAccrualAt","type":"uint256","internalType":"uint256"},{"name":"accruedYield","type":"uint256","internalType":"uint256"},{"name":"withdrawn","type":"bool","internalType":"bool"}]}],"stateMutability":"view"},{"type":"function","name":"getRoleAdmin","inputs":[{"name":"role","type":"bytes32","internalType":"bytes32"}],"outputs":[{"name":"","type":"bytes32","internalType":"bytes32"}],"stateMutability":"view"},{"type":"function","name":"grantLoanManager","inputs":[{"name":"lm","type":"address","internalType":"address"}],"outputs":[],"stateMutability":"nonpayable"},{"type":"function","name":"grantRole","inputs":[{"name":"role","type":"bytes32","internalType":"bytes32"},{"name":"account","type":"address","internalType":"address"}],"outputs":[],"stateMutability":"nonpayable"},{"type":"function","name":"hasRole","inputs":[{"name":"role","type":"bytes32","internalType":"bytes32"},{"name":"account","type":"address","internalType":"address"}],"outputs":[{"name":"","type":"bool","internalType":"bool"}],"stateMutability":"view"},{"type":"function","name":"insuranceFund","inputs":[],"outputs":[{"name":"","type":"address","internalType":"address"}],"stateMutability":"view"},{"type":"function","name":"pause","inputs":[],"outputs":[],"stateMutability":"nonpayable"},{"type":"function","name":"paused","inputs":[],"outputs":[{"name":"","type":"bool","internalType":"bool"}],"stateMutability":"view"},{"type":"function","name":"pendingYield","inputs":[{"name":"lender","type":"address","internalType":"address"},{"name":"depositIndex","type":"uint256","internalType":"uint256"}],"outputs":[{"name":"","type":"uint256","internalType":"uint256"}],"stateMutability":"view"},{"type":"function","name":"renounceRole","inputs":[{"name":"role","type":"bytes32","internalType":"bytes32"},{"name":"callerConfirmation","type":"address","internalType":"address"}],"outputs":[],"stateMutability":"nonpayable"},{"type":"function","name":"repayLoan","inputs":[{"name":"principal","type":"uint256","internalType":"uint256"},{"name":"interest","type":"uint256","internalType":"uint256"}],"outputs":[],"stateMutability":"nonpayable"},{"type":"function","name":"revokeRole","inputs":[{"name":"role","type":"bytes32","internalType":"bytes32"},{"name":"account","type":"address","internalType":"address"}],"outputs":[],"stateMutability":"nonpayable"},{"type":"function","name":"supportsInterface","inputs":[{"name":"interfaceId","type":"bytes4","internalType":"bytes4"}],"outputs":[{"name":"","type":"bool","internalType":"bool"}],"stateMutability":"view"},{"type":"function","name":"totalBorrowed","inputs":[],"outputs":[{"name":"","type":"uint256","internalType":"uint256"}],"stateMutability":"view"},{"type":"function","name":"totalDeposited","inputs":[],"outputs":[{"name":"","type":"uint256","internalType":"uint256"}],"stateMutability":"view"},{"type":"function","name":"totalInsurance","inputs":[],"outputs":[{"name":"","type":"uint256","internalType":"uint256"}],"stateMutability":"view"},{"type":"function","name":"unpause","inputs":[],"outputs":[],"stateMutability":"nonpayable"},{"type":"function","name":"usdc","inputs":[],"outputs":[{"name":"","type":"address","internalType":"contract IERC20"}],"stateMutability":"view"},{"type":"function","name":"utilizationBps","inputs":[],"outputs":[{"name":"","type":"uint256","internalType":"uint256"}],"stateMutability":"view"},{"type":"function","name":"withdraw","inputs":[{"name":"depositIndex","type":"uint256","internalType":"uint256"}],"outputs":[],"stateMutability":"nonpayable"},{"type":"event","name":"BorrowDrawn","inputs":[{"name":"loanManager","type":"address","indexed":true,"internalType":"address"},{"name":"amount","type":"uint256","indexed":false,"internalType":"uint256"}],"anonymous":false},{"type":"event","name":"BorrowRepaid","inputs":[{"name":"loanManager","type":"address","indexed":true,"internalType":"address"},{"name":"amount","type":"uint256","indexed":false,"internalType":"uint256"},{"name":"interest","type":"uint256","indexed":false,"internalType":"uint256"}],"anonymous":false},{"type":"event","name":"Deposited","inputs":[{"name":"lender","type":"address","indexed":true,"internalType":"address"},{"name":"depositIndex","type":"uint256","indexed":true,"internalType":"uint256"},{"name":"principal","type":"uint256","indexed":false,"internalType":"uint256"},{"name":"lockDuration","type":"uint256","indexed":false,"internalType":"uint256"},{"name":"multiplierBps","type":"uint256","indexed":false,"internalType":"uint256"}],"anonymous":false},{"type":"event","name":"InsuranceFunded","inputs":[{"name":"amount","type":"uint256","indexed":false,"internalType":"uint256"},{"name":"reason","type":"string","indexed":false,"internalType":"string"}],"anonymous":false},{"type":"event","name":"Paused","inputs":[{"name":"account","type":"address","indexed":false,"internalType":"address"}],"anonymous":false},{"type":"event","name":"RoleAdminChanged","inputs":[{"name":"role","type":"bytes32","indexed":true,"internalType":"bytes32"},{"name":"previousAdminRole","type":"bytes32","indexed":true,"internalType":"bytes32"},{"name":"newAdminRole","type":"bytes32","indexed":true,"internalType":"bytes32"}],"anonymous":false},{"type":"event","name":"RoleGranted","inputs":[{"name":"role","type":"bytes32","indexed":true,"internalType":"bytes32"},{"name":"account","type":"address","indexed":true,"internalType":"address"},{"name":"sender","type":"address","indexed":true,"internalType":"address"}],"anonymous":false},{"type":"event","name":"RoleRevoked","inputs":[{"name":"role","type":"bytes32","indexed":true,"internalType":"bytes32"},{"name":"account","type":"address","indexed":true,"internalType":"address"},{"name":"sender","type":"address","indexed":true,"internalType":"address"}],"anonymous":false},{"type":"event","name":"Unpaused","inputs":[{"name":"account","type":"address","indexed":false,"internalType":"address"}],"anonymous":false},{"type":"event","name":"Withdrawn","inputs":[{"name":"lender","type":"address","indexed":true,"internalType":"address"},{"name":"depositIndex","type":"uint256","indexed":true,"internalType":"uint256"},{"name":"principalReturned","type":"uint256","indexed":false,"internalType":"uint256"},{"name":"yieldReturned","type":"uint256","indexed":false,"internalType":"uint256"},{"name":"penaltyCharged","type":"uint256","indexed":false,"internalType":"uint256"},{"name":"earlyExit","type":"bool","indexed":false,"internalType":"bool"}],"anonymous":false},{"type":"error","name":"AccessControlBadConfirmation","inputs":[]},{"type":"error","name":"AccessControlUnauthorizedAccount","inputs":[{"name":"account","type":"address","internalType":"address"},{"name":"neededRole","type":"bytes32","internalType":"bytes32"}]},{"type":"error","name":"AddressEmptyCode","inputs":[{"name":"target","type":"address","internalType":"address"}]},{"type":"error","name":"AddressInsufficientBalance","inputs":[{"name":"account","type":"address","internalType":"address"}]},{"type":"error","name":"EnforcedPause","inputs":[]},{"type":"error","name":"ExpectedPause","inputs":[]},{"type":"error","name":"FailedInnerCall","inputs":[]},{"type":"error","name":"ReentrancyGuardReentrantCall","inputs":[]},{"type":"error","name":"SafeERC20FailedOperation","inputs":[{"name":"token","type":"address","internalType":"address"}]}],"bytecode":{"object":"0x60c03461017a57601f611eb838819003918201601f19168301916001600160401b0383118484101761017e57808492604094855283398101031261017a57610052602061004b83610192565b9201610192565b600180556002805460ff19169055906001600160a01b03168015610141576001600160a01b038216156100fc5760805260a05261008e336101a6565b506100983361021c565b506100a2336102af565b50604051611af590816103438239608051818181610406015281816106d801528181610b2501528181610ddb01528181610fcf0152818161106a0152611449015260a0518181816107c201528181610b0401526110490152f35b60405162461bcd60e51b815260206004820152601b60248201527f5665737472613a207a65726f20696e737572616e63652066756e6400000000006044820152606490fd5b60405162461bcd60e51b81526020600482015260116024820152705665737472613a207a65726f205553444360781b6044820152606490fd5b5f80fd5b634e487b7160e01b5f52604160045260245ffd5b51906001600160a01b038216820361017a57565b6001600160a01b0381165f9081525f516020611e985f395f51905f52602052604090205460ff16610217576001600160a01b03165f8181525f516020611e985f395f51905f5260205260408120805460ff191660011790553391905f516020611e385f395f51905f528180a4600190565b505f90565b6001600160a01b0381165f9081525f516020611e785f395f51905f52602052604090205460ff16610217576001600160a01b03165f8181525f516020611e785f395f51905f5260205260408120805460ff191660011790553391907f7935bd0ae54bc31f548c14dba4d37c5c64b3f8ca900cb468fb8abd54d5894f55905f516020611e385f395f51905f529080a4600190565b6001600160a01b0381165f9081525f516020611e585f395f51905f52602052604090205460ff16610217576001600160a01b03165f8181525f516020611e585f395f51905f5260205260408120805460ff191660011790553391907f55435dd261a4b9b3364963f7738a7a662ad9c84396d64be3365284bb7f0a5041905f516020611e385f395f51905f529080a460019056fe60806040526004361015610011575f80fd5b5f3560e01c8062cf7a42146112aa57806301ffc9a714611254578063162517c81461123a578063248a9ca31461121057806324ea54f4146111d6578063286e67bc146111b957806329842d9d1461119d5780632e1a7d4d14610f165780632f2ff15d14610ed957806336568abe14610e9557806338882ddc14610e7957806338e6026d14610e0a5780633e413bee14610dc65780633f4ba83a14610d605780634c19386c14610d43578063525b9fde14610d09578063534b736e14610ccf5780635c975abb14610cad5780636637e38c14610ca85780636bccc29714610c8b5780637437535914610c7157806376bb4e9314610c545780637e01888914610861578063825cd71d14610c385780638456cb5914610bdf5780638742011214610bb85780638a700b5314610a4157806391d14854146109f957806394f649dd146108a4578063975e900e146108825780639a5a9250146108665780639b93eaaf14610861578063a217fddf14610847578063aabbbf7114610829578063acf271141461080d578063b0c0c264146107f1578063b7902303146107ad578063c20a723f14610791578063c9e32c4314610773578063ca8c718214610680578063ccc5749014610646578063d547741f14610602578063d6d6817714610569578063e192dfbf1461054d578063e2bbb1581461029d578063f1b9588614610281578063f4443d9a146102495763ff50abdc14610228575f80fd5b34610245575f366003190112610245576020600354604051908152f35b5f80fd5b34610245576020366003190112610245576001600160a01b0361026a6112dc565b165f526007602052602060405f2054604051908152f35b34610245575f3660031901126102455760206040516107d08152f35b34610245576102ab3661130e565b906102b461153c565b6102bc61155c565b80156105115762278d0082148015610505575b80156104f8575b80156104eb575b156104a6576102eb82611928565b91335f52600660205260405f205491335f52600660205260405f20604051610312816113f0565b828152602081014281526040820185815260608301888152608084019042825260a08501925f845260c08601965f88528054680100000000000000008110156104925761036491600182018155611324565b95909561047f57600696518655516001860155516002850155516003840155516004830155516005820155019051151560ff80198354169116179055335f52600760205260405f20938454925f19841461046b57602095600186950190556103ce83600354611371565b60035561042a6040516323b872dd60e01b888201523360248201523060448201528460648201526064815261040460848261140c565b7f00000000000000000000000000000000000000000000000000000000000000006119ae565b6040519283528583015260408201527fe3b53cd1a44fbf11535e145d80b8ef1ed6d57a73bf5daa7e939b6b01657d654960603392a360018055604051908152f35b634e487b7160e01b5f52601160045260245ffd5b634e487b7160e01b5f525f60045260245ffd5b634e487b7160e01b5f52604160045260245ffd5b60405162461bcd60e51b815260206004820152601d60248201527f5665737472613a20696e76616c6964206c6f636b206475726174696f6e0000006044820152606490fd5b506305a39a8082146102dd565b506301e1338082146102d6565b506276a70082146102cf565b60405162461bcd60e51b815260206004820152601460248201527315995cdd1c984e881e995c9bc819195c1bdcda5d60621b6044820152606490fd5b34610245575f366003190112610245576020604051613a988152f35b34610245576040366003190112610245576105826112dc565b6001600160a01b03165f908152600660205260409020805460243591908210156102455760e0916105b291611324565b508054906001810154906002810154600382015460048301549160ff600660058601549501541694604051968752602087015260408601526060850152608084015260a0830152151560c0820152f35b34610245576040366003190112610245576106446004356106216112c6565b9061063f61063a825f525f602052600160405f20015490565b611722565b6118a8565b005b34610245575f3660031901126102455760206040517f7935bd0ae54bc31f548c14dba4d37c5c64b3f8ca900cb468fb8abd54d5894f558152f35b346102455760403660031901126102455760043561069c6112c6565b6106a46116b3565b6106ac61153c565b6106b461155c565b816106bd61142e565b1061072e57816106fc916106d382600454611371565b6004557f0000000000000000000000000000000000000000000000000000000000000000611602565b6040519081527fd1b3960cb61364b9d604b57560e9cc51dee97b64ac1f1e151aa3b2ff7532527960203392a260018055005b60405162461bcd60e51b815260206004820152601e60248201527f5665737472613a20696e73756666696369656e74206c697175696469747900006044820152606490fd5b34610245575f3660031901126102455760206040516305a39a808152f35b34610245575f366003190112610245576020604051612cec8152f35b34610245575f366003190112610245576040517f00000000000000000000000000000000000000000000000000000000000000006001600160a01b03168152602090f35b34610245575f366003190112610245576020604051614e208152f35b34610245575f366003190112610245576020604051611d4c8152f35b34610245575f3660031901126102455760206040516301e133808152f35b34610245575f3660031901126102455760206040515f8152f35b6112f2565b34610245575f3660031901126102455760206040516102ee8152f35b34610245575f36600319011261024557602061089c611517565b604051908152f35b34610245576020366003190112610245576001600160a01b036108c56112dc565b165f52600660205260405f2080549067ffffffffffffffff821161049257604051916108f760208260051b018461140c565b8083526020830180925f5260205f205f915b838310610995578486604051918291602083019060208452518091526040830191905f5b81811061093b575050500390f35b91935091602060e060019260c0875180518352848101518584015260408101516040840152606081015160608401526080810151608084015260a081015160a08401520151151560c082015201940191019184939261092d565b600760206001926040516109a8816113f0565b855481528486015483820152600286015460408201526003860154606082015260048601546080820152600586015460a082015260ff600687015416151560c0820152815201920192019190610909565b3461024557604036600319011261024557610a126112c6565b6004355f525f60205260405f209060018060a01b03165f52602052602060ff60405f2054166040519015158152f35b3461024557610a4f3661130e565b610a576116b3565b610a5f61153c565b8115610b7a57610a7182600454611351565b6004556107d081028181046107d0148215171561046b57612710900480610acb575b5060405191825260208201527fc5a092dbb0383c8a22cdbb319fc7b375d2215aa2f8bb6d1137eacc84242a42ab60403392a260018055005b608081610afb7ff9cef50cde80d5543386b85f8584eb98f29bb4cb8a7f4961777c50385285994993600554611371565b600555610b49817f00000000000000000000000000000000000000000000000000000000000000007f0000000000000000000000000000000000000000000000000000000000000000611602565b60405190815260406020820152600d60408201526c1b1bd85b97da5b9d195c995cdd609a1b6060820152a182610a93565b60405162461bcd60e51b815260206004820152601660248201527515995cdd1c984e881e995c9bc81c1c9a5b98da5c185b60521b6044820152606490fd5b3461024557604036600319011261024557602061089c610bd66112dc565b602435906114dc565b34610245575f36600319011261024557610bf7611644565b610bff61155c565b600160ff1960025416176002557f62e78cea01bee320cd4e420270b5ea74000d11b0c9f74754ebdbfc544b05a2586020604051338152a1005b34610245575f3660031901126102455760206040516132c88152f35b34610245575f366003190112610245576020600554604051908152f35b34610245575f36600319011261024557602061089c61142e565b34610245575f36600319011261024557602060405162278d008152f35b6112aa565b34610245575f36600319011261024557602060ff600254166040519015158152f35b34610245576020366003190112610245576020612710610d00610cf3600435611928565b610cfb61137e565b61135e565b04604051908152f35b34610245575f3660031901126102455760206040517fa03a3445a42c88c4c71fab3b69391367d1386136663ed015f42f4322182d45478152f35b34610245575f366003190112610245576020600454604051908152f35b34610245575f36600319011261024557610d78611644565b60025460ff811615610db75760ff19166002557f5db9ee0a495bf2e6ff9c91a7834c1ba4fdd244a5e8aa4e537bd38aeae4b073aa6020604051338152a1005b638dfc202b60e01b5f5260045ffd5b34610245575f366003190112610245576040517f00000000000000000000000000000000000000000000000000000000000000006001600160a01b03168152602090f35b3461024557602036600319011261024557610e236112dc565b335f9081527fad3228b676f7d3cd4284a5443f17f1962b36e491b30a40b2405849e597ba5fb5602052604090205460ff1615610e62576106449061175a565b63e2517d3f60e01b5f52336004525f60245260445ffd5b34610245575f3660031901126102455760206040516105dc8152f35b3461024557604036600319011261024557610eae6112c6565b336001600160a01b03821603610eca57610644906004356118a8565b63334bd91960e11b5f5260045ffd5b3461024557604036600319011261024557610644600435610ef86112c6565b90610f1161063a825f525f602052600160405f20015490565b611826565b3461024557602036600319011261024557600435610f3261153c565b610f3a61155c565b335f526006602052610f4f8160405f20611324565b50600681019060ff8254166111585780541561111e57610f6f8333611577565b6001810154610f8360028301548092611371565b421080925f928154956005879301918254946110e6575b50805460ff191660011790555f9055600354610fb69190611351565b60035581611034575b610ff3610fcc8286611371565b337f0000000000000000000000000000000000000000000000000000000000000000611602565b6040519384526020840152604083015260608201527fa236f2dcd2b940fd86168787a5f820805cdbd85131f7192d9d9c418556876fca60803392a360018055005b61104082600554611371565b60055561108e827f00000000000000000000000000000000000000000000000000000000000000007f0000000000000000000000000000000000000000000000000000000000000000611602565b7ff9cef50cde80d5543386b85f8584eb98f29bb4cb8a7f4961777c50385285994960806040518481526040602082015260126040820152716561726c795f657869745f70656e616c747960701b6060820152a1610fbf565b610fb693929795505f91945061271061110a611104611112936115c9565b8861135e565b048096611351565b96819491509192610f9a565b60405162461bcd60e51b815260206004820152601260248201527115995cdd1c984e881b9bc819195c1bdcda5d60721b6044820152606490fd5b60405162461bcd60e51b815260206004820152601960248201527f5665737472613a20616c72656164792077697468647261776e000000000000006044820152606490fd5b34610245575f3660031901126102455760206040516103e88152f35b34610245575f3660031901126102455760206040516276a7008152f35b34610245575f3660031901126102455760206040517f55435dd261a4b9b3364963f7738a7a662ad9c84396d64be3365284bb7f0a50418152f35b3461024557602036600319011261024557602061089c6004355f525f602052600160405f20015490565b34610245575f36600319011261024557602061089c61137e565b346102455760203660031901126102455760043563ffffffff60e01b811680910361024557602090637965db0b60e01b8114908115611299575b506040519015158152f35b6301ffc9a760e01b1490508261128e565b34610245575f3660031901126102455760206040516127108152f35b602435906001600160a01b038216820361024557565b600435906001600160a01b038216820361024557565b34610245575f3660031901126102455760206040516101f48152f35b6040906003190112610245576004359060243590565b805482101561133d575f52600760205f20910201905f90565b634e487b7160e01b5f52603260045260245ffd5b9190820391821161046b57565b8181029291811591840414171561046b57565b9190820180921161046b57565b611386611517565b611d4c81116113b9576105dc8102908082046105dc149015171561046b57611d4c90046101f401806101f41161046b5790565b611d4b19810190811161046b57614650810290808204614650149015171561046b576109c490046107d001806107d01161046b5790565b60e0810190811067ffffffffffffffff82111761049257604052565b90601f8019910116810190811067ffffffffffffffff82111761049257604052565b6040516370a0823160e01b81523060048201526020816024817f00000000000000000000000000000000000000000000000000000000000000006001600160a01b03165afa9081156114d1575f9161149f575b50600554808211156114995761149691611351565b90565b50505f90565b90506020813d6020116114c9575b816114ba6020938361140c565b8101031261024557515f611481565b3d91506114ad565b6040513d5f823e3d90fd5b6001600160a01b03165f9081526006602052604090206114fc9190611324565b5060ff6006820154166115125761149690611961565b505f90565b600354801561151257600454612710810290808204612710149015171561046b570490565b60026001541461154d576002600155565b633ee5aeb560e01b5f5260045ffd5b60ff6002541661156857565b63d93c066560e01b5f5260045ffd5b6001600160a01b03165f9081526006602052604090206115979190611324565b5060ff6006820154166115c6576115ad81611961565b6115bc60058301918254611371565b9055600442910155565b50565b6305a39a8081146115fb576301e1338081146115f4576276a700146115ee576101f490565b6102ee90565b506103e890565b506105dc90565b60405163a9059cbb60e01b60208201526001600160a01b0390921660248301526044808301939093529181526116429161163d60648361140c565b6119ae565b565b335f9081527f8a40f0b47fdc2a0ce293b772acfc7508c8315a4d462786c1adc3a56f92ca2d05602052604090205460ff161561167c57565b63e2517d3f60e01b5f52336004527f55435dd261a4b9b3364963f7738a7a662ad9c84396d64be3365284bb7f0a504160245260445ffd5b335f9081527fd218e64a0fe283a7f07d2f18055cae3dc0b341a1584dbf13ba47530eb53c7918602052604090205460ff16156116eb57565b63e2517d3f60e01b5f52336004527fa03a3445a42c88c4c71fab3b69391367d1386136663ed015f42f4322182d454760245260445ffd5b5f8181526020818152604080832033845290915290205460ff16156117445750565b63e2517d3f60e01b5f523360045260245260445ffd5b6001600160a01b0381165f9081527fd218e64a0fe283a7f07d2f18055cae3dc0b341a1584dbf13ba47530eb53c7918602052604090205460ff16611512576001600160a01b03165f8181527fd218e64a0fe283a7f07d2f18055cae3dc0b341a1584dbf13ba47530eb53c791860205260408120805460ff191660011790553391907fa03a3445a42c88c4c71fab3b69391367d1386136663ed015f42f4322182d4547907f2f8788117e7eff1d82e926ec794901d17c78024a50270940304540a733656f0d9080a4600190565b5f818152602081815260408083206001600160a01b038616845290915290205460ff16611499575f818152602081815260408083206001600160a01b0395909516808452949091528120805460ff19166001179055339291907f2f8788117e7eff1d82e926ec794901d17c78024a50270940304540a733656f0d9080a4600190565b5f818152602081815260408083206001600160a01b038616845290915290205460ff1615611499575f818152602081815260408083206001600160a01b0395909516808452949091528120805460ff19169055339291907ff6391f5c32d9c69d2a47ea670b442974b53935d1edc7fd64eb21e047a839171b9080a4600190565b6305a39a80811461195a576301e133808114611953576276a7001461194d5761271090565b612cec90565b506132c890565b50613a9890565b60ff600682015416611512576119aa81610cfb611988600464496cebb80095015442611351565b916127106119a261199761137e565b60038401549061135e565b04905461135e565b0490565b81516001600160a01b03909116915f91829160200182855af13d15611a55573d67ffffffffffffffff811161049257611a0991604051916119f96020601f19601f840116018461140c565b82523d5f602084013e5b83611a61565b8051908115159182611a31575b5050611a1f5750565b635274afe760e01b5f5260045260245ffd5b81925090602091810103126102455760200151801590811503610245575f80611a16565b611a0990606090611a03565b90611a855750805115611a7657805190602001fd5b630a12f52160e11b5f5260045ffd5b81511580611ab6575b611a96575090565b639996b31560e01b5f9081526001600160a01b0391909116600452602490fd5b50803b15611a8e56fea26469706673582212200fd28763792d09eb427a83d76b8d6423a4a7d41e7dc8722a5a0cba7f42a61a6664736f6c634300082100332f8788117e7eff1d82e926ec794901d17c78024a50270940304540a733656f0d8a40f0b47fdc2a0ce293b772acfc7508c8315a4d462786c1adc3a56f92ca2d056f3b488caa0dc03e5f3d9fd6a25fa8755afcfd62ccffb6e436c696bfa6b866dead3228b676f7d3cd4284a5443f17f1962b36e491b30a40b2405849e597ba5fb5","linkReferences":{}},"methodIdentifiers":{"BASE_RATE_BPS()":"7e018889","BPS_DENOM()":"6637e38c","DEFAULT_ADMIN_ROLE()":"a217fddf","DURATION_30D()":"6bccc297","DURATION_365D()":"aabbbf71","DURATION_3YR()":"c9e32c43","DURATION_90D()":"286e67bc","GOVERNOR_ROLE()":"ccc57490","GUARDIAN_ROLE()":"24ea54f4","KINK_RATE_BPS()":"f1b95886","KINK_UTILIZATION()":"acf27114","LOAN_MANAGER_ROLE()":"525b9fde","MAX_RATE_BPS()":"b0c0c264","MULT_30D()":"00cf7a42","MULT_365D()":"825cd71d","MULT_3YR()":"e192dfbf","MULT_90D()":"c20a723f","PENALTY_30D()":"9b93eaaf","PENALTY_365D()":"29842d9d","PENALTY_3YR()":"38882ddc","PENALTY_90D()":"9a5a9250","availableLiquidity()":"74375359","currentApyBps()":"162517c8","deposit(uint256,uint256)":"e2bbb158","depositCount(address)":"f4443d9a","deposits(address,uint256)":"d6d68177","drawLoan(uint256,address)":"ca8c7182","effectiveApyBps(uint256)":"534b736e","getDeposits(address)":"94f649dd","getRoleAdmin(bytes32)":"248a9ca3","grantLoanManager(address)":"38e6026d","grantRole(bytes32,address)":"2f2ff15d","hasRole(bytes32,address)":"91d14854","insuranceFund()":"b7902303","pause()":"8456cb59","paused()":"5c975abb","pendingYield(address,uint256)":"87420112","renounceRole(bytes32,address)":"36568abe","repayLoan(uint256,uint256)":"8a700b53","revokeRole(bytes32,address)":"d547741f","supportsInterface(bytes4)":"01ffc9a7","totalBorrowed()":"4c19386c","totalDeposited()":"ff50abdc","totalInsurance()":"76bb4e93","unpause()":"3f4ba83a","usdc()":"3e413bee","utilizationBps()":"975e900e","withdraw(uint256)":"2e1a7d4d"},"id":48}