{
  "_format": "hh-sol-artifact-1",
  "contractName": "LendingPool",
  "sourceName": "contracts/LendingPool.sol",
  "abi": [
    {
      "inputs": [
        {
          "internalType": "address",
          "name": "_usdc",
          "type": "address"
        }
      ],
      "stateMutability": "nonpayable",
      "type": "constructor"
    },
    {
      "inputs": [],
      "name": "EnforcedPause",
      "type": "error"
    },
    {
      "inputs": [],
      "name": "ExpectedPause",
      "type": "error"
    },
    {
      "inputs": [
        {
          "internalType": "address",
          "name": "owner",
          "type": "address"
        }
      ],
      "name": "OwnableInvalidOwner",
      "type": "error"
    },
    {
      "inputs": [
        {
          "internalType": "address",
          "name": "account",
          "type": "address"
        }
      ],
      "name": "OwnableUnauthorizedAccount",
      "type": "error"
    },
    {
      "inputs": [],
      "name": "ReentrancyGuardReentrantCall",
      "type": "error"
    },
    {
      "anonymous": false,
      "inputs": [
        {
          "indexed": true,
          "internalType": "address",
          "name": "previousOwner",
          "type": "address"
        },
        {
          "indexed": true,
          "internalType": "address",
          "name": "newOwner",
          "type": "address"
        }
      ],
      "name": "OwnershipTransferred",
      "type": "event"
    },
    {
      "anonymous": false,
      "inputs": [
        {
          "indexed": false,
          "internalType": "address",
          "name": "account",
          "type": "address"
        }
      ],
      "name": "Paused",
      "type": "event"
    },
    {
      "anonymous": false,
      "inputs": [
        {
          "indexed": false,
          "internalType": "address",
          "name": "account",
          "type": "address"
        }
      ],
      "name": "Unpaused",
      "type": "event"
    },
    {
      "inputs": [],
      "name": "BPS_DENOMINATOR",
      "outputs": [
        {
          "internalType": "uint256",
          "name": "",
          "type": "uint256"
        }
      ],
      "stateMutability": "view",
      "type": "function"
    },
    {
      "inputs": [],
      "name": "availableLiquidity",
      "outputs": [
        {
          "internalType": "uint256",
          "name": "",
          "type": "uint256"
        }
      ],
      "stateMutability": "view",
      "type": "function"
    },
    {
      "inputs": [
        {
          "internalType": "uint256",
          "name": "amount",
          "type": "uint256"
        }
      ],
      "name": "deposit",
      "outputs": [],
      "stateMutability": "nonpayable",
      "type": "function"
    },
    {
      "inputs": [
        {
          "internalType": "address",
          "name": "",
          "type": "address"
        }
      ],
      "name": "deposits",
      "outputs": [
        {
          "internalType": "uint256",
          "name": "",
          "type": "uint256"
        }
      ],
      "stateMutability": "view",
      "type": "function"
    },
    {
      "inputs": [],
      "name": "getInterestRateBps",
      "outputs": [
        {
          "internalType": "uint256",
          "name": "",
          "type": "uint256"
        }
      ],
      "stateMutability": "view",
      "type": "function"
    },
    {
      "inputs": [
        {
          "internalType": "address",
          "name": "to",
          "type": "address"
        },
        {
          "internalType": "uint256",
          "name": "amount",
          "type": "uint256"
        }
      ],
      "name": "lend",
      "outputs": [],
      "stateMutability": "nonpayable",
      "type": "function"
    },
    {
      "inputs": [],
      "name": "loanManager",
      "outputs": [
        {
          "internalType": "address",
          "name": "",
          "type": "address"
        }
      ],
      "stateMutability": "view",
      "type": "function"
    },
    {
      "inputs": [],
      "name": "owner",
      "outputs": [
        {
          "internalType": "address",
          "name": "",
          "type": "address"
        }
      ],
      "stateMutability": "view",
      "type": "function"
    },
    {
      "inputs": [],
      "name": "pause",
      "outputs": [],
      "stateMutability": "nonpayable",
      "type": "function"
    },
    {
      "inputs": [],
      "name": "paused",
      "outputs": [
        {
          "internalType": "bool",
          "name": "",
          "type": "bool"
        }
      ],
      "stateMutability": "view",
      "type": "function"
    },
    {
      "inputs": [],
      "name": "renounceOwnership",
      "outputs": [],
      "stateMutability": "nonpayable",
      "type": "function"
    },
    {
      "inputs": [
        {
          "internalType": "uint256",
          "name": "amount",
          "type": "uint256"
        }
      ],
      "name": "repay",
      "outputs": [],
      "stateMutability": "nonpayable",
      "type": "function"
    },
    {
      "inputs": [
        {
          "internalType": "address",
          "name": "manager",
          "type": "address"
        }
      ],
      "name": "setLoanManager",
      "outputs": [],
      "stateMutability": "nonpayable",
      "type": "function"
    },
    {
      "inputs": [],
      "name": "totalBorrowed",
      "outputs": [
        {
          "internalType": "uint256",
          "name": "",
          "type": "uint256"
        }
      ],
      "stateMutability": "view",
      "type": "function"
    },
    {
      "inputs": [],
      "name": "totalDeposits",
      "outputs": [
        {
          "internalType": "uint256",
          "name": "",
          "type": "uint256"
        }
      ],
      "stateMutability": "view",
      "type": "function"
    },
    {
      "inputs": [
        {
          "internalType": "address",
          "name": "newOwner",
          "type": "address"
        }
      ],
      "name": "transferOwnership",
      "outputs": [],
      "stateMutability": "nonpayable",
      "type": "function"
    },
    {
      "inputs": [],
      "name": "unpause",
      "outputs": [],
      "stateMutability": "nonpayable",
      "type": "function"
    },
    {
      "inputs": [],
      "name": "usdc",
      "outputs": [
        {
          "internalType": "contract IERC20",
          "name": "",
          "type": "address"
        }
      ],
      "stateMutability": "view",
      "type": "function"
    },
    {
      "inputs": [],
      "name": "utilizationRateBps",
      "outputs": [
        {
          "internalType": "uint256",
          "name": "",
          "type": "uint256"
        }
      ],
      "stateMutability": "view",
      "type": "function"
    },
    {
      "inputs": [
        {
          "internalType": "uint256",
          "name": "amount",
          "type": "uint256"
        }
      ],
      "name": "withdraw",
      "outputs": [],
      "stateMutability": "nonpayable",
      "type": "function"
    }
  ],
  "bytecode": "0x6080346100cd57601f610c1238819003918201601f19168301916001600160401b038311848410176100d2578084926020946040528339810103126100cd57516001600160a01b0390818116908190036100cd57600160005533156100b45760018054336001600160a01b03198083168217909355604051949091167f8be0079c531659141344cd1fd0a4f28419497f9722a3daafe3b4186f6b6457e0600080a36002541617600255610b2990816100e98239f35b604051631e4fbdf760e01b815260006004820152602490fd5b600080fd5b634e487b7160e01b600052604160045260246000fdfe6040608081526004908136101561001557600080fd5b600091823560e01c90816303d98c1f146108a85781632e1a7d4d14610767578163371fd8e6146106d05781633e413bee146106a75781633f4ba83a146106375781634c19386c146106185781635772ae70146105995781635c975abb14610572578163715018a61461051257816374375359146104e75781637d882097146104c85781638456cb59146104675781638da5cb5b1461043e578163a2fb342d1461033f578163b3ccbcfe1461031657838263b6b55f251461022d57508163e1a4521814610210578163f2fde38b14610180578163fc7e286d14610146575063ff3ac2641461010157600080fd5b3461014257816003193601126101425760209161138861011f610ac9565b111590506101365761ffff6103e8915b5191168152f35b61ffff6101f49161012f565b5080fd5b90503461017c57602036600319011261017c5760209282916001600160a01b0361016e6108c5565b168252845220549051908152f35b8280fd5b90503461017c57602036600319011261017c5761019b6108c5565b906101a46108e0565b6001600160a01b039182169283156101fa575050600154826bffffffffffffffffffffffff60a01b821617600155167f8be0079c531659141344cd1fd0a4f28419497f9722a3daafe3b4186f6b6457e08380a380f35b51631e4fbdf760e01b8152908101849052602490fd5b505034610142578160031936011261014257602090516127108152f35b809184346103125760203660031901126103125781359161024c610a15565b6102546109f4565b61025f83151561090c565b60025482516323b872dd60e01b81523383820152306024820152604481018590529460209186916064918391906001600160a01b03165af1938415610308576102d0946102b39187916102da575b50610993565b33855260205283206102c68282546109d1565b90556005546109d1565b6005556001815580f35b6102fb915060203d8111610301575b6102f38183610943565b81019061097b565b876102ad565b503d6102e9565b82513d87823e3d90fd5b5050fd5b50503461014257816003193601126101425760035490516001600160a01b039091168152602090f35b90503461017c578160031936011261017c5760206103f19161035f6108c5565b906024359161036c610a15565b8660018060a01b0361038381600354163314610a8a565b61038b6109f4565b61039685151561090c565b6103ba856005546103b5826103ae6006548094610a7d565b1015610a38565b6109d1565b600655600254169287519687958694859363a9059cbb60e01b8552840160209093929193604081019460018060a01b031681520152565b03925af19081156104325761040d925083916104145750610993565b6001815580f35b61042c915060203d8111610301576102f38183610943565b386102ad565b505051903d90823e3d90fd5b50503461014257816003193601126101425760015490516001600160a01b039091168152602090f35b50503461014257816003193601126101425760207f62e78cea01bee320cd4e420270b5ea74000d11b0c9f74754ebdbfc544b05a258916104a56108e0565b6104ad6109f4565b6001805460ff60a01b1916600160a01b17905551338152a180f35b5050346101425781600319360112610142576020906005549051908152f35b50503461014257816003193601126101425760209061050b60055460065490610a7d565b9051908152f35b833461056f578060031936011261056f5761052b6108e0565b600180546001600160a01b0319811690915581906001600160a01b03167f8be0079c531659141344cd1fd0a4f28419497f9722a3daafe3b4186f6b6457e08280a380f35b80fd5b50503461014257816003193601126101425760209060ff60015460a01c1690519015158152f35b90503461017c57602036600319011261017c576105b46108c5565b6105bc6108e0565b6001600160a01b03169182156105e95750506bffffffffffffffffffffffff60a01b600354161760035580f35b906020606492519162461bcd60e51b8352820152600960248201526806d616e616765723d360bc1b6044820152fd5b5050346101425781600319360112610142576020906006549051908152f35b90503461017c578260031936011261017c576106516108e0565b6001549060ff8260a01c1615610699575060ff60a01b1916600155513381527f5db9ee0a495bf2e6ff9c91a7834c1ba4fdd244a5e8aa4e537bd38aeae4b073aa90602090a180f35b8251638dfc202b60e01b8152fd5b50503461014257816003193601126101425760025490516001600160a01b039091168152602090f35b83915034610142576020366003190112610142578035906106ef610a15565b61070460018060a01b03600354163314610a8a565b61070c6109f4565b61071782151561090c565b6006549082821061073757509061072d91610a7d565b6006556001815580f35b606490602086519162461bcd60e51b8352820152600a6024820152691c995c185e4f9919589d60b21b6044820152fd5b90503461017c57602090816003193601126108a457803590610787610a15565b61078f6109f4565b61079a82151561090c565b33855280835281848620541061086a578183916107c3610822946103ae60055460065490610a7d565b3387528083528587206107d7838254610a7d565b90556107e582600554610a7d565b600555600254865163a9059cbb60e01b8152339281019283526020830193909352919384926001600160a01b031691839189918391604090910190565b03925af191821561085d5761040d93508492610840575b5050610993565b6108569250803d10610301576102f38183610943565b3880610839565b50505051903d90823e3d90fd5b835162461bcd60e51b815290810183905260146024820152731a5b9cdd59999a58da595b9d0819195c1bdcda5d60621b6044820152606490fd5b8380fd5b50503461014257816003193601126101425760209061050b610ac9565b600435906001600160a01b03821682036108db57565b600080fd5b6001546001600160a01b031633036108f457565b60405163118cdaa760e01b8152336004820152602490fd5b1561091357565b60405162461bcd60e51b81526020600482015260086024820152670616d6f756e743d360c41b6044820152606490fd5b90601f8019910116810190811067ffffffffffffffff82111761096557604052565b634e487b7160e01b600052604160045260246000fd5b908160209103126108db575180151581036108db5790565b1561099a57565b60405162461bcd60e51b815260206004820152600f60248201526e1d1c985b9cd9995c8819985a5b1959608a1b6044820152606490fd5b919082018092116109de57565b634e487b7160e01b600052601160045260246000fd5b60ff60015460a01c16610a0357565b60405163d93c066560e01b8152600490fd5b600260005414610a26576002600055565b604051633ee5aeb560e01b8152600490fd5b15610a3f57565b60405162461bcd60e51b8152602060048201526016602482015275696e73756666696369656e74206c697175696469747960501b6044820152606490fd5b919082039182116109de57565b15610a9157565b60405162461bcd60e51b815260206004820152601060248201526f3737ba103637b0b71036b0b730b3b2b960811b6044820152606490fd5b6005548015610aed57600654612710908181029181830414901517156109de570490565b5060009056fea26469706673582212200d4a22a47ed8e63f22fcbd7eaf15a6845e47232a2770f84227bbfe8e89ba834c64736f6c63430008140033",
  "linkReferences": {},
  "deployedLinkReferences": {}
}